:100000000C94FF070C9427080C9427080C942708DD
:100010000C9427080C9427080C9427080C942708A4
:100020000C9427080C9427080C9427080C94270894
:100030000C9427080C9427080C9427080C94270884
:100040000C94320C0C9427080C94D20A0C94AC0A31
:100050000C9427080C9427080C9427080C94270864
:100060000C947C0C0C942708B81BF71BF41BED1B9D
:10007000F41BEA1B661CE71BE41BDD1BC51BB51B41
:10008000CD1BD51B691C00000000240027002A009E
:10009000010204081020408001020408102001021F
:1000A0000408102000000000250028002B00040494
:1000B0000404040404040202020202020303030310
:1000C00003030000000023002600290000000008B0
:1000D000000201000003040700000000000000000F
:1000E0000C30300B012000C0F87C3E3EFCF8C00014
:1000F0000000000080E078FEFE000000000000F03C
:100100007C3C3E3EFEFCE0000000007C3E3E3EFEAD
:10011000F8C0000000000000000000F8FEFE000033
:10012000000000FEFE3E3E3E3E3E0000000000009D
:1001300080F0FC3E3E3EFC000000003E3E3E3E3E67
:100140003E3EFEFE00000000C0F8FE3E7EFCE000E9
:1001500000000000E0FC7E3EFEF8C0000000000051
:100160000000C0E0C00000000000F0FF0F00000031
:10017000F9FFFFF000000000070300FFFF00000090
:10018000000000010000000000FFFF000000000070
:1001900000000000FFFF00000000000000E0FF1F63
:1001A000FFFF0000000000FFFF0000000000000053
:1001B000000000E0FF3F0000000000000000000021
:1001C00000000000C0FC7F0300000000FFFF0000F3
:1001D00000FFFF00000000FEFF03000000FFFFF033
:1001E0000000000000003F7F3F0000000000FFFF14
:1001F0000000E0FF1F00FFFF00000000000000FF04
:10020000FF00000000000000000000E0FE1F0100F1
:1002100000000000F8F8FCFFC7000000000000C06C
:10022000FE3F0300FFFF00000000003F3F3E7EFC5A
:10023000F8E00000000000FFFF80F07C7CF8F00098
:1002400000000000000080F8FF0700000000000030
:10025000019FFFF8FE1F0100000000FFFFC000002B
:1002600080FFFFFF00000000000000000000000011
:100270000000FFFFC0FC7F030000FFFF0000000044
:10028000000000FFFF0000000000000000E0FE0F83
:100290000100000000000000000000010FFFF80056
:1002A0000000F8FFE7E0E0E0FFFFE0E0E000000032
:1002B0000000000007FFFE00000000FFFFFF03003A
:1002C0000001FFFF0000000000F0FF0F0000000031
:1002D000000000C0FC3F03031FFFFCC00000000043
:1002E0000F1F3E3E0F01FFFF0000000000000080D6
:1002F00000000000000007FFFF07000000FCFF07F0
:1003000000000000000000FFFF000000000000E00F
:10031000FE0F0000000000000000000000000000D0
:10032000C0FF7F000000030303030303FFFF030379
:100330000300000000000000C0FF7F000000000F6D
:10034000FFFF80000080FF7F00000000FEFF030031
:1003500000000000000000FFFF8000000080FFFFA1
:10036000000000000000000080FCFF07000000000B
:100370000000FFFFFF000000000000031F3F7C7C27
:100380003F1F0300000000007C7C7C7F7F7C7C7C26
:100390000000007F7F7C7C7C7C7C7C000000003F38
:1003A0007E7C7C7E1F070000000000000000000033
:1003B0007F7F00000000001F3E7C7C3E1F07000086
:1003C00000000000031F7F7C7C3F0700000000004E
:1003D0007F7F000000000000000000011F3F7E7CC6
:1003E0007E3F1F01000000003E7C7C7E3F0F01002D
:1003F00000000000000000010000000000000A10E2
:100400002E0C01140000000000000000000000009D
:10041000000000000000000078FC02030303030258
:10042000FC780000000000000000FF7E0000028356
:1004300083838302FC780000028383838302FC7839
:100440007EFF008080808000FF7E78FC02838383B3
:100450008302000078FC0283838383020000000291
:10046000030303030302FC7878FC02838383830283
:10047000FC7878FC028383838302FC7800000060B0
:10048000F0F060000000000000000000000000002C
:100490001E3F40C0C0C0C0403F1E00000000000022
:1004A0000000FF7E1C3E41C1C1C1C14100000000EF
:1004B00041C1C1C1C1413E1C000001010101010156
:1004C000FF7E000041C1C1C1C1413E1C1C3E41C173
:1004D000C1C1C1413E1C0000000000000000FF7EC1
:1004E0001C3E41C1C1C1C1413E1C000041C1C1C14E
:1004F000C1413E1C081020600238000000000000CE
:100500000000000000FE0000000000000E000E00D1
:10051000000000D0BE90D0BE9000001C62FFC280E0
:1005200000000C12924CB0880600807C62B21CC0A5
:10053000000000000E0E0000000000E0180402029F
:1005400000000002020418E000000024187E1824B5
:100550000000808080F080808000000000000000AB
:10056000000000808080800000000000000000008B
:1005700000000000806018060000F804C2320CF889
:100580000000000404FE0000000000028242221C61
:1005900000000002222222DC0000C0A09884FE801D
:1005A0008000001E121222C20000F844222222C043
:1005B0000000000202C2320A0600008C5222528C55
:1005C00000003C42424226F80000000030300000AB
:1005D00000000000303000000000808040402020FB
:1005E000100040404040404000001020204040802B
:1005F000800000028242221C000000000000000077
:1006000000000000000500000000000000000000E5
:10061000000000070000070000000004040F0403AE
:10062000000004020103040403000304040405039E
:100630000400000000000000000000030608101085
:100640000000001010080603000000000000000079
:10065000000000000007000000000000160E00006F
:10066000000000000000000000000000060600007E
:100670000000040201000000000001030404020164
:10068000000000040407040400000007040404043C
:100690000000000404040403000000000000070040
:1006A0000000000404040403000001020404040325
:1006B0000000000007000000000000030404040321
:1006C000000000040404020100000000060600000F
:1006D00000000000160E00000000000001010202F0
:1006E00004000101010101010000040202010100F6
:1006F00000000000050000000000F804728AFA847F
:10070000780000C0380638C0000000FE222222DC3B
:100710000000F804020202020000FE02020204F8D5
:10072000000000FE22222222000000FE22222222BD
:100730000000F804020222E20000FE20202020FE39
:100740000000000202FE020200000000000202FEA1
:100750000000FE40B0080402000000FE000000009F
:100760000000FE0C7080700CFE00FE0C30C000FE1D
:100770000000F804020204F80000FE424242221C7B
:100780000000F804020204F8000000FE4242A21C2D
:100790000000001C224242800000020202FE02020F
:1007A0000200FE00000000FE00000638C000C03855
:1007B00006003EC0F00EF0C03E00000698609806AD
:1007C0000000000618E0180600000202C2320A0605
:1007D00000000000FE020202020000061860800015
:1007E000000002020202FE00000040300C0C30400B
:1007F00000000000000000000000010204040400EA
:1008000000000601010101010600000704040403C1
:1008100000000102040404040000070404040201AF
:1008200000000007040404040000000700000000AA
:100830000000010204040407000007000000000794
:10084000000000040407040400000004040404037E
:100850000000070000010204000000070404040473
:100860000000070000010000070007000000030768
:100870000000010204040201000007000000000063
:1008800000000102040C1211100000070000010614
:10089000000000040404040300000000000700003E
:1008A000000003040404040300000000010601002A
:1008B000000000070000000700000006010001061C
:1008C0000000000000070000000006050404040406
:1008D000000000001F1010101000000000000102B6
:1008E0000400101010101F000000000000000000A5
:1008F00000000808080808080000000002040000C2
:10090000000000E0101010F0000000FE201010E0C9
:10091000000000E010101010000000E0101010FEA9
:10092000000000E0909090E000000020FC222222D5
:10093000020000E0101010F0000000FE201010E097
:1009400000001010F2000000000000101010F20073
:10095000000000FE804020100000000202FE0000A7
:100960000000F02010F02010F00000F0201010E047
:10097000000000E0101010E0000000F0201010E077
:10098000000000E0101010F0000000F020101070C7
:1009900000000060909090200000002020FC2020AB
:1009A000200000F0000000F0000000708000807067
:1009B0000000F000C030C000F0000030C0C03000C7
:1009C00000000030C0008070000000101090503017
:1009D00000000080807E02020000000000FE000097
:1009E00000000002027E8080000000808000000085
:1009F0008000000000000000000000000000000077
:100A000000000003040402070000000704040403BC
:100A100000000003040404040000000304040207AF
:100A200000000003040404040000000007000000AC
:100A3000000000332424221F0000000700000007EC
:100A400000000000070404000000202020201F00F8
:100A50000000000700010204000000000007040479
:100A60000000070000070000070000070000000763
:100A700000000003040404030000003F0404040316
:100A8000000000030404023F000000070000000013
:100A9000000000020404040300000000000304043A
:100AA0000400000304040207000000000304030024
:100AB0000000010601000106010000060101060018
:100AC00000002020310E030000000006050404048D
:100AD00000000000001F10100000000000070000D0
:100AE00000000010101F00000000010000010101C3
:100AF00000000000000000000000050800FF0C4B93
:100B000000000000003E5B4F5B3E3E6B4F6B3E1CA7
:100B10003E7C3E1C183C7E3C181C577D571C1C5EBE
:100B20007F5E1C00183C1800FFE7C3E7FF00182495
:100B30001800FFE7DBE7FF30483A060E262979293F
:100B400026407F050507407F05253F5A3CE73C5A74
:100B50007F3E1C1C08081C1C3E7F14227F22145F51
:100B60005F005F5F06097F017F006689956A6060AC
:100B700060606094A2FFA29408047E040810207EA6
:100B8000201008082A1C08081C2A08081E1010102B
:100B9000100C1E0C1E0C30383E3830060E3E0E0671
:100BA000000000000000005F0000000700070014C4
:100BB0007F147F14242A7F2A122313086462364983
:100BC0005620500008070300001C2241000041226B
:100BD0001C002A1C7F1C2A08083E08080080703070
:100BE00000080808080800006060002010080402DF
:100BF0003E5149453E00427F4000724949494621E5
:100C000041494D331814127F1027454545393C4A58
:100C1000494931412111090736494949364649496F
:100C2000291E0000140000004034000000081422B7
:100C30004114141414140041221408020159090625
:100C40003E415D594E7C1211127C7F494949363E26
:100C5000414141227F4141413E7F494949417F090C
:100C60000909013E414151737F0808087F00417F17
:100C700041002040413F017F081422417F40404015
:100C8000407F021C027F7F0408107F3E4141413EAD
:100C90007F090909063E4151215E7F09192946262F
:100CA0004949493203017F01033F4040403F1F2033
:100CB00040201F3F4038403F63140814630304780A
:100CC00004036159494D43007F414141020408102A
:100CD00020004141417F0402010204404040404065
:100CE000000307080020545478407F2844443838D3
:100CF00044444428384444287F3854545418000845
:100D00007E090218A4A49C787F0804047800447D1E
:100D100040002040403D007F1028440000417F40BB
:100D2000007C047804787C0804047838444444380F
:100D3000FC1824241818242418FC7C0804040848EF
:100D40005454542404043F44243C4040207C1C2040
:100D500040201C3C4030403C44281028444C90909B
:100D6000907C4464544C44000836410000007700F5
:100D700000004136080002010204023C2623263C02
:100D80001EA1A161123A4040207A3854545559218D
:100D90005555794121545478412155547840205477
:100DA0005579400C1E5272123955555559395454C3
:100DB000545939555454580000457C410002457D32
:100DC000420001457C40F0292429F0F0282528F034
:100DD0007C545545002054547C547C0A097F493288
:100DE000494949323248484832324A4848303A4103
:100DF00041217A3A42402078009DA0A07D394444A8
:100E000044393D4040403D3C24FF2424487E494332
:100E1000662B2FFC2F2BFF0929F620C0887E0903A3
:100E200020545479410000447D413048484A3238CA
:100E30004040227A007A0A0A727D0D19317D2629F6
:100E4000292F28262929292630484D4020380808EE
:100E5000080808080808382F10C8ACBA2F10283422
:100E6000FA00007B000008142A142222142A140815
:100E7000AA005500AAAA55AA55AA000000FF001012
:100E80001010FF00141414FF001010FF00FF1010CA
:100E9000F010F0141414FC001414F700FF0000FF0D
:100EA00000FF1414F404FC141417101F10101F106A
:100EB0001F1414141F00101010F0000000001F1069
:100EC0001010101F10101010F010000000FF101074
:100ED00010101010101010FF10000000FF14000080
:100EE000FF00FF00001F10170000FC04F41414178B
:100EF00010171414F404F40000FF00F71414141471
:100F0000141414F700F7141414171410101F101FE2
:100F1000141414F4141010F010F000001F101F002F
:100F200000001F14000000FC140000F010F010106E
:100F3000FF10FF141414FF141010101F0000000005
:100F4000F010FFFFFFFFFFF0F0F0F0F0FFFFFF00F9
:100F500000000000FFFF0F0F0F0F0F38444438440C
:100F60007C2A2A3E147E02020606027E027E02636C
:100F7000554941633844443C04407E201E2006020B
:100F80007E020299A5E7A5991C2A492A1C4C7201E8
:100F9000724C304A4D4D303048784830BC625A4629
:100FA0003D3E494949007E0101017E2A2A2A2A2A1A
:100FB00044445F444440514A444040444A51400004
:100FC00000FF0103E080FF000008086B6B08361289
:100FD000362436060F090F0600001818000000100E
:100FE00010003040FF0101001F01011E00191D17F4
:100FF00012003C3C3C3C0000000000006F1C11242F
:101000001FBECFEFD8E0DEBFCDBF27E0A0E4B4E045
:1010100001C01D92A238B207E1F714E0A0E0B1E0F0
:10102000ECECFAE302C005900D92A034B107D9F7B9
:1010300017E0CFEFD7E004C02197FE010E94EC1C1F
:10104000CE3FD107C9F70E9479130C94641D0C940C
:101050000000CF92DF92EF92FF920F931F93CF93F6
:10106000DF936C017A018B01C0E0D0E0CE15DF0583
:1010700089F0D8016D918D01D601ED91FC9101901F
:10108000F081E02DC6010995892B11F47E0102C083
:101090002196ECCFC701DF91CF911F910F91FF9067
:1010A000EF90DF90CF900895FC01918D828D98177D
:1010B00061F0828DDF01A80FB11D5D968C91928D3C
:1010C0009F5F9F73928F90E008958FEF9FEF089539
:1010D000FC01918D828D981731F0828DE80FF11D02
:1010E000858D90E008958FEF9FEF0895FC01918D1D
:1010F000228D892F90E0805C9F4F821B91098F7316
:101100009927089583EA96E00E94760821E0892BCA
:1011100009F420E0822F0895FC01848DDF01A80FDF
:10112000B11DA35ABF4F2C91848D90E001968F730F
:101130009927848FA689B7892C93A089B1898C912E
:1011400080648C93938D848D981306C00288F389F4
:10115000E02D80818F7D80830895EF92FF920F9321
:101160001F93CF93DF93EC0181E0888F9B8D8C8D53
:10117000981305C0E889F989808185FD24C0F62E81
:101180000B8D10E00F5F1F4F0F731127E02E8C8D1A
:10119000E8120CC00FB607FCFACFE889F989808104
:1011A00085FFF5CFCE010E948C08F1CF8B8DFE011B
:1011B000E80FF11DE35AFF4FF0820B8FEA89FB899C
:1011C0008081806207C0EE89FF896083E889F989A0
:1011D00080818064808381E090E0DF91CF911F91D6
:1011E0000F91FF90EF900895CF93DF93EC01888DDE
:1011F0008823C9F0EA89FB89808185FD05C0A8891B
:10120000B9898C9186FD0FC00FB607FCF5CF8081A0
:1012100085FFF2CFA889B9898C9185FFEDCFCE01EA
:101220000E948C08E7CFDF91CF910895833081F041
:1012300028F4813099F08230A1F008958730A9F028
:101240008830B9F08430D1F4809180008F7D03C064
:10125000809180008F7780938000089584B58F7788
:1012600002C084B58F7D84BD08958091B0008F77D2
:1012700003C08091B0008F7D8093B00008953FB788
:10128000F8948091550690915606A0915706B0911A
:10129000580626B5A89B05C02F3F19F00196A11D41
:1012A000B11D3FBFBA2FA92F982F8827820F911DFC
:1012B000A11DB11DBC01CD0143E0660F771F881F42
:1012C000991F4A95D1F7089585ED8093BC008091D0
:1012D000BC0084FDFCCF10927F06089540912B0640
:1012E000262F30E0240F311D21323105DCF420910E
:1012F0007F062430C9F4FC0180E090E0861758F4A2
:1013000030912B062191DC01A75FB94FA30FB11DCE
:101310002C930196F3CF80912B06680F60932B06D8
:1013200080E0089581E0089582E00895089581E0C5
:1013300090E03091410420914004321710F480E095
:1013400090E0919581959109089580914104909143
:101350004004891730F48F5F8093410480E090E06F
:1013600008958FEF9FEF08958091400490E02091C1
:101370004104821B91090895CF92DF92EF92FF9270
:101380000F931F93CF93DF937C01262F972F8A0112
:101390008091A206882391F0C62FD72F6E01C40E2C
:1013A000D51ECC15DD0571F06991D701ED91FC9149
:1013B0000190F081E02DC7010995F3CF642F822FB2
:1013C0000E946E09C801DF91CF911F910F91FF908C
:1013D000EF90DF90CF900895CF93DF931F92CDB71A
:1013E000DEB769832091A2062223D1F02091A006C6
:1013F000203240F021E030E0FC013383228380E0A2
:1014000090E015C08091A106E82FF0E0E058F94F78
:10141000998190838F5F8093A1068093A00605C079
:1014200061E0CE0101960E946E0981E090E00F908C
:10143000DF91CF9108950E94F91C83EA96E00E9403
:101440007608892B09F458C083EA96E00E94540874
:101450009EE3980F923088F3982F8A3079F48FEAC0
:101460000E940F12E0910801F0910901EB5BFB4F24
:1014700010821092440410924304DFCF209108019F
:10148000309109018F39C1F0803BC1F08D3BC1F033
:10149000823BC1F0843AC1F0863BC1F08C3BC1F085
:1014A0008438C1F08639C1F08C39C1F08B3AC1F073
:1014B0008B3BB9F49FEA15C090EE13C098EF11C0B2
:1014C0009BEA0FC09DEF0DC094E80BC094E909C0E2
:1014D00091E807C09EE805C099E903C09AE901C0F8
:1014E0009EEAF901EB5BFB4F90832F5F3F4F3093F8
:1014F000090120930801A1CF08950E94820881115B
:101500000C941D0A08956115710579F0FB01019095
:101510000020E9F73197AF01461B570BDC01ED9135
:10152000FC910280F381E02D099480E090E0089521
:101530000F931F93CF93DF93EC010E94830A8C01DA
:101540006BE374E0CE010E94830A800F911FDF914C
:10155000CF911F910F9108951F920F920FB60F9286
:1015600011242F933F934F935F936F937F938F93A8
:101570009F93AF93BF93EF93FF9383EA96E00E940C
:101580008C08FF91EF91BF91AF919F918F917F91C7
:101590006F915F914F913F912F910F900FBE0F90E0
:1015A0001F9018951F920F920FB60F9211242F9330
:1015B0008F939F93EF93FF93E091B306F091B4065E
:1015C0008081E091B906F091BA0682FD12C0908147
:1015D0008091BC068F5F8F732091BD06821751F0FA
:1015E000E091BC06F0E0ED55F94F958F8093BC0675
:1015F00001C08081FF91EF919F918F912F910F906A
:101600000FBE0F901F901895CF93DF93282F30E0D7
:10161000F901E453FF4F8491F901E057FF4FD49152
:10162000F901E255FF4FC491CC2391F081110E9442
:101630001609EC2FF0E0EE0FFF1FEE53FF4FA591C0
:10164000B491EC91ED2381E090E021F480E002C0C0
:1016500080E090E0DF91CF9108951F93CF93DF93C7
:10166000282F30E0F901E453FF4F8491F901E0574E
:10167000FF4FD491F901E255FF4FC491CC23C9F03B
:10168000162F81110E941609EC2FF0E0EE0FFF1FBC
:10169000EC55FF4FA591B4918FB7F894111105C087
:1016A0009C91ED2FE095E92302C0EC91ED2BEC939A
:1016B0008FBFDF91CF911F910895CF93DF9390E07B
:1016C000FC01E057FF4F2491FC01E255FF4F84914C
:1016D000882361F190E0880F991FFC01EA57FF4FC2
:1016E000C591D491FC01EC55FF4FA591B4916111C6
:1016F00009C09FB7F8948881209582238883EC9154
:101700002E230BC0623061F49FB7F8943881822F8A
:10171000809583238883EC912E2B2C939FBF06C04A
:101720008FB7F894E8812E2B28838FBFDF91CF915C
:1017300008951F93CF93DF93182FEB0161E00E9470
:101740005D0B209711F460E004C0CF3FD10539F460
:1017500061E0812FDF91CF911F910C942D0BE12F30
:10176000F0E0E453FF4FE491E330F9F048F4E13066
:10177000B9F0E230A1F584B5806284BDC8BD34C043
:10178000E730E9F0E83019F1E43049F58091800064
:10179000806280938000D0938B00C0938A0024C025
:1017A00084B5806884BDC7BD1FC0809180008068FB
:1017B00080938000D0938900C093880015C08091E9
:1017C000B00080688093B000C093B3000DC08091DA
:1017D000B00080628093B000C093B40005C0C038F0
:1017E000D1050CF0B5CFAFCFDF91CF911F91089508
:1017F0008F929F92AF92BF92CF92DF92EF92FF9221
:101800006B017C010E943F094B015C01C114D104B2
:10181000E104F104F1F00E943F09DC01CB018819D9
:101820009909AA09BB09883E9340A105B10570F347
:1018300021E0C21AD108E108F10888EE880E83E0A1
:10184000981EA11CB11CC114D104E104F10419F7C4
:10185000DDCFFF90EF90DF90CF90BF90AF909F9043
:101860008F9008951F920F920FB60F9211242F930D
:101870003F938F939F93AF93BF9380915106909125
:101880005206A0915306B09154063091500626E0BE
:10189000230F2D3720F40296A11DB11D05C029E8A4
:1018A000230F0396A11DB11D20935006809351066E
:1018B00090935206A0935306B09354068091550618
:1018C00090915606A0915706B09158060196A11D19
:1018D000B11D8093550690935606A0935706B0937A
:1018E0005806BF91AF919F918F913F912F910F908B
:1018F0000FBE0F901F9018951F920F920FB60F9268
:1019000011242F933F934F935F936F937F938F9304
:101910009F93AF93BF93EF93FF938091B900887F1C
:10192000803609F49CC068F5883209F45BC090F4F5
:10193000803109F454C038F4882309F4F6C08830A3
:1019400009F44DC0F6C0883109F44CC0803209F466
:101950005DC0EFC0803409F468C048F4803309F4F6
:1019600055C0883309F0E5C080937D06D8C0803526
:1019700009F44FC0883509F45DC0883409F0D9C036
:10198000D6C0883909F4C7C0A8F4883709F467C0FD
:1019900038F4883609F463C0803709F460C0C9C0E0
:1019A000883809F4B8C0803909F45FC0803809F07C
:1019B000C0C05BC0803B09F486C038F4803A09F4AB
:1019C00066C0883A09F47FC0B4C0803C09F4A7C05F
:1019D000883C09F4A4C0883B09F48AC0AAC080915D
:1019E0005A0610C090917C0680917B06981770F57E
:1019F000E0917C0681E08E0F80937C06F0E0E55A52
:101A0000F94F80818093BB0085EC86C080937D0672
:101A10008EC0E0917C0681E08E0F80937C068091E1
:101A2000BB00F0E0E55AF94F808390917C068091ED
:101A30007B066EC0E0917C0681E08E0F80937C0671
:101A40008091BB00F0E0E55AF94F808380917E06DB
:101A500081116DC081E08093590684EA61C083E002
:101A600080937F0610924F06CFCF80914F06803231
:101A700008F051C0E0914F0681E08E0F80934F0631
:101A80008091BB00F0E0E15DF94F8083BDCF85EC34
:101A90008093BC0010927F0680914F06803230F414
:101AA000E0914F06F0E0E15DF94F108260914F0642
:101AB00070E0E0912D06F0912E068FE296E00995F8
:101AC00010924F0636C084E080937F0610922C0659
:101AD00010922B06E0912906F0912A060995809133
:101AE0002B06811105C081E080932B061092090618
:101AF000E0912C0681E08E0F80932C06F0E0E75FEA
:101B0000F94F80818093BB0090912C0680912B0629
:101B1000981708F479CF85E88093BC000AC085EC5B
:101B20008093BC0010927F0604C010927D060E9434
:101B30006409FF91EF91BF91AF919F918F917F9138
:101B40006F915F914F913F912F910F900FBE0F902A
:101B50001F9018950F936034C8F54033B8F50130E5
:101B6000C1F4213099F5E42FE695E695E69580E4F9
:101B7000E89FF0011124E60FF11DE65FFE4F47706C
:101B800081E090E001C0880F4A95EAF790818927AB
:101B90001CC0842F869586958695E62FF0E04770C9
:101BA00090E4899FE00DF11D1124E65FFE4F81E076
:101BB00090E001C0880F4A95EAF7213019F490812E
:101BC000892B03C080959081892380830F9108958C
:101BD0005F926F927F928F929F92AF92BF92CF92BD
:101BE000DF92EF92FF920F931F93CF93DF93EC015D
:101BF0006A3009F46AC06D3009F4C9C0E62EBBA48E
:101C0000AAA41AA999A82FA5621708F450C088A9F8
:101C100090E0820F911D462F50E0481759070CF0B5
:101C200046C0E21A8DA486948694869481E0881535
:101C300008F451C0C92C38E0D32ED10E9C2D99192F
:101C40008CA5282F30E0E92FF0E02E173F077CF11C
:101C5000981789F0AEA5B0E0AA0FBB1FAC52BC4FDD
:101C6000E89EE00DF11D112436968D919C91E80FB0
:101C7000F91FF49001C0F12C812EF0FE03C00B2D52
:101C80002A2D04C021E0A11020E00B2D482D6C2D41
:101C9000CE010E94AA0DF69483948D10EECFC394CA
:101CA000CDCF8FEFC81AD80A185FC814D0F14CA551
:101CB00089A9840F8F5F89AB90E020E430E0241B7A
:101CC0003109281739070CF062C09AA98DA5890F30
:101CD0008AAB19AA5CC0EBA9FCA92CA530E0CF0106
:101CE000B9010E94C41C8E2D90E00E94C41C829FEA
:101CF0007001839FF00C929FF00C11248E9E900136
:101D00008F9E300D1124269FC001279F900D369F76
:101D1000900D1124E80EF91EC12CD12C86E0E80E9E
:101D2000F11C792C872D89199CA5891708F0B9CF4A
:101D3000AEA5B0E0AA0FBB1FAC52BC4F2BA93CA96B
:101D4000C29EF001C39EF00DD29EF00D1124EE0D47
:101D5000FF1DE80FF11D8D919C91E80FF91F649014
:101D6000512C452D410F60FE03C00B2D2A2D04C0C0
:101D700021E0A11020E00B2D672DCE010E94AA0DBD
:101D80006694539488E05812ECCF7394CBCF81E0E3
:101D900090E0DF91CF911F910F91FF90EF90DF9036
:101DA000CF90BF90AF909F908F907F906F905F90FB
:101DB0000895CF92DF92EF92FF920F931F93CF93EC
:101DC000DF938C017A016034710508F540335105C9
:101DD000F0F4EB012796C12CD12CF801208130E0E2
:101DE0000C2C02C0359527950A94E2F720FF07C016
:101DF000C034D10524F46E2D8C2F0E94E510FFEF26
:101E0000CF1ADF0A219788E0C816D10431F7DF9195
:101E1000CF911F910F91FF90EF90DF90CF90089599
:101E200082E00E94941210927D078CE080937E07DE
:101E30008091FE058A3020F48EE294E00E940B131C
:101E40006091FE0570E080E090E04AE00E94C812D8
:101E500081E00E94941288E180937D078DE0809359
:101E60007E0787E294E00E940B1382E00E949412A6
:101E700080E280937D078CE080937E078091FD0552
:101E80008A3020F48EE294E00E940B136091FD05ED
:101E900070E080E090E04AE00E94C81280E00E947A
:101EA000941281E180937D0780E280937E07809188
:101EB00042048A3020F48EE294E00E940B13609179
:101EC000420470E080E090E04AE00E94C8128EE395
:101ED00094E00E940B136091FF0570E080E090E0B9
:101EE0004AE00C94C8128091FF058F5F8093FF0534
:101EF0008A3068F16AE00E94B81C20914204820F87
:101F0000809342049093FF058C3350F06CE30E9461
:101F1000B81C2091FD05820F8093FD05909342042B
:101F20008091FD058C3350F06CE30E94B81C209129
:101F3000FE05820F8093FE059093FD058091FE05BE
:101F4000883128F068E10E94B81C9093FE0508953E
:101F5000809164008E7F809364008EE480937C0087
:101F60006AE070E080E090E00E94F80B80917A00D7
:101F7000806480937A0080917A0086FDFCCF209166
:101F800078008091790030E0382B032E000C440B50
:101F9000550B60E070E381E190E00E94141D909188
:101FA0006400916090936400C90108958091640079
:101FB0008E7F8093640084E480937C0080917A001B
:101FC000806480937A0080917A0086FDFCCFA09196
:101FD000780080917900B0E0B82B80916400816036
:101FE000809364002CE330E00E94F21C2FEF33E07A
:101FF00040E050E00E94141DC90108951F93CF9343
:10200000DF931F92CDB7DEB7182F81E08093A20631
:10201000109381071092A1061092A00680E497E029
:1020200049830E94EC094981642F80E497E00E9473
:10203000EC098091A006813208F046C090917F069D
:102040009111FCCF92E090937F0691E090937E06F1
:102050009FEF90937D0610927C0680937B06A0E80C
:10206000B6E02BE536E0F9019E2F921B981718F485
:102070009D919193F9CF10925A0680915A06110FB3
:10208000812B80935A0680915906813061F4109219
:10209000590680915A068093BB008091BC0083FD55
:1020A000F8CF85EC01C085EE8093BC0080917F065F
:1020B0008230E1F380917D068F3F31F080917D0683
:1020C000803211F080917D061092A1061092A00638
:1020D0001092A2060F90DF91CF911F9108950F9358
:1020E0001F93CF93DF93082FC62F60E08091500796
:1020F0000E942D0B6C2F809151070E942D0B60E0E8
:10210000809153070E942D0BC0E0D0E010E0FE014B
:10211000E45BF84FC8010C2E02C0959587950A9490
:10212000E2F780FF02C061E001C060E081850E94AB
:102130002D0B2196C830D10551F761E080915307EE
:102140000E942D0B61E080915007DF91CF911F918C
:102150000F910C942D0B2091670730916807211582
:10216000310519F5E0916C07F0916D072081909190
:102170007507922B9083E0916A07F0916B0720819D
:10218000909174079095922390838EBD00000DB4BA
:1021900007FEFDCF8EB5E0916A07F0916B07908145
:1021A00080917407892B808308952130310531F4A3
:1021B000482F60E4809169070C94FE0F22303105AE
:1021C00019F461E00C946F1008950F93462FECE41E
:1021D000F7E003A522A5682FCF010E94AA0D0F9159
:1021E00008959F92AF92BF92CF92DF92EF92FF92AB
:1021F0000F931F93CF93DF93C82FD62F142FD02E7A
:10220000422F50E0461B510957FF03C0519541959D
:102210005109812F90E08C1B910997FF03C0919584
:1022200081959109BB24B3948417950714F0B12CC0
:1022300006C0812F122F282F8C2FCD2FD82F1C179F
:1022400030F48D2FD22F282F8C2FC12F182FA12E95
:10225000AC1A822F90E08D1B910997FF03C09195D6
:1022600081959109F82ECA2CC694D21718F099249A
:102270009A9413C09924939410C00E2D2D2DBB2039
:1022800079F04C2F6D2F8CE497E00E94AA0DCF18A7
:10229000C7FE02C0D90DCA0CCF5FC11770F303C0CF
:1022A0004D2F6C2FF0CFDF91CF911F910F91FF90A9
:1022B000EF90DF90CF90BF90AF909F900895EF92F6
:1022C0000F93ECE4F7E0E3A402A50E94F1100F9154
:1022D000EF9008958F929F92AF92BF92CF92DF922C
:1022E000EF92FF920F931F93CF93DF93C62EB42EDE
:1022F00011E0181BF82EF194FF0CC82F47E1480F8E
:102300000B2D262F60E28CE497E00E94AA0D87E156
:10231000482F4C1B2C2D60E28CE497E00E94AA0D04
:1023200060E26C0F2C2D47E18CE497E00E94AA0D2F
:1023300080E2682F6C1B2C2D47E18CE497E00E9413
:10234000AA0DD0E040E2A42E57E1952EDC170CF048
:1023500059C017FD04C0C150F394F3941F0DDF5F03
:102360008D2F880F8F5F180F80E2882E8D0E0B2D1A
:102370002C2D97E1E92EEC0E4E2D682D8CE497E084
:102380000E94AA0DDA2CDD1A2C2D4E2D6D2D8CE419
:1023900097E00E94AA0D2C2DE92CEC1A4E2D682DE9
:1023A0008CE497E00E94AA0D2C2D4E2D6D2D8CE40F
:1023B00097E00E94AA0D27E1E22EED0E2C2D4E2D66
:1023C00030E2D32EDC0E6D2D8CE497E00E94AA0D36
:1023D0002C2D4E2DEA2CEC1A6E2D8CE497E00E94E9
:1023E000AA0D892C8D1A2C2D482D6D2D8CE497E08B
:1023F0000E94AA0D2C2D482D6E2D8CE497E00E9492
:10240000AA0DA4CFDF91CF911F910F91FF90EF9074
:10241000DF90CF90BF90AF909F908F9008952091C4
:102420006707309168072115310521F5E0916C07A8
:10243000F0916D072081909175079095922390837C
:10244000E0916A07F0916B07208190917407909555
:10245000922390838EBD00000DB407FEFDCF8EB594
:10246000E0916A07F0916B07908180917407892B46
:10247000808308952130310531F4482F60E0809148
:1024800069070C94FE0F2230310519F460E00C94BA
:102490006F100895EF92FF920F931F93CF938AE0EE
:1024A000E82E81E0F82EC0E08C2F806B0E940F1286
:1024B00082E10E940F1280E00E940F1200E010E003
:1024C000F701E00FF11F80810E94AB100F5F1F4FDB
:1024D00000341105A9F7CF5F80E4E80EF11CC63087
:1024E00019F7CF911F910F91FF90EF9008950F93DF
:1024F0001F93CF93C0E08C2F806B0E940F1282E15C
:102500000E940F1280E00E940F1200E810E080E0AD
:102510000E94AB1001501109D1F7CF5FC83059F7B5
:10252000CF911F910F910895ACE4B7E09E968C93E4
:102530009E97E82FF0E0EE0FFF1FEC52FC4F8081DA
:102540009181FC0124919C962C939C973196E49167
:102550009D96EC939D97FC013296E4919F96EC93A7
:102560009F97FC013396E491D096EC93D097FC01B1
:10257000349624913196E491F0E084E6289FE00DB2
:10258000F11D1124D496FC93EE93D39781E0089526
:102590008F929F92AF92BF920F931F93CF93DF932F
:1025A000CDB7DEB7A1970FB6F894DEBF0FBECDBF93
:1025B00019A2423008F44AE08E010F5D1F4F842EAD
:1025C000912CA12CB12CA50194010E94331DE62F62
:1025D000B901CA0101501109EA3014F4E05D01C0EB
:1025E000E95CD801EC93232B242B252B61F7B80150
:1025F0008CE497E00E94830AA1960FB6F894DEBFA0
:102600000FBECDBFDF91CF911F910F91BF90AF90C3
:102610009F908F900895BC018CE497E00C94830AFE
:10262000CF92DF92EF92FF920F931F93CF93DF939E
:10263000F82ED62F122FC82FC40F262F4C2F0E94F2
:10264000F1106FEF610F6D0F262F4C2F8F2D0E9411
:10265000F110125079F0DF5F1D0F212F4F2D6D2FDC
:102660008F2D0E94F1108FEF8C0F212F482F6D2F8F
:102670000E94F110DF91CF911F910F91FF90EF9089
:10268000DF90CF900895CF92DF92EF92FF92CF9399
:10269000DF936C01990FEE08FF08F7FE1FC0E09171
:1026A0004C07F0914D070190F081E02D6DE28CE434
:1026B00097E00995EC0166277727CB016C197D0916
:1026C0008E099F094AE00E94C8128C0F9D1FDF915E
:1026D000CF91FF90EF90DF90CF9008954AE0C7012F
:1026E000B601DF91CF91FF90EF90DF90CF900C94E7
:1026F000C812CF93DF93CDB7DEB760970FB6F894CB
:10270000DEBF0FBECDBF789484B5826084BD84B532
:10271000816084BD85B5826085BD85B5816085BDDC
:1027200080916E00816080936E0010928100809194
:10273000810082608093810080918100816080931C
:102740008100809180008160809380008091B10041
:1027500084608093B1008091B00081608093B0006C
:1027600080917A00846080937A0080917A00826000
:1027700080937A0080917A008E7F80937A00809196
:102780007A00806880937A001092C10062E08EE047
:102790000E945D0B62E08FE00E945D0B60E082E1D1
:1027A0000E945D0B61E083E10E945D0B61E08AE0C5
:1027B0000E945D0B61E089E00E945D0B61E083E0B7
:1027C0000E945D0BE091B306F091B40682E0808335
:1027D000E091AF06F091B0061082E091B106F09161
:1027E000B20687E680831092BB06E091B706F091AF
:1027F000B80686E08083E091B506F091B606808148
:1028000080618083E091B506F091B6068081886092
:102810008083E091B506F091B60680818068808360
:10282000E091B506F091B60680818F7D808380911E
:10283000640081608093640080916400806880936C
:1028400064000E94A80F21E088349D400CF020E035
:102850002093010680E00E94941211E01093760705
:102860001092770710927D0710927E078091510792
:10287000482F50E09A0122553F4FF9019491E92FDA
:10288000F0E0EE0FFF1FEC55FF4F659174917093D0
:102890006D0760936C07FA01E057FF4FE491E093F6
:1028A0007507F9012491E22FF0E0EE0FFF1FEA57C0
:1028B000FF4F25913491309371072093700761E0A9
:1028C0000E945D0B61E0809152070E945D0B809138
:1028D000670790916807009709F07BC04091500707
:1028E00050E0CA0182559F4FFC012491E22FF0E095
:1028F000EE0FFF1FEC55FF4F2591349130936B077E
:1029000020936A07FA01E057FF4FE491E0937407C0
:10291000FC018491E82FF0E0EE0FFF1FEA57FF4F14
:102920008591949190936F0780936E0761E08BE09F
:102930000E945D0B61E08DE00E945D0B61E0809183
:1029400050070E945D0B61E0809150070E942D0BA3
:102950008CB58C7F8CBD8DB581608DBD8CB5837F32
:102960008CBD61E08AE00E945D0B1FB7F8948091F6
:102970000006811127C0E8EBF0E08491EAE9F0E07D
:102980009491E82FF0E0EE0FFF1FEA57FF4FA5915B
:10299000B491EC91E92321F461E08AE00E942D0BCF
:1029A00061E08AE00E945D0B8CB580618CBD8CB5C6
:1029B00080648CBD61E08DE00E945D0B61E08BE086
:1029C0000E945D0B809100068F5F809300061FBF01
:1029D000D1C08130910551F510924104109240040C
:1029E0001092A1061092A00610927F0610937E0608
:1029F0001092590661E082E10E942D0B61E083E1B3
:102A00000E942D0B8091B9008E7F8093B900809138
:102A1000B9008D7F8093B90080E28093B80085E48F
:102A20008093BC0082E08093B800A4C0029709F0B4
:102A3000A1C04091500750E0CA0182559F4FFC0150
:102A40002491E22FF0E0EE0FFF1FEC55FF4F259190
:102A5000349130936B0720936A07FA01E057FF4FD8
:102A6000E491E0937407FC018491E82FF0E0EE0F0D
:102A7000FF1FEA57FF4F8591949190936F078093C2
:102A80006E0780915307482F50E09A0122553F4F1F
:102A9000F9019491E92FF0E0EE0FFF1FEC55FF4F85
:102AA0006591749170935E0760935D07FA01E0573A
:102AB000FF4FE491E0936507F9012491E22FF0E0E4
:102AC000EE0FFF1FEA57FF4F2591349130936007B7
:102AD00020935F074091540750E09A0122553F4FE1
:102AE000F9019491E92FF0E0EE0FFF1FEC55FF4F35
:102AF000659174917093620760936107FA01E057E2
:102B0000FF4FE491E0936607F9012491E22FF0E092
:102B1000EE0FFF1FEA57FF4F259134913093640762
:102B20002093630761E00E945D0B61E08091530791
:102B30000E942D0B61E0809154070E945D0B61E0C3
:102B4000809154070E942D0B61E0809150070E94F4
:102B50005D0B61E0809150070E942D0B05E517E0A9
:102B600061E0F80181918F010E945D0BF7E00D3566
:102B70001F07B1F761E0809152070E945D0B61E091
:102B8000809152070E942D0B65E070E080E090E09C
:102B90000E94F80B60E0809152070E942D0B6AE0C2
:102BA00070E080E090E00E94F80B61E080915207B5
:102BB0000E942D0B8EEA0E940F1285ED0E940F12CB
:102BC00080E80E940F1288EA0E940F128FE20E9492
:102BD0000F1283ED0E940F1280E00E940F1280E41A
:102BE0000E940F128DE80E940F1284E10E940F12C2
:102BF00086EA0E940F1284EA0E940F1281EA0E9464
:102C00000F1288EC0E940F128AED0E940F1282E1CF
:102C10000E940F1281E80E940F128FE80E940F128B
:102C200089ED0E940F1281EF0E940F128BED0E941E
:102C30000F1280E40E940F128FEA0E940F120E946E
:102C400077120E9477120E944A12E5E4F4E080E2D3
:102C5000819324E0ED36F207D9F7BE016F5F7F4F15
:102C60006B013AE0360F3E876DE570E080E090E062
:102C70000E94F80B8FE00E94040B892B31F08091A9
:102C80000706909108060297CCF06CE271E080E0B4
:102C900090E00E94F80B8091FF058D5F8093FF0507
:102CA0008FE00E94040B2091070630910806892BC3
:102CB00009F496C1223031050CF092C18EE00E94D9
:102CC000040B892B09F08AC06CE271E080E090E08F
:102CD0000E94F80B1091FF0583E0810F8093FF05A0
:102CE0008EE00E94040B892B09F078C01092060632
:102CF0006FEF70E08AE00E94990B6FEF70E089E05F
:102D00000E94990B6FEF70E083E00E94990B8FEAAD
:102D10000E940F12EAE0F1E020E831E01192215028
:102D20003040E1F740917707609176078AE00E9492
:102D30006A1164E18FE10E94E51063E183E20E9481
:102D4000E5102BE143E26BE18DE10E945F110E94EF
:102D50004A126EE571E080E090E00E94F80BE0908E
:102D600077070091760723E043E063E18DE10E945D
:102D70001013E09077070091760723E043E063E1CA
:102D800083E20E9410136AE183E20E94E5100E9430
:102D90004A126EE571E080E090E00E94F80B165F49
:102DA0001093FF058EEA0E940F1210926D0488E2C4
:102DB00090E09093090180930801E091A306F091BF
:102DC000A4060190F081E02D6EE783EA96E0099574
:102DD0006BE374E083EA96E00E94830A2091080185
:102DE00030910901293231050CF48AC080914304E5
:102DF00090914404892B09F083C080916D04833243
:102E000041F580E280936D0480916F04805390912E
:102E10006E0490534AE0949F800D11248093FE0528
:102E20008091720480539091710490536AE0969F50
:102E3000800D11248093FD0580917504805390913D
:102E4000740490537AE0979F800D1124809342047C
:102E500057C0853209F054C080916E0480930606F5
:102E60008823D1F140916F0481E490E0FC01E41BE0
:102E7000F109AF01440F551F440F551F41505F4FDB
:102E8000509307014093060140917004BC01641BFC
:102E90007109AB01440F551F440F551F41505F4F3F
:102EA000509305014093040140917104841B9109E2
:102EB000880F991F880F991F81509F4F909303018E
:102EC000809302018091720490E081549109909363
:102ED00001018093000110C08FEF90E090930301F7
:102EE0008093020190930501809304019093070160
:102EF0008093060110926D043093440420934304A0
:102F000029323105CCF08091430490914404281774
:102F1000390794F0EAE0F1E020E831E01192215025
:102F20003040E1F710927D0710927E078B5B9B4F3C
:102F30000E940B130E944A12009143041091440412
:102F400080910801909109010817190759F48EEA38
:102F50000E940F1210926D0488E290E09093090194
:102F60008093080180910606882301F120910001D9
:102F7000309101012115310599F46091060170919C
:102F800007018AE00E94990B60910401709105018C
:102F900089E00E94990B609102017091030112C0B7
:102FA0008091FF0590E0281739073CF76FEF70E03C
:102FB0008AE00E94990B6FEF70E089E00E94990B04
:102FC0006FEF70E083E00E94990B0F5F1F4F10932B
:102FD0004404009343040E94730F0E947D0A44CE70
:102FE000223031058CF4109206066FEF70E08AE013
:102FF0000E94990B6FEF70E089E00E94990B6FEFD0
:1030000070E083E00E94990B8FEA0E940F1268E241
:10301000A62EB12C7DE2872E912CE2E14E2E512C72
:10302000F0E3FF2EEAE0F1E020E831E011922150D8
:103030003040E1F70E94730F8091070690910806D7
:103040008130910509F0DEC04091770760917607E5
:1030500087E10E946A110091FE0510E00D30110514
:1030600014F00C5011098091420490E0880F991FD0
:10307000FC01E45AFC4FDC01AC51BD4F20814C9166
:1030800067E180E20E945F118091FD0590E0880F6A
:10309000991FFC01E45AFC4FDC01AC51BD4F20816B
:1030A0004C9167E180E20E945F11000F111FF8014F
:1030B000E653FD4FE080F801E055FD4F10812E2DC5
:1030C000412F67E180E20E945F1141E0410F2E2D08
:1030D00067E181E20E945F110AEC12E050EB252EBD
:1030E00052E0352EF80160810E5F1F4FF1018081A3
:1030F000F2E02F0E311C0E94E51022E0023E120782
:1031000089F763E08EE10E94E51064E08EE10E94A1
:10311000E51065E08EE10E94E51066E08EE10E9418
:10312000E51063E080E20E94E51063E081E20E9426
:10313000E51064E081E20E94E51065E080E20E9413
:10314000E51066E081E20E94E51066E082E20E94FE
:10315000E51065E181E30E94E51065E182E30E94EC
:10316000E51066E182E30E94E51067E181E30E94D9
:10317000E51068E182E30E94E51069E181E30E94C5
:10318000E51069E182E30E94E51069E280E20E94B5
:10319000E5106AE28FE10E94E5106BE28EE10E9489
:1031A000E5106BE28FE10E94E5106CE28EE10E9477
:1031B000E5106CE28FE10E94E5106CE280E20E9473
:1031C000E5106DE28FE10E94E51065E18EE00E945E
:1031D000E51066E18DE00E94E51066E18FE00E9457
:1031E000E51067E18EE00E94E51067E18FE00E9444
:1031F000E51068E18EE00E94E51069E18DE00E9433
:10320000E51024C08230910549F460E085E00E9419
:10321000E51060E08EE10E94E51016C08330910554
:1032200049F460E085E00E94E5100E94D60F80938B
:10323000FE050AC0049741F460E08EE10E94E510AB
:103240000E94D60F8093FD050E94100F0E94A80FC8
:10325000009101068C589A40002311F0B20101C080
:10326000B4010E94D81C162F6DE08CE30E94E5107B
:103270006DE08DE30E94E51001110CC063E289E36B
:103280000E94E5106AE188E30E94E5106AE189E3A3
:103290000E94E510E09077070091760722E246E071
:1032A0006EE08AE30E9410137F2C711A209077073A
:1032B000309076071AE3E22C032D20E3412F672D8F
:1032C000812F0E94F1101F5F1034A9F70E944A124B
:1032D0006AE570E080E090E00E94F80B31E0A31A0C
:1032E000B10809F09FCE8EE00E94040B892B89F46F
:1032F00080910706909108060196833091052CF481
:10330000909308068093070604C010920806109256
:1033100007068091070690910806029718F48EEA36
:103320000E940F128FE00E94040B892B09F0C6CC7B
:1033300064E074E083EA96E00E94980A8FEA0E94B3
:103340000F12809164008E7F8093640010920506B6
:1033500010920406EAE0F1E020E831E011922150F9
:103360003040E1F780E090E00E94FE1C809302066E
:1033700081E090E00E94FE1C8093030660E070E014
:1033800083E00E94990B60E070E089E00E94990B55
:1033900010927D0710927E076BE074E08CE497E05A
:1033A0000E94980A83E194E00E940B136EE174E09E
:1033B0008CE497E00E94980A80910206909103069F
:1033C0000E9443130E944A1268EE73E080E090E08E
:1033D0000E94F80B6FE770E083E00E94990B60EDAC
:1033E00077E080E090E00E94F80B6FEF70E083E000
:1033F0000E94990B6FEF70E089E00E94990B809119
:10340000FF05825E8093FF05B6E4AB2EB12C612CE4
:10341000712C00E010E088E3482E512C93E0292E17
:10342000312C809104069091050601969093050633
:1034300080930406EAE0F1E020E831E011922150A7
:103440003040E1F710927D0710927E07C1010E9483
:10345000431389E294E00E940B138091040690913B
:1034600005060E9443134114510419F4A8E34A2E9F
:10347000512C40927D078AE080937E078CE294E095
:103480000E940B13809004069090050680FC03C0F8
:1034900031E0431A51082DE24FE36DE280E00E94D3
:1034A0005F1149EFA4164FEFB4061CF4F6E4AF2EFB
:1034B000B12C8CE0EEE8F2E0D60101900D928A95F5
:1034C000E1F7E12CF12CA7014F5D5F4FB501C6017B
:1034D0008E0D9F1D0E94D90E6FEFE61AF60A7CE052
:1034E000E716F10481F782E0A81AB10896E0A91660
:1034F000B10409F06FC00D3011050CF065C0E1E0BA
:103500002E1A31088CE0EAE9F2E0D60101900D9222
:103510008A95E1F746019CE0E12CF12C4EE0490F41
:10352000F401208130E00E2C02C0359527950A94D5
:10353000E2F720FF09C06DE26E19842F488B9F8748
:103540000E94E5109F854889FFEFEF1AFF0A28E0E7
:10355000E216F10429F791503FEF831A930A911173
:10356000DBCF0E944A1261E089E00E942D0B60E0EF
:103570008AE00E942D0B68E770E083E10E94990BBE
:1035800064EF71E080E090E00E94F80B6FE770E07C
:103590008AE00E94990B60E270E083E10E94990B3F
:1035A00064EF71E080E090E00E94F80B60E083E15E
:1035B0000E942D0B61E08AE00E942D0B8091FF0597
:1035C000865F8093FF0589C0800E911E909205064C
:1035D000809204060D8780E2E82EE01A8AE0E6EA8F
:1035E000F2E0D60101900D928A95E1F74601F12CA7
:1035F000EC18FD08A701480D591D62E070E0C401F8
:103600000E94D90E4FEF841A940A3E853811F2CFEA
:103610008090040690900506C40163E070E00E946B
:10362000D81C892BC1F488E3898384E28A838AE2E7
:10363000E82E2D85E21AF12CA70162E070E0C601A8
:103640000E94D90EA7014F5F5F4F62E070E0CE018C
:1036500002960E94D90EC401019663E070E00E94B8
:10366000D81C892BC1F488E7898388E08A838AE2A1
:10367000E82E3D85E31AF12CA70162E070E0C60157
:103680000E94D90EA7014F5F5F4F62E070E0CE014C
:1036900002960E94D90EC401029663E070E00E9477
:1036A000D81C892BC1F480E3898388E28A838AE26B
:1036B000E82E2D85E21AF12CA70162E070E0C60128
:1036C0000E94D90EA7014F5F5F4F62E070E0CE010C
:1036D00002960E94D90E0E944A12E0900406F090D1
:1036E000050631EAE3163FE0F306BCF449EBE416C5
:1036F0004BE0F406ACF46DEDE61665E0F6069CF4DE
:1037000079EEE71673E0F7068CF485EFE81681E0B2
:10371000F8067CF062E370E00EC06AE070E00BC077
:1037200064E170E008C06EE170E005C068E270E03E
:1037300002C066E470E0660E771E072E000C880B50
:10374000990B0E94F80B95E66916710424F00E940B
:10375000730F612C712CF8013197EF30F10508F0EF
:1037600043C0EC5CFF4F0C94EC1C0AE010E047C037
:103770006CE370E083E10E94990B6FE770E089E0F1
:103780000E94990B07E010E03AC061E470E083E129
:103790000E94990B0DE010E032C065E570E083E116
:1037A0000E94990B0FE010E02AC06FE570E083E102
:1037B0000E94990B0CE010E022C060E083E10E94BF
:1037C0002D0B09E010E01BC008E010E018C006E077
:1037D00010E015C004E010E012C061E089E00E9432
:1037E0002D0B02E010E00BC00115110541F48FE034
:1037F0000E94040B892B09F06FC001E010E0121445
:1038000013040CF40ECE80910206909103068E15DF
:103810009F05ECF16FEF70E089E00E94990B65E085
:1038200070E083E10E94990B10927D0710927E0751
:103830008EE294E00E940B1310927D0786E1809344
:103840007E0760E374E08CE497E00E94980A0E948F
:103850004A126CED75E080E090E00E94F80B60E0A9
:1038600083E10E942D0B60ED77E080E090E00E9404
:10387000F80B8091FF058D5D8093FF0580916400BA
:103880008160809364008EEA0E940F1217CAF09242
:103890000306E092020680E090E00E94FE1CE8161B
:1038A00029F06E2D80E090E00E94061D60910306D5
:1038B00081E090E06F870E94FE1C6F85681709F415
:1038C000A9CF81E090E00E94061DA4CF0BE010E09C
:1038D00096CF0EE010E093CF00E010E090CFE3EA47
:1038E000F6E01382128288EE93E0A0E0B0E08483D9
:1038F0009583A683B78320EE33E03183208325ECC4
:1039000030E03587248724EC30E03787268720ECA9
:1039100030E0318B208B21EC30E0338B228B22EC9A
:1039200030E0358B248B26EC30E0378B268B118EE4
:10393000128E138E148EE0E4F7E0138212828483D9
:103940009583A683B78380EF93E091838083ECE433
:10395000F7E01382128280E094E09183808386E016
:10396000868388E0858385E08483148E138E089592
:10397000991B79E004C0991F961708F0961B881FC1
:103980007A95C9F780950895AA1BBB1B51E107C022
:10399000AA1FBB1FA617B70710F0A61BB70B881FDF
:1039A000991F5A95A9F780959095BC01CD0108956E
:1039B00097FB072E16F4009407D077FD09D00E94DC
:1039C000C41C07FC05D03EF4909581959F4F089547
:1039D000709561957F4F0895EE0FFF1F0590F4914C
:1039E000E02D09940E94551DB7FF0895821B930B8B
:1039F000089581E090E0F8940C94641DF999FECF4D
:103A000092BD81BDF89A992780B50895262FF9991E
:103A1000FECF1FBA92BD81BD20BD0FB6F894FA9AB1
:103A2000F99A0FBE01960895052E97FB1EF4009497
:103A30000E942B1D57FD07D00E94331D07FC03D0A9
:103A40004EF40C942B1D50954095309521953F4F89
:103A50004F4F5F4F089590958095709561957F4F7A
:103A60008F4F9F4F0895A1E21A2EAA1BBB1BFD0189
:103A70000DC0AA1FBB1FEE1FFF1FA217B307E4074D
:103A8000F50720F0A21BB30BE40BF50B661F771FA5
:103A9000881F991F1A9469F7609570958095909585
:103AA0009B01AC01BD01CF010895A29FB001B39F5E
:103AB000C001A39F700D811D1124911DB29F700D37
:0C3AC000811D1124911D0895F894FFCF82
:103ACC000800FF00FF00FF002800000000000000BD
:103ADC00000000000000000000000080C0C0E0E01A
:103AEC00F0F0F0F8F8F8F8F8FCFCFCFCFCFCFCF846
:103AFC00F8F8F0E0E0C080000000000000000000DA
:103B0C0000000000000000000000000000000000A9
:103B1C000000000000C0F0F8FEFEFFFFFFFFFFFFFB
:103B2C00FFFFFFFFFFFFFF7F3F9F9FDFFFBF9F9FB9
:103B3C00BFBFFFFFFFFFFFFFFCF8E000000000002D
:103B4C000000000000000000000000000000000069
:103B5C0000000000FEFFFFFFFFFFFFFFFFFFFFFF66
:103B6C00FFFFFFFFFFFFFFFFC3C9C1C3FFC3898175
:103B7C00C3FFFFFFFFFFFFFFFFFFFF7F40000000C1
:103B8C000000000000000000000000000000000029
:103B9C0000000000033FFFFFFFFFFFFFF1E08EBCC2
:103BAC002DC9933F7F7FFFFFFFFFFFFFFFFFFFFF4D
:103BBC00FFFFFFFFFFFFFF7F3F9CC6761F07000044
:103BCC0000000000000000000000000000000000E9
:103BDC0000000000000001070F1F7FFFFFFFFFFF29
:103BEC00FFFFFFFFFFFEFCFCFDF9FBFBFBF3F3F318
:103BFC00F3FBFBFBF9FDFCFEFF3F070000000000A0
:103C0C0000000000000000000000000000000000A8
:103C1C000000000000000000000000000103070786
:103C2C000F1F1F3F3F3F3F3F3F7FFFFFFFEFEF8FD8
:103C3C000F0F0F0F0707010100000000000000002C
:103C4C0000000000000000000000010000002060E7
:103C5C0028A8A8F87838303020201C7C546C547C70
:103C6C003C0C1C1C0C3C382C3E3E383E98783C18C6
:103C7C00200028002F0031002F0028002000170002
:103C8C0011000F00110018002000060008000E00A3
:103C9C00170020002600280026001F0017000E0029
:103CAC0008000600200022002400260029002A001B
:103CBC002C002E003000310032003300340035006F
:103CCC00350035003500350034003300320031004A
:103CDC0030002E002C002A0029002600240022008F
:103CEC0020001E001C001A00170015001400120002
:103CFC0010000F000E000D000C000B000B000B0051
:103D0C000B000B000C000D000E000F001000120039
:103D1C001400160017001A001C001E0002000200FE
:103D2C0002000300040005000600070009000B0058
:103D3C000C000E00110013001500170019001B00D9
:103D4C001D00200022002300250027002800290048
:103D5C002A002B002C002C002C002C002C002B00FB
:103D6C002A0029002800270025002300210020001C
:103D7C001D001B00190017001500130011000E0088
:103D8C000C000B00090007000600050004000300EE
:103D9C0002000200FA0AF404FE03E0000000000036
:103DAC00AD082908760854086808F40800000000DB
:103DBC00EC09BC09B409A509970996090000000093
:103DCC00E80D290847616D652021002020204469F9
:103DDC006E6F003D3D3D3D3D3D3D3D3D3D004869E7
:103DEC00676873636F72653A002020002A00300008
:103DFC002047616D65204F766572000D0A002E001C
:00000001FF
