:100000000C946A080C9492080C9492080C94920830
:100010000C9492080C9492080C9492080C949208F8
:100020000C9492080C9492080C9492080C949208E8
:100030000C9492080C9492080C9492080C949208D8
:100040000C94641A0C9492080C94911D0C94C31D8A
:100050000C9492080C9492080C9492080C949208B8
:100060000C9437190C9492084D0F940F910F890F2F
:10007000910F850FB70F810F7D0F750F5A0FBB0FB3
:10008000630F6C0F490F2B2B2B00000000000000AA
:100090000000000000000000000000000000000060
:1000A0000000000000000000004154453D30000009
:1000B0000000000000000000000000000000000040
:1000C00000000000000000000000000041542B4828
:1000D000574D4F44454C45443D424C455541525483
:1000E00000000000000000000000000000000041CF
:1000F000542B4741504445564E414D453D55415284
:1001000054204E6F746966792057617463680000EB
:10011000000041542B424C45504F5745524C4556D8
:10012000454C3D34000000000000000000000000CD
:10013000000000000041545A0000000000000000D0
:1001400000000000000000000000000000000000AF
:1001500000000000000000000A102E0C0114000036
:10016000000000000000000000000000000000008F
:10017000000078FC020303030302FC780000000087
:1001800000000000FF7E0000028383838302FC786E
:100190000000028383838302FC787EFF00808080DE
:1001A0008000FF7E78FC028383838302000078FC5A
:1001B000028383838302000000020303030303021C
:1001C000FC7878FC028383838302FC7878FC0283CA
:1001D00083838302FC7800000060F0F06000000080
:1001E000000000000000000000001E3F40C0C0C032
:1001F000C0403F1E0000000000000000FF7E1C3ECB
:1002000041C1C1C1C1410000000041C1C1C1C141E2
:100210003E1C0000010101010101FF7E000041C1FF
:10022000C1C1C1413E1C1C3E41C1C1C1C1413E1CB6
:100230000000000000000000FF7E1C3E41C1C1C163
:10024000C1413E1C000041C1C1C1C1413E1C0C3036
:10025000300B012000C0F87C3E3EFCF8C0000000DE
:10026000000080E078FEFE000000000000F07C3C12
:100270003E3EFEFCE0000000007C3E3E3EFEF8C03C
:10028000000000000000000000F8FEFE000000007A
:1002900000FEFE3E3E3E3E3E00000000000080F0BC
:1002A000FC3E3E3EFC000000003E3E3E3E3E3E3EEA
:1002B000FEFE00000000C0F8FE3E7EFCE0000000F4
:1002C0000000E0FC7E3EFEF8C000000000000000E0
:1002D000C0E0C00000000000F0FF0F000000F9FFC8
:1002E000FFF000000000070300FFFF000000000017
:1002F00000010000000000FFFF00000000000000FF
:100300000000FFFF00000000000000E0FF1FFFFFF3
:100310000000000000FFFF000000000000000000DF
:1003200000E0FF3F000000000000000000000000AF
:100330000000C0FC7F0300000000FFFF000000FF82
:10034000FF00000000FEFF03000000FFFFF00000C0
:10035000000000003F7F3F0000000000FFFF0000A2
:10036000E0FF1F00FFFF00000000000000FFFF0093
:10037000000000000000000000E0FE1F010000007F
:100380000000F8F8FCFFC7000000000000C0FE3FBE
:100390000300FFFF00000000003F3F3E7EFCF8E04E
:1003A0000000000000FFFF80F07C7CF8F0000000FF
:1003B0000000000080F8FF07000000000000019F1F
:1003C000FFF8FE1F0100000000FFFFC0000080FFDB
:1003D000FFFF00000000000000000000000000001F
:1003E000FFFFC0FC7F030000FFFF000000000000D3
:1003F00000FFFF0000000000000000E0FE0F010011
:10040000000000000000000000010FFFF8000000E5
:10041000F8FFE7E0E0E0FFFFE0E0E00000000000C0
:10042000000007FFFE00000000FFFFFF03000001C7
:10043000FFFF0000000000F0FF0F000000000000C0
:1004400000C0FC3F03031FFFFCC0000000000F1FA3
:100450003E3E0F01FFFF0000000000000080000092
:100460000000000007FFFF07000000FCFF0700007E
:100470000000000000FFFF000000000000E0FE0F91
:100480000000000000000000000000000000C0FFAD
:100490007F000000030303030303FFFF03030300C4
:1004A000000000000000C0FF7F000000000FFFFF01
:1004B00080000080FF7F00000000FEFF03000000BE
:1004C0000000000000FFFF8000000080FFFF000030
:1004D00000000000000080FCFF070000000000009A
:1004E000FFFFFF000000000000031F3F7C7C3F1F58
:1004F0000300000000007C7C7C7F7F7C7C7C000013
:10050000007F7F7C7C7C7C7C7C000000003F7E7CCC
:100510007C7E1F07000000000000000000007F7FBD
:1005200000000000001F3E7C7C3E1F070000000012
:100530000000031F7F7C7C3F0700000000007F7FDE
:10054000000000000000000000011F3F7E7C7E3F95
:100550001F01000000003E7C7C7E3F0F0100000078
:1005600000000000000100000000000008102060F2
:1005700002380000000000000000000000FE000043
:10058000000000000E000E00000000D0BE90D0BEA3
:100590009000001C62FFC28000000C12924CB088D8
:1005A0000600807C62B21CC0000000000E0E00003D
:1005B000000000E01804020200000002020418E03B
:1005C00000000024187E18240000808080F08080C5
:1005D000800000000000000000000080808080009B
:1005E000000000000000000000000000806018060D
:1005F0000000F804C2320CF80000000404FE000001
:10060000000000028242221C00000002222222DCA2
:100610000000C0A09884FE808000001E121222C23A
:100620000000F844222222C00000000202C2320A66
:100630000600008C5222528C00003C42424226F8B6
:1006400000000000303000000000000030300000EA
:10065000000080804040202010004040404040404A
:100660000000102020404080800000028242221CB6
:100670000000000000000000000000000005000075
:10068000000000000000000000000007000007005C
:1006900000000004040F040300000402010304042A
:1006A000030003040404050304000000000000002C
:1006B00000000003060810100000001010080603D8
:1006C0000000000000000000000000000007000023
:1006D00000000000160E00000000000000000000F6
:1006E00000000000060600000000040201000000F7
:1006F00000000103040402010000000404070404D4
:1007000000000007040404040000000404040403BF
:1007100000000000000007000000000404040403BF
:1007200000000102040404030000000007000000B0
:100730000000000304040403000000040404020198
:10074000000000000606000000000000160E000079
:100750000000000001010202040001010101010189
:10076000000004020201010000000000050000007A
:100770000000F804728AFA84780000C0380638C095
:10078000000000FE222222DC0000F8040202020225
:100790000000FE02020204F8000000FE22222222D3
:1007A000000000FE222222220000F804020222E2BF
:1007B0000000FE20202020FE0000000202FE0202B7
:1007C00000000000000202FE0000FE40B00804022B
:1007D000000000FE000000000000FE0C7080700CA5
:1007E000FE00FE0C30C000FE0000F804020204F817
:1007F0000000FE424242221C0000F804020204F8FB
:10080000000000FE4242A21C0000001C2242428066
:100810000000020202FE02020200FE00000000FED2
:1008200000000638C000C03806003EC0F00EF0C020
:100830003E000006986098060000000618E01806C2
:1008400000000202C2320A0600000000FE0202029C
:100850000200000618608000000002020202FE0092
:10086000000040300C0C3040000000000000000090
:10087000000001020404040000000601010101015E
:100880000600000704040403000001020404040439
:10089000000007040404020100000007040404042B
:1008A000000000070000000000000102040404072B
:1008B0000000070000000007000000040407040413
:1008C0000000000404040403000007000001020407
:1008D00000000007040404040000070000010000F9
:1008E00007000700000003070000010204040201E2
:1008F000000007000000000000000102040C1211BB
:1009000010000007000001060000000404040403B6
:1009100000000000000700000000030404040403BA
:1009200000000000010601000000000700000007B1
:1009300000000006010001060000000000070000A2
:100940000000060504040404000000001F1010103D
:1009500010000000000001020400101010101F0021
:100960000000000000000000000008080808080857
:100970000000000002040000000000E0101010F071
:10098000000000FE201010E0000000E01010101029
:10099000000000E0101010FE000000E0909090E0D9
:1009A00000000020FC222222020000E0101010F0C3
:1009B000000000FE201010E000001010F200000007
:1009C000000000101010F200000000FE8040201017
:1009D0000000000202FE00000000F02010F02010D5
:1009E000F00000F0201010E0000000E0101010E017
:1009F000000000F0201010E0000000E0101010F0E7
:100A0000000000F020101070000000609090902016
:100A10000000002020FC2020200000F0000000F05A
:100A200000000070800080700000F000C030C00046
:100A3000F0000030C0C0300000000030C000807006
:100A4000000000101090503000000080807E0202F4
:100A50000000000000FE000000000002027E808016
:100A60000000008080000000800000000000000006
:100A70000000000000000000000000030404020762
:100A8000000000070404040300000003040404043D
:100A9000000000030404020700000003040404042F
:100AA0000000000007000000000000332424221F83
:100AB0000000000700000007000000000704040019
:100AC0000000202020201F00000000070001020479
:100AD00000000000000704040000070000070000F9
:100AE00007000007000000070000000304040403DF
:100AF0000000003F04040403000000030404023F5C
:100B000000000007000000000000000204040403CD
:100B100000000000000304040400000304040207B2
:100B200000000000030403000000010601000106AC
:100B3000010000060101060000002020310E030024
:100B4000000000060504040400000000001F10104F
:100B5000000000000007000000000010101F00004F
:100B60000000010000010101000000000000000081
:100B70000000050800FF0C4B00000000003E5B4F2A
:100B80005B3E3E6B4F6B3E1C3E7C3E1C183C7E3CED
:100B9000181C577D571C1C5E7F5E1C00183C1800FB
:100BA000FFE7C3E7FF0018241800FFE7DBE7FF308B
:100BB000483A060E2629792926407F050507407FF9
:100BC00005253F5A3CE73C5A7F3E1C1C08081C1C6C
:100BD0003E7F14227F22145F5F005F5F06097F0162
:100BE0007F006689956A606060606094A2FFA2944D
:100BF00008047E040810207E201008082A1C08081B
:100C00001C2A08081E101010100C1E0C1E0C303868
:100C10003E3830060E3E0E06000000000000005F69
:100C200000000007000700147F147F14242A7F2A85
:100C30001223130864623649562050000807030047
:100C4000001C2241000041221C002A1C7F1C2A0893
:100C5000083E0808008070300008080808080000F6
:100C600060600020100804023E5149453E00427F6A
:100C7000400072494949462141494D331814127FB9
:100C80001027454545393C4A494931412111090759
:100C90003649494936464949291E000014000000DA
:100CA00040340000000814224114141414140041AC
:100CB00022140802015909063E415D594E7C121169
:100CC000127C7F494949363E414141227F414141A1
:100CD0003E7F494949417F090909013E414151731C
:100CE0007F0808087F00417F41002040413F017F8D
:100CF000081422417F404040407F021C027F7F0455
:100D000008107F3E4141413E7F090909063E41519D
:100D1000215E7F09192946264949493203017F018D
:100D2000033F4040403F1F2040201F3F4038403F8E
:100D3000631408146303047804036159494D4300A4
:100D40007F4141410204081020004141417F0402DB
:100D50000102044040404040000307080020545472
:100D600078407F2844443838444444283844442850
:100D70007F385454541800087E090218A4A49C78A3
:100D80007F0804047800447D40002040403D007FFF
:100D90001028440000417F40007C047804787C08DF
:100DA0000404783844444438FC18242418182424B3
:100DB00018FC7C08040408485454542404043F4498
:100DC000243C4040207C1C2040201C3C4030403CC7
:100DD00044281028444C9090907C4464544C440027
:100DE000083641000000770000004136080002018B
:100DF0000204023C2623263C1EA1A161123A404077
:100E0000207A3854545559215555794121545478F4
:100E100041215554784020545579400C1E5272128D
:100E20003955555559395454545939555454580015
:100E300000457C410002457D420001457C40F0298F
:100E40002429F0F0282528F07C54554500205454DE
:100E50007C547C0A097F4932494949323248484822
:100E600032324A4848303A4141217A3A4240207869
:100E7000009DA0A07D39444444393D4040403D3C64
:100E800024FF2424487E4943662B2FFC2F2BFF0987
:100E900029F620C0887E090320545479410000447B
:100EA0007D413048484A32384040227A007A0A0A66
:100EB000727D0D19317D2629292F282629292926D9
:100EC00030484D4020380808080808080808382F1E
:100ED00010C8ACBA2F102834FA00007B00000814A8
:100EE0002A142222142A1408AA005500AAAA55AAD4
:100EF00055AA000000FF00101010FF00141414FF8A
:100F0000001010FF00FF1010F010F0141414FC007B
:100F10001414F700FF0000FF00FF1414F404FC1485
:100F20001417101F10101F101F1414141F0010107E
:100F300010F0000000001F101010101F10101010F3
:100F4000F010000000FF101010101010101010FF13
:100F500010000000FF140000FF00FF00001F10172A
:100F60000000FC04F414141710171414F404F40013
:100F700000FF00F714141414141414F700F71414D9
:100F800014171410101F101F141414F4141010F060
:100F900010F000001F101F0000001F14000000FCD4
:100FA000140000F010F01010FF10FF141414FF14C0
:100FB0001010101F00000000F010FFFFFFFFFFF0F7
:100FC000F0F0F0F0FFFFFF0000000000FFFF0F0F48
:100FD0000F0F0F38444438447C2A2A3E147E020204
:100FE0000606027E027E0263554941633844443C52
:100FF00004407E201E2006027E020299A5E7A599E4
:101000001C2A492A1C4C7201724C304A4D4D30301A
:1010100048784830BC625A463D3E494949007E0105
:1010200001017E2A2A2A2A2A44445F444440514A24
:10103000444040444A51400000FF0103E080FF006B
:101040000008086B6B083612362436060F090F06A7
:10105000000018180000001010003040FF010100CF
:101060001F01011E00191D1712003C3C3C3C0000F2
:101070000000000000000800020100000304070057
:101080000000000000000001020408102040800160
:1010900002040810200102040810200404040404BF
:1010A0000404040202020202020303030303030016
:1010B0000000002300260029000000000025002871
:1010C000002B0000000000240027002A00000F1160
:1010D0009518F31D11241FBECFEFD8E0DEBFCDBFA2
:1010E00013E0A0E0B1E0ECE8F3E402C005900D925B
:1010F000AE3DB107D9F728E0AEEDB3E001C01D92D7
:10110000A236B207E1F710E1C4EDD0E104C02297A6
:10111000FE010E949021CE3CD107C9F70E947D1F9D
:101120000C94C4210C940000CF93DF93C6E8D0E068
:10113000BE0185EC97E00E94811E6AEF70E080E0BE
:1011400090E00E94CF1AA39681E0C835D80781F7B6
:10115000DF91CF910895CF93DF93809164008E7FCC
:101160008093640088EC80937C0080917A00806892
:1011700080937A0064E170E080E090E00E94CF1AF2
:1011800080917A00806480937A0080917A0086FD55
:10119000FCCFC0917800D09179008091640081608B
:1011A0008093640049E260E080EC96E00E946E1259
:1011B000BE0180E090E00E948B202EEA37E242EAF6
:1011C00053E40E948D1F26EF38E24CE95FE30E9452
:1011D000F21F0E945A204AE050E080EC96E00E9404
:1011E000481F45E26BE080EC96E00E946E1268EFCB
:1011F00080EC96E0DF91CF910C94761E8091640094
:101200008E7F809364008EE480937C006AE070E0BF
:1012100080E090E00E94CF1A80917A0080648093F1
:101220007A0080917A0086FDFCCF20917800809131
:10123000790030E0382B442737FD4095542F60E08B
:1012400070E381E190E00E946F21809164008160F1
:1012500080936400C90108952091DE038C589A4060
:10126000222319F062E170E002C06DE270E00E949A
:101270003921862F0895E6EEF3E080E2819394E031
:10128000E430F907D9F7089560E083E00E94BA1BC3
:1012900060E084E00E94BA1B61E085E00E94BA1B16
:1012A00061E086E00E94BA1B61E08FE00E94BA1BF9
:1012B00061E080E10E94BA1B61E083E00E94F31BC1
:1012C00061E084E00E94F31B26E040E855E260E024
:1012D00070E085EC97E00E94351D80916400886085
:1012E00080936400809164008064809364008091A6
:1012F00064008160809364008091640080688093C2
:1013000064000E94FE0821E088349D400CF020E03B
:101310002093DE0380EC96E00E94B81461E080EC3C
:1013200096E00E940E1280EC96E00E943D120C9412
:101330003B098F3991F0843A91F0863B91F08C3BD8
:1013400091F0843891F0863991F08C3991F08B3A94
:1013500091F08B3B91F48FEA10C080EE089584E801
:10136000089584E9089581E808958EE8089589E94B
:1013700008958AE908958EEA089508954091DF035B
:101380004F5F4093DF034A3048F0842F6AE00E94A9
:1013900019219091E003980F9093E00320910001B0
:1013A0003091010137FD45C0232B41F089E1489F71
:1013B000B001112486E00E94321B04C060E086E088
:1013C0000E94F31B8091DF038A3098F18091000125
:1013D000909101011816190684F46091E00360955C
:1013E00061708FE00E94F31B8091E0036AE00E942D
:1013F000192161E0992331F004C060E08FE00E9480
:10140000F31B60E080E10E94F31B8091000190914A
:101410000101029771F48091E0038C3331F46CE8A0
:1014200070E085E00E94321B04C060E085E00E940D
:10143000F31B8091DF038A3050F16AE00E9419218A
:101440009093DF038091E0038C3350F06CE30E94B3
:1014500019212091E103280F2093E1039093E003E9
:101460008091E1038C3350F06CE30E9419212091AC
:10147000E203280F2093E2039093E1038091E203BB
:10148000883128F068E10E9419219093E2030895C1
:101490000F9360E080EC96E00E940E122AE047E194
:1014A00060E280EC96E00E94761444E16FE180EC0B
:1014B00096E00E94B21243E163E280EC96E00E9463
:1014C000B2120BE123E24BE16DE180EC96E00E9469
:1014D0002B1380EC96E00E943D126EE571E080E0F7
:1014E00090E00E94CF1A03E023E043E16DE180EC3D
:1014F00096E00E948B1323E043E163E280EC96E0E8
:101500000E948B134AE163E280EC96E00E94B212E3
:1015100080EC96E00E943D126EE571E080E090E084
:101520000E94CF1A8091DF03895F8093DF030F91C0
:10153000089545E068E080EC96E00E946E1280918C
:10154000E2038A3030F46EEA72E080EC96E00E94AA
:10155000741E4AE050E06091E20380EC96E00E9445
:10156000751F6CEF72E080EC96E00E94741E809113
:10157000E1038A3030F46EEA72E080EC96E00E947B
:10158000741E4AE050E06091E10380EC96E00E9416
:10159000751F6CEF72E080EC96E00E94741E8091E3
:1015A000E0038A3030F46EEA72E080EC96E00E944C
:1015B000741E4AE050E06091E00380EC96E00C94E9
:1015C000751F0F93CF932DE04FE16DE180EC96E016
:1015D0000E947614C091E203CD3008F0CC502091E7
:1015E000E10330E0F901EE5EFC4FD901A25BBC4F94
:1015F00000812C914FE16DE180EC96E00E942B136D
:101600008C2F90E0FC01E657FC4FDC01A956BC4F43
:1016100000812C914FE16DE180EC96E00E942B134C
:10162000CF910F9108950F93CF930E94FE080E94CF
:101630002C09C82F4DE06DE380EC96E00E94B212B9
:101640004DE06EE380EC96E00E94B2128091DE03E2
:10165000811112C043E26BE380EC96E00E94B2126B
:101660004AE16AE380EC96E00E94B2124AE16BE341
:1016700080EC96E00E94B21202E224E04EE06CE3BD
:1016800080EC96E00E948B1340E34C1B0C2F24E06F
:101690006CE380EC96E00E94D313CF910F910895F4
:1016A00080910001909101010196833091052CF405
:1016B000909301018093000104C0109201011092E7
:1016C000000160E080EC96E00E940E1240E060E0D5
:1016D00080EC96E00E946E1260EB72E080EC96E087
:1016E0000E94811E6AEB72E080EC96E00E94741EFC
:1016F00065EC72E080EC96E00E94811E6FEC72E077
:1017000080EC96E00E94811E69ED72E080EC96E02C
:101710000E94811E40910001509101014E5F5F4F78
:10172000440F440F440F64E080EC96E00E946E1278
:1017300063EE72E080EC96E00E94741E6FEA80EC2B
:1017400096E00E948F1180EC96E00E943D1265EEBB
:1017500072E085EC97E00E94741E60910001709128
:1017600001014AE050E085EC97E00C94501FCF92C5
:10177000DF92EF92FF920F931F93CF93DF936C0151
:101780007A016034710510F540335105F8F48B018E
:10179000095F1F4FC0E0D0E0F601208130E00C2E41
:1017A00002C0359527950A94E2F720FF09C000345E
:1017B000110530F44E2D602F80EC96E00E94B2129D
:1017C000219601501109C830D10531F7DF91CF9131
:1017D0001F910F91FF90EF90DF90CF900895CF92DF
:1017E000DF92EF92FF920F931F93CF93DF936C01E1
:1017F0007B016034710510F540335105F8F48A011E
:10180000095F1F4FC0E0D0E0F601208130E00C2ED0
:1018100002C0359527950A94E2F720FF09C00033EE
:10182000110530F4402F6E2D80EC96E00E94B2122C
:10183000219601501109C830D10531F7DF91CF91C0
:101840001F910F91FF90EF90DF90CF9008950F932D
:101850001F93CF93DF9360E080EC96E00E940E121E
:101860000091F9061091FA06C8010E94AE21C5EF59
:10187000D6E08883C80101960E94AE21898340E0AA
:1018800060E080EC96E00E946E126BEE72E080ECFD
:1018900096E00E94811E6AEB72E080EC96E00E9466
:1018A000741E63EF72E080EC96E00E94811E6091EE
:1018B000F5067091F6064AE050E080EC96E00E9452
:1018C000481F80EC96E00E943D1268EB7BE080E0D0
:1018D00090E00E94CF1A8091DF03825E8093DF0345
:1018E000DF91CF911F910F910895EF92FF920F9387
:1018F0001F93CF93DF931F92CDB7DEB78091F7068A
:101900009091F8062091F5063091F60628173907D0
:101910000CF442C060E080E10E94F31B65E070E0DF
:1019200085E00E94321B40E060E080EC96E00E947F
:101930006E126EEA72E080EC96E00E94741E46E140
:1019400060E080EC96E00E946E126EEF72E080EC38
:1019500096E00E94811E80EC96E00E943D126CEDA4
:1019600075E080E090E00E94CF1A60E085E00E9480
:10197000F31B60ED77E080E090E00E94CF1A809149
:10198000DF038D5D8093DF030F90DF91CF911F9177
:101990000F91FF90EF9008959093F6068093F506CF
:1019A000E090F906F090FA0605EF16E0F801619173
:1019B0008F01C70169830E94AE216981681719F000
:1019C000C7010E94B621FFEFEF1AFF0A86E0073F2A
:1019D000180761F79FCFCF92DF92EF92FF920F939C
:1019E0001F93CF93DF93CDB7DEB72A970FB6F89446
:1019F000DEBF0FBECDBF9AE0ECE8F2E0DE0111964B
:101A000001900D929A95E1F76E019BE0C90ED11CF1
:101A10008E010F5F1F4FE82EF12CE01AF10AA7018B
:101A2000400F511F62E070E0C8010E94B70B0F5FCA
:101A30001F4F0C151D0599F72A960FB6F894DEBFB7
:101A40000FBECDBFDF91CF911F910F91FF90EF900F
:101A5000DF90CF900895EF92FF920F931F93CF9353
:101A6000DF93CDB7DEB72C970FB6F894DEBF0FBE6D
:101A7000CDBF8CE0E6E9F2E0DE01119601900D9217
:101A80008A95E1F700E010E08AE1E82EF12CB70139
:101A9000601B710B46E250E081E090E08C0F9D1FCF
:101AA000800F911F0E94EF0B0F5F1F4F0C3011052D
:101AB00071F72C960FB6F894DEBF0FBECDBFDF9145
:101AC000CF911F910F91FF90EF9008950F931F9367
:101AD000CF93DF9300D0CDB7DEB798E3998394E23C
:101AE0009A83082F10E0A80162E070E0CE01019611
:101AF0000E94B70BA8014F5F5F4F62E070E0CE011C
:101B000002960E94B70B0F900F90DF91CF911F911B
:101B10000F9108950F931F93CF93DF9300D0CDB70C
:101B2000DEB798E7998398E09A83082F10E0A80120
:101B300062E070E0CE0101960E94B70BA8014F5FF2
:101B40005F4F62E070E0CE0102960E94B70B0F90EB
:101B50000F90DF91CF911F910F9108950F931F93D5
:101B6000CF93DF9300D0CDB7DEB790E3998398E2AF
:101B70009A83082F10E0A80162E070E0CE01019680
:101B80000E94B70BA8014F5F5F4F62E070E0CE018B
:101B900002960E94B70B0F900F90DF91CF911F918B
:101BA0000F910895EF92FF920F931F93CF93DF93BE
:101BB000CDB7DEB72C970FB6F894DEBF0FBECDBF02
:101BC0007C018CE0E2EAF2E0DE01119601900D92D8
:101BD0008A95E1F700E010E0A8014F5D5F4FF70143
:101BE0006081718181E090E08C0F9D1F800F911FBB
:101BF0000E94B70B0F5F1F4F0C30110569F72C9631
:101C00000FB6F894DEBF0FBECDBFDF91CF911F910D
:101C10000F91FF90EF9008954F925F926F927F9295
:101C20008F929F92AF92BF92CF92DF92EF92FF92EC
:101C30000F931F93CF93DF9300D0CDB7DEB71092F1
:101C4000F8061092F70686E490E09A8389830E9452
:101C5000270C812C912C98E3C92ED12CE12CF12C4E
:101C600023E0A22EB12C36E4432E512C43E0642E07
:101C7000712C8091F7069091F80601969093F806E2
:101C80008093F70660E080EC96E00E940E1240E040
:101C900060E080EC96E00E946E124AE050E0B501F0
:101CA00080EC96E00E94481F66ED72E080EC96E0C2
:101CB0000E94741E6091F7067091F8064AE050E0A9
:101CC00080EC96E00E94481FC114D10419F488E307
:101CD000C82ED12C4AE06C2D80EC96E00E946E124A
:101CE00069E073E080EC96E00E94741E8091F70634
:101CF00080FD03C021E0C21AD1080DE22FE34DE2BE
:101D000060E080EC96E00E942B1389819A81893FE4
:101D10009F4F14F45A824982CE0101960E94D20D3F
:101D200089819A8102979A8389830697D9F58DE0F4
:101D3000E816F1046CF521E0A21AB1080E942B0DFF
:101D400080EC96E00E943D1260E080E10E94F31B6F
:101D500068E770E085E00E94321B64EF71E080E08C
:101D600090E00E94CF1A60E270E085E00E94321B92
:101D700064EF71E080E090E00E94CF1A60E085E0BF
:101D80000E94F31B8091DF03865F8093DF033CC0DA
:101D90008091F7069091F8068E0D9F1D9093F8069E
:101DA0008093F7061E2D80E28E190E94EB0C809125
:101DB000F7069091F806B3010E943921892B21F48E
:101DC0008AE28E190E94660D8091F7069091F806BE
:101DD0000196B3010E943921892B21F48AE2811BEB
:101DE0000E948A0D8091F7069091F8060296B30141
:101DF0000E943921892B21F48AE2811B0E94AE0DB9
:101E000080EC96E00E943D128091F7069091F806D2
:101E1000813A2FE0920794F4893B2BE092078CF4EF
:101E20008D3D25E0920784F4893E23E092077CF4FF
:101E3000853F91407CF062E370E00EC06AE070E0A4
:101E40000BC064E170E008C06EE170E005C068E2BC
:101E500070E002C066E470E0860E971E882777FD6A
:101E60008095982F0E94CF1A85E6881691043CF041
:101E70008091DF038F5F8093DF03812C912CF7012A
:101E80003197EF30F10508F04CC0EC5CFF4F0C943B
:101E90008E210EE0E02EF12C4FC06CE370E085E067
:101EA0000E94321B61E080E10E94F31B17E0E12EEB
:101EB000F12C42C061E470E085E00E94321BBDE07D
:101EC000EB2EF12C39C065E570E085E00E94321BF5
:101ED000AFE0EA2EF12C30C06FE570E085E00E94A3
:101EE000321BFCE0EF2EF12C27C060E085E00E9461
:101EF000F31BE9E0EE2EF12C1FC078E0E72EF12C69
:101F00001BC066E0E62EF12C17C054E0E52EF12C44
:101F100013C060E080E10E94F31B42E0E42EF12C4C
:101F20000BC0E114F10441F484E00E94291C892BC8
:101F300031F5EE24E394F12C0E94BE091A141B041F
:101F40000CF497CE0E94750C0F900F90DF91CF91FB
:101F50001F910F91FF90EF90DF90CF90BF90AF90C7
:101F60009F908F907F906F905F904F9008952BE09F
:101F7000E22EF12CE1CF9AE0E92EF12CDDCFE12C1D
:101F8000F12CDACF6DE570E080E090E00E94CF1A8E
:101F900084E00E94291C892BD9F56CE271E080E075
:101FA00090E00E94CF1A8091DF038D5F8093DF0362
:101FB00084E00E94291C892B59F51092E30360E00C
:101FC00086E00E94F31B809100019091010101962F
:101FD000E9F46BE073E085EC97E00E94811E6FEA04
:101FE00080EC96E00E948F11809164008E7F809338
:101FF00064000E940C0E80916400816080936400F4
:102000006EEA80EC96E00E948F1102C00E94500B95
:1020100083E00E94291C892B09F05BC064EF71E00A
:1020200080E090E00E94CF1A8091DF038B5F809365
:10203000DF0383E00E94291C892B09F04AC010921B
:10204000E30360E086E00E94F31B6FEA80EC96E019
:102050000E948F1160E080EC96E00E940E120E94B8
:10206000990A0E94E10A0E94130B0E94AB0880ECBF
:1020700096E00E943D1268EE73E080E090E00E94DE
:10208000CF1A8091DF03865F8093DF036EEA80ECD6
:1020900096E00E948F1183E00E94291C892BC9F4CD
:1020A0006FEA80EC96E00E948F110E94480A6EEA67
:1020B00080EC96E00E948F11109204048EE190E073
:1020C00090930301809302016EE785EC97E00E94F4
:1020D000931E80910201909103014F970CF455C01B
:1020E0008091E4039091E503892B09F04EC0809123
:1020F0000404833241F580E2809304048091060455
:1021000080539091050490532AE0929F800D1124F2
:102110008093E203809109048053909108049053C6
:102120002AE0929F800D11248093E10380910C049A
:10213000805390910B0490532AE0929F800D1124BC
:102140008093E00322C08532D1F48091050480930E
:10215000E303882369F061E086E00E94F31B80912D
:102160000201909103019093E5038093E4030DC075
:1021700060E086E00E94F31B1092040406C08132E6
:1021800021F40E9444090E949408809102019091D8
:1021900003018F31910504F12091E4033091E503AF
:1021A00082179307CCF060E080EC96E00E940E125C
:1021B00040E060E080EC96E00E946E126091E403E3
:1021C0007091E5036A517C4F80EC96E00E94741E8A
:1021D00080EC96E00E943D122091E4033091E503EB
:1021E00080910201909103012817390769F46EEA82
:1021F00080EC96E00E948F11109204048EE190E032
:1022000090930301809302018091E4039091E50390
:1022100001969093E5038093E4030C94BE092AE0B1
:1022200048E069E080EC96E00C948211CF93DF9354
:1022300085EC97E00E94521C892B59F185EC97E0C0
:102240000E946B1C9EE3980F923090F38A3089F4C1
:102250006FEA80EC96E00E948F11E0910201F0910C
:102260000301EA51FC4F10821092E5031092E4033F
:10227000DFCFC0910201D09103010E949909FE01B4
:10228000EA51FC4F80832196D0930301C093020151
:10229000CFCFDF91CF910895CF93CFB7F8948091AE
:1022A000FB06811127C0E5EAF0E18491E1E9F0E164
:1022B0009491E82FF0E0EE0FFF1FED53FF4EA59134
:1022C000B4918C91892321F461E08AE00E94F31B90
:1022D00061E08AE00E94BA1B8CB580618CBD8CB530
:1022E00080648CBD61E08DE00E94BA1B61E08BE0F0
:1022F0000E94BA1B8091FB068F5F8093FB06CFBFC5
:10230000CF910895FC011382128288EA93E09183B1
:102310008083668345832483148E138E0895CF9320
:10232000DF93EC018B8D9C8D0097C1F4E8A1F9A19E
:10233000908189A5809589238083EE8DFF8D908182
:1023400088A5809589238083CE010E94C516EE8DD5
:10235000FF8D808198A5892B808313C081309105E2
:1023600041F4262F40E06D8DCE01DF91CF910C948A
:10237000B517029731F440E0CE01DF91CF910C9474
:102380006A17DF91CF910895CF93DF93EC018B8D86
:102390009C8D0097B9F4E8A1F9A1808199A5892BBA
:1023A0008083EE8DFF8D908188A580958923808321
:1023B000CE010E94C516EE8DFF8D808198A5892BD8
:1023C000808313C08130910541F4262F40E46D8D48
:1023D000CE01DF91CF910C94B517029731F441E013
:1023E000CE01DF91CF910C946A17DF91CF910895C0
:1023F000606B0C948F111F93CF93DF93EC01162F1A
:1024000062956F7060616E5F0E948F11612F6F70B7
:10241000CE01DF91CF911F910C948F11FF920F93FA
:102420001F93CF93DF93EC016130B9F4F12C6F2D42
:10243000CE010E94F81160E0CE010E94FB1100E87D
:1024400010E060E0CE010E94C41101501109C9F7EB
:10245000F39428E0F212EBCF0AC080E891E0E4E0C8
:10246000F1E0DF019C011D9221503040E1F7DF9146
:10247000CF911F910F91FF900895DF92EF92FF92FD
:102480000F931F93CF93DF938C0184E0E82E81E0BC
:10249000F82ED12C6D2DC8010E94F81160E0C80102
:1024A0000E94FB11C0E0D0E0F701EC0FFD1F60813E
:1024B000C8010E94C4112196C034D105A9F7D39454
:1024C00080E4E80EF11C86E0D812E4CFDF91CF91D2
:1024D0001F910F91FF90EF90DF900895FC0161AB89
:1024E00042AB08950F936034D8F54033C8F50130FE
:1024F000C9F42130A9F5E42FE695E695E69580E448
:10250000E89FF0011124E60FF11DEC5FFE4F4770CC
:1025100081E090E0042E01C0880F0A94EAF79081D0
:1025200098271DC0842F869586958695E62FF0E026
:10253000477090E4899FE00DF11D1124EC5FFE4F80
:1025400081E090E0042E01C0880F0A94EAF7213060
:1025500019F49081982B03C08095908198239083E3
:102560000F9108950F93FC0103A522A50E947212FA
:102570000F9108957F928F929F92AF92BF92CF92C8
:10258000DF92EF92FF920F931F93CF93DF93EC01B3
:10259000162FF42ED22EA02FB0E0A41BB109B7FF46
:1025A00003C0B195A195B109ED2DF0E0E11BF10952
:1025B000F7FF03C0F195E195F109AA24A394EA1766
:1025C000FB0714F0A12C06C09D2DD02E092F912FB2
:1025D0001F2DF92ED11630F49F2DF02E092F912F9B
:1025E0001D2DD92E9D2C911AE02FF0E0EF19F10945
:1025F000F7FF03C0F195E195F1097E2EB92CB69451
:10260000F01618F48824839412C088248A940FC08A
:102610000C2D2E2DAA2071F0412F6F2DCE010E947E
:102620007212B718B7FE02C0F80CB90C1F5F1D1567
:1026300078F303C04F2D612FF1CFDF91CF911F9120
:102640000F91FF90EF90DF90CF90BF90AF909F9051
:102650008F907F900895CF92EF920F93FC01C3A4C7
:10266000E2A40E94BA120F91EF90CF900895CF92FA
:10267000EF920F93260FCE2CE02E042F0E94BA1259
:102680000F91EF90CF900895CF92EF920F93240F78
:10269000CE2CE02E022F262F0E94BA120F91EF901F
:1026A000CF900895AF92BF92CF92DF92EF92FF92B8
:1026B0000F931F93CF93DF93EC01F62EB42ED22EFF
:1026C000A02E1E2DEC2C012F0E9437134FEF4A0D28
:1026D0004B0D2D2D6F2DCE010E943713AA94AA9475
:1026E00079F0B3942A2D4B2D6F2DCE010E94441307
:1026F0006FEF6D0D6F0D2A2D4B2DCE010E944413EF
:10270000DF91CF911F910F91FF90EF90DF90CF90CD
:10271000BF90AF900895CF92EF920F93FC01C3A4A6
:10272000E2A40E9452130F91EF90CF9008955F9210
:102730006F927F928F929F92AF92BF92CF92DF92D1
:10274000EF92FF920F931F93CF93DF934C01162FBD
:10275000F42ED02E5E2CA62EB12CC0E0D0E0350198
:10276000620E711CCE018A0D9B1D861597055CF4C7
:102770006C2F610FEC2C052D2D2D4F2DC4010E94C7
:1027800044132196EFCFDF91CF911F910F91FF90CE
:10279000EF90DF90CF90BF90AF909F908F907F9001
:1027A0006F905F900895CF92EF920F93FC01C3A4B6
:1027B000E2A40E9497130F91EF90CF9008956F922B
:1027C0007F928F929F92AF92BF92CF92DF92EF92C1
:1027D000FF920F931F93CF93DF93EC01D62EC42E5D
:1027E000102FAA24A394A21A922E9194990CF22E3F
:1027F000422F4C0D0E2D212F0E9472124C2D4F197D
:10280000212F6D2DCE010E9472126F2D6D0D212F83
:102810004C2DCE010E9472126D2D6F19212F4C2D5F
:10282000CE010E947212BB24B3948FEF8B0D8F15D3
:102830000CF04DC0A7FC04C0FA9493949394A90C97
:102840008B2D880F8F5FA80E6B2C6D0C0E2D212FFA
:102850007F2C7C0C472D662DCE010E9472128D2C90
:102860008B18212F472D682DCE010E947212212F27
:102870007C2C7F18472D662DCE010E947212212FCD
:10288000472D682DCE010E9472128B2C8C0C212FAB
:10289000482D6F2C6D0C662DCE010E947212212FD7
:1028A000482D8D2C8F18682DCE010E9472127C2C21
:1028B0007B18212F472D662DCE010E947212212FE9
:1028C000472D682DCE010E947212B394AECFDF91D6
:1028D000CF911F910F91FF90EF90DF90CF90BF901D
:1028E000AF909F908F907F906F900895EF920F938D
:1028F000FC01E3A402A50E94DF130F91EF9008955D
:10290000DC01643008F032C09E966C939E97E62FEF
:10291000F0E0EE0FFF1FEC57FD4F80819181FC012D
:1029200024919C962C939C973196E4919D96EC93E0
:102930009D97FC013296E4919F96EC939F97FC0142
:102940003396E491D096EC93D097FC013496249181
:102950003196849190E0F4E62F9F800D911D112413
:10296000D4969C938E93D39781E0089580E0089548
:10297000CF93DF93EC0160E00E94801481E08AA78E
:102980001BA619AA1AAA8D81682F70E0AB014556C3
:102990005F4EFA01249130E0220F331F27543F4E3F
:1029A000F901A591B491B9A3A8A3FB01E957FF4E82
:1029B000649169A7FA014491E42FF0E0EE0FFF1F44
:1029C000ED53FF4E259134913DA32CA361E00E946D
:1029D000BA1B61E08E810E94BA1B8B8D9C8D009783
:1029E00021F4CE010E947F160CC08130910521F4A4
:1029F000CE010E94CC1605C0029719F4CE010E94A8
:102A0000D41661E08E810E94BA1B61E08E810E9423
:102A1000F31B65E070E080E090E00E94CF1A60E078
:102A20008E810E94F31B6AE070E080E090E00E94DB
:102A3000CF1A61E08E810E94F31B6EEACE010E94E4
:102A40008F1165EDCE010E948F1160E8CE010E94CA
:102A50008F1168EACE010E948F116FE2CE010E94B1
:102A60008F1163EDCE010E948F1160E0CE010E94B4
:102A70008F1160E4CE010E948F116DE8CE010E949B
:102A80008F1164E1CE010E948F1166EACE010E948F
:102A90008F1164EACE010E948F1161EACE010E947B
:102AA0008F1168ECCE010E948F116AEDCE010E9459
:102AB0008F1162E1CE010E948F1161E8CE010E9468
:102AC0008F116FE8CE010E948F1169EDCE010E9437
:102AD0008F1161EFCE010E948F116BEDCE010E942C
:102AE0008F1160E4CE010E948F116FEACE010E9427
:102AF0008F1161E0CE01DF91CF910C940E125F92A5
:102B00006F927F928F929F92AF92BF92CF92DF92FD
:102B1000EF92FF920F931F93CF93DF93EC01162F49
:102B2000B42EF02E3FA5231708F4B0C068A970E0BA
:102B3000630F711D822F90E0861797070CF0A6C0D7
:102B4000D22ED31A9DA496949694969481E08915DA
:102B5000C0F1C12E3C2D311B2CA5822F90E0A32F5C
:102B6000B0E08A179B070CF491C0321791F0EEA5E4
:102B7000F0E0EE0FFF1FEC57FD4FD29EA00DB11DF0
:102B8000112416960190F081E02DEA0FFB1F94901E
:102B900001C0912CA12C4A2D4B0D90FE03C00E2D8F
:102BA0002F2D04C021E0F11020E00E2D6C2DCE0160
:102BB0000E9472129694A39488E0A812ECCFC3945A
:102BC000C9CFEBA9FCA92CA530E0CF01B9010E9427
:102BD00025218D2D90E00E942521829F6001839FF9
:102BE000D00C929FD00C11249E9E90019F9E300D80
:102BF0001124269FC001279F900D369F900D112410
:102C0000C80ED91E742EA12CB12C86E0C80ED11C82
:102C1000812E482D411B8CA5481780F5EEA5F0E0CC
:102C2000EE0FFF1FEC57FD4F2BA93CA9A29EC00140
:102C3000A39E900DB29E900D11248C0D9D1D840FAE
:102C4000911D0190F081E02DE80FF91F5490612C47
:102C5000462D470D50FE03C00E2D2F2D04C021E040
:102C6000F11020E00E2D682DCE010E9472125694B4
:102C7000639488E06812ECCF8394CBCF8FEFA81ACF
:102C8000B80A88E0780EA91408F4C2CFDF91CF917A
:102C90001F910F91FF90EF90DF90CF90BF90AF907A
:102CA0009F908F907F906F905F900895EF920F9319
:102CB000CF93DF93EC01262F6A30A9F06D30C1F07D
:102CC000EBA40AA54AA969A90E947F154CA529A9C8
:102CD000240F2F5F29AB30E080E490E0841B910942
:102CE000821793072CF48AA99DA5890F8AAB19AA8C
:102CF00081E090E0DF91CF910F91EF900895CF9315
:102D0000DF93EC014C8150E09A0125563F4EF901CA
:102D1000849190E0880F991F87549F4EFC01659124
:102D200074917F8F6E8FFA01E957FF4E449148A747
:102D3000F9012491E22FF0E0EE0FFF1FED53FF4E5B
:102D4000859194919BA38AA361E08BE00E94BA1BBA
:102D500061E08DE00E94BA1B61E08C810E94BA1B89
:102D600061E08C810E94F31B8CB58C7F8CBD8DB58E
:102D700081608DBD8CB5837F8CBD61E08AE00E944F
:102D8000BA1BDF91CF910C944C116EBD00000DB4B5
:102D900007FEFDCF8EB508958CEF96E00E946B186C
:102DA00087E08093B80008950F931F93CF93DF932C
:102DB000EC014C8150E09A0125563F4EF901849177
:102DC00090E0880F991F87549F4EFC016591749184
:102DD0007F8F6E8FFA01E957FF4E449148A7F901A2
:102DE0002491E22FF0E0EE0FFF1FED53FF4E85918F
:102DF00094919BA38AA38F81682F70E0AB01455605
:102E00005F4EFA01249130E0220F331F27543F4ECA
:102E1000F901A591B491BA8BA98BFB01E957FF4E3B
:102E20006491698FFA014491E42FF0E0EE0FFF1FE7
:102E3000ED53FF4E259134913C8B2B8B688570E0D0
:102E4000AB0145565F4EFA01249130E0220F331F4B
:102E500027543F4EF901A591B491BE8BAD8BFB0178
:102E6000E957FF4E64916A8FFA014491E42FF0E034
:102E7000EE0FFF1FED53FF4E25913491388F2F8BAE
:102E800061E00E94BA1B61E08F810E94F31B61E048
:102E900088850E94BA1B61E088850E94F31B61E06F
:102EA0008C810E94BA1B61E08C810E94F31B00E0C0
:102EB00010E0FE01E00FF11F61E081850E94BA1B66
:102EC0000F5F1F4F08301105A1F7DF91CF911F91C0
:102ED0000F910895CF92DF92EF92FF920F931F937D
:102EE000CF93DF931F92CDB7DEB76C01E62E60E083
:102EF000FC01848149830E94F31B4981642FF60100
:102F000085810E94F31B60E0F60187810E94F31B1C
:102F100000E010E0F12CF601E00FF11FC701002ED8
:102F200002C0959587950A94E2F780FF02C061E0A0
:102F300001C060E081850E94F31B0F5F1F4F0830C6
:102F4000110549F761E0F60187810E94F31B61E0FA
:102F5000F60184810F90DF91CF911F910F91FF9027
:102F6000EF90DF90CF900C94F31BCF93DF9300D0C2
:102F7000CDB7DEB78CEF96E02A8349830E9475189F
:102F80004981642F8CEF96E00E942C182A81622FD1
:102F90008CEF96E00E942C188CEF96E00F900F902B
:102FA000DF91CF910C94921880912C0790E02091A2
:102FB0002D07821B9109089520912D0780912C07E0
:102FC000281750F4E22FF0E0E25DF84F808190E0A6
:102FD0002F5F20932D0708958FEF9FEF0895E091C5
:102FE0002D0780912C07E81730F4F0E0E25DF84FF0
:102FF000808190E008958FEF9FEF08950895CF921C
:10300000DF92EF92FF920F931F93CF93DF937C0198
:10301000CB018A0120910807222389F0EB016B0183
:10302000C40ED51ECC15DD0569F06991D701ED916F
:10303000FC910190F081E02DC7010995F3CF642F39
:103040000E940E19C801DF91CF911F910F91FF903F
:10305000EF90DF90CF900895CF93DF931F92CDB77D
:10306000DEB76983209108072223D1F02091090758
:10307000203240F021E030E0FC013383228380E005
:1030800090E015C080910A07E82FF0E0E55FF84F67
:10309000998190838F5F80930A078093090705C009
:1030A00061E0CE0101960E940E1981E090E00F9040
:1030B000DF91CF910895FC011382128248EE53E014
:1030C00060E070E0448355836683778380EB93E010
:1030D00091838083089510922D0710922C071092EF
:1030E0000A07109209070C94991881E08093080749
:1030F00060932B0710920A071092090708950F9307
:10310000062F21E0409109076BE077E080912B07C3
:103110000E94B71810920A07109209071092080728
:103120000F91089561E00C947F188CEF96E00C9459
:103130005B181092BB0781E08093B9071092B80723
:1031400061E082E10E94F31B61E083E10E94F31BD6
:10315000E9EBF0E080818E7F808380818D7F8083AA
:1031600084E38093B80085E48093BC0008950F93B6
:10317000413208F04AC09091BB079111FCCF92E018
:103180009093BB070093B9079FEF90934E0710925F
:10319000930740939207FB0164E977E0DB019A2FE4
:1031A000961B941718F491919D93F9CF1092BA073A
:1031B0009091BA07880F892B8093BA078091B8073E
:1031C000813061F41092B8078091BA078093BB00F8
:1031D0008091BC0083FDF8CF85EC01C085EE809323
:1031E000BC00222321F08091BB078230E1F3809163
:1031F0004E078F3F61F080914E07803251F08091F1
:103200004E07803341F483E007C081E005C080E0D1
:1032100003C082E001C084E00F910895613298F408
:103220002091BB07243089F460937007FC0182E78A
:1032300097E0DC012A2F281B261718F421912D93E3
:10324000F9CF80E0089581E0089582E0089585ED4A
:103250008093BC008091BC0084FDFCCF1092BB0722
:10326000089585EC8093BC001092BB0708951F92CF
:103270000F920FB60F9211242F933F934F935F93AA
:103280006F937F938F939F93AF93BF93EF93FF932E
:103290008091B900887F803609F49EC078F5883225
:1032A00009F45DC090F4803109F456C038F48823E5
:1032B00009F4F5C0883009F44FC0F5C0883109F42D
:1032C0004EC0803209F45FC0EEC0803409F46AC099
:1032D00058F4803309F457C0883309F0E4C0809370
:1032E0004E070E943119DFC0803509F44FC0883580
:1032F00009F45DC0883409F0D6C0D3C0883909F418
:10330000C4C0A8F4883709F467C038F4883609F4D3
:1033100063C0803709F460C0C6C0883809F4B5C0FE
:10332000803909F45FC0803809F0BDC05BC0803BC4
:1033300009F483C038F4803A09F466C0883A09F485
:103340007CC0B1C0803C09F4A4C0883C09F4A1C091
:10335000883B09F487C0A7C08091BA0710C090913C
:10336000930780919207981770F5E091930781E099
:103370008E0F80939307F0E0EC56F84F8081809396
:10338000BB0085EC83C080934E078BC0E091930710
:1033900081E08E0F809393078091BB00F0E0EC56A4
:1033A000F84F808390919307809192076BC0E091D2
:1033B000930781E08E0F809393078091BB00F0E02C
:1033C000EC56F84F80838091B90781116AC081E083
:1033D0008093B80784EA5EC083E08093BB071092B5
:1033E0004F07CFCF80914F07803208F04EC0E09159
:1033F0004F0781E08E0F80934F078091BB00F0E074
:10340000E05BF84F8083BDCF0E94311980914F0758
:10341000803230F4E0914F07F0E0E05BF84F10822B
:1034200060914F0770E0E091B407F091B50780E537
:1034300097E0099510924F0736C084E08093BB0750
:103440001092710710927007E091B607F091B707DC
:10345000099580917007811105C081E08093700704
:1034600010927207E091710781E08E0F80937107CF
:10347000F0E0EE58F84F80818093BB009091710787
:1034800080917007981708F47CCF85E88093BC0082
:103490000AC085EC8093BC001092BB0704C0109258
:1034A0004E070E942719FF91EF91BF91AF919F9115
:1034B0008F917F916F915F914F913F912F910F90DD
:1034C0000FBE0F901F9018951F920F920FB60F927C
:1034D00011242F933F938F939F93AF93BF9380912A
:1034E000BD079091BE07A091BF07B091C007309172
:1034F000BC072DE2230F2D3720F40196A11DB11D2D
:1035000005C020EB230F0296A11DB11D2093BC071F
:103510008093BD079093BE07A093BF07B093C007E9
:103520008091C1079091C207A091C307B091C407D1
:103530000196A11DB11D8093C1079093C207A0936E
:10354000C307B093C407BF91AF919F918F913F91F3
:103550002F910F900FBE0F901F9018959FB7F89462
:103560004091C1075091C2076091C3077091C40791
:1035700086B5A89B06C08F3F21F04F5F5F4F6F4F0E
:103580007F4F9FBF2227342F452F562F280F311DE5
:10359000411D511DA5E0B0E00E9494210895CF92F5
:1035A000DF92EF92FF92CF93DF936B017C010E9439
:1035B000AE1AEB01C114D104E104F10489F00E94B8
:1035C0008C1F0E94AE1A6C1B7D0B683E734090F3FB
:1035D00081E0C81AD108E108F108C851DC4FEACFF0
:1035E000DF91CF91FF90EF90DF90CF900895789486
:1035F00084B5826084BD84B5816084BD85B58260F8
:1036000085BD85B5816085BDEEE6F0E08081816095
:103610008083E1E8F0E01082808182608083808195
:1036200081608083E0E8F0E0808181608083E1EB6D
:10363000F0E0808184608083E0EBF0E08081816055
:103640008083EAE7F0E0808184608083808182600B
:10365000808380818E7F80838081806880831092C8
:10366000C10008951F93CF93DF93182FEB0161E002
:103670000E94BA1B209711F460E004C0CF3FD1052F
:1036800039F461E0812FDF91CF911F910C94F31BEE
:10369000E12FF0E0ED58FF4EE491E330F9F048F40B
:1036A000E130B9F0E230A1F584B5806284BDC8BDD7
:1036B00034C0E730E9F0E83019F1E43049F58091A1
:1036C0008000806280938000D0938B00C0938A003A
:1036D00024C084B5806884BDC7BD1FC080918000B0
:1036E000806880938000D0938900C093880015C0C3
:1036F0008091B00080688093B000C093B3000DC08B
:103700008091B00080628093B000C093B40005C087
:10371000C038D1050CF0B5CFAFCFDF91CF911F915D
:103720000895833081F028F4813099F08230A1F03F
:1037300008958730A9F08830B9F08430D1F48091B1
:1037400080008F7D03C0809180008F778093800000
:10375000089584B58F7702C084B58F7D84BD0895A8
:103760008091B0008F7703C08091B0008F7D8093EF
:10377000B0000895CF93DF9390E0FC01E957FF4E2E
:103780002491FC01E556FF4E8491882349F190E095
:10379000880F991FFC01ED53FF4EA591B4918754FA
:1037A0009F4EFC01C591D4919FB7611108C0F89458
:1037B0008C91209582238C93888182230AC0623069
:1037C00051F4F8948C91322F309583238C93888117
:1037D000822B888304C0F8948C91822B8C939FBF9A
:1037E000DF91CF9108950F931F93CF93DF931F9293
:1037F000CDB7DEB7282F30E0F901ED58FF4E8491A8
:10380000F901E957FF4E1491F901E556FF4E049175
:103810000023C9F0882321F069830E94911B6981EC
:10382000E02FF0E0EE0FFF1FE754FF4EA591B4919B
:103830009FB7F8948C91611103C01095812301C04A
:10384000812B8C939FBF0F90DF91CF911F910F9190
:103850000895CF93DF93282F30E0F901ED58FF4E04
:103860008491F901E957FF4ED491F901E556FF4ED5
:10387000C491CC2391F081110E94911BEC2FF0E0B8
:10388000EE0FFF1FE155FF4EA591B4912C912D2312
:1038900081E090E021F480E002C080E090E0DF91E0
:1038A000CF910895FC01818D228D90E0805C9F4F27
:1038B000821B91098F7399270895FC01918D828D48
:1038C000981731F0828DE80FF11D858D90E00895F5
:1038D0008FEF9FEF0895FC01918D828D981761F015
:1038E000828DDF01A80FB11D5D968C91928D9F5F37
:1038F0009F73928F90E008958FEF9FEF089589EE68
:103900009DE1892B49F086E191E1892B29F00E9404
:10391000E91D81110C9416110895FC01848DDF01BD
:10392000A80FB11DA35ABF4F2C91848D90E0019632
:103930008F739927848FA689B7892C93A089B18921
:103940008C9180648C93938D848D981306C002882B
:10395000F389E02D80818F7D80830895CF93DF935D
:10396000EC01888D8823C9F0EA89FB89808185FD77
:1039700005C0A889B9898C9186FD0FC00FB607FCD8
:10398000F5CF808185FFF2CFA889B9898C9185FF19
:10399000EDCFCE010E948D1CE7CFDF91CF9108952E
:1039A000CF92DF92FF920F931F93CF93DF931F92DB
:1039B000CDB7DEB76C0181E0D60158968C9358974D
:1039C0005B969C915B975C968C915C97981307C073
:1039D0005096ED91FC915197808185FD2EC0F601A6
:1039E000038D10E00F5F1F4F0F731127F02EF601AC
:1039F000848DF81211C00FB607FCF9CFD60150968E
:103A0000ED91FC915197808185FFF1CFC6016983CB
:103A10000E948D1C6981EBCF838DE80FF11DE35A65
:103A2000FF4F6083D6015B960C935B975296ED91A6
:103A3000FC915397808180620CC0D6015696ED911F
:103A4000FC91579760835096ED91FC91519780813E
:103A50008064808381E090E00F90DF91CF911F918F
:103A60000F91FF90DF90CF900895BF92CF92DF9299
:103A7000EF92FF92CF93DF93EC016A017B01B22EAC
:103A800060EC76EC8DE290E0A70196010E944D215A
:103A90002150310941095109569547953795279588
:103AA000E889F98982E08083211580E1380798F060
:103AB000E889F989108260E673EE86E190E0A7015B
:103AC00096010E944D212150310941095109569515
:103AD000479537952795EC85FD853083EE85FF85E5
:103AE0002083188EEC89FD89B082EA89FB89808168
:103AF00080618083EA89FB89808188608083EA898C
:103B0000FB89808180688083EA89FB8980818F7D41
:103B10008083DF91CF91FF90EF90DF90CF90BF90A7
:103B200008951F920F920FB60F9211242F938F9327
:103B30009F93EF93FF93E091D507F091D607808193
:103B4000E091DB07F091DC0782FD12C0908180914B
:103B5000DE078F5F8F732091DF07821751F0E091AE
:103B6000DE07F0E0EB53F84F958F8093DE0701C03E
:103B70008081FF91EF919F918F912F910F900FBEB8
:103B80000F901F9018951F920F920FB60F9211244D
:103B90002F933F934F935F936F937F938F939F9355
:103BA000AF93BF93EF93FF9385EC97E00E948D1C3A
:103BB000FF91EF91BF91AF919F918F917F916F9105
:103BC0005F914F913F912F910F900FBE0F901F90DB
:103BD000189585EC97E00E94521C21E0892B09F48E
:103BE00020E0822F08951092C8071092C70788EE30
:103BF00093E0A0E0B0E08093C9079093CA07A09338
:103C0000CB07B093CC0780EC93E09093C6078093EA
:103C1000C50785EC90E09093D2078093D10784ECA0
:103C200090E09093D4078093D30780EC90E090933A
:103C3000D6078093D50781EC90E09093D8078093C6
:103C4000D70782EC90E09093DA078093D90786EC4F
:103C500090E09093DC078093DB071092DE071092D0
:103C6000DF071092E0071092E1070895CF92DF92EC
:103C7000EF92FF920F931F93CF93DF937C016A0122
:103C8000EB0100E010E00C151D0571F06991D70102
:103C9000ED91FC910190F081E02DC7010995892BF0
:103CA00019F00F5F1F4FEFCFC801DF91CF911F9128
:103CB0000F91FF90EF90DF90CF90089561157105FF
:103CC00081F0DB010D900020E9F7AD014150510971
:103CD000461B570BDC01ED91FC910280F381E02D36
:103CE000099480E090E008950C945E1EDC01ED9153
:103CF000FC910190F081E02D09946CEC73E00C9440
:103D00005E1E0F931F93CF93DF93EC010E945E1E04
:103D10008C01CE010E947D1E800F911FDF91CF91FB
:103D20001F910F9108950F931F93CF93DF93EC0191
:103D30000E94761E8C01CE010E947D1E800F911F75
:103D4000DF91CF911F910F9108958F929F92AF9223
:103D5000BF92CF92DF92EF92FF920F931F93CF9378
:103D6000DF93CDB7DEB7A1970FB6F894DEBF0FBED5
:103D7000CDBF7C01C42EE52FCB01D22E19A221E0AC
:103D80002D1510F02AE0D22E8E010F5D1F4F8D2CC5
:103D9000912CA12CB12C6C2D7E2FA50194010E9499
:103DA0004D218C2DD29E80191124015011098A3089
:103DB00014F4805D01C0895CF80180832115310510
:103DC0004105510521F0C22EE32FCA01E4CFB8010D
:103DD000C7010E945E1EA1960FB6F894DEBF0FBE0B
:103DE000CDBFDF91CF911F910F91FF90EF90DF90AA
:103DF000CF90BF90AF909F908F900895CF92DF9219
:103E0000EF92FF920F931F93CF93DF93EC016A0120
:103E10007B012115310579F4E881F9810190F08168
:103E2000E02D642FDF91CF911F910F91FF90EF90C4
:103E3000DF90CF9009942A303105E9F477FF1AC05A
:103E40006DE20E94761E8C0144275527BA014C1959
:103E50005D096E097F092AE0CE010E94A51E800F30
:103E6000911FDF91CF911F910F91FF90EF90DF9005
:103E7000CF9008952AE0B701A601CE01DF91CF913E
:103E80001F910F91FF90EF90DF90CF900C94A51EA3
:103E90009A01AB01662757FD6095762F0C94FE1EA4
:103EA0000F931F93CF93DF93EC019A01AB01662729
:103EB00057FD6095762F0E94FE1E8C01CE010E9458
:103EC0007D1E800F911FDF91CF911F910F9108955B
:103ED0002115310541F4DC01ED91FC910190F08157
:103EE000E02D642F09940C94A51E9A01462F50E0F2
:103EF00060E070E00C94681F08950E94F71A0E9419
:103F00007C1F0E944409CFE7DCE10E94C20F20978A
:103F1000E1F30E947F1CF9CF08955058BB27AA27D0
:103F20000ED04DC13ED130F043D120F031F49F3F4F
:103F300011F41EF433C10EF4E095E7FB29C1E92F1B
:103F40004FD180F3BA17620773078407950718F0FB
:103F500071F49EF567C10EF4E0950B2EBA2FA02DDB
:103F60000B01B90190010C01CA01A0011124FF2726
:103F7000591B99F0593F50F4503E68F11A16F04021
:103F8000A22F232F342F4427585FF3CF4695379520
:103F90002795A795F0405395C9F77EF41F16BA0BE5
:103FA000620B730B840BBAF09150A1F0FF0FBB1F93
:103FB000661F771F881FC2F70EC0BA0F621F731FDC
:103FC000841F48F4879577956795B795F7959E3F39
:103FD00008F0B3CF9395880F08F09927EE0F9795C7
:103FE000879508950CD0EBC0E3D040F0DAD030F0E4
:103FF00021F45F3F19F0CCC0511115C1CFC0F0D0F2
:1040000098F39923C9F35523B1F3951B550BBB279F
:10401000AA2762177307840738F09F5F5F4F220F4C
:10402000331F441FAA1FA9F333D00E2E3AF0E0E845
:1040300030D091505040E695001CCAF729D0FE2F91
:1040400027D0660F771F881FBB1F26173707480723
:10405000AB07B0E809F0BB0B802DBF01FF279358D9
:104060005F4F2AF09E3F510568F092C0DCC05F3F71
:10407000ECF3983EDCF3869577956795B795F795C1
:104080009F5FC9F7880F911D9695879597F90895B9
:10409000E1E0660F771F881FBB1F62177307840755
:1040A000BA0720F0621B730B840BBA0BEE1F88F764
:1040B000E095089504D06894B111B5C0089598D0E2
:1040C00088F09F5790F0B92F9927B751A0F0D1F001
:1040D000660F771F881F991F1AF0BA95C9F712C08B
:1040E000B13081F09FD0B1E008959CC0672F782F48
:1040F0008827B85F39F0B93FCCF3869577956795F7
:10410000B395D9F73EF490958095709561957F4F62
:104110008F4F9F4F0895E89409C097FB3EF4909508
:104120008095709561957F4F8F4F9F4F9923A9F090
:10413000F92F96E9BB279395F6958795779567951F
:10414000B795F111F8CFFAF4BB0F11F460FF1BC063
:104150006F5F7F4F8F4F9F4F16C0882311F096E9F6
:1041600011C0772321F09EE8872F762F05C06623A4
:1041700071F096E8862F70E060E02AF09A95660F5D
:10418000771F881FDAF7880F9695879597F9089516
:1041900097F99F6780E870E060E008959FEF80ECFA
:1041A000089500240A94161617061806090608959D
:1041B00000240A9412161306140605060895092E03
:1041C0000394000C11F4882352F0BB0F40F4BF2B72
:1041D00011F460FF04C06F5F7F4F8F4F9F4F0895B2
:1041E00057FD9058440F551F59F05F3F71F04795A8
:1041F000880F97FB991F61F09F3F79F0879508958D
:10420000121613061406551FF2CF4695F1DF08C0AB
:10421000161617061806991FF1CF869571056105C8
:1042200008940895E894BB2766277727CB0197F970
:104230000895991B79E004C0991F961708F0961B02
:10424000881F7A95C9F780950895AA1BBB1B51E179
:1042500007C0AA1FBB1FA617B70710F0A61BB70BF6
:10426000881F991F5A95A9F780959095BC01CD019B
:10427000089597FB072E16F4009407D077FD09D018
:104280000E94252107FC05D03EF4909581959F4F13
:104290000895709561957F4F0895A1E21A2EAA1B8B
:1042A000BB1BFD010DC0AA1FBB1FEE1FFF1FA217E6
:1042B000B307E407F50720F0A21BB30BE40BF50BE3
:1042C000661F771F881F991F1A9469F7609570956C
:1042D000809590959B01AC01BD01CF010895052EFD
:1042E00097FB1EF400940E94862157FD07D00E9480
:1042F0004D2107FC03D04EF40C9486215095409537
:10430000309521953F4F4F4F5F4F08959095809581
:10431000709561957F4F8F4F9F4F0895EE0FFF1F50
:104320000590F491E02D09940E949F21A59F900D86
:10433000B49F900DA49F800D911D11240895A29FFC
:10434000B001B39FC001A39F700D811D1124911D69
:10435000B29F700D811D1124911D0895F999FECF12
:1043600092BD81BDF89A992780B50895262FF999B5
:10437000FECF1FBA92BD81BD20BD0FB6F894FA9A48
:0C438000F99A0FBE01960895F894FFCF43
:10438C00FFFF1E0000000000000000000000000005
:10439C00000000000080C0C0E0E0F0F0F0F8F8F899
:1043AC00F8F8FCFCFCFCFCFCFCF8F8F8F0E0E0C0D5
:1043BC008000000000000000000000000000000071
:1043CC00000000000000000000000000000000C021
:1043DC00F0F8FEFEFFFFFFFFFFFFFFFFFFFFFFFFF9
:1043EC00FF7F3F9F9FDFFFBF9F9FBFBFFFFFFFFF71
:1043FC00FFFFFCF8E00000000000000000000000DF
:10440C000000000000000000000000000000FEFFA3
:10441C00FFFFFFFFFFFFFFFFFFFFFFFFFFFFFFFFA0
:10442C00FFFFC3C9C1C3FFC38981C3FFFFFFFFFFE8
:10443C00FFFFFFFFFF7F40000000000000000000B6
:10444C000000000000000000000000000000033F1E
:10445C00FFFFFFFFFFFFF1E08EBC2DC9933F7F7F75
:10446C00FFFFFFFFFFFFFFFFFFFFFFFFFFFFFFFF50
:10447C00FF7F3F9CC6761F07000000000000000075
:10448C000000000000000000000000000000000020
:10449C0001070F1F7FFFFFFFFFFFFFFFFFFFFFFE67
:1044AC00FCFCFDF9FBFBFBF3F3F3F3FBFBFBF9FD6E
:1044BC00FCFEFF3F070000000000000000000000B1
:1044CC0000000000000000000000000000000000E0
:1044DC00000000000000010307070F1F1F3F3F3FB4
:1044EC003F3F3F7FFFFFFFEFEF8F0F0F0F0F0707D0
:1044FC0001010000000000000000000000000000AE
:10450C0000000000720B6C0558014E02382C3E3E28
:10451C00383E98783C181C7C546C547C3C0C1C1C0D
:10452C000C3C206028A8A8F87838303020203000C7
:10453C002020204D4F44452020003D3D3D3D3D3D3C
:10454C003D3D3D3D002D2073696C656E7420002D42
:10455C00204C454473202020002D20202B20626508
:10456C006570003E004D6F6465200020202044697A
:10457C006E6F004869676873636F72653A00204715
:10458C00616D65204F766572002A0047616D65206C
:10459C00210012121213131414151617181A1B1CBF
:1045AC001E1F20222324262728292A2A2B2B2C2C99
:1045BC002C2C2C2B2B2A2A29282725242322201F7C
:1045CC001E1C1B1A181716151414131312121D1E69
:1045DC0020212223252627282829292A2A2A2A2A63
:1045EC0029292828272625232221201E1D1C1A199B
:1045FC00181615141312121111101010101011118D
:10460C0012121314151718191A1C15161A1F242810
:10461C002928241F1A16151D22262726221D181498
:10462C001314181D000000005616361E0000000062
:10463C002C18FF17D417DC17EF17FE17000000001B
:10464C00D01C361E521C6B1C5D1CAE1C0D0A006E61
:0E465C00616E00696E66006F7666002E0000CB
:00000001FF
