:100000000C9401080C9429080C9429080C942908D4
:100010000C9429080C9429080C9429080C9429089C
:100020000C9429080C9429080C9429080C9429088C
:100030000C9429080C9429080C9429080C9429087C
:100040000C94D6190C9429080C94201D0C94521D64
:100050000C9429080C9429080C9429080C9429085C
:100060000C94A9180C942908D60E1D0F1A0F120F04
:100070001A0F0E0F3E0F0A0F060FFE0EE30E420F71
:10008000EC0EF50ED20E0A102E0C0114000000002A
:100090000000000000000000000000000000000060
:1000A00078FC020303030302FC7800000000000058
:1000B0000000FF7E0000028383838302FC7800003F
:1000C000028383838302FC787EFF0080808080002F
:1000D000FF7E78FC028383838302000078FC028326
:1000E0008383830200000002030303030302FC78FE
:1000F00078FC028383838302FC7878FC0283838309
:100100008302FC7800000060F0F060000000000056
:1001100000000000000000001E3F40C0C0C0C04002
:100120003F1E0000000000000000FF7E1C3E41C199
:10013000C1C1C1410000000041C1C1C1C1413E1C5B
:100140000000010101010101FF7E000041C1C1C1A8
:10015000C1413E1C1C3E41C1C1C1C1413E1C000009
:10016000000000000000FF7E1C3E41C1C1C1C14132
:100170003E1C000041C1C1C1C1413E1C0C30300BCE
:10018000012000C0F87C3E3EFCF8C00000000000EA
:1001900080E078FEFE000000000000F07C3C3E3E67
:1001A000FEFCE0000000007C3E3E3EFEF8C0000089
:1001B00000000000000000F8FEFE0000000000FE4D
:1001C000FE3E3E3E3E3E00000000000080F0FC3E51
:1001D0003E3EFC000000003E3E3E3E3E3E3EFEFEF9
:1001E00000000000C0F8FE3E7EFCE00000000000C1
:1001F000E0FC7E3EFEF8C000000000000000C0E011
:10020000C00000000000F0FF0F000000F9FFFFF049
:1002100000000000070300FFFF00000000000001D5
:100220000000000000FFFF000000000000000000D0
:10023000FFFF00000000000000E0FF1FFFFF0000C4
:10024000000000FFFF00000000000000000000E0D0
:10025000FF3F000000000000000000000000000060
:10026000C0FC7F0300000000FFFF000000FFFF0054
:10027000000000FEFF03000000FFFFF00000000090
:1002800000003F7F3F0000000000FFFF0000E0FF94
:100290001F00FFFF00000000000000FFFF00000043
:1002A00000000000000000E0FE1F01000000000050
:1002B000F8F8FCFFC7000000000000C0FE3F03008C
:1002C000FFFF00000000003F3F3E7EFCF8E0000022
:1002D000000000FFFF80F07C7CF8F00000000000D0
:1002E000000080F8FF07000000000000019FFFF8F9
:1002F000FE1F0100000000FFFFC0000080FFFFFFA5
:100300000000000000000000000000000000FFFFEF
:10031000C0FC7F030000FFFF00000000000000FFA2
:10032000FF0000000000000000E0FE0F01000000E0
:1003300000000000000000010FFFF8000000F8FFBF
:10034000E7E0E0E0FFFFE0E0E00000000000000088
:1003500007FFFE00000000FFFFFF03000001FFFF9A
:100360000000000000F0FF0F00000000000000C0CF
:10037000FC3F03031FFFFCC0000000000F1F3E3EB8
:100380000F01FFFF000000000000008000000000DF
:10039000000007FFFF07000000FCFF07000000004F
:1003A000000000FFFF000000000000E0FE0F000062
:1003B000000000000000000000000000C0FF7F00FF
:1003C0000000030303030303FFFF03030300000014
:1003D00000000000C0FF7F000000000FFFFF800052
:1003E0000080FF7F00000000FEFF0300000000000F
:1003F000000000FFFF8000000080FFFF0000000001
:100400000000000080FCFF07000000000000FFFF6C
:10041000FF000000000000031F3F7C7C3F1F030023
:10042000000000007C7C7C7F7F7C7C7C0000007F67
:100430007F7C7C7C7C7C7C000000003F7E7C7C7E22
:100440001F07000000000000000000007F7F000088
:100450000000001F3E7C7C3E1F07000000000000E3
:10046000031F7F7C7C3F0700000000007F7F0000AF
:1004700000000000000000011F3F7E7C7E3F1F0146
:10048000000000003E7C7C7E3F0F01000000000069
:100490000000000100000000000008102060023889
:1004A0000000000000000000000000FE000000004E
:1004B00000000E000E00000000D0BE90D0BE9000E4
:1004C000001C62FFC28000000C12924CB088060033
:1004D000807C62B21CC0000000000E0E0000000014
:1004E00000E01804020200000002020418E000000C
:1004F0000024187E18240000808080F08080800016
:1005000000000000000000000080808080000000EB
:1005100000000000000000000000806018060000DD
:10052000F804C2320CF80000000404FE00000000D1
:1005300000028242221C00000002222222DC000073
:10054000C0A09884FE808000001E121222C200000B
:10055000F844222222C00000000202C2320A060031
:10056000008C5222528C00003C42424226F800008D
:1005700000003030000000000000303000000000BB
:10058000808040402020100040404040404000001B
:10059000102020404080800000028242221C000087
:1005A0000000000000000000000000050000000046
:1005B000000000000000000000070000070000002D
:1005C0000004040F040300000402010304040300F8
:1005D0000304040405030400000000000000000000
:1005E00000030608101000000010100806030000A9
:1005F00000000000000000000000000700000000F4
:100600000000160E000000000000000000000000C6
:1006100000000606000000000402010000000000C7
:1006200001030404020100000004040704040000A4
:100630000007040404040000000404040403000090
:100640000000000007000000000404040403000090
:100650000102040404030000000007000000000081
:100660000003040404030000000404040201000069
:1006700000000606000000000000160E000000004A
:10068000000001010202040001010101010100005A
:10069000040202010100000000000500000000004B
:1006A000F804728AFA84780000C0380638C0000066
:1006B00000FE222222DC0000F804020202020000F6
:1006C000FE02020204F8000000FE222222220000A4
:1006D00000FE222222220000F804020222E2000090
:1006E000FE20202020FE0000000202FE0202000088
:1006F0000000000202FE0000FE40B00804020000FC
:1007000000FE000000000000FE0C7080700CFE0077
:10071000FE0C30C000FE0000F804020204F80000E5
:10072000FE424242221C0000F804020204F80000CB
:1007300000FE4242A21C0000001C22424280000037
:10074000020202FE02020200FE00000000FE0000A3
:100750000638C000C03806003EC0F00EF0C03E00B3
:100760000006986098060000000618E018060000D1
:100770000202C2320A0600000000FE02020202006B
:10078000000618608000000002020202FE00000065
:1007900040300C0C30400000000000000000000061
:1007A0000102040404000000060101010101060029
:1007B0000007040404030000010204040404000010
:1007C00007040404020100000007040404040000FC
:1007D00000070000000000000102040404070000FC
:1007E00007000000000700000004040704040000E4
:1007F00000040404040300000700000102040000D8
:1008000000070404040400000700000100000700C2
:1008100007000000030700000102040402010000B9
:1008200007000000000000000102040C121110007B
:100830000007000001060000000404040403000097
:10084000000000070000000003040404040300008B
:100850000000010601000000000700000007000082
:100860000006010001060000000000070000000073
:10087000060504040404000000001F1010101000FE
:100880000000000001020400101010101F00000002
:100890000000000000000000080808080808000028
:1008A000000002040000000000E0101010F0000042
:1008B00000FE201010E0000000E0101010100000FA
:1008C00000E0101010FE000000E0909090E00000AA
:1008D0000020FC222222020000E0101010F0000094
:1008E00000FE201010E000001010F20000000000D8
:1008F00000101010F200000000FE804020100000E8
:10090000000202FE00000000F02010F02010F000B5
:1009100000F0201010E0000000E0101010E00000D7
:1009200000F0201010E0000000E0101010F00000B7
:1009300000F02010107000000060909090200000E7
:10094000002020FC2020200000F0000000F000002B
:100950000070800080700000F000C030C000F00027
:100960000030C0C0300000000030C00080700000C7
:1009700000101090503000000080807E02020000C5
:10098000000000FE000000000002027E80800000E7
:1009900000808000000080000000000000000000D7
:1009A0000000000000000000000304040207000033
:1009B000000704040403000000030404040400000E
:1009C0000003040402070000000304040404000000
:1009D000000007000000000000332424221F000054
:1009E00000070000000700000000070404000000EA
:1009F000202020201F00000000070001020400004A
:100A000000000007040400000700000700000700C2
:100A100000070000000700000003040404030000B6
:100A2000003F04040403000000030404023F00002C
:100A3000000700000000000000020404040300009E
:100A40000000000304040400000304040207000083
:100A5000000003040300000001060100010601007C
:100A600000060101060000002020310E03000000F6
:100A700000060504040400000000001F1010000020
:100A800000000007000000000010101F0000000020
:100A90000100000101010000000000000000000052
:100AA000050800FF0C4B00000000003E5B4F5B3E62
:100AB0003E6B4F6B3E1C3E7C3E1C183C7E3C181C23
:100AC000577D571C1C5E7F5E1C00183C1800FFE71A
:100AD000C3E7FF0018241800FFE7DBE7FF30483AC0
:100AE000060E2629792926407F050507407F052522
:100AF0003F5A3CE73C5A7F3E1C1C08081C1C3E7FAA
:100B000014227F22145F5F005F5F06097F017F0070
:100B10006689956A606060606094A2FFA294080490
:100B20007E040810207E201008082A1C08081C2AB1
:100B300008081E101010100C1E0C1E0C30383E3809
:100B400030060E3E0E06000000000000005F0000B0
:100B50000007000700147F147F14242A7F2A122321
:100B60001308646236495620500008070300001C31
:100B70002241000041221C002A1C7F1C2A08083E3A
:100B8000080800807030000808080808000060604D
:100B90000020100804023E5149453E00427F4000BB
:100BA00072494949462141494D331814127F102793
:100BB000454545393C4A49493141211109073649E2
:100BC000494936464949291E0000140000004034B6
:100BD00000000008142241141414141400412214BB
:100BE0000802015909063E415D594E7C1211127CE2
:100BF0007F494949363E414141227F4141413E7F43
:100C0000494949417F090909013E414151737F0822
:100C100008087F00417F41002040413F017F0814C8
:100C200022417F404040407F021C027F7F04081029
:100C30007F3E4141413E7F090909063E4151215E07
:100C40007F09192946264949493203017F01033F9B
:100C50004040403F1F2040201F3F4038403F63142A
:100C600008146303047804036159494D43007F412C
:100C700041410204081020004141417F0402010269
:100C8000044040404040000307080020545478408E
:100C90007F284444383844444428384444287F3822
:100CA0005454541800087E090218A4A49C787F08A4
:100CB00004047800447D40002040403D007F10281F
:100CC000440000417F40007C047804787C080404E0
:100CD000783844444438FC1824241818242418FC78
:100CE0007C08040408485454542404043F44243C1D
:100CF0004040207C1C2040201C3C4030403C44288C
:100D00001028444C9090907C4464544C4400083625
:100D10004100000077000000413608000201020493
:100D2000023C2623263C1EA1A161123A4040207AB3
:100D300038545455592155557941215454784121FD
:100D40005554784020545579400C1E527212395532
:100D5000555559395454545939555454580000452F
:100D60007C410002457D420001457C40F029242958
:100D7000F0F0282528F07C545545002054547C542C
:100D80007C0A097F4932494949323248484832325F
:100D90004A4848303A4141217A3A42402078009D01
:100DA000A0A07D39444444393D4040403D3C24FFAF
:100DB0002424487E4943662B2FFC2F2BFF0929F65C
:100DC00020C0887E090320545479410000447D41AD
:100DD0003048484A32384040227A007A0A0A727D06
:100DE0000D19317D2629292F282629292926304821
:100DF0004D4020380808080808080808382F10C88F
:100E0000ACBA2F102834FA00007B000008142A1412
:100E10002222142A1408AA005500AAAA55AA55AAE3
:100E2000000000FF00101010FF00141414FF001049
:100E300010FF00FF1010F010F0141414FC00141434
:100E4000F700FF0000FF00FF1414F404FC14141753
:100E5000101F10101F101F1414141F00101010F07A
:100E6000000000001F101010101F10101010F010C4
:100E7000000000FF101010101010101010FF1000D4
:100E80000000FF140000FF00FF00001F101700000B
:100E9000FC04F414141710171414F404F40000FFE5
:100EA00000F714141414141414F700F7141414177E
:100EB0001410101F101F141414F4141010F010F05C
:100EC00000001F101F0000001F14000000FC140091
:100ED00000F010F01010FF10FF141414FF14101085
:100EE000101F00000000F010FFFFFFFFFFF0F0F008
:100EF000F0F0FFFFFF0000000000FFFF0F0F0F0FDB
:100F00000F38444438447C2A2A3E147E02020606E6
:100F1000027E027E0263554941633844443C0440EA
:100F20007E201E2006027E020299A5E7A5991C2AB2
:100F3000492A1C4C7201724C304A4D4D3030487871
:100F40004830BC625A463D3E494949007E01010194
:100F50007E2A2A2A2A2A44445F444440514A444073
:100F600040444A51400000FF0103E080FF000008B8
:100F7000086B6B083612362436060F090F06000080
:100F800018180000001010003040FF0101001F0180
:100F9000011E00191D1712003C3C3C3C00000000E3
:100FA0000000000008000201000003040700000028
:100FB000000000000001020408102040800102042B
:100FC000081020010204081020040404040404048E
:100FD00004020202020202030303030303000000EF
:100FE0000023002600290000000000250028002B17
:100FF0000000000000240027002A000081100718CC
:10100000821D11241FBECFEFD8E0DEBFCDBF14E09C
:10101000A0E0B1E0E0E1F0E402C005900D92A6345A
:10102000B107D9F728E0A6E4B4E001C01D92A731CA
:10103000B207E1F71FE0C2E0D0E104C02297FE0151
:101040000E94D21FCC3FD107C9F70E943B1F0C94CE
:1010500006200C940000AF92BF92CF92DF92EF92E5
:10106000FF920F931F93809164008E7F80936400A2
:1010700082E10E94A41ABC01809164008160809387
:101080006400882777FD8095982F1F921F9221E09A
:101090002F9324EF2F93A12CB12C6501EE24EA9419
:1010A00013E0F12E00E010E020E030E0A9010E9402
:1010B000F31E2091040130910501CB010F900F9098
:1010C0000F900F90261737070CF4C9011F910F914D
:1010D000FF90EF90DF90CF90BF90AF9008958091F8
:1010E00064008E7F809364008EE480937C006AE0CD
:1010F00070E080E090E00E94411A80917A00806464
:1011000080937A0080917A0086FDFCCF2091780050
:101110008091790030E0382B442737FD4095542FDB
:1011200060E070E381E190E00E94B11F8091640073
:10113000816080936400C90108950F931F93CF933A
:10114000DF9327E147E160E285E796E00E94E8133C
:10115000C0914B04D0E0CD30D1050CF02C9780919C
:10116000490490E0880F991FFC01E651FD4FDC0116
:10117000AE59BC4F00812C9147E160E285E796E0D3
:101180000E949D1280914A0490E0880F991FFC01F3
:10119000E651FD4FDC01AE59BC4F00812C9147E177
:1011A00060E285E796E00E949D12CC0FDD1FFE01F4
:1011B000E652FC4F1081CC50DC4FC881012F2C2F00
:1011C00047E160E285E796E00E949D1221E02C0F46
:1011D00047E161E285E796E00E949D12CAEDD3E007
:1011E00004EF13E048812296F80160810E5F1F4FE3
:1011F00085E796E00E942412F3E0C23FDF0791F7F3
:1012000043E06EE185E796E00E94241244E06EE13F
:1012100085E796E00E94241245E06EE185E796E0BE
:101220000E94241246E06EE185E796E00E942412B7
:1012300043E060E285E796E00E94241243E061E229
:1012400085E796E00E94241244E061E285E796E09B
:101250000E94241245E060E285E796E00E94241295
:1012600046E061E285E796E00E94241246E062E2F1
:1012700085E796E00E94241245E161E385E796E068
:101280000E94241245E162E385E796E00E94241261
:1012900046E162E385E796E00E94241247E161E3BC
:1012A00085E796E00E94241248E162E385E796E034
:1012B0000E94241249E161E385E796E00E9424122E
:1012C00049E162E385E796E00E94241249E260E288
:1012D00085E796E00E9424124AE26FE185E796E0F6
:1012E0000E9424124BE26EE185E796E00E942412F0
:1012F0004BE26FE185E796E00E9424124CE26EE13A
:1013000085E796E00E9424124CE26FE185E796E0C3
:101310000E9424124CE260E285E796E00E942412CB
:101320004DE26FE185E796E00E94241245E16EE010
:1013300085E796E00E94241246E16DE085E796E09D
:101340000E94241246E16FE085E796E00E94241295
:1013500047E16EE085E796E00E94241247E16FE0E6
:1013600085E796E00E94241248E16EE085E796E06A
:101370000E94241249E16DE085E796E0DF91CF916C
:101380001F910F910C942412209147048C589A407D
:10139000222319F062E170E002C06DE270E00E9469
:1013A0007B1F862F0895EFE4F4E080E2819394E0C0
:1013B000E138F907D9F7089560E083E00E94491BFE
:1013C00060E084E00E94491B60E082E10E94491BCA
:1013D00061E085E00E94491B61E086E00E94491BB4
:1013E00061E08FE00E94491B61E080E10E94491B9F
:1013F00061E083E00E94821B61E084E00E94821B26
:1014000026E040E855E260E070E08AE797E00E945D
:10141000C41C8091640088608093640080916400A3
:101420008064809364008091640081608093640094
:10143000809164008068809364000E946F0821E0BE
:1014400088349D400CF020E02093470485E796E027
:101450000E942A1461E085E796E00E94801185E7EA
:1014600096E00E94AF110C94D3098F3991F0843A21
:1014700091F0863B91F08C3B91F0843891F0863965
:1014800091F08C3991F08B3A91F08B3B91F48FEA8B
:1014900010C080EE089584E8089584E9089581E8F5
:1014A00008958EE8089589E908958AE908958EEAF5
:1014B00008950895809148048F5F809348048A308E
:1014C00070F16AE00E945B1F282F80914904820F0F
:1014D00080934904909348048C3350F06CE30E944D
:1014E0005B1F20914A04280F20934A0490934904DB
:1014F00080914A048C3350F06CE30E945B1F209172
:101500004B04280F20934B0490934A0480914B0482
:10151000883128F068E10E945B1F90934B04089586
:1015200062E085E796E00E94F2134CE060E085E718
:1015300096E00E94E01180914B048A3030F461EB18
:1015400072E085E796E00E94031E4AE050E0609159
:101550004B0485E796E00E94EC1E61E085E796E08B
:101560000E94F2134DE068E185E796E00E94E011E9
:1015700061ED72E085E796E00E94031E62E085E778
:1015800096E00E94F2134CE060E285E796E00E944C
:10159000E01180914A048A3030F461EB72E085E713
:1015A00096E00E94031E4AE050E060914A0485E7FD
:1015B00096E00E94EC1E60E085E796E00E94F21340
:1015C00040E261E185E796E00E94E01180914904E4
:1015D0008A3030F461EB72E085E796E00E94031EEA
:1015E0004AE050E06091490485E796E00E94EC1ED5
:1015F00063EB72E085E796E00E94031E4AE050E04C
:101600006091480485E796E00C94EC1E0F93CF930D
:101610000E946F080E94C409C82F4DE06CE385E763
:1016200096E00E9424124DE06DE385E796E00E946B
:10163000241280914704811112C043E269E385E7D7
:1016400096E00E9424124AE168E385E796E00E9452
:1016500024124AE169E385E796E00E94241202E23F
:1016600026E04EE06AE385E796E00E94FD1240E343
:101670004C1B0C2F26E06AE385E796E00E94451399
:10168000CF910F910895CF92DF92EF92FF920F9337
:101690001F93CF93DF936C017A016034710510F5CD
:1016A00040335105F8F48B01095F1F4FC0E0D0E0D3
:1016B000F601208130E00C2E02C0359527950A9462
:1016C000E2F720FF09C00034110530F44E2D602FE1
:1016D00085E796E00E942412219601501109C83036
:1016E000D10531F7DF91CF911F910F91FF90EF90CE
:1016F000DF90CF900895CF92DF92EF92FF920F93F9
:101700001F93CF93DF936C017B016034710510F55B
:1017100040335105F8F48A01095F1F4FC0E0D0E063
:10172000F601208130E00C2E02C0359527950A94F1
:10173000E2F720FF09C00033110530F4402F6E2D71
:1017400085E796E00E942412219601501109C830C5
:10175000D10531F7DF91CF911F910F91FF90EF905D
:10176000DF90CF9008950F931F93CF93DF9360E0A6
:1017700085E796E00E9480110091AE061091AF06B9
:10178000C8010E94F01FCAEAD6E08883C80101960A
:101790000E94F01F898340E060E085E796E00E94A8
:1017A000E01165EB72E085E796E00E94101E6DEB9C
:1017B00072E085E796E00E94031E68EC72E085E720
:1017C00096E00E94101E6091AA067091AB064AE056
:1017D00050E085E796E00E94D71E85E796E00E94DC
:1017E000AF1168EB7BE080E090E00E94411A8091AD
:1017F0004804825E80934804DF91CF911F910F913E
:101800000895EF92FF920F931F93CF93DF931F9250
:10181000CDB7DEB78091AC069091AD062091AA06B7
:101820003091AB06281739070CF442C060E080E124
:101830000E94821B65E070E085E00E94C11A40E0D2
:1018400060E085E796E00E94E01161EB72E085E7D9
:1018500096E00E94031E46E160E085E796E00E9464
:10186000E01163ED72E085E796E00E94101E85E7C7
:1018700096E00E94AF116CED75E080E090E00E9470
:10188000411A60E085E00E94821B60ED77E080E015
:1018900090E00E94411A809148048D5D8093480435
:1018A0000F90DF91CF911F910F91FF90EF900895CE
:1018B0009093AB068093AA06E090AE06F090AF0638
:1018C0000AEA16E0F80161918F01C70169830E945D
:1018D000F01F6981681719F0C7010E94F81FFFEF18
:1018E000EF1AFF0A86E00C3A180761F79FCFCF92F4
:1018F000DF92EF92FF920F931F93CF93DF93CDB7B9
:10190000DEB72A970FB6F894DEBF0FBECDBF9AE0C0
:10191000EFE8F2E0DE01119601900D929A95E1F761
:101920006E019BE0C90ED11C8E010F5F1F4FE82E88
:10193000F12CE01AF10AA701400F511F62E070E09C
:10194000C8010E94430B0F5F1F4F0C151D0599F72F
:101950002A960FB6F894DEBF0FBECDBFDF91CF91B0
:101960001F910F91FF90EF90DF90CF900895EF922D
:10197000FF920F931F93CF93DF93CDB7DEB72C97D2
:101980000FB6F894DEBF0FBECDBF8CE0E9E9F2E000
:10199000DE01119601900D928A95E1F700E010E0CA
:1019A0006AE1E62EF12CB701601B710B46E250E0B4
:1019B00081E090E08C0F9D1F800F911F0E947B0B98
:1019C0000F5F1F4F0C30110571F72C960FB6F8946E
:1019D000DEBF0FBECDBFDF91CF911F910F91FF9062
:1019E000EF9008950F931F93CF93DF9300D0CDB75F
:1019F000DEB798E3998394E29A83082F10E0A80158
:101A000062E070E0CE0101960E94430BA8014F5F97
:101A10005F4F62E070E0CE0102960E94430B0F9090
:101A20000F90DF91CF911F910F9108950F931F9306
:101A3000CF93DF9300D0CDB7DEB798E7998398E0D6
:101A40009A83082F10E0A80162E070E0CE010196B1
:101A50000E94430BA8014F5F5F4F62E070E0CE0130
:101A600002960E94430B0F900F90DF91CF911F9130
:101A70000F9108950F931F93CF93DF9300D0CDB7AD
:101A8000DEB790E3998398E29A83082F10E0A801CB
:101A900062E070E0CE0101960E94430BA8014F5F07
:101AA0005F4F62E070E0CE0102960E94430B0F9000
:101AB0000F90DF91CF911F910F910895EF92FF92B8
:101AC0000F931F93CF93DF93CDB7DEB72C970FB64D
:101AD000F894DEBF0FBECDBF7C018CE0E5EAF2E0FA
:101AE000DE01119601900D928A95E1F700E010E079
:101AF000A8014F5D5F4FF7016081718181E090E047
:101B00008C0F9D1F800F911F0E94430B0F5F1F4F73
:101B10000C30110569F72C960FB6F894DEBF0FBE96
:101B2000CDBFDF91CF911F910F91FF90EF9008955E
:101B30004F925F926F927F928F929F92AF92BF92DD
:101B4000CF92DF92EF92FF920F931F93CF93DF9389
:101B500000D0CDB7DEB71092AD061092AC0686E489
:101B600090E09A8389830E94B30B812C912C78E3B7
:101B7000C72ED12CE12CF12CE3E0AE2EB12CF6E4F3
:101B80004F2E512CA3E06A2E712C8091AC069091BF
:101B9000AD0601969093AD068093AC0660E085E7B4
:101BA00096E00E94801140E060E085E796E00E94A8
:101BB000E0114AE050E0B50185E796E00E94D71EAB
:101BC0006EED72E085E796E00E94031E6091AC0620
:101BD0007091AD064AE050E085E796E00E94D71E7E
:101BE000C114D10419F468E3C62ED12C4AE06C2D3F
:101BF00085E796E00E94E01161EE72E085E796E0ED
:101C00000E94031E8091AC0680FD03C021E0C21A31
:101C1000D1080DE22FE34DE260E085E796E00E94F7
:101C20009D1289819A81893F9F4F14F45A8249827B
:101C3000CE0101960E945E0D89819A8102979A8356
:101C400089830697D9F58DE0E816F1046CF521E05B
:101C5000A21AB1080E94B70C85E796E00E94AF1166
:101C600060E080E10E94821B68E770E085E00E94EE
:101C7000C11A64EF71E080E090E00E94411A60E2D6
:101C800070E085E00E94C11A64EF71E080E090E0AE
:101C90000E94411A60E085E00E94821B8091480406
:101CA000865F809348043CC08091AC069091AD065D
:101CB0008E0D9F1D9093AD068093AC061E2D80E285
:101CC0008E190E94770C8091AC069091AD06B301FD
:101CD0000E947B1F892B21F48AE28E190E94F20C4C
:101CE0008091AC069091AD060196B3010E947B1FD6
:101CF000892B21F48AE2811B0E94160D8091AC068B
:101D00009091AD060296B3010E947B1F892B21F4AE
:101D10008AE2811B0E943A0D85E796E00E94AF118E
:101D20008091AC069091AD06813A2FE0920794F431
:101D3000893B2BE092078CF48D3D25E0920784F4DB
:101D4000893E23E092077CF4853F91407CF062E37A
:101D500070E00EC06AE070E00BC064E170E008C0A3
:101D60006EE170E005C068E270E002C066E470E019
:101D7000860E971E882777FD8095982F0E94411A1E
:101D800085E68816910424F00E945A0A812C912C31
:101D9000F7013197EF30F10508F04CC0EC5CFF4FD4
:101DA0000C94D01F5EE0E52EF12C4FC06CE370E088
:101DB00085E00E94C11A61E080E10E94821B47E039
:101DC000E42EF12C42C061E470E085E00E94C11A6B
:101DD0003DE0E32EF12C39C065E570E085E00E941E
:101DE000C11A2FE0E22EF12C30C06FE570E085E0E3
:101DF0000E94C11A9CE0E92EF12C27C060E085E02A
:101E00000E94821B89E0E82EF12C1FC008E0E02E22
:101E1000F12C1BC016E0E12EF12C17C0B4E0EB2E24
:101E2000F12C13C060E080E10E94821BA2E0EA2E48
:101E3000F12C0BC0E114F10441F484E00E94B81BC2
:101E4000892B21F5EE24E394F12C1A141B040CF4D5
:101E50009CCE0E94010C0F900F90DF91CF911F91AB
:101E60000F91FF90EF90DF90CF90BF90AF909F9039
:101E70008F907F906F905F904F900895EBE0EE2EE3
:101E8000F12CE3CF7AE0E72EF12CDFCFE12CF12C1F
:101E9000DCCF1F93CF93DF936DE570E080E090E09F
:101EA0000E94411A84E00E94B81B892B09F069C086
:101EB0006CE271E080E090E00E94411A8091480459
:101EC0008D5F8093480484E00E94B81B892B09F041
:101ED00058C010924C046FEA85E796E00E94011109
:101EE000C8E2D0E011E060E085E796E00E94801152
:101EF0000E945A0A83E00E94B81B892B29F4809122
:101F0000460481278093460480914604882319F073
:101F10000E949D0802C00E94900A0E94060B85E75D
:101F200096E00E94AF116AE570E080E090E00E94C8
:101F3000411A2197C1F66EEA85E796E00E940111E9
:101F400084E00E94B81B892BE1F463EE72E08AE71B
:101F500097E00E94101E6FEA85E796E00E9401114B
:101F6000809164008E7F809364000E94980D809120
:101F700064008160809364006EEA85E796E00E94C9
:101F8000011183E00E94B81B892BF9F46CE271E027
:101F900080E090E00E94411A809148048D5F809318
:101FA000480483E00E94B81B892B79F410924C04FA
:101FB0001092810482E390E09093050180930401E4
:101FC0006EE78AE797E00E94221E809104019091BB
:101FD0000501833391050CF460C020914D043091CC
:101FE0004E04232BD1F520918104233241F520E2C8
:101FF0002093810420918304205330918204305334
:102000004AE0349F200D112420934B042091860434
:1020100020533091850430534AE0349F200D112421
:1020200020934A042091890420533091880430532E
:102030004AE0349F200D1124209349040EC025321C
:1020400061F42091820420934C04211102C010926B
:10205000810490934E0480934D0420914D0430915F
:102060004E0482179307CCF060E085E796E00E946B
:10207000801140E060E085E796E00E94E011609109
:102080004D0470914E04615B7B4F85E796E00E94A2
:10209000031E85E796E00E94AF1120914D04309118
:1020A0004E0480910401909105012817390769F4C5
:1020B0006EEA85E796E00E9401111092810482E3A6
:1020C00090E0909305018093040180914C04882353
:1020D00069F08091480469E00E945B1F911102C081
:1020E00061E001C060E08FE00E94821B0E942B082B
:1020F00090934E0480934D04DF91CF911F910C94E7
:102100005A0A2AE048E069E085E796E00C94F4106A
:10211000CF93DF938AE797E00E94E11B892B59F167
:102120008AE797E00E94FA1B9EE3980F923090F3A3
:102130008A3089F46FEA85E796E00E940111E09108
:102140000401F0910501E15BFB4F108210924E04F7
:1021500010924D04DFCFC0910401D09105010E947F
:10216000350AFE01E15BFB4F80832196D093050188
:10217000C0930401CFCFDF91CF910895CF93CFB714
:10218000F8948091B006811127C0E3EDFFE08491BF
:10219000EFEBFFE09491E82FF0E0EE0FFF1FEF5020
:1021A000F04FA591B4918C91892321F461E08AE0EC
:1021B0000E94821B61E08AE00E94491B8CB580610D
:1021C0008CBD8CB580648CBD61E08DE00E94491BA4
:1021D00061E08BE00E94491B8091B0068F5F809385
:1021E000B006CFBFCF910895FC011382128282E125
:1021F00094E091838083668345832483148E138EB9
:102200000895CF93DF93EC018B8D9C8D0097C1F4E3
:10221000E8A1F9A1908189A5809589238083EE8D1D
:10222000FF8D908188A5809589238083CE010E94AF
:102230003716EE8DFF8D808198A5892B808313C082
:102240008130910541F4262F40E06D8DCE01DF9164
:10225000CF910C942717029731F440E0CE01DF9123
:10226000CF910C94DC16DF91CF910895CF93DF933B
:10227000EC018B8D9C8D0097B9F4E8A1F9A18081C8
:1022800099A5892B8083EE8DFF8D908188A58095FF
:1022900089238083CE010E943716EE8DFF8D8081C9
:1022A00098A5892B808313C08130910541F4262F96
:1022B00040E46D8DCE01DF91CF910C9427170297EA
:1022C00031F441E0CE01DF91CF910C94DC16DF9127
:1022D000CF910895606B0C9401111F93CF93DF93FE
:1022E000EC01162F62956F7060616E5F0E940111A4
:1022F000612F6F70CE01DF91CF911F910C9401116E
:10230000FF920F931F93CF93DF93EC016130B9F4E9
:10231000F12C6F2DCE010E946A1160E0CE010E9467
:102320006D1100E810E060E0CE010E94361101500E
:102330001109C9F7F39428E0F212EBCF0AC080E844
:1023400091E0E6E0F1E0DF019C011D922150304078
:10235000E1F7DF91CF911F910F91FF900895DF92E8
:10236000EF92FF920F931F93CF93DF938C0186E040
:10237000E82E81E0F82ED12C6D2DC8010E946A1143
:1023800060E0C8010E946D11C0E0D0E0F701EC0FE1
:10239000FD1F6081C8010E9436112196C034D1050D
:1023A000A9F7D39480E4E80EF11C86E0D812E4CFBC
:1023B000DF91CF911F910F91FF90EF90DF900895E3
:1023C000FC0161AB42AB08950F936034D8F5403304
:1023D000C8F50130C9F42130A9F5E42FE695E6955A
:1023E000E69580E4E89FF0011124E60FF11DEA5F15
:1023F000FE4F477081E090E0042E01C0880F0A94E0
:10240000EAF7908198271DC0842F8695869586953A
:10241000E62FF0E0477090E4899FE00DF11D112454
:10242000EA5FFE4F81E090E0042E01C0880F0A941D
:10243000EAF7213019F49081982B03C080959081A0
:10244000982390830F9108950F93FC0103A522A573
:102450000E94E4110F9108957F928F929F92AF9204
:10246000BF92CF92DF92EF92FF920F931F93CF9381
:10247000DF93EC01162FF42ED22EA02FB0E0A41B78
:10248000B109B7FF03C0B195A195B109ED2DF0E0F9
:10249000E11BF109F7FF03C0F195E195F109AA24C9
:1024A000A394EA17FB0714F0A12C06C09D2DD02E93
:1024B000092F912F1F2DF92ED11630F49F2DF02EBC
:1024C000092F912F1D2DD92E9D2C911AE02FF0E070
:1024D000EF19F109F7FF03C0F195E195F1097E2E9F
:1024E000B92CB694F01618F48824839412C088246A
:1024F0008A940FC00C2D2E2DAA2071F0412F6F2D24
:10250000CE010E94E411B718B7FE02C0F80CB90C56
:102510001F5F1D1578F303C04F2D612FF1CFDF91A1
:10252000CF911F910F91FF90EF90DF90CF90BF90D0
:10253000AF909F908F907F900895CF92EF920F93DE
:10254000FC01C3A4E2A40E942C120F91EF90CF9043
:102550000895CF92EF920F93260FCE2CE02E042FEA
:102560000E942C120F91EF90CF900895CF92EF928E
:102570000F93240FCE2CE02E022F262F0E942C1218
:102580000F91EF90CF900895AF92BF92CF92DF92CC
:10259000EF92FF920F931F93CF93DF93EC01F62EF0
:1025A000B42ED22EA02E1E2DEC2C012F0E94A9128B
:1025B0004FEF4A0D4B0D2D2D6F2DCE010E94A9120C
:1025C000AA94AA9479F0B3942A2D4B2D6F2DCE01A5
:1025D0000E94B6126FEF6D0D6F0D2A2D4B2DCE019F
:1025E0000E94B612DF91CF911F910F91FF90EF9053
:1025F000DF90CF90BF90AF900895CF92EF920F935E
:10260000FC01C3A4E2A40E94C4120F91EF90CF90EA
:1026100008955F926F927F928F929F92AF92BF9236
:10262000CF92DF92EF92FF920F931F93CF93DF939E
:102630004C01162FF42ED02E5E2CA62EB12CC0E00D
:10264000D0E03501620E711CCE018A0D9B1D8615EE
:1026500097055CF46C2F610FEC2C052D2D2D4F2D63
:10266000C4010E94B6122196EFCFDF91CF911F9146
:102670000F91FF90EF90DF90CF90BF90AF909F9021
:102680008F907F906F905F900895CF92EF920F930D
:10269000FC01C3A4E2A40E9409130F91EF90CF9014
:1026A00008956F927F928F929F92AF92BF92CF9236
:1026B000DF92EF92FF920F931F93CF93DF93EC0182
:1026C000D62EC42E102FAA24A394A21A922E91942F
:1026D000990CF22E422F4C0D0E2D212F0E94E41149
:1026E0004C2D4F19212F6D2DCE010E94E4116F2D1D
:1026F0006D0D212F4C2DCE010E94E4116D2D6F190F
:10270000212F4C2DCE010E94E411BB24B3948FEFF6
:102710008B0D8F150CF04DC0A7FC04C0FA94939458
:102720009394A90C8B2D880F8F5FA80E6B2C6D0CCA
:102730000E2D212F7F2C7C0C472D662DCE010E9463
:10274000E4118D2C8B18212F472D682DCE010E946E
:10275000E411212F7C2C7F18472D662DCE010E947D
:10276000E411212F472D682DCE010E94E4118B2CFE
:102770008C0C212F482D6F2C6D0C662DCE010E94E4
:10278000E411212F482D8D2C8F18682DCE010E9429
:10279000E4117C2C7B18212F472D662DCE010E9441
:1027A000E411212F472D682DCE010E94E411B3942E
:1027B000AECFDF91CF911F910F91FF90EF90DF90FF
:1027C000CF90BF90AF909F908F907F906F90089523
:1027D000EF920F93FC01E3A402A50E9451130F9105
:1027E000EF900895DC01643008F032C09E966C933F
:1027F0009E97E62FF0E0EE0FFF1FEA57FD4F808116
:102800009181FC0124919C962C939C973196E491A4
:102810009D96EC939D97FC013296E4919F96EC93E4
:102820009F97FC013396E491D096EC93D097FC01EE
:10283000349624913196849190E0F4E62F9F800D98
:10284000911D1124D4969C938E93D39781E0089583
:1028500080E00895CF93DF93EC0160E00E94F213D3
:1028600081E08AA71BA619AA1AAA8D81682F70E099
:10287000AB014753504FFA01249130E0220F331F30
:102880002951304FF901A591B491B9A3A8A3FB0137
:10289000EB54F04F649169A7FA014491E42FF0E002
:1028A000EE0FFF1FEF50F04F259134913DA32CA365
:1028B00061E00E94491B61E08E810E94491B8B8D63
:1028C0009C8D009721F4CE010E94F1150CC081303F
:1028D000910521F4CE010E943E1605C0029719F41D
:1028E000CE010E94461661E08E810E94491B61E084
:1028F0008E810E94821B65E070E080E090E00E9483
:10290000411A60E08E810E94821B6AE070E080E0E4
:1029100090E00E94411A61E08E810E94821B6EEA63
:10292000CE010E94011165EDCE010E94011160E807
:10293000CE010E94011168EACE010E9401116FE2EE
:10294000CE010E94011163EDCE010E94011160E0F1
:10295000CE010E94011160E4CE010E9401116DE8D8
:10296000CE010E94011164E1CE010E94011166EACC
:10297000CE010E94011164EACE010E94011161EAB8
:10298000CE010E94011168ECCE010E9401116AED96
:10299000CE010E94011162E1CE010E94011161E8A5
:1029A000CE010E9401116FE8CE010E94011169ED74
:1029B000CE010E94011161EFCE010E9401116BED69
:1029C000CE010E94011160E4CE010E9401116FEA64
:1029D000CE010E94011161E0CE01DF91CF910C94F4
:1029E00080115F926F927F928F929F92AF92BF926F
:1029F000CF92DF92EF92FF920F931F93CF93DF93CB
:102A0000EC01162FB42EF02E3FA5231708F4B0C00A
:102A100068A970E0630F711D822F90E086179707F9
:102A20000CF0A6C0D22ED31A9DA496949694969498
:102A300081E08915C0F1C12E3C2D311B2CA5822FC0
:102A400090E0A32FB0E08A179B070CF491C03217D7
:102A500091F0EEA5F0E0EE0FFF1FEA57FD4FD29E7A
:102A6000A00DB11D112416960190F081E02DEA0F02
:102A7000FB1F949001C0912CA12C4A2D4B0D90FE70
:102A800003C00E2D2F2D04C021E0F11020E00E2DEB
:102A90006C2DCE010E94E4119694A39488E0A812B4
:102AA000ECCFC394C9CFEBA9FCA92CA530E0CF0192
:102AB000B9010E94671F8D2D90E00E94671F829FC1
:102AC0006001839FD00C929FD00C11249E9E900198
:102AD0009F9E300D1124269FC001279F900D369F89
:102AE000900D1124C80ED91E742EA12CB12C86E095
:102AF000C80ED11C812E482D411B8CA5481780F58E
:102B0000EEA5F0E0EE0FFF1FEA57FD4F2BA93CA901
:102B1000A29EC001A39E900DB29E900D11248C0D1B
:102B20009D1D840F911D0190F081E02DE80FF91F8C
:102B30005490612C462D470D50FE03C00E2D2F2DB5
:102B400004C021E0F11020E00E2D682DCE010E947E
:102B5000E4115694639488E06812ECCF8394CBCF51
:102B60008FEFA81AB80A88E0780EA91408F4C2CF2B
:102B7000DF91CF911F910F91FF90EF90DF90CF9059
:102B8000BF90AF909F908F907F906F905F900895CF
:102B9000EF920F93CF93DF93EC01262F6A30A9F0C9
:102BA0006D30C1F0EBA40AA54AA969A90E94F114ED
:102BB0004CA529A9240F2F5F29AB30E080E490E0D9
:102BC000841B9109821793072CF48AA99DA5890F6C
:102BD0008AAB19AA81E090E0DF91CF910F91EF903D
:102BE0000895CF93DF93EC014C8150E09A01275375
:102BF000304FF901849190E0880F991F8951904FCF
:102C0000FC01659174917F8F6E8FFA01EB54F04F48
:102C1000449148A7F9012491E22FF0E0EE0FFF1F45
:102C2000EF50F04F859194919BA38AA361E08BE0D4
:102C30000E94491B61E08DE00E94491B61E08C818C
:102C40000E94491B61E08C810E94821B8CB58C7FA5
:102C50008CBD8DB581608DBD8CB5837F8CBD61E0F1
:102C60008AE00E94491BDF91CF910C94BE106EBD8B
:102C700000000DB407FEFDCF8EB5089581EB96E000
:102C80000E94DD1787E08093B80008950F931F938B
:102C9000CF93DF93EC014C8150E09A012753304FE2
:102CA000F901849190E0880F991F8951904FFC01A0
:102CB000659174917F8F6E8FFA01EB54F04F4491C0
:102CC00048A7F9012491E22FF0E0EE0FFF1FEF502B
:102CD000F04F859194919BA38AA38F81682F70E018
:102CE000AB014753504FFA01249130E0220F331FBC
:102CF0002951304FF901A591B491BA8BA98BFB01F1
:102D0000EB54F04F6491698FFA014491E42FF0E0A5
:102D1000EE0FFF1FEF50F04F259134913C8B2B8B22
:102D2000688570E0AB014753504FFA01249130E0C1
:102D3000220F331F2951304FF901A591B491BE8B59
:102D4000AD8BFB01EB54F04F64916A8FFA01449113
:102D5000E42FF0E0EE0FFF1FEF50F04F259134917C
:102D6000388F2F8B61E00E94491B61E08F810E94A8
:102D7000821B61E088850E94491B61E088850E9472
:102D8000821B61E08C810E94491B61E08C810E9462
:102D9000821B00E010E0FE01E00FF11F61E0818581
:102DA0000E94491B0F5F1F4F08301105A1F7DF91EB
:102DB000CF911F910F910895CF92DF92EF92FF92E2
:102DC0000F931F93CF93DF931F92CDB7DEB76C01A4
:102DD000E62E60E0FC01848149830E94821B4981C8
:102DE000642FF60185810E94821B60E0F6018781D5
:102DF0000E94821B00E010E0F12CF601E00FF11FB1
:102E0000C701002E02C0959587950A94E2F780FFCE
:102E100002C061E001C060E081850E94821B0F5FFB
:102E20001F4F0830110549F761E0F60187810E94C4
:102E3000821B61E0F60184810F90DF91CF911F9199
:102E40000F91FF90EF90DF90CF900C94821BCF9367
:102E5000DF9300D0CDB7DEB781EB96E02A834983BC
:102E60000E94E7174981642F81EB96E00E949E172C
:102E70002A81622F81EB96E00E949E1781EB96E0FB
:102E80000F900F90DF91CF910C9404188091E10680
:102E900090E02091E206821B910908952091E206BC
:102EA0008091E106281750F4E22FF0E0ED51F94F40
:102EB000808190E02F5F2093E20608958FEF9FEFCF
:102EC0000895E091E2068091E106E81730F4F0E021
:102ED000ED51F94F808190E008958FEF9FEF0895B5
:102EE0000895CF92DF92EF92FF920F931F93CF93AB
:102EF000DF937C01CB018A012091BD06222389F05A
:102F0000EB016B01C40ED51ECC15DD0569F069918E
:102F1000D701ED91FC910190F081E02DC701099559
:102F2000F3CF642F0E948018C801DF91CF911F91C9
:102F30000F91FF90EF90DF90CF900895CF93DF93A4
:102F40001F92CDB7DEB769832091BD062223D1F051
:102F50002091BE06203240F021E030E0FC013383B6
:102F6000228380E090E015C08091BF06E82FF0E05A
:102F7000E054F94F998190838F5F8093BF068093CF
:102F8000BE0605C061E0CE0101960E94801881E076
:102F900090E00F90DF91CF910895FC01138212828F
:102FA00048EE53E060E070E04483558366837783A6
:102FB0008AE194E09183808308951092E206109252
:102FC000E1061092BF061092BE060C940B1881E029
:102FD0008093BD066093E0061092BF061092BE0675
:102FE00008950F93062F21E04091BE0660EC76E035
:102FF0008091E0060E9429181092BF061092BE062A
:103000001092BD060F91089561E00C94F11781EBC9
:1030100096E00C94CD171092700781E080936E07B4
:1030200010926D0761E082E10E94821B61E083E102
:103030000E94821BE9EBF0E080818E7F808380819B
:103040008D7F808384E38093B80085E48093BC0007
:1030500008950F93413208F04AC090917007911182
:10306000FCCF92E09093700700936E079FEF9093D0
:1030700003071092480740934707FB0169E477E094
:10308000DB019A2F961B941718F491919D93F9CF19
:1030900010926F0790916F07880F892B80936F07AD
:1030A00080916D07813061F410926D0780916F07F8
:1030B0008093BB008091BC0083FDF8CF85EC01C0FC
:1030C00085EE8093BC00222321F08091700782302E
:1030D000E1F3809103078F3F61F080910307803215
:1030E00051F080910307803341F483E007C081E011
:1030F00005C080E003C082E001C084E00F91089524
:10310000613298F420917007243089F46093250788
:10311000FC0187E297E0DC012A2F281B261718F410
:1031200021912D93F9CF80E0089581E0089582E008
:10313000089585ED8093BC008091BC0084FDFCCF98
:1031400010927007089585EC8093BC001092700770
:1031500008951F920F920FB60F9211242F933F9351
:103160004F935F936F937F938F939F93AF93BF938F
:10317000EF93FF938091B900887F803609F49EC059
:1031800078F5883209F45DC090F4803109F456C0B6
:1031900038F4882309F4F5C0883009F44FC0F5C02D
:1031A000883109F44EC0803209F45FC0EEC080342B
:1031B00009F46AC058F4803309F457C0883309F021
:1031C000E4C0809303070E94A318DFC0803509F490
:1031D0004FC0883509F45DC0883409F0D6C0D3C02B
:1031E000883909F4C4C0A8F4883709F467C038F4F2
:1031F000883609F463C0803709F460C0C6C08838D7
:1032000009F4B5C0803909F45FC0803809F0BDC049
:103210005BC0803B09F483C038F4803A09F466C08F
:10322000883A09F47CC0B1C0803C09F4A4C0883C51
:1032300009F4A1C0883B09F487C0A7C080916F073B
:1032400010C09091480780914707981770F5E0915A
:10325000480781E08E0F80934807F0E0E75BF84F66
:1032600080818093BB0085EC83C0809303078BC073
:10327000E091480781E08E0F809348078091BB0062
:10328000F0E0E75BF84F8083909148078091470713
:103290006BC0E091480781E08E0F809348078091D2
:1032A000BB00F0E0E75BF84F808380916E078111EF
:1032B0006AC081E080936D0784EA5EC083E08093FA
:1032C000700710920407CFCF80910407803208F076
:1032D0004EC0E091040781E08E0F80930407809137
:1032E000BB00F0E0EB5FF84F8083BDCF0E94A318D6
:1032F00080910407803230F4E0910407F0E0EB5F46
:10330000F84F10826091040770E0E0916907F09136
:103310006A0785E097E009951092040736C084E0BB
:10332000809370071092260710922507E0916B0793
:10333000F0916C07099580912507811105C081E006
:103340008093250710922707E091260781E08E0FD2
:1033500080932607F0E0E95DF84F80818093BB0001
:103360009091260780912507981708F47CCF85E86F
:103370008093BC000AC085EC8093BC00109270075B
:1033800004C0109203070E949918FF91EF91BF911A
:10339000AF919F918F917F916F915F914F913F91ED
:1033A0002F910F900FBE0F901F9018951F920F92A4
:1033B0000FB60F9211242F933F938F939F93AF9348
:1033C000BF938091720790917307A0917407B09199
:1033D0007507309171072DE2230F2D3720F40196E8
:1033E000A11DB11D05C020EB230F0296A11DB11D2B
:1033F000209371078093720790937307A0937407CB
:10340000B09375078091760790917707A091780720
:10341000B09179070196A11DB11D80937607909315
:103420007707A0937807B0937907BF91AF919F91E9
:103430008F913F912F910F900FBE0F901F90189575
:103440009FB7F8944091760750917707609178077D
:103450007091790786B5A89B06C08F3F21F04F5F1A
:103460005F4F6F4F7F4F9FBF2227342F452F562F1F
:10347000280F311D411D511DA5E0B0E00E94D61F4F
:103480000895CF92DF92EF92FF92CF93DF936B017B
:103490007C010E94201AEB01C114D104E104F10463
:1034A00089F00E944A1F0E94201A6C1B7D0B683E07
:1034B000734090F381E0C81AD108E108F108C851BF
:1034C000DC4FEACFDF91CF91FF90EF90DF90CF906C
:1034D0000895789484B5826084BD84B5816084BD8C
:1034E00085B5826085BD85B5816085BDEEE6F0E07D
:1034F000808181608083E1E8F0E0108280818260D9
:103500008083808181608083E0E8F0E08081816059
:103510008083E1EBF0E0808184608083E0EBF0E089
:10352000808181608083EAE7F0E08081846080832D
:1035300080818260808380818E7F808380818068AB
:1035400080831092C10008958E3008F08E508770ED
:1035500020918E0290E4299F90011124822B809368
:103560007C0080917A00806480937A0080917A0058
:1035700086FDFCCF809178002091790090E0922B1D
:1035800008951F93CF93DF93182FEB0161E00E9402
:10359000491B209711F460E004C0CF3FD10539F4F6
:1035A00061E0812FDF91CF911F910C94821BE12F5D
:1035B000F0E0EF55F04FE491E330F9F048F4E130FA
:1035C000B9F0E230A1F584B5806284BDC8BD34C0D5
:1035D000E730E9F0E83019F1E43049F580918000F6
:1035E000806280938000D0938B00C0938A0024C0B7
:1035F00084B5806884BDC7BD1FC08091800080688D
:1036000080938000D0938900C093880015C080917A
:10361000B00080688093B000C093B3000DC080916B
:10362000B00080628093B000C093B40005C0C03881
:10363000D1050CF0B5CFAFCFDF91CF911F91089599
:10364000833081F028F4813099F08230A1F0089520
:103650008730A9F08830B9F08430D1F480918000AF
:103660008F7D03C0809180008F77809380000895C4
:1036700084B58F7702C084B58F7D84BD0895809115
:10368000B0008F7703C08091B0008F7D8093B00031
:103690000895CF93DF9390E0FC01EB54F04F249119
:1036A000FC01E753F04F8491882349F190E0880FA3
:1036B000991FFC01EF50F04FA591B4918951904FA3
:1036C000FC01C591D4919FB7611108C0F8948C9109
:1036D000209582238C93888182230AC0623051F422
:1036E000F8948C91322F309583238C938881822B90
:1036F000888304C0F8948C91822B8C939FBFDF91B8
:10370000CF9108950F931F93CF93DF931F92CDB75F
:10371000DEB7282F30E0F901EF55F04F8491F90121
:10372000EB54F04F1491F901E753F04F049100234B
:10373000C9F0882321F069830E94201B6981E02F52
:10374000F0E0EE0FFF1FE951F04FA591B4919FB744
:10375000F8948C91611103C01095812301C0812BD5
:103760008C939FBF0F90DF91CF911F910F91089580
:10377000CF93DF93282F30E0F901EF55F04F84917C
:10378000F901EB54F04FD491F901E753F04FC49194
:10379000CC2391F081110E94201BEC2FF0E0EE0F62
:1037A000FF1FE352F04FA591B4912C912D2381E09E
:1037B00090E021F480E002C080E090E0DF91CF91C2
:1037C0000895FC01818D228D90E0805C9F4F821BCB
:1037D00091098F7399270895FC01918D828D981717
:1037E00031F0828DE80FF11D858D90E008958FEF07
:1037F0009FEF0895FC01918D828D981761F0828D65
:10380000DF01A80FB11D5D968C91928D9F5F9F7314
:10381000928F90E008958FEF9FEF089588E79DE1E4
:10382000892B49F088E890E1892B29F00E94781DC6
:1038300081110C9488100895FC01848DDF01A80F7C
:10384000B11DA35ABF4F2C91848D90E001968F73C8
:103850009927848FA689B7892C93A089B1898C91E7
:1038600080648C93938D848D981306C00288F389AD
:10387000E02D80818F7D80830895CF93DF93EC01CD
:10388000888D8823C9F0EA89FB89808185FD05C080
:10389000A889B9898C9186FD0FC00FB607FCF5CFBA
:1038A000808185FFF2CFA889B9898C9185FFEDCF02
:1038B000CE010E941C1CE7CFDF91CF910895CF92DB
:1038C000DF92FF920F931F93CF93DF931F92CDB799
:1038D000DEB76C0181E0D60158968C9358975B96C1
:1038E0009C915B975C968C915C97981307C050965F
:1038F000ED91FC915197808185FD2EC0F601038DDD
:1039000010E00F5F1F4F0F731127F02EF601848D0B
:10391000F81211C00FB607FCF9CFD6015096ED9101
:10392000FC915197808185FFF1CFC60169830E9488
:103930001C1C6981EBCF838DE80FF11DE35AFF4F0B
:103940006083D6015B960C935B975296ED91FC9148
:103950005397808180620CC0D6015696ED91FC9100
:10396000579760835096ED91FC91519780818064C8
:10397000808381E090E00F90DF91CF911F910F91B4
:10398000FF90DF90CF900895BF92CF92DF92EF9299
:10399000FF92CF93DF93EC016A017B01B22E60ECC2
:1039A00076EC8DE290E0A70196010E948F1F2150D6
:1039B0003109410951095695479537952795E88969
:1039C000F98982E08083211580E1380798F0E88941
:1039D000F989108260E673EE86E190E0A701960116
:1039E0000E948F1F21503109410951095695479571
:1039F00037952795EC85FD853083EE85FF852083FF
:103A0000188EEC89FD89B082EA89FB89808180610A
:103A10008083EA89FB89808188608083EA89FB89C9
:103A2000808180688083EA89FB8980818F7D8083A3
:103A3000DF91CF91FF90EF90DF90CF90BF900895EE
:103A40001F920F920FB60F9211242F938F939F9373
:103A5000EF93FF93E0918A07F0918B078081E091CB
:103A60009007F091910782FD12C090818091930799
:103A70008F5F8F7320919407821751F0E091930725
:103A8000F0E0E658F84F958F8093930701C080814E
:103A9000FF91EF919F918F912F910F900FBE0F90FB
:103AA0001F9018951F920F920FB60F9211242F930B
:103AB0003F934F935F936F937F938F939F93AF93B6
:103AC000BF93EF93FF938AE797E00E941C1CFF913E
:103AD000EF91BF91AF919F918F917F916F915F9186
:103AE0004F913F912F910F900FBE0F901F901895FF
:103AF0008AE797E00E94E11B21E0892B09F420E08E
:103B0000822F089510927D0710927C0788EE93E033
:103B1000A0E0B0E080937E0790937F07A09380079A
:103B2000B09381078AE294E090937B0780937A07B1
:103B300085EC90E0909387078093860784EC90E073
:103B4000909389078093880780EC90E090938B078F
:103B500080938A0781EC90E090938D0780938C0787
:103B600082EC90E090938F0780938E0786EC90E034
:103B70009093910780939007109293071092940767
:103B800010929507109296070895CF92DF92EF92C8
:103B9000FF920F931F93CF93DF937C016A01EB0198
:103BA00000E010E00C151D0571F06991D701ED9151
:103BB000FC910190F081E02DC7010995892B19F046
:103BC0000F5F1F4FEFCFC801DF91CF911F910F9172
:103BD000FF90EF90DF90CF9008956115710581F00F
:103BE000DB010D900020E9F7AD0141505109461B62
:103BF000570BDC01ED91FC910280F381E02D0994DB
:103C000080E090E008950C94ED1DDC01ED91FC91B5
:103C10000190F081E02D099466E374E00C94ED1DB1
:103C20000F931F93CF93DF93EC010E94ED1D8C0146
:103C3000CE010E940C1E800F911FDF91CF911F912A
:103C40000F9108950F931F93CF93DF93EC010E9480
:103C5000051E8C01CE010E940C1E800F911FDF916A
:103C6000CF911F910F9108958F929F92AF92BF9223
:103C7000CF92DF92EF92FF920F931F93CF93DF9338
:103C8000CDB7DEB7A1970FB6F894DEBF0FBECDBF9C
:103C90007C01C42EE52FCB01D22E19A221E02D15D7
:103CA00010F02AE0D22E8E010F5D1F4F8D2C912C2B
:103CB000A12CB12C6C2D7E2FA50194010E948F1F89
:103CC0008C2DD29E80191124015011098A3014F4D0
:103CD000805D01C0895CF8018083211531054105B3
:103CE000510521F0C22EE32FCA01E4CFB801C7016C
:103CF0000E94ED1DA1960FB6F894DEBF0FBECDBF9A
:103D0000DF91CF911F910F91FF90EF90DF90CF90B7
:103D1000BF90AF909F908F900895CF92DF92EF92D7
:103D2000FF920F931F93CF93DF93EC016A017B0106
:103D30002115310579F4E881F9810190F081E02DB8
:103D4000642FDF91CF911F910F91FF90EF90DF9043
:103D5000CF9009942A303105E9F477FF1AC06DE25B
:103D60000E94051E8C0144275527BA014C195D0994
:103D70006E097F092AE0CE010E94341E800F911F38
:103D8000DF91CF911F910F91FF90EF90DF90CF9037
:103D900008952AE0B701A601CE01DF91CF911F91CE
:103DA0000F91FF90EF90DF90CF900C94341E9A010A
:103DB000AB01662757FD6095762F0C948D1E21155B
:103DC000310541F4DC01ED91FC910190F081E02D91
:103DD000642F09940C94341E9A01462F50E060E041
:103DE00070E00C94DF1E4F925F926F927F92AF92C1
:103DF000BF92CF92DF92EF92FF920F931F93CF93D8
:103E0000DF93CDB7DEB729013A01621B730B840B38
:103E1000950B29893A894B895C892A193B094C09F8
:103E20005D09298B3A8B4B8B5C8B9B01AC016989BB
:103E30007A898B899C890E944B1FE418F508060932
:103E40001709A80197010E94B11F2A0D3B1D4C1DA7
:103E50005D1DCA01B901DF91CF911F910F91FF90B4
:103E6000EF90DF90CF90BF90AF907F906F905F907A
:103E70004F90089508950E94691A0E943A1F0E9467
:103E8000DC09CEE0DCE10E94490F2097E1F30E94BB
:103E90000E1CF9CF0895DB018F939F930E94D61FCC
:103EA000BF91AF91A29F800D911DA39F900DB29FD6
:103EB000900D11240895991B79E004C0991F96175D
:103EC00008F0961B881F7A95C9F780950895AA1B5C
:103ED000BB1B51E107C0AA1FBB1FA617B70710F0F5
:103EE000A61BB70B881F991F5A95A9F78095909527
:103EF000BC01CD01089597FB072E16F4009407D05E
:103F000077FD09D00E94671F07FC05D03EF490950D
:103F100081959F4F0895709561957F4F0895A1E217
:103F20001A2EAA1BBB1BFD010DC0AA1FBB1FEE1F33
:103F3000FF1FA217B307E407F50720F0A21BB30B7E
:103F4000E40BF50B661F771F881F991F1A9469F7FA
:103F500060957095809590959B01AC01BD01CF0156
:103F60000895052E97FB1EF400940E94C81F57FD6C
:103F700007D00E948F1F07FC03D04EF40C94C81F7B
:103F800050954095309521953F4F4F4F5F4F089585
:103F900090958095709561957F4F8F4F9F4F0895B5
:103FA000EE0FFF1F0590F491E02D09940E94E11F90
:103FB000A59F900DB49F900DA49F800D911D11247D
:103FC0000895A29FB001B39FC001A39F700D811DF2
:103FD0001124911DB29F700D811D1124911D089512
:103FE000F999FECF92BD81BDF89A992780B50895C1
:103FF000262FF999FECF1FBA92BD81BD20BD0FB605
:10400000F894FA9AF99A0FBE01960895F894FFCFA2
:10401000010000003200000000000000000000006D
:104020000000000000000080C0C0E0E0F0F0F0F808
:10403000F8F8F8F8FCFCFCFCFCFCFCF8F8F8F0E004
:10404000E0C0800000000000000000000000000050
:104050000000000000000000000000000000000060
:1040600000C0F0F8FEFEFFFFFFFFFFFFFFFFFFFFB6
:10407000FFFFFF7F3F9F9FDFFFBF9F9FBFBFFFFFF0
:10408000FFFFFFFFFCF8E000000000000000000060
:104090000000000000000000000000000000000020
:1040A000FEFFFFFFFFFFFFFFFFFFFFFFFFFFFFFF21
:1040B000FFFFFFFFC3C9C1C3FFC38981C3FFFFFF68
:1040C000FFFFFFFFFFFFFF7F400000000000000038
:1040D00000000000000000000000000000000000E0
:1040E000033FFFFFFFFFFFFFF1E08EBC2DC9933FB1
:1040F0007F7FFFFFFFFFFFFFFFFFFFFFFFFFFFFFD0
:10410000FFFFFF7F3F9CC6761F07000000000000F6
:10411000000000000000000000000000000000009F
:10412000000001070F1F7FFFFFFFFFFFFFFFFFFFE3
:10413000FFFEFCFCFDF9FBFBFBF3F3F3F3FBFBFBE6
:10414000F9FDFCFEFF3F070000000000000000003A
:10415000000000000000000000000000000000005F
:104160000000000000000000010307070F1F1F3FB1
:104170003F3F3F3F3F7FFFFFFFEFEF8F0F0F0F0FDF
:10418000070701010000000000000000000000001F
:10419000000000000000A00A9A0486007C0101389B
:1041A0002C3E3E383E98783C181C7C546C547C3C29
:1041B0000C1C1C0C3C206028A8A8F8783830302053
:1041C0002030002E0020202044696E6F003D3D3DD0
:1041D0003D3D3D3D3D3D3D004869676873636F72FD
:1041E000653A002047616D65204F7665720020209A
:1041F000002A0047616D65202100020002000200D4
:104200000300040005000600070009000B000C0075
:104210000E00110013001500170019001B001D00EF
:1042200020002200230025002700280029002A0062
:104230002B002C002C002C002C002C002B002A0022
:1042400029002800270025002300210020001D0050
:104250001B00190017001500130011000E000C00C0
:104260000B0009000700060005000400030002001F
:104270000200200022002400260029002A002C0031
:104280002E0030003100320033003400350035009C
:104290003500350035003400330032003100300085
:1042A0002E002C002A0029002600240022002000D5
:1042B0001E001C001A001700150014001200100048
:1042C0000F000E000D000C000B000B000B000B008C
:1042D0000B000C000D000E000F0010001200140067
:1042E000160017001A001C001E00060008000E0031
:1042F000170020002600280026001F0017000E00CF
:1043000008000600200028002F0031002F002800A0
:104310002000170011000F001100180020000000FD
:104320000000C815C51D000000009E177117461734
:104330004E1761177017000000005F1CC51DE11BC0
:10434000FA1BEC1B3D1C0D0A006E616E00696E6667
:06435000006F766600001C
:00000001FF
