:100000000C9401080C9429080C9429080C942908D4
:100010000C9429080C9429080C9429080C9429089C
:100020000C9429080C9429080C9429080C9429088C
:100030000C9429080C9429080C9429080C9429087C
:100040000C94FA170C9429080C94441B0C94761BFE
:100050000C9429080C9429080C9429080C9429085C
:100060000C94CD160C942908AF0DF60DF30DEB0D85
:10007000F30DE70D170EE30DDF0DD70DBC0D1B0EB5
:10008000C50DCE0DAB0D0A102E0C011400000000A2
:100090000000000000000000000000000000000060
:1000A00078FC020303030302FC7800000000000058
:1000B0000000FF7E0000028383838302FC7800003F
:1000C000028383838302FC787EFF0080808080002F
:1000D000FF7E78FC028383838302000078FC028326
:1000E0008383830200000002030303030302FC78FE
:1000F00078FC028383838302FC7878FC0283838309
:100100008302FC7800000060F0F060000000000056
:1001100000000000000000001E3F40C0C0C0C04002
:100120003F1E0000000000000000FF7E1C3E41C199
:10013000C1C1C1410000000041C1C1C1C1413E1C5B
:100140000000010101010101FF7E000041C1C1C1A8
:10015000C1413E1C1C3E41C1C1C1C1413E1C000009
:10016000000000000000FF7E1C3E41C1C1C1C14132
:100170003E1C000041C1C1C1C1413E1C0C30300BCE
:10018000012000C0F87C3E3EFCF8C00000000000EA
:1001900080E078FEFE000000000000F07C3C3E3E67
:1001A000FEFCE0000000007C3E3E3EFEF8C0000089
:1001B00000000000000000F8FEFE0000000000FE4D
:1001C000FE3E3E3E3E3E00000000000080F0FC3E51
:1001D0003E3EFC000000003E3E3E3E3E3E3EFEFEF9
:1001E00000000000C0F8FE3E7EFCE00000000000C1
:1001F000E0FC7E3EFEF8C000000000000000C0E011
:10020000C00000000000F0FF0F000000F9FFFFF049
:1002100000000000070300FFFF00000000000001D5
:100220000000000000FFFF000000000000000000D0
:10023000FFFF00000000000000E0FF1FFFFF0000C4
:10024000000000FFFF00000000000000000000E0D0
:10025000FF3F000000000000000000000000000060
:10026000C0FC7F0300000000FFFF000000FFFF0054
:10027000000000FEFF03000000FFFFF00000000090
:1002800000003F7F3F0000000000FFFF0000E0FF94
:100290001F00FFFF00000000000000FFFF00000043
:1002A00000000000000000E0FE1F01000000000050
:1002B000F8F8FCFFC7000000000000C0FE3F03008C
:1002C000FFFF00000000003F3F3E7EFCF8E0000022
:1002D000000000FFFF80F07C7CF8F00000000000D0
:1002E000000080F8FF07000000000000019FFFF8F9
:1002F000FE1F0100000000FFFFC0000080FFFFFFA5
:100300000000000000000000000000000000FFFFEF
:10031000C0FC7F030000FFFF00000000000000FFA2
:10032000FF0000000000000000E0FE0F01000000E0
:1003300000000000000000010FFFF8000000F8FFBF
:10034000E7E0E0E0FFFFE0E0E00000000000000088
:1003500007FFFE00000000FFFFFF03000001FFFF9A
:100360000000000000F0FF0F00000000000000C0CF
:10037000FC3F03031FFFFCC0000000000F1F3E3EB8
:100380000F01FFFF000000000000008000000000DF
:10039000000007FFFF07000000FCFF07000000004F
:1003A000000000FFFF000000000000E0FE0F000062
:1003B000000000000000000000000000C0FF7F00FF
:1003C0000000030303030303FFFF03030300000014
:1003D00000000000C0FF7F000000000FFFFF800052
:1003E0000080FF7F00000000FEFF0300000000000F
:1003F000000000FFFF8000000080FFFF0000000001
:100400000000000080FCFF07000000000000FFFF6C
:10041000FF000000000000031F3F7C7C3F1F030023
:10042000000000007C7C7C7F7F7C7C7C0000007F67
:100430007F7C7C7C7C7C7C000000003F7E7C7C7E22
:100440001F07000000000000000000007F7F000088
:100450000000001F3E7C7C3E1F07000000000000E3
:10046000031F7F7C7C3F0700000000007F7F0000AF
:1004700000000000000000011F3F7E7C7E3F1F0146
:10048000000000003E7C7C7E3F0F01000000000069
:100490000000000100000000000008102060023889
:1004A0000000000000000000000000FE000000004E
:1004B00000000E000E00000000D0BE90D0BE9000E4
:1004C000001C62FFC28000000C12924CB088060033
:1004D000807C62B21CC0000000000E0E0000000014
:1004E00000E01804020200000002020418E000000C
:1004F0000024187E18240000808080F08080800016
:1005000000000000000000000080808080000000EB
:1005100000000000000000000000806018060000DD
:10052000F804C2320CF80000000404FE00000000D1
:1005300000028242221C00000002222222DC000073
:10054000C0A09884FE808000001E121222C200000B
:10055000F844222222C00000000202C2320A060031
:10056000008C5222528C00003C42424226F800008D
:1005700000003030000000000000303000000000BB
:10058000808040402020100040404040404000001B
:10059000102020404080800000028242221C000087
:1005A0000000000000000000000000050000000046
:1005B000000000000000000000070000070000002D
:1005C0000004040F040300000402010304040300F8
:1005D0000304040405030400000000000000000000
:1005E00000030608101000000010100806030000A9
:1005F00000000000000000000000000700000000F4
:100600000000160E000000000000000000000000C6
:1006100000000606000000000402010000000000C7
:1006200001030404020100000004040704040000A4
:100630000007040404040000000404040403000090
:100640000000000007000000000404040403000090
:100650000102040404030000000007000000000081
:100660000003040404030000000404040201000069
:1006700000000606000000000000160E000000004A
:10068000000001010202040001010101010100005A
:10069000040202010100000000000500000000004B
:1006A000F804728AFA84780000C0380638C0000066
:1006B00000FE222222DC0000F804020202020000F6
:1006C000FE02020204F8000000FE222222220000A4
:1006D00000FE222222220000F804020222E2000090
:1006E000FE20202020FE0000000202FE0202000088
:1006F0000000000202FE0000FE40B00804020000FC
:1007000000FE000000000000FE0C7080700CFE0077
:10071000FE0C30C000FE0000F804020204F80000E5
:10072000FE424242221C0000F804020204F80000CB
:1007300000FE4242A21C0000001C22424280000037
:10074000020202FE02020200FE00000000FE0000A3
:100750000638C000C03806003EC0F00EF0C03E00B3
:100760000006986098060000000618E018060000D1
:100770000202C2320A0600000000FE02020202006B
:10078000000618608000000002020202FE00000065
:1007900040300C0C30400000000000000000000061
:1007A0000102040404000000060101010101060029
:1007B0000007040404030000010204040404000010
:1007C00007040404020100000007040404040000FC
:1007D00000070000000000000102040404070000FC
:1007E00007000000000700000004040704040000E4
:1007F00000040404040300000700000102040000D8
:1008000000070404040400000700000100000700C2
:1008100007000000030700000102040402010000B9
:1008200007000000000000000102040C121110007B
:100830000007000001060000000404040403000097
:10084000000000070000000003040404040300008B
:100850000000010601000000000700000007000082
:100860000006010001060000000000070000000073
:10087000060504040404000000001F1010101000FE
:100880000000000001020400101010101F00000002
:100890000000000000000000080808080808000028
:1008A000000002040000000000E0101010F0000042
:1008B00000FE201010E0000000E0101010100000FA
:1008C00000E0101010FE000000E0909090E00000AA
:1008D0000020FC222222020000E0101010F0000094
:1008E00000FE201010E000001010F20000000000D8
:1008F00000101010F200000000FE804020100000E8
:10090000000202FE00000000F02010F02010F000B5
:1009100000F0201010E0000000E0101010E00000D7
:1009200000F0201010E0000000E0101010F00000B7
:1009300000F02010107000000060909090200000E7
:10094000002020FC2020200000F0000000F000002B
:100950000070800080700000F000C030C000F00027
:100960000030C0C0300000000030C00080700000C7
:1009700000101090503000000080807E02020000C5
:10098000000000FE000000000002027E80800000E7
:1009900000808000000080000000000000000000D7
:1009A0000000000000000000000304040207000033
:1009B000000704040403000000030404040400000E
:1009C0000003040402070000000304040404000000
:1009D000000007000000000000332424221F000054
:1009E00000070000000700000000070404000000EA
:1009F000202020201F00000000070001020400004A
:100A000000000007040400000700000700000700C2
:100A100000070000000700000003040404030000B6
:100A2000003F04040403000000030404023F00002C
:100A3000000700000000000000020404040300009E
:100A40000000000304040400000304040207000083
:100A5000000003040300000001060100010601007C
:100A600000060101060000002020310E03000000F6
:100A700000060504040400000000001F1010000020
:100A800000000007000000000010101F0000000020
:100A90000100000101010000000000000000000052
:100AA000050800FF0C4B00000000003E5B4F5B3E62
:100AB0003E6B4F6B3E1C3E7C3E1C183C7E3C181C23
:100AC000577D571C1C5E7F5E1C00183C1800FFE71A
:100AD000C3E7FF0018241800FFE7DBE7FF30483AC0
:100AE000060E2629792926407F050507407F052522
:100AF0003F5A3CE73C5A7F3E1C1C08081C1C3E7FAA
:100B000014227F22145F5F005F5F06097F017F0070
:100B10006689956A606060606094A2FFA294080490
:100B20007E040810207E201008082A1C08081C2AB1
:100B300008081E101010100C1E0C1E0C30383E3809
:100B400030060E3E0E06000000000000005F0000B0
:100B50000007000700147F147F14242A7F2A122321
:100B60001308646236495620500008070300001C31
:100B70002241000041221C002A1C7F1C2A08083E3A
:100B8000080800807030000808080808000060604D
:100B90000020100804023E5149453E00427F4000BB
:100BA00072494949462141494D331814127F102793
:100BB000454545393C4A49493141211109073649E2
:100BC000494936464949291E0000140000004034B6
:100BD00000000008142241141414141400412214BB
:100BE0000802015909063E415D594E7C1211127CE2
:100BF0007F494949363E414141227F4141413E7F43
:100C0000494949417F090909013E414151737F0822
:100C100008087F00417F41002040413F017F0814C8
:100C200022417F404040407F021C027F7F04081029
:100C30007F3E4141413E7F090909063E4151215E07
:100C40007F09192946264949493203017F01033F9B
:100C50004040403F1F2040201F3F4038403F63142A
:100C600008146303047804036159494D43007F412C
:100C700041410204081020004141417F0402010269
:100C8000044040404040000307080020545478408E
:100C90007F284444383844444428384444287F3822
:100CA0005454541800087E090218A4A49C787F08A4
:100CB00004047800447D40002040403D007F10281F
:100CC000440000417F40007C047804787C080404E0
:100CD000783844444438FC1824241818242418FC78
:100CE0007C08040408485454542404043F44243C1D
:100CF0004040207C1C2040201C3C4030403C44288C
:100D00001028444C9090907C4464544C4400083625
:100D10004100000077000000413608000201020493
:100D2000023C2623263C1EA1A161123A4040207AB3
:100D300038545455592155557941215454784121FD
:100D40005554784020545579400C1E527212395532
:100D5000555559395454545939555454580000452F
:100D60007C410002457D420001457C40F029242958
:100D7000F0F0282528F07C545545002054547C542C
:100D80007C0A097F4932494949323248484832325F
:100D90004A4848303A4141217A3A42402078009D01
:100DA000A0A07D39444444393D4040403D3C24FFAF
:100DB0002424487E4943662B2FFC2F2BFF0929F65C
:100DC00020C0887E090320545479410000447D41AD
:100DD0003048484A32384040227A007A0A0A727D06
:100DE0000D19317D2629292F282629292926304821
:100DF0004D4020380808080808080808382F10C88F
:100E0000ACBA2F102834FA00007B000008142A1412
:100E10002222142A1408AA005500AAAA55AA55AAE3
:100E2000000000FF00101010FF00141414FF001049
:100E300010FF00FF1010F010F0141414FC00141434
:100E4000F700FF0000FF00FF1414F404FC14141753
:100E5000101F10101F101F1414141F00101010F07A
:100E6000000000001F101010101F10101010F010C4
:100E7000000000FF101010101010101010FF1000D4
:100E80000000FF140000FF00FF00001F101700000B
:100E9000FC04F414141710171414F404F40000FFE5
:100EA00000F714141414141414F700F7141414177E
:100EB0001410101F101F141414F4141010F010F05C
:100EC00000001F101F0000001F14000000FC140091
:100ED00000F010F01010FF10FF141414FF14101085
:100EE000101F00000000F010FFFFFFFFFFF0F0F008
:100EF000F0F0FFFFFF0000000000FFFF0F0F0F0FDB
:100F00000F38444438447C2A2A3E147E02020606E6
:100F1000027E027E0263554941633844443C0440EA
:100F20007E201E2006027E020299A5E7A5991C2AB2
:100F3000492A1C4C7201724C304A4D4D3030487871
:100F40004830BC625A463D3E494949007E01010194
:100F50007E2A2A2A2A2A44445F444440514A444073
:100F600040444A51400000FF0103E080FF000008B8
:100F7000086B6B083612362436060F090F06000080
:100F800018180000001010003040FF0101001F0180
:100F9000011E00191D1712003C3C3C3C00000000E3
:100FA0000000000008000201000003040700000028
:100FB000000000000001020408102040800102042B
:100FC000081020010204081020040404040404048E
:100FD00004020202020202030303030303000000EF
:100FE0000023002600290000000000250028002B17
:100FF0000000000000240027002A0000460F2B16E6
:10100000A61B11241FBECFEFD8E0DEBFCDBF13E07B
:10101000A0E0B1E0E8E5FCE302C005900D92A23249
:10102000B107D9F726E0A2E2B3E001C01D92A23FCA
:10103000B207E1F71FE0C2E0D0E104C02297FE0151
:101040000E94F61DCC3FD107C9F70E945F1D0C948A
:101050002A1E0C940000AF92BF92CF92DF92EF92C3
:10106000FF920F931F93809164008E7F80936400A2
:1010700082E10E94C818BC01809164008160809365
:101080006400882777FD8095982F1F921F9221E09A
:101090002F9324EF2F93A12CB12C6501EE24EA9419
:1010A00013E0F12E00E010E020E030E0A9010E9402
:1010B000171D2091040130910501CB010F900F9075
:1010C0000F900F90261737070CF4C9011F910F914D
:1010D000FF90EF90DF90CF90BF90AF9008958091F8
:1010E00064008E7F809364008EE480937C006AE0CD
:1010F00070E080E090E00E94651880917A00806442
:1011000080937A0080917A0086FDFCCF2091780050
:101110008091790030E0382B442737FD4095542FDB
:1011200060E070E381E190E00E94D51D8091640051
:10113000816080936400C9010895209122038C5836
:101140009A40222319F062E170E002C06DE270E083
:101150000E949F1D862F0895EAE2F3E080E28193CA
:1011600093E0EC35F907D9F7089560E083E00E9439
:101170006D1960E084E00E946D1960E082E10E94D8
:101180006D1961E085E00E946D1961E086E00E94C2
:101190006D1961E08FE00E946D1961E080E10E94AD
:1011A0006D1961E083E00E94A61961E084E00E946D
:1011B000A61926E040E855E260E070E085E596E09B
:1011C0000E94E81A80916400886080936400809196
:1011D00064008064809364008091640081608093E7
:1011E0006400809164008068809364000E946F08AE
:1011F00021E088349D400CF020E02093220380E51C
:1012000095E00E944E1261E080E595E00E94451055
:1012100080E595E00E9474100C94AC088F3991F031
:10122000843A91F0863B91F08C3B91F0843891F0B8
:10123000863991F08C3991F08B3A91F08B3B91F497
:101240008FEA10C080EE089584E8089584E9089537
:1012500081E808958EE8089589E908958AE9089556
:101260008EEA08950895809123038F5F809323036E
:101270008A3070F16AE00E947F1D282F809124033C
:10128000820F80932403909323038C3350F06CE3FC
:101290000E947F1D20912503280F20932503909302
:1012A0002403809125038C3350F06CE30E947F1D52
:1012B00020912603280F20932603909325038091E5
:1012C0002603883128F068E10E947F1D9093260351
:1012D000089562E080E595E00E9416124CE060E01F
:1012E00080E595E00E94A510809126038A3030F4B5
:1012F00061EB72E080E595E00E94271C4AE050E037
:101300006091260380E595E00E94101D61E080E574
:1013100095E00E9416124DE068E180E595E00E949C
:10132000A51061ED72E080E595E00E94271C62E067
:1013300080E595E00E9416124CE060E280E595E0C1
:101340000E94A510809125038A3030F461EB72E091
:1013500080E595E00E94271C4AE050E0609125035B
:1013600080E595E00E94101D60E080E595E00E9418
:10137000161240E261E180E595E00E94A51080919F
:1013800024038A3030F461EB72E080E595E00E943E
:10139000271C4AE050E06091240380E595E00E941C
:1013A000101D63EB72E080E595E00E94271C4AE087
:1013B00050E06091230380E595E00C94101D0F939D
:1013C000CF930E946F080E949D08C82F4DE06CE3E8
:1013D00080E595E00E94E9104DE06DE380E595E041
:1013E0000E94E91080912203811112C043E269E357
:1013F00080E595E00E94E9104AE168E380E595E028
:101400000E94E9104AE169E380E595E00E94E91055
:1014100002E226E04EE06AE380E595E00E94C21118
:1014200040E34C1B0C2F26E06AE380E595E00E9428
:101430000A12CF910F910895CF92DF92EF92FF920F
:101440000F931F93CF93DF936C017A016034710582
:1014500010F540335105F8F48B01095F1F4FC0E0D0
:10146000D0E0F601208130E00C2E02C035952795A2
:101470000A94E2F720FF09C00034110530F44E2D24
:10148000602F80E595E00E94E91021960150110936
:10149000C830D10531F7DF91CF911F910F91FF90A7
:1014A000EF90DF90CF900895CF92DF92EF92FF926E
:1014B0000F931F93CF93DF936C017B016034710511
:1014C00010F540335105F8F48A01095F1F4FC0E061
:1014D000D0E0F601208130E00C2E02C03595279532
:1014E0000A94E2F720FF09C00033110530F4402FC1
:1014F0006E2D80E595E00E94E910219601501109BA
:10150000C830D10531F7DF91CF911F910F91FF9036
:10151000EF90DF90CF9008950F931F93CF93DF93B9
:1015200060E080E595E00E944510009189051091EA
:101530008A05C8010E94141EC5E8D5E08883C80149
:1015400001960E94141E898340E060E080E595E0EA
:101550000E94A51065EB72E080E595E00E94341CC6
:101560006DEB72E080E595E00E94271C68EC72E06C
:1015700080E595E00E94341C609185057091860598
:101580004AE050E080E595E00E94FB1C80E595E094
:101590000E94741068EB7BE080E090E00E94651888
:1015A00080912303825E80932303DF91CF911F916B
:1015B0000F910895EF92FF920F931F93CF93DF93B4
:1015C0001F92CDB7DEB78091870590918805209155
:1015D000850530918605281739070CF442C060E074
:1015E00080E10E94A61965E070E085E00E94E518A0
:1015F00040E060E080E595E00E94A51061EB72E0BC
:1016000080E595E00E94271C46E160E080E595E0DA
:101610000E94A51063ED72E080E595E00E94341C05
:1016200080E595E00E9474106CED75E080E090E03C
:101630000E94651860E085E00E94A61960ED77E0E1
:1016400080E090E00E946518809123038D5D809377
:1016500023030F90DF91CF911F910F91FF90EF9097
:1016600008959093860580938505E0908905F09014
:101670008A0505E815E0F80161918F01C7016983CA
:101680000E94141E6981681719F0C7010E941C1E70
:10169000FFEFEF1AFF0A85E00738180761F79FCFC1
:1016A000CF92DF92EF92FF920F931F93CF93DF932E
:1016B000CDB7DEB72A970FB6F894DEBF0FBECDBF09
:1016C0009AE0EFE8F2E0DE01119601900D929A9512
:1016D000E1F76E019BE0C90ED11C8E010F5F1F4F19
:1016E000E82EF12CE01AF10AA701400F511F62E029
:1016F00070E0C8010E941C0A0F5F1F4F0C151D05EA
:1017000099F72A960FB6F894DEBF0FBECDBFDF91D2
:10171000CF911F910F91FF90EF90DF90CF900895A0
:10172000EF92FF920F931F93CF93DF93CDB7DEB766
:101730002C970FB6F894DEBF0FBECDBF8CE0E9E961
:10174000F2E0DE01119601900D928A95E1F700E03A
:1017500010E03AE1E32EF12CB701601B710B46E279
:1017600050E081E090E08C0F9D1F800F911F0E9440
:10177000540A0F5F1F4F0C30110571F72C960FB6EE
:10178000F894DEBF0FBECDBFDF91CF911F910F91B7
:10179000FF90EF9008950F931F93CF93DF9300D0A6
:1017A000CDB7DEB798E3998394E29A83082F10E0CF
:1017B000A80162E070E0CE0101960E941C0AA80117
:1017C0004F5F5F4F62E070E0CE0102960E941C0AFC
:1017D0000F900F90DF91CF911F910F9108950F936C
:1017E0001F93CF93DF9300D0CDB7DEB798E79983EF
:1017F00098E09A83082F10E0A80162E070E0CE0123
:1018000001960E941C0AA8014F5F5F4F62E070E0E2
:10181000CE0102960E941C0A0F900F90DF91CF918B
:101820001F910F9108950F931F93CF93DF9300D0D3
:10183000CDB7DEB790E3998398E29A83082F10E042
:10184000A80162E070E0CE0101960E941C0AA80186
:101850004F5F5F4F62E070E0CE0102960E941C0A6B
:101860000F900F90DF91CF911F910F910895EF92FC
:10187000FF920F931F93CF93DF93CDB7DEB72C97D3
:101880000FB6F894DEBF0FBECDBF7C018CE0E5EA59
:10189000F2E0DE01119601900D928A95E1F700E0E9
:1018A00010E0A8014F5D5F4FF7016081718181E019
:1018B00090E08C0F9D1F800F911F0E941C0A0F5FEC
:1018C0001F4F0C30110569F72C960FB6F894DEBF48
:1018D0000FBECDBFDF91CF911F910F91FF90EF9081
:1018E00008954F925F926F927F928F929F92AF92E4
:1018F000BF92CF92DF92EF92FF920F931F93CF93FD
:10190000DF9300D0CDB7DEB710928805109287051F
:1019100086E490E09A8389830E948C0A812C912C22
:1019200048E3C42ED12CE12CF12C53E0A52EB12C90
:1019300066E4462E512C73E0672E712C809187054A
:10194000909188050196909388058093870560E0C3
:1019500080E595E00E94451040E060E080E595E07C
:101960000E94A5104AE050E0B50180E595E00E9494
:10197000FB1C6EED72E080E595E00E94271C6091F3
:101980008705709188054AE050E080E595E00E9467
:10199000FB1CC114D10419F438E3C32ED12C4AE046
:1019A0006C2D80E595E00E94A51061EE72E080E567
:1019B00095E00E94271C8091870580FD03C021E0EF
:1019C000C21AD1080DE22FE34DE260E080E595E018
:1019D0000E94621189819A81893F9F4F14F45A8233
:1019E0004982CE0101960E94370C89819A81029723
:1019F0009A8389830697D9F58DE0E816F1046CF592
:101A000021E0A21AB1080E94900B80E595E00E94A7
:101A1000741060E080E10E94A61968E770E085E03C
:101A20000E94E51864EF71E080E090E00E94651884
:101A300060E270E085E00E94E51864EF71E080E00C
:101A400090E00E94651860E085E00E94A6198091F0
:101A50002303865F809323033CC080918705909188
:101A600088058E0D9F1D90938805809387051E2DF8
:101A700080E28E190E94500B809187059091880515
:101A8000B3010E949F1D892B21F48AE28E190E94C6
:101A9000CB0B80918705909188050196B3010E9438
:101AA0009F1D892B21F48AE2811B0E94EF0B8091FC
:101AB0008705909188050296B3010E949F1D892B8E
:101AC00021F48AE2811B0E94130C80E595E00E94BC
:101AD00074108091870590918805813A2FE09207D4
:101AE00094F4893B2BE092078CF48D3D25E092071E
:101AF00084F4893E23E092077CF4853F91407CF09A
:101B000062E370E00EC06AE070E00BC064E170E078
:101B100008C06EE170E005C068E270E002C066E4F3
:101B200070E0860E971E882777FD8095982F0E947B
:101B3000651885E68816910424F00E943309812CEB
:101B4000912CF7013197EF30F10508F04CC0EC5CB7
:101B5000FF4F0C94F41D2EE0E22EF12C4FC06CE3ED
:101B600070E085E00E94E51861E080E10E94A6191E
:101B700097E0E92EF12C42C061E470E085E00E941C
:101B8000E5188DE0E82EF12C39C065E570E085E0C0
:101B90000E94E5180FE0E02EF12C30C06FE570E0F8
:101BA00085E00E94E5181CE0E12EF12C27C060E0E2
:101BB00085E00E94A619B9E0EB2EF12C1FC0A8E029
:101BC000EA2EF12C1BC0F6E0EF2EF12C17C0E4E05A
:101BD000EE2EF12C13C060E080E10E94A61972E0A5
:101BE000E72EF12C0BC0E114F10441F484E00E94D3
:101BF000DC19892B21F5EE24E394F12C1A141B0433
:101C00000CF49CCE0E94DA0A0F900F90DF91CF91D6
:101C10001F910F91FF90EF90DF90CF90BF90AF900A
:101C20009F908F907F906F905F904F9008955BE0B2
:101C3000E52EF12CE3CF4AE0E42EF12CDFCFE12CAE
:101C4000F12CDCCFCF93DF936DE570E080E090E086
:101C50000E94651884E00E94DC19892B09F057C0A6
:101C60006CE271E080E090E00E94651880912303AF
:101C70008D5F8093230384E00E94DC19892B09F097
:101C800046C0109227036FEA80E595E00E94C60FD8
:101C900060E080E595E00E9445100E94DF09C8E2FF
:101CA000D0E00E9433090E94690980E595E00E9416
:101CB000741064E670E080E090E00E94651821975F
:101CC00081F76EEA80E595E00E94C60F84E00E94ED
:101CD000DC19892BE1F463EE72E085E596E00E9461
:101CE000341C6FEA80E595E00E94C60F8091640085
:101CF0008E7F809364000E94710C809164008160EB
:101D0000809364006EEA80E595E00E94C60F83E050
:101D10000E94DC19892BF9F46CE271E080E090E01C
:101D20000E946518809123038D5F8093230383E0D5
:101D30000E94DC19892B79F41092270310925C031E
:101D400082E390E090930501809304016EE785E5BE
:101D500096E00E94461C8091040190910501833316
:101D600091050CF460C02091280330912903232BA6
:101D7000D1F520915C03233241F520E220935C03EE
:101D800020915E03205330915D0330534AE0349F2D
:101D9000200D1124209326032091610320533091BC
:101DA000600330534AE0349F200D11242093250313
:101DB0002091640320533091630330534AE0349FF1
:101DC000200D1124209324030EC0253261F42091AC
:101DD0005D0320932703211102C010925C039093AE
:101DE0002903809328032091280330912903821727
:101DF0009307CCF060E080E595E00E94451040E05C
:101E000060E080E595E00E94A51060912803709144
:101E10002903665D7C4F80E595E00E94271C80E5E4
:101E200095E00E947410209128033091290380913D
:101E30000401909105012817390769F46EEA80E5DD
:101E400095E00E94C60F10925C0382E390E09093AD
:101E500005018093040180912703882369F0809114
:101E6000230369E00E947F1D911102C061E001C05F
:101E700060E08FE00E94A6190E942B08909329032E
:101E800080932803DF91CF910C9433092AE048E036
:101E900069E080E595E00C94B90FCF93DF9385E579
:101EA00096E00E94051A892B59F185E596E00E947B
:101EB0001E1A9EE3980F923090F38A3089F46FEAED
:101EC00080E595E00E94C60FE0910401F0910501C4
:101ED000E65DFC4F10821092290310922803DFCF99
:101EE000C0910401D09105010E940E09FE01E65D3A
:101EF000FC4F80832196D0930501C0930401CFCF7E
:101F0000DF91CF910895CF93CFB7F89480918B054F
:101F1000811127C0E3EDFFE08491EFEBFFE09491A6
:101F2000E82FF0E0EE0FFF1FEF50F04FA591B491B6
:101F30008C91892321F461E08AE00E94A61961E076
:101F40008AE00E946D198CB580618CBD8CB580646F
:101F50008CBD61E08DE00E946D1961E08BE00E9414
:101F60006D1980918B058F5F80938B05CFBFCF91CB
:101F70000895FC01138212828EEE92E09183808399
:101F8000668345832483148E138E0895CF93DF9345
:101F9000EC018B8D9C8D0097C1F4E8A1F9A1908193
:101FA00089A5809589238083EE8DFF8D908188A5FA
:101FB000809589238083CE010E945B14EE8DFF8D76
:101FC000808198A5892B808313C08130910541F4CD
:101FD000262F40E06D8DCE01DF91CF910C944B15F3
:101FE000029731F440E0CE01DF91CF910C940015BF
:101FF000DF91CF910895CF93DF93EC018B8D9C8D72
:102000000097B9F4E8A1F9A1808199A5892B808373
:10201000EE8DFF8D908188A5809589238083CE01E8
:102020000E945B14EE8DFF8D808198A5892B8083A3
:1020300013C08130910541F4262F40E46D8DCE010F
:10204000DF91CF910C944B15029731F441E0CE0112
:10205000DF91CF910C940015DF91CF910895606BC3
:102060000C94C60F1F93CF93DF93EC01162F62954C
:102070006F7060616E5F0E94C60F612F6F70CE013E
:10208000DF91CF911F910C94C60FFF920F931F9376
:10209000CF93DF93EC016130B9F4F12C6F2DCE01B9
:1020A0000E942F1060E0CE010E94321000E810E084
:1020B00060E0CE010E94FB0F01501109C9F7F394B3
:1020C00028E0F212EBCF0AC080E891E0E6E0F1E010
:1020D000DF019C011D9221503040E1F7DF91CF914B
:1020E0001F910F91FF900895DF92EF92FF920F934F
:1020F0001F93CF93DF938C0186E0E82E81E0F82ECA
:10210000D12C6D2DC8010E942F1060E0C8010E94E3
:102110003210C0E0D0E0F701EC0FFD1F6081C80174
:102120000E94FB0F2196C034D105A9F7D39480E417
:10213000E80EF11C86E0D812E4CFDF91CF911F9119
:102140000F91FF90EF90DF900895FC0161AB42ABDF
:1021500008950F936034D8F54033C8F50130C9F4C1
:102160002130A9F5E42FE695E695E69580E4E89F11
:10217000F0011124E60FF11DEA5FFE4F477081E088
:1021800090E0042E01C0880F0A94EAF79081982706
:102190001DC0842F869586958695E62FF0E04770C2
:1021A00090E4899FE00DF11D1124EA5FFE4F81E06C
:1021B00090E0042E01C0880F0A94EAF7213019F448
:1021C0009081982B03C080959081982390830F91E4
:1021D00008950F93FC0103A522A50E94A9100F9159
:1021E00008957F928F929F92AF92BF92CF92DF928B
:1021F000EF92FF920F931F93CF93DF93EC01162F73
:10220000F42ED22EA02FB0E0A41BB109B7FF03C05B
:10221000B195A195B109ED2DF0E0E11BF109F7FFB2
:1022200003C0F195E195F109AA24A394EA17FB07ED
:1022300014F0A12C06C09D2DD02E092F912F1F2DFB
:10224000F92ED11630F49F2DF02E092F912F1D2D30
:10225000D92E9D2C911AE02FF0E0EF19F109F7FF2C
:1022600003C0F195E195F1097E2EB92CB694F016D4
:1022700018F48824839412C088248A940FC00C2DEB
:102280002E2DAA2071F0412F6F2DCE010E94A91092
:10229000B718B7FE02C0F80CB90C1F5F1D1578F314
:1022A00003C04F2D612FF1CFDF91CF911F910F917F
:1022B000FF90EF90DF90CF90BF90AF909F908F9066
:1022C0007F900895CF92EF920F93FC01C3A4E2A4F4
:1022D0000E94F1100F91EF90CF900895CF92EF925E
:1022E0000F93260FCE2CE02E042F0E94F1100F9199
:1022F000EF90CF900895CF92EF920F93240FCE2CB2
:10230000E02E022F262F0E94F1100F91EF90CF9018
:102310000895AF92BF92CF92DF92EF92FF920F9308
:102320001F93CF93DF93EC01F62EB42ED22EA02E66
:102330001E2DEC2C012F0E946E114FEF4A0D4B0DFC
:102340002D2D6F2DCE010E946E11AA94AA9479F0C2
:10235000B3942A2D4B2D6F2DCE010E947B116FEF70
:102360006D0D6F0D2A2D4B2DCE010E947B11DF913B
:10237000CF911F910F91FF90EF90DF90CF90BF9082
:10238000AF900895CF92EF920F93FC01C3A4E2A403
:102390000E9489110F91EF90CF9008955F926F92F4
:1023A0007F928F929F92AF92BF92CF92DF92EF92E5
:1023B000FF920F931F93CF93DF934C01162FF42EB0
:1023C000D02E5E2CA62EB12CC0E0D0E03501620EDE
:1023D000711CCE018A0D9B1D861597055CF46C2F30
:1023E000610FEC2C052D2D2D4F2DC4010E947B116A
:1023F0002196EFCFDF91CF911F910F91FF90EF903A
:10240000DF90CF90BF90AF909F908F907F906F9014
:102410005F900895CF92EF920F93FC01C3A4E2A4C2
:102420000E94CE110F91EF90CF900895DC0164309F
:1024300008F032C09E966C939E97E62FF0E0EE0F68
:10244000FF1FEA57FD4F80819181FC0124919C96EA
:102450002C939C973196E4919D96EC939D97FC016B
:102460003296E4919F96EC939F97FC013396E4910A
:10247000D096EC93D097FC013496249131968491B8
:1024800090E0F4E62F9F800D911D1124D4969C932B
:102490008E93D39781E0089580E00895CF93DF93E2
:1024A000EC0160E00E94161281E08AA71BA619AA1F
:1024B0001AAA8D81682F70E0AB014753504FFA0183
:1024C000249130E0220F331F2951304FF901A5919B
:1024D000B491B9A3A8A3FB01EB54F04F649169A791
:1024E000FA014491E42FF0E0EE0FFF1FEF50F04FA0
:1024F000259134913DA32CA361E00E946D1961E008
:102500008E810E946D198B8D9C8D009721F4CE01D8
:102510000E9415140CC08130910521F4CE010E9457
:10252000621405C0029719F4CE010E946A1461E09A
:102530008E810E946D1961E08E810E94A61965E06E
:1025400070E080E090E00E94651860E08E810E945B
:10255000A6196AE070E080E090E00E94651861E0F2
:102560008E810E94A6196EEACE010E94C60F65ED0B
:10257000CE010E94C60F60E8CE010E94C60F68EA35
:10258000CE010E94C60F6FE2CE010E94C60F63ED1E
:10259000CE010E94C60F60E0CE010E94C60F60E42B
:1025A000CE010E94C60F6DE8CE010E94C60F64E105
:1025B000CE010E94C60F66EACE010E94C60F64EAF1
:1025C000CE010E94C60F61EACE010E94C60F68ECE0
:1025D000CE010E94C60F6AEDCE010E94C60F62E1D5
:1025E000CE010E94C60F61E8CE010E94C60F6FE8BF
:1025F000CE010E94C60F69EDCE010E94C60F61EFA9
:10260000CE010E94C60F6BEDCE010E94C60F60E4A2
:10261000CE010E94C60F6FEACE010E94C60F61E094
:10262000CE01DF91CF910C9445105F926F927F9213
:102630008F929F92AF92BF92CF92DF92EF92FF92D2
:102640000F931F93CF93DF93EC01162FB42EF02E30
:102650003FA5231708F4B0C068A970E0630F711D8F
:10266000822F90E0861797070CF0A6C0D22ED31ABF
:102670009DA496949694969481E08915C0F1C12EFC
:102680003C2D311B2CA5822F90E0A32FB0E08A17A0
:102690009B070CF491C0321791F0EEA5F0E0EE0F1D
:1026A000FF1FEA57FD4FD29EA00DB11D11241696B3
:1026B0000190F081E02DEA0FFB1F949001C0912C56
:1026C000A12C4A2D4B0D90FE03C00E2D2F2D04C0C2
:1026D00021E0F11020E00E2D6C2DCE010E94A910FA
:1026E0009694A39488E0A812ECCFC394C9CFEBA929
:1026F000FCA92CA530E0CF01B9010E948B1D8D2DC6
:1027000090E00E948B1D829F6001839FD00C929F5E
:10271000D00C11249E9E90019F9E300D1124269F67
:10272000C001279F900D369F900D1124C80ED91E11
:10273000742EA12CB12C86E0C80ED11C812E482D00
:10274000411B8CA5481780F5EEA5F0E0EE0FFF1FAA
:10275000EA57FD4F2BA93CA9A29EC001A39E900D54
:10276000B29E900D11248C0D9D1D840F911D019022
:10277000F081E02DE80FF91F5490612C462D470D94
:1027800050FE03C00E2D2F2D04C021E0F11020E0DB
:102790000E2D682DCE010E94A9105694639488E0F6
:1027A0006812ECCF8394CBCF8FEFA81AB80A88E0D9
:1027B000780EA91408F4C2CFDF91CF911F910F9129
:1027C000FF90EF90DF90CF90BF90AF909F908F9051
:1027D0007F906F905F900895EF920F93CF93DF9368
:1027E000EC01262F6A30A9F06D30C1F0EBA40AA5E8
:1027F0004AA969A90E9415134CA529A9240F2F5F86
:1028000029AB30E080E490E0841B910982179307A4
:102810002CF48AA99DA5890F8AAB19AA81E090E0C2
:10282000DF91CF910F91EF900895CF93DF93EC015B
:102830004C8150E09A012753304FF901849190E088
:10284000880F991F8951904FFC01659174917F8F7A
:102850006E8FFA01EB54F04F449148A7F90124918F
:10286000E22FF0E0EE0FFF1FEF50F04F85919491B3
:102870009BA38AA361E08BE00E946D1961E08DE06B
:102880000E946D1961E08C810E946D1961E08C815C
:102890000E94A6198CB58C7F8CBD8DB581608DBDD5
:1028A0008CB5837F8CBD61E08AE00E946D19DF9159
:1028B000CF910C94830F6EBD00000DB407FEFDCFC9
:1028C0008EB508958CE895E00E94011687E080930C
:1028D000B80008950F931F93CF93DF93EC014C81C1
:1028E00050E09A012753304FF901849190E0880F0E
:1028F000991F8951904FFC01659174917F8F6E8F64
:10290000FA01EB54F04F449148A7F9012491E22FCA
:10291000F0E0EE0FFF1FEF50F04F859194919BA3D5
:102920008AA38F81682F70E0AB014753504FFA01A3
:10293000249130E0220F331F2951304FF901A59126
:10294000B491BA8BA98BFB01EB54F04F6491698F62
:10295000FA014491E42FF0E0EE0FFF1FEF50F04F2B
:10296000259134913C8B2B8B688570E0AB014753EC
:10297000504FFA01249130E0220F331F2951304F7C
:10298000F901A591B491BE8BAD8BFB01EB54F04FD7
:1029900064916A8FFA014491E42FF0E0EE0FFF1F7B
:1029A000EF50F04F25913491388F2F8B61E00E94CA
:1029B0006D1961E08F810E94A61961E088850E94EF
:1029C0006D1961E088850E94A61961E08C810E94E2
:1029D0006D1961E08C810E94A61900E010E0FE01F3
:1029E000E00FF11F61E081850E946D190F5F1F4F9D
:1029F00008301105A1F7DF91CF911F910F91089534
:102A0000CF92DF92EF92FF920F931F93CF93DF93BA
:102A10001F92CDB7DEB76C01E62E60E0FC01848129
:102A200049830E94A6194981642FF60185810E947D
:102A3000A61960E0F60187810E94A61900E010E067
:102A4000F12CF601E00FF11FC701002E02C0959591
:102A500087950A94E2F780FF02C061E001C060E060
:102A600081850E94A6190F5F1F4F0830110549F795
:102A700061E0F60187810E94A61961E0F601848178
:102A80000F90DF91CF911F910F91FF90EF90DF900A
:102A9000CF900C94A619CF93DF9300D0CDB7DEB7BB
:102AA0008CE895E02A8349830E940B164981642FA4
:102AB0008CE895E00E94C2152A81622F8CE895E08F
:102AC0000E94C2158CE895E00F900F90DF91CF9196
:102AD0000C9428168091BC0590E02091BD05821BC6
:102AE000910908952091BD058091BC05281750F4E7
:102AF000E22FF0E0E254FA4F808190E02F5F2093C4
:102B0000BD0508958FEF9FEF0895E091BD05809179
:102B1000BC05E81730F4F0E0E254FA4F808190E011
:102B200008958FEF9FEF08950895CF92DF92EF926F
:102B3000FF920F931F93CF93DF937C01CB018A0108
:102B400020919805222389F0EB016B01C40ED51E5C
:102B5000CC15DD0569F06991D701ED91FC910190EB
:102B6000F081E02DC7010995F3CF642F0E94A416D0
:102B7000C801DF91CF911F910F91FF90EF90DF90EF
:102B8000CF900895CF93DF931F92CDB7DEB76983BF
:102B9000209198052223D1F020919905203240F010
:102BA00021E030E0FC013383228380E090E015C017
:102BB00080919A05E82FF0E0E556FA4F99819083CD
:102BC0008F5F80939A058093990505C061E0CE01DF
:102BD00001960E94A41681E090E00F90DF91CF91C2
:102BE0000895FC011382128248EE53E060E070E029
:102BF000448355836683778386EF92E09183808355
:102C000008951092BD051092BC0510929A0510927D
:102C100099050C942F1681E0809398056093BB056D
:102C200010929A051092990508950F93062F21E0AE
:102C3000409199056BE975E08091BB050E944D16A6
:102C400010929A0510929905109298050F91089587
:102C500061E00C9415168CE895E00C94F115109237
:102C60004B0681E0809349061092480661E082E1BC
:102C70000E94A61961E083E10E94A619E9EBF0E049
:102C800080818E7F808380818D7F808384E38093A9
:102C9000B80085E48093BC0008950F93413208F09A
:102CA0004AC090914B069111FCCF92E090934B0655
:102CB000009349069FEF9093DE0510922306409300
:102CC0002206FB0164E276E0DB019A2F961B941743
:102CD00018F491919D93F9CF10924A0690914A066B
:102CE000880F892B80934A0680914806813061F4D1
:102CF0001092480680914A068093BB008091BC00E8
:102D000083FDF8CF85EC01C085EE8093BC002223C3
:102D100021F080914B068230E1F38091DE058F3FF8
:102D200061F08091DE05803251F08091DE058033C4
:102D300041F483E007C081E005C080E003C082E089
:102D400001C084E00F910895613298F420914B0600
:102D5000243089F460930006FC0182E096E0DC01F7
:102D60002A2F281B261718F421912D93F9CF80E0E4
:102D7000089581E0089582E0089585ED8093BC0078
:102D80008091BC0084FDFCCF10924B06089585EC29
:102D90008093BC0010924B0608951F920F920FB6BD
:102DA0000F9211242F933F934F935F936F937F93D1
:102DB0008F939F93AF93BF93EF93FF938091B9004D
:102DC000887F803609F49EC078F5883209F45DC0AA
:102DD00090F4803109F456C038F4882309F4F5C022
:102DE000883009F44FC0F5C0883109F44EC08032F4
:102DF00009F45FC0EEC0803409F46AC058F480332F
:102E000009F457C0883309F0E4C08093DE050E94BE
:102E1000C716DFC0803509F44FC0883509F45DC09E
:102E2000883409F0D6C0D3C0883909F4C4C0A8F4E6
:102E3000883709F467C038F4883609F463C08037EE
:102E400009F460C0C6C0883809F4B5C0803909F4F7
:102E50005FC0803809F0BDC05BC0803B09F483C00F
:102E600038F4803A09F466C0883A09F47CC0B1C0ED
:102E7000803C09F4A4C0883C09F4A1C0883B09F453
:102E800087C0A7C080914A0610C090912306809108
:102E90002206981770F5E091230681E08E0F80934B
:102EA0002306F0E0EC5DF94F80818093BB0085EC58
:102EB00083C08093DE058BC0E091230681E08E0FF6
:102EC000809323068091BB00F0E0EC5DF94F808396
:102ED00090912306809122066BC0E091230681E049
:102EE0008E0F809323068091BB00F0E0EC5DF94FDC
:102EF00080838091490681116AC081E080934806F1
:102F000084EA5EC083E080934B061092DF05CFCF4A
:102F10008091DF05803208F04EC0E091DF0581E04E
:102F20008E0F8093DF058091BB00F0E0E052FA4FF6
:102F30008083BDCF0E94C7168091DF05803230F4B8
:102F4000E091DF05F0E0E052FA4F10826091DF057A
:102F500070E0E0914406F091450680EE95E0099519
:102F60001092DF0536C084E080934B061092010674
:102F700010920006E0914606F0914706099580916F
:102F80000006811105C081E08093000610920206C0
:102F9000E091010681E08E0F80930106F0E0EE5F84
:102FA000F94F80818093BB009091010680910006CB
:102FB000981708F47CCF85E88093BC000AC085ECA4
:102FC0008093BC0010924B0604C01092DE050E9454
:102FD000BD16FF91EF91BF91AF919F918F917F911E
:102FE0006F915F914F913F912F910F900FBE0F9076
:102FF0001F9018951F920F920FB60F9211242F93C6
:103000003F938F939F93AF93BF9380914D06909181
:103010004E06A0914F06B091500630914C062DE21D
:10302000230F2D3720F40196A11DB11D05C020EB03
:10303000230F0296A11DB11D20934C0680934D06CF
:1030400090934E06A0934F06B09350068091510680
:1030500090915206A0915306B09154060196A11D7D
:10306000B11D8093510690935206A0935306B093DE
:103070005406BF91AF919F918F913F912F910F90E7
:103080000FBE0F901F9018959FB7F894409151066E
:1030900050915206609153067091540686B5A89BD4
:1030A00006C08F3F21F04F5F5F4F6F4F7F4F9FBF35
:1030B0002227342F452F562F280F311D411D511D1A
:1030C000A5E0B0E00E94FA1D0895CF92DF92EF9242
:1030D000FF92CF93DF936B017C010E944418EB01B8
:1030E000C114D104E104F10489F00E946E1D0E9414
:1030F00044186C1B7D0B683E734090F381E0C81A46
:10310000D108E108F108C851DC4FEACFDF91CF9137
:10311000FF90EF90DF90CF900895789484B582600F
:1031200084BD84B5816084BD85B5826085BD85B56B
:10313000816085BDEEE6F0E0808181608083E1E81A
:10314000F0E0108280818260808380818160808352
:10315000E0E8F0E0808181608083E1EBF0E0808155
:1031600084608083E0EBF0E0808181608083EAE727
:10317000F0E08081846080838081826080838081B0
:103180008E7F80838081806880831092C100089543
:103190008E3008F08E50877020918E0290E4299F27
:1031A00090011124822B80937C0080917A008064AE
:1031B00080937A0080917A0086FDFCCF8091780020
:1031C0002091790090E0922B08951F93CF93DF9385
:1031D000182FEB0161E00E946D19209711F460E057
:1031E00004C0CF3FD10539F461E0812FDF91CF9149
:1031F0001F910C94A619E12FF0E0EF55F04FE491E8
:10320000E330F9F048F4E130B9F0E230A1F584B5EB
:10321000806284BDC8BD34C0E730E9F0E83019F100
:10322000E43049F580918000806280938000D093E3
:103230008B00C0938A0024C084B5806884BDC7BD5C
:103240001FC080918000806880938000D0938900A7
:10325000C093880015C08091B00080688093B00052
:10326000C093B3000DC08091B00080628093B00025
:10327000C093B40005C0C038D1050CF0B5CFAFCFB6
:10328000DF91CF911F910895833081F028F4813030
:1032900099F08230A1F008958730A9F08830B9F014
:1032A0008430D1F4809180008F7D03C080918000B4
:1032B0008F7780938000089584B58F7702C084B59E
:1032C0008F7D84BD08958091B0008F7703C0809179
:1032D000B0008F7D8093B0000895CF93DF9390E08E
:1032E000FC01EB54F04F2491FC01E753F04F849123
:1032F000882349F190E0880F991FFC01EF50F04FAF
:10330000A591B4918951904FFC01C591D4919FB77B
:10331000611108C0F8948C91209582238C93888148
:1033200082230AC0623051F4F8948C91322F309588
:1033300083238C938881822B888304C0F8948C919A
:10334000822B8C939FBFDF91CF9108950F931F9392
:10335000CF93DF931F92CDB7DEB7282F30E0F9016E
:10336000EF55F04F8491F901EB54F04F1491F901AE
:10337000E753F04F04910023C9F0882321F06983BB
:103380000E9444196981E02FF0E0EE0FFF1FE95120
:10339000F04FA591B4919FB7F8948C91611103C03F
:1033A0001095812301C0812B8C939FBF0F90DF91DB
:1033B000CF911F910F910895CF93DF93282F30E085
:1033C000F901EF55F04F8491F901EB54F04FD4918E
:1033D000F901E753F04FC491CC2391F081110E9481
:1033E0004419EC2FF0E0EE0FFF1FE352F04FA591D0
:1033F000B4912C912D2381E090E021F480E002C073
:1034000080E090E0DF91CF910895FC01818D228DC5
:1034100090E0805C9F4F821B91098F7399270895DC
:10342000FC01918D828D981731F0828DE80FF11D8E
:10343000858D90E008958FEF9FEF0895FC01918DA9
:10344000828D981761F0828DDF01A80FB11D5D9606
:103450008C91928D9F5F9F73928F90E008958FEF74
:103460009FEF08958CE99BE1892B49F08DE49FE063
:10347000892B29F00E949C1B81110C944D0F0895FB
:10348000FC01848DDF01A80FB11DA35ABF4F2C9101
:10349000848D90E001968F739927848FA689B789D0
:1034A0002C93A089B1898C9180648C93938D848DA9
:1034B000981306C00288F389E02D80818F7D808378
:1034C0000895CF93DF93EC01888D8823C9F0EA89B2
:1034D000FB89808185FD05C0A889B9898C9186FD0D
:1034E0000FC00FB607FCF5CF808185FFF2CFA8890A
:1034F000B9898C9185FFEDCFCE010E94401AE7CFAC
:10350000DF91CF910895CF92DF92FF920F931F9397
:10351000CF93DF931F92CDB7DEB76C0181E0D60168
:1035200058968C9358975B969C915B975C968C9180
:103530005C97981307C05096ED91FC91519780814C
:1035400085FD2EC0F601038D10E00F5F1F4F0F7336
:103550001127F02EF601848DF81211C00FB607FC6A
:10356000F9CFD6015096ED91FC915197808185FF5E
:10357000F1CFC60169830E94401A6981EBCF838D28
:10358000E80FF11DE35AFF4F6083D6015B960C9361
:103590005B975296ED91FC915397808180620CC0AD
:1035A000D6015696ED91FC91579760835096ED9118
:1035B000FC91519780818064808381E090E00F903E
:1035C000DF91CF911F910F91FF90DF90CF900895E1
:1035D000BF92CF92DF92EF92FF92CF93DF93EC01F5
:1035E0006A017B01B22E60EC76EC8DE290E0A701DF
:1035F00096010E94B31D2150310941095109569588
:10360000479537952795E889F98982E080832115C8
:1036100080E1380798F0E889F989108260E673EE56
:1036200086E190E0A70196010E94B31D2150310967
:10363000410951095695479537952795EC85FD85A4
:103640003083EE85FF852083188EEC89FD89B0825A
:10365000EA89FB89808180618083EA89FB89808196
:1036600088608083EA89FB89808180688083EA8919
:10367000FB8980818F7D8083DF91CF91FF90EF90D8
:10368000DF90CF90BF9008951F920F920FB60F92C8
:1036900011242F938F939F93EF93FF93E0916506EF
:1036A000F09166068081E0916B06F0916C0682FDD8
:1036B00012C0908180916E068F5F8F7320916F068C
:1036C000821751F0E0916E06F0E0EB5AF94F958FBA
:1036D00080936E0601C08081FF91EF919F918F9141
:1036E0002F910F900FBE0F901F9018951F920F9261
:1036F0000FB60F9211242F933F934F935F936F93C5
:103700007F938F939F93AF93BF93EF93FF9385E541
:1037100096E00E94401AFF91EF91BF91AF919F9167
:103720008F917F916F915F914F913F912F910F906A
:103730000FBE0F901F90189585E596E00E94051A20
:1037400021E0892B09F420E0822F08951092580679
:103750001092570688EE93E0A0E0B0E080935906FF
:1037600090935A06A0935B06B0935C0686E093E0C4
:10377000909356068093550685EC90E090936206F0
:103780008093610684EC90E09093640680936306D6
:1037900080EC90E0909366068093650681EC90E063
:1037A000909368068093670682EC90E090936A0697
:1037B0008093690686EC90E090936C0680936B068C
:1037C00010926E0610926F0610927006109271069B
:1037D0000895CF92DF92EF92FF920F931F93CF93B2
:1037E000DF937C016A01EB0100E010E00C151D0580
:1037F00071F06991D701ED91FC910190F081E02D7C
:10380000C7010995892B19F00F5F1F4FEFCFC80132
:10381000DF91CF911F910F91FF90EF90DF90CF90AC
:1038200008956115710581F0DB010D900020E9F725
:10383000AD0141505109461B570BDC01ED91FC9144
:103840000280F381E02D099480E090E008950C94CB
:10385000111CDC01ED91FC910190F081E02D0994A7
:1038600062E173E00C94111C0F931F93CF93DF93CD
:10387000EC010E94111C8C01CE010E94301C800FB3
:10388000911FDF91CF911F910F9108950F931F9377
:10389000CF93DF93EC010E94291C8C01CE010E9482
:1038A000301C800F911FDF91CF911F910F910895D0
:1038B0008F929F92AF92BF92CF92DF92EF92FF9240
:1038C0000F931F93CF93DF93CDB7DEB7A1970FB6BA
:1038D000F894DEBF0FBECDBF7C01C42EE52FCB0117
:1038E000D22E19A221E02D1510F02AE0D22E8E0141
:1038F0000F5D1F4F8D2C912CA12CB12C6C2D7E2F88
:10390000A50194010E94B31D8C2DD29E8019112413
:10391000015011098A3014F4805D01C0895CF801FE
:103920008083211531054105510521F0C22EE32F79
:10393000CA01E4CFB801C7010E94111CA1960FB6BD
:10394000F894DEBF0FBECDBFDF91CF911F910F91D5
:10395000FF90EF90DF90CF90BF90AF909F908F90AF
:103960000895CF92DF92EF92FF920F931F93CF9320
:10397000DF93EC016A017B012115310579F4E881BF
:10398000F9810190F081E02D642FDF91CF911F919B
:103990000F91FF90EF90DF90CF9009942A3031057E
:1039A000E9F477FF1AC06DE20E94291C8C014427BC
:1039B0005527BA014C195D096E097F092AE0CE012D
:1039C0000E94581C800F911FDF91CF911F910F9182
:1039D000FF90EF90DF90CF9008952AE0B701A60105
:1039E000CE01DF91CF911F910F91FF90EF90DF906B
:1039F000CF900C94581C9A01AB01662757FD609537
:103A0000762F0C94B11C2115310541F4DC01ED91A8
:103A1000FC910190F081E02D642F09940C94581CC6
:103A20009A01462F50E060E070E00C94031D4F9225
:103A30005F926F927F92AF92BF92CF92DF92EF929E
:103A4000FF920F931F93CF93DF93CDB7DEB729017A
:103A50003A01621B730B840B950B29893A894B89B8
:103A60005C892A193B094C095D09298B3A8B4B8BE0
:103A70005C8B9B01AC0169897A898B899C890E9446
:103A80006F1DE418F50806091709A80197010E949F
:103A9000D51D2A0D3B1D4C1D5D1DCA01B901DF91CD
:103AA000CF911F910F91FF90EF90DF90CF90BF903B
:103AB000AF907F906F905F904F90089508950E940F
:103AC0008D180E945E1D0E94B508C2E3DAE10E94D3
:103AD000220E2097E1F30E94321AF9CF0895DB01FC
:103AE0008F939F930E94FA1DBF91AF91A29F800D6B
:103AF000911DA39F900DB29F900D11240895991BC5
:103B000079E004C0991F961708F0961B881F7A95D4
:103B1000C9F780950895AA1BBB1B51E107C0AA1FD6
:103B2000BB1FA617B70710F0A61BB70B881F991F5E
:103B30005A95A9F780959095BC01CD01089597FB02
:103B4000072E16F4009407D077FD09D00E948B1D34
:103B500007FC05D03EF4909581959F4F0895709590
:103B600061957F4F0895A1E21A2EAA1BBB1BFD0190
:103B70000DC0AA1FBB1FEE1FFF1FA217B307E4074C
:103B8000F50720F0A21BB30BE40BF50B661F771FA4
:103B9000881F991F1A9469F7609570958095909584
:103BA0009B01AC01BD01CF010895052E97FB1EF4CA
:103BB00000940E94EC1D57FD07D00E94B31D07FC26
:103BC00003D04EF40C94EC1D509540953095219502
:103BD0003F4F4F4F5F4F0895909580957095619539
:103BE0007F4F8F4F9F4F0895EE0FFF1F0590F49169
:103BF000E02D09940E94051EA59F900DB49F900D85
:103C0000A49F800D911D11240895A29FB001B39F20
:103C1000C001A39F700D811D1124911DB29F700DD5
:103C2000811D1124911D0895F999FECF92BD81BD8A
:103C3000F89A992780B50895262FF999FECF1FBAD3
:103C400092BD81BD20BD0FB6F894FA9AF99A0FBEC5
:083C500001960895F894FFCFDE
:103C58000100000032000000000000000000000029
:103C68000000000000000080C0C0E0E0F0F0F0F8C4
:103C7800F8F8F8F8FCFCFCFCFCFCFCF8F8F8F0E0C0
:103C8800E0C080000000000000000000000000000C
:103C9800000000000000000000000000000000001C
:103CA80000C0F0F8FEFEFFFFFFFFFFFFFFFFFFFF72
:103CB800FFFFFF7F3F9F9FDFFFBF9F9FBFBFFFFFAC
:103CC800FFFFFFFFFCF8E00000000000000000001C
:103CD80000000000000000000000000000000000DC
:103CE800FEFFFFFFFFFFFFFFFFFFFFFFFFFFFFFFDD
:103CF800FFFFFFFFC3C9C1C3FFC38981C3FFFFFF24
:103D0800FFFFFFFFFFFFFF7F4000000000000000F3
:103D1800000000000000000000000000000000009B
:103D2800033FFFFFFFFFFFFFF1E08EBC2DC9933F6C
:103D38007F7FFFFFFFFFFFFFFFFFFFFFFFFFFFFF8B
:103D4800FFFFFF7F3F9CC6761F07000000000000B2
:103D5800000000000000000000000000000000005B
:103D6800000001070F1F7FFFFFFFFFFFFFFFFFFF9F
:103D7800FFFEFCFCFDF9FBFBFBF3F3F3F3FBFBFBA2
:103D8800F9FDFCFEFF3F07000000000000000000F6
:103D9800000000000000000000000000000000001B
:103DA8000000000000000000010307070F1F1F3F6D
:103DB8003F3F3F3F3F7FFFFFFFEFEF8F0F0F0F0F9B
:103DC80007070101000000000000000000000000DB
:103DD800000000000000A00A9A0486007C01013857
:103DE8002C3E3E383E98783C181C7C546C547C3CE5
:103DF8000C1C1C0C3C206028A8A8F878383030200F
:103E08002030002E0020202044696E6F003D3D3D8B
:103E18003D3D3D3D3D3D3D004869676873636F72B8
:103E2800653A002047616D65204F76657200202055
:103E3800002A0047616D6520210000000000EC1396
:103E4800E91B00000000C21595156A157215851545
:103E5800941500000000831AE91B051A1E1A101A8F
:103E6800611A0D0A006E616E00696E66006F7666F3
:023E7800000048
:00000001FF
