:100000000C94F1020C9419030C9419030C94190329
:100010000C9419030C9419030C9419030C941903F0
:100020000C9419030C9419030C9419030C941903E0
:100030000C9419030C9419030C9419030C941903D0
:100040000C9457090C9419030C9456080C9430081E
:100050000C9419030C9419030C9419030C941903B0
:100060000C94A1090C94190305A84CCDB2D44EB937
:100070003836A9020C50B9918688083CA6AAAA2A4B
:10008000BE000000803F00000000240027002A007E
:10009000010204081020408001020408102001021F
:1000A0000408102000000000250028002B00040494
:1000B0000404040404040202020202020303030310
:1000C00003030000000023002600290000000008B0
:1000D000000201000003040700000000000000000F
:1000E00000000000003E5B4F5B3E3E6B4F6B3E1CD2
:1000F0003E7C3E1C183C7E3C181C577D571C1C5EE9
:100100007F5E1C00183C1800FFE7C3E7FF001824BF
:100110001800FFE7DBE7FF30483A060E2629792969
:1001200026407F050507407F05253F5A3CE73C5A9E
:100130007F3E1C1C08081C1C3E7F14227F22145F7B
:100140005F005F5F06097F017F006689956A6060D6
:1001500060606094A2FFA29408047E040810207ED0
:10016000201008082A1C08081C2A08081E10101055
:10017000100C1E0C1E0C30383E3830060E3E0E069B
:10018000000000000000005F0000000700070014EE
:100190007F147F14242A7F2A1223130864623649AD
:1001A0005620500008070300001C22410000412295
:1001B0001C002A1C7F1C2A08083E0808008070309A
:1001C0000008080808080000606000201008040209
:1001D0003E5149453E00427F40007249494946210F
:1001E00041494D331814127F1027454545393C4A83
:1001F000494931412111090736494949364649499A
:10020000291E0000140000004034000000081422E1
:10021000411414141414004122140802015909064F
:100220003E415D594E7C1211127C7F494949363E50
:10023000414141227F4141413E7F494949417F0936
:100240000909013E414151737F0808087F00417F41
:1002500041002040413F017F081422417F4040403F
:10026000407F021C027F7F0408107F3E4141413ED7
:100270007F090909063E4151215E7F091929462659
:100280004949493203017F01033F4040403F1F205D
:1002900040201F3F4038403F631408146303047834
:1002A00004036159494D43007F4141410204081054
:1002B00020004141417F040201020440404040408F
:1002C000000307080020545478407F2844443838FD
:1002D00044444428384444287F385454541800086F
:1002E0007E090218A4A49C787F0804047800447D49
:1002F00040002040403D007F1028440000417F40E6
:10030000007C047804787C08040478384444443839
:10031000FC1824241818242418FC7C080404084819
:100320005454542404043F44243C4040207C1C206A
:1003300040201C3C4030403C44281028444C9090C5
:10034000907C4464544C440008364100000077001F
:1003500000004136080002010204023C2623263C2C
:100360001EA1A161123A4040207A385454555921B7
:10037000555579412254547842215554784020549F
:100380005579400C1E5272123955555559395454ED
:10039000545939555454580000457C410002457D5C
:1003A000420001457C407D1211127DF0282528F085
:1003B0007C545545002054547C547C0A097F4932B2
:1003C000494949323A4444443A324A4848303A4129
:1003D00041217A3A42402078009DA0A07D3D4242D2
:1003E000423D3D4040403D3C24FF2424487E49435B
:1003F000662B2FFC2F2BFF0929F620C0887E0903CE
:1004000020545479410000447D413048484A3238F4
:100410004040227A007A0A0A727D0D19317D262920
:10042000292F28262929292630484D402038080818
:10043000080808080808382F10C8ACBA2F1028344C
:10044000FA00007B000008142A142222142A14083F
:100450005500550055AA55AA55AAFF55FF55FF004E
:100460000000FF00101010FF00141414FF00101003
:10047000FF00FF1010F010F0141414FC001414F717
:1004800000FF0000FF00FF1414F404FC1414171004
:100490001F10101F101F1414141F00101010F00054
:1004A0000000001F101010101F10101010F010008E
:1004B0000000FF101010101010101010FF1000009E
:1004C00000FF140000FF00FF00001F10170000FCD9
:1004D00004F414141710171414F404F40000FF00AB
:1004E000F714141414141414F700F7141414171434
:1004F00010101F101F141414F4141010F010F0003A
:10050000001F101F0000001F14000000FC1400005A
:10051000F010F01010FF10FF141414FF141010103E
:100520001F00000000F010FFFFFFFFFFF0F0F0F0F1
:10053000F0FFFFFF0000000000FFFF0F0F0F0F0F85
:100540003844443844FC4A4A4A347E0202060602D1
:100550007E027E0263554941633844443C04407E38
:10056000201E2006027E020299A5E7A5991C2A49B1
:100570002A1C4C7201724C304A4D4D30304878483C
:1005800030BC625A463D3E494949007E0101017E28
:100590002A2A2A2A2A44445F444440514A4440407B
:1005A000444A51400000FF0103E080FF00000808BA
:1005B0006B6B083612362436060F090F060000183A
:1005C000180000001010003040FF0101001F010161
:1005D0001E00191D1712003C3C3C3C0000000000AE
:1005E000B11911241FBECFEFD8E0DEBFCDBF15E09B
:1005F000A0E0B1E0E2E9FCE302C005900D92AC3569
:10060000B107D9F728E0ACE5B5E001C01D92AD30E7
:10061000B207E1F712E0C1EFD2E004C02197FE017A
:100620000E946A1AC03FD107C9F70E947B130C943D
:10063000471E0C940000CF92DF92EF92FF920F932F
:100640001F93CF93DF936C017A018B01C0E0D0E060
:10065000CE15DF0589F0D8016D918D01D601ED91A0
:10066000FC910190F081E02DC6010995892B11F4D0
:100670007E0102C02196ECCFC701DF91CF911F917F
:100680000F91FF90EF90DF90CF900895FC01918D36
:10069000828D981761F0828DDF01A80FB11D5D96E4
:1006A0008C91928D9F5F9F73928F90E008958FEF52
:1006B0009FEF0895FC01918D828D981731F0828D06
:1006C000E80FF11D858D90E008958FEF9FEF08955D
:1006D000FC01918D228D892F90E0805C9F4F821BC1
:1006E00091098F73992708958EE597E00E9468031A
:1006F00021E0892B09F420E0822F0895FC01848DEC
:10070000DF01A80FB11DA35ABF4F2C91848D90E03B
:1007100001968F739927848FA689B7892C93A08916
:10072000B1898C9180648C93938D848D981306C0CD
:100730000288F389E02D80818F7D80830895EF9278
:10074000FF920F931F93CF93DF93EC0181E0888F8B
:100750009B8D8C8D981305C0E889F989808185FD72
:1007600024C0F62E0B8D10E00F5F1F4F0F73112763
:10077000E02E8C8DE8120CC00FB607FCFACFE8898A
:10078000F989808185FFF5CFCE010E947E03F1CFEC
:100790008B8DFE01E80FF11DE35AFF4FF0820B8FA6
:1007A000EA89FB898081806207C0EE89FF896083C6
:1007B000E889F98980818064808381E090E0DF911D
:1007C000CF911F910F91FF90EF900895CF93DF93FA
:1007D000EC01888D8823C9F0EA89FB89808185FD39
:1007E00005C0A889B9898C9186FD0FC00FB607FC9A
:1007F000F5CF808185FFF2CFA889B9898C9185FFDB
:10080000EDCFCE010E947E03E7CFDF91CF91089517
:100810000E94740381110C9462100895833081F05A
:1008200028F4813099F08230A1F008958730A9F042
:100830008830B9F08430D1F4809180008F7D03C07E
:10084000809180008F7780938000089584B58F77A2
:1008500002C084B58F7D84BD08958091B0008F77EC
:1008600003C08091B0008F7D8093B00008953FB7A2
:10087000F89480910F0790911007A0911107B09103
:10088000120726B5A89B05C02F3F19F00196A11DA0
:10089000B11D3FBFBA2FA92F982F8827820F911D16
:1008A000A11DB11DBC01CD0143E0660F771F881F5C
:1008B000991F4A95D1F7089585ED8093BC008091EA
:1008C000BC0084FDFCCF1092390708954091E506E5
:1008D000262F30E0240F311D21323105DCF4209128
:1008E00039072430C9F4FC0180E090E0861758F401
:1008F0003091E5062191DC01AD53B94FA30FB11D35
:100900002C930196F3CF8091E506680F6093E5067E
:1009100080E0089581E0089582E00895089581E0DF
:1009200090E030915D0520915C05321710F480E075
:1009300090E0919581959109089580915D05909140
:100940005C05891730F48F5F80935D0580E090E04F
:1009500008958FEF9FEF089580915C0590E02091BE
:100960005D05821B91090895CF92DF92EF92FF926D
:100970000F931F93CF93DF937C01262F972F8A012C
:1009800080913A07882391F0C62FD72F6E01C40EAD
:10099000D51ECC15DD0571F06991D701ED91FC9163
:1009A0000190F081E02DC7010995F3CF642F822FCC
:1009B0000E946604C801DF91CF911F910F91FF90B3
:1009C000EF90DF90CF900895CF93DF931F92CDB734
:1009D000DEB7698320913A072223D1F020915D0789
:1009E000203240F021E030E0FC013383228380E0BC
:1009F00090E015C080913B07E82FF0E0E45CF84FF1
:100A0000998190838F5F80933B0780935D0705C03A
:100A100061E0CE0101960E94660481E090E00F90B3
:100A2000DF91CF9108950F931F93CF93DF93DC0154
:100A300055968C915597823071F0833009F1813051
:100A400009F08CC01496ED91FC911597E41BF50B01
:100A5000E21BF30B20C01496ED91FC911597CF018A
:100A6000861B970BBC01615071091696ED91FC91A4
:100A70001797CF01841B950BAC01421B530B6EC023
:100A80001696ED91FC911797CF01861B970BBC0131
:100A900061507109FA0177FD1BC116968D919C91E9
:100AA0001797681779070CF013C1F7FF04C02E0FD2
:100AB0003F1FE0E0F0E014968D919C911597AF01F7
:100AC000420F531F841795071CF49C012E1B3F0BEC
:100AD000121613060CF0FCC0CB0177FD079643E01D
:100AE000959587954A95E1F79695982F882797953C
:100AF0008795E80FF91FEB5FFE4F6770772781E05E
:100B000090E001C0880F6A95EAF7482F013011057F
:100B100041F088F00230110509F0DAC02E0F3F1FB6
:100B200015C02E0F3F1FE217F30709F4D1C08081D3
:100B3000842B8193F8CF80952E0F3F1FE217F30788
:100B400009F4C6C0908198239193F8CFE217F30778
:100B500009F4BEC0808184278193F8CF77FDB8C0A7
:100B600014968D919C911597681779070CF0B0C079
:100B700057FF04C0240F351F40E050E016968D91BA
:100B80009C911797FA01E20FF31F8E179F071CF431
:100B90009C01241B350B121613060CF099C0A22FD2
:100BA000842F86958695869590E8899F600D711DA6
:100BB0001124FB01EB5FFE4F4770A9F198E0941BF5
:100BC000492F50E0EA01CD5EDA4F8881291790F471
:100BD000421B51092FEF30E002C0359527954A9509
:100BE000E2F782230130110541F068F0023011056F
:100BF00089F06EC00130110519F42081822B0CC0E0
:100C00000130110520F480952081822305C0023037
:100C1000110531F4208182278083A91708F458C078
:100C2000A91BE058FF4FA83048F10230110559F4D4
:100C3000EF018A2F988190959883C058DF4F885094
:100C40008830C0F730C081E00130110509F080E044
:100C50008195EF019A2F8883C058DF4F98509830C4
:100C6000D0F788EF8A0F86958695869590E8899FBC
:100C7000E00DF11D1124E058FF4FA770AA2341F1A8
:100C8000B0E0A55FBA4F8C910130110529F038F022
:100C900002301105D1F01CC09081892B18C08095BD
:100CA0009081892314C088EF8A0F86958695869552
:100CB00090E8899FE00DF11D1124E058FF4FA770C7
:100CC00039F0B0E0A55FBA4F8C919081892780837D
:100CD000DF91CF911F910F9108950F931F93CF93A1
:100CE000DF93DC01FB0155968C915597823081F0A2
:100CF000833019F1813051F514968D919C9115979F
:100D0000BC01641B750BAB0141505109BF0181C08F
:100D100014966D917C911597CB018E1B9F0BFC0156
:100D200016968D919C911797BC01641B750BAB01B6
:100D300041505109E21BF30B09C016966D917C914D
:100D400017976E1B7F0B621B730B63C057FD1CC193
:100D500016968D919C911797481759070CF014C15E
:100D6000F7FF04C02E0F3F1FE0E0F0E014968D91D6
:100D70009C911597BF01620F731F861797071CF48C
:100D80009C012E1B3F0B121613060CF0FDC0CA016E
:100D900057FD079663E0959587956A95E1F79695D7
:100DA000982F882797958795E80FF91FEB5FFE4FDF
:100DB0004770552781E090E001C0880F4A95EAF717
:100DC000482F0130110541F088F00230110509F07B
:100DD000DBC02E0F3F1F15C02E0F3F1FE217F3077A
:100DE00009F4D2C08081842B8193F8CF80952E0F97
:100DF0003F1FE217F30709F4C7C09081982391932E
:100E0000F8CFE217F30709F4BFC0808184278193EC
:100E1000F8CF57FDB9C014968D919C91159748173E
:100E200059070CF0B1C077FF04C0260F371F60E0F0
:100E300070E016968D919C911797FB01E20FF31FBE
:100E40008E179F071CF49C01261B370B12161306E6
:100E50000CF09AC0A22F862F86958695869590E8ED
:100E6000899F400D511D1124FA01EB5FFE4F677001
:100E7000A9F198E0961B492F50E0EA01CD5EDA4FC8
:100E80008881291790F4421B51092FEF30E002C0EE
:100E9000359527954A95E2F782230130110541F0F7
:100EA00068F00230110589F06FC00130110519F4A6
:100EB0002081822B0CC00130110520F48095208107
:100EC000822305C00230110531F4208182278083FE
:100ED000A91708F459C0A91BE058FF4FA83048F1E2
:100EE0000230110559F4EF018A2F9881909598836B
:100EF000C058DF4F88508830C0F731C081E00130E2
:100F0000110509F080E08195EF019A2F8883C05880
:100F1000DF4F98509830D0F788EF8A0F86958695E6
:100F2000869560E8869FE00DF11D1124E058FF4F83
:100F3000A770AA2349F1B0E0A55FBA4F8C910130A8
:100F4000110529F038F002301105D9F01DC090814B
:100F5000892B03C0809590818923808315C088EFF9
:100F60008A0F86958695869570E8879FE00DF11D1E
:100F70001124E058FF4FA77039F0B0E0A55FBA4FD9
:100F80008C9190818927E9CFDF91CF911F910F91AB
:100F900008950E94421EDC01ED91FC910190F081C8
:100FA000E02D09946115710579F0FB010190002095
:100FB000E9F73197AF01461B570BDC01ED91FC912E
:100FC0000280F381E02D099480E090E008954F9233
:100FD0005F926F927F92EF92FF920F931F93CF9346
:100FE000DF93CDB7DEB7A1970FB6F894DEBF0FBE83
:100FF000CDBF7C01FA01CB0119A2223008F42AE00E
:101000008E010F5D1F4F422E512C612C712CBF01A0
:10101000A30192010E94291AF901CA010150110984
:101020006A3014F4605D01C0695CD8016C93232BB5
:10103000242B252B61F7B801C7010E94D207A19686
:101040000FB6F894DEBF0FBECDBFDF91CF911F91D9
:101050000F91FF90EF907F906F905F904F90089569
:101060001F920F920FB60F9211242F933F934F931D
:101070005F936F937F938F939F93AF93BF93EF9300
:10108000FF938EE597E00E947E03FF91EF91BF9161
:10109000AF919F918F917F916F915F914F913F9110
:1010A0002F910F900FBE0F901F9018951F920F92C7
:1010B0000FB60F9211242F938F939F93EF93FF936B
:1010C000E0916E07F0916F078081E0917407F091D5
:1010D000750782FD12C09081809177078F5F8F73B3
:1010E00020917807821751F0E0917707F0E0E25AFB
:1010F000F84F958F8093770701C08081FF91EF9122
:101100009F918F912F910F900FBE0F901F90189568
:10111000CF93DF93282F30E0F901E453FF4F849100
:10112000F901E057FF4FD491F901E255FF4FC49107
:10113000CC2391F081110E940E04EC2FF0E0EE0F11
:10114000FF1FEE53FF4FA591B491EC91ED2381E089
:1011500090E021F480E002C080E090E0DF91CF9148
:1011600008951F93CF93DF93282F30E0F901E453C4
:10117000FF4F8491F901E057FF4FD491F901E255F7
:10118000FF4FC491CC23C9F0162F81110E940E0489
:10119000EC2FF0E0EE0FFF1FEC55FF4FA591B4913F
:1011A0008FB7F894111105C09C91ED2FE095E923BC
:1011B00002C0EC91ED2BEC938FBFDF91CF911F918B
:1011C0000895CF93DF9390E0FC01E057FF4F249107
:1011D000FC01E255FF4F8491882361F190E0880F74
:1011E000991FFC01EA57FF4FC591D491FC01EC55C2
:1011F000FF4FA591B491611109C09FB7F894888100
:10120000209582238883EC912E230BC0623061F4F9
:101210009FB7F8943881822F809583238883EC913F
:101220002E2B2C939FBF06C08FB7F894E8812E2BEE
:1012300028838FBFDF91CF9108958F929F92AF92B5
:10124000BF92CF92DF92EF92FF926B017C010E94DE
:1012500037044B015C01C114D104E104F104F1F045
:101260000E943704DC01CB0188199909AA09BB093E
:10127000883E9340A105B10570F321E0C21AD10860
:10128000E108F10888EE880E83E0981EA11CB11CCD
:10129000C114D104E104F10419F7DDCFFF90EF9000
:1012A000DF90CF90BF90AF909F908F9008951F9246
:1012B0000F920FB60F9211242F933F938F939F930A
:1012C000AF93BF9380910B0790910C07A0910D07EE
:1012D000B0910E0730910A0726E0230F2D3720F436
:1012E0000296A11DB11D05C029E8230F0396A11D7B
:1012F000B11D20930A0780930B0790930C07A093CE
:101300000D07B0930E0780910F0790911007A091E1
:101310001107B09112070196A11DB11D80930F070F
:1013200090931007A0931107B0931207BF91AF914C
:101330009F918F913F912F910F900FBE0F901F9013
:1013400018951F920F920FB60F9211242F933F936F
:101350004F935F936F937F938F939F93AF93BF93BD
:10136000EF93FF938091B900887F803609F49CC089
:1013700068F5883209F45BC090F4803109F454C0F8
:1013800038F4882309F4F6C0883009F44DC0F6C05B
:10139000883109F44CC0803209F45DC0EFC080345C
:1013A00009F468C048F4803309F455C0883309F063
:1013B000E5C080933707D8C0803509F44FC0883521
:1013C00009F45DC0883409F0D9C0D6C0883909F461
:1013D000C7C0A8F4883709F467C038F4883609F420
:1013E00063C0803709F460C0C9C0883809F4B8C048
:1013F000803909F45FC0803809F0C0C05BC0803B11
:1014000009F486C038F4803A09F466C0883A09F4D1
:101410007FC0B4C0803C09F4A7C0883C09F4A4C0D4
:10142000883B09F48AC0AAC08091140710C090912B
:10143000360780913507981770F5E091360781E0FF
:101440008E0F80933607F0E0EB5EF84F808180933B
:10145000BB0085EC86C0809337078EC0E0913607CD
:1014600081E08E0F809336078091BB00F0E0EB5E49
:10147000F84F808390913607809135076EC0E091D8
:10148000360781E08E0F809336078091BB00F0E035
:10149000EB5EF84F80838091380781116DC081E049
:1014A0008093130784EA61C083E080933907109228
:1014B0000907CFCF80910907803208F051C0E09131
:1014C000090781E08E0F809309078091BB00F0E04F
:1014D000E751F94F8083BDCF85EC8093BC0010921B
:1014E000390780910907803230F4E0910907F0E074
:1014F000E751F94F10826091090770E0E091E7062B
:10150000F091E80689EE96E009951092090736C039
:1015100084E0809339071092E6061092E506E09188
:10152000E306F091E40609958091E506811105C076
:1015300081E08093E5061092C306E091E60681E023
:101540008E0F8093E606F0E0ED53F94F8081809393
:10155000BB009091E6068091E506981708F479CFD4
:1015600085E88093BC000AC085EC8093BC00109293
:10157000390704C0109237070E945C04FF91EF9175
:10158000BF91AF919F918F917F916F915F914F919B
:101590003F912F910F900FBE0F901F901895FC0157
:1015A00081A1882339F06EBD00000DB407FEFDCF88
:1015B0008EB5089528E030E090E8A4A1B5A14C9143
:1015C00083A5809584238C93A2A1B3A182A5492FE2
:1015D000462319F04C91842B03C04C9180958423B1
:1015E0008C93A4A1B5A14C9183A5842B8C93969543
:1015F0002150310911F7089580E094E0E5E0F1E031
:10160000DF019C011D9221503040E1F70895FC015B
:1016100077FD9AC080859185681779070CF094C092
:1016200057FD92C082859385481759070CF08CC0EE
:101630008589823009F07CC084819581DC01A61BFC
:10164000B70BBD016150710986819781FC01E41BD4
:10165000F50BAF01415051090AC0813041F484813A
:101660009581841B950BAB01BC0161507109213040
:10167000310529F008F122303105E1F10895FA0130
:1016800057FD3796A3E0F595E795AA95E1F7F6950E
:10169000FE2FEE27F795E7956E0F7F1FFB01EB5F9F
:1016A000FE4F4770552781E090E001C0880F4A95B2
:1016B000EAF79081892B3AC0FA0157FD379623E06B
:1016C000F595E7952A95E1F7F695FE2FEE27F79524
:1016D000E7956E0F7F1FFB01EB5FFE4F47705527AD
:1016E00081E090E001C0880F4A95EAF780959081EB
:1016F00089231CC0FA0157FD379683E0F595E795DD
:101700008A95E1F7F695FE2FEE27F795E7956E0F90
:101710007F1FFB01EB5FFE4F4770552781E090E094
:1017200001C0880F4A95EAF7908189278083089540
:10173000833009F092CF86819781861B970BBA017F
:10174000AC014150510993CF089508952F923F92D3
:101750004F925F926F927F928F929F92AF92BF92C1
:10176000CF92DF92EF92FF920F931F93CF93DF936D
:10177000CDB7DEB76B970FB6F894DEBF0FBECDBF07
:101780004C015A8349831F830E83FD82EC82CB82F6
:10179000DC0158964D915C9159974115510509F01E
:1017A000A5C018968D919C911997681779070CF030
:1017B0005AC11A968D919C911B97E981FA81E8177D
:1017C000F9070CF050C1D12CCB013B81F6E03F9FD3
:1017D000800D911D1124181619060CF044C1C60184
:1017E00033E0880F991F3A95E1F749815A81840FB8
:1017F000951F181619060CF036C157968C91811159
:1018000003C0203B08F02F5F55E0259F9001112475
:101810007E876D875B01212CC901861B970B9987F9
:101820008887A981BA811896BB87AA87B5E02B164D
:1018300041F0E885F985EA0DFB1DE052FF4F349039
:1018400001C0312C69807A80230130FE12C0D4019E
:10185000ED91FC91BB81B13031F40480F581E02D34
:101860002E813F8118C00684F785E02DEE80FF8031
:101870001CC0EC81FD812E813F81E217F307E1F06E
:10188000D401ED91FC91BB81B13051F40480F5811C
:10189000E02D2C813D81A301B501C40109950CC047
:1018A0000684F785E02DEC80FD8086019601A2017B
:1018B0006D857E85C40109953694EFEF6E1A7E0A18
:1018C0004C0C5D1C2A853B856216730609F0BDCF62
:1018D00023943FEFA31AB30A4D855E854C0D5D1D21
:1018E0005E874D8756E02512A1CFBDC0FA01349620
:1018F0003491329785919491231BA7E02A9F800D04
:10190000911D1124FA01259134913A8B298BFC0108
:1019100025903490FC013296349138873196449169
:101920004C873196E491FC013596A49131968491CF
:101930005B81523050F06A2E0A2E000C7708E82F97
:10194000082E000CFF0BFB87EA87FB81CF2ED12CE2
:101950006C9C90016D9C300D7C9C300D1124A90174
:10196000460F571F588B4F871C82A12CEA2FAA0FB6
:10197000FF0B3B016E0E7F1E5885650F711DDB014D
:10198000AE0FBF1FBF8BAE8BE981FA81E80FF11D4F
:1019900087FDFA95F98FE88F9C85A91608F063C03A
:1019A0008A2D90E04A855B85480F591F4C9D900118
:1019B0004D9D300D5C9D300D1124A981BA81A20F7F
:1019C000B31FBE87AD877B8E6A8E4F845888BC81DB
:1019D000B619BB8BE88DF98DE80FF91FFD8BEC8BE9
:1019E0008B89FA8D8F0F2A8D3B8D4E895F89241745
:1019F000350799F1877041F4C1010196E989FA89A7
:101A0000E20DF31DB4901C01B7FE1EC0D401ED9190
:101A1000FC91BB81B13061F40480F581E02D2E8111
:101A20003F814C895D896A8D7B8DC40109950CC00D
:101A30000684F785E02DEE80FF80860196014D85B6
:101A40005E85B201C4010995BB0CEA8DFB8D319610
:101A5000FB8FEA8F4C0C5D1CC3CF5C818885580FCF
:101A60005C83A39499CF6B960FB6F894DEBF0FBE3C
:101A7000CDBFDF91CF911F910F91FF90EF90DF903D
:101A8000CF90BF90AF909F908F907F906F905F901E
:101A90004F903F902F900895AF92BF92CF92EF92C8
:101AA000FF920F931F93CF93DF93EC01262F888D26
:101AB000998D009709F042C06A3069F42C898E85AF
:101AC0009F8538E0239F800D911D11249F878E876D
:101AD0001D861C86ACC06D3009F4A9C08E89882390
:101AE000C1F03C898C859D8546E0349F800D911D19
:101AF000112448855985841795075CF01D861C863E
:101B00008E859F85E8E03E9F800D911D11249F8763
:101B10008E87EA88FB88088919894E855F856C85E0
:101B20007D85CC88CE010E94A60B2C898C859D8555
:101B3000F6E02F9F800D911D112441C06A3079F489
:101B40001D861C862C89FC013696E4918E859F8526
:101B50002E9F800D911D11249F878E8768C06D3048
:101B600009F465C0AC014C5F5F4FFA013491631713
:101B700008F45DC03196E491E61708F458C0FA0104
:101B80004491362F341BFC013296A590B490F7E0B7
:101B90003F9FA00CB11C1124F5013296349131966F
:101BA000E491332311F0E1110DC0F5013496E49175
:101BB0002C898C859D85E29F800D911D11249D8728
:101BC0008C8735C0F501359644915E89552311F116
:101BD0006C89E32FF0E0E40FF11D47FDFA956E9F4D
:101BE000D0016F9FB00D11244C855D854A0F5B1F9E
:101BF000E885F9854E175F076CF01D861C86FC0191
:101C00003696E4918E859F856E9F800D911D1124DF
:101C10009F878E87EA88FB88088919894E855F85AA
:101C20006C857D85CC88CE010E94A60BBECF81E05D
:101C300090E0DF91CF911F910F91FF90EF90CF90A7
:101C4000BF90AF900895EF92FF920F931F93DC0126
:101C5000ED91FC9111971A960D911C911B97189676
:101C60002D913C9119970684F785E02D7B0140E08A
:101C700050E060E070E009951F910F91FF90EF90A8
:101C800008956F927F928F929F92AF92BF92CF9260
:101C9000DF92EF92FF920F931F93CF93DF936C012C
:101CA0005A014801EB013B01620E731EC615D705B0
:101CB00074F4D601ED91FC910084F185E02D87014B
:101CC0009401A501BE01C60109952196EFCFDF91D0
:101CD000CF911F910F91FF90EF90DF90CF90BF9029
:101CE000AF909F908F907F906F900895EF92FF92AA
:101CF0000F931F93DC01ED91FC91260F371F2150AC
:101D000031090680F781E02D78018A0109951F913C
:101D10000F91FF90EF900895EF92FF920F931F9312
:101D20007801DC01ED91FC91240F351F89010150F0
:101D300011090680F781E02D9B0109951F910F91F4
:101D4000FF90EF9008956F927F928F929F92AF9243
:101D5000BF92CF92DF92EF92FF920F931F93CF9398
:101D6000DF93EC014B015A0169013801E881F981E7
:101D70000284F385E02D87010995E881F981A501A9
:101D8000460D571D415051090284F385E02D9601FF
:101D9000B401CE010995E881F9810084F185E02D37
:101DA0009301A501B401CE010995E881F981C80C20
:101DB000D91CB601615071090084F185E02D9301B1
:101DC000A501CE010995DF91CF911F910F91FF9051
:101DD000EF90DF90CF90BF90AF909F908F907F90CB
:101DE0006F9008952F923F924F925F926F927F92E1
:101DF0008F929F92AF92BF92CF92DF92EF92FF921B
:101E00000F931F93CF93DF9300D01F92CDB7DEB710
:101E10004C017B836A836A01590117019801241BD5
:101E2000350B37FF03C0319521953109C5014A8132
:101E30005B81841B950B97FF03C091958195910958
:101E400051E059838217930714F019820BC09A2D21
:101E50008B2D5801092F182F9A818B81DB82CA8222
:101E6000C92ED82E8A819B81A816B9065CF49C2DB8
:101E70008D2D6801092F182F9A818B81BB82AA8230
:101E8000A92EB82E2501AA81BB814A1A5B0A380106
:101E90006C187D0877FE03C071946194710872011B
:101EA00057FE03C0BFEFEB1AFB0AF594E794C01688
:101EB000D1061CF00FEF1FEF1FC001E010E01CC0A7
:101EC000D401ED91FC91B9810480F581E02D91015F
:101ED000BB23C1F04A815B81B601C4010995E618B4
:101EE000F708F7FE04C0C00ED11EE40CF51CEA8111
:101EF000FB813196FB83EA834A815B81A416B50698
:101F0000FCF604C0A6016A817B81E7CF0F900F9099
:101F10000F90DF91CF911F910F91FF90EF90DF9085
:101F2000CF90BF90AF909F908F907F906F905F9079
:101F30004F903F902F9008951F93CF93DF93EC0124
:101F4000162F8C8D8F3F09F1EEA1FFA190818CA5FA
:101F5000892B8083E8A5F9A590818DA5809589239B
:101F60008083EEA1FFA190818CA580958923808339
:101F7000CE010E94CF0AEEA1FFA190818CA5892BF2
:101F80008083DF91CF911F9108958A8D91E0909386
:101F90003A0780935C0710923B0710925D0760E060
:101FA0008BEF97E00E94E404612F8BEF97E00E9493
:101FB000E404DF91CF911F910C94EA12CF92DF924B
:101FC000EF92FF920F931F93CF93DF93EC0161E2A7
:101FD0000E949C0F60E0CE010E949C0F6FE7CE0133
:101FE0000E949C0F62E2CE010E949C0F60E0CE0135
:101FF0000E949C0F67E0CE010E949C0F8C8D8F3F4A
:1020000031F1EEA1FFA190818CA5892B8083E8A5F9
:10201000F9A590818DA5892B8083EEA1FFA19081E8
:102020008CA580958923808305E011E0F8016191FA
:102030008F01CE010E94CF0AF5E005301F07B1F7EE
:10204000EEA1FFA190818CA5892B808332C0D09016
:10205000B8008CE08093B80005E011E0CC24C39474
:102060008A8DC0923A0780935C0710923B071092CA
:102070005D0760E48BEF97E00E94E404E12CF12C13
:10208000F801EE0DFF1D60818BEF97E00E94E404E4
:102090008FEFE81AF80AE0E1EE16F10489F70E94E2
:1020A000EA12005F1F4FF5E005301F07C9F6D09216
:1020B000B800DF91CF911F910F91FF90EF90DF90CB
:1020C000CF900895CF93DF93C4E1D0E08EE597E001
:1020D0000E946803892B09F465C08EE597E00E9491
:1020E00046039EE3980F923088F3982F8A3099F434
:1020F0006FEA80910708909108080E949C0FE09178
:102100000301F0910401E05AFA4F108210925F052A
:1021100010925E05DBCF20910301309104018F39CD
:10212000C1F0803BC1F08D3BC1F0823BC1F0843AED
:10213000C1F0863BC1F08C3BC1F08438C1F08639D8
:10214000C1F08C39C1F08B3AC1F08B3BB9F49FEAF6
:1021500015C090EE13C098EF11C09BEA0FC09DEF21
:102160000DC094E80BC094E909C091E807C09EE84F
:1021700005C099E903C09AE901C09EEAF901E05A55
:10218000FA4F9083C90101968E3521E092072CF415
:10219000909304018093030199CFD0930401C093DD
:1021A000030194CFDF91CF910895E0910708F0915A
:1021B000080883E0848B158614868CE090E097876E
:1021C0008687809102018A3028F466E575E0CF01A8
:1021D0000E94D207809102010E947013E0910708CB
:1021E000F091080882E0848B84E290E095878487F0
:1021F0008FE090E09787868768E575E0CF010E94C1
:10220000D207E0910708F091080883E0848B8EE202
:1022100090E0958784878CE090E09787868780910F
:1022200001018A3028F466E575E0CF010E94D207EB
:10223000809101010E947013E0910708F091080855
:1022400081E0848B8EE190E09587848788E290E03E
:1022500097878687809100018A3028F466E575E0CB
:10226000CF010E94D207809100010E9470136AE59D
:1022700075E080910708909108080E94D20780912C
:10228000BE060C9470138091BE068F5F8093BE06CD
:102290008A3068F16AE00E941D1A20910001820FC5
:1022A000809300019093BE068C3350F06CE30E9443
:1022B0001D1A20910101820F80930101909300016A
:1022C000809101018C3350F06CE30E941D1A209123
:1022D0000201820F8093020190930101809102011B
:1022E000883128F068E10E941D1A90930201089538
:1022F000EF92FF920F931F93A0910708B0910808E7
:10230000ED91FC9111970680F781E02DEE24E39486
:10231000F12C89019A01AB01BC01CD0109951F91F6
:102320000F91FF90EF900895AB01A0910708B09135
:102330000808ED91FC9111970480F581E02D21E0D2
:1023400030E0BC01CD010994EF92FF920F931F93EF
:10235000A0910708B0910808ED91FC9111970484B1
:10236000F585E02DEE24E394F12C89019A01AB016F
:10237000BC01CD0109951F910F91FF90EF90089539
:102380002F923F924F925F926F927F928F929F9285
:10239000AF92BF92CF92DF92EF92FF920F931F9373
:1023A000CF93DF9300D000D000D0CDB7DEB79E83AF
:1023B0008D837B016A01890181E090E04C01821AE2
:1023C000930A88279927821B930B9C01220F331FA6
:1023D0003A832983AD81BE81ED91FC911197400F25
:1023E000511F0480F581E02D21E030E0CD010995F9
:1023F000AD81BE81ED91FC911197A601401B510B5F
:102400000480F581E02D21E030E0B701CD01099590
:10241000AD81BE81ED91FC911197B701600F711FE5
:102420000480F581E02D21E030E0A601CD01099581
:10243000AD81BE81ED91FC911197B701601B710BCD
:102440000480F581E02D21E030E0A601CD01099561
:10245000A12CB12CE1E0F0E0FC83EB83A016B106E7
:102460000CF09FC097FC0AC00150110929813A81E4
:102470002E5F3F4F3A832983820E931E3FEFA31AAC
:10248000B30A8B819C8102969C838B83880E991E54
:1024900025014E0C5F1CAD81BE81ED91FC91119721
:1024A0000480F581E02D21E030E03601600E711EE0
:1024B000A301B201CD01099517012A183B08AD818E
:1024C000BE81ED91FC9111970480F581E02D21E012
:1024D00030E0A301B101CD010995AD81BE81ED913F
:1024E000FC9111970480F581E02D21E030E0360168
:1024F000601A710AA301B201CD010995AD81BE81B7
:10250000ED91FC9111970480F581E02D21E030E000
:10251000A301B101CD01099535016C0C7D1CAD8184
:10252000BE81ED91FC9111970480F581E02D21E0B1
:1025300030E0A3012701400E511EB201CD010995E3
:10254000AD81BE81ED91FC9111970480F581E02D64
:1025500021E030E0A3011701201A310AB101CD01B9
:10256000099536016A187B08AD81BE81ED91FC9119
:1025700011970480F581E02D21E030E0A301B20144
:10258000CD010995AD81BE81ED91FC91119704803B
:10259000F581E02D21E030E0A301B101CD010995E5
:1025A0005DCF26960FB6F894DEBF0FBECDBFDF918C
:1025B000CF911F910F91FF90EF90DF90CF90BF9040
:1025C000AF909F908F907F906F905F904F903F90D3
:1025D0002F90089520915D0790915C07213208F0BB
:1025E0004AC0809139078111FCCF32E0309339071E
:1025F00031E0309338073FEF3093370710923607BA
:1026000020933507ACE3B7E045E157E0FA013E2FF0
:10261000341B321718F43D913193F9CF10921407FF
:1026200020911407990F922B909314079091130700
:10263000913061F410921307909114079093BB00AE
:102640009091BC0093FDF8CF95EC01C095EE90936E
:10265000BC00909139079230E1F3909137079F3F8A
:1026600079F080913707803241F0809137078033CD
:1026700031F084E005C081E003C082E001C083E066
:1026800010923B0710925D0710923A070895CF927F
:10269000DF92EF92FF92CF93DF93C0910708D09122
:1026A00008086C01990FEE08FF08F7FE0DC06DE2F7
:1026B000CE010E94CB0744275527BA014C195D096A
:1026C0006E097F092AE003C02AE0B701A601CE0106
:1026D000DF91CF91FF90EF90DF90CF900C94E707C0
:1026E000482F50E060E070E02AE080910708909168
:1026F00008080C94E707789484B5826084BD84B59B
:10270000816084BD85B5826085BD85B5816085BDEC
:1027100080916E00816080936E00109281008091A4
:10272000810082608093810080918100816080932C
:102730008100809180008160809380008091B10051
:1027400084608093B1008091B00081608093B0007C
:1027500080917A00846080937A0080917A00826010
:1027600080937A0080917A008E7F80937A008091A6
:102770007A00806880937A001092C10062E08EE057
:102780000E94E10862E08FE00E94E10861E08AE0D7
:102790000E94E10861E08AE00E94B108E0916E07C2
:1027A000F0916F0792E09083E0916A07F0916B07D8
:1027B0001082E0916C07F0916D0787E6808310929C
:1027C0007607E0917207F091730786E08083E091CD
:1027D0007007F0917107808180618083E0917007BC
:1027E000F0917107808188608083E0917007F0919B
:1027F0007107808180688083E0917007F091710794
:1028000080818F7D808380916400886080936400E4
:102810008091640080648093640080916400816092
:102820008093640080916400806880936400C0910C
:102830000708D09108089B8F8DE38A8F8C8D8F3F7E
:1028400009F4A7C061E08E8D0E94E10861E088A1D3
:102850000E94E10888A1082E000C990BFC01E255AA
:10286000FF4FE491F0E0EE0FFF1FEC55FF4F259175
:1028700034913FA32EA3FC01E057FF4FE491ECA756
:102880008E8D082E000C990BFC01E255FF4FE49150
:10289000F0E0EE0FFF1FEC55FF4F2591349139A763
:1028A00028A7FC01E057FF4FE491EDA789A1811112
:1028B00034C061E08C8D0E94E10861E08D8D0E9442
:1028C000E1088D8D082E000C990BFC01E255FF4F9D
:1028D000E491F0E0EE0FFF1FEC55FF4F259134918E
:1028E0003DA32CA3FC01E057FF4FE491EBA78C8D97
:1028F000082E000C990BFC01E255FF4FE491F0E02B
:10290000EE0FFF1FEC55FF4F259134913BA32AA3F7
:10291000FC01E057FF4FE491EAA789A1882309F45D
:102920005FC01FB7F8948091BF06811127C0E8EB04
:10293000F0E08491EAE9F0E09491E82FF0E0EE0F06
:10294000FF1FEA57FF4FA591B491EC91E92321F4C1
:1029500061E08AE00E94B10861E08AE00E94E1083B
:102960008CB580618CBD8CB580648CBD61E08DE0E0
:102970000E94E10861E08BE00E94E1088091BF06BF
:102980008F5F8093BF061FBF80E58CBD81E08DBD4A
:1029900027C010925D0510925C0510923B071092C3
:1029A0005D071092390781E0809338071092130772
:1029B00061E082E10E94B10861E083E10E94B10818
:1029C0008091B9008E7F8093B9008091B9008D7F8E
:1029D0008093B90080E28093B80085E48093BC00C6
:1029E0008F8D87FD1BC061E00E94E10861E08F8D43
:1029F0000E94B10861E070E080E090E00E941D0953
:102A000060E08F8D0E94B1086AE070E080E090E0A5
:102A10000E941D0961E08F8D0E94B1086EEACE010F
:102A20000E949C0F65EDCE010E949C0F60E8CE01D4
:102A30000E949C0F68EACE010E949C0F6FE3CE01BA
:102A40000E949C0F63EDCE010E949C0F60E0CE01BE
:102A50000E949C0F60E4CE010E949C0F6DE8CE01A5
:102A60000E949C0F64E1CE010E949C0F60E2CE01A7
:102A70000E949C0F60E0CE010E949C0F61EACE0193
:102A80000E949C0F68ECCE010E949C0F6AEDCE0163
:102A90000E949C0F62E1CE010E949C0F61E8CE0172
:102AA0000E949C0F6FECCE010E949C0F69EDCE013D
:102AB0000E949C0F61EFCE010E949C0F6BEDCE0136
:102AC0000E949C0F60E4CE010E949C0F64EACE013C
:102AD0000E949C0F66EACE010E949C0F6EE2CE011E
:102AE0000E949C0F6FEACE010E949C0F8091070804
:102AF000909108080E94FC0AE0910708F0910808EC
:102B000081E0848B81E090E0938B828B918B808B32
:102B10001586148617861686CF010E94FC0A8091BE
:102B20000708909108080E94DE0FE0E6F5E080E2D9
:102B3000819345E0E437F407D9F72CE1222E312CBC
:102B400062E670E080E090E00E941D098FE00E9444
:102B50008808892B31F08091C1069091C2060297B6
:102B6000CCF06CE271E080E090E00E941D09809161
:102B7000BE068D5F8093BE068FE00E94880820917C
:102B8000C1063091C206892B09F438C122303105C3
:102B90000CF034C18EE00E948808892B09F097C0A0
:102BA0006CE271E080E090E00E941D098091BE0619
:102BB0008D5F8093BE068EE00E948808892B09F005
:102BC00086C01092C00661E08AE00E94B1086FEAF8
:102BD00080910708909108080E949C0F8091070837
:102BE000909108080E94FC0A2AE030E047E150E09A
:102BF00060E270E080910708909108080E94C0117F
:102C000064E170E08FE190E00E94941163E170E074
:102C100083E290E00E9494112BE130E043E250E027
:102C20006BE170E08DE190E00E94781180910708DF
:102C3000909108080E94DE0F6EE571E080E090E060
:102C40000E941D0923E030E043E050E063E170E0C2
:102C50008DE190E00E94A41123E030E043E050E0D9
:102C600063E170E083E290E00E94A4116AE170E009
:102C700083E290E00E9494118091070890910808E7
:102C80000E94DE0F6EE571E080E090E00E941D0979
:102C90008091BE06895F8093BE066EEA8091070828
:102CA000909108080E949C0F1092740584E190E0B6
:102CB00090930401809303016EE78EE597E00E94F4
:102CC000CB0763E575E08EE597E00E94D20780911F
:102CD000030190910401853191050CF45DC02091B0
:102CE0005E0530915F05232BB1F5209174052332E9
:102CF00041F520E220937405209176052053309110
:102D0000750530534AE0349F200D112420930201B1
:102D1000209179052053309178053053EAE03E9FA9
:102D2000200D11242093010120917C052053309126
:102D30007B053053FAE03F9F200D112420930001C2
:102D40000AC0253241F4209175052093C006909366
:102D50005F0580935E05C0915E05D0915F058C177D
:102D60009D07D4F080910708909108080E94FC0A02
:102D70008091070890910808FC0115861486178633
:102D80001686BE01605A7A4F0E94D20780910708CA
:102D9000909108080E94DE0FC0915E05D0915F05FA
:102DA0008091030190910401C817D90779F46EEA64
:102DB00080910708909108080E949C0F109274055A
:102DC00084E190E090930401809303018091C00618
:102DD000882331F08091BE06823010F460E001C09B
:102DE00061E08AE00E94B1082196D0935F05C0930C
:102DF0005E050E9443110E940804A2CE22303105D4
:102E000034F41092C00661E08AE00E94B1086FEAD3
:102E100080910708909108080E949C0F98E2C92EA3
:102E2000D12C80910708909108080E94FC0A0E940A
:102E300043118091C1069091C2068130910509F03D
:102E400092C12EE130E04FE150E06CE370E0809100
:102E50000708909108080E94C011C0910201D0E0BB
:102E6000CD30D1050CF02C976091000170E080E02E
:102E700090E00E948A1B20E030E040E751E40E948D
:102E8000701A2BED3FE049E450E40E94571C20E00B
:102E900030E040EF51E40E94E21A2B013C010E9415
:102EA000C41C4B015C01C301B2010E94DD1A2B015D
:102EB0003C0120E030E040EF51E4C501B4010E9444
:102EC000571C20E030E048EF51E40E94711A0E9444
:102ED000541B4B015C0120E030E040EF51E4C301A2
:102EE000B2010E94571C20E030E040E752E40E940B
:102EF000711A0E94541B9401AB016FE170E08CE3E6
:102F000090E00E9478116091010170E080E090E013
:102F10000E948A1B20E030E040E751E40E94701AD2
:102F20002BED3FE049E450E40E94571C20E030E0E4
:102F300040EF51E40E94E21A2B013C010E94C41CA4
:102F40004B015C01C301B2010E94DD1A2B013C015F
:102F500020E030E048ED51E4C501B4010E94571C67
:102F600020E030E048EF51E40E94711A0E94541BA7
:102F70004B015C0120E030E048ED51E4C301B201B7
:102F80000E94571C20E030E040E752E40E94711A92
:102F90000E94541B9401AB016FE170E08CE390E060
:102FA0000E947811BE01DD0F880B990B0E948C1BCB
:102FB00020E030E040E450E40E94701A2BED3FE046
:102FC00049E450E40E94571C20E030E040EC50E41B
:102FD0000E94E21A2B013C010E94C41C20E030E058
:102FE00040E951E40E94571C20E030E048EF51E4F2
:102FF0000E94711A0E94541B4B015C01C301B20173
:103000000E94DD1A20E030E040E951E40E94571CA4
:103010002B013C0120E030E040E752E40E94711AAD
:103020000E94541B9401AB016FE170E08CE390E0CF
:103030000E94781120E030E04CE652E4C301B20176
:103040000E94711A0E94541B9401AB016FE170E061
:103050008DE390E00E947811C0E06C2F70E080E07A
:1030600090E00E948A1B2BED3FE049E450E40E946F
:10307000571C20E030E040EC50E40E94E21A2B01A3
:103080003C010E94C41C4B015C01C301B2010E94BF
:10309000DD1A2B013C0120E030E048ED51E4C50190
:1030A000B4010E94571C20E030E048EF51E40E9438
:1030B000711A0E94541B4B015C0120E030E048ED86
:1030C00051E4C301B2010E94571C20E030E040E708
:1030D00052E40E94711A0E94541BDC01CB01B4011E
:1030E0000E949411CF5FCC3009F0B7CFE091070870
:1030F000F091080887E390E09587848785E090E069
:10310000978786878CE090E00E944713E09107083C
:10311000F09108088AE390E09587848782E390E045
:103120009787868786E090E00E944713E091070822
:10313000F091080881E590E0958784873786268698
:1031400083E090E00E944713E0910708F09108089F
:1031500084E290E0958784873786268689E090E030
:103160000E94471310C0029761F460E070E085E0B0
:1031700090E00E94941160E070E08EE190E00E9487
:1031800094110E94D510809164008E7F809364001A
:103190009EE490937C006AE070E080E090E00E9402
:1031A0001D0980917A00806480937A0080917A0072
:1031B00086FDFCCF209178008091790030E0382B9B
:1031C000032E000C440B550B60E070E381E190E0AE
:1031D0000E944B1A49015A018091640081608093DA
:1031E0006400E0910708F0910808628573856C53CC
:1031F00071098085918504970E949411E0910708D8
:10320000F0910808628573856C53710980859185FA
:1032100003970E949411E0910708F09108086285D5
:1032200073856B537109808591852BE330E046E00F
:1032300050E006970E94A411B401645B7A40072E07
:10324000000C880B990B0E948C1B20E030E040E3BF
:1032500051E40E94E21A0E945B1B062F10E0A0912D
:103260000708B0910808ED91FC9111971A964D91BD
:103270005C911B97401B510B4150510918966D9161
:103280007C911997655071090684F785E02DEE242D
:10329000E394F12C24E030E0CD010995C0910708BA
:1032A000D0910808AA84BB84E7E1AE1AB1088885EA
:1032B00099854E979D878C87BF86AE862AE043E02E
:1032C00050E060E070E0CE010E94E7076EE2CE01C0
:1032D0000E94CB072AE040E050E0BA01CE010E94F4
:1032E000E707E0910708F091080880859185B5010E
:1032F00007970E94941180910708909108080E94F6
:10330000DE0F6AE570E080E090E00E941D09F1E0C8
:10331000CF1AD10809F085CD8FE00E948808892B4B
:1033200089F48091C1069091C2060196833091057F
:103330002CF49093C2068093C10604C01092C2067A
:103340001092C1068091C1069091C20602970CF0BE
:1033500021CC6EEA80910708909108080E949C0F8A
:1033600019CCEEE5F7E01382128288EE93E0A0E03C
:10337000B0E084839583A683B7832FE135E0318362
:10338000208325EC30E03587248724EC30E0378734
:10339000268720EC30E0318B208B21EC30E0338B22
:1033A000228B22EC30E0358B248B26EC30E0378BFF
:1033B000268B118E128E138E148EEBEFF7E0138294
:1033C000128284839583A683B7838FE295E09183ED
:1033D00080838EE290E00E94151DFC011382128210
:1033E00020E830E03583248380E490E0978386836F
:1033F0003187208793878287158A158614861786DA
:10340000168681E0848B2FEF3FEF338B228B318B3D
:10341000208B868B178A118E108E2FE335E0318337
:10342000208398E0968F96E0978F95E090A381A3F4
:10343000F0930808E09307080895991B79E004C009
:10344000991F961708F0961B881F7A95C9F78095E3
:103450000895A1E21A2EAA1BBB1BFD010DC0AA1FD5
:10346000BB1FEE1FFF1FA217B307E407F50720F0ED
:10347000A21BB30BE40BF50B661F771F881F991F68
:103480001A9469F760957095809590959B01AC01B1
:10349000BD01CF010895052E97FB1EF400940E94F4
:1034A000621A57FD07D00E94291A07FC03D04EF478
:1034B0000C94621A50954095309521953F4F4F4F8F
:1034C0005F4F089590958095709561957F4F8F4FD0
:1034D0009F4F0895EE0FFF1F0590F491E02D099482
:1034E0005058BB27AA270E94881A0C94091C0E94D6
:1034F000D01B38F00E94D71B20F039F49F3F19F4FD
:1035000026F40C94CD1B0EF4E095E7FB0C94C71B3E
:10351000E92F0E942E1C58F3BA176207730784071D
:10352000950720F079F4A6F50C94501C0EF4E09564
:103530000B2EBA2FA02D0B01B90190010C01CA016D
:10354000A0011124FF27591B99F0593F50F4503E18
:1035500068F11A16F040A22F232F342F4427585F0A
:10356000F3CF469537952795A795F0405395C9F722
:103570007EF41F16BA0B620B730B840BBAF09150DA
:10358000A1F0FF0FBB1F661F771F881FC2F70EC079
:10359000BA0F621F731F841F48F48795779567954C
:1035A000B795F7959E3F08F0B0CF9395880F08F038
:1035B0009927EE0F9795879508950E94E01BE39554
:1035C0000C941A1C0E94F61A0C94091C0E94D71B1A
:1035D00058F00E94D01B40F029F45F3F29F00C9472
:1035E000C71B51110C94511C0C94CD1B0E942E1C16
:1035F00068F39923B1F3552391F3951B550BBB2722
:10360000AA2762177307840738F09F5F5F4F220F66
:10361000331F441FAA1FA9F335D00E2E3AF0E0E85D
:1036200032D091505040E695001CCAF72BD0FE2FA7
:1036300029D0660F771F881FBB1F2617370748073B
:10364000AB07B0E809F0BB0B802DBF01FF279358F3
:103650005F4F3AF09E3F510578F00C94C71B0C94D5
:10366000511C5F3FE4F3983ED4F3869577956795B8
:10367000B795F7959F5FC9F7880F911D9695879528
:1036800097F90895E1E0660F771F881FBB1F621747
:1036900073078407BA0720F0621B730B840BBA0B05
:1036A000EE1F88F7E09508950E945B1B6894B111A6
:1036B0000C94511C08950E94361C88F09F5798F076
:1036C000B92F9927B751B0F0E1F0660F771F881F27
:1036D000991F1AF0BA95C9F714C0B13091F00E9441
:1036E000501CB1E008950C94501C672F782F882748
:1036F000B85F39F0B93FCCF3869577956795B39568
:10370000D9F73EF490958095709561957F4F8F4FD6
:103710009F4F0895E89409C097FB3EF490958095DB
:10372000709561957F4F8F4F9F4F9923A9F0F92F87
:1037300096E9BB279395F695879577956795B79505
:10374000F111F8CFFAF4BB0F11F460FF1BC06F5FEB
:103750007F4F8F4F9F4F16C0882311F096E911C0FD
:10376000772321F09EE8872F762F05C0662371F01E
:1037700096E8862F70E060E02AF09A95660F771F32
:10378000881FDAF7880F9695879597F9089597F926
:103790009F6780E870E060E008959FEF80EC0895F7
:1037A00000240A9416161706180609060895002420
:1037B0000A94121613061406050608950C94CD1BE0
:1037C0000E94361CD8F3E894E0E0BB279F57F0F046
:1037D0002AED3FE049EC06C0EE0FBB0F661F771FD6
:1037E000881F28F0B23A62077307840728F0B25A9C
:1037F000620B730B840BE3959A9572F7803830F463
:103800009A95BB0F661F771F881FD2F790480C94BC
:10381000CE1C092E0394000C11F4882352F0BB0F28
:1038200040F4BF2B11F460FF04C06F5F7F4F8F4FD8
:103830009F4F0895EF93E0FF07C0A2EA2AED3FE013
:1038400049EC5FEB0E94881A0E94091C0F900394B8
:1038500001FC9058E8E6F0E00C94DA1C57FD905813
:10386000440F551F59F05F3F71F04795880F97FB44
:10387000991F61F09F3F79F08795089512161306FE
:103880001406551FF2CF4695F1DF08C0161617062D
:103890001806991FF1CF8695710561050894089562
:1038A000E894BB2766277727CB0197F908950E94F4
:1038B0006A1C0C94091C0E94D01B38F00E94D71B74
:1038C00020F0952311F00C94C71B0C94CD1B1124F0
:1038D0000C94511C0E942E1C70F3959FC1F3950F00
:1038E00050E0551F629FF001729FBB27F00DB11D84
:1038F000639FAA27F00DB11DAA1F649F6627B00D14
:10390000A11D661F829F2227B00DA11D621F739FFC
:10391000B00DA11D621F839FA00D611D221F749F0A
:103920003327A00D611D231F849F600D211D822F51
:10393000762F6A2F11249F5750409AF0F1F0882378
:103940004AF0EE0FFF1FBB1F661F771F881F9150A5
:103950005040A9F79E3F510580F00C94C71B0C9472
:10396000511C5F3FE4F3983ED4F3869577956795B5
:10397000B795F795E7959F5FC1F7FE2B880F911DCF
:103980009695879597F908959F930E94E01B0F9055
:1039900007FCEE5F0C941A1C9F3F31F0915020F40D
:1039A000879577956795B795880F911D969587951B
:1039B00097F908959F938F937F936F93FF93EF935E
:1039C0009B01AC010E94571CEF91FF910E94EE1CDD
:1039D0002F913F914F915F910C94571CDF93CF93A0
:1039E0001F930F93FF92EF92DF927B018C016894FB
:1039F00006C0DA2EEF010E946A1CFE01E894A59130
:103A00002591359145915591A6F3EF010E94881AB1
:103A1000FE019701A801DA9469F7DF90EF90FF901B
:103A20000F911F91CF91DF910895CF93DF93823053
:103A3000910510F482E090E0E0910B08F0910C0801
:103A400020E030E0C0E0D0E0309711F140815181BA
:103A500048175907C0F04817590761F482819381CC
:103A6000209719F09B838A832BC090930C08809336
:103A70000B0826C02115310519F04217530718F419
:103A80009A01BE01DF01EF010280F381E02DDCCF5E
:103A90002115310509F1281B390B2430310590F42B
:103AA00012968D919C9113976115710521F0FB0180
:103AB0009383828304C090930C0880930B08FD01CC
:103AC000329644C0FD01E20FF31F8193919322507F
:103AD00031092D933C933AC02091090830910A088E
:103AE000232B41F4209107053091080530930A08F3
:103AF000209309082091050530910605211531050F
:103B000041F42DB73EB74091090550910A05241B99
:103B1000350BE0910908F0910A08E217F307A0F4C9
:103B20002E1B3F0B2817390778F0AC014E5F5F4F13
:103B30002417350748F04E0F5F1F50930A08409333
:103B400009088193919302C0E0E0F0E0CF01DF919A
:103B5000CF9108950F931F93CF93DF93009709F4AC
:103B60008CC0FC0132971382128200910B081091D5
:103B70000C080115110581F420813181820F931FFA
:103B80002091090830910A082817390779F5F09330
:103B90000A08E093090871C0D80140E050E0AE1770
:103BA000BF0750F412962D913C911397AD0121154A
:103BB000310509F1D901F3CF9D01DA013383228365
:103BC00060817181860F971F8217930769F4EC015A
:103BD00028813981260F371F2E5F3F4F3183208385
:103BE0008A819B8193838283452B29F4F0930C086F
:103BF000E0930B0842C01396FC93EE931297ED01ED
:103C0000499159919E01240F351FE217F30771F472
:103C100080819181840F951F029611969C938E93BB
:103C20008281938113969C938E931297E0E0F0E04B
:103C3000D80112968D919C911397009719F0F80175
:103C40008C01F6CF8D919C9198012E5F3F4F820F92
:103C5000931F2091090830910A082817390769F441
:103C6000309729F410920C0810920B0802C01382AE
:103C7000128210930A0800930908DF91CF911F91D7
:103C80000F91089581E090E0F8940C94471EF89409
:023C9000FFCF64
:103C92000F0A0A14000000000000000000000000EB
:103CA2000000000000000000000000000000000012
:103CB2000000000000000000000000000000000002
:103CC20000000000000000000000000000000000F2
:103CD2000000000080808000000000000000000062
:103CE2000000000000008080C0C000000000000052
:103CF20000000000000000000000000000000000C2
:103D020000000000000000000000000000000000B1
:103D120000000000000000000000000000000000A1
:103D220000000000000000000080C0E0F0F8FCF895
:103D3200E0000000000000000000000000000000A1
:103D420000008080808080008080000000008080F1
:103D520080808000FFFFFF000000008080808000E4
:103D6200008080000080FFFF8080008080008080D3
:103D720080800080800000000000808000008C8E27
:103D820084000080F8F8F8800000000000000000C5
:103D92000000000000F0F0F0F0F0F0F0F0F0F0F0D1
:103DA200F0E0E0C08000E0FCFEFFFFFF7FFFFFFFCE
:103DB200FFFF000000000000000000000000000003
:103DC200FEFFC70101010183FFFF00007CFEC70166
:103DD20001010183FFFFFF0038FEC7830101018358
:103DE200C7FFFF000001FFFF010100FFFF07010104
:103DF2000100007FFF80000000FFFF7F0000FFFF47
:103E0200FF000001FFFFFF010000000000000000B2
:103E12000000000000030F3F7F7FFFFFFFFFFFFF57
:103E2200FFE7C7C78F8F9FBFFFFFC3C0F0FFFFFF32
:103E3200FFFFFCFCFCFCFCFCFCFCF8F8F0F0E0C032
:103E42000001030303030301030300000000010355
:103E52000303030101030100000001030303030143
:103E6200010303000000030300000003030000003D
:103E7200000000000103030303030100000001032B
:103E82000100000003030100000000000000000028
:103E9200000000000000000080C0E0F0F9FFFFFF1A
:103EA200FFFF3F1F0F87C7F7FFFF1F1F3DFCF8F8FB
:103EB200F8F87C7DFFFFFFFFFFFFFFFF7F3F0F074B
:103EC2000030300000000000000000000000000090
:103ED200000000000000000000FEFEFC00000000E8
:103EE20000000000000000000000000000000000D0
:103EF2000000E0C0000000000000000000000030F0
:103F0200300000000000000000000000000000007F
:103F1200000000000000C0FEFFFFFFFFFFFFFFFFE9
:103F2200FF7F7F3F1F0F071F7FFFFFF8F8FFFFFF95
:103F3200FFFFFEF8E00000000100000000000000AA
:103F420000FEFE000000FCFEFC0C06060EFCF80063
:103F520000F0F81C0E0606060CFFFFFF0000FEFE36
:103F620000000000FCFEFC00183C7E66E6CE8400E9
:103F72000006FFFF0606FCFEFC0C0606060000FE1D
:103F8200FE0000C0F8FC4E4646464E7C7840183C87
:103F920076E6CECC800000000000000000000000A9
:103FA20000000000000000000001070F1F1F3F3F3C
:103FB2003F3F1F0F03000000000000000000000050
:103FC200000F0F0000000F0F0F000000000F0F0086
:103FD2000003070E0C18180C060F0F0F0000010F3C
:103FE2000E0C180C0F070100040E0C180C0F070022
:103FF20000000F0F00000F0F0F0000000000000F65
:104002000F00000007070C0C181C0C060600040E1B
:104012000C180C0F07000000000000000000000058
:10402200000000000000000000000000000000008E
:10403200000000000000000000000000000000007E
:10404200000000000000000000000000000000006E
:10405200000000000000000000000000000000005E
:10406200000000000000000000000000000000004E
:10407200000000000000000000000000000000003E
:10408200000000000000000000000000000000002E
:10409200000000000000000D088000000103070F6F
:1040A2001F3F7F0080C0E0F0F8FCFE000000009F90
:1040B200031B03680346035A03E60300000000E4FF
:1040C20004B404AC049D048F048E04000000004C70
:1040D2000D1B03070BF20E13056D06A30E410E23F3
:0C40E2000EA50B0D0A0030003A002E0065
:107800000C94343C0C94513C0C94513C0C94513CE1
:107810000C94513C0C94513C0C94513C0C94513CB4
:107820000C94513C0C94513C0C94513C0C94513CA4
:107830000C94513C0C94513C0C94513C0C94513C94
:107840000C94513C0C94513C0C94513C0C94513C84
:107850000C94513C0C94513C0C94513C0C94513C74
:107860000C94513C0C94513C11241FBECFEFD8E036
:10787000DEBFCDBF11E0A0E0B1E0EAE8FFE702C063
:1078800005900D92A230B107D9F712E0A2E0B1E065
:1078900001C01D92AD30B107E1F70E942D3D0C945F
:1078A000C33F0C94003C982F95959595959595958B
:1078B000905D8F708A307CF0282F295A8091C0000B
:1078C00085FFFCCF9093C6008091C00085FFFCCF60
:1078D0002093C6000895282F205DF0CF982F809127
:1078E000C00085FFFCCF9093C6000895EF92FF92F1
:1078F0000F931F93EE24FF2487018091C00087FD22
:1079000017C00894E11CF11C011D111D81E2E8164D
:1079100081EAF80687E0080780E0180770F3E09135
:107920000401F091050109958091C00087FFE9CF1E
:107930008091C6001F910F91FF90EF9008950E94D3
:10794000763C982F8091C00085FFFCCF9093C600B5
:1079500091362CF490330CF09053892F089597555D
:10796000892F08951F930E949F3C182F0E949F3CCF
:107970001295107F810F1F9108951F93182F882350
:1079800021F00E94763C1150E1F71F9108951F935A
:10799000182F0E94763C803249F0809103018F5F5E
:1079A000809303018530C1F01F9108958091C0003C
:1079B00085FFFCCF84E18093C6008091C00085FFE5
:1079C000FCCF1093C6008091C00085FFFCCF80E102
:1079D0008093C6001F910895E0910401F091050184
:1079E00009951F9108950E94763C803241F0809164
:1079F00003018F5F80930301853081F008958091AA
:107A0000C00085FFFCCF84E18093C6008091C00058
:107A100085FFFCCF80E18093C6000895E0910401CA
:107A2000F09105010995089548EC50E08823A1F0F4
:107A30002D9A28EE33E0FA013197F1F721503040CA
:107A4000D1F72D9828EE33E0FA013197F1F7215064
:107A50003040D1F7815061F708953F924F925F9285
:107A60006F927F928F929F92AF92BF92CF92DF924E
:107A7000EF92FF920F931F93CF93DF93000082E06A
:107A80008093C00080E18093C4001092C50088E11B
:107A90008093C10086E08093C2005098589A259A3E
:107AA00081E00E94143D24E1F22E9EE1E92E85E959
:107AB000D82E0FE0C02E10E1B12EAA24A394B1E479
:107AC0009B2EA6E58A2EF2E57F2EE0E26E2E79E46B
:107AD000572E63E5462E50E5352E0E94763C8033C6
:107AE000B1F18133B9F1803409F46FC0813409F404
:107AF00076C0823409F485C0853409F488C08035A5
:107B000031F1823521F1813511F1853509F485C0D6
:107B1000863509F48DC0843609F496C0843709F49B
:107B200003C1853709F472C1863709F466C08091B4
:107B300003018F5F80930301853079F6E0910401A2
:107B4000F091050109950E94763C803351F60E9420
:107B5000F33CC3CF0E94763C803249F78091C0004D
:107B600085FFFCCFF092C6008091C00085FFFCCF5E
:107B70009092C6008091C00085FFFCCF8092C60025
:107B80008091C00085FFFCCF7092C6008091C0003C
:107B900085FFFCCF6092C6008091C00085FFFCCFBE
:107BA0005092C6008091C00085FFFCCF4092C60075
:107BB0008091C00085FFFCCF3092C6008091C0004C
:107BC00085FFFCCFB092C60088CF0E94763C8638F5
:107BD00008F4BDCF0E94763C0E94F33C7ECF0E9409
:107BE000763C803809F49CC0813809F40BC1823896
:107BF00009F430C1883909F48FC080E00E94C73C85
:107C00006CCF84E10E94BD3C0E94F33C66CF85E0CE
:107C10000E94BD3C0E94F33C60CF0E94763C809362
:107C200006010E94763C809307010E94F33C55CFE9
:107C30000E94763C803309F411C183E00E94BD3C70
:107C400080E00E94C73C49CF0E94763C80930902A5
:107C50000E94763C8093080280910C028E7F809374
:107C60000C020E94763C853409F409C18091080217
:107C700090910902892B89F000E010E00E94763C87
:107C8000F801E85FFE4F80830F5F1F4F809108026D
:107C9000909109020817190788F30E94763C8032F8
:107CA00009F045CF80910C0280FFF5C0609106017C
:107CB00070910701660F771F7093070160930601AB
:107CC000A0910802B09109021097C9F0E8E0F1E034
:107CD0009B01AD014E0F5F1FF999FECF32BD21BD53
:107CE000819180BDFA9AF99A2F5F3F4FE417F5070B
:107CF00099F76A0F7B1F70930701609306018091CB
:107D0000C00085FFFCCFF092C6008091C00085FFC7
:107D1000FCCFB092C600E1CE83E00E94C73CDDCE2E
:107D200082E00E94C73CD9CE0E94763C8093090233
:107D30000E94763C80930802809106019091070191
:107D4000880F991F90930701809306010E94763C4B
:107D5000853409F49AC080910C028E7F80930C02C6
:107D60000E94763C803209F0B8CE8091C00085FF39
:107D7000FCCFF092C600A0910802B09109021097C2
:107D8000C1F180910C02082F0170182F1695117007
:107D9000E0910601F0910701AF014F5F5F4FBA011B
:107DA00020E030E00023B1F4112339F49491809164
:107DB000C00085FFFCCF9093C6002F5F3F4FCB01E3
:107DC0000196FA012A173B0780F4BC014F5F5F4F11
:107DD000002351F3F999FECFF2BDE1BDF89A90B5B9
:107DE0008091C00085FFFCCFE6CF709307016093C0
:107DF00006018091C00085FDE5CE8091C00085FF21
:107E0000F8CFE0CE81E00E94C73C67CE0E94763C6E
:107E1000803209F08CCE8091C00085FFFCCFF092BB
:107E2000C6008091C00085FFFCCFE092C600809123
:107E3000C00085FFFCCFD092C6008091C00085FFB6
:107E4000FCCFC092C6008091C00085FFFCCFB092ED
:107E5000C60043CE80E10E94C73C3FCE0E94763CE4
:107E60000E94763C182F0E94763C112309F483C0AF
:107E7000113009F484C08FE00E94C73C2ECE80915F
:107E80000C02816080930C02F1CE80910C02816023
:107E900080930C0265CF809107018823880F880B9F
:107EA0008A2180930B028091060190910701880F2F
:107EB000991F90930701809306018091080280FF2B
:107EC00009C08091080290910902019690930902DD
:107ED00080930802F894F999FECF1127E0910601EA
:107EE000F0910701C8E0D1E0809108029091090269
:107EF000103091F40091570001700130D9F303E084
:107F000000935700E8950091570001700130D9F3B4
:107F100001E100935700E8950990199000915700EE
:107F200001700130D9F301E000935700E8951395F3
:107F3000103498F011270091570001700130D9F3E7
:107F400005E000935700E89500915700017001305B
:107F5000D9F301E100935700E8953296029709F0B2
:107F6000C7CF103011F00296E5CF11248091C000E8
:107F700085FFC5CEC8CE8EE10E94C73CAECD85E957
:0A7F80000E94C73CAACDF894FFCF81
:027F8A00800075
:040000030000780081
:00000001FF
