:100000000C9401080C9429080C9429080C942908D4
:100010000C9429080C9429080C9429080C9429089C
:100020000C9429080C9429080C9429080C9429088C
:100030000C9429080C9429080C9429080C9429087C
:100040000C9405180C9429080C944F1B0C94811BDC
:100050000C9429080C9429080C9429080C9429085C
:100060000C94D8160C942908AF0DF60DF30DEB0D7A
:10007000F30DE70D170EE30DDF0DD70DBC0D1B0EB5
:10008000C50DCE0DAB0D0A102E0C011400000000A2
:100090000000000000000000000000000000000060
:1000A00078FC020303030302FC7800000000000058
:1000B0000000FF7E0000028383838302FC7800003F
:1000C000028383838302FC787EFF0080808080002F
:1000D000FF7E78FC028383838302000078FC028326
:1000E0008383830200000002030303030302FC78FE
:1000F00078FC028383838302FC7878FC0283838309
:100100008302FC7800000060F0F060000000000056
:1001100000000000000000001E3F40C0C0C0C04002
:100120003F1E0000000000000000FF7E1C3E41C199
:10013000C1C1C1410000000041C1C1C1C1413E1C5B
:100140000000010101010101FF7E000041C1C1C1A8
:10015000C1413E1C1C3E41C1C1C1C1413E1C000009
:10016000000000000000FF7E1C3E41C1C1C1C14132
:100170003E1C000041C1C1C1C1413E1C0C30300BCE
:10018000012000C0F87C3E3EFCF8C00000000000EA
:1001900080E078FEFE000000000000F07C3C3E3E67
:1001A000FEFCE0000000007C3E3E3EFEF8C0000089
:1001B00000000000000000F8FEFE0000000000FE4D
:1001C000FE3E3E3E3E3E00000000000080F0FC3E51
:1001D0003E3EFC000000003E3E3E3E3E3E3EFEFEF9
:1001E00000000000C0F8FE3E7EFCE00000000000C1
:1001F000E0FC7E3EFEF8C000000000000000C0E011
:10020000C00000000000F0FF0F000000F9FFFFF049
:1002100000000000070300FFFF00000000000001D5
:100220000000000000FFFF000000000000000000D0
:10023000FFFF00000000000000E0FF1FFFFF0000C4
:10024000000000FFFF00000000000000000000E0D0
:10025000FF3F000000000000000000000000000060
:10026000C0FC7F0300000000FFFF000000FFFF0054
:10027000000000FEFF03000000FFFFF00000000090
:1002800000003F7F3F0000000000FFFF0000E0FF94
:100290001F00FFFF00000000000000FFFF00000043
:1002A00000000000000000E0FE1F01000000000050
:1002B000F8F8FCFFC7000000000000C0FE3F03008C
:1002C000FFFF00000000003F3F3E7EFCF8E0000022
:1002D000000000FFFF80F07C7CF8F00000000000D0
:1002E000000080F8FF07000000000000019FFFF8F9
:1002F000FE1F0100000000FFFFC0000080FFFFFFA5
:100300000000000000000000000000000000FFFFEF
:10031000C0FC7F030000FFFF00000000000000FFA2
:10032000FF0000000000000000E0FE0F01000000E0
:1003300000000000000000010FFFF8000000F8FFBF
:10034000E7E0E0E0FFFFE0E0E00000000000000088
:1003500007FFFE00000000FFFFFF03000001FFFF9A
:100360000000000000F0FF0F00000000000000C0CF
:10037000FC3F03031FFFFCC0000000000F1F3E3EB8
:100380000F01FFFF000000000000008000000000DF
:10039000000007FFFF07000000FCFF07000000004F
:1003A000000000FFFF000000000000E0FE0F000062
:1003B000000000000000000000000000C0FF7F00FF
:1003C0000000030303030303FFFF03030300000014
:1003D00000000000C0FF7F000000000FFFFF800052
:1003E0000080FF7F00000000FEFF0300000000000F
:1003F000000000FFFF8000000080FFFF0000000001
:100400000000000080FCFF07000000000000FFFF6C
:10041000FF000000000000031F3F7C7C3F1F030023
:10042000000000007C7C7C7F7F7C7C7C0000007F67
:100430007F7C7C7C7C7C7C000000003F7E7C7C7E22
:100440001F07000000000000000000007F7F000088
:100450000000001F3E7C7C3E1F07000000000000E3
:10046000031F7F7C7C3F0700000000007F7F0000AF
:1004700000000000000000011F3F7E7C7E3F1F0146
:10048000000000003E7C7C7E3F0F01000000000069
:100490000000000100000000000008102060023889
:1004A0000000000000000000000000FE000000004E
:1004B00000000E000E00000000D0BE90D0BE9000E4
:1004C000001C62FFC28000000C12924CB088060033
:1004D000807C62B21CC0000000000E0E0000000014
:1004E00000E01804020200000002020418E000000C
:1004F0000024187E18240000808080F08080800016
:1005000000000000000000000080808080000000EB
:1005100000000000000000000000806018060000DD
:10052000F804C2320CF80000000404FE00000000D1
:1005300000028242221C00000002222222DC000073
:10054000C0A09884FE808000001E121222C200000B
:10055000F844222222C00000000202C2320A060031
:10056000008C5222528C00003C42424226F800008D
:1005700000003030000000000000303000000000BB
:10058000808040402020100040404040404000001B
:10059000102020404080800000028242221C000087
:1005A0000000000000000000000000050000000046
:1005B000000000000000000000070000070000002D
:1005C0000004040F040300000402010304040300F8
:1005D0000304040405030400000000000000000000
:1005E00000030608101000000010100806030000A9
:1005F00000000000000000000000000700000000F4
:100600000000160E000000000000000000000000C6
:1006100000000606000000000402010000000000C7
:1006200001030404020100000004040704040000A4
:100630000007040404040000000404040403000090
:100640000000000007000000000404040403000090
:100650000102040404030000000007000000000081
:100660000003040404030000000404040201000069
:1006700000000606000000000000160E000000004A
:10068000000001010202040001010101010100005A
:10069000040202010100000000000500000000004B
:1006A000F804728AFA84780000C0380638C0000066
:1006B00000FE222222DC0000F804020202020000F6
:1006C000FE02020204F8000000FE222222220000A4
:1006D00000FE222222220000F804020222E2000090
:1006E000FE20202020FE0000000202FE0202000088
:1006F0000000000202FE0000FE40B00804020000FC
:1007000000FE000000000000FE0C7080700CFE0077
:10071000FE0C30C000FE0000F804020204F80000E5
:10072000FE424242221C0000F804020204F80000CB
:1007300000FE4242A21C0000001C22424280000037
:10074000020202FE02020200FE00000000FE0000A3
:100750000638C000C03806003EC0F00EF0C03E00B3
:100760000006986098060000000618E018060000D1
:100770000202C2320A0600000000FE02020202006B
:10078000000618608000000002020202FE00000065
:1007900040300C0C30400000000000000000000061
:1007A0000102040404000000060101010101060029
:1007B0000007040404030000010204040404000010
:1007C00007040404020100000007040404040000FC
:1007D00000070000000000000102040404070000FC
:1007E00007000000000700000004040704040000E4
:1007F00000040404040300000700000102040000D8
:1008000000070404040400000700000100000700C2
:1008100007000000030700000102040402010000B9
:1008200007000000000000000102040C121110007B
:100830000007000001060000000404040403000097
:10084000000000070000000003040404040300008B
:100850000000010601000000000700000007000082
:100860000006010001060000000000070000000073
:10087000060504040404000000001F1010101000FE
:100880000000000001020400101010101F00000002
:100890000000000000000000080808080808000028
:1008A000000002040000000000E0101010F0000042
:1008B00000FE201010E0000000E0101010100000FA
:1008C00000E0101010FE000000E0909090E00000AA
:1008D0000020FC222222020000E0101010F0000094
:1008E00000FE201010E000001010F20000000000D8
:1008F00000101010F200000000FE804020100000E8
:10090000000202FE00000000F02010F02010F000B5
:1009100000F0201010E0000000E0101010E00000D7
:1009200000F0201010E0000000E0101010F00000B7
:1009300000F02010107000000060909090200000E7
:10094000002020FC2020200000F0000000F000002B
:100950000070800080700000F000C030C000F00027
:100960000030C0C0300000000030C00080700000C7
:1009700000101090503000000080807E02020000C5
:10098000000000FE000000000002027E80800000E7
:1009900000808000000080000000000000000000D7
:1009A0000000000000000000000304040207000033
:1009B000000704040403000000030404040400000E
:1009C0000003040402070000000304040404000000
:1009D000000007000000000000332424221F000054
:1009E00000070000000700000000070404000000EA
:1009F000202020201F00000000070001020400004A
:100A000000000007040400000700000700000700C2
:100A100000070000000700000003040404030000B6
:100A2000003F04040403000000030404023F00002C
:100A3000000700000000000000020404040300009E
:100A40000000000304040400000304040207000083
:100A5000000003040300000001060100010601007C
:100A600000060101060000002020310E03000000F6
:100A700000060504040400000000001F1010000020
:100A800000000007000000000010101F0000000020
:100A90000100000101010000000000000000000052
:100AA000050800FF0C4B00000000003E5B4F5B3E62
:100AB0003E6B4F6B3E1C3E7C3E1C183C7E3C181C23
:100AC000577D571C1C5E7F5E1C00183C1800FFE71A
:100AD000C3E7FF0018241800FFE7DBE7FF30483AC0
:100AE000060E2629792926407F050507407F052522
:100AF0003F5A3CE73C5A7F3E1C1C08081C1C3E7FAA
:100B000014227F22145F5F005F5F06097F017F0070
:100B10006689956A606060606094A2FFA294080490
:100B20007E040810207E201008082A1C08081C2AB1
:100B300008081E101010100C1E0C1E0C30383E3809
:100B400030060E3E0E06000000000000005F0000B0
:100B50000007000700147F147F14242A7F2A122321
:100B60001308646236495620500008070300001C31
:100B70002241000041221C002A1C7F1C2A08083E3A
:100B8000080800807030000808080808000060604D
:100B90000020100804023E5149453E00427F4000BB
:100BA00072494949462141494D331814127F102793
:100BB000454545393C4A49493141211109073649E2
:100BC000494936464949291E0000140000004034B6
:100BD00000000008142241141414141400412214BB
:100BE0000802015909063E415D594E7C1211127CE2
:100BF0007F494949363E414141227F4141413E7F43
:100C0000494949417F090909013E414151737F0822
:100C100008087F00417F41002040413F017F0814C8
:100C200022417F404040407F021C027F7F04081029
:100C30007F3E4141413E7F090909063E4151215E07
:100C40007F09192946264949493203017F01033F9B
:100C50004040403F1F2040201F3F4038403F63142A
:100C600008146303047804036159494D43007F412C
:100C700041410204081020004141417F0402010269
:100C8000044040404040000307080020545478408E
:100C90007F284444383844444428384444287F3822
:100CA0005454541800087E090218A4A49C787F08A4
:100CB00004047800447D40002040403D007F10281F
:100CC000440000417F40007C047804787C080404E0
:100CD000783844444438FC1824241818242418FC78
:100CE0007C08040408485454542404043F44243C1D
:100CF0004040207C1C2040201C3C4030403C44288C
:100D00001028444C9090907C4464544C4400083625
:100D10004100000077000000413608000201020493
:100D2000023C2623263C1EA1A161123A4040207AB3
:100D300038545455592155557941215454784121FD
:100D40005554784020545579400C1E527212395532
:100D5000555559395454545939555454580000452F
:100D60007C410002457D420001457C40F029242958
:100D7000F0F0282528F07C545545002054547C542C
:100D80007C0A097F4932494949323248484832325F
:100D90004A4848303A4141217A3A42402078009D01
:100DA000A0A07D39444444393D4040403D3C24FFAF
:100DB0002424487E4943662B2FFC2F2BFF0929F65C
:100DC00020C0887E090320545479410000447D41AD
:100DD0003048484A32384040227A007A0A0A727D06
:100DE0000D19317D2629292F282629292926304821
:100DF0004D4020380808080808080808382F10C88F
:100E0000ACBA2F102834FA00007B000008142A1412
:100E10002222142A1408AA005500AAAA55AA55AAE3
:100E2000000000FF00101010FF00141414FF001049
:100E300010FF00FF1010F010F0141414FC00141434
:100E4000F700FF0000FF00FF1414F404FC14141753
:100E5000101F10101F101F1414141F00101010F07A
:100E6000000000001F101010101F10101010F010C4
:100E7000000000FF101010101010101010FF1000D4
:100E80000000FF140000FF00FF00001F101700000B
:100E9000FC04F414141710171414F404F40000FFE5
:100EA00000F714141414141414F700F7141414177E
:100EB0001410101F101F141414F4141010F010F05C
:100EC00000001F101F0000001F14000000FC140091
:100ED00000F010F01010FF10FF141414FF14101085
:100EE000101F00000000F010FFFFFFFFFFF0F0F008
:100EF000F0F0FFFFFF0000000000FFFF0F0F0F0FDB
:100F00000F38444438447C2A2A3E147E02020606E6
:100F1000027E027E0263554941633844443C0440EA
:100F20007E201E2006027E020299A5E7A5991C2AB2
:100F3000492A1C4C7201724C304A4D4D3030487871
:100F40004830BC625A463D3E494949007E01010194
:100F50007E2A2A2A2A2A44445F444440514A444073
:100F600040444A51400000FF0103E080FF000008B8
:100F7000086B6B083612362436060F090F06000080
:100F800018180000001010003040FF0101001F0180
:100F9000011E00191D1712003C3C3C3C00000000E3
:100FA0000000000008000201000003040700000028
:100FB000000000000001020408102040800102042B
:100FC000081020010204081020040404040404048E
:100FD00004020202020202030303030303000000EF
:100FE0000023002600290000000000250028002B17
:100FF0000000000000240027002A0000510F3616D0
:10100000B11B11241FBECFEFD8E0DEBFCDBF13E070
:10101000A0E0B1E0EEE6FCE302C005900D92A23242
:10102000B107D9F726E0A2E2B3E001C01D92AA32CF
:10103000B207E1F71FE0C2E0D0E104C02297FE0151
:101040000E94011ECC3FD107C9F70E946A1D0C9473
:10105000351E0C940000AF92BF92CF92DF92EF92B8
:10106000FF920F931F93809164008E7F80936400A2
:1010700082E10E94D318BC0180916400816080935A
:101080006400882777FD8095982F1F921F9221E09A
:101090002F932CE22F93A12CB12C6501EE24EA941E
:1010A00013E0F12E00E010E020E030E0A9010E9402
:1010B000221D2091040130910501CB010F900F906A
:1010C0000F900F90261737070CF4C9011F910F914D
:1010D000FF90EF90DF90CF90BF90AF9008958091F8
:1010E00064008E7F809364008EE480937C006AE0CD
:1010F00070E080E090E00E94701880917A00806437
:1011000080937A0080917A0086FDFCCF2091780050
:101110008091790030E0382B442737FD4095542FDB
:1011200060E070E381E190E00E94E01D8091640046
:10113000816080936400C9010895209122038C5836
:101140009A40222319F062E170E002C06DE270E083
:101150000E94AA1D862F0895EAE2F3E080E28193BF
:1011600093E0EC35F907D9F7089560E083E00E9439
:10117000781960E084E00E94781960E082E10E94C2
:10118000781961E085E00E94781961E086E00E94AC
:10119000781961E08FE00E94781961E080E10E9497
:1011A000781961E083E00E94B11961E084E00E9457
:1011B000B11926E040E855E260E070E08DE895E086
:1011C0000E94F31A8091640088608093640080918B
:1011D00064008064809364008091640081608093E7
:1011E0006400809164008068809364000E946F08AE
:1011F00021E088349D400CF020E02093220388E811
:1012000094E00E94591261E088E894E00E94501036
:1012100088E894E00E947F100C94AC088F3991F01C
:10122000843A91F0863B91F08C3B91F0843891F0B8
:10123000863991F08C3991F08B3A91F08B3B91F497
:101240008FEA10C080EE089584E8089584E9089537
:1012500081E808958EE8089589E908958AE9089556
:101260008EEA08950895809123038F5F809323036E
:101270008A3070F16AE00E948A1D282F8091240331
:10128000820F80932403909323038C3350F06CE3FC
:101290000E948A1D20912503280F209325039093F7
:1012A0002403809125038C3350F06CE30E948A1D47
:1012B00020912603280F20932603909325038091E5
:1012C0002603883128F068E10E948A1D9093260346
:1012D000089562E088E894E00E9421124CE060E00A
:1012E00088E894E00E94B010809126038A3030F4A0
:1012F00061EB72E088E894E00E94321C4AE050E022
:101300006091260388E894E00E941B1D61E088E854
:1013100094E00E9421124DE068E188E894E00E9488
:10132000B01061ED72E088E894E00E94321C62E047
:1013300088E894E00E9421124CE060E288E894E0A2
:101340000E94B010809125038A3030F461EB72E086
:1013500088E894E00E94321C4AE050E06091250346
:1013600088E894E00E941B1D60E088E894E00E94F9
:10137000211240E261E188E894E00E94B01080917F
:1013800024038A3030F461EB72E088E894E00E9434
:10139000321C4AE050E06091240388E894E00E9407
:1013A0001B1D63EB72E088E894E00E94321C4AE067
:1013B00050E06091230388E894E00C941B1D0F9388
:1013C000CF930E946F080E949D08C82F4DE06CE3E8
:1013D00088E894E00E94F4104DE06DE388E894E022
:1013E0000E94F41080912203811112C043E269E34C
:1013F00088E894E00E94F4104AE168E388E894E009
:101400000E94F4104AE169E388E894E00E94F41035
:1014100002E226E04EE06AE388E894E00E94CD1103
:1014200040E34C1B0C2F26E06AE388E894E00E941E
:101430001512CF910F910895CF92DF92EF92FF9204
:101440000F931F93CF93DF936C017A016034710582
:1014500010F540335105F8F48B01095F1F4FC0E0D0
:10146000D0E0F601208130E00C2E02C035952795A2
:101470000A94E2F720FF09C00034110530F44E2D24
:10148000602F88E894E00E94F41021960150110921
:10149000C830D10531F7DF91CF911F910F91FF90A7
:1014A000EF90DF90CF900895CF92DF92EF92FF926E
:1014B0000F931F93CF93DF936C017B016034710511
:1014C00010F540335105F8F48A01095F1F4FC0E061
:1014D000D0E0F601208130E00C2E02C03595279532
:1014E0000A94E2F720FF09C00033110530F4402FC1
:1014F0006E2D88E894E00E94F410219601501109A5
:10150000C830D10531F7DF91CF911F910F91FF9036
:10151000EF90DF90CF9008950F931F93CF93DF93B9
:1015200060E088E894E00E9450100091C10410919E
:10153000C204C8010E941F1ECDEBD4E08883C801FD
:1015400001960E941F1E898340E060E088E894E0D5
:101550000E94B01065EB72E088E894E00E943F1CA6
:101560006DEB72E088E894E00E94321C68EC72E057
:1015700088E894E00E943F1C6091BD047091BE0415
:101580004AE050E088E894E00E94061D88E894E074
:101590000E947F1068EB7BE080E090E00E94701872
:1015A00080912303825E80932303DF91CF911F916B
:1015B0000F910895EF92FF920F931F93CF93DF93B4
:1015C0001F92CDB7DEB78091BF049091C0042091E7
:1015D000BD043091BE04281739070CF442C060E006
:1015E00080E10E94B11965E070E085E00E94F0188A
:1015F00040E060E088E894E00E94B01061EB72E0A7
:1016000088E894E00E94321C46E160E088E894E0BB
:101610000E94B01063ED72E088E894E00E943F1CE5
:1016200088E894E00E947F106CED75E080E090E027
:101630000E94701860E085E00E94B11960ED77E0CB
:1016400080E090E00E947018809123038D5D80936C
:1016500023030F90DF91CF911F910F91FF90EF9097
:1016600008959093BE048093BD04E090C104F0906F
:10167000C2040DEB14E0F80161918F01C701698389
:101680000E941F1E6981681719F0C7010E94271E5A
:10169000FFEFEF1AFF0A84E00F3B180761F79FCFB7
:1016A000CF92DF92EF92FF920F931F93CF93DF932E
:1016B000CDB7DEB72A970FB6F894DEBF0FBECDBF09
:1016C0009AE0EFE8F2E0DE01119601900D929A9512
:1016D000E1F76E019BE0C90ED11C8E010F5F1F4F19
:1016E000E82EF12CE01AF10AA701400F511F62E029
:1016F00070E0C8010E941C0A0F5F1F4F0C151D05EA
:1017000099F72A960FB6F894DEBF0FBECDBFDF91D2
:10171000CF911F910F91FF90EF90DF90CF900895A0
:10172000EF92FF920F931F93CF93DF93CDB7DEB766
:101730002C970FB6F894DEBF0FBECDBF8CE0E9E961
:10174000F2E0DE01119601900D928A95E1F700E03A
:1017500010E03AE1E32EF12CB701601B710B46E279
:1017600050E081E090E08C0F9D1F800F911F0E9440
:10177000540A0F5F1F4F0C30110571F72C960FB6EE
:10178000F894DEBF0FBECDBFDF91CF911F910F91B7
:10179000FF90EF9008950F931F93CF93DF9300D0A6
:1017A000CDB7DEB798E3998394E29A83082F10E0CF
:1017B000A80162E070E0CE0101960E941C0AA80117
:1017C0004F5F5F4F62E070E0CE0102960E941C0AFC
:1017D0000F900F90DF91CF911F910F9108950F936C
:1017E0001F93CF93DF9300D0CDB7DEB798E79983EF
:1017F00098E09A83082F10E0A80162E070E0CE0123
:1018000001960E941C0AA8014F5F5F4F62E070E0E2
:10181000CE0102960E941C0A0F900F90DF91CF918B
:101820001F910F9108950F931F93CF93DF9300D0D3
:10183000CDB7DEB790E3998398E29A83082F10E042
:10184000A80162E070E0CE0101960E941C0AA80186
:101850004F5F5F4F62E070E0CE0102960E941C0A6B
:101860000F900F90DF91CF911F910F910895EF92FC
:10187000FF920F931F93CF93DF93CDB7DEB72C97D3
:101880000FB6F894DEBF0FBECDBF7C018CE0E5EA59
:10189000F2E0DE01119601900D928A95E1F700E0E9
:1018A00010E0A8014F5D5F4FF7016081718181E019
:1018B00090E08C0F9D1F800F911F0E941C0A0F5FEC
:1018C0001F4F0C30110569F72C960FB6F894DEBF48
:1018D0000FBECDBFDF91CF911F910F91FF90EF9081
:1018E00008954F925F926F927F928F929F92AF92E4
:1018F000BF92CF92DF92EF92FF920F931F93CF93FD
:10190000DF9300D0CDB7DEB71092C0041092BF04B1
:1019100086E490E09A8389830E948C0A812C912C22
:1019200048E3C42ED12CE12CF12C53E0A52EB12C90
:1019300066E4462E512C73E0672E712C8091BF0413
:101940009091C00401969093C0048093BF0460E01E
:1019500088E894E00E94501040E060E088E894E05D
:101960000E94B0104AE050E0B50188E894E00E947F
:10197000061D6EED72E088E894E00E94321C6091D2
:10198000BF047091C0044AE050E088E894E00E94EF
:10199000061DC114D10419F438E3C32ED12C4AE03A
:1019A0006C2D88E894E00E94B01061EE72E088E847
:1019B00094E00E94321C8091BF0480FD03C021E0AE
:1019C000C21AD1080DE22FE34DE260E088E894E00E
:1019D0000E946D1189819A81893F9F4F14F45A8228
:1019E0004982CE0101960E94370C89819A81029723
:1019F0009A8389830697D9F58DE0E816F1046CF592
:101A000021E0A21AB1080E94900B88E894E00E949D
:101A10007F1060E080E10E94B11968E770E085E026
:101A20000E94F01864EF71E080E090E00E9470186E
:101A300060E270E085E00E94F01864EF71E080E001
:101A400090E00E94701860E085E00E94B1198091DA
:101A50002303865F809323033CC08091BF04909151
:101A6000C0048E0D9F1D9093C0048093BF041E2D53
:101A700080E28E190E94500B8091BF049091C004A7
:101A8000B3010E94AA1D892B21F48AE28E190E94BB
:101A9000CB0B8091BF049091C0040196B3010E94CA
:101AA000AA1D892B21F48AE2811B0E94EF0B8091F1
:101AB000BF049091C0040296B3010E94AA1D892B15
:101AC00021F48AE2811B0E94130C88E894E00E94B2
:101AD0007F108091BF049091C004813A2FE092075B
:101AE00094F4893B2BE092078CF48D3D25E092071E
:101AF00084F4893E23E092077CF4853F91407CF09A
:101B000062E370E00EC06AE070E00BC064E170E078
:101B100008C06EE170E005C068E270E002C066E4F3
:101B200070E0860E971E882777FD8095982F0E947B
:101B3000701885E68816910424F00E943309812CE0
:101B4000912CF7013197EF30F10508F04CC0EC5CB7
:101B5000FF4F0C94FF1D2EE0E22EF12C4FC06CE3E2
:101B600070E085E00E94F01861E080E10E94B11908
:101B700097E0E92EF12C42C061E470E085E00E941C
:101B8000F0188DE0E82EF12C39C065E570E085E0B5
:101B90000E94F0180FE0E02EF12C30C06FE570E0ED
:101BA00085E00E94F0181CE0E12EF12C27C060E0D7
:101BB00085E00E94B119B9E0EB2EF12C1FC0A8E01E
:101BC000EA2EF12C1BC0F6E0EF2EF12C17C0E4E05A
:101BD000EE2EF12C13C060E080E10E94B11972E09A
:101BE000E72EF12C0BC0E114F10441F484E00E94D3
:101BF000E719892B21F5EE24E394F12C1A141B0428
:101C00000CF49CCE0E94DA0A0F900F90DF91CF91D6
:101C10001F910F91FF90EF90DF90CF90BF90AF900A
:101C20009F908F907F906F905F904F9008955BE0B2
:101C3000E52EF12CE3CF4AE0E42EF12CDFCFE12CAE
:101C4000F12CDCCFCF93DF936DE570E080E090E086
:101C50000E94701884E00E94E719892B09F05BC08C
:101C60006CE271E080E090E00E94701880912303A4
:101C70008D5F8093230384E00E94E719892B09F08C
:101C80004AC01092270360E086E00E94B1196FEA13
:101C900088E894E00E94D10F60E088E894E00E9418
:101CA00050100E94DF09C8E2D0E00E9433090E9470
:101CB000690988E894E00E947F1064E670E080E0A3
:101CC00090E00E947018219781F76EEA88E894E00E
:101CD0000E94D10F84E00E94E719892BE1F463EEA2
:101CE00072E08DE895E00E943F1C6FEA88E894E07E
:101CF0000E94D10F809164008E7F809364000E94C7
:101D0000710C809164008160809364006EEA88E8C1
:101D100094E00E94D10F83E00E94E719892B19F506
:101D20006CE271E080E090E00E94701880912303E3
:101D30008D5F8093230383E00E94E719892B99F438
:101D40001092270360E086E00E94B11910925C03B4
:101D500082E390E090930501809304016EE78DE8A3
:101D600095E00E94511C8091040190910501C39758
:101D70000CF44EC08091280390912903892B09F01F
:101D800047C080915C03833241F580E280935C031D
:101D900080915E03805390915D0390532AE0929F5F
:101DA000800D1124809326038091610380539091CC
:101DB000600390532AE0929F800D112480932503A5
:101DC0008091640380539091630390532AE0929F23
:101DD000800D1124809324031BC08532C9F48091A7
:101DE0005D0380932703882369F061E086E00E9409
:101DF000B11980910401909105019093290380937A
:101E0000280306C060E086E00E94B11910925C03CE
:101E100080910401909105018333910504F1209193
:101E200028033091290382179307CCF060E088E8FB
:101E300094E00E94501040E060E088E894E00E9446
:101E4000B0106091280370912903665D7C4F88E88B
:101E500094E00E94321C88E894E00E947F10209158
:101E600028033091290380910401909105012817DE
:101E7000390769F46EEA88E894E00E94D10F109265
:101E80005C0382E390E090930501809304010E943B
:101E90002B089093290380932803DF91CF910C9412
:101EA00033092AE048E069E088E894E00C94C40F24
:101EB000CF93DF938DE895E00E94101A892B59F19A
:101EC0008DE895E00E94291A9EE3980F923090F3D6
:101ED0008A3089F46FEA88E894E00E94D10FE0919B
:101EE0000401F0910501E65DFC4F10821092290378
:101EF00010922803DFCFC0910401D09105010E9408
:101F00000E09FE01E65DFC4F80832196D09305010A
:101F1000C0930401CFCFDF91CF910895CF93CFB776
:101F2000F8948091C304811127C0E3EDFFE0849110
:101F3000EFEBFFE09491E82FF0E0EE0FFF1FEF5082
:101F4000F04FA591B4918C91892321F461E08AE04E
:101F50000E94B11961E08AE00E9478198CB5806115
:101F60008CBD8CB580648CBD61E08DE00E947819D9
:101F700061E08BE00E9478198091C3048F5F8093A9
:101F8000C304CFBFCF910895FC01138212828EEE5D
:101F900092E091838083668345832483148E138E1D
:101FA0000895CF93DF93EC018B8D9C8D0097C1F446
:101FB000E8A1F9A1908189A5809589238083EE8D80
:101FC000FF8D908188A5809589238083CE010E9412
:101FD0006614EE8DFF8D808198A5892B808313C0B8
:101FE0008130910541F4262F40E06D8DCE01DF91C7
:101FF000CF910C945615029731F440E0CE01DF9159
:10200000CF910C940B15DF91CF910895CF93DF936F
:10201000EC018B8D9C8D0097B9F4E8A1F9A180812A
:1020200099A5892B8083EE8DFF8D908188A5809561
:1020300089238083CE010E946614EE8DFF8D8081FE
:1020400098A5892B808313C08130910541F4262FF8
:1020500040E46D8DCE01DF91CF910C94561502971F
:1020600031F441E0CE01DF91CF910C940B15DF915B
:10207000CF910895606B0C94D10F1F93CF93DF9392
:10208000EC01162F62956F7060616E5F0E94D10F38
:10209000612F6F70CE01DF91CF911F910C94D10F02
:1020A000FF920F931F93CF93DF93EC016130B9F44C
:1020B000F12C6F2DCE010E943A1060E0CE010E94FB
:1020C0003D1000E810E060E0CE010E9406100150D3
:1020D0001109C9F7F39428E0F212EBCF0AC080E8A7
:1020E00091E0E6E0F1E0DF019C011D9221503040DB
:1020F000E1F7DF91CF911F910F91FF900895DF924B
:10210000EF92FF920F931F93CF93DF938C0186E0A2
:10211000E82E81E0F82ED12C6D2DC8010E943A10D6
:1021200060E0C8010E943D10C0E0D0E0F701EC0F74
:10213000FD1F6081C8010E9406102196C034D105A0
:10214000A9F7D39480E4E80EF11C86E0D812E4CF1E
:10215000DF91CF911F910F91FF90EF90DF90089545
:10216000FC0161AB42AB08950F936034D8F5403366
:10217000C8F50130C9F42130A9F5E42FE695E695BC
:10218000E69580E4E89FF0011124E60FF11DEA5F77
:10219000FE4F477081E090E0042E01C0880F0A9442
:1021A000EAF7908198271DC0842F8695869586959D
:1021B000E62FF0E0477090E4899FE00DF11D1124B7
:1021C000EA5FFE4F81E090E0042E01C0880F0A9480
:1021D000EAF7213019F49081982B03C08095908103
:1021E000982390830F9108950F93FC0103A522A5D6
:1021F0000E94B4100F9108957F928F929F92AF9298
:10220000BF92CF92DF92EF92FF920F931F93CF93E3
:10221000DF93EC01162FF42ED22EA02FB0E0A41BDA
:10222000B109B7FF03C0B195A195B109ED2DF0E05B
:10223000E11BF109F7FF03C0F195E195F109AA242B
:10224000A394EA17FB0714F0A12C06C09D2DD02EF5
:10225000092F912F1F2DF92ED11630F49F2DF02E1E
:10226000092F912F1D2DD92E9D2C911AE02FF0E0D2
:10227000EF19F109F7FF03C0F195E195F1097E2E01
:10228000B92CB694F01618F48824839412C08824CC
:102290008A940FC00C2D2E2DAA2071F0412F6F2D86
:1022A000CE010E94B410B718B7FE02C0F80CB90CEA
:1022B0001F5F1D1578F303C04F2D612FF1CFDF9104
:1022C000CF911F910F91FF90EF90DF90CF90BF9033
:1022D000AF909F908F907F900895CF92EF920F9341
:1022E000FC01C3A4E2A40E94FC100F91EF90CF90D8
:1022F0000895CF92EF920F93260FCE2CE02E042F4D
:102300000E94FC100F91EF90CF900895CF92EF9222
:102310000F93240FCE2CE02E022F262F0E94FC10AC
:102320000F91EF90CF900895AF92BF92CF92DF922E
:10233000EF92FF920F931F93CF93DF93EC01F62E52
:10234000B42ED22EA02E1E2DEC2C012F0E9479111E
:102350004FEF4A0D4B0D2D2D6F2DCE010E9479119F
:10236000AA94AA9479F0B3942A2D4B2D6F2DCE0107
:102370000E9486116FEF6D0D6F0D2A2D4B2DCE0132
:102380000E948611DF91CF911F910F91FF90EF90E6
:10239000DF90CF90BF90AF900895CF92EF920F93C0
:1023A000FC01C3A4E2A40E9494110F91EF90CF907E
:1023B00008955F926F927F928F929F92AF92BF9299
:1023C000CF92DF92EF92FF920F931F93CF93DF9301
:1023D0004C01162FF42ED02E5E2CA62EB12CC0E070
:1023E000D0E03501620E711CCE018A0D9B1D861551
:1023F00097055CF46C2F610FEC2C052D2D2D4F2DC6
:10240000C4010E9486112196EFCFDF91CF911F91D9
:102410000F91FF90EF90DF90CF90BF90AF909F9083
:102420008F907F906F905F900895CF92EF920F936F
:10243000FC01C3A4E2A40E94D9110F91EF90CF90A8
:102440000895DC01643008F032C09E966C939E972C
:10245000E62FF0E0EE0FFF1FEA57FD4F80819181DC
:10246000FC0124919C962C939C973196E4919D9627
:10247000EC939D97FC013296E4919F96EC939F9785
:10248000FC013396E491D096EC93D097FC013496FE
:1024900024913196849190E0F4E62F9F800D911D58
:1024A0001124D4969C938E93D39781E0089580E075
:1024B0000895CF93DF93EC0160E00E94211281E048
:1024C0008AA71BA619AA1AAA8D81682F70E0AB01F2
:1024D0004753504FFA01249130E0220F331F295106
:1024E000304FF901A591B491B9A3A8A3FB01EB5416
:1024F000F04F649169A7FA014491E42FF0E0EE0FE8
:10250000FF1FEF50F04F259134913DA32CA361E0C4
:102510000E94781961E08E810E9478198B8D9C8DC4
:10252000009721F4CE010E9420140CC08130910547
:1025300021F4CE010E946D1405C0029719F4CE015A
:102540000E94751461E08E810E94781961E08E818D
:102550000E94B11965E070E080E090E00E94701880
:1025600060E08E810E94B1196AE070E080E090E046
:102570000E94701861E08E810E94B1196EEACE014E
:102580000E94D10F65EDCE010E94D10F60E8CE010F
:102590000E94D10F68EACE010E94D10F6FE2CE01F6
:1025A0000E94D10F63EDCE010E94D10F60E0CE01F9
:1025B0000E94D10F60E4CE010E94D10F6DE8CE01E0
:1025C0000E94D10F64E1CE010E94D10F66EACE01D4
:1025D0000E94D10F64EACE010E94D10F61EACE01C0
:1025E0000E94D10F68ECCE010E94D10F6AEDCE019E
:1025F0000E94D10F62E1CE010E94D10F61E8CE01AD
:102600000E94D10F6FE8CE010E94D10F69EDCE017B
:102610000E94D10F61EFCE010E94D10F6BEDCE0170
:102620000E94D10F60E4CE010E94D10F6FEACE016B
:102630000E94D10F61E0CE01DF91CF910C94501038
:102640005F926F927F928F929F92AF92BF92CF9242
:10265000DF92EF92FF920F931F93CF93DF93EC01E2
:10266000162FB42EF02E3FA5231708F4B0C068A98A
:1026700070E0630F711D822F90E0861797070CF0B2
:10268000A6C0D22ED31A9DA496949694969481E0D7
:102690008915C0F1C12E3C2D311B2CA5822F90E055
:1026A000A32FB0E08A179B070CF491C0321791F06A
:1026B000EEA5F0E0EE0FFF1FEA57FD4FD29EA00DF2
:1026C000B11D112416960190F081E02DEA0FFB1F39
:1026D000949001C0912CA12C4A2D4B0D90FE03C06B
:1026E0000E2D2F2D04C021E0F11020E00E2D6C2DB9
:1026F000CE010E94B4109694A39488E0A812ECCF67
:10270000C394C9CFEBA9FCA92CA530E0CF01B90136
:102710000E94961D8D2D90E00E94961D829F600163
:10272000839FD00C929FD00C11249E9E90019F9E5F
:10273000300D1124269FC001279F900D369F900DCC
:102740001124C80ED91E742EA12CB12C86E0C80EFF
:10275000D11C812E482D411B8CA5481780F5EEA574
:10276000F0E0EE0FFF1FEA57FD4F2BA93CA9A29EF8
:10277000C001A39E900DB29E900D11248C0D9D1D45
:10278000840F911D0190F081E02DE80FF91F549006
:10279000612C462D470D50FE03C00E2D2F2D04C079
:1027A00021E0F11020E00E2D682DCE010E94B41022
:1027B0005694639488E06812ECCF8394CBCF8FEF6C
:1027C000A81AB80A88E0780EA91408F4C2CFDF91DD
:1027D000CF911F910F91FF90EF90DF90CF90BF901E
:1027E000AF909F908F907F906F905F900895EF9241
:1027F0000F93CF93DF93EC01262F6A30A9F06D3051
:10280000C1F0EBA40AA54AA969A90E9420134CA50E
:1028100029A9240F2F5F29AB30E080E490E0841BCE
:102820009109821793072CF48AA99DA5890F8AAB79
:1028300019AA81E090E0DF91CF910F91EF90089578
:10284000CF93DF93EC014C8150E09A012753304F36
:10285000F901849190E0880F991F8951904FFC01F4
:10286000659174917F8F6E8FFA01EB54F04F449114
:1028700048A7F9012491E22FF0E0EE0FFF1FEF507F
:10288000F04F859194919BA38AA361E08BE00E9415
:10289000781961E08DE00E94781961E08C810E94D6
:1028A000781961E08C810E94B1198CB58C7F8CBD48
:1028B0008DB581608DBD8CB5837F8CBD61E08AE074
:1028C0000E947819DF91CF910C948E0F6EBD00009D
:1028D0000DB407FEFDCF8EB5089584EC94E00E9400
:1028E0000C1687E08093B80008950F931F93CF9341
:1028F000DF93EC014C8150E09A012753304FF901EE
:10290000849190E0880F991F8951904FFC01659147
:1029100074917F8F6E8FFA01EB54F04F449148A76A
:10292000F9012491E22FF0E0EE0FFF1FEF50F04F7E
:10293000859194919BA38AA38F81682F70E0AB014E
:102940004753504FFA01249130E0220F331F295191
:10295000304FF901A591B491BA8BA98BFB01EB54CF
:10296000F04F6491698FFA014491E42FF0E0EE0F8B
:10297000FF1FEF50F04F259134913C8B2B8B6885D6
:1029800070E0AB014753504FFA01249130E0220F21
:10299000331F2951304FF901A591B491BE8BAD8BF6
:1029A000FB01EB54F04F64916A8FFA014491E42FDC
:1029B000F0E0EE0FFF1FEF50F04F25913491388F6C
:1029C0002F8B61E00E94781961E08F810E94B1191C
:1029D00061E088850E94781961E088850E94B119BC
:1029E00061E08C810E94781961E08C810E94B119AC
:1029F00000E010E0FE01E00FF11F61E081850E9420
:102A000078190F5F1F4F08301105A1F7DF91CF91A3
:102A10001F910F910895CF92DF92EF92FF920F9343
:102A20001F93CF93DF931F92CDB7DEB76C01E62ED5
:102A300060E0FC01848149830E94B1194981642FBF
:102A4000F60185810E94B11960E0F60187810E943C
:102A5000B11900E010E0F12CF601E00FF11FC70101
:102A6000002E02C0959587950A94E2F780FF02C078
:102A700061E001C060E081850E94B1190F5F1F4FC6
:102A80000830110549F761E0F60187810E94B1190C
:102A900061E0F60184810F90DF91CF911F910F913A
:102AA000FF90EF90DF90CF900C94B119CF93DF930C
:102AB00000D0CDB7DEB784EC94E02A8349830E942E
:102AC00016164981642F84EC94E00E94CD152A816A
:102AD000622F84EC94E00E94CD1584EC94E00F907A
:102AE0000F90DF91CF910C9433168091F40490E015
:102AF0002091F504821B910908952091F50480919D
:102B0000F404281750F4E22FF0E0EA50FB4F8081E4
:102B100090E02F5F2093F50408958FEF9FEF0895C5
:102B2000E091F5048091F404E81730F4F0E0EA5005
:102B3000FB4F808190E008958FEF9FEF08950895F7
:102B4000CF92DF92EF92FF920F931F93CF93DF9379
:102B50007C01CB018A012091D004222389F0EB0172
:102B60006B01C40ED51ECC15DD0569F06991D70146
:102B7000ED91FC910190F081E02DC7010995F3CF13
:102B8000642F0E94AF16C801DF91CF911F910F9162
:102B9000FF90EF90DF90CF900895CF93DF931F9237
:102BA000CDB7DEB769832091D0042223D1F02091E4
:102BB000D104203240F021E030E0FC013383228355
:102BC00080E090E015C08091D204E82FF0E0ED5253
:102BD000FB4F998190838F5F8093D2048093D104BF
:102BE00005C061E0CE0101960E94AF1681E090E041
:102BF0000F90DF91CF910895FC011382128248EE6D
:102C000053E060E070E0448355836683778386EF0A
:102C100092E09183808308951092F5041092F40459
:102C20001092D2041092D1040C943A1681E0809351
:102C3000D0046093F3041092D2041092D10408954A
:102C40000F93062F21E04091D10463ED74E0809151
:102C5000F3040E9458161092D2041092D1041092DC
:102C6000D0040F91089561E00C94201684EC94E058
:102C70000C94FC151092830581E0809381051092DD
:102C8000800561E082E10E94B11961E083E10E9468
:102C9000B119E9EBF0E080818E7F808380818D7FA8
:102CA000808384E38093B80085E48093BC0008951A
:102CB0000F93413208F04AC0909183059111FCCFE7
:102CC00092E090938305009381059FEF9093160502
:102CD00010925B0540935A05FB016CE575E0DB0142
:102CE0009A2F961B941718F491919D93F9CF1092F7
:102CF000820590918205880F892B809382058091AF
:102D00008005813061F41092800580918205809366
:102D1000BB008091BC0083FDF8CF85EC01C085EE3F
:102D20008093BC00222321F0809183058230E1F35F
:102D3000809116058F3F61F080911605803251F029
:102D400080911605803341F483E007C081E005C01F
:102D500080E003C082E001C084E00F9108956132F9
:102D600098F420918305243089F460933805FC01A0
:102D70008AE395E0DC012A2F281B261718F42191FD
:102D80002D93F9CF80E0089581E0089582E00895C1
:102D900085ED8093BC008091BC0084FDFCCF109237
:102DA0008305089585EC8093BC00109283050895F7
:102DB0001F920F920FB60F9211242F933F934F93B0
:102DC0005F936F937F938F939F93AF93BF93EF9393
:102DD000FF938091B900887F803609F49EC078F512
:102DE000883209F45DC090F4803109F456C038F49B
:102DF000882309F4F5C0883009F44FC0F5C0883144
:102E000009F44EC0803209F45FC0EEC0803409F48A
:102E10006AC058F4803309F457C0883309F0E4C01D
:102E2000809316050E94D216DFC0803509F44FC08A
:102E3000883509F45DC0883409F0D6C0D3C088391C
:102E400009F4C4C0A8F4883709F467C038F4883698
:102E500009F463C0803709F460C0C6C0883809F43B
:102E6000B5C0803909F45FC0803809F0BDC05BC0CF
:102E7000803B09F483C038F4803A09F466C0883A8C
:102E800009F47CC0B1C0803C09F4A4C0883C09F4BA
:102E9000A1C0883B09F487C0A7C08091820510C0FB
:102EA00090915B0580915A05981770F5E0915B054C
:102EB00081E08E0F80935B05F0E0E45AFA4F808149
:102EC0008093BB0085EC83C0809316058BC0E09196
:102ED0005B0581E08E0F80935B058091BB00F0E085
:102EE000E45AFA4F808390915B0580915A056BC03C
:102EF000E0915B0581E08E0F80935B058091BB00C4
:102F0000F0E0E45AFA4F80838091810581116AC014
:102F100081E08093800584EA5EC083E0809383052E
:102F200010921705CFCF80911705803208F04EC060
:102F3000E091170581E08E0F809317058091BB000B
:102F4000F0E0E85EFA4F8083BDCF0E94D2168091F8
:102F50001705803230F4E0911705F0E0E85EFA4F93
:102F600010826091170570E0E0917C05F0917D057D
:102F700088E195E009951092170536C084E08093AA
:102F800083051092390510923805E0917E05F09185
:102F90007F05099580913805811105C081E08093F6
:102FA000380510923A05E091390581E08E0F809343
:102FB0003905F0E0E65CFA4F80818093BB00909188
:102FC000390580913805981708F47CCF85E88093FF
:102FD000BC000AC085EC8093BC001092830504C03D
:102FE000109216050E94C816FF91EF91BF91AF9104
:102FF0009F918F917F916F915F914F913F912F9111
:103000000F900FBE0F901F9018951F920F920FB642
:103010000F9211242F933F938F939F93AF93BF935E
:103020008091850590918605A0918705B0918805CE
:10303000309184052DE2230F2D3720F40196A11D38
:10304000B11D05C020EB230F0296A11DB11D2093D9
:1030500084058093850590938605A0938705B0939A
:1030600088058091890590918A05A0918B05B09182
:103070008C050196A11DB11D8093890590938A0549
:10308000A0938B05B0938C05BF91AF919F918F91C9
:103090003F912F910F900FBE0F901F9018959FB7E3
:1030A000F8944091890550918A0560918B05709143
:1030B0008C0586B5A89B06C08F3F21F04F5F5F4F00
:1030C0006F4F7F4F9FBF2227342F452F562F280F3A
:1030D000311D411D511DA5E0B0E00E94051E08955F
:1030E000CF92DF92EF92FF92CF93DF936B017C013F
:1030F0000E944F18EB01C114D104E104F10489F0DE
:103100000E94791D0E944F186C1B7D0B683E734016
:1031100090F381E0C81AD108E108F108C851DC4FEA
:10312000EACFDF91CF91FF90EF90DF90CF9008959D
:10313000789484B5826084BD84B5816084BD85B592
:10314000826085BD85B5816085BDEEE6F0E0808159
:1031500081608083E1E8F0E010828081826080837A
:10316000808181608083E0E8F0E0808181608083FD
:10317000E1EBF0E0808184608083E0EBF0E080812F
:1031800081608083EAE7F0E08081846080838081D1
:103190008260808380818E7F80838081806880834D
:1031A0001092C10008958E3008F08E5087702091E3
:1031B0008E0290E4299F90011124822B80937C0041
:1031C00080917A00806480937A0080917A0086FDF5
:1031D000FCCF809178002091790090E0922B0895A7
:1031E0001F93CF93DF93182FEB0161E00E947819B2
:1031F000209711F460E004C0CF3FD10539F461E0BD
:10320000812FDF91CF911F910C94B119E12FF0E044
:10321000EF55F04FE491E330F9F048F4E130B9F0C4
:10322000E230A1F584B5806284BDC8BD34C0E7300A
:10323000E9F0E83019F1E43049F5809180008062CE
:1032400080938000D0938B00C0938A0024C084B503
:10325000806884BDC7BD1FC0809180008068809356
:103260008000D0938900C093880015C08091B00081
:1032700080688093B000C093B3000DC08091B0000F
:1032800080628093B000C093B40005C0C038D105FF
:103290000CF0B5CFAFCFDF91CF911F910895833060
:1032A00081F028F4813099F08230A1F008958730C0
:1032B000A9F08830B9F08430D1F4809180008F7DFE
:1032C00003C0809180008F7780938000089584B53B
:1032D0008F7702C084B58F7D84BD08958091B00042
:1032E0008F7703C08091B0008F7D8093B0000895E8
:1032F000CF93DF9390E0FC01EB54F04F2491FC015D
:10330000E753F04F8491882349F190E0880F991F8B
:10331000FC01EF50F04FA591B4918951904FFC0101
:10332000C591D4919FB7611108C0F8948C912095F4
:1033300082238C93888182230AC0623051F4F894EE
:103340008C91322F309583238C938881822B8883B4
:1033500004C0F8948C91822B8C939FBFDF91CF9106
:1033600008950F931F93CF93DF931F92CDB7DEB7CE
:10337000282F30E0F901EF55F04F8491F901EB541B
:10338000F04F1491F901E753F04F04910023C9F075
:10339000882321F069830E944F196981E02FF0E0B2
:1033A000EE0FFF1FE951F04FA591B4919FB7F8942C
:1033B0008C91611103C01095812301C0812B8C93E6
:1033C0009FBF0F90DF91CF911F910F910895CF93E1
:1033D000DF93282F30E0F901EF55F04F8491F90188
:1033E000EB54F04FD491F901E753F04FC491CC2343
:1033F00091F081110E944F19EC2FF0E0EE0FFF1FAA
:10340000E352F04FA591B4912C912D2381E090E0EF
:1034100021F480E002C080E090E0DF91CF91089538
:10342000FC01818D228D90E0805C9F4F821B910971
:103430008F7399270895FC01918D828D981731F033
:10344000828DE80FF11D858D90E008958FEF9FEF3D
:103450000895FC01918D828D981761F0828DDF01B6
:10346000A80FB11D5D968C91928D9F5F9F73928F77
:1034700090E008958FEF9FEF089587EA9BE1892BF5
:1034800049F088E59FE0892B29F00E94A71B811154
:103490000C94580F0895FC01848DDF01A80FB11D15
:1034A000A35ABF4F2C91848D90E001968F7399277A
:1034B000848FA689B7892C93A089B1898C91806467
:1034C0008C93938D848D981306C00288F389E02D28
:1034D00080818F7D80830895CF93DF93EC01888D69
:1034E0008823C9F0EA89FB89808185FD05C0A88908
:1034F000B9898C9186FD0FC00FB607FCF5CF80818E
:1035000085FFF2CFA889B9898C9185FFEDCFCE01D7
:103510000E944B1AE7CFDF91CF910895CF92DF92AF
:10352000FF920F931F93CF93DF931F92CDB7DEB718
:103530006C0181E0D60158968C9358975B969C91CC
:103540005B975C968C915C97981307C05096ED91B1
:10355000FC915197808185FD2EC0F601038D10E00E
:103560000F5F1F4F0F731127F02EF601848DF81295
:1035700011C00FB607FCF9CFD6015096ED91FC9122
:103580005197808185FFF1CFC60169830E944B1A54
:103590006981EBCF838DE80FF11DE35AFF4F608304
:1035A000D6015B960C935B975296ED91FC915397E5
:1035B000808180620CC0D6015696ED91FC915797A0
:1035C00060835096ED91FC91519780818064808357
:1035D00081E090E00F90DF91CF911F910F91FF90CC
:1035E000DF90CF900895BF92CF92DF92EF92FF923B
:1035F000CF93DF93EC016A017B01B22E60EC76EC95
:103600008DE290E0A70196010E94BE1D2150310974
:10361000410951095695479537952795E889F989C4
:1036200082E08083211580E1380798F0E889F989E4
:10363000108260E673EE86E190E0A70196010E9499
:10364000BE1D2150310941095109569547953795BD
:103650002795EC85FD853083EE85FF852083188EC8
:10366000EC89FD89B082EA89FB8980818061808351
:10367000EA89FB89808188608083EA89FB8980816F
:1036800080688083EA89FB8980818F7D8083DF91D8
:10369000CF91FF90EF90DF90CF90BF9008951F9251
:1036A0000F920FB60F9211242F938F939F93EF9346
:1036B000FF93E0919D05F0919E058081E091A30527
:1036C000F091A40582FD12C090818091A6058F5FC4
:1036D0008F732091A705821751F0E091A605F0E0C5
:1036E000E357FA4F958F8093A60501C08081FF9123
:1036F000EF919F918F912F910F900FBE0F901F9080
:1037000018951F920F920FB60F9211242F933F938B
:103710004F935F936F937F938F939F93AF93BF93D9
:10372000EF93FF938DE895E00E944B1AFF91EF9184
:10373000BF91AF919F918F917F916F915F914F91C9
:103740003F912F910F900FBE0F901F9018958DE80D
:1037500095E00E94101A21E0892B09F420E0822FC5
:1037600008951092900510928F0588EE93E0A0E0E6
:10377000B0E08093910590939205A0939305B09348
:10378000940586E093E090938E0580938D0585ECFB
:1037900090E090939A058093990584EC90E0909343
:1037A0009C0580939B0580EC90E090939E05809310
:1037B0009D0581EC90E09093A00580939F0582EC9D
:1037C00090E09093A2058093A10586EC90E0909301
:1037D000A4058093A3051092A6051092A705109248
:1037E000A8051092A9050895CF92DF92EF92FF925B
:1037F0000F931F93CF93DF937C016A01EB0100E0ED
:1038000010E00C151D0571F06991D701ED91FC9147
:103810000190F081E02DC7010995892B19F00F5F08
:103820001F4FEFCFC801DF91CF911F910F91FF90F4
:10383000EF90DF90CF9008956115710581F0DB0165
:103840000D900020E9F7AD0141505109461B570B7F
:10385000DC01ED91FC910280F381E02D099480E080
:1038600090E008950C941C1CDC01ED91FC910190FA
:10387000F081E02D099462E173E00C941C1C0F931D
:103880001F93CF93DF93EC010E941C1C8C01CE018F
:103890000E943B1C800F911FDF91CF911F910F91D0
:1038A00008950F931F93CF93DF93EC010E94341C74
:1038B0008C01CE010E943B1C800F911FDF91CF91A4
:1038C0001F910F9108958F929F92AF92BF92CF92C6
:1038D000DF92EF92FF920F931F93CF93DF93CDB7B9
:1038E000DEB7A1970FB6F894DEBF0FBECDBF7C0147
:1038F000C42EE52FCB01D22E19A221E02D1510F0F8
:103900002AE0D22E8E010F5D1F4F8D2C912CA12C01
:10391000B12C6C2D7E2FA50194010E94BE1D8C2D13
:10392000D29E80191124015011098A3014F4805D4F
:1039300001C0895CF80180832115310541055105DD
:1039400021F0C22EE32FCA01E4CFB801C7010E94C3
:103950001C1CA1960FB6F894DEBF0FBECDBFDF9141
:10396000CF911F910F91FF90EF90DF90CF90BF907C
:10397000AF909F908F900895CF92DF92EF92FF9239
:103980000F931F93CF93DF93EC016A017B01211505
:10399000310579F4E881F9810190F081E02D642FFF
:1039A000DF91CF911F910F91FF90EF90DF90CF901B
:1039B00009942A303105E9F477FF1AC06DE20E94BC
:1039C000341C8C0144275527BA014C195D096E0936
:1039D0007F092AE0CE010E94631C800F911FDF91B6
:1039E000CF911F910F91FF90EF90DF90CF900895AE
:1039F0002AE0B701A601CE01DF91CF911F910F916F
:103A0000FF90EF90DF90CF900C94631C9A01AB0174
:103A1000662757FD6095762F0C94BC1C2115310547
:103A200041F4DC01ED91FC910190F081E02D642FD7
:103A300009940C94631C9A01462F50E060E070E0FA
:103A40000C940E1D4F925F926F927F92AF92BF9235
:103A5000CF92DF92EF92FF920F931F93CF93DF935A
:103A6000CDB7DEB729013A01621B730B840B950BAE
:103A700029893A894B895C892A193B094C095D09D6
:103A8000298B3A8B4B8B5C8B9B01AC0169897A89C2
:103A90008B899C890E947A1DE418F508060917098C
:103AA000A80197010E94E01D2A0D3B1D4C1D5D1DC4
:103AB000CA01B901DF91CF911F910F91FF90EF9053
:103AC000DF90CF90BF90AF907F906F905F904F90BE
:103AD000089508950E9498180E94691D0E94B508D3
:103AE000CDE3DAE10E94220E2097E1F30E943D1A15
:103AF000F9CF0895DB018F939F930E94051EBF911C
:103B0000AF91A29F800D911DA39F900DB29F900D2C
:103B100011240895991B79E004C0991F961708F0A5
:103B2000961B881F7A95C9F780950895AA1BBB1B21
:103B300051E107C0AA1FBB1FA617B70710F0A61BAD
:103B4000B70B881F991F5A95A9F780959095BC01CE
:103B5000CD01089597FB072E16F4009407D077FD4A
:103B600009D00E94961D07FC05D03EF490958195E2
:103B70009F4F0895709561957F4F0895A1E21A2E89
:103B8000AA1BBB1BFD010DC0AA1FBB1FEE1FFF1F01
:103B9000A217B307E407F50720F0A21BB30BE40B51
:103BA000F50B661F771F881F991F1A9469F7609598
:103BB0007095809590959B01AC01BD01CF01089552
:103BC000052E97FB1EF400940E94F71D57FD07D0A9
:103BD0000E94BE1D07FC03D04EF40C94F71D5095B7
:103BE0004095309521953F4F4F4F5F4F08959095E9
:103BF0008095709561957F4F8F4F9F4F0895EE0F81
:103C0000FF1F0590F491E02D09940E94101EA59FBE
:103C1000900DB49F900DA49F800D911D11240895C7
:103C2000A29FB001B39FC001A39F700D811D1124FD
:103C3000911DB29F700D811D1124911D0895F99958
:103C4000FECF92BD81BDF89A992780B50895262FA1
:103C5000F999FECF1FBA92BD81BD20BD0FB6F89471
:0E3C6000FA9AF99A0FBE01960895F894FFCFD4
:103C6E000100000032000000000000000000000013
:103C7E000000000000000080C0C0E0E0F0F0F0F8AE
:103C8E00F8F8F8F8FCFCFCFCFCFCFCF8F8F8F0E0AA
:103C9E00E0C08000000000000000000000000000F6
:103CAE000000000000000000000000000000000006
:103CBE0000C0F0F8FEFEFFFFFFFFFFFFFFFFFFFF5C
:103CCE00FFFFFF7F3F9F9FDFFFBF9F9FBFBFFFFF96
:103CDE00FFFFFFFFFCF8E000000000000000000006
:103CEE0000000000000000000000000000000000C6
:103CFE00FEFFFFFFFFFFFFFFFFFFFFFFFFFFFFFFC7
:103D0E00FFFFFFFFC3C9C1C3FFC38981C3FFFFFF0D
:103D1E00FFFFFFFFFFFFFF7F4000000000000000DD
:103D2E000000000000000000000000000000000085
:103D3E00033FFFFFFFFFFFFFF1E08EBC2DC9933F56
:103D4E007F7FFFFFFFFFFFFFFFFFFFFFFFFFFFFF75
:103D5E00FFFFFF7F3F9CC6761F070000000000009C
:103D6E000000000000000000000000000000000045
:103D7E00000001070F1F7FFFFFFFFFFFFFFFFFFF89
:103D8E00FFFEFCFCFDF9FBFBFBF3F3F3F3FBFBFB8C
:103D9E00F9FDFCFEFF3F07000000000000000000E0
:103DAE000000000000000000000000000000000005
:103DBE000000000000000000010307070F1F1F3F57
:103DCE003F3F3F3F3F7FFFFFFFEFEF8F0F0F0F0F85
:103DDE0007070101000000000000000000000000C5
:103DEE00000000000000A00A9A0486007C01013841
:103DFE002C3E3E383E98783C181C7C546C547C3CCF
:103E0E000C1C1C0C3C206028A8A8F87838303020F8
:103E1E002030002E0020202044696E6F003D3D3D75
:103E2E003D3D3D3D3D3D3D004869676873636F72A2
:103E3E00653A002047616D65204F7665720020203F
:103E4E00002A0047616D6520210000000000F71375
:103E5E00F41B00000000CD15A01575157D159015ED
:103E6E009F15000000008E1AF41B101A291A1B1A37
:103E7E006C1A0D0A006E616E00696E66006F7666D2
:023E8E00000032
:00000001FF
