:100000000C9401080C9429080C9429080C942908D4
:100010000C9429080C9429080C9429080C9429089C
:100020000C9429080C9429080C9429080C9429088C
:100030000C9429080C9429080C9429080C9429087C
:100040000C942E1A0C9429080C94781D0C94AA1D5B
:100050000C9429080C9429080C9429080C9429085C
:100060000C9401190C942908D30E1A0F170F0F0FB7
:10007000170F0B0F3B0F070F030FFB0EE00E3F0F89
:10008000E90EF20ECF0E0A102E0C01140000000033
:100090000000000000000000000000000000000060
:1000A00078FC020303030302FC7800000000000058
:1000B0000000FF7E0000028383838302FC7800003F
:1000C000028383838302FC787EFF0080808080002F
:1000D000FF7E78FC028383838302000078FC028326
:1000E0008383830200000002030303030302FC78FE
:1000F00078FC028383838302FC7878FC0283838309
:100100008302FC7800000060F0F060000000000056
:1001100000000000000000001E3F40C0C0C0C04002
:100120003F1E0000000000000000FF7E1C3E41C199
:10013000C1C1C1410000000041C1C1C1C1413E1C5B
:100140000000010101010101FF7E000041C1C1C1A8
:10015000C1413E1C1C3E41C1C1C1C1413E1C000009
:10016000000000000000FF7E1C3E41C1C1C1C14132
:100170003E1C000041C1C1C1C1413E1C0C30300BCE
:10018000012000C0F87C3E3EFCF8C00000000000EA
:1001900080E078FEFE000000000000F07C3C3E3E67
:1001A000FEFCE0000000007C3E3E3EFEF8C0000089
:1001B00000000000000000F8FEFE0000000000FE4D
:1001C000FE3E3E3E3E3E00000000000080F0FC3E51
:1001D0003E3EFC000000003E3E3E3E3E3E3EFEFEF9
:1001E00000000000C0F8FE3E7EFCE00000000000C1
:1001F000E0FC7E3EFEF8C000000000000000C0E011
:10020000C00000000000F0FF0F000000F9FFFFF049
:1002100000000000070300FFFF00000000000001D5
:100220000000000000FFFF000000000000000000D0
:10023000FFFF00000000000000E0FF1FFFFF0000C4
:10024000000000FFFF00000000000000000000E0D0
:10025000FF3F000000000000000000000000000060
:10026000C0FC7F0300000000FFFF000000FFFF0054
:10027000000000FEFF03000000FFFFF00000000090
:1002800000003F7F3F0000000000FFFF0000E0FF94
:100290001F00FFFF00000000000000FFFF00000043
:1002A00000000000000000E0FE1F01000000000050
:1002B000F8F8FCFFC7000000000000C0FE3F03008C
:1002C000FFFF00000000003F3F3E7EFCF8E0000022
:1002D000000000FFFF80F07C7CF8F00000000000D0
:1002E000000080F8FF07000000000000019FFFF8F9
:1002F000FE1F0100000000FFFFC0000080FFFFFFA5
:100300000000000000000000000000000000FFFFEF
:10031000C0FC7F030000FFFF00000000000000FFA2
:10032000FF0000000000000000E0FE0F01000000E0
:1003300000000000000000010FFFF8000000F8FFBF
:10034000E7E0E0E0FFFFE0E0E00000000000000088
:1003500007FFFE00000000FFFFFF03000001FFFF9A
:100360000000000000F0FF0F00000000000000C0CF
:10037000FC3F03031FFFFCC0000000000F1F3E3EB8
:100380000F01FFFF000000000000008000000000DF
:10039000000007FFFF07000000FCFF07000000004F
:1003A000000000FFFF000000000000E0FE0F000062
:1003B000000000000000000000000000C0FF7F00FF
:1003C0000000030303030303FFFF03030300000014
:1003D00000000000C0FF7F000000000FFFFF800052
:1003E0000080FF7F00000000FEFF0300000000000F
:1003F000000000FFFF8000000080FFFF0000000001
:100400000000000080FCFF07000000000000FFFF6C
:10041000FF000000000000031F3F7C7C3F1F030023
:10042000000000007C7C7C7F7F7C7C7C0000007F67
:100430007F7C7C7C7C7C7C000000003F7E7C7C7E22
:100440001F07000000000000000000007F7F000088
:100450000000001F3E7C7C3E1F07000000000000E3
:10046000031F7F7C7C3F0700000000007F7F0000AF
:1004700000000000000000011F3F7E7C7E3F1F0146
:10048000000000003E7C7C7E3F0F01000000000069
:100490000000000100000000000008102060023889
:1004A0000000000000000000000000FE000000004E
:1004B00000000E000E00000000D0BE90D0BE9000E4
:1004C000001C62FFC28000000C12924CB088060033
:1004D000807C62B21CC0000000000E0E0000000014
:1004E00000E01804020200000002020418E000000C
:1004F0000024187E18240000808080F08080800016
:1005000000000000000000000080808080000000EB
:1005100000000000000000000000806018060000DD
:10052000F804C2320CF80000000404FE00000000D1
:1005300000028242221C00000002222222DC000073
:10054000C0A09884FE808000001E121222C200000B
:10055000F844222222C00000000202C2320A060031
:10056000008C5222528C00003C42424226F800008D
:1005700000003030000000000000303000000000BB
:10058000808040402020100040404040404000001B
:10059000102020404080800000028242221C000087
:1005A0000000000000000000000000050000000046
:1005B000000000000000000000070000070000002D
:1005C0000004040F040300000402010304040300F8
:1005D0000304040405030400000000000000000000
:1005E00000030608101000000010100806030000A9
:1005F00000000000000000000000000700000000F4
:100600000000160E000000000000000000000000C6
:1006100000000606000000000402010000000000C7
:1006200001030404020100000004040704040000A4
:100630000007040404040000000404040403000090
:100640000000000007000000000404040403000090
:100650000102040404030000000007000000000081
:100660000003040404030000000404040201000069
:1006700000000606000000000000160E000000004A
:10068000000001010202040001010101010100005A
:10069000040202010100000000000500000000004B
:1006A000F804728AFA84780000C0380638C0000066
:1006B00000FE222222DC0000F804020202020000F6
:1006C000FE02020204F8000000FE222222220000A4
:1006D00000FE222222220000F804020222E2000090
:1006E000FE20202020FE0000000202FE0202000088
:1006F0000000000202FE0000FE40B00804020000FC
:1007000000FE000000000000FE0C7080700CFE0077
:10071000FE0C30C000FE0000F804020204F80000E5
:10072000FE424242221C0000F804020204F80000CB
:1007300000FE4242A21C0000001C22424280000037
:10074000020202FE02020200FE00000000FE0000A3
:100750000638C000C03806003EC0F00EF0C03E00B3
:100760000006986098060000000618E018060000D1
:100770000202C2320A0600000000FE02020202006B
:10078000000618608000000002020202FE00000065
:1007900040300C0C30400000000000000000000061
:1007A0000102040404000000060101010101060029
:1007B0000007040404030000010204040404000010
:1007C00007040404020100000007040404040000FC
:1007D00000070000000000000102040404070000FC
:1007E00007000000000700000004040704040000E4
:1007F00000040404040300000700000102040000D8
:1008000000070404040400000700000100000700C2
:1008100007000000030700000102040402010000B9
:1008200007000000000000000102040C121110007B
:100830000007000001060000000404040403000097
:10084000000000070000000003040404040300008B
:100850000000010601000000000700000007000082
:100860000006010001060000000000070000000073
:10087000060504040404000000001F1010101000FE
:100880000000000001020400101010101F00000002
:100890000000000000000000080808080808000028
:1008A000000002040000000000E0101010F0000042
:1008B00000FE201010E0000000E0101010100000FA
:1008C00000E0101010FE000000E0909090E00000AA
:1008D0000020FC222222020000E0101010F0000094
:1008E00000FE201010E000001010F20000000000D8
:1008F00000101010F200000000FE804020100000E8
:10090000000202FE00000000F02010F02010F000B5
:1009100000F0201010E0000000E0101010E00000D7
:1009200000F0201010E0000000E0101010F00000B7
:1009300000F02010107000000060909090200000E7
:10094000002020FC2020200000F0000000F000002B
:100950000070800080700000F000C030C000F00027
:100960000030C0C0300000000030C00080700000C7
:1009700000101090503000000080807E02020000C5
:10098000000000FE000000000002027E80800000E7
:1009900000808000000080000000000000000000D7
:1009A0000000000000000000000304040207000033
:1009B000000704040403000000030404040400000E
:1009C0000003040402070000000304040404000000
:1009D000000007000000000000332424221F000054
:1009E00000070000000700000000070404000000EA
:1009F000202020201F00000000070001020400004A
:100A000000000007040400000700000700000700C2
:100A100000070000000700000003040404030000B6
:100A2000003F04040403000000030404023F00002C
:100A3000000700000000000000020404040300009E
:100A40000000000304040400000304040207000083
:100A5000000003040300000001060100010601007C
:100A600000060101060000002020310E03000000F6
:100A700000060504040400000000001F1010000020
:100A800000000007000000000010101F0000000020
:100A90000100000101010000000000000000000052
:100AA000050800FF0C4B00000000003E5B4F5B3E62
:100AB0003E6B4F6B3E1C3E7C3E1C183C7E3C181C23
:100AC000577D571C1C5E7F5E1C00183C1800FFE71A
:100AD000C3E7FF0018241800FFE7DBE7FF30483AC0
:100AE000060E2629792926407F050507407F052522
:100AF0003F5A3CE73C5A7F3E1C1C08081C1C3E7FAA
:100B000014227F22145F5F005F5F06097F017F0070
:100B10006689956A606060606094A2FFA294080490
:100B20007E040810207E201008082A1C08081C2AB1
:100B300008081E101010100C1E0C1E0C30383E3809
:100B400030060E3E0E06000000000000005F0000B0
:100B50000007000700147F147F14242A7F2A122321
:100B60001308646236495620500008070300001C31
:100B70002241000041221C002A1C7F1C2A08083E3A
:100B8000080800807030000808080808000060604D
:100B90000020100804023E5149453E00427F4000BB
:100BA00072494949462141494D331814127F102793
:100BB000454545393C4A49493141211109073649E2
:100BC000494936464949291E0000140000004034B6
:100BD00000000008142241141414141400412214BB
:100BE0000802015909063E415D594E7C1211127CE2
:100BF0007F494949363E414141227F4141413E7F43
:100C0000494949417F090909013E414151737F0822
:100C100008087F00417F41002040413F017F0814C8
:100C200022417F404040407F021C027F7F04081029
:100C30007F3E4141413E7F090909063E4151215E07
:100C40007F09192946264949493203017F01033F9B
:100C50004040403F1F2040201F3F4038403F63142A
:100C600008146303047804036159494D43007F412C
:100C700041410204081020004141417F0402010269
:100C8000044040404040000307080020545478408E
:100C90007F284444383844444428384444287F3822
:100CA0005454541800087E090218A4A49C787F08A4
:100CB00004047800447D40002040403D007F10281F
:100CC000440000417F40007C047804787C080404E0
:100CD000783844444438FC1824241818242418FC78
:100CE0007C08040408485454542404043F44243C1D
:100CF0004040207C1C2040201C3C4030403C44288C
:100D00001028444C9090907C4464544C4400083625
:100D10004100000077000000413608000201020493
:100D2000023C2623263C1EA1A161123A4040207AB3
:100D300038545455592155557941215454784121FD
:100D40005554784020545579400C1E527212395532
:100D5000555559395454545939555454580000452F
:100D60007C410002457D420001457C40F029242958
:100D7000F0F0282528F07C545545002054547C542C
:100D80007C0A097F4932494949323248484832325F
:100D90004A4848303A4141217A3A42402078009D01
:100DA000A0A07D39444444393D4040403D3C24FFAF
:100DB0002424487E4943662B2FFC2F2BFF0929F65C
:100DC00020C0887E090320545479410000447D41AD
:100DD0003048484A32384040227A007A0A0A727D06
:100DE0000D19317D2629292F282629292926304821
:100DF0004D4020380808080808080808382F10C88F
:100E0000ACBA2F102834FA00007B000008142A1412
:100E10002222142A1408AA005500AAAA55AA55AAE3
:100E2000000000FF00101010FF00141414FF001049
:100E300010FF00FF1010F010F0141414FC00141434
:100E4000F700FF0000FF00FF1414F404FC14141753
:100E5000101F10101F101F1414141F00101010F07A
:100E6000000000001F101010101F10101010F010C4
:100E7000000000FF101010101010101010FF1000D4
:100E80000000FF140000FF00FF00001F101700000B
:100E9000FC04F414141710171414F404F40000FFE5
:100EA00000F714141414141414F700F7141414177E
:100EB0001410101F101F141414F4141010F010F05C
:100EC00000001F101F0000001F14000000FC140091
:100ED00000F010F01010FF10FF141414FF14101085
:100EE000101F00000000F010FFFFFFFFFFF0F0F008
:100EF000F0F0FFFFFF0000000000FFFF0F0F0F0FDB
:100F00000F38444438447C2A2A3E147E02020606E6
:100F1000027E027E0263554941633844443C0440EA
:100F20007E201E2006027E020299A5E7A5991C2AB2
:100F3000492A1C4C7201724C304A4D4D3030487871
:100F40004830BC625A463D3E494949007E01010194
:100F50007E2A2A2A2A2A44445F444440514A444073
:100F600040444A51400000FF0103E080FF000008B8
:100F7000086B6B083612362436060F090F06000080
:100F800018180000001010003040FF0101001F0180
:100F9000011E00191D1712003C3C3C3C00000000E3
:100FA0000000000008000201000003040700000028
:100FB000000000000001020408102040800102042B
:100FC000081020010204081020040404040404048E
:100FD00004020202020202030303030303000000EF
:100FE0000023002600290000000000250028002B17
:100FF0000000000000240027002A0000D9105F181C
:10100000DA1D11241FBECFEFD8E0DEBFCDBF14E044
:10101000A0E0B1E0E0ECF0E402C005900D92A8344D
:10102000B107D9F728E0A8E4B4E001C01D92AA31C5
:10103000B207E1F71FE0C2E0D0E104C02297FE0151
:101040000E942A20CC3FD107C9F70E94931F0C941D
:101050005E200C940000AF92BF92CF92DF92EF928D
:10106000FF920F931F93CF93DF93C4E6D0E0888164
:101070008E7F888382E10E94FC1ABC018881816096
:101080008883882777FD8095982F1F921F921F9243
:101090002CE32F93A12CB12C6501EE24EA9413E0EC
:1010A000F12E00E010E020E030E0A9010E944B1F8B
:1010B0000F900F900F900F90CB01DF91CF911F9168
:1010C0000F91FF90EF90DF90CF90BF90AF90089579
:1010D000809164008E7F809364008EE480937C0016
:1010E0006AE070E080E090E00E94991A80917A00B6
:1010F000806480937A0080917A0086FDFCCF2091F5
:1011000078008091790030E0382B442737FD4095F6
:10111000542F60E070E381E190E00E94092080910B
:101120006400816080936400C90108950F931F9348
:10113000CF93DF9327E147E160E288E796E00E94E2
:101140004014C0914E04D0E0CD30D1050CF02C9766
:1011500080914C0490E0880F991FFC01E451FD4FF1
:10116000DC01AC59BC4F00812C9147E160E288E77B
:1011700096E00E94F51280914D0490E0880F991F2F
:10118000FC01E451FD4FDC01AC59BC4F00812C91B6
:1011900047E160E288E796E00E94F512CC0FDD1F80
:1011A000FE01E452FC4F1081CA50DC4FC881012F70
:1011B0002C2F47E160E288E796E00E94F51221E0DB
:1011C0002C0F47E161E288E796E00E94F512CCED32
:1011D000D3E006EF13E048812296F80160810E5FAC
:1011E0001F4F88E796E00E947C12F3E0C43FDF07C0
:1011F00091F743E06EE188E796E00E947C1244E0BC
:101200006EE188E796E00E947C1245E06EE188E797
:1012100096E00E947C1246E06EE188E796E00E942C
:101220007C1243E060E288E796E00E947C1243E093
:1012300061E288E796E00E947C1244E061E288E780
:1012400096E00E947C1245E060E288E796E00E940A
:101250007C1246E061E288E796E00E947C1246E05C
:1012600062E288E796E00E947C1245E161E388E74C
:1012700096E00E947C1245E162E388E796E00E94D6
:101280007C1246E162E388E796E00E947C1247E127
:1012900061E388E796E00E947C1248E162E388E718
:1012A00096E00E947C1249E161E388E796E00E94A3
:1012B0007C1249E162E388E796E00E947C1249E2F1
:1012C00060E288E796E00E947C124AE26FE188E7DC
:1012D00096E00E947C124BE26EE188E796E00E9465
:1012E0007C124BE26FE188E796E00E947C124CE2B0
:1012F0006EE188E796E00E947C124CE26FE188E79D
:1013000096E00E947C124CE260E288E796E00E9440
:101310007C124DE26FE188E796E00E947C1245E185
:101320006EE088E796E00E947C1246E16DE088E777
:1013300096E00E947C1246E16FE088E796E00E940A
:101340007C1247E16EE088E796E00E947C1247E15C
:101350006FE088E796E00E947C1248E16EE088E743
:1013600096E00E947C1249E16DE088E796E0DF910B
:10137000CF911F910F910C947C1220914A048C58AC
:101380009A40222319F062E170E002C06DE270E041
:101390000E94D31F862F0895E2E5F4E080E2819356
:1013A00094E0E438F907D9F7089560E083E00E94FB
:1013B000A11B60E084E00E94A11B60E082E10E942A
:1013C000A11B61E085E00E94A11B61E086E00E9414
:1013D000A11B61E08FE00E94A11B61E080E10E94FF
:1013E000A11B61E083E00E94DA1B61E084E00E94BF
:1013F000DA1B26E040E855E260E070E08DE797E018
:101400000E941C1D8091640088608093640080911C
:1014100064008064809364008091640081608093A4
:101420006400809164008068809364000E94680872
:1014300021E088349D400CF020E020934A0488E7A6
:1014400096E00E94821461E088E796E00E94D8113D
:1014500088E796E00E9407120C94CC098F39A1F01E
:10146000823BA1F0843AA1F0863BA1F08C3BA1F035
:101470008438A1F08639A1F08C39A1F08B3AA1F023
:101480008B3BA1F48FEA12C080EE089588EF089597
:1014900084E8089584E9089581E808958EE8089520
:1014A00089E908958AE908958EEA0895089580915A
:1014B0004B048F5F80934B048A3070F16AE00E9486
:1014C000B31F282F80914C04820F80934C0490937B
:1014D0004B048C3350F06CE30E94B31F20914D04F9
:1014E000280F20934D0490934C0480914D048C332D
:1014F00050F06CE30E94B31F20914E04280F2093FC
:101500004E0490934D0480914E04883128F068E198
:101510000E94B31F90934E04089562E088E796E01E
:101520000E944A144CE060E088E796E00E9438127E
:1015300080914E048A3030F463EB72E088E796E0E5
:101540000E945B1E4AE050E060914E0488E796E0FE
:101550000E94441F61E088E796E00E944A144DE033
:1015600068E188E796E00E94381263ED72E088E750
:1015700096E00E945B1E62E088E796E00E944A14B3
:101580004CE060E288E796E00E94381280914D04BA
:101590008A3030F463EB72E088E796E00E945B1ECD
:1015A0004AE050E060914D0488E796E00E94441FB5
:1015B00060E088E796E00E944A1440E261E188E733
:1015C00096E00E94381280914C048A3030F463EB2C
:1015D00072E088E796E00E945B1E4AE050E060916E
:1015E0004C0488E796E00E94441F65EB72E088E7B0
:1015F00096E00E945B1E4AE050E060914B0488E751
:1016000096E00C94441F0F93CF930E9468080E94A9
:10161000BD09C82F4DE06CE388E796E00E947C127C
:101620004DE06DE388E796E00E947C1280914A04C9
:10163000811112C043E269E388E796E00E947C12C0
:101640004AE168E388E796E00E947C124AE169E398
:1016500088E796E00E947C1202E226E04EE06AE310
:1016600088E796E00E94551340E34C1B0C2F26E0C0
:101670006AE388E796E00E949D13CF910F91089549
:10168000CF92DF92EF92FF920F931F93CF93DF934E
:101690006C017A016034710510F540335105F8F49E
:1016A0008B01095F1F4FC0E0D0E0F601208130E0E0
:1016B0000C2E02C0359527950A94E2F720FF09C049
:1016C0000034110530F44E2D602F88E796E00E941B
:1016D0007C12219601501109C830D10531F7DF91F4
:1016E000CF911F910F91FF90EF90DF90CF900895D1
:1016F000CF92DF92EF92FF920F931F93CF93DF93DE
:101700006C017B016034710510F540335105F8F42C
:101710008A01095F1F4FC0E0D0E0F601208130E070
:101720000C2E02C0359527950A94E2F720FF09C0D8
:101730000033110530F4402F6E2D88E796E00E94AB
:101740007C12219601501109C830D10531F7DF9183
:10175000CF911F910F91FF90EF90DF90CF90089560
:101760000F931F93CF93DF9360E088E796E00E948A
:10177000D8110091B1061091B206C8010E9448200C
:10178000CDEAD6E08883C80101960E94482089836B
:1017900040E060E088E796E00E94381267EB72E074
:1017A00088E796E00E94681E6FEB72E088E796E09B
:1017B0000E945B1E6AEC72E088E796E00E94681E59
:1017C0006091AD067091AE064AE050E088E796E081
:1017D0000E942F1F88E796E00E94071268EB7BE0CB
:1017E00080E090E00E94991A80914B04825E809381
:1017F0004B04DF91CF911F910F910895EF92FF92CB
:101800000F931F93CF93DF931F92CDB7DEB78091D5
:10181000AF069091B0062091AD063091AE06281724
:1018200039070CF442C060E080E10E94DA1B65E0F9
:1018300070E085E00E94191B40E060E088E796E0D8
:101840000E94381263EB72E088E796E00E945B1E0C
:1018500046E160E088E796E00E94381265ED72E0AC
:1018600088E796E00E94681E88E796E00E940712CB
:101870006CED75E080E090E00E94991A60E085E0F0
:101880000E94DA1B60ED77E080E090E00E94991AF8
:1018900080914B048D5D80934B040F90DF91CF912D
:1018A0001F910F91FF90EF9008959093AE06809353
:1018B000AD06E090B106F090B2060DEA16E0F80130
:1018C00061918F01C70169830E944820698168176F
:1018D00019F0C7010E945020FFEFEF1AFF0A86E0BF
:1018E0000F3A180761F79FCFCF92DF92EF92FF92E6
:1018F0000F931F93CF93DF93CDB7DEB72A970FB621
:10190000F894DEBF0FBECDBF9AE0E1E9F2E0DE0160
:10191000119601900D929A95E1F76E019BE0C90E28
:10192000D11C8E010F5F1F4FE82EF12CE01AF10A37
:10193000A701400F511F62E070E0C8010E94400BF8
:101940000F5F1F4F0C151D0599F72A960FB6F894D7
:10195000DEBF0FBECDBFDF91CF911F910F91FF90E2
:10196000EF90DF90CF900895EF92FF920F931F9327
:10197000CF93DF93CDB7DEB72C970FB6F894DEBFC9
:101980000FBECDBF8CE0EBE9F2E0DE0111960190D5
:101990000D928A95E1F700E010E06AE1E62EF12C65
:1019A000B701601B710B46E250E081E090E08C0FC4
:1019B0009D1F800F911F0E94780B0F5F1F4F0C30EF
:1019C000110571F72C960FB6F894DEBF0FBECDBF90
:1019D000DF91CF911F910F91FF90EF9008950F939A
:1019E0001F93CF93DF9300D0CDB7DEB798E39983F1
:1019F00094E29A83082F10E0A80162E070E0CE0123
:101A000001960E94400BA8014F5F5F4F62E070E0BB
:101A1000CE0102960E94400B0F900F90DF91CF9164
:101A20001F910F9108950F931F93CF93DF9300D0D1
:101A3000CDB7DEB798E7998398E09A83082F10E036
:101A4000A80162E070E0CE0101960E94400BA8015F
:101A50004F5F5F4F62E070E0CE0102960E94400B44
:101A60000F900F90DF91CF911F910F9108950F93D9
:101A70001F93CF93DF9300D0CDB7DEB790E3998368
:101A800098E29A83082F10E0A80162E070E0CE018E
:101A900001960E94400BA8014F5F5F4F62E070E02B
:101AA000CE0102960E94400B0F900F90DF91CF91D4
:101AB0001F910F910895EF92FF920F931F93CF9371
:101AC000DF93CDB7DEB72C970FB6F894DEBF0FBE0D
:101AD000CDBF7C018CE0E7EAF2E0DE0111960190D7
:101AE0000D928A95E1F700E010E0A8014F5D5F4F8D
:101AF000F7016081718181E090E08C0F9D1F800F64
:101B0000911F0E94400B0F5F1F4F0C30110569F7AA
:101B10002C960FB6F894DEBF0FBECDBFDF91CF91EC
:101B20001F910F91FF90EF9008954F925F926F92E7
:101B30007F928F929F92AF92BF92CF92DF92EF925D
:101B4000FF920F931F93CF93DF9300D0CDB7DEB7F3
:101B50001092B0061092AF0686E490E09A838983D3
:101B60000E94B00B812C912C78E3C72ED12CE12C54
:101B7000F12CE3E0AE2EB12CF6E44F2E512CA3E075
:101B80006A2E712C8091AF069091B00601969093C9
:101B9000B0068093AF0660E088E796E00E94D81117
:101BA00040E060E088E796E00E9438124AE050E0AA
:101BB000B50188E796E00E942F1F60EE72E088E78B
:101BC00096E00E945B1E6091AF067091B0064AE0FD
:101BD00050E088E796E00E942F1FC114D10419F449
:101BE00068E3C62ED12C4AE06C2D88E796E00E946F
:101BF000381263EE72E088E796E00E945B1E8091E7
:101C0000AF0680FD03C021E0C21AD1080DE22FE328
:101C10004DE260E088E796E00E94F51289819A81A2
:101C2000893F9F4F14F45A824982CE0101960E9447
:101C30005B0D89819A8102979A8389830697D9F5EA
:101C40008DE0E816F1046CF521E0A21AB1080E94BB
:101C5000B40C88E796E00E94071260E080E10E94E1
:101C6000DA1B68E770E085E00E94191B64EF71E001
:101C700080E090E00E94991A60E270E085E00E94A6
:101C8000191B64EF71E080E090E00E94991A60E017
:101C900085E00E94DA1B80914B04865F80934B04A1
:101CA0003CC08091AF069091B0068E0D9F1D909321
:101CB000B0068093AF061E2D80E28E190E94740C30
:101CC0008091AF069091B006B3010E94D31F892B7B
:101CD00021F48AE28E190E94EF0C8091AF06909158
:101CE000B0060196B3010E94D31F892B21F48AE22A
:101CF000811B0E94130D8091AF069091B006029651
:101D0000B3010E94D31F892B21F48AE2811B0E9418
:101D1000370D88E796E00E9407128091AF069091F8
:101D2000B006813A2FE0920794F4893B2BE09207AA
:101D30008CF48D3D25E0920784F4893E23E09207E0
:101D40007CF4853F91407CF062E370E00EC06AE075
:101D500070E00BC064E170E008C06EE170E005C0A7
:101D600068E270E002C066E470E0860E971E882785
:101D700077FD8095982F0E94991A85E68816910420
:101D800024F00E94570A812C912CF7013197EF30F3
:101D9000F10508F04CC0EC5CFF4F0C9428205EE08D
:101DA000E52EF12C4FC06CE370E085E00E94191B1A
:101DB00061E080E10E94DA1B47E0E42EF12C42C092
:101DC00061E470E085E00E94191B3DE0E32EF12CF8
:101DD00039C065E570E085E00E94191B2FE0E22E16
:101DE000F12C30C06FE570E085E00E94191B9CE08B
:101DF000E92EF12C27C060E085E00E94DA1B89E023
:101E0000E82EF12C1FC008E0E02EF12C1BC016E0DC
:101E1000E12EF12C17C0B4E0EB2EF12C13C060E0E2
:101E200080E10E94DA1BA2E0EA2EF12C0BC0E11443
:101E3000F10441F484E00E94101C892B21F5EE246A
:101E4000E394F12C1A141B040CF49CCE0E94FE0B9C
:101E50000F900F90DF91CF911F910F91FF90EF9016
:101E6000DF90CF90BF90AF909F908F907F906F90BA
:101E70005F904F900895EBE0EE2EF12CE3CF7AE0E7
:101E8000E72EF12CDFCFE12CF12CDCCFCF93DF93C9
:101E90006DE570E080E090E00E94991A84E00E9475
:101EA000101C892B31F080914804909149040297CD
:101EB000CCF06CE271E080E090E00E94991A809191
:101EC0004B048D5F80934B0484E00E94101C209192
:101ED000480430914904892B09F4D0C022303105DF
:101EE0000CF0CCC083E00E94101C892B19F56CE229
:101EF00071E080E090E00E94991A80914B048D5F20
:101F000080934B0483E00E94101C892B99F410925B
:101F10004F0460E086E00E94DA1B1092840482E3A2
:101F200090E090930701809306016EE78DE797E0BC
:101F30000E947A1E809106019091070183339105DA
:101F40000CF460C02091500430915104232BD1F542
:101F500020918404233241F520E2209384042091CF
:101F6000860420533091850430534AE0349F200D7D
:101F7000112420934E042091890420533091880429
:101F800030534AE0349F200D112420934D042091BA
:101F90008C04205330918B0430534AE0349F200D41
:101FA000112420934C040EC0253261F42091850445
:101FB00020934F04211102C0109284049093510485
:101FC000809350042091500430915104821793075C
:101FD000CCF060E088E796E00E94D81140E060E035
:101FE00088E796E00E943812609150047091510485
:101FF0006E5A7B4F88E796E00E945B1E88E796E06A
:102000000E940712209150043091510480910601E2
:10201000909107012817390769F46EEA88E796E07E
:102020000E9459111092840482E390E0909307017A
:102030008093060180914F04882399F080910401D8
:10204000811107C06091050170E086E00E94191BB4
:1020500008C090914B048917A8F760E086E00E94C1
:10206000DA1B809150049091510401969093510491
:1020700080935004DF91CF910C94570A22303105A0
:1020800034F410924F0460E086E00E94DA1B6FEA9D
:1020900088E796E00E945911C8E2D0E060E088E746
:1020A00096E00E94D8110E94570A809148049091AE
:1020B0004904009759F18130910519F40E9496085E
:1020C00027C040E08230910551F465E088E796E052
:1020D0000E947C120E942B0880934E0417C0039725
:1020E00051F46EE188E796E00E947C120E942B0872
:1020F00080934D040BC065E088E796E00E947C1257
:1021000040E06EE188E796E00E947C120E948D0A12
:102110000E94030B88E796E00E9407126AE570E0D0
:1021200080E090E00E94991A219709F0B7CF83E0F0
:102130000E94101C892B79F48091480490914904E5
:1021400001969093490480934804059724F01092D7
:1021500049041092480480914804909149040297E0
:1021600028F46EEA88E796E00E94591184E00E9404
:10217000101C892B09F0B6CE65EE72E08DE797E072
:102180000E94681E6FEA88E796E00E9459118091CC
:1021900064008E7F809364000E94950D809164009E
:1021A0008160809364006EEA88E796E00E9459118E
:1021B00099CE2AE048E069E088E796E00C944C115B
:1021C000CF93DF938DE797E00E94391C892B59F15B
:1021D0008DE797E00E94521C9EE3980F923090F397
:1021E0008A3089F46FEA88E796E00E945911E091FD
:1021F0000601F0910701EE5AFB4F10821092510434
:1022000010925004DFCFC0910601D09107010E94C7
:102210002E0AFE01EE5AFB4F80832196D0930701D0
:10222000C0930601CFCFDF91CF910895CF93CFB761
:10223000F8948091B306811127C0E3EDFFE084910B
:10224000EFEBFFE09491E82FF0E0EE0FFF1FEF506F
:10225000F04FA591B4918C91892321F461E08AE03B
:102260000E94DA1B61E08AE00E94A11B8CB58061AC
:102270008CBD8CB580648CBD61E08DE00E94A11B9B
:1022800061E08BE00E94A11B8091B3068F5F809379
:10229000B306CFBFCF910895FC011382128284E16F
:1022A00094E091838083668345832483148E138E08
:1022B0000895CF93DF93EC018B8D9C8D0097C1F433
:1022C000E8A1F9A1908189A5809589238083EE8D6D
:1022D000FF8D908188A5809589238083CE010E94FF
:1022E0008F16EE8DFF8D808198A5892B808313C07A
:1022F0008130910541F4262F40E06D8DCE01DF91B4
:10230000CF910C947F17029731F440E0CE01DF911A
:10231000CF910C943417DF91CF910895CF93DF9331
:10232000EC018B8D9C8D0097B9F4E8A1F9A1808117
:1023300099A5892B8083EE8DFF8D908188A580954E
:1023400089238083CE010E948F16EE8DFF8D8081C0
:1023500098A5892B808313C08130910541F4262FE5
:1023600040E46D8DCE01DF91CF910C947F170297E1
:1023700031F441E0CE01DF91CF910C943417DF911D
:10238000CF910895606B0C9459111F93CF93DF93F5
:10239000EC01162F62956F7060616E5F0E9459119B
:1023A000612F6F70CE01DF91CF911F910C94591165
:1023B000FF920F931F93CF93DF93EC016130B9F439
:1023C000F12C6F2DCE010E94C21160E0CE010E945F
:1023D000C51100E810E060E0CE010E948E110150AE
:1023E0001109C9F7F39428E0F212EBCF0AC080E894
:1023F00091E0E8E0F1E0DF019C011D9221503040C6
:10240000E1F7DF91CF911F910F91FF900895DF9237
:10241000EF92FF920F931F93CF93DF938C0188E08D
:10242000E82E81E0F82ED12C6D2DC8010E94C2113A
:1024300060E0C8010E94C511C0E0D0E0F701EC0FD8
:10244000FD1F6081C8010E948E112196C034D10504
:10245000A9F7D39480E4E80EF11C86E0D812E4CF0B
:10246000DF91CF911F910F91FF90EF90DF90089532
:10247000FC0161AB42AB08950F936034D8F5403353
:10248000C8F50130C9F42130A9F5E42FE695E695A9
:10249000E69580E4E89FF0011124E60FF11DE85F66
:1024A000FE4F477081E090E0042E01C0880F0A942F
:1024B000EAF7908198271DC0842F8695869586958A
:1024C000E62FF0E0477090E4899FE00DF11D1124A4
:1024D000E85FFE4F81E090E0042E01C0880F0A946F
:1024E000EAF7213019F49081982B03C080959081F0
:1024F000982390830F9108950F93FC0103A522A5C3
:102500000E943C120F9108957F928F929F92AF92FA
:10251000BF92CF92DF92EF92FF920F931F93CF93D0
:10252000DF93EC01162FF42ED22EA02FB0E0A41BC7
:10253000B109B7FF03C0B195A195B109ED2DF0E048
:10254000E11BF109F7FF03C0F195E195F109AA2418
:10255000A394EA17FB0714F0A12C06C09D2DD02EE2
:10256000092F912F1F2DF92ED11630F49F2DF02E0B
:10257000092F912F1D2DD92E9D2C911AE02FF0E0BF
:10258000EF19F109F7FF03C0F195E195F1097E2EEE
:10259000B92CB694F01618F48824839412C08824B9
:1025A0008A940FC00C2D2E2DAA2071F0412F6F2D73
:1025B000CE010E943C12B718B7FE02C0F80CB90C4D
:1025C0001F5F1D1578F303C04F2D612FF1CFDF91F1
:1025D000CF911F910F91FF90EF90DF90CF90BF9020
:1025E000AF909F908F907F900895CF92EF920F932E
:1025F000FC01C3A4E2A40E9484120F91EF90CF903B
:102600000895CF92EF920F93260FCE2CE02E042F39
:102610000E9484120F91EF90CF900895CF92EF9285
:102620000F93240FCE2CE02E022F262F0E9484120F
:102630000F91EF90CF900895AF92BF92CF92DF921B
:10264000EF92FF920F931F93CF93DF93EC01F62E3F
:10265000B42ED22EA02E1E2DEC2C012F0E94011381
:102660004FEF4A0D4B0D2D2D6F2DCE010E94011302
:10267000AA94AA9479F0B3942A2D4B2D6F2DCE01F4
:102680000E940E136FEF6D0D6F0D2A2D4B2DCE0195
:102690000E940E13DF91CF911F910F91FF90EF9049
:1026A000DF90CF90BF90AF900895CF92EF920F93AD
:1026B000FC01C3A4E2A40E941C130F91EF90CF90E1
:1026C00008955F926F927F928F929F92AF92BF9286
:1026D000CF92DF92EF92FF920F931F93CF93DF93EE
:1026E0004C01162FF42ED02E5E2CA62EB12CC0E05D
:1026F000D0E03501620E711CCE018A0D9B1D86153E
:1027000097055CF46C2F610FEC2C052D2D2D4F2DB2
:10271000C4010E940E132196EFCFDF91CF911F913C
:102720000F91FF90EF90DF90CF90BF90AF909F9070
:102730008F907F906F905F900895CF92EF920F935C
:10274000FC01C3A4E2A40E9461130F91EF90CF900B
:1027500008956F927F928F929F92AF92BF92CF9285
:10276000DF92EF92FF920F931F93CF93DF93EC01D1
:10277000D62EC42E102FAA24A394A21A922E91947E
:10278000990CF22E422F4C0D0E2D212F0E943C123F
:102790004C2D4F19212F6D2DCE010E943C126F2D13
:1027A0006D0D212F4C2DCE010E943C126D2D6F1905
:1027B000212F4C2DCE010E943C12BB24B3948FEFED
:1027C0008B0D8F150CF04DC0A7FC04C0FA949394A8
:1027D0009394A90C8B2D880F8F5FA80E6B2C6D0C1A
:1027E0000E2D212F7F2C7C0C472D662DCE010E94B3
:1027F0003C128D2C8B18212F472D682DCE010E9465
:102800003C12212F7C2C7F18472D662DCE010E9473
:102810003C12212F472D682DCE010E943C128B2C9B
:102820008C0C212F482D6F2C6D0C662DCE010E9433
:102830003C12212F482D8D2C8F18682DCE010E941F
:102840003C127C2C7B18212F472D662DCE010E9437
:102850003C12212F472D682DCE010E943C12B394CB
:10286000AECFDF91CF911F910F91FF90EF90DF904E
:10287000CF90BF90AF909F908F907F906F90089572
:10288000EF920F93FC01E3A402A50E94A9130F91FC
:10289000EF900895DC01643008F032C09E966C938E
:1028A0009E97E62FF0E0EE0FFF1FE857FD4F808167
:1028B0009181FC0124919C962C939C973196E491F4
:1028C0009D96EC939D97FC013296E4919F96EC9334
:1028D0009F97FC013396E491D096EC93D097FC013E
:1028E000349624913196849190E0F4E62F9F800DE8
:1028F000911D1124D4969C938E93D39781E00895D3
:1029000080E00895CF93DF93EC0160E00E944A14C9
:1029100081E08AA71BA619AA1AAA8D81682F70E0E8
:10292000AB014753504FFA01249130E0220F331F7F
:102930002951304FF901A591B491B9A3A8A3FB0186
:10294000EB54F04F649169A7FA014491E42FF0E051
:10295000EE0FFF1FEF50F04F259134913DA32CA3B4
:1029600061E00E94A11B61E08E810E94A11B8B8D02
:102970009C8D009721F4CE010E9449160CC0813035
:10298000910521F4CE010E94961605C0029719F414
:10299000CE010E949E1661E08E810E94A11B61E023
:1029A0008E810E94DA1B65E070E080E090E00E947A
:1029B000991A60E08E810E94DA1B6AE070E080E084
:1029C00090E00E94991A61E08E810E94DA1B6EEA03
:1029D000CE010E94591165EDCE010E94591160E8A7
:1029E000CE010E94591168EACE010E9459116FE28E
:1029F000CE010E94591163EDCE010E94591160E091
:102A0000CE010E94591160E4CE010E9459116DE877
:102A1000CE010E94591164E1CE010E94591166EA6B
:102A2000CE010E94591164EACE010E94591161EA57
:102A3000CE010E94591168ECCE010E9459116AED35
:102A4000CE010E94591162E1CE010E94591161E844
:102A5000CE010E9459116FE8CE010E94591169ED13
:102A6000CE010E94591161EFCE010E9459116BED08
:102A7000CE010E94591160E4CE010E9459116FEA03
:102A8000CE010E94591161E0CE01DF91CF910C94EB
:102A9000D8115F926F927F928F929F92AF92BF9266
:102AA000CF92DF92EF92FF920F931F93CF93DF931A
:102AB000EC01162FB42EF02E3FA5231708F4B0C05A
:102AC00068A970E0630F711D822F90E08617970749
:102AD0000CF0A6C0D22ED31A9DA4969496949694E8
:102AE00081E08915C0F1C12E3C2D311B2CA5822F10
:102AF00090E0A32FB0E08A179B070CF491C0321727
:102B000091F0EEA5F0E0EE0FFF1FE857FD4FD29ECB
:102B1000A00DB11D112416960190F081E02DEA0F51
:102B2000FB1F949001C0912CA12C4A2D4B0D90FEBF
:102B300003C00E2D2F2D04C021E0F11020E00E2D3A
:102B40006C2DCE010E943C129694A39488E0A812AA
:102B5000ECCFC394C9CFEBA9FCA92CA530E0CF01E1
:102B6000B9010E94BF1F8D2D90E00E94BF1F829F60
:102B70006001839FD00C929FD00C11249E9E9001E7
:102B80009F9E300D1124269FC001279F900D369FD8
:102B9000900D1124C80ED91E742EA12CB12C86E0E4
:102BA000C80ED11C812E482D411B8CA5481780F5DD
:102BB000EEA5F0E0EE0FFF1FE857FD4F2BA93CA953
:102BC000A29EC001A39E900DB29E900D11248C0D6B
:102BD0009D1D840F911D0190F081E02DE80FF91FDC
:102BE0005490612C462D470D50FE03C00E2D2F2D05
:102BF00004C021E0F11020E00E2D682DCE010E94CE
:102C00003C125694639488E06812ECCF8394CBCF47
:102C10008FEFA81AB80A88E0780EA91408F4C2CF7A
:102C2000DF91CF911F910F91FF90EF90DF90CF90A8
:102C3000BF90AF909F908F907F906F905F9008951E
:102C4000EF920F93CF93DF93EC01262F6A30A9F018
:102C50006D30C1F0EBA40AA54AA969A90E944915E3
:102C60004CA529A9240F2F5F29AB30E080E490E028
:102C7000841B9109821793072CF48AA99DA5890FBB
:102C80008AAB19AA81E090E0DF91CF910F91EF908C
:102C90000895CF93DF93EC014C8150E09A012753C4
:102CA000304FF901849190E0880F991F8951904F1E
:102CB000FC01659174917F8F6E8FFA01EB54F04F98
:102CC000449148A7F9012491E22FF0E0EE0FFF1F95
:102CD000EF50F04F859194919BA38AA361E08BE024
:102CE0000E94A11B61E08DE00E94A11B61E08C812C
:102CF0000E94A11B61E08C810E94DA1B8CB58C7F45
:102D00008CBD8DB581608DBD8CB5837F8CBD61E040
:102D10008AE00E94A11BDF91CF910C9416116EBD29
:102D200000000DB407FEFDCF8EB5089584EB96E04C
:102D30000E94351887E08093B80008950F931F9381
:102D4000CF93DF93EC014C8150E09A012753304F31
:102D5000F901849190E0880F991F8951904FFC01EF
:102D6000659174917F8F6E8FFA01EB54F04F44910F
:102D700048A7F9012491E22FF0E0EE0FFF1FEF507A
:102D8000F04F859194919BA38AA38F81682F70E067
:102D9000AB014753504FFA01249130E0220F331F0B
:102DA0002951304FF901A591B491BA8BA98BFB0140
:102DB000EB54F04F6491698FFA014491E42FF0E0F5
:102DC000EE0FFF1FEF50F04F259134913C8B2B8B72
:102DD000688570E0AB014753504FFA01249130E011
:102DE000220F331F2951304FF901A591B491BE8BA9
:102DF000AD8BFB01EB54F04F64916A8FFA01449163
:102E0000E42FF0E0EE0FFF1FEF50F04F25913491CB
:102E1000388F2F8B61E00E94A11B61E08F810E949F
:102E2000DA1B61E088850E94A11B61E088850E9411
:102E3000DA1B61E08C810E94A11B61E08C810E9401
:102E4000DA1B00E010E0FE01E00FF11F61E0818578
:102E50000E94A11B0F5F1F4F08301105A1F7DF91E2
:102E6000CF911F910F910895CF92DF92EF92FF9231
:102E70000F931F93CF93DF931F92CDB7DEB76C01F3
:102E8000E62E60E0FC01848149830E94DA1B4981BF
:102E9000642FF60185810E94DA1B60E0F6018781CC
:102EA0000E94DA1B00E010E0F12CF601E00FF11FA8
:102EB000C701002E02C0959587950A94E2F780FF1E
:102EC00002C061E001C060E081850E94DA1B0F5FF3
:102ED0001F4F0830110549F761E0F60187810E9414
:102EE000DA1B61E0F60184810F90DF91CF911F9191
:102EF0000F91FF90EF90DF90CF900C94DA1BCF935F
:102F0000DF9300D0CDB7DEB784EB96E02A83498308
:102F10000E943F184981642F84EB96E00E94F617C7
:102F20002A81622F84EB96E00E94F61784EB96E0EC
:102F30000F900F90DF91CF910C945C188091E40674
:102F400090E02091E506821B910908952091E50605
:102F50008091E406281750F4E22FF0E0EA51F94F8F
:102F6000808190E02F5F2093E50608958FEF9FEF1B
:102F70000895E091E5068091E406E81730F4F0E06A
:102F8000EA51F94F808190E008958FEF9FEF089507
:102F90000895CF92DF92EF92FF920F931F93CF93FA
:102FA000DF937C01CB018A012091C006222389F0A6
:102FB000EB016B01C40ED51ECC15DD0569F06991DE
:102FC000D701ED91FC910190F081E02DC7010995A9
:102FD000F3CF642F0E94D818C801DF91CF911F91C1
:102FE0000F91FF90EF90DF90CF900895CF93DF93F4
:102FF0001F92CDB7DEB769832091C0062223D1F09E
:103000002091C106203240F021E030E0FC01338302
:10301000228380E090E015C08091C206E82FF0E0A6
:10302000ED53F94F998190838F5F8093C20680930F
:10303000C10605C061E0CE0101960E94D81881E06A
:1030400090E00F90DF91CF910895FC0113821282DE
:1030500048EE53E060E070E04483558366837783F5
:103060008CE194E09183808308951092E50610929C
:10307000E4061092C2061092C1060C94631881E017
:103080008093C0066093E3061092C2061092C106B8
:1030900008950F93062F21E04091C10663EC76E07E
:1030A0008091E3060E9481181092C2061092C10618
:1030B0001092C0060F91089561E00C94491884EBBA
:1030C00096E00C9425181092730781E080937107A5
:1030D0001092700761E082E10E94DA1B61E083E1F7
:1030E0000E94DA1BE9EBF0E080818E7F8083808193
:1030F0008D7F808384E38093B80085E48093BC0057
:1031000008950F93413208F04AC0909173079111CE
:10311000FCCF92E090937307009371079FEF909319
:10312000060710924B0740934A07FB016CE477E0D7
:10313000DB019A2F961B941718F491919D93F9CF68
:103140001092720790917207880F892B80937207F3
:1031500080917007813061F410927007809172073E
:103160008093BB008091BC0083FDF8CF85EC01C04B
:1031700085EE8093BC00222321F08091730782307A
:10318000E1F3809106078F3F61F08091060780325E
:1031900051F080910607803341F483E007C081E05D
:1031A00005C080E003C082E001C084E00F91089573
:1031B000613298F420917307243089F460932807D2
:1031C000FC018AE297E0DC012A2F281B261718F45D
:1031D00021912D93F9CF80E0089581E0089582E058
:1031E000089585ED8093BC008091BC0084FDFCCFE8
:1031F00010927307089585EC8093BC0010927307BA
:1032000008951F920F920FB60F9211242F933F93A0
:103210004F935F936F937F938F939F93AF93BF93DE
:10322000EF93FF938091B900887F803609F49EC0A8
:1032300078F5883209F45DC090F4803109F456C005
:1032400038F4882309F4F5C0883009F44FC0F5C07C
:10325000883109F44EC0803209F45FC0EEC080347A
:1032600009F46AC058F4803309F457C0883309F070
:10327000E4C0809306070E94FB18DFC0803509F484
:103280004FC0883509F45DC0883409F0D6C0D3C07A
:10329000883909F4C4C0A8F4883709F467C038F441
:1032A000883609F463C0803709F460C0C6C0883826
:1032B00009F4B5C0803909F45FC0803809F0BDC099
:1032C0005BC0803B09F483C038F4803A09F466C0DF
:1032D000883A09F47CC0B1C0803C09F4A4C0883CA1
:1032E00009F4A1C0883B09F487C0A7C08091720788
:1032F00010C090914B0780914A07981770F5E091A4
:103300004B0781E08E0F80934B07F0E0E45BF84FB2
:1033100080818093BB0085EC83C0809306078BC0BF
:10332000E0914B0781E08E0F80934B078091BB00AB
:10333000F0E0E45BF84F808390914B0780914A075F
:103340006BC0E0914B0781E08E0F80934B0780911B
:10335000BB00F0E0E45BF84F80838091710781113E
:103360006AC081E08093700784EA5EC083E0809346
:10337000730710920707CFCF80910707803208F0BC
:103380004EC0E091070781E08E0F80930707809180
:10339000BB00F0E0E85FF84F8083BDCF0E94FB18D0
:1033A00080910707803230F4E0910707F0E0E85F92
:1033B000F84F10826091070770E0E0916C07F09180
:1033C0006D0788E097E009951092070736C084E002
:1033D000809373071092290710922807E0916E07D7
:1033E000F0916F07099580912807811105C081E050
:1033F0008093280710922A07E091290781E08E0F19
:1034000080932907F0E0E65DF84F80818093BB0050
:103410009091290780912807981708F47CCF85E8B8
:103420008093BC000AC085EC8093BC0010927307A7
:1034300004C0109206070E94F118FF91EF91BF910E
:10344000AF919F918F917F916F915F914F913F913C
:103450002F910F900FBE0F901F9018951F920F92F3
:103460000FB60F9211242F933F938F939F93AF9397
:10347000BF938091750790917607A0917707B091DF
:103480007807309174072DE2230F2D3720F4019631
:10349000A11DB11D05C020EB230F0296A11DB11D7A
:1034A000209374078093750790937607A09377070E
:1034B000B09378078091790790917A07A0917B0764
:1034C000B0917C070196A11DB11D8093790790935F
:1034D0007A07A0937B07B0937C07BF91AF919F9130
:1034E0008F913F912F910F900FBE0F901F901895C5
:1034F0009FB7F8944091790750917A0760917B07C4
:1035000070917C0786B5A89B06C08F3F21F04F5F66
:103510005F4F6F4F7F4F9FBF2227342F452F562F6E
:10352000280F311D411D511DA5E0B0E00E942E2045
:103530000895CF92DF92EF92FF92CF93DF936B01CA
:103540007C010E94781AEB01C114D104E104F1045A
:1035500089F00E94A21F0E94781A6C1B7D0B683EA6
:10356000734090F381E0C81AD108E108F108C8510E
:10357000DC4FEACFDF91CF91FF90EF90DF90CF90BB
:103580000895789484B5826084BD84B5816084BDDB
:1035900085B5826085BD85B5816085BDEEE6F0E0CC
:1035A000808181608083E1E8F0E010828081826028
:1035B0008083808181608083E0E8F0E080818160A9
:1035C0008083E1EBF0E0808184608083E0EBF0E0D9
:1035D000808181608083EAE7F0E08081846080837D
:1035E00080818260808380818E7F808380818068FB
:1035F00080831092C10008958E3008F08E5087703D
:103600002091900290E4299F90011124822B8093B5
:103610007C0080917A00806480937A0080917A00A7
:1036200086FDFCCF809178002091790090E0922B6C
:1036300008951F93CF93DF93182FEB0161E00E9451
:10364000A11B209711F460E004C0CF3FD10539F4ED
:1036500061E0812FDF91CF911F910C94DA1BE12F54
:10366000F0E0EF55F04FE491E330F9F048F4E13049
:10367000B9F0E230A1F584B5806284BDC8BD34C024
:10368000E730E9F0E83019F1E43049F58091800045
:10369000806280938000D0938B00C0938A0024C006
:1036A00084B5806884BDC7BD1FC0809180008068DC
:1036B00080938000D0938900C093880015C08091CA
:1036C000B00080688093B000C093B3000DC08091BB
:1036D000B00080628093B000C093B40005C0C038D1
:1036E000D1050CF0B5CFAFCFDF91CF911F910895E9
:1036F000833081F028F4813099F08230A1F0089570
:103700008730A9F08830B9F08430D1F480918000FE
:103710008F7D03C0809180008F7780938000089513
:1037200084B58F7702C084B58F7D84BD0895809164
:10373000B0008F7703C08091B0008F7D8093B00080
:103740000895CF93DF9390E0FC01EB54F04F249168
:10375000FC01E753F04F8491882349F190E0880FF2
:10376000991FFC01EF50F04FA591B4918951904FF2
:10377000FC01C591D4919FB7611108C0F8948C9158
:10378000209582238C93888182230AC0623051F471
:10379000F8948C91322F309583238C938881822BDF
:1037A000888304C0F8948C91822B8C939FBFDF9107
:1037B000CF9108950F931F93CF93DF931F92CDB7AF
:1037C000DEB7282F30E0F901EF55F04F8491F90171
:1037D000EB54F04F1491F901E753F04F049100239B
:1037E000C9F0882321F069830E94781B6981E02F4A
:1037F000F0E0EE0FFF1FE951F04FA591B4919FB794
:10380000F8948C91611103C01095812301C0812B24
:103810008C939FBF0F90DF91CF911F910F910895CF
:10382000CF93DF93282F30E0F901EF55F04F8491CB
:10383000F901EB54F04FD491F901E753F04FC491E3
:10384000CC2391F081110E94781BEC2FF0E0EE0F59
:10385000FF1FE352F04FA591B4912C912D2381E0ED
:1038600090E021F480E002C080E090E0DF91CF9111
:103870000895FC01818D228D90E0805C9F4F821B1A
:1038800091098F7399270895FC01918D828D981766
:1038900031F0828DE80FF11D858D90E008958FEF56
:1038A0009FEF0895FC01918D828D981761F0828DB4
:1038B000DF01A80FB11D5D968C91928D9F5F9F7364
:1038C000928F90E008958FEF9FEF089580ED9DE136
:1038D000892B49F080EE90E1892B29F00E94D01DC0
:1038E00081110C94E0100895FC01848DDF01A80F74
:1038F000B11DA35ABF4F2C91848D90E001968F7318
:103900009927848FA689B7892C93A089B1898C9136
:1039100080648C93938D848D981306C00288F389FC
:10392000E02D80818F7D80830895CF93DF93EC011C
:10393000888D8823C9F0EA89FB89808185FD05C0CF
:10394000A889B9898C9186FD0FC00FB607FCF5CF09
:10395000808185FFF2CFA889B9898C9185FFEDCF51
:10396000CE010E94741CE7CFDF91CF910895CF92D2
:10397000DF92FF920F931F93CF93DF931F92CDB7E8
:10398000DEB76C0181E0D60158968C9358975B9610
:103990009C915B975C968C915C97981307C05096AE
:1039A000ED91FC915197808185FD2EC0F601038D2C
:1039B00010E00F5F1F4F0F731127F02EF601848D5B
:1039C000F81211C00FB607FCF9CFD6015096ED9151
:1039D000FC915197808185FFF1CFC60169830E94D8
:1039E000741C6981EBCF838DE80FF11DE35AFF4F03
:1039F0006083D6015B960C935B975296ED91FC9198
:103A00005397808180620CC0D6015696ED91FC914F
:103A1000579760835096ED91FC9151978081806417
:103A2000808381E090E00F90DF91CF911F910F9103
:103A3000FF90DF90CF900895BF92CF92DF92EF92E8
:103A4000FF92CF93DF93EC016A017B01B22E60EC11
:103A500076EC8DE290E0A70196010E94E71F2150CD
:103A60003109410951095695479537952795E889B8
:103A7000F98982E08083211580E1380798F0E88990
:103A8000F989108260E673EE86E190E0A701960165
:103A90000E94E71F21503109410951095695479568
:103AA00037952795EC85FD853083EE85FF8520834E
:103AB000188EEC89FD89B082EA89FB89808180615A
:103AC0008083EA89FB89808188608083EA89FB8919
:103AD000808180688083EA89FB8980818F7D8083F3
:103AE000DF91CF91FF90EF90DF90CF90BF9008953E
:103AF0001F920F920FB60F9211242F938F939F93C3
:103B0000EF93FF93E0918D07F0918E078081E09114
:103B10009307F091940782FD12C0908180919607DF
:103B20008F5F8F7320919707821751F0E09196076E
:103B3000F0E0E358F84F958F8093960701C080819D
:103B4000FF91EF919F918F912F910F900FBE0F904A
:103B50001F9018951F920F920FB60F9211242F935A
:103B60003F934F935F936F937F938F939F93AF9305
:103B7000BF93EF93FF938DE797E00E94741CFF9132
:103B8000EF91BF91AF919F918F917F916F915F91D5
:103B90004F913F912F910F900FBE0F901F9018954E
:103BA0008DE797E00E94391C21E0892B09F420E081
:103BB000822F08951092800710927F0788EE93E07D
:103BC000A0E0B0E08093810790938207A0938307E1
:103BD000B09384078CE294E090937E0780937D07F6
:103BE00085EC90E090938A078093890784EC90E0BD
:103BF00090938C0780938B0780EC90E090938E07D6
:103C000080938D0781EC90E09093900780938F07CD
:103C100082EC90E0909392078093910786EC90E07D
:103C200090939407809393071092960710929707AA
:103C300010929807109299070895CF92DF92EF9211
:103C4000FF920F931F93CF93DF937C016A01EB01E7
:103C500000E010E00C151D0571F06991D701ED91A0
:103C6000FC910190F081E02DC7010995892B19F095
:103C70000F5F1F4FEFCFC801DF91CF911F910F91C1
:103C8000FF90EF90DF90CF9008956115710581F05E
:103C9000DB010D900020E9F7AD0141505109461BB1
:103CA000570BDC01ED91FC910280F381E02D09942A
:103CB00080E090E008950C94451EDC01ED91FC91AC
:103CC0000190F081E02D099468E374E00C94451EA6
:103CD0000F931F93CF93DF93EC010E94451E8C013D
:103CE000CE010E94641E800F911FDF91CF911F9122
:103CF0000F9108950F931F93CF93DF93EC010E94D0
:103D00005D1E8C01CE010E94641E800F911FDF9109
:103D1000CF911F910F9108958F929F92AF92BF9272
:103D2000CF92DF92EF92FF920F931F93CF93DF9387
:103D3000CDB7DEB7A1970FB6F894DEBF0FBECDBFEB
:103D40007C01C42EE52FCB01D22E19A221E02D1526
:103D500010F02AE0D22E8E010F5D1F4F8D2C912C7A
:103D6000A12CB12C6C2D7E2FA50194010E94E71F80
:103D70008C2DD29E80191124015011098A3014F41F
:103D8000805D01C0895CF801808321153105410502
:103D9000510521F0C22EE32FCA01E4CFB801C701BB
:103DA0000E94451EA1960FB6F894DEBF0FBECDBF90
:103DB000DF91CF911F910F91FF90EF90DF90CF9007
:103DC000BF90AF909F908F900895CF92DF92EF9227
:103DD000FF920F931F93CF93DF93EC016A017B0156
:103DE0002115310579F4E881F9810190F081E02D08
:103DF000642FDF91CF911F910F91FF90EF90DF9093
:103E0000CF9009942A303105E9F477FF1AC06DE2AA
:103E10000E945D1E8C0144275527BA014C195D098B
:103E20006E097F092AE0CE010E948C1E800F911F2F
:103E3000DF91CF911F910F91FF90EF90DF90CF9086
:103E400008952AE0B701A601CE01DF91CF911F911D
:103E50000F91FF90EF90DF90CF900C948C1E9A0101
:103E6000AB01662757FD6095762F0C94E51E211552
:103E7000310541F4DC01ED91FC910190F081E02DE0
:103E8000642F09940C948C1E9A01462F50E060E038
:103E900070E00C94371F4F925F926F927F92AF92B7
:103EA000BF92CF92DF92EF92FF920F931F93CF9327
:103EB000DF93CDB7DEB729013A01621B730B840B88
:103EC000950B29893A894B895C892A193B094C0948
:103ED0005D09298B3A8B4B8B5C8B9B01AC0169890B
:103EE0007A898B899C890E94A31FE418F50806092A
:103EF0001709A80197010E9409202A0D3B1D4C1D9E
:103F00005D1DCA01B901DF91CF911F910F91FF9003
:103F1000EF90DF90CF90BF90AF907F906F905F90C9
:103F20004F90089508950E94C11A0E94921F0E9406
:103F3000D509C6E6DCE10E94460F2097E1F30E9416
:103F4000661CF9CF0895DB018F939F930E942E206A
:103F5000BF91AF91A29F800D911DA39F900DB29F25
:103F6000900D11240895991B79E004C0991F9617AC
:103F700008F0961B881F7A95C9F780950895AA1BAB
:103F8000BB1B51E107C0AA1FBB1FA617B70710F044
:103F9000A61BB70B881F991F5A95A9F78095909576
:103FA000BC01CD01089597FB072E16F4009407D0AD
:103FB00077FD09D00E94BF1F07FC05D03EF4909505
:103FC00081959F4F0895709561957F4F0895A1E267
:103FD0001A2EAA1BBB1BFD010DC0AA1FBB1FEE1F83
:103FE000FF1FA217B307E407F50720F0A21BB30BCE
:103FF000E40BF50B661F771F881F991F1A9469F74A
:1040000060957095809590959B01AC01BD01CF01A5
:104010000895052E97FB1EF400940E94202057FD62
:1040200007D00E94E71F07FC03D04EF40C94202019
:1040300050954095309521953F4F4F4F5F4F0895D4
:1040400090958095709561957F4F8F4F9F4F089504
:10405000EE0FFF1F0590F491E02D09940E94392086
:10406000A59F900DB49F900DA49F800D911D1124CC
:104070000895A29FB001B39FC001A39F700D811D41
:104080001124911DB29F700D811D1124911D089561
:10409000F999FECF92BD81BDF89A992780B5089510
:1040A000262FF999FECF1FBA92BD81BD20BD0FB654
:1040B000F894FA9AF99A0FBE01960895F894FFCFF2
:1040C0000100000001643200000000000000000058
:1040D00000000000000000000080C0C0E0E0F0F040
:1040E000F0F8F8F8F8F8FCFCFCFCFCFCFCF8F8F83C
:1040F000F0E0E0C0800000000000000000000000D0
:1041000000000000000000000000000000000000AF
:10411000000000C0F0F8FEFEFFFFFFFFFFFFFFFF03
:10412000FFFFFFFFFF7F3F9F9FDFFFBF9F9FBFBF3F
:10413000FFFFFFFFFFFFFCF8E000000000000000B1
:10414000000000000000000000000000000000006F
:104150000000FEFFFFFFFFFFFFFFFFFFFFFFFFFF6E
:10416000FFFFFFFFFFFFC3C9C1C3FFC38981C3FFB7
:10417000FFFFFFFFFFFFFFFFFF7F40000000000089
:10418000000000000000000000000000000000002F
:104190000000033FFFFFFFFFFFFFF1E08EBC2DC9D2
:1041A000933F7F7FFFFFFFFFFFFFFFFFFFFFFFFF4B
:1041B000FFFFFFFFFF7F3F9CC6761F070000000048
:1041C00000000000000000000000000000000000EF
:1041D0000000000001070F1F7FFFFFFFFFFFFFFF31
:1041E000FFFFFFFEFCFCFDF9FBFBFBF3F3F3F3FB2E
:1041F000FBFBF9FDFCFEFF3F070000000000000094
:1042000000000000000000000000000000000000AE
:1042100000000000000000000000010307070F1F5E
:104220001F3F3F3F3F3F3F7FFFFFFFEFEF8F0F0FEE
:104230000F0F070701010000000000000000000050
:104240000000000000000000A00A9A0486007C0123
:1042500001382C3E3E383E98783C181C7C546C54F7
:104260007C3C0C1C1C0C3C206028A8A8F87838303A
:1042700030202030002E0020202044696E6F003D49
:104280003D3D3D3D3D3D3D3D3D00486967687363B3
:104290006F72653A002047616D65204F7665720048
:1042A0002020002A0047616D6520210002000200E5
:1042B00002000300040005000600070009000B00CF
:1042C0000C000E00110013001500170019001B0050
:1042D0001D002000220023002500270028002900BF
:1042E0002A002B002C002C002C002C002C002B0072
:1042F0002A00290028002700250023002100200093
:104300001D001B00190017001500130011000E00FE
:104310000C000B0009000700060005000400030064
:1043200002000200200022002400260029002A00AA
:104330002C002E00300031003200330034003500F4
:1043400035003500350035003400330032003100CF
:1043500030002E002C002A00290026002400220014
:1043600020001E001C001A00170015001400120087
:1043700010000F000E000D000C000B000B000B00D6
:104380000B000B000C000D000E000F0010001200BF
:104390001400160017001A001C001E00060008007A
:1043A0000E00170020002600280026001F0017001E
:1043B0000E0008000600200028002F0031002F000A
:1043C00028002000170011000F0011001800200025
:1043D0000000000020161D1E00000000F617C9177F
:1043E0009E17A617B917C81700000000B71C1D1E9E
:1043F000391C521C441C951C0D0A006E616E00692C
:084400006E66006F7666000095
:00000001FF
