:100000000C9400030C9428030C9428030C942803EC
:100010000C9428030C9428030C9428030C942803B4
:100020000C9428030C9428030C9428030C942803A4
:100030000C9428030C9428030C9428030C94280394
:100040000C9456120C9428030C9455110C942F11F7
:100050000C9428030C9428030C9428030C94280374
:100060000C94A0120C942803D920C71DC41DC11DD7
:10007000C41DBE1DDB20BB1DB81DB51DA91DB21DB5
:10008000AB1DB01DAE1D05A84CCDB2D44EB938364F
:10009000A9020C50B9918688083CA6AAAA2ABE00DB
:1000A0000000803F00000000240027002A00010219
:1000B00004081020408001020408102001020408F6
:1000C000102000000000250028002B000404040478
:1000D00004040404020202020202030303030303F2
:1000E00000000000003E5B4F5B3E3E6B4F6B3E1CD2
:1000F0003E7C3E1C183C7E3C181C577D571C1C5EE9
:100100007F5E1C00183C1800FFE7C3E7FF001824BF
:100110001800FFE7DBE7FF30483A060E2629792969
:1001200026407F050507407F05253F5A3CE73C5A9E
:100130007F3E1C1C08081C1C3E7F14227F22145F7B
:100140005F005F5F06097F017F006689956A6060D6
:1001500060606094A2FFA29408047E040810207ED0
:10016000201008082A1C08081C2A08081E10101055
:10017000100C1E0C1E0C30383E3830060E3E0E069B
:10018000000000000000005F0000000700070014EE
:100190007F147F14242A7F2A1223130864623649AD
:1001A0005620500008070300001C22410000412295
:1001B0001C002A1C7F1C2A08083E0808008070309A
:1001C0000008080808080000606000201008040209
:1001D0003E5149453E00427F40007249494946210F
:1001E00041494D331814127F1027454545393C4A83
:1001F000494931412111090736494949364649499A
:10020000291E0000140000004034000000081422E1
:10021000411414141414004122140802015909064F
:100220003E415D594E7C1211127C7F494949363E50
:10023000414141227F4141413E7F494949417F0936
:100240000909013E414151737F0808087F00417F41
:1002500041002040413F017F081422417F4040403F
:10026000407F021C027F7F0408107F3E4141413ED7
:100270007F090909063E4151215E7F091929462659
:100280004949493203017F01033F4040403F1F205D
:1002900040201F3F4038403F631408146303047834
:1002A00004036159494D43007F4141410204081054
:1002B00020004141417F040201020440404040408F
:1002C000000307080020545478407F2844443838FD
:1002D00044444428384444287F385454541800086F
:1002E0007E090218A4A49C787F0804047800447D49
:1002F00040002040403D007F1028440000417F40E6
:10030000007C047804787C08040478384444443839
:10031000FC1824241818242418FC7C080404084819
:100320005454542404043F44243C4040207C1C206A
:1003300040201C3C4030403C44281028444C9090C5
:10034000907C4464544C440008364100000077001F
:1003500000004136080002010204023C2623263C2C
:100360001EA1A161123A4040207A385454555921B7
:10037000555579412254547842215554784020549F
:100380005579400C1E5272123955555559395454ED
:10039000545939555454580000457C410002457D5C
:1003A000420001457C407D1211127DF0282528F085
:1003B0007C545545002054547C547C0A097F4932B2
:1003C000494949323A4444443A324A4848303A4129
:1003D00041217A3A42402078009DA0A07D3D4242D2
:1003E000423D3D4040403D3C24FF2424487E49435B
:1003F000662B2FFC2F2BFF0929F620C0887E0903CE
:1004000020545479410000447D413048484A3238F4
:100410004040227A007A0A0A727D0D19317D262920
:10042000292F28262929292630484D402038080818
:10043000080808080808382F10C8ACBA2F1028344C
:10044000FA00007B000008142A142222142A14083F
:100450005500550055AA55AA55AAFF55FF55FF004E
:100460000000FF00101010FF00141414FF00101003
:10047000FF00FF1010F010F0141414FC001414F717
:1004800000FF0000FF00FF1414F404FC1414171004
:100490001F10101F101F1414141F00101010F00054
:1004A0000000001F101010101F10101010F010008E
:1004B0000000FF101010101010101010FF1000009E
:1004C00000FF140000FF00FF00001F10170000FCD9
:1004D00004F414141710171414F404F40000FF00AB
:1004E000F714141414141414F700F7141414171434
:1004F00010101F101F141414F4141010F010F0003A
:10050000001F101F0000001F14000000FC1400005A
:10051000F010F01010FF10FF141414FF141010103E
:100520001F00000000F010FFFFFFFFFFF0F0F0F0F1
:10053000F0FFFFFF0000000000FFFF0F0F0F0F0F85
:100540003844443844FC4A4A4A347E0202060602D1
:100550007E027E0263554941633844443C04407E38
:10056000201E2006027E020299A5E7A5991C2A49B1
:100570002A1C4C7201724C304A4D4D30304878483C
:1005800030BC625A463D3E494949007E0101017E28
:100590002A2A2A2A2A44445F444440514A4440407B
:1005A000444A51400000FF0103E080FF00000808BA
:1005B0006B6B083612362436060F090F060000183A
:1005C000180000001010003040FF0101001F010161
:1005D0001E00191D1712003C3C3C3C0000000000AE
:1005E000000000002300260029000000000800028F
:1005F00001000003040700000000000000002521A6
:1006000011241FBECFEFD8E0DEBFCDBF15E0A0E0C4
:10061000B1E0E6EFFBE402C005900D92A037B10710
:10062000D9F727E0A0E7B5E001C01D92A93CB207C9
:10063000E1F712E0C0E0D3E004C02197FE010E9480
:10064000F221CF3FD107C9F70E94E4150C94F92598
:100650000C940000FC0177FD9AC080859185681795
:1006600079070CF094C057FD92C082859385481796
:1006700059070CF08CC08589823009F07CC08481D8
:100680009581DC01A61BB70BBD0161507109868104
:100690009781FC01E41BF50BAF01415051090AC0E1
:1006A000813041F484819581841B950BAB01BC01A1
:1006B000615071092130310529F008F122303105EE
:1006C000E1F10895FA0157FD3796A3E0F595E79516
:1006D000AA95E1F7F695FE2FEE27F795E7956E0FB1
:1006E0007F1FFB01E050FF4F4770552781E090E0EE
:1006F00001C0880F4A95EAF79081892B3AC0FA0128
:1007000057FD379623E0F595E7952A95E1F7F6959D
:10071000FE2FEE27F795E7956E0F7F1FFB01E05048
:10072000FF4F4770552781E090E001C0880F4A9540
:10073000EAF78095908189231CC0FA0157FD37960E
:1007400083E0F595E7958A95E1F7F695FE2FEE277C
:10075000F795E7956E0F7F1FFB01E050FF4F477045
:10076000552781E090E001C0880F4A95EAF7908113
:10077000892780830895833009F092CF86819781FD
:10078000861B970BBA01AC014150510993CF0895D4
:1007900008952F923F924F925F926F927F928F9225
:1007A0009F92AF92BF92CF92DF92EF92FF920F9300
:1007B0001F93CF93DF93CDB7DEB76B970FB6F89447
:1007C000DEBF0FBECDBF4C015A8349831F830E830A
:1007D000FD82EC82CB82DC0158964D915C91599759
:1007E0004115510509F0A5C018968D919C91199756
:1007F000681779070CF05AC11A968D919C911B9736
:10080000E981FA81E817F9070CF050C1D12CCB012E
:100810003B81F6E03F9F800D911D112418161906AB
:100820000CF044C1C60133E0880F991F3A95E1F7F7
:1008300049815A81840F951F181619060CF036C18C
:1008400057968C91811103C0203B08F02F5F55E033
:10085000259F900111247E876D875B01212CC901A2
:10086000861B970B99878887A981BA811896BB87C1
:10087000AA87B5E02B1641F0E885F985EA0DFB1D46
:10088000E052FF4F349001C0312C69807A802301FF
:1008900030FE12C0D401ED91FC91BB81B13031F436
:1008A0000480F581E02D2E813F8118C00684F785F4
:1008B000E02DEE80FF801CC0EC81FD812E813F8108
:1008C000E217F307E1F0D401ED91FC91BB81B13067
:1008D00051F40480F581E02D2C813D81A301B50107
:1008E000C40109950CC00684F785E02DEC80FD80DD
:1008F00086019601A2016D857E85C4010995369415
:10090000EFEF6E1A7E0A4C0C5D1C2A853B85621641
:10091000730609F0BDCF23943FEFA31AB30A4D85A8
:100920005E854C0D5D1D5E874D8756E02512A1CF7B
:10093000BDC0FA0134963491329785919491231B6E
:10094000A7E02A9F800D911D1124FA012591349171
:100950003A8B298BFC0125903490FC01329634911E
:100960003887319644914C873196E491FC01359655
:10097000A491319684915B81523050F06A2E0A2EF8
:10098000000C7708E82F082E000CFF0BFB87EA8786
:10099000FB81CF2ED12C6C9C90016D9C300D7C9CEA
:1009A000300D1124A901460F571F588B4F871C8209
:1009B000A12CEA2FAA0FFF0B3B016E0E7F1E58855C
:1009C000650F711DDB01AE0FBF1FBF8BAE8BE981C1
:1009D000FA81E80FF11D87FDFA95F98FE88F9C8564
:1009E000A91608F063C08A2D90E04A855B85480F00
:1009F000591F4C9D90014D9D300D5C9D300D112473
:100A0000A981BA81A20FB31FBE87AD877B8E6A8E84
:100A10004F845888BC81B619BB8BE88DF98DE80FDF
:100A2000F91FFD8BEC8B8B89FA8D8F0F2A8D3B8DF7
:100A30004E895F892417350799F1877041F4C10108
:100A40000196E989FA89E20DF31DB4901C01B7FE05
:100A50001EC0D401ED91FC91BB81B13061F40480E2
:100A6000F581E02D2E813F814C895D896A8D7B8DDA
:100A7000C40109950CC00684F785E02DEE80FF8047
:100A8000860196014D855E85B201C4010995BB0CB6
:100A9000EA8DFB8D3196FB8FEA8F4C0C5D1CC3CF2A
:100AA0005C818885580F5C83A39499CF6B960FB6B1
:100AB000F894DEBF0FBECDBFDF91CF911F910F9194
:100AC000FF90EF90DF90CF90BF90AF909F908F906E
:100AD0007F906F905F904F903F902F900895AF92CE
:100AE000BF92CF92EF92FF920F931F93CF93DF931A
:100AF000EC01262F888D998D009709F042C06A304D
:100B000069F42C898E859F8538E0239F800D911D87
:100B100011249F878E871D861C86ACC06D3009F41A
:100B2000A9C08E898823C1F03C898C859D8546E0CB
:100B3000349F800D911D1124488559858417950790
:100B40005CF01D861C868E859F85E8E03E9F800DAB
:100B5000911D11249F878E87EA88FB88088919894F
:100B60004E855F856C857D85CC88CE010E94C9034A
:100B70002C898C859D85F6E02F9F800D911D112479
:100B800041C06A3079F41D861C862C89FC0136969A
:100B9000E4918E859F852E9F800D911D11249F8746
:100BA0008E8768C06D3009F465C0AC014C5F5F4F43
:100BB000FA013491631708F45DC03196E491E617A9
:100BC00008F458C0FA014491362F341BFC013296C8
:100BD000A590B490F7E03F9FA00CB11C1124F50143
:100BE000329634913196E491332311F0E1110DC026
:100BF000F5013496E4912C898C859D85E29F800DCA
:100C0000911D11249D878C8735C0F501359644913F
:100C10005E89552311F16C89E32FF0E0E40FF11D9B
:100C200047FDFA956E9FD0016F9FB00D11244C8542
:100C30005D854A0F5B1FE885F9854E175F076CF0ED
:100C40001D861C86FC013696E4918E859F856E9FDD
:100C5000800D911D11249F878E87EA88FB88088963
:100C600019894E855F856C857D85CC88CE010E9473
:100C7000C903BECF81E090E0DF91CF911F910F912A
:100C8000FF90EF90CF90BF90AF900895EF92FF92BA
:100C90000F931F93DC01ED91FC9111971A960D9122
:100CA0001C911B9718962D913C9119970684F785F6
:100CB000E02D7B0140E050E060E070E009951F917D
:100CC0000F91FF90EF9008956F927F928F929F9275
:100CD000AF92BF92CF92DF92EF92FF920F931F934A
:100CE000CF93DF936C015A014801EB013B01620E87
:100CF000731EC615D70574F4D601ED91FC910084DE
:100D0000F185E02D87019401A501BE01C601099579
:100D10002196EFCFDF91CF911F910F91FF90EF9030
:100D2000DF90CF90BF90AF909F908F907F906F900B
:100D30000895EF92FF920F931F93DC01ED91FC91C8
:100D4000260F371F215031090680F781E02D7801E9
:100D50008A0109951F910F91FF90EF900895EF92EE
:100D6000FF920F931F937801DC01ED91FC91240F0A
:100D7000351F8901015011090680F781E02D9B0183
:100D800009951F910F91FF90EF9008956F927F92B8
:100D90008F929F92AF92BF92CF92DF92EF92FF928B
:100DA0000F931F93CF93DF93EC014B015A0169011D
:100DB0003801E881F9810284F385E02D87010995E6
:100DC000E881F981A501460D571D41505109028462
:100DD000F385E02D9601B401CE010995E881F981F2
:100DE0000084F185E02D9301A501B401CE010995A0
:100DF000E881F981C80CD91CB601615071090084E1
:100E0000F185E02D9301A501CE010995DF91CF91E8
:100E10001F910F91FF90EF90DF90CF90BF90AF9018
:100E20009F908F907F906F9008952F923F924F9256
:100E30005F926F927F928F929F92AF92BF92CF926A
:100E4000DF92EF92FF920F931F93CF93DF9300D027
:100E50001F92CDB7DEB74C017B836A836A015901CB
:100E600017019801241B350B37FF03C031952195DD
:100E70003109C5014A815B81841B950B97FF03C033
:100E800091958195910951E059838217930714F048
:100E900019820BC09A2D8B2D5801092F182F9A817A
:100EA0008B81DB82CA82C92ED82E8A819B81A816AB
:100EB000B9065CF49C2D8D2D6801092F182F9A819D
:100EC0008B81BB82AA82A92EB82E2501AA81BB8163
:100ED0004A1A5B0A38016C187D0877FE03C07194CA
:100EE00061947108720157FE03C0BFEFEB1AFB0A51
:100EF000F594E794C016D1061CF00FEF1FEF1FC04A
:100F000001E010E01CC0D401ED91FC91B981048096
:100F1000F581E02D9101BB23C1F04A815B81B601CF
:100F2000C4010995E618F708F7FE04C0C00ED11EEB
:100F3000E40CF51CEA81FB813196FB83EA834A814C
:100F40005B81A416B506FCF604C0A6016A817B810C
:100F5000E7CF0F900F900F90DF91CF911F910F91DE
:100F6000FF90EF90DF90CF90BF90AF909F908F90C9
:100F70007F906F905F904F903F902F9008951F93B8
:100F8000CF93DF93EC01162F8C8D8F3F09F1EEA1EB
:100F9000FFA190818CA5892B8083E8A5F9A590817C
:100FA0008DA5809589238083EEA1FFA190818CA5DA
:100FB000809589238083CE010E94CE13EEA1FFA1EC
:100FC00090818CA5892B8083DF91CF911F9108950B
:100FD0008A8D91E09093F606809318071092F70699
:100FE0001092190760E087EB97E00E94E30D612FF4
:100FF00087EB97E00E94E30DDF91CF911F910C9456
:101000000614CF92DF92EF92FF920F931F93CF932C
:10101000DF93EC0161E20E94BF0760E0CE010E9415
:10102000BF076FE7CE010E94BF0762E2CE010E94B8
:10103000BF0760E0CE010E94BF0767E0CE010E94BB
:10104000BF078C8D8F3F31F1EEA1FFA190818CA560
:10105000892B8083E8A5F9A590818DA5892B8083B4
:10106000EEA1FFA190818CA580958923808300E06B
:1010700011E0F80161918F01CE010E94CE13F5E0DD
:1010800000301F07B1F7EEA1FFA190818CA5892B3D
:10109000808332C0D090B8008CE08093B80000E02C
:1010A00011E0CC24C3948A8DC092F6068093180771
:1010B0001092F7061092190760E487EB97E00E9400
:1010C000E30DE12CF12CF801EE0DFF1D608187EBA3
:1010D00097E00E94E30D8FEFE81AF80AE0E1EE16C0
:1010E000F10489F70E940614005F1F4FF5E00030FD
:1010F0001F07C9F6D092B800DF91CF911F910F91D1
:10110000FF90EF90DF90CF900895CF93DF93CAEFD9
:10111000D0E08AE197E00E94670C892B09F477C040
:1011200080917A0590917B058A3F910524F0D093B8
:101130007B05C0937A058AE197E00E94450C9EE307
:10114000980F923030F3982F8A30D9F46FEA80915B
:10115000C3079091C4070E94BF07E0917A05F09100
:101160007B05E458FA4F10821092740510927305B3
:10117000109279051092780580917C058093720514
:10118000C8CF20917A0530917B058F39C1F0803B23
:10119000C1F08D3BC1F0823BC1F0843AC1F0863B87
:1011A000C1F08C3BC1F08438C1F08639C1F08C3974
:1011B000C1F08B3AC1F08B3BB9F49FEA15C090EEB9
:1011C00013C098EF11C09BEA0FC09DEF0DC094E8CB
:1011D0000BC094E909C091E807C09EE805C099E9F1
:1011E00003C09AE901C09EEAF901E458FA4F9083DE
:1011F000C90101968A3F91052CF490937B05809359
:101200007A0587CF10927B0510927A0582CFDF9105
:10121000CF9108952F923F924F925F926F927F925B
:101220008F929F92AF92BF92CF92DF92EF92FF92F6
:101230000F931F93CF93DF9300D000D0CDB7DEB7CD
:101240009C838B836B015A01890181E090E04C0102
:10125000821A930A88279927821B930B9C01220FDD
:10126000331F3A832983AB81BC81ED91FC911197A7
:10127000A501400F511F0480F581E02D21E030E0F1
:10128000CD010995AB81BC81ED91FC911197A50130
:10129000401B510B0480F581E02D21E030E0B601C8
:1012A000CD010995AB81BC81ED91FC911197B601FF
:1012B000600F711F0480F581E02D21E030E0A50171
:1012C000CD010995AB81BC81ED91FC911197B601DF
:1012D000601B710B0480F581E02D21E030E0A50159
:1012E000CD010995E12CF12CE016F1060CF09DC022
:1012F00097FC09C001501109E981FA813296FA83FD
:10130000E9838E0E9F1EFFEFEF1AFF0AC701880FB9
:10131000991F0196880E991E27014C0C5D1CAB810C
:10132000BC81ED91FC9111970480F581E02D21E0C5
:1013300030E03501600E711EA301B201CD010995A7
:1013400016012E183F08AB81BC81ED91FC911197DD
:101350000480F581E02D21E030E0A301B101CD0151
:101360000995AB81BC81ED91FC9111970480F581C9
:10137000E02D21E030E03501601A710AA301B201CD
:10138000CD010995AB81BC81ED91FC911197048051
:10139000F581E02D21E030E0A301B101CD010995F7
:1013A00037016A0C7B1CAB81BC81ED91FC911197DC
:1013B0000480F581E02D21E030E0A3012601400EFC
:1013C000511EB201CD010995AB81BC81ED91FC911B
:1013D00011970480F581E02D21E030E0A301160192
:1013E000201A310AB101CD01099535016E187F0827
:1013F000AB81BC81ED91FC9111970480F581E02DCA
:1014000021E030E0A301B201CD010995AB81BC819F
:10141000ED91FC9111970480F581E02D21E030E001
:10142000A301B101CD0109955FCF0F900F900F90EF
:101430000F90DF91CF911F910F91FF90EF90DF9070
:10144000CF90BF90AF909F908F907F906F905F9064
:101450004F903F902F900895DC01ED91FC91048016
:10146000F581E02D21E030E00994EF92FF920F9397
:101470001F93DC01ED91FC910680F781E02DEE24B5
:10148000E394F12C09951F910F91FF90EF9008952F
:10149000EF92FF920F931F93DC01ED91FC91068474
:1014A000F785E02DE12CF12C09951F910F91FF900C
:1014B000EF900895CF92DF92EF92FF920F931F93D8
:1014C000CF93DF936034710530F54033510518F543
:1014D0007A01EB012796C12CD12C082F10E0C8010E
:1014E0000C2C02C0959587950A94E2F780FF0BC0FB
:1014F000C034D10544F4A701BE018091C307909187
:10150000C4070E942C0A8FEFC81AD80A219788E0D6
:10151000C816D10421F7DF91CF911F910F91FF9051
:10152000EF90DF90CF900895CF92DF92EF92FF92ED
:101530000F931F93CF93DF938EE480937C006AE038
:1015400070E080E090E00E941C1280917A0080643C
:1015500080937A0080917A00182F107486FDFACF5C
:10156000209178008091790030E0382B032E000C18
:10157000440B550B60E070E381E190E00E94D321C1
:10158000283B6BE036070CF12A37EDE03E07E4F428
:10159000B901330F880B990B0E94282320E030E813
:1015A0004BE355E40E940C2220E030E044E752E493
:1015B0000E94F32320E030E041EE53E40E947E22BB
:1015C0000E94F722162F01C01DE3C12ED12CE091FD
:1015D000C307F091C407C285C451D0E01431C8F4E8
:1015E000808591854E9795878487D787C6876CE4D9
:1015F000CF010E94CA106FE68091C3079091C40783
:101600000E94CA1067E78091C3079091C4070E94A7
:10161000CA108091C3079091C407FC01428553858D
:101620004054510960857185645071090E942C0AEB
:101630008091C3079091C407FC01428553854054B3
:10164000510960857185635071090E942C0AA0912F
:10165000C307B091C407ED91FC9111971A964D9173
:101660005C911B974F53510918966D917C91199776
:10167000665071090484F585E02DEE24E394F12C85
:101680000FE310E026E030E0CD010995A091C307FB
:10169000B091C407ED91FC9111971A964D915C9110
:1016A0001B974C195D094150510918966D917C9119
:1016B0001997655071090684F785E02D860124E0AD
:1016C00030E0CD0109958091C3079091C407FC01DA
:1016D0006085718567507109AE010E942C0A809166
:1016E000C3079091C407FC0160857185665071093C
:1016F000AE01DF91CF911F910F91FF90EF90DF909E
:10170000CF900C942C0AEF92FF920F931F93CF93DC
:10171000DF93609177056A3040F460E080E090E00C
:101720000E9499146091770502C080E090E00E94C9
:101730009914609176056A3040F460E08BE290E0A5
:101740000E9499146091760502C08BE290E00E949D
:101750009914609175056A3040F460E085E590E089
:101760000E9499146091750502C085E590E00E9481
:101770009914E090C307F090C407F701C285D385A0
:1017800022976091760670E080E090E00E94282326
:1017900020E030E040E151E40E947E2220E030E091
:1017A00040E852E40E94F3230E94F0228E019B0144
:1017B000AE0160E070E0C7010E94350ADF91CF9171
:1017C0001F910F91FF90EF900895809176068F5FA3
:1017D000809376068A3068F16AE00E949121209118
:1017E0007505820F80937505909376068C3350F0C3
:1017F0006CE30E94912120917605820F80937605FB
:1018000090937505809176058C3350F06CE30E94BF
:10181000912120917705820F80937705909376052B
:1018200080917705883128F068E10E94912190939A
:1018300077050895CF92DF92EF92FF920F931F9357
:10184000CF93DF936C017A018B01C0E0D0E0CE151D
:10185000DF0589F0D8016D918D01D601ED91FC91E4
:101860000190F081E02DC6010995892B11F47E01CC
:1018700002C02196ECCFC701DF91CF911F910F914C
:10188000FF90EF90DF90CF900895FC01918D828DB5
:10189000981761F0828DDF01A80FB11D5D968C91C4
:1018A000928D9F5F9F73928F90E008958FEF9FEFCF
:1018B0000895FC01918D828D981731F0828DE80F8B
:1018C000F11D858D90E008958FEF9FEF0895FC0145
:1018D000918D228D892F90E0805C9F4F821B910912
:1018E0008F73992708958AE197E00E94670C21E0A1
:1018F000892B09F420E0822F0895FC01848DDF01FB
:10190000A80FB11DA35ABF4F2C91848D90E0019672
:101910008F739927848FA689B7892C93A089B18961
:101920008C9180648C93938D848D981306C002886B
:10193000F389E02D80818F7D80830895EF92FF925F
:101940000F931F93CF93DF93EC0181E0888F9B8DE2
:101950008C8D981305C0E889F989808185FD24C0A4
:10196000F62E0B8D10E00F5F1F4F0F731127E02E27
:101970008C8DE8120CC00FB607FCFACFE889F98904
:10198000808185FFF5CFCE010E947D0CF1CF8B8D3C
:10199000FE01E80FF11DE35AFF4FF0820B8FEA8939
:1019A000FB898081806207C0EE89FF896083E889B6
:1019B000F98980818064808381E090E0DF91CF911C
:1019C0001F910F91FF90EF900895CF93DF93EC015B
:1019D000888D8823C9F0EA89FB89808185FD05C04F
:1019E000A889B9898C9186FD0FC00FB607FCF5CF89
:1019F000808185FFF2CFA889B9898C9185FFEDCFD1
:101A0000CE010E947D0CE7CFDF91CF9108950E9417
:101A1000730C81110C9485080895833081F028F4AB
:101A2000813099F08230A1F008958730A9F0883094
:101A3000B9F08430D1F4809180008F7D03C0809113
:101A400080008F7780938000089584B58F7702C0DF
:101A500084B58F7D84BD08958091B0008F7703C0D9
:101A60008091B0008F7D8093B00008953FB7F894C7
:101A70008091CB069091CC06A091CD06B091CE0678
:101A800026B5A89B05C02F3F19F00196A11DB11DD9
:101A90003FBFBA2FA92F982F8827820F911DA11D14
:101AA000B11DBC01CD0143E0660F771F881F991F50
:101AB0004A95D1F7089585ED8093BC008091BC00D4
:101AC00084FDFCCF1092F50608954091A106262FC3
:101AD00030E0240F311D21323105DCF42091F50670
:101AE0002430C9F4FC0180E090E0861758F430916E
:101AF000A1062191DC01A158B94FA30FB11D2C9370
:101B00000196F3CF8091A106680F6093A10680E053
:101B1000089581E0089582E00895089581E090E0BD
:101B20003091710520917005321710F480E090E03B
:101B30009195819591090895809171059091700515
:101B4000891730F48F5F8093710580E090E00895ED
:101B50008FEF9FEF08958091700590E020917105BF
:101B6000821B91090895CF92DF92EF92FF920F931B
:101B70001F93CF93DF937C01262F972F8A018091AB
:101B8000F606882391F0C62FD72F6E01C40ED51EFE
:101B9000CC15DD0571F06991D701ED91FC910190B3
:101BA000F081E02DC7010995F3CF642F822F0E94A9
:101BB000650DC801DF91CF911F910F91FF90EF90BC
:101BC000DF90CF900895CF93DF931F92CDB7DEB70C
:101BD00069832091F6062223D1F020911907203243
:101BE00040F021E030E0FC013383228380E090E08C
:101BF00015C08091F706E82FF0E0E850F94F998181
:101C000090838F5F8093F7068093190705C061E08A
:101C1000CE0101960E94650D81E090E00F90DF916A
:101C2000CF9108950F931F93CF93DF93DC015596C7
:101C30008C915597823071F0833009F1813009F031
:101C40008CC01496ED91FC911597E41BF50BE21BEB
:101C5000F30B20C01496ED91FC911597CF01861BD4
:101C6000970BBC01615071091696ED91FC91179785
:101C7000CF01841B950BAC01421B530B6EC0169613
:101C8000ED91FC911797CF01861B970BBC0161501A
:101C90007109FA0177FD1BC116968D919C911797DA
:101CA000681779070CF013C1F7FF04C02E0F3F1F10
:101CB000E0E0F0E014968D919C911597AF01420FF2
:101CC000531F841795071CF49C012E1B3F0B121603
:101CD00013060CF0FCC0CB0177FD079643E0959509
:101CE00087954A95E1F79695982F88279795879538
:101CF000E80FF91FE050FF4F6770772781E090E011
:101D000001C0880F6A95EAF7482F0130110541F0AC
:101D100088F00230110509F0DAC02E0F3F1F15C000
:101D20002E0F3F1FE217F30709F4D1C08081842BE7
:101D30008193F8CF80952E0F3F1FE217F30709F428
:101D4000C6C0908198239193F8CFE217F30709F466
:101D5000BEC0808184278193F8CF77FDB8C01496E8
:101D60008D919C911597681779070CF0B0C057FFBB
:101D700004C0240F351F40E050E016968D919C91D1
:101D80001797FA01E20FF31F8E179F071CF49C01AF
:101D9000241B350B121613060CF099C0A22F842FAA
:101DA00086958695869590E8899F600D711D112412
:101DB000FB01E050FF4F4770A9F198E0941B492FB9
:101DC00050E0EA01C05DDA4F8881291790F4421B88
:101DD00051092FEF30E002C0359527954A95E2F77B
:101DE00082230130110541F068F00230110589F0BD
:101DF0006EC00130110519F42081822B0CC0013016
:101E0000110520F480952081822305C00230110540
:101E100031F4208182278083A91708F458C0A91BB8
:101E2000E058FF4FA83048F10230110559F4EF0196
:101E30008A2F988190959883C058DF4F88508830BA
:101E4000C0F730C081E00130110509F080E08195D4
:101E5000EF019A2F8883C058DF4F98509830D0F701
:101E600088EF8A0F86958695869590E8899FE00D84
:101E7000F11D1124E058FF4FA770AA2341F1B0E0F3
:101E8000A85DBA4F8C910130110529F038F002306D
:101E90001105D1F01CC09081892B18C080959081CC
:101EA000892314C088EF8A0F86958695869590E8D9
:101EB000899FE00DF11D1124E058FF4FA77039F004
:101EC000B0E0A85DBA4F8C91908189278083DF9123
:101ED000CF911F910F9108950F931F93CF93DF938D
:101EE000DC01FB0155968C915597823081F083304F
:101EF00019F1813051F514968D919C911597BC0183
:101F0000641B750BAB0141505109BF0181C0149690
:101F10006D917C911597CB018E1B9F0BFC01169642
:101F20008D919C911797BC01641B750BAB014150BF
:101F30005109E21BF30B09C016966D917C9117971E
:101F40006E1B7F0B621B730B63C057FD1CC1169683
:101F50008D919C911797481759070CF014C1F7FF02
:101F600004C02E0F3F1FE0E0F0E014968D919C918D
:101F70001597BF01620F731F861797071CF49C010A
:101F80002E1B3F0B121613060CF0FDC0CA0157FDA5
:101F9000079663E0959587956A95E1F79695982F52
:101FA000882797958795E80FF91FE050FF4F4770F6
:101FB000552781E090E001C0880F4A95EAF7482F45
:101FC0000130110541F088F00230110509F0DBC045
:101FD0002E0F3F1F15C02E0F3F1FE217F30709F406
:101FE000D2C08081842B8193F8CF80952E0F3F1F24
:101FF000E217F30709F4C7C0908198239193F8CFB3
:10200000E217F30709F4BFC0808184278193F8CFDA
:1020100057FDB9C014968D919C9115974817590793
:102020000CF0B1C077FF04C0260F371F60E070E0EE
:1020300016968D919C911797FB01E20FF31F8E1757
:102040009F071CF49C01261B370B121613060CF07D
:102050009AC0A22F862F86958695869590E8899FAF
:10206000400D511D1124FA01E050FF4F6770A9F196
:1020700098E0961B492F50E0EA01C05DDA4F888155
:10208000291790F4421B51092FEF30E002C035951B
:1020900027954A95E2F782230130110541F068F057
:1020A0000230110589F06FC00130110519F420814B
:1020B000822B0CC00130110520F4809520818223F1
:1020C00005C00230110531F4208182278083A917D1
:1020D00008F459C0A91BE058FF4FA83048F102305E
:1020E000110559F4EF018A2F988190959883C05873
:1020F000DF4F88508830C0F731C081E001301105D2
:1021000009F080E08195EF019A2F8883C058DF4F56
:1021100098509830D0F788EF8A0F869586958695E7
:1021200060E8869FE00DF11D1124E058FF4FA77075
:10213000AA2349F1B0E0A85DBA4F8C910130110596
:1021400029F038F002301105D9F01DC09081892B9B
:1021500003C0809590818923808315C088EF8A0F02
:1021600086958695869570E8879FE00DF11D112470
:10217000E058FF4FA77039F0B0E0A85DBA4F8C91DE
:1021800090818927E9CFDF91CF911F910F91089519
:102190000E94DE25DC01ED91FC910190F081E02DA3
:1021A00009946115710579F0FB0101900020E9F7B0
:1021B0003197AF01461B570BDC01ED91FC9102807A
:1021C000F381E02D099480E090E008954F925F92B2
:1021D0006F927F92EF92FF920F931F93CF93DF93B3
:1021E000CDB7DEB7A1970FB6F894DEBF0FBECDBF57
:1021F0007C01FA01CB0119A2223008F42AE08E01F9
:102200000F5D1F4F422E512C612C712CBF01A30179
:1022100092010E94B121F901CA01015011096A30ED
:1022200014F4605D01C0695CD8016C93232B242BEE
:10223000252B61F7B801C7010E94D110A1960FB6F6
:10224000F894DEBF0FBECDBFDF91CF911F910F91EC
:10225000FF90EF907F906F905F904F9008951F9246
:102260000F920FB60F9211242F933F934F935F93CA
:102270006F937F938F939F93AF93BF93EF93FF934E
:102280008AE197E00E947D0CFF91EF91BF91AF91A1
:102290009F918F917F916F915F914F913F912F917E
:1022A0000F900FBE0F901F9018951F920F920FB6B0
:1022B0000F9211242F938F939F93EF93FF93E091AD
:1022C0002A07F0912B078081E0913007F0913107C8
:1022D00082FD12C09081809133078F5F8F732091B0
:1022E0003407821751F0E0913307F0E0E65EF84FD3
:1022F000958F8093330701C08081FF91EF919F916B
:102300008F912F910F900FBE0F901F901895CF9324
:10231000DF93282F30E0F901E651FA4F8491F9015B
:10232000E255FF4FD491F901E453FF4FC491CC2300
:1023300091F081110E940D0DEC2FF0E0EE0FFF1FC8
:10234000E052FA4FA591B491EC91ED2381E090E039
:1023500021F480E002C080E090E0DF91CF91089509
:102360001F93CF93DF93282F30E0F901E651FA4F06
:102370008491F901E255FF4FD491F901E453FF4FE5
:10238000C491CC23C9F0162F81110E940D0DEC2FA2
:10239000F0E0EE0FFF1FEE53FF4FA591B4918FB702
:1023A000F894111105C09C91ED2FE095E92302C02E
:1023B000EC91ED2BEC938FBFDF91CF911F9108959E
:1023C000CF93DF9390E0FC01E255FF4F2491FC0195
:1023D000E453FF4F8491882361F190E0880F991FA7
:1023E000FC01EC55FF4FC591D491FC01EE53FF4F1A
:1023F000A591B491611109C09FB7F8948881209587
:1024000082238883EC912E230BC0623061F49FB746
:10241000F8943881822F809583238883EC912E2B2A
:102420002C939FBF06C08FB7F894E8812E2B28838A
:102430008FBFDF91CF9108958F929F92AF92BF92FD
:10244000CF92DF92EF92FF926B017C010E94360DDA
:102450004B015C01C114D104E104F104F1F00E94CC
:10246000360DDC01CB0188199909AA09BB09883E00
:102470009340A105B10570F321E0C21AD108E1082B
:10248000F10888EE880E83E0981EA11CB11CC114CF
:10249000D104E104F10419F7DDCFFF90EF90DF9054
:1024A000CF90BF90AF909F908F9008951F920F9202
:1024B0000FB60F9211242F933F938F939F93AF9357
:1024C000BF938091C7069091C806A091C906B091AC
:1024D000CA063091C60626E0230F2D3720F4029657
:1024E000A11DB11D05C029E8230F0396A11DB11D33
:1024F0002093C6068093C7069093C806A093C9068A
:10250000B093CA068091CB069091CC06A091CD06DF
:10251000B091CE060196A11DB11D8093CB0690937C
:10252000CC06A093CD06B093CE06BF91AF919F91FC
:102530008F913F912F910F900FBE0F901F90189584
:102540001F920F920FB60F9211242F933F934F9328
:102550005F936F937F938F939F93AF93BF93EF930B
:10256000FF938091B900887F803609F49CC068F59C
:10257000883209F45BC090F4803109F454C038F417
:10258000882309F4F6C0883009F44DC0F6C08831BC
:1025900009F44CC0803209F45DC0EFC0803409F406
:1025A00068C048F4803309F455C0883309F0E5C0A9
:1025B0008093F306D8C0803509F44FC0883509F4FC
:1025C0005DC0883409F0D9C0D6C0883909F4C7C0C5
:1025D000A8F4883709F467C038F4883609F463C072
:1025E000803709F460C0C9C0883809F4B8C08039A0
:1025F00009F45FC0803809F0C0C05BC0803B09F4BB
:1026000086C038F4803A09F466C0883A09F47FC07D
:10261000B4C0803C09F4A7C0883C09F4A4C0883B3E
:1026200009F48AC0AAC08091D00610C09091F20629
:102630008091F106981770F5E091F20681E08E0F17
:102640008093F206F0E0EF52F94F80818093BB0057
:1026500085EC86C08093F3068EC0E091F20681E09F
:102660008E0F8093F2068091BB00F0E0EF52F94F9D
:1026700080839091F2068091F1066EC0E091F2069F
:1026800081E08E0F8093F2068091BB00F0E0EF5264
:10269000F94F80838091F40681116DC081E08093B1
:1026A000CF0684EA61C083E08093F5061092C506E8
:1026B000CFCF8091C506803208F051C0E091C506A9
:1026C00081E08E0F8093C5068091BB00F0E0EB5552
:1026D000F94F8083BDCF85EC8093BC001092F50646
:1026E0008091C506803230F4E091C506F0E0EB55EC
:1026F000F94F10826091C50670E0E091A306F09159
:10270000A40685EA96E009951092C50636C084E0D5
:102710008093F5061092A2061092A106E0919F0602
:10272000F091A00609958091A106811105C081E074
:102730008093A10610927F06E091A20681E08E0FA1
:102740008093A206F0E0E158F94F80818093BB00AE
:102750009091A2068091A106981708F479CF85E898
:102760008093BC000AC085EC8093BC001092F506F3
:1027700004C01092F3060E945B0DFF91EF91BF9190
:10278000AF919F918F917F916F915F914F913F9109
:102790002F910F900FBE0F901F901895FC0181A1F3
:1027A000882339F06EBD00000DB407FEFDCF8EB555
:1027B000089528E030E090E8A4A1B5A14C9183A54C
:1027C000809584238C93A2A1B3A182A5492F46238F
:1027D00019F04C91842B03C04C91809584238C93E9
:1027E000A4A1B5A14C9183A5842B8C9396952150DF
:1027F000310911F7089580E094E0E0E0F1E0DF01B5
:102800009C011D9221503040E1F708952091190755
:1028100090911807213208F04AC08091F506811185
:10282000FCCF32E03093F50631E03093F4063FEF11
:102830003093F3061092F2062093F106A8EFB6E06B
:1028400041ED56E0FA013E2F341B321718F43D914A
:102850003193F9CF1092D0062091D006990F922B88
:102860009093D0069091CF06913061F41092CF06EC
:102870009091D0069093BB009091BC0093FDF8CF4F
:1028800095EC01C095EE9093BC009091F5069230C6
:10289000E1F39091F3069F3F79F08091F306803247
:1028A00041F08091F306803331F084E005C081E08F
:1028B00003C082E001C083E01092F706109219076E
:1028C0001092F6060895CF92DF92EF92FF920F9347
:1028D0001F93CF93DF936B01770FEE08FF08F7FE8E
:1028E0001BC0EC016DE20E94CA108C0144275527E1
:1028F000BA014C195D096E097F092AE0CE010E94D8
:10290000E610800F911FDF91CF911F910F91FF90E3
:10291000EF90DF90CF9008952AE0B701A601DF91F4
:10292000CF911F910F91FF90EF90DF90CF900C947B
:10293000E610CF92DF92EF92FF920F931F93CF9307
:10294000DF93EC016A3058F0862F6AE00E949121F3
:10295000192F682FCE010E949914EC01612F8091EC
:10296000C3079091C407611108C0BE01695F7F4F22
:1029700027E030E040E250E0C4C06130D9F47E018D
:1029800025E0E20EF11C0AE010E097014FE050E074
:10299000BE010E94350A08E210E097014AE050E0CB
:1029A000B7018091C3079091C4070E94350ACE01F8
:1029B000089601C1623049F57E0137E0E30EF11C53
:1029C00027E030E04DE150E0B7010E940A090EE136
:1029D00010E027E030E04AE050E0BE018091C307FC
:1029E0009091C4070E94480A9E01215F3F4F08E270
:1029F00010E045E250E0B7018091C3079091C40711
:102A00000E94350ACE014196D6C0633089F47E011A
:102A100027E0E20EF11C27E030E041E150E0B70191
:102A20000E940A0927E030E040E250E0B70140C0D0
:102A30006430F1F47E013FE0E30EF11C0AE010E0A7
:102A4000970149E150E0BE010E94350A09E110E01A
:102A5000970149E150E0BE018091C3079091C407FE
:102A60000E94350A08E210E097014AE050E0C3CF27
:102A70009E01295F3F4F6901653071F5285F3F4F27
:102A80000AE010E04AE050E0B6010E94350A09E190
:102A900010E096014AE050E0B6018091C3079091A2
:102AA000C4070E94350A27E030E040E250E0B6015A
:102AB0008091C3079091C4070E940A090EE110E0BB
:102AC00027E030E04AE050E0BE018091C3079091DA
:102AD000C4070E94480A96CF6630B1F49E01215F78
:102AE0003F4F0AE010E04EE150E0BE010E94350A7F
:102AF00027E030E040E250E0B6018091C3079091BA
:102B0000C4070E940A097ECF673051F57E013FE07D
:102B1000E30EF11C0AE010E097014DE050E0BE0129
:102B20000E94350A08E210E09E014AE050E0B70139
:102B30008091C3079091C4070E94350A9E01225FCD
:102B40003F4FBE016D5F7F4F09E110E049E150E06A
:102B50008091C3079091C4070E94350AC6012BC01B
:102B60009E012F5E3F4F790127E030E041E150E0C8
:102B7000683079F4B6010E940A0927E030E040E2AB
:102B800050E0B6018091C3079091C4070E940A09E2
:102B900011C0B6010E940A09BE01615F7F4F08E2C1
:102BA00010E09B0141E150E08091C3079091C40780
:102BB0000E94350AC701DF91CF911F910F91FF90BD
:102BC000EF90DF90CF900895CF93DF9300D000D0A7
:102BD00000D0CDB7DEB7789484B5826084BD84B56B
:102BE000816084BD85B5826085BD85B5816085BD08
:102BF00080916E00816080936E00109281008091C0
:102C00008100826080938100809181008160809347
:102C10008100809180008160809380008091B1006C
:102C200084608093B1008091B00081608093B00097
:102C300080917A00846080937A0080917A0082602B
:102C400080937A0080917A008E7F80937A008091C1
:102C50007A00806880937A001092C10062E08EE072
:102C60000E94E01162E08FE00E94E01161E08AE0E2
:102C70000E94E01161E08AE00E94B011E0912A0711
:102C8000F0912B0792E09083E0912607F0912707BF
:102C90001082E0912807F091290787E6808310923F
:102CA0003207E0912E07F0912F0786E08083E091B4
:102CB0002C07F0912D07808180618083E0912C07A3
:102CC000F0912D07808188608083E0912C07F0913E
:102CD0002D07808180688083E0912C07F0912D077B
:102CE00080818F7D80838091640088608093640000
:102CF00080916400806480936400809164008160AE
:102D00008093640080916400806880936400E09008
:102D1000C307F090C407D7015B969C935B978DE344
:102D20005A968C935A975C968C915C978F3F09F4D6
:102D3000C3C061E05E968C910E94E01161E0F701F2
:102D400080A10E94E011D70190968C919097082E57
:102D5000000C990BFC01E453FF4FE491F0E0EE0FFF
:102D6000FF1FEE53FF4F25913491F70137A326A3A0
:102D7000FC01E255FF4FE4919C96EC939C975E9684
:102D80008C915E97082E000C990BFC01E453FF4FC9
:102D9000E491F0E0EE0FFF1FEE53FF4F25913491C9
:102DA000F70131A720A7FC01E255FF4FE4919D9662
:102DB000EC939D9791968C919197811140C061E021
:102DC0005C968C910E94E01161E0F701858D0E9474
:102DD000E011D7015D968C915D97082E000C990B40
:102DE000FC01E453FF4FE491F0E0EE0FFF1FEE53C0
:102DF000FF4F25913491F70135A324A3FC01E2553F
:102E0000FF4FE4919B96EC939B975C968C915C971B
:102E1000082E000C990BFC01E453FF4FE491F0E005
:102E2000EE0FFF1FEE53FF4F25913491F70133A3AF
:102E300022A3FC01E255FF4FE4919A96EC93F7012F
:102E400081A1882309F45FC01FB7F89480917706A9
:102E5000811127C0E6EDF0E08491E8EBF0E0949179
:102E6000E82FF0E0EE0FFF1FEC55FF4FA591B49156
:102E7000EC91E92321F461E08AE00E94B01161E065
:102E80008AE00E94E0118CB580618CBD8CB58064B5
:102E90008CBD61E08DE00E94E01161E08BE00E945A
:102EA000E011809177068F5F809377061FBF80E5E2
:102EB0008CBD81E08DBD27C0109271051092700508
:102EC0001092F706109219071092F50681E0809390
:102ED000F4061092CF0661E082E10E94B01161E039
:102EE00083E10E94B0118091B9008E7F8093B90078
:102EF0008091B9008D7F8093B90080E28093B80003
:102F000085E48093BC00D7015F968C9187FD1FC03C
:102F100061E00E94E01161E0F701878D0E94B0112D
:102F200061E070E080E090E00E941C1260E0D70158
:102F30005F968C910E94B0116AE070E080E090E0B2
:102F40000E941C1261E0F701878D0E94B0116EEAA9
:102F5000C7010E94BF0765EDC7010E94BF0760E877
:102F6000C7010E94BF0768EAC7010E94BF076FE35D
:102F7000C7010E94BF0763EDC7010E94BF0760E061
:102F8000C7010E94BF0760E4C7010E94BF076DE848
:102F9000C7010E94BF0764E1C7010E94BF0760E24A
:102FA000C7010E94BF0760E0C7010E94BF0761EA36
:102FB000C7010E94BF0768ECC7010E94BF076AED06
:102FC000C7010E94BF0762E1C7010E94BF0761E815
:102FD000C7010E94BF076FECC7010E94BF0769EDE0
:102FE000C7010E94BF0761EFC7010E94BF076BEDD9
:102FF000C7010E94BF0760E4C7010E94BF0764EADF
:10300000C7010E94BF0766EAC7010E94BF076EE2C0
:10301000C7010E94BF076FEAC7010E94BF07C7012F
:103020000E94FB1381E0D70154968C93549781E062
:1030300090E053969C938E93529751969C938E93C7
:1030400050971D961C921E921C971F961C921E92C2
:103050001E9765E58091C3079091C4070E94CA102E
:1030600061E48091C3079091C4070E94CA1062E591
:103070008091C3079091C4070E94CA1064E58091B3
:10308000C3079091C4070E94CA106DE28091C307E4
:103090009091C4070E94CA1063E58091C307909184
:1030A000C4070E94CA106DE68091C3079091C407BF
:1030B0000E94CA1061E68091C3079091C4070E94E4
:1030C000CA1062E78091C3079091C4070E94CA109A
:1030D00064E78091C3079091C4070E94CA1067E714
:1030E0008091C3079091C4070E94CA1061E6809145
:1030F000C3079091C4070E94CA1064E78091C30778
:103100009091C4070E94CA1063E68091C307909112
:10311000C4070E94CA1068E68091C3079091C40753
:103120000E94CA10809164008E7F809364000E9488
:10313000940A809164008160809364008091C30749
:103140009091C4070E94010868EB7BE080E090E06A
:103150000E941C128091C3079091C4070E94FB1328
:10316000109272058EE195E0BAE0B80FB98382E162
:1031700095E0ECE0E80FEA836FE570E080E090E036
:103180000E941C128FE00E948711892B21F08091F0
:103190007E068230B0F06CE271E080E090E00E9448
:1031A0001C12809176068D5F809376068FE00E94D8
:1031B000871120917E06892B09F49BC2223008F0EA
:1031C00098C28EE00E948711892B09F0AEC16CE293
:1031D00071E080E090E00E941C12809176068D5F85
:1031E000809376068EE00E948711892B09F09DC19D
:1031F00010927D0610927C0661E08AE00E94B01178
:103200006FEA8091C3079091C4070E94BF07809125
:10321000C3079091C4070E94FB138091C30790914C
:10322000C407FC014285538557FF02C04F5F5F4FC3
:1032300055954795DC0118966D917C91199777FF0C
:1032400002C06F5F7F4F7595679525E030E00E9463
:103250000A098091C3079091C407FC010285138578
:103260002085318537FF02C02F5F3F4F3595279569
:1032700040E050E060E070E00E94480A8091C3079F
:103280009091C407DC011A964D915C911B9757FFF2
:1032900002C04F5F5F4F55954795FC016085718572
:1032A00077FF02C06F5F7F4F759567958A019B011D
:1032B0000E94480A8091C3079091C4070E940108A8
:1032C00064E670E080E090E00E941C128091C307E9
:1032D0009091C407DC011A964D915C911B9757FFA2
:1032E00002C04F5F5F4F55954795FC016085718522
:1032F00077FF02C06F5F7F4F759567952AE030E0DA
:103300000E940A098091C3079091C407DC011A96B4
:103310000D911C911B9718962D913C91199737FF91
:1033200002C02F5F3F4F3595279540E050E060E0A9
:1033300070E00E94480A8091C3079091C407FC0185
:103340004285538557FF02C04F5F5F4F55954795A4
:10335000DC0118966D917C91199777FF02C06F5F21
:103360007F4F759567958A019B010E94480A80915D
:10337000C3079091C4070E94010864E670E080E0F2
:1033800090E00E941C128091C3079091C407FC0139
:103390004285538557FF02C04F5F5F4F5595479554
:1033A000DC0118966D917C91199777FF02C06F5FD1
:1033B0007F4F759567952FE030E00E940A09809154
:1033C000C3079091C407FC010285138520853185D0
:1033D00037FF02C02F5F3F4F3595279540E050E003
:1033E00060E070E00E94480A8091C3079091C40792
:1033F000DC011A964D915C911B9757FF02C04F5FFD
:103400005F4F55954795FC016085718577FF02C038
:103410006F5F7F4F759567958A019B010E94480AEF
:103420008091C3079091C4070E94010864E670E090
:1034300080E090E00E941C128091C3079091C40725
:10344000DC011A964D915C911B9757FF02C04F5FAC
:103450005F4F55954795FC016085718577FF02C0E8
:103460006F5F7F4F7595679524E130E00E940A09F0
:103470008091C3079091C407DC011A960D911C91AD
:103480001B9718962D913C91199737FF02C02F5F1B
:103490003F4F3595279540E050E060E070E00E9496
:1034A000480A8091C3079091C407FC014285538567
:1034B00057FF02C04F5F5F4F55954795DC01189647
:1034C0006D917C91199777FF02C06F5F7F4F759563
:1034D00067958A019B010E94480A8091C3079091D9
:1034E000C4070E94010868EC70E080E090E00E9450
:1034F0001C12809176068B5F809376066EEA80912F
:10350000C3079091C4070E94BF0710927C051092D8
:103510007B0510927A056EE78AE197E00E94CA1057
:103520006AE08AE197E00E94CA1020917A05309102
:103530007B05121613060CF08FC0809178059091D0
:103540007905892BC9F580917C05833241F580E2AC
:1035500080937C0580917E05805390917D059053EA
:10356000BAE09B9F800D112480937705809181059F
:103570008053909180059053EAE09E9F800D112426
:1035800080937605809184058053909183059053B4
:10359000FAE09F9F800D1124809375050DC0853240
:1035A00059F480917D0590E090937D0680937C0690
:1035B000309379052093780580917805909179056D
:1035C000281739070CF448C08217930724F4FC012C
:1035D000E458FA4F10828091C3079091C4070E946B
:1035E000FB138091C3079091C407DC011D961C92C8
:1035F0001E921C971F961C921E921E976091730537
:103600007091740564587A4F0E94D11063ED8091D7
:10361000C3079091C4070E94BF0760E08091C30771
:103620009091C4070E94BF078091C3079091C4077F
:103630000E9401082091780530917905F901E4583C
:10364000FA4F809172058083C90165E170E00E94A4
:103650009D21892B09F4B4C580917A0590917B0551
:103660002091730530917405821793074CF08D56A5
:103670009F4F20917805309179052817390769F413
:103680006EEA8091C3079091C4070E94BF07109211
:103690007C0510927B0510927A0580917C069091B2
:1036A0007D061816190634F480917606811102C041
:1036B00060E001C061E08AE00E94B011809178056D
:1036C00090917905019690937905809378052091E2
:1036D0007A0530917B052817390734F0FC01E4584E
:1036E000FA4F8081809372050E94E50B0E94070DBE
:1036F00043CD223040F410927D0610927C0661E0AA
:103700008AE00E94B0116FEA8091C3079091C407CC
:103710000E94BF078EE00E948711892B09F0F4C236
:1037200010927B0610927A068091C3079091C4078D
:103730000E94FB1380E090E00E94E32580937806CE
:1037400081E090E00E94E325809379068091C30791
:103750009091C407DC011D961C921E921C971F9627
:103760001C921E921E9768E40E94CA1069E680911E
:10377000C3079091C4070E94CA1067E68091C307EF
:103780009091C4070E94CA1068E68091C307909187
:10379000C4070E94CA1063E78091C3079091C407D1
:1037A0000E94CA1063E68091C3079091C4070E94EB
:1037B000CA106FE68091C3079091C4070E94CA1097
:1037C00062E78091C3079091C4070E94CA1065E622
:1037D0008091C3079091C4070E94CA106AE3809148
:1037E000C3079091C4070E94CA106AE08091C30782
:1037F0009091C4070E94CA10609178067091790672
:103800008091C3079091C4070E9463148091C307FD
:103810009091C4070E94010868EB7BE080E090E093
:103820000E941C1280917606825E80937606C12CDF
:10383000D12C1C8266E4E62EF12C78E3472EE3E0DF
:103840005E2EF3E0AF2EB12C80917A0690917B062C
:10385000019690937B0680937A068091C30790919E
:10386000C4070E94FB138091C3079091C407FC0119
:103870001586148617861686452D50E060E070E0A8
:103880002AE00E94E6108091C3079091C407E4E10A
:10389000F0E0DC011D96FC93EE931C971F961C92A2
:1038A0001E921E9760917A0670917B060E946314A7
:1038B000411002C058E3452E8091C3079091C40780
:1038C000242D30E0DC011D963C932E931C97EAE0FA
:1038D000F0E01F96FC93EE931E976AE20E94CA10D6
:1038E00080917A0680FF4A940DE210E02FE330E0E9
:1038F0004DE250E060E070E08091C3079091C40712
:103900000E94350AF9EFEF16FFEFFF061CF446E4BC
:10391000E42EF12C06E015E031E2832E912CA40177
:10392000B701D8018D918D010E945A0ABFEF8B1A01
:103930009B0AEDE28E16910491F7F2E0EF1AF1087E
:1039400026E0E216F10409F056C03C813D3008F053
:1039500047C05A9492E1892E95E0992E2AE1622E71
:10396000712CD4012D904D0100E010E0312CC101EB
:10397000002E02C0959587950A94E2F780FF0BC050
:103980004DE250E0401B510BB3018091C307909171
:10399000C4070E942C0A0F5F1F4F0830110539F72A
:1039A000B1E06B1A7108EA81E811DBCF8091C3079F
:1039B0009091C4070E94010860E08AE00E94B01163
:1039C00068EE73E080E090E00E941C1261E08AE003
:1039D0000E94B01180917606865F809376067BC048
:1039E00080917A0690917B06FC818F0F911D9093B8
:1039F0007B0680937A0600E22C81021B8EE1882EE2
:103A000085E0982E10E00E511540A801480D591D73
:103A100062E070E0D4018D914D010E945A0AB98193
:103A2000B811F3CF80917A0690917B06B5010E9480
:103A30009D21892B91F40AE2EC810E1B10E0A80174
:103A400062E070E088E30E945A0AA8014F5F5F4F6E
:103A500062E070E084E20E945A0A80917A069091B6
:103A60007B060196B5010E949D21892B91F40AE203
:103A7000FC810F1B10E0A80162E070E088E70E9463
:103A80005A0AA8014F5F5F4F62E070E088E00E9431
:103A90005A0A80917A0690917B060296B5010E949F
:103AA0009D21892B91F40AE22C81021B10E0A801D0
:103AB00062E070E080E30E945A0AA8014F5F5F4F06
:103AC00062E070E088E20E945A0A8091C3079091F8
:103AD000C4070E94010800917A0610917B06013A02
:103AE0003FE0130794F4093B4BE0140784F40D3DC9
:103AF00085E0180774F4093E93E0190764F4053F64
:103B0000A1E01A0754F062E309C06AE007C064E16B
:103B100005C06EE103C068E201C066E4C60ED11CB8
:103B200070E080E090E00E941C12B5E6CB16D10454
:103B300024F00E94E50BC12CD12CEC818E2F90E05B
:103B4000FC013197EF30F105F8F4EC5CFF4F0C9479
:103B5000F221FDE017C02FE02C8321C03EE01EC003
:103B60004CE02AC38AE08C831AC099E09C8317C07A
:103B7000A8E0AC8314C0B6E0BC8311C0E4E0EC83E1
:103B80000EC0F2E0FC830BC02C81211108C08FE035
:103B90000E948711892B09F011C331E03C83511039
:103BA00053CE8091780690917906801791070CF496
:103BB0008CC00091C3071091C407D8011D961C92B8
:103BC0001E921C971F961C921E921E9753961C9233
:103BD0001E92529751961C921E92509761E070E08F
:103BE000C8010E94631481E090E0F801938B828BFE
:103BF000918B808B8091C3079091C407DC011D9647
:103C00001C921E921C971F961C921E921E9760E09B
:103C100070E00E9463148091C3079091C40728E06C
:103C200030E0FC013587248726E130E0378726879E
:103C300067E40E94CA1061E68091C3079091C407AF
:103C40000E94CA106DE68091C3079091C4070E943C
:103C5000CA1065E68091C3079091C4070E94CA10FC
:103C600060E28091C3079091C4070E94CA106FE47C
:103C70008091C3079091C4070E94CA1066E78091A3
:103C8000C3079091C4070E94CA1065E68091C307DC
:103C90009091C4070E94CA1062E78091C307909177
:103CA000C4070E94CA108091C3079091C4070E9464
:103CB00001086CEA7DE080E090E00E941C12809197
:103CC00076068D5D809376061FC01093790600936B
:103CD000780680E090E00E94E325081729F0602F25
:103CE00080E090E00E94EB256091790681E090E011
:103CF0006B830E94E3256B81681709F45ACF81E03A
:103D000090E00E94EB2555CF809164008E7F8093D8
:103D10006400A2E3EA2EF12CB7E3CB2ED12C1DE1F7
:103D2000612E712C8091C3079091C4070E94FB13F0
:103D30000E94E50B80917E06813009F0EEC12FE1F3
:103D400030E040E250E061E270E08091C307909182
:103D5000C4070E940A0980917705282F30E03E832E
:103D60002D832D30310524F02C5031093E832D83D5
:103D70006091750570E080E090E00E94262320E0CD
:103D800030E040E751E40E940C222BED3FE049E493
:103D900050E40E94F32320E030E040EF51E40E9421
:103DA0007E221B012C010E9460244B015C01C20198
:103DB000B1010E9479221B012C0120E030E048EF84
:103DC00051E4C501B4010E94F32320E030E040E05B
:103DD00052E40E940D220E94F0224B015C0120E07F
:103DE00030E048EF51E4C201B1010E94F32320E02A
:103DF00030E044E052E40E940D220E94F02284014F
:103E00009B0140E250E061E270E08091C307909135
:103E1000C4070E94350A6091760570E080E090E06A
:103E20000E94262320E030E040E751E40E940C226B
:103E30002BED3FE049E450E40E94F32320E030E022
:103E400040EF51E40E947E221B012C010E9460245D
:103E50004B015C01C201B1010E9479221B012C01BE
:103E600020E030E040EE51E4C501B4010E94F323AC
:103E700020E030E040E052E40E940D220E94F02257
:103E80004B015C0120E030E040EE51E4C201B101A1
:103E90000E94F32320E030E044E052E40E940D222F
:103EA0000E94F02284019B0140E250E061E270E058
:103EB0008091C3079091C4070E94350AAD81BE81ED
:103EC000BD01BB0F880B990B0E94282320E030E036
:103ED00040E450E40E940C222BED3FE049E450E422
:103EE0000E94F32320E030E040EC50E40E947E2268
:103EF0001B012C010E94602420E030E048E951E4DD
:103F00000E94F32320E030E040E052E40E940D22C2
:103F10000E94F0224B015C01C201B1010E94792292
:103F200020E030E048E951E40E94F3231B012C011A
:103F300020E030E044E052E40E940D220E94F02292
:103F400084019B0140E250E061E270E08091C30790
:103F50009091C4070E94350A20E030E040E052E42E
:103F6000C201B1010E940D220E94F0229B0140E299
:103F700050E062E270E08091C3079091C4070E9414
:103F8000350A10E0612F70E080E090E00E94262367
:103F90002BED3FE049E450E40E94F32320E030E0C1
:103FA00040EC50E40E947E221B012C010E94602400
:103FB0004B015C01C201B1010E9479221B012C015D
:103FC00020E030E040EE51E4C501B4010E94F3234B
:103FD00020E030E040E052E40E940D220E94F022F6
:103FE0004B015C0120E030E040EE51E4C201B10140
:103FF0000E94F32320E030E044E052E40E940D22CE
:104000000E94F022A4018091C3079091C4070E94EE
:104010002C0A1F5F1C3009F0B5CF8091C307909127
:10402000C4072CE130E0FC013587248725E030E02F
:10403000378726876CE070E00E9463148091C30785
:104040009091C4072FE130E0DC011D963C932E9344
:104050001C97E4E3F0E01F96FC93EE931E9766E056
:1040600070E00E9463148091C3079091C407DC0143
:104070001D96DC92CE921C971F967C926E921E9794
:1040800063E070E00E9463148091C3079091C407BD
:1040900028E030E0FC01358724877786668669E072
:1040A00070E00E946314E091C307F091C4078EE3AF
:1040B00090E0958784871786168692E0948B4091CE
:1040C000770550E060E070E02AE0CF010E94E61042
:1040D0006AE38091C3079091C4070E94CA1080913F
:1040E00076058A3038F460E38091C3079091C40765
:1040F0000E94CA104091760550E060E070E02AE02E
:104100008091C3079091C4070E94E610E091C30715
:10411000F091C407A1E0A48B18C08230A1F440E064
:1041200050E065E070E08091C3079091C4070E9461
:104130002C0A40E050E06EE170E08091C30790915E
:10414000C4070E942C0A0E94830B0E94940A80914B
:10415000C3079091C4070E94010865E570E080E004
:1041600090E00E941C12B1E0EB1AF10809F0DACDE0
:10417000809164008160809364008FE00E948711C9
:10418000892B51F480917E068F5F833018F48093E1
:104190007E0602C010927E0680917E06823008F074
:1041A00010C86EEA8091C3079091C4070E94BF07B0
:1041B00008C837E0F3CC4BE04C83F1CC1C82EFCC49
:1041C000243931050CF448CA809173059091740527
:1041D00045969093740580937305EE24E394F12C37
:1041E0008091C3079091C407FC0120853185870128
:1041F00040E050E060E070E00E94480A63ED80918A
:10420000C3079091C4070E94BF076E2D8091C3071A
:104210009091C4070E94BF078091C3079091C40783
:104220000E94010862E370E080E090E00E941C12AE
:10423000F2E0EF0EF11C29E0E216F10489F680911C
:1042400076068C5F8093760607CAEAE1F7E0138270
:10425000128288EE93E0A0E0B0E084839583A68389
:10426000B7832CE335E03183208325EC30E03587BC
:10427000248724EC30E03787268720EC30E0318B30
:10428000208B21EC30E0338B228B22EC30E0358B1D
:10429000248B26EC30E0378B268B118E128E138EFA
:1042A000148EE7EBF7E01382128284839583A68352
:1042B000B7838CE495E0918380838EE290E00E9446
:1042C000B124FC011382128220E830E0358324837C
:1042D00080E490E097838683318720879387828765
:1042E000158A158614861786168681E0848B2FEF33
:1042F0003FEF338B228B318B208B868B178A118E6D
:10430000108E98E0968F96E0978F95E090A381A30A
:104310008CE595E091838083F093C407E093C30715
:104320000895991B79E004C0991F961708F0961B11
:10433000881F7A95C9F78095089597FB072E16F484
:10434000009407D077FD09D00E94F82107FC05D022
:104350003EF4909581959F4F0895709561957F4F9C
:104360000895A1E21A2EAA1BBB1BFD010DC0AA1FB6
:10437000BB1FEE1FFF1FA217B307E407F50720F0CE
:10438000A21BB30BE40BF50B661F771F881F991F49
:104390001A9469F760957095809590959B01AC0192
:1043A000BD01CF010895052E97FB1EF400940E94D5
:1043B000EA2157FD07D00E94B12107FC03D04EF43B
:1043C0000C94EA2150954095309521953F4F4F4FE1
:1043D0005F4F089590958095709561957F4F8F4FB1
:1043E0009F4F0895EE0FFF1F0590F491E02D099463
:1043F000AA1BBB1B51E107C0AA1FBB1FA617B7070B
:1044000010F0A61BB70B881F991F5A95A9F7809526
:104410009095BC01CD0108955058BB27AA270E9452
:1044200024220C94A5230E946C2338F00E9473234D
:1044300020F039F49F3F19F426F40C9469230EF40C
:10444000E095E7FB0C946323E92F0E94CA2358F3FD
:10445000BA17620773078407950720F079F4A6F569
:104460000C94EC230EF4E0950B2EBA2FA02D0B012B
:10447000B90190010C01CA01A0011124FF27591BA9
:1044800099F0593F50F4503E68F11A16F040A22FAF
:10449000232F342F4427585FF3CF46953795279520
:1044A000A795F0405395C9F77EF41F16BA0B620B1F
:1044B000730B840BBAF09150A1F0FF0FBB1F661F66
:1044C000771F881FC2F70EC0BA0F621F731F841FA9
:1044D00048F4879577956795B795F7959E3F08F0CF
:1044E000B0CF9395880F08F09927EE0F9795879591
:1044F00008950E947C23E3950C94B6230E94922297
:104500000C94A5230E94732358F00E946C2340F062
:1045100029F45F3F29F00C94632351110C94ED238F
:104520000C9469230E94CA2368F39923B1F355239D
:1045300091F3951B550BBB27AA27621773078407B6
:1045400038F09F5F5F4F220F331F441FAA1FA9F34C
:1045500035D00E2E3AF0E0E832D091505040E6953A
:10456000001CCAF72BD0FE2F29D0660F771F881F9B
:10457000BB1F261737074807AB07B0E809F0BB0B8E
:10458000802DBF01FF2793585F4F3AF09E3F5105A2
:1045900078F00C9463230C94ED235F3FE4F3983E92
:1045A000D4F3869577956795B795F7959F5FC9F78B
:1045B000880F911D9695879597F90895E1E0660F0C
:1045C000771F881FBB1F621773078407BA0720F085
:1045D000621B730B840BBA0BEE1F88F7E0950895EE
:1045E0000E94F7226894B1110C94ED2308950E9463
:1045F000D22388F09F5798F0B92F9927B751B0F080
:10460000E1F0660F771F881F991F1AF0BA95C9F756
:1046100014C0B13091F00E94EC23B1E008950C94E5
:10462000EC23672F782F8827B85F39F0B93FCCF398
:10463000869577956795B395D9F73EF490958095D3
:10464000709561957F4F8F4F9F4F0895E89409C0F3
:1046500097FB3EF490958095709561957F4F8F4FB5
:104660009F4F9923A9F0F92F96E9BB279395F695CB
:10467000879577956795B795F111F8CFFAF4BB0F49
:1046800011F460FF1BC06F5F7F4F8F4F9F4F16C0AD
:10469000882311F096E911C0772321F09EE8872F37
:1046A000762F05C0662371F096E8862F70E060E0F3
:1046B0002AF09A95660F771F881FDAF7880F96956C
:1046C000879597F9089597F99F6780E870E060E013
:1046D00008959FEF80EC089500240A94161617069B
:1046E00018060906089500240A94121613061406E3
:1046F000050608950C9469230E94D223D8F3E89408
:10470000E0E0BB279F57F0F02AED3FE049EC06C000
:10471000EE0FBB0F661F771F881F28F0B23A6207A3
:104720007307840728F0B25A620B730B840BE3956E
:104730009A9572F7803830F49A95BB0F661F771FF1
:10474000881FD2F790480C946A24092E0394000C19
:1047500011F4882352F0BB0F40F4BF2B11F460FF1B
:1047600004C06F5F7F4F8F4F9F4F0895EF93E0FF1F
:1047700007C0A2EA2AED3FE049EC5FEB0E94242249
:104780000E94A5230F90039401FC9058E6E8F0E006
:104790000C94762457FD9058440F551F59F05F3FF5
:1047A00071F04795880F97FB991F61F09F3F79F053
:1047B00087950895121613061406551FF2CF4695D5
:1047C000F1DF08C0161617061806991FF1CF869557
:1047D0007105610508940895E894BB27662777273B
:1047E000CB0197F908950E9406240C94A5230E94FA
:1047F0006C2338F00E94732320F0952311F00C9461
:1048000063230C94692311240C94ED230E94CA2382
:1048100070F3959FC1F3950F50E0551F629FF00113
:10482000729FBB27F00DB11D639FAA27F00DB11D2C
:10483000AA1F649F6627B00DA11D661F829F2227B5
:10484000B00DA11D621F739FB00DA11D621F839F3C
:10485000A00D611D221F749F3327A00D611D231F12
:10486000849F600D211D822F762F6A2F11249F5760
:1048700050409AF0F1F088234AF0EE0FFF1FBB1F63
:10488000661F771F881F91505040A9F79E3F510522
:1048900080F00C9463230C94ED235F3FE4F3983E87
:1048A000D4F3869577956795B795F795E7959F5FCC
:1048B000C1F7FE2B880F911D9695879597F908955E
:1048C0009F930E947C230F9007FCEE5F0C94B6230D
:1048D0009F3F31F0915020F4879577956795B79574
:1048E000880F911D9695879597F908959F938F93BB
:1048F0007F936F93FF93EF939B01AC010E94F3238F
:10490000EF91FF910E948A242F913F914F915F91E7
:104910000C94F323DF93CF931F930F93FF92EF92A7
:10492000DF927B018C01689406C0DA2EEF010E94B1
:104930000624FE01E894A591259135914591559164
:10494000A6F3EF010E942422FE019701A801DA9448
:1049500069F7DF90EF90FF900F911F91CF91DF915A
:104960000895CF93DF938230910510F482E090E0B8
:10497000E091C707F091C80720E030E0C0E0D0E048
:10498000309711F14081518148175907C0F04817FD
:10499000590761F482819381209719F09B838A8360
:1049A0002BC09093C8078093C70726C021153105F7
:1049B00019F04217530718F49A01BE01DF01EF0105
:1049C0000280F381E02DDCCF2115310509F1281B90
:1049D000390B2430310590F412968D919C911397E8
:1049E0006115710521F0FB019383828304C09093CC
:1049F000C8078093C707FD01329644C0FD01E20F4E
:104A0000F31F81939193225031092D933C933AC027
:104A10002091C5073091C607232B41F42091020550
:104A2000309103053093C6072093C50720910005F8
:104A3000309101052115310541F42DB73EB7409164
:104A4000040550910505241B350BE091C507F09135
:104A5000C607E217F307A0F42E1B3F0B28173907F0
:104A600078F0AC014E5F5F4F2417350748F04E0FCA
:104A70005F1F5093C6074093C5078193919302C06F
:104A8000E0E0F0E0CF01DF91CF9108950F931F9305
:104A9000CF93DF93009709F48CC0FC013297138207
:104AA00012820091C7071091C8070115110581F402
:104AB00020813181820F931F2091C5073091C60755
:104AC0002817390779F5F093C607E093C50771C039
:104AD000D80140E050E0AE17BF0750F412962D9178
:104AE0003C911397AD012115310509F1D901F3CF9F
:104AF0009D01DA013383228360817181860F971FC4
:104B00008217930769F4EC0128813981260F371F3A
:104B10002E5F3F4F318320838A819B8193838283E1
:104B2000452B29F4F093C807E093C70742C01396BA
:104B3000FC93EE931297ED01499159919E01240F38
:104B4000351FE217F30771F480819181840F951F5F
:104B5000029611969C938E938281938113969C93D7
:104B60008E931297E0E0F0E0D80112968D919C911F
:104B70001397009719F0F8018C01F6CF8D919C9155
:104B800098012E5F3F4F820F931F2091C5073091F0
:104B9000C6072817390769F4309729F41092C80717
:104BA0001092C70702C0138212821093C6070093A7
:104BB000C507DF91CF911F910F91089581E090E09B
:104BC000F8940C94F925F999FECF92BD81BDF89A1D
:104BD000992780B50895262FF999FECF1FBA92BD67
:104BE00081BD20BD0FB6F894FA9AF99A0FBE0196CE
:064BF0000895F894FFCFC8
:104BF60000000000000000000000000000000000AF
:104C0600000000000000000000000000000000009E
:104C1600000000000000000000000000000000008E
:104C260000000000000000000000000000000080FE
:104C3600808000000000000000000000000000006E
:104C4600008080C0C00000000000000000000000DE
:104C5600000000000000000000000000000000004E
:104C6600000000000000000000000000000000003E
:104C7600000000000000000000000000000000002E
:104C86000000000080C0E0F0F8FCF8E00000000042
:104C9600000000000000000000000000008080808E
:104CA600808000808000000000808080808000FF7F
:104CB600FFFF0000000080808080000080800000F0
:104CC60080FFFF8080008080008080808000808060
:104CD6000000000000808000008C8E84000080F8B8
:104CE600F8F880000000000000000000000000004E
:104CF600F0F0F0F0F0F0F0F0F0F0F0F0E0E0C0806E
:104D060000E0FCFEFFFFFF7FFFFFFFFFFF0000004C
:104D16000000000000000000000000FEFFC70101C7
:104D2600010183FFFF00007CFEC70101010183FF33
:104D3600FFFF0038FEC78301010183C7FFFF0000A4
:104D460001FFFF010100FFFF0701010100007FFFD6
:104D560080000000FFFF7F0000FFFFFF000001FF53
:104D6600FFFF01000000000000000000000000003E
:104D7600030F3F7F7FFFFFFFFFFFFFFFE7C7C78FE1
:104D86008F9FBFFFFFC3C0F0FFFFFFFFFFFCFCFCD0
:104D9600FCFCFCFCFCF8F8F0F0E0C00001030303A7
:104DA60003030103030000000001030303030101E1
:104DB60003010000000103030303010103030000D4
:104DC60000030300000003030000000000000001D0
:104DD60003030303030100000001030100000003B5
:104DE60003010000000000000000000000000000B9
:104DF60000000080C0E0F0F9FFFFFFFFFF3F1F0F3C
:104E060087C7F7FFFF1F1F3DFCF8F8F8F87C7DFF0A
:104E1600FFFFFFFFFFFFFF7F3F0F0700303000005F
:104E2600000000000000000000000000000000007C
:104E360000000000FEFEFC00000000000000000074
:104E460000000000000000000000000000E0C000BC
:104E560000000000000000000000303000000000EC
:104E6600000000000000000000000000000000003C
:104E760000C0FEFFFFFFFFFFFFFFFFFF7F7F3F1F1B
:104E86000F071F7FFFFFF8F8FFFFFFFFFFFEF8E0A9
:104E9600000000010000000000000000FEFE00000F
:104EA60000FCFEFC0C06060EFCF80000F0F81C0EDA
:104EB6000606060CFFFFFF0000FEFE00000000FCD9
:104EC600FEFC00183C7E66E6CE84000006FFFF0668
:104ED60006FCFEFC0C0606060000FEFE0000C0F8FE
:104EE600FC4E4646464E7C7840183C76E6CECC8054
:104EF60000000000000000000000000000000000AC
:104F06000000000001070F1F1F3F3F3F3F1F0F0319
:104F16000000000000000000000000000F0F00006D
:104F2600000F0F0F000000000F0F000003070E0C0C
:104F360018180C060F0F0F0000010F0E0C180C0F9F
:104F4600070100040E0C180C0F070000000F0F00DD
:104F5600000F0F0F0000000000000F0F00000007F9
:104F6600070C0C181C0C060600040E0C180C0F0778
:104F7600000000000000000000000000000000002B
:104F8600000000000000000000000000000000001B
:104F9600000000000000000000000000000000000B
:104FA60000000000000000000000000000000000FB
:104FB60000000000000000000000000000000000EB
:104FC60000000000000000000000000000000000DB
:104FD60000000000000000000000000000000000CB
:104FE60000000000000000000000000000000000BB
:104FF6000000C9078000206028A8A8F8783830305B
:1050060020201C7C546C547C3C0C1C1C0C3C382C06
:105016003E3E383E98783C18000103070F1F3F7F3D
:105026000080C0E0F0F8FCFE000000009E0C1A0CA8
:10503600670C450C590CE50C00000000E30DB30DA0
:10504600AB0D9C0D8E0D8D0D000000006F051A0C2A
:105056002A031507120E6C0FC60664064606C80319
:107800000C94343C0C94513C0C94513C0C94513CE1
:107810000C94513C0C94513C0C94513C0C94513CB4
:107820000C94513C0C94513C0C94513C0C94513CA4
:107830000C94513C0C94513C0C94513C0C94513C94
:107840000C94513C0C94513C0C94513C0C94513C84
:107850000C94513C0C94513C0C94513C0C94513C74
:107860000C94513C0C94513C11241FBECFEFD8E036
:10787000DEBFCDBF11E0A0E0B1E0EAE8FFE702C063
:1078800005900D92A230B107D9F712E0A2E0B1E065
:1078900001C01D92AD30B107E1F70E942D3D0C945F
:1078A000C33F0C94003C982F95959595959595958B
:1078B000905D8F708A307CF0282F295A8091C0000B
:1078C00085FFFCCF9093C6008091C00085FFFCCF60
:1078D0002093C6000895282F205DF0CF982F809127
:1078E000C00085FFFCCF9093C6000895EF92FF92F1
:1078F0000F931F93EE24FF2487018091C00087FD22
:1079000017C00894E11CF11C011D111D81E2E8164D
:1079100081EAF80687E0080780E0180770F3E09135
:107920000401F091050109958091C00087FFE9CF1E
:107930008091C6001F910F91FF90EF9008950E94D3
:10794000763C982F8091C00085FFFCCF9093C600B5
:1079500091362CF490330CF09053892F089597555D
:10796000892F08951F930E949F3C182F0E949F3CCF
:107970001295107F810F1F9108951F93182F882350
:1079800021F00E94763C1150E1F71F9108951F935A
:10799000182F0E94763C803249F0809103018F5F5E
:1079A000809303018530C1F01F9108958091C0003C
:1079B00085FFFCCF84E18093C6008091C00085FFE5
:1079C000FCCF1093C6008091C00085FFFCCF80E102
:1079D0008093C6001F910895E0910401F091050184
:1079E00009951F9108950E94763C803241F0809164
:1079F00003018F5F80930301853081F008958091AA
:107A0000C00085FFFCCF84E18093C6008091C00058
:107A100085FFFCCF80E18093C6000895E0910401CA
:107A2000F09105010995089548EC50E08823A1F0F4
:107A30002D9A28EE33E0FA013197F1F721503040CA
:107A4000D1F72D9828EE33E0FA013197F1F7215064
:107A50003040D1F7815061F708953F924F925F9285
:107A60006F927F928F929F92AF92BF92CF92DF924E
:107A7000EF92FF920F931F93CF93DF93000082E06A
:107A80008093C00080E18093C4001092C50088E11B
:107A90008093C10086E08093C2005098589A259A3E
:107AA00081E00E94143D24E1F22E9EE1E92E85E959
:107AB000D82E0FE0C02E10E1B12EAA24A394B1E479
:107AC0009B2EA6E58A2EF2E57F2EE0E26E2E79E46B
:107AD000572E63E5462E50E5352E0E94763C8033C6
:107AE000B1F18133B9F1803409F46FC0813409F404
:107AF00076C0823409F485C0853409F488C08035A5
:107B000031F1823521F1813511F1853509F485C0D6
:107B1000863509F48DC0843609F496C0843709F49B
:107B200003C1853709F472C1863709F466C08091B4
:107B300003018F5F80930301853079F6E0910401A2
:107B4000F091050109950E94763C803351F60E9420
:107B5000F33CC3CF0E94763C803249F78091C0004D
:107B600085FFFCCFF092C6008091C00085FFFCCF5E
:107B70009092C6008091C00085FFFCCF8092C60025
:107B80008091C00085FFFCCF7092C6008091C0003C
:107B900085FFFCCF6092C6008091C00085FFFCCFBE
:107BA0005092C6008091C00085FFFCCF4092C60075
:107BB0008091C00085FFFCCF3092C6008091C0004C
:107BC00085FFFCCFB092C60088CF0E94763C8638F5
:107BD00008F4BDCF0E94763C0E94F33C7ECF0E9409
:107BE000763C803809F49CC0813809F40BC1823896
:107BF00009F430C1883909F48FC080E00E94C73C85
:107C00006CCF84E10E94BD3C0E94F33C66CF85E0CE
:107C10000E94BD3C0E94F33C60CF0E94763C809362
:107C200006010E94763C809307010E94F33C55CFE9
:107C30000E94763C803309F411C183E00E94BD3C70
:107C400080E00E94C73C49CF0E94763C80930902A5
:107C50000E94763C8093080280910C028E7F809374
:107C60000C020E94763C853409F409C18091080217
:107C700090910902892B89F000E010E00E94763C87
:107C8000F801E85FFE4F80830F5F1F4F809108026D
:107C9000909109020817190788F30E94763C8032F8
:107CA00009F045CF80910C0280FFF5C0609106017C
:107CB00070910701660F771F7093070160930601AB
:107CC000A0910802B09109021097C9F0E8E0F1E034
:107CD0009B01AD014E0F5F1FF999FECF32BD21BD53
:107CE000819180BDFA9AF99A2F5F3F4FE417F5070B
:107CF00099F76A0F7B1F70930701609306018091CB
:107D0000C00085FFFCCFF092C6008091C00085FFC7
:107D1000FCCFB092C600E1CE83E00E94C73CDDCE2E
:107D200082E00E94C73CD9CE0E94763C8093090233
:107D30000E94763C80930802809106019091070191
:107D4000880F991F90930701809306010E94763C4B
:107D5000853409F49AC080910C028E7F80930C02C6
:107D60000E94763C803209F0B8CE8091C00085FF39
:107D7000FCCFF092C600A0910802B09109021097C2
:107D8000C1F180910C02082F0170182F1695117007
:107D9000E0910601F0910701AF014F5F5F4FBA011B
:107DA00020E030E00023B1F4112339F49491809164
:107DB000C00085FFFCCF9093C6002F5F3F4FCB01E3
:107DC0000196FA012A173B0780F4BC014F5F5F4F11
:107DD000002351F3F999FECFF2BDE1BDF89A90B5B9
:107DE0008091C00085FFFCCFE6CF709307016093C0
:107DF00006018091C00085FDE5CE8091C00085FF21
:107E0000F8CFE0CE81E00E94C73C67CE0E94763C6E
:107E1000803209F08CCE8091C00085FFFCCFF092BB
:107E2000C6008091C00085FFFCCFE092C600809123
:107E3000C00085FFFCCFD092C6008091C00085FFB6
:107E4000FCCFC092C6008091C00085FFFCCFB092ED
:107E5000C60043CE80E10E94C73C3FCE0E94763CE4
:107E60000E94763C182F0E94763C112309F483C0AF
:107E7000113009F484C08FE00E94C73C2ECE80915F
:107E80000C02816080930C02F1CE80910C02816023
:107E900080930C0265CF809107018823880F880B9F
:107EA0008A2180930B028091060190910701880F2F
:107EB000991F90930701809306018091080280FF2B
:107EC00009C08091080290910902019690930902DD
:107ED00080930802F894F999FECF1127E0910601EA
:107EE000F0910701C8E0D1E0809108029091090269
:107EF000103091F40091570001700130D9F303E084
:107F000000935700E8950091570001700130D9F3B4
:107F100001E100935700E8950990199000915700EE
:107F200001700130D9F301E000935700E8951395F3
:107F3000103498F011270091570001700130D9F3E7
:107F400005E000935700E89500915700017001305B
:107F5000D9F301E100935700E8953296029709F0B2
:107F6000C7CF103011F00296E5CF11248091C000E8
:107F700085FFC5CEC8CE8EE10E94C73CAECD85E957
:0A7F80000E94C73CAACDF894FFCF81
:027F8A00800075
:040000030000780081
:00000001FF
