:100000000C94F1020C9419030C9419030C94190329
:100010000C9419030C9419030C9419030C941903F0
:100020000C9419030C9419030C9419030C941903E0
:100030000C9419030C9419030C9419030C941903D0
:100040000C94BD110C9419030C94BC100C949610D4
:100050000C9419030C9419030C9419030C941903B0
:100060000C9407120C94190305A84CCDB2D44EB9C8
:100070003836A9020C50B9918688083CA6AAAA2A4B
:10008000BE000000803F00000000240027002A007E
:10009000010204081020408001020408102001021F
:1000A0000408102000000000250028002B00040494
:1000B0000404040404040202020202020303030310
:1000C000030300000000003E5B4F5B3E3E6B4F6B46
:1000D0003E1C3E7C3E1C183C7E3C181C577D571C29
:1000E0001C5E7F5E1C00183C1800FFE7C3E7FF00A2
:1000F00018241800FFE7DBE7FF30483A060E2629F0
:10010000792926407F050507407F05253F5A3CE7B2
:100110003C5A7F3E1C1C08081C1C3E7F14227F2278
:10012000145F5F005F5F06097F017F006689956A43
:10013000606060606094A2FFA29408047E040810CE
:10014000207E201008082A1C08081C2A08081E10F7
:100150001010100C1E0C1E0C30383E3830060E3EAF
:100160000E06000000000000005F0000000700070E
:1001700000147F147F14242A7F2A12231308646238
:1001800036495620500008070300001C2241000099
:1001900041221C002A1C7F1C2A08083E08080080F7
:1001A000703000080808080800006060002010088F
:1001B00004023E5149453E00427F40007249494990
:1001C000462141494D331814127F102745454539C2
:1001D0003C4A4949314121110907364949493646C6
:1001E0004949291E000014000000403400000008A6
:1001F0001422411414141414004122140802015949
:1002000009063E415D594E7C1211127C7F494949D5
:10021000363E414141227F4141413E7F494949416A
:100220007F090909013E414151737F0808087F0099
:10023000417F41002040413F017F081422417F401F
:100240004040407F021C027F7F0408107F3E4141F6
:10025000413E7F090909063E4151215E7F09192966
:1002600046264949493203017F01033F4040403F50
:100270001F2040201F3F4038403F63140814630391
:10028000047804036159494D43007F414141020410
:10029000081020004141417F040201020440404017
:1002A0004040000307080020545478407F2844440D
:1002B000383844444428384444287F385454541827
:1002C00000087E090218A4A49C787F080404780022
:1002D000447D40002040403D007F10284400004104
:1002E0007F40007C047804787C0804047838444417
:1002F0004438FC1824241818242418FC7C0804040E
:1003000008485454542404043F44243C4040207C76
:100310001C2040201C3C4030403C44281028444CC9
:100320009090907C4464544C440008364100000096
:10033000770000004136080002010204023C262337
:10034000263C1EA1A161123A4040207A38545455EF
:1003500059215555794122545478422155547840B9
:1003600020545579400C1E52721239555555593941
:100370005454545939555454580000457C41000296
:10038000457D420001457C407D1211127DF02825FB
:1003900028F07C545545002054547C547C0A097F35
:1003A0004932494949323A4444443A324A48483049
:1003B0003A4141217A3A42402078009DA0A07D3DFB
:1003C0004242423D3D4040403D3C24FF2424487E83
:1003D0004943662B2FFC2F2BFF0929F620C0887E6E
:1003E000090320545479410000447D413048484A73
:1003F00032384040227A007A0A0A727D0D19317D26
:100400002629292F28262929292630484D402038F9
:100410000808080808080808382F10C8ACBA2F10B8
:100420002834FA00007B000008142A142222142A1F
:1004300014085500550055AA55AA55AAFF55FF5551
:10044000FF000000FF00101010FF00141414FF0044
:100450001010FF00FF1010F010F0141414FC001422
:1004600014F700FF0000FF00FF1414F404FC141440
:1004700017101F10101F101F1414141F001010103D
:10048000F0000000001F101010101F10101010F0CE
:1004900010000000FF101010101010101010FF10AE
:1004A000000000FF140000FF00FF00001F101700F5
:1004B00000FC04F414141710171414F404F40000CE
:1004C000FF00F714141414141414F700F714141480
:1004D000171410101F101F141414F4141010F0101F
:1004E000F000001F101F0000001F14000000FC148B
:1004F0000000F010F01010FF10FF141414FF14107F
:1005000010101F00000000F010FFFFFFFFFFF0F0D1
:10051000F0F0F0FFFFFF0000000000FFFF0F0F0FE3
:100520000F0F3844443844FC4A4A4A347E020206DB
:1005300006027E027E0263554941633844443C040E
:10054000407E201E2006027E020299A5E7A5991C86
:100550002A492A1C4C7201724C304A4D4D303048A9
:10056000784830BC625A463D3E494949007E010107
:10057000017E2A2A2A2A2A44445F444440514A449C
:100580004040444A51400000FF0103E080FF00006A
:1005900008086B6B083612362436060F090F060062
:1005A0000018180000001010003040FF0101001F6B
:1005B00001011E00191D1712003C3C3C3C000000CC
:1005C00000000000000023002600290000000008B1
:1005D000000201000003040700000000000000000A
:1005E000A11C11241FBECFEFD8E0DEBFCDBF15E0A8
:1005F000A0E0B1E0E2E7F2E402C005900D92A03580
:10060000B107D9F727E0A0E5B5E001C01D92A73CEE
:10061000B207E1F712E0C1EFD2E004C02197FE017A
:100620000E945A1DC03FD107C9F70E9495150C942E
:1006300037210C940000FC0177FD9AC080859185DC
:10064000681779070CF094C057FD92C08285938596
:10065000481759070CF08CC08589823009F07CC09E
:1006600084819581DC01A61BB70BBD016150710926
:1006700086819781FC01E41BF50BAF0141505109C4
:100680000AC0813041F484819581841B950BAB01B4
:10069000BC01615071092130310529F008F1223087
:1006A0003105E1F10895FA0157FD3796A3E0F5957C
:1006B000E795AA95E1F7F695FE2FEE27F795E795D2
:1006C0006E0F7F1FFB01EE5FFE4F4770552781E0E5
:1006D00090E001C0880F4A95EAF79081892B3AC0D3
:1006E000FA0157FD379623E0F595E7952A95E1F74E
:1006F000F695FE2FEE27F795E7956E0F7F1FFB010E
:10070000EE5FFE4F4770552781E090E001C0880FF3
:100710004A95EAF78095908189231CC0FA0157FD1C
:10072000379683E0F595E7958A95E1F7F695FE2FE4
:10073000EE27F795E7956E0F7F1FFB01EE5FFE4FEB
:100740004770552781E090E001C0880F4A95EAF78D
:100750009081892780830895833009F092CF868124
:100760009781861B970BBA01AC014150510993CF79
:10077000089508952F923F924F925F926F927F92C9
:100780008F929F92AF92BF92CF92DF92EF92FF92A1
:100790000F931F93CF93DF93CDB7DEB76B970FB651
:1007A000F894DEBF0FBECDBF4C015A8349831F832F
:1007B0000E83FD82EC82CB82DC0158964D915C91D8
:1007C00059974115510509F0A5C018968D919C9136
:1007D0001997681779070CF05AC11A968D919C9158
:1007E0001B97E981FA81E817F9070CF050C1D12C69
:1007F000CB013B81F6E03F9F800D911D112418161F
:1008000019060CF044C1C60133E0880F991F3A95D0
:10081000E1F749815A81840F951F181619060CF0CB
:1008200036C157968C91811103C0203B08F02F5F91
:1008300055E0259F900111247E876D875B01212C57
:10084000C901861B970B99878887A981BA81189659
:10085000BB87AA87B5E02B1641F0E885F985EA0D3C
:10086000FB1DEE53FF4F349001C0312C69807A801C
:10087000230130FE12C0D401ED91FC91BB81B13057
:1008800031F40480F581E02D2E813F8118C006846B
:10089000F785E02DEE80FF801CC0EC81FD812E816C
:1008A0003F81E217F307E1F0D401ED91FC91BB81A8
:1008B000B13051F40480F581E02D2C813D81A301FC
:1008C000B501C40109950CC00684F785E02DEC80C4
:1008D000FD8086019601A2016D857E85C401099582
:1008E0003694EFEF6E1A7E0A4C0C5D1C2A853B8510
:1008F0006216730609F0BDCF23943FEFA31AB30A23
:100900004D855E854C0D5D1D5E874D8756E0251239
:10091000A1CFBDC0FA01349634913297859194915C
:10092000231BA7E02A9F800D911D1124FA01259118
:1009300034913A8B298BFC0125903490FC0132963E
:1009400034913887319644914C873196E491FC017B
:100950003596A491319684915B81523050F06A2E85
:100960000A2E000C7708E82F082E000CFF0BFB87DF
:10097000EA87FB81CF2ED12C6C9C90016D9C300DB1
:100980007C9C300D1124A901460F571F588B4F87AF
:100990001C82A12CEA2FAA0FFF0B3B016E0E7F1EBB
:1009A0005885650F711DDB01AE0FBF1FBF8BAE8B6E
:1009B000E981FA81E80FF11D87FDFA95F98FE88F3B
:1009C0009C85A91608F063C08A2D90E04A855B8556
:1009D000480F591F4C9D90014D9D300D5C9D300D71
:1009E0001124A981BA81A20FB31FBE87AD877B8E68
:1009F0006A8E4F845888BC81B619BB8BE88DF98DFF
:100A0000E80FF91FFD8BEC8B8B89FA8D8F0F2A8DE8
:100A10003B8D4E895F892417350799F1877041F422
:100A2000C1010196E989FA89E20DF31DB4901C0118
:100A3000B7FE1EC0D401ED91FC91BB81B13061F4D1
:100A40000480F581E02D2E813F814C895D896A8D7E
:100A50007B8DC40109950CC00684F785E02DEE80DE
:100A6000FF80860196014D855E85B201C40109951E
:100A7000BB0CEA8DFB8D3196FB8FEA8F4C0C5D1C15
:100A8000C3CF5C818885580F5C83A39499CF6B9604
:100A90000FB6F894DEBF0FBECDBFDF91CF911F918F
:100AA0000F91FF90EF90DF90CF90BF90AF909F900D
:100AB0008F907F906F905F904F903F902F90089510
:100AC000AF92BF92CF92EF92FF920F931F93CF936B
:100AD000DF93EC01262F888D998D009709F042C095
:100AE0006A3069F42C898E859F8538E0239F800DBC
:100AF000911D11249F878E871D861C86ACC06D308A
:100B000009F4A9C08E898823C1F03C898C859D8514
:100B100046E0349F800D911D112448855985841726
:100B200095075CF01D861C868E859F85E8E03E9FBC
:100B3000800D911D11249F878E87EA88FB88088984
:100B400019894E855F856C857D85CC88CE010E9494
:100B5000BA032C898C859D85F6E02F9F800D911D11
:100B6000112441C06A3079F41D861C862C89FC0151
:100B70003696E4918E859F852E9F800D911D1124C0
:100B80009F878E8768C06D3009F465C0AC014C5FEB
:100B90005F4FFA013491631708F45DC03196E49118
:100BA000E61708F458C0FA014491362F341BFC01B3
:100BB0003296A590B490F7E03F9FA00CB11C112491
:100BC000F501329634913196E491332311F0E1111D
:100BD0000DC0F5013496E4912C898C859D85E29FAA
:100BE000800D911D11249D878C8735C0F5013596A8
:100BF00044915E89552311F16C89E32FF0E0E40FF5
:100C0000F11D47FDFA956E9FD0016F9FB00D112425
:100C10004C855D854A0F5B1FE885F9854E175F0798
:100C20006CF01D861C86FC013696E4918E859F85AE
:100C30006E9F800D911D11249F878E87EA88FB8807
:100C4000088919894E855F856C857D85CC88CE01A4
:100C50000E94BA03BECF81E090E0DF91CF911F9157
:100C60000F91FF90EF90CF90BF90AF900895EF92CB
:100C7000FF920F931F93DC01ED91FC9111971A964F
:100C80000D911C911B9718962D913C9119970684F4
:100C9000F785E02D7B0140E050E060E070E00995D1
:100CA0001F910F91FF90EF9008956F927F928F9216
:100CB0009F92AF92BF92CF92DF92EF92FF920F93EB
:100CC0001F93CF93DF936C015A014801EB013B0165
:100CD000620E731EC615D70574F4D601ED91FC9112
:100CE0000084F185E02D87019401A501BE01C601B4
:100CF00009952196EFCFDF91CF911F910F91FF9032
:100D0000EF90DF90CF90BF90AF909F908F907F90AB
:100D10006F900895EF92FF920F931F93DC01ED9176
:100D2000FC91260F371F215031090680F781E02DF5
:100D300078018A0109951F910F91FF90EF90089516
:100D4000EF92FF920F931F937801DC01ED91FC91DC
:100D5000240F351F8901015011090680F781E02D0C
:100D60009B0109951F910F91FF90EF9008956F924D
:100D70007F928F929F92AF92BF92CF92DF92EF922B
:100D8000FF920F931F93CF93DF93EC014B015A0116
:100D900069013801E881F9810284F385E02D87013A
:100DA0000995E881F981A501460D571D415051096A
:100DB0000284F385E02D9601B401CE010995E88106
:100DC000F9810084F185E02D9301A501B401CE01E4
:100DD0000995E881F981C80CD91CB60161507109E7
:100DE0000084F185E02D9301A501CE010995DF91E5
:100DF000CF911F910F91FF90EF90DF90CF90BF9018
:100E0000AF909F908F907F906F9008952F923F9218
:100E10004F925F926F927F928F929F92AF92BF920A
:100E2000CF92DF92EF92FF920F931F93CF93DF93B6
:100E300000D01F92CDB7DEB74C017B836A836A0175
:100E4000590117019801241B350B37FF03C0319559
:100E500021953109C5014A815B81841B950B97FF60
:100E600003C091958195910951E0598382179307A9
:100E700014F019820BC09A2D8B2D5801092F182FB1
:100E80009A818B81DB82CA82C92ED82E8A819B816E
:100E9000A816B9065CF49C2D8D2D6801092F182F1A
:100EA0009A818B81BB82AA82A92EB82E2501AA81A4
:100EB000BB814A1A5B0A38016C187D0877FE03C0B3
:100EC000719461947108720157FE03C0BFEFEB1A71
:100ED000FB0AF594E794C016D1061CF00FEF1FEF44
:100EE0001FC001E010E01CC0D401ED91FC91B9815C
:100EF0000480F581E02D9101BB23C1F04A815B8123
:100F0000B601C4010995E618F708F7FE04C0C00E43
:100F1000D11EE40CF51CEA81FB813196FB83EA8348
:100F20004A815B81A416B506FCF604C0A6016A815D
:100F30007B81E7CF0F900F900F90DF91CF911F91A2
:100F40000F91FF90EF90DF90CF90BF90AF909F9068
:100F50008F907F906F905F904F903F902F9008956B
:100F60001F93CF93DF93EC01162F8C8D8F3F09F1E8
:100F7000EEA1FFA190818CA5892B8083E8A5F9A51E
:100F800090818DA5809589238083EEA1FFA190811A
:100F90008CA5809589238083CE010E943513EEA114
:100FA000FFA190818CA5892B8083DF91CF911F9128
:100FB00008958A8D91E09093F4068093160710921D
:100FC000F5061092170760E085EB97E00E94930DFD
:100FD000612F85EB97E00E94930DDF91CF911F91D8
:100FE0000C946D13CF92DF92EF92FF920F931F93A9
:100FF000CF93DF93EC0161E20E94B00760E0CE0185
:101000000E94B0076FE7CE010E94B00762E2CE01F6
:101010000E94B00760E0CE010E94B00767E0CE01F9
:101020000E94B0078C8D8F3F31F1EEA1FFA190811E
:101030008CA5892B8083E8A5F9A590818DA5892BA6
:101040008083EEA1FFA190818CA580958923808368
:1010500002E011E0F80161918F01CE010E94351389
:10106000F5E002301F07B1F7EEA1FFA190818CA53A
:10107000892B808332C0D090B8008CE08093B80078
:1010800002E011E0CC24C3948A8DC092F4068093D0
:1010900016071092F5061092170760E485EB97E0AB
:1010A0000E94930DE12CF12CF801EE0DFF1D6081E3
:1010B00085EB97E00E94930D8FEFE81AF80AE0E1C4
:1010C000EE16F10489F70E946D13005F1F4FF5E0E3
:1010D00002301F07C9F6D092B800DF91CF911F915F
:1010E0000F91FF90EF90DF90CF900895CF93DF9313
:1010F000C2E2D1E088E197E00E94170C892B09F445
:1011000070C080910001909101018232914024F0E1
:10111000D0930101C093000188E197E00E94F50B94
:101120009EE3980F923030F3982F8A3099F46FEA4B
:101130008091C1079091C2070E94B007E091000121
:10114000F0910101E95AFA4F10821092560510925F
:101150005505D0CF20910001309101018F39C1F0A8
:10116000803BC1F08D3BC1F0823BC1F0843AC1F0BD
:10117000863BC1F08C3BC1F08438C1F08639C1F0A8
:101180008C39C1F08B3AC1F08B3BB9F49FEA15C0A2
:1011900090EE13C098EF11C09BEA0FC09DEF0DC0F9
:1011A00094E80BC094E909C091E807C09EE805C027
:1011B00099E903C09AE901C09EEAF901E95AFA4F98
:1011C0009083C9010196823221E092072CF490931A
:1011D0000101809300018ECFD0930101C0930001E3
:1011E00089CFDF91CF9108952F923F924F925F92D6
:1011F0006F927F928F929F92AF92BF92CF92DF9227
:10120000EF92FF920F931F93CF93DF9300D000D004
:10121000CDB7DEB79C838B836B015A01890181E0D6
:1012200090E04C01821A930A88279927821B930B1E
:101230009C01220F331F3A832983AB81BC81ED913E
:10124000FC911197A501400F511F0480F581E02DFD
:1012500021E030E0CD010995AB81BC81ED91FC919D
:101260001197A501401B510B0480F581E02D21E071
:1012700030E0B601CD010995AB81BC81ED91FC91C7
:101280001197B601600F711F0480F581E02D21E0F8
:1012900030E0A501CD010995AB81BC81ED91FC91B8
:1012A0001197B601601B710B0480F581E02D21E0E0
:1012B00030E0A501CD010995E12CF12CE016F106F5
:1012C0000CF09DC097FC09C001501109E981FA8119
:1012D0003296FA83E9838E0E9F1EFFEFEF1AFF0A04
:1012E000C701880F991F0196880E991E27014C0C83
:1012F0005D1CAB81BC81ED91FC9111970480F5815F
:10130000E02D21E030E03501600E711EA301B20135
:10131000CD01099516012E183F08AB81BC81ED91D6
:10132000FC9111970480F581E02D21E030E0A301CC
:10133000B101CD010995AB81BC81ED91FC91119773
:101340000480F581E02D21E030E03501601A710A5A
:10135000A301B201CD010995AB81BC81ED91FC9156
:1013600011970480F581E02D21E030E0A301B10167
:10137000CD01099537016A0C7B1CAB81BC81ED91D5
:10138000FC9111970480F581E02D21E030E0A3016C
:101390002601400E511EB201CD010995AB81BC81E1
:1013A000ED91FC9111970480F581E02D21E030E072
:1013B000A3011601201A310AB101CD0109953501A9
:1013C0006E187F08AB81BC81ED91FC911197048070
:1013D000F581E02D21E030E0A301B201CD010995B6
:1013E000AB81BC81ED91FC9111970480F581E02DDA
:1013F00021E030E0A301B101CD0109955FCF0F904D
:101400000F900F900F90DF91CF911F910F91FF9050
:10141000EF90DF90CF90BF90AF909F908F907F9094
:101420006F905F904F903F902F900895DC01ED9169
:10143000FC910480F581E02D21E030E00994EF92E9
:10144000FF920F931F93DC01ED91FC910680F781D1
:10145000E02DEE24E394F12C09951F910F91FF905C
:10146000EF900895EF92FF920F931F93DC01ED919F
:10147000FC910684F785E02DE12CF12C09951F9154
:101480000F91FF90EF900895CF92DF92EF92FF922D
:101490000F931F93CF93DF938EE480937C006AE0D9
:1014A00070E080E090E00E94831180917A00806477
:1014B00080937A0080917A00182F107486FDFACFFD
:1014C000209178008091790030E0382B032E000CB9
:1014D000440B550B60E070E381E190E00E943B1DFE
:1014E000283B6BE036070CF12A37EDE03E07E4F4C9
:1014F000B901330F880B990B0E947C1E20E030E865
:101500004BE355E40E94601D20E030E044E652E4E5
:101510000E94471F20E030E041EE53E40E94D21DBC
:101520000E944B1E162F01C019E3C12ED12CE09151
:10153000C107F091C207C285C351D0E01331C8F48E
:10154000808591854E9795878487D787C6876CE479
:10155000CF010E947A106FE68091C1079091C20777
:101560000E947A1067E78091C1079091C2070E949C
:101570007A108091C1079091C207FC014285538582
:101580004C53510960857185645071090E94160A97
:101590008091C1079091C207FC01428553854C534D
:1015A000510960857185635071090E94160AA091E6
:1015B000C107B091C207ED91FC9111971A964D9118
:1015C0005C911B974B53510918966D917C9119971B
:1015D000665071090484F585E02DEE24E394F12C26
:1015E0000BE310E026E030E0CD010995A091C107A2
:1015F000B091C207ED91FC9111971A964D915C91B3
:101600001B974C195D094150510918966D917C91B9
:101610001997655071090684F785E02D860124E04D
:1016200030E0CD0109958091C1079091C207FC017E
:101630006085718567507109AE010E94160A80911C
:10164000C1079091C207FC016085718566507109E0
:10165000AE01DF91CF911F910F91FF90EF90DF903E
:10166000CF900C94160AEF92FF920F931F93CF9393
:10167000DF93609154056A3040F460E080E090E0D0
:101680000E94CA136091540502C080E090E00E945D
:10169000CA13609153056A3040F460E08BE290E039
:1016A0000E94CA136091530502C08BE290E00E9431
:1016B000CA13609152056A3040F460E085E590E01D
:1016C0000E94CA136091520502C085E590E00E9415
:1016D000CA13E090C107F090C207F701C285D38515
:1016E00022976091790670E080E090E00E947C1E75
:1016F00020E030E040E151E40E94D21D20E030E0E3
:1017000040E752E40E94471F0E94441E8E019B0145
:10171000AE0160E070E0C7010E941F0ADF91CF9127
:101720001F910F91FF90EF900895809179068F5F40
:10173000809379068A3068F16AE00E940D1D20913D
:101740005205820F80935205909379068C3350F0A6
:101750006CE30E940D1D20915305820F8093530569
:1017600090935205809153058C3350F06CE30E94A6
:101770000D1D20915405820F8093540590935305BD
:1017800080915405883128F068E10E940D1D9093E6
:1017900054050895CF92DF92EF92FF920F931F931B
:1017A000CF93DF936C017A018B01C0E0D0E0CE15BE
:1017B000DF0589F0D8016D918D01D601ED91FC9185
:1017C0000190F081E02DC6010995892B11F47E016D
:1017D00002C02196ECCFC701DF91CF911F910F91ED
:1017E000FF90EF90DF90CF900895FC01918D828D56
:1017F000981761F0828DDF01A80FB11D5D968C9165
:10180000928D9F5F9F73928F90E008958FEF9FEF6F
:101810000895FC01918D828D981731F0828DE80F2B
:10182000F11D858D90E008958FEF9FEF0895FC01E5
:10183000918D228D892F90E0805C9F4F821B9109B2
:101840008F739927089588E197E00E94170C21E093
:10185000892B09F420E0822F0895FC01848DDF019B
:10186000A80FB11DA35ABF4F2C91848D90E0019613
:101870008F739927848FA689B7892C93A089B18902
:101880008C9180648C93938D848D981306C002880C
:10189000F389E02D80818F7D80830895EF92FF9200
:1018A0000F931F93CF93DF93EC0181E0888F9B8D83
:1018B0008C8D981305C0E889F989808185FD24C045
:1018C000F62E0B8D10E00F5F1F4F0F731127E02EC8
:1018D0008C8DE8120CC00FB607FCFACFE889F989A5
:1018E000808185FFF5CFCE010E942D0CF1CF8B8D2D
:1018F000FE01E80FF11DE35AFF4FF0820B8FEA89DA
:10190000FB898081806207C0EE89FF896083E88956
:10191000F98980818064808381E090E0DF91CF91BC
:101920001F910F91FF90EF900895CF93DF93EC01FB
:10193000888D8823C9F0EA89FB89808185FD05C0EF
:10194000A889B9898C9186FD0FC00FB607FCF5CF29
:10195000808185FFF2CFA889B9898C9185FFEDCF71
:10196000CE010E942D0CE7CFDF91CF9108950E9408
:10197000230C81110C9476080895833081F028F4AB
:10198000813099F08230A1F008958730A9F0883035
:10199000B9F08430D1F4809180008F7D03C08091B4
:1019A00080008F7780938000089584B58F7702C080
:1019B00084B58F7D84BD08958091B0008F7703C07A
:1019C0008091B0008F7D8093B00008953FB7F89468
:1019D0008091C9069091CA06A091CB06B091CC0621
:1019E00026B5A89B05C02F3F19F00196A11DB11D7A
:1019F0003FBFBA2FA92F982F8827820F911DA11DB5
:101A0000B11DBC01CD0143E0660F771F881F991FF0
:101A10004A95D1F7089585ED8093BC008091BC0074
:101A200084FDFCCF1092F306089540919F06262F67
:101A300030E0240F311D21323105DCF42091F30612
:101A40002430C9F4FC0180E090E0861758F430910E
:101A50009F062191DC01A358B94FA30FB11D2C9310
:101A60000196F3CF80919F06680F60939F0680E0F8
:101A7000089581E0089582E00895089581E090E05E
:101A80003091510520915005321710F480E090E01C
:101A900091958195910908958091510590915005F6
:101AA000891730F48F5F8093510580E090E00895AE
:101AB0008FEF9FEF08958091500590E020915105A0
:101AC000821B91090895CF92DF92EF92FF920F93BC
:101AD0001F93CF93DF937C01262F972F8A0180914C
:101AE000F406882391F0C62FD72F6E01C40ED51EA1
:101AF000CC15DD0571F06991D701ED91FC91019054
:101B0000F081E02DC7010995F3CF642F822F0E9449
:101B1000150DC801DF91CF911F910F91FF90EF90AC
:101B2000DF90CF900895CF93DF931F92CDB7DEB7AC
:101B300069832091F4062223D1F0209117072032E7
:101B400040F021E030E0FC013383228380E090E02C
:101B500015C08091F506E82FF0E0EA50F94F998121
:101B600090838F5F8093F5068093170705C061E02F
:101B7000CE0101960E94150D81E090E00F90DF915B
:101B8000CF9108950F931F93CF93DF93DC01559668
:101B90008C915597823071F0833009F1813009F0D2
:101BA0008CC01496ED91FC911597E41BF50BE21B8C
:101BB000F30B20C01496ED91FC911597CF01861B75
:101BC000970BBC01615071091696ED91FC91179726
:101BD000CF01841B950BAC01421B530B6EC01696B4
:101BE000ED91FC911797CF01861B970BBC016150BB
:101BF0007109FA0177FD1BC116968D919C9117977B
:101C0000681779070CF013C1F7FF04C02E0F3F1FB0
:101C1000E0E0F0E014968D919C911597AF01420F92
:101C2000531F841795071CF49C012E1B3F0B1216A3
:101C300013060CF0FCC0CB0177FD079643E09595A9
:101C400087954A95E1F79695982F882797958795D8
:101C5000E80FF91FEE5FFE4F6770772781E090E095
:101C600001C0880F6A95EAF7482F0130110541F04D
:101C700088F00230110509F0DAC02E0F3F1F15C0A1
:101C80002E0F3F1FE217F30709F4D1C08081842B88
:101C90008193F8CF80952E0F3F1FE217F30709F4C9
:101CA000C6C0908198239193F8CFE217F30709F407
:101CB000BEC0808184278193F8CF77FDB8C0149689
:101CC0008D919C911597681779070CF0B0C057FF5C
:101CD00004C0240F351F40E050E016968D919C9172
:101CE0001797FA01E20FF31F8E179F071CF49C0150
:101CF000241B350B121613060CF099C0A22F842F4B
:101D000086958695869590E8899F600D711D1124B2
:101D1000FB01EE5FFE4F4770A9F198E0941B492F3D
:101D200050E0EA01C05FDA4F8881291790F4421B26
:101D300051092FEF30E002C0359527954A95E2F71B
:101D400082230130110541F068F00230110589F05D
:101D50006EC00130110519F42081822B0CC00130B6
:101D6000110520F480952081822305C002301105E1
:101D700031F4208182278083A91708F458C0A91B59
:101D8000E058FF4FA83048F10230110559F4EF0137
:101D90008A2F988190959883C058DF4F885088305B
:101DA000C0F730C081E00130110509F080E0819575
:101DB000EF019A2F8883C058DF4F98509830D0F7A2
:101DC00088EF8A0F86958695869590E8899FE00D25
:101DD000F11D1124E058FF4FA770AA2341F1B0E094
:101DE000A85FBA4F8C910130110529F038F002300C
:101DF0001105D1F01CC09081892B18C0809590816D
:101E0000892314C088EF8A0F86958695869590E879
:101E1000899FE00DF11D1124E058FF4FA77039F0A4
:101E2000B0E0A85FBA4F8C91908189278083DF91C1
:101E3000CF911F910F9108950F931F93CF93DF932D
:101E4000DC01FB0155968C915597823081F08330EF
:101E500019F1813051F514968D919C911597BC0123
:101E6000641B750BAB0141505109BF0181C0149631
:101E70006D917C911597CB018E1B9F0BFC011696E3
:101E80008D919C911797BC01641B750BAB01415060
:101E90005109E21BF30B09C016966D917C911797BF
:101EA0006E1B7F0B621B730B63C057FD1CC1169624
:101EB0008D919C911797481759070CF014C1F7FFA3
:101EC00004C02E0F3F1FE0E0F0E014968D919C912E
:101ED0001597BF01620F731F861797071CF49C01AB
:101EE0002E1B3F0B121613060CF0FDC0CA0157FD46
:101EF000079663E0959587956A95E1F79695982FF3
:101F0000882797958795E80FF91FEE5FFE4F47707A
:101F1000552781E090E001C0880F4A95EAF7482FE5
:101F20000130110541F088F00230110509F0DBC0E5
:101F30002E0F3F1F15C02E0F3F1FE217F30709F4A6
:101F4000D2C08081842B8193F8CF80952E0F3F1FC4
:101F5000E217F30709F4C7C0908198239193F8CF53
:101F6000E217F30709F4BFC0808184278193F8CF7B
:101F700057FDB9C014968D919C9115974817590734
:101F80000CF0B1C077FF04C0260F371F60E070E08F
:101F900016968D919C911797FB01E20FF31F8E17F8
:101FA0009F071CF49C01261B370B121613060CF01E
:101FB0009AC0A22F862F86958695869590E8899F50
:101FC000400D511D1124FA01EE5FFE4F6770A9F11B
:101FD00098E0961B492F50E0EA01C05FDA4F8881F4
:101FE000291790F4421B51092FEF30E002C03595BC
:101FF00027954A95E2F782230130110541F068F0F8
:102000000230110589F06FC00130110519F42081EB
:10201000822B0CC00130110520F480952081822391
:1020200005C00230110531F4208182278083A91771
:1020300008F459C0A91BE058FF4FA83048F10230FE
:10204000110559F4EF018A2F988190959883C05813
:10205000DF4F88508830C0F731C081E00130110572
:1020600009F080E08195EF019A2F8883C058DF4FF7
:1020700098509830D0F788EF8A0F86958695869588
:1020800060E8869FE00DF11D1124E058FF4FA77016
:10209000AA2349F1B0E0A85FBA4F8C910130110535
:1020A00029F038F002301105D9F01DC09081892B3C
:1020B00003C0809590818923808315C088EF8A0FA3
:1020C00086958695869570E8879FE00DF11D112411
:1020D000E058FF4FA77039F0B0E0A85FBA4F8C917D
:1020E00090818927E9CFDF91CF911F910F910895BA
:1020F0000E943221DC01ED91FC910190F081E02DF4
:1021000009946115710579F0FB0101900020E9F750
:102110003197AF01461B570BDC01ED91FC9102801A
:10212000F381E02D099480E090E008951F920F92D2
:102130000FB60F9211242F933F934F935F936F939A
:102140007F938F939F93AF93BF93EF93FF9388E118
:1021500097E00E942D0CFF91EF91BF91AF919F915D
:102160008F917F916F915F914F913F912F910F9040
:102170000FBE0F901F9018951F920F920FB60F92DF
:1021800011242F938F939F93EF93FF93E091280750
:10219000F09129078081E0912E07F0912F0782FDB1
:1021A00012C09081809131078F5F8F732091320729
:1021B000821751F0E0913107F0E0E85EF84F958F1B
:1021C0008093310701C08081FF91EF919F918F91A2
:1021D0002F910F900FBE0F901F901895CF93DF9304
:1021E000282F30E0F901E453FA4F8491F901E057C8
:1021F000FF4FD491F901E255FF4FC491CC2391F0E8
:1022000081110E94BD0CEC2FF0E0EE0FFF1FEE538A
:10221000FA4FA591B491EC91ED2381E090E021F487
:1022200080E002C080E090E0DF91CF9108951F939D
:10223000CF93DF93282F30E0F901E453FA4F8491D4
:10224000F901E057FF4FD491F901E255FF4FC491D6
:10225000CC23C9F0162F81110E94BD0CEC2FF0E0A9
:10226000EE0FFF1FEC55FF4FA591B4918FB7F89477
:10227000111105C09C91ED2FE095E92302C0EC916E
:10228000ED2BEC938FBFDF91CF911F910895CF93EA
:10229000DF9390E0FC01E057FF4F2491FC01E255F1
:1022A000FF4F8491882361F190E0880F991FFC0112
:1022B000EA57FF4FC591D491FC01EC55FF4FA59112
:1022C000B491611109C09FB7F89488812095822349
:1022D0008883EC912E230BC0623061F49FB7F89491
:1022E0003881822F809583238883EC912E2B2C9329
:1022F0009FBF06C08FB7F894E8812E2B28838FBF2D
:10230000DF91CF9108958F929F92AF92BF92CF921B
:10231000DF92EF92FF926B017C010E94E60C4B0171
:102320005C01C114D104E104F104F1F00E94E60C57
:10233000DC01CB0188199909AA09BB09883E9340A1
:10234000A105B10570F321E0C21AD108E108F10836
:1023500088EE880E83E0981EA11CB11CC114D10424
:10236000E104F10419F7DDCFFF90EF90DF90CF90FB
:10237000BF90AF909F908F9008951F920F920FB6CD
:102380000F9211242F933F938F939F93AF93BF93FB
:102390008091C5069091C606A091C706B091C80667
:1023A0003091C40626E0230F2D3720F40296A11D9C
:1023B000B11D05C029E8230F0396A11DB11D20936F
:1023C000C4068093C5069093C606A093C706B09333
:1023D000C8068091C9069091CA06A091CB06B0911B
:1023E000CC060196A11DB11D8093C9069093CA0623
:1023F000A093CB06B093CC06BF91AF919F918F91E4
:102400003F912F910F900FBE0F901F9018951F9224
:102410000F920FB60F9211242F933F934F935F9318
:102420006F937F938F939F93AF93BF93EF93FF939C
:102430008091B900887F803609F49CC068F58832A5
:1024400009F45BC090F4803109F454C038F4882357
:1024500009F4F6C0883009F44DC0F6C0883109F49B
:102460004CC0803209F45DC0EFC0803409F468C00C
:1024700048F4803309F455C0883309F0E5C08093EF
:10248000F106D8C0803509F44FC0883509F45DC025
:10249000883409F0D9C0D6C0883909F4C7C0A8F477
:1024A000883709F467C038F4883609F463C0803788
:1024B00009F460C0C9C0883809F4B8C0803909F48B
:1024C0005FC0803809F0C0C05BC0803B09F486C0A3
:1024D00038F4803A09F466C0883A09F47FC0B4C081
:1024E000803C09F4A7C0883C09F4A4C0883B09F4E7
:1024F0008AC0AAC08091CE0610C09091F00680914B
:10250000EF06981770F5E091F00681E08E0F80934A
:10251000F006F0E0E153F94F80818093BB0085EC39
:1025200086C08093F1068EC0E091F00681E08E0FA8
:102530008093F0068091BB00F0E0E153F94F808377
:102540009091F0068091EF066EC0E091F00681E078
:102550008E0F8093F0068091BB00F0E0E153F94FBD
:1025600080838091F20681116DC081E08093CD0659
:1025700084EA61C083E08093F3061092C306CFCF54
:102580008091C306803208F051C0E091C30681E01B
:102590008E0F8093C3068091BB00F0E0ED55F94F9C
:1025A0008083BDCF85EC8093BC001092F3068091B0
:1025B000C306803230F4E091C306F0E0ED55F94FE8
:1025C00010826091C30670E0E091A106F091A2062E
:1025D00083EA96E009951092C30636C084E08093A2
:1025E000F3061092A00610929F06E0919D06F091CE
:1025F0009E06099580919F06811105C081E0809318
:102600009F0610927D06E091A00681E08E0F8093D8
:10261000A006F0E0E358F94F80818093BB009091D1
:10262000A00680919F06981708F479CF85E88093DB
:10263000BC000AC085EC8093BC001092F30604C075
:102640001092F1060E940B0DFF91EF91BF91AF9197
:102650009F918F917F916F915F914F913F912F91BA
:102660000F900FBE0F901F901895FC0181A1882339
:1026700039F06EBD00000DB407FEFDCF8EB5089594
:1026800028E030E090E8A4A1B5A14C9183A5809505
:1026900084238C93A2A1B3A182A5492F462319F0CC
:1026A0004C91842B03C04C91809584238C93A4A1DE
:1026B000B5A14C9183A5842B8C939695215031091B
:1026C00011F7089580E094E0E2E0F1E0DF019C0181
:1026D0001D9221503040E1F7089520911707909105
:1026E0001607213208F04AC08091F3068111FCCF11
:1026F00032E03093F30631E03093F2063FEF30934F
:10270000F1061092F0062093EF06A6EFB6E04FEC2C
:1027100056E0FA013E2F341B321718F43D913193E5
:10272000F9CF1092CE062091CE06990F922B90935E
:10273000CE069091CD06913061F41092CD06909125
:10274000CE069093BB009091BC0093FDF8CF95EC22
:1027500001C095EE9093BC009091F3069230E1F3A6
:102760009091F1069F3F79F08091F106803241F01F
:102770008091F106803331F084E005C081E003C030
:1027800082E001C083E01092F506109217071092C4
:10279000F4060895EF92FF920F931F93CF93DF9368
:1027A000EC016A3058F0862F6AE00E940D1D192F47
:1027B000682FCE010E94CA13EC01612F8091C107DE
:1027C0009091C207611108C0BE01685F7F4F28E089
:1027D00030E042E250E0C6C06130D9F47E0125E02D
:1027E000E20EF11C0AE010E097014FE050E0BE015C
:1027F0000E941F0A0AE210E097014AE050E0B70188
:102800008091C1079091C2070E941F0ACE010896CD
:1028100007C1623049F57E0138E0E30EF11C28E083
:1028200030E04FE150E0B7010E94F40800E210E010
:1028300028E030E04AE050E0BE018091C10790916D
:10284000C2070E94320A9E01205F3F4F0AE210E059
:1028500047E250E0B7018091C1079091C2070E9402
:102860001F0ACE014296DCC0633081F48E01085FFE
:102870001F4F28E030E042E150E0B8010E94F40828
:1028800028E030E042E250E0B80141C06430F1F4A9
:102890007E0120E1E20EF11C0AE010E097014AE11E
:1028A00050E0BE010E941F0A0AE110E097014AE1D0
:1028B00050E0BE018091C1079091C2070E941F0A9B
:1028C0000AE210E097014AE050E0C4CF653099F584
:1028D0007E0138E0E30EF11C9E01205F3F4F0AE0CD
:1028E00010E04AE050E0B7010E941F0A0AE110E040
:1028F00097014AE050E0B7018091C1079091C2076B
:102900000E941F0A28E030E042E250E0B7018091C7
:10291000C1079091C2070E94F40800E210E028E08D
:1029200030E04AE050E0BE018091C1079091C207BB
:102930000E94320A96CF6630C1F49E01205F3F4F5D
:102940000AE010E040E250E0BE010E941F0ABE0112
:10295000685F7F4F28E030E042E250E08091C1079D
:102960009091C2070E94F4087CCF673059F57E0130
:1029700020E1E20EF11C0AE010E097014DE050E08A
:10298000BE010E941F0A0AE210E09E014AE050E0E8
:10299000B7018091C1079091C2070E941F0A9E0152
:1029A000215F3F4FBE016D5F7F4F0AE110E04AE1BA
:1029B00050E08091C1079091C2070E941F0ACE018A
:1029C00007962EC08E01085F1F4F9E012E5E3F4F5F
:1029D000790128E030E042E150E0683079F4B80154
:1029E0000E94F40828E030E042E250E0B801809113
:1029F000C1079091C2070E94F40811C0B8010E945B
:102A0000F408BE01605F7F4F0AE210E09B0142E1E3
:102A100050E08091C1079091C2070E941F0AC70130
:102A2000DF91CF911F910F91FF90EF9008954F92FA
:102A30005F926F927F928F929F92AF92BF92CF924E
:102A4000DF92EF92FF920F931F93CF93DF93CDB757
:102A5000DEB7A1970FB6F894DEBF0FBECDBF8C01D5
:102A60006B01770FEE08FF08F7FE2AC06DE20E94A7
:102A70007A105C0122273327A9012C193D094E0940
:102A80005F0919A2CE0181967C019AE0492E512C52
:102A9000612C712CCA01B901A30192010E94191D78
:102AA000605DF70162937F012115310541055105F4
:102AB00089F7BF01C8010E9481108A0D9B1D1EC0AD
:102AC000A701960119A2CE0181967C018AE0882E89
:102AD000912CA12CB12CCA01B901A50194010E942D
:102AE000191D605DF70162937F01211531054105D4
:102AF000510589F7BF01C8010E948110A1960FB648
:102B0000F894DEBF0FBECDBFDF91CF911F910F9123
:102B1000FF90EF90DF90CF90BF90AF909F908F90FD
:102B20007F906F905F904F900895789484B5826005
:102B300084BD84B5816084BD85B5826085BD85B561
:102B4000816085BD80916E00816080936E001092DF
:102B5000810080918100826080938100809181005A
:102B600081608093810080918000816080938000EB
:102B70008091B10084608093B1008091B000816049
:102B80008093B00080917A00846080937A00809175
:102B90007A00826080937A0080917A008E7F8093A1
:102BA0007A0080917A00806880937A001092C10048
:102BB00062E08EE00E94471162E08FE00E944711C0
:102BC00061E08AE00E94471161E08AE00E941711EB
:102BD000E0912807F091290792E09083E091240783
:102BE000F09125071082E0912607F091270787E6EC
:102BF000808310923007E0912C07F0912D0786E03A
:102C00008083E0912A07F0912B0780818061808387
:102C1000E0912A07F0912B07808188608083E09102
:102C20002A07F0912B07808180688083E0912A0732
:102C3000F0912B0780818F7D808380916400886074
:102C4000809364008091640080648093640080912C
:102C50006400816080936400809164008068809348
:102C60006400C091C107D091C2079B8F8DE38A8F0A
:102C70008C8D8F3F09F4A7C061E08E8D0E944711B3
:102C800061E088A10E94471188A1082E000C990BD1
:102C9000FC01E255FF4FE491F0E0EE0FFF1FEC5511
:102CA000FF4F259134913FA32EA3FC01E057FF4F26
:102CB000E491ECA78E8D082E000C990BFC01E255D7
:102CC000FF4FE491F0E0EE0FFF1FEC55FF4F259111
:102CD000349139A728A7FC01E057FF4FE491EDA7F5
:102CE00089A1811134C061E08C8D0E94471161E09F
:102CF0008D8D0E9447118D8D082E000C990BFC01C3
:102D0000E255FF4FE491F0E0EE0FFF1FEC55FF4F4F
:102D1000259134913DA32CA3FC01E057FF4FE49192
:102D2000EBA78C8D082E000C990BFC01E255FF4F90
:102D3000E491F0E0EE0FFF1FEC55FF4F2591349129
:102D40003BA32AA3FC01E057FF4FE491EAA789A126
:102D5000882309F45FC0FFB6F89480917A06811148
:102D600027C0E8EBF0E08491EAE9F0E09491E82FE5
:102D7000F0E0EE0FFF1FEA57FF4FA591B491EC91E1
:102D8000E92321F461E08AE00E94171161E08AE002
:102D90000E9447118CB580618CBD8CB580648CBD60
:102DA00061E08DE00E94471161E08BE00E944711D5
:102DB00080917A068F5F80937A06FFBE80E58CBD96
:102DC00081E08DBD27C010925105109250051092E0
:102DD000F506109217071092F30681E08093F20631
:102DE0001092CD0661E082E10E94171161E083E15B
:102DF0000E9417118091B9008E7F8093B900809155
:102E0000B9008D7F8093B90080E28093B80085E49B
:102E10008093BC008F8D87FD1BC061E00E9447112D
:102E200061E08F8D0E94171161E070E080E090E01A
:102E30000E94831160E08F8D0E9417116AE070E09C
:102E400080E090E00E94831161E08F8D0E94171155
:102E50006EEACE010E94B00765EDCE010E94B00778
:102E600060E8CE010E94B00768EACE010E94B00778
:102E70006FE3CE010E94B00763EDCE010E94B00760
:102E800060E0CE010E94B00760E4CE010E94B0076E
:102E90006DE8CE010E94B00764E1CE010E94B00748
:102EA00060E2CE010E94B00760E0CE010E94B00750
:102EB00061EACE010E94B00768ECCE010E94B00723
:102EC0006AEDCE010E94B00762E1CE010E94B00718
:102ED00061E8CE010E94B0076FECCE010E94B007FE
:102EE00069EDCE010E94B00761EFCE010E94B007EC
:102EF0006BEDCE010E94B00760E4CE010E94B007E6
:102F000064EACE010E94B00766EACE010E94B007D3
:102F10006EE2CE010E94B0076FEACE010E94B007B8
:102F2000CE010E94621381E08C8B81E090E09B8B4C
:102F30008A8B998B888B1D861C861F861E8665E56D
:102F40008091C1079091C2070E947A1061E480913C
:102F5000C1079091C2070E947A1062E58091C10773
:102F60009091C2070E947A1064E58091C107909108
:102F7000C2070E947A106DE28091C1079091C2074A
:102F80000E947A1063E58091C1079091C2070E9468
:102F90007A106DE68091C1079091C2070E947A1065
:102FA00061E68091C1079091C2070E947A1062E7A2
:102FB0008091C1079091C2070E947A1064E78091C6
:102FC000C1079091C2070E947A1067E78091C107FC
:102FD0009091C2070E947A1061E68091C10790919A
:102FE000C2070E947A1064E78091C1079091C207DE
:102FF0000E947A1063E68091C1079091C2070E94F7
:103000007A1068E68091C1079091C2070E947A10F9
:10301000809164008E7F809364000E94440A8091B6
:1030200064008160809364008091C1079091C20721
:103030000E94F20768EB7BE080E090E00E94831141
:103040008091C1079091C2070E946213E7E5F5E005
:1030500080E2819325E0EB36F207D9F787E3282E4B
:10306000312C9CE1C92ED12C6DE570E080E090E020
:103070000E9483118FE00E94EE10892B21F0809135
:103080007C068230B0F06CE271E080E090E00E945B
:103090008311809179068D5F809379068FE00E947D
:1030A000EE1020917C06892B09F436C2223008F0FC
:1030B00033C28EE00E94EE10892B09F096C16CE2BB
:1030C00071E080E090E00E948311809179068D5F2D
:1030D000809379068EE00E94EE10892B09F085C15D
:1030E00010927B0661E08AE00E9417116FEA8091DE
:1030F000C1079091C2070E94B0078091C1079091CB
:10310000C2070E9462138091C1079091C207FC011F
:103110004285538557FF02C04F5F5F4F55954795D6
:10312000FC016085718577FF02C06F5F7F4F7595E9
:10313000679525E030E00E94F4088091C1079091E6
:10314000C207FC01028513852085318537FF02C047
:103150002F5F3F4F3595279540E050E060E070E0ED
:103160000E94320A8091C1079091C207FC014285FA
:10317000538557FF02C04F5F5F4F55954795FC0140
:103180006085718577FF02C06F5F7F4F759567958A
:103190008A019B010E94320A8091C1079091C20767
:1031A0000E94F20764E670E080E090E00E948311E4
:1031B0008091C1079091C207FC014285538557FF5A
:1031C00002C04F5F5F4F55954795FC016085718543
:1031D00077FF02C06F5F7F4F759567952AE030E0FB
:1031E0000E94F4088091C1079091C207FC010285FA
:1031F00013852085318537FF02C02F5F3F4F3595FE
:10320000279540E050E060E070E00E94320A809133
:10321000C1079091C207FC014285538557FF02C048
:103220004F5F5F4F55954795FC016085718577FF2E
:1032300002C06F5F7F4F759567958A019B010E9461
:10324000320A8091C1079091C2070E94F20764E69A
:1032500070E080E090E00E9483118091C10790911E
:10326000C207FC014285538557FF02C04F5F5F4F85
:1032700055954795FC016085718577FF02C06F5FAA
:103280007F4F759567952FE030E00E94F40880919C
:10329000C1079091C207FC01028513852085318505
:1032A00037FF02C02F5F3F4F3595279540E050E034
:1032B00060E070E00E94320A8091C1079091C207DD
:1032C000FC014285538557FF02C04F5F5F4F559504
:1032D0004795FC016085718577FF02C06F5F7F4F66
:1032E000759567958A019B010E94320A8091C107FA
:1032F0009091C2070E94F20764E670E080E090E0DF
:103300000E9483118091C1079091C207FC01428500
:10331000538557FF02C04F5F5F4F55954795FC019E
:103320006085718577FF02C06F5F7F4F75956795E8
:1033300024E130E00E94F4088091C1079091C20717
:10334000FC01028513852085318537FF02C02F5F80
:103350003F4F3595279540E050E060E070E00E94D7
:10336000320A8091C1079091C207FC0142855385C2
:1033700057FF02C04F5F5F4F55954795FC01608531
:10338000718577FF02C06F5F7F4F759567958A01E2
:103390009B010E94320A8091C1079091C2070E944E
:1033A000F20768EC70E080E090E00E948311809169
:1033B00079068B5F809379066EEA8091C1079091C0
:1033C000C2070E94B00710926B0584E190E09093D1
:1033D0000101809300016EE788E197E00E947A1076
:1033E0006AE088E197E00E947A1020910001309114
:1033F0000101253131050CF45DC080915505909196
:103400005605892BB1F580916B05833241F5F0E2C9
:10341000F0936B0580916D05805390916C059053EE
:103420004AE0949F800D112480935405809170058B
:10343000805390916F059053EAE09E9F800D112478
:10344000809353058091730580539091720590533A
:10345000FAE09F9F800D1124809352050AC08532A7
:1034600041F480916C0580937B0630935605209340
:103470005505C0915505D09156052C173D07D4F040
:103480008091C1079091C2070E9462138091C10789
:103490009091C207FC011586148617861686BE0118
:1034A000695A7A4F0E9481108091C1079091C2079A
:1034B0000E94F207C0915505D091560580910001F8
:1034C00090910101C817D90779F46EEA8091C1077C
:1034D0009091C2070E94B00710926B0584E190E0C2
:1034E000909301018093000180917B06882331F045
:1034F00080917906811102C060E001C061E08AE03C
:103500000E9417112196D0935605C09355050E942D
:10351000950B0E94B70CA8CD223030F410927B0698
:1035200061E08AE00E9417116FEA8091C1079091D3
:10353000C2070E94B007809164008E7F8093640070
:1035400002E3E02EF12C8091C1079091C2070E9406
:1035500062130E94950B80917C06813009F0A5C111
:103560002EE130E04FE150E06CE370E08091C10764
:103570009091C2070E94F408C0915405D0E0CD306C
:10358000D1050CF02C976091520570E080E090E03E
:103590000E947A1E20E030E040E751E40E94601D66
:1035A0002BED3FE049E450E40E94471F20E030E06B
:1035B00040EF51E40E94D21D2B013C010E94B41F38
:1035C0004B015C01C301B2010E94CD1D2B013C01E6
:1035D00020E030E040EF51E4C501B4010E94471FF4
:1035E00020E030E048EF51E40E94611D0E94441E3B
:1035F0004B015C0120E030E040EF51E4C301B20137
:103600000E94471F20E030E040E752E40E94611D25
:103610000E94441E84019B014FE150E06CE370E086
:103620008091C1079091C2070E941F0A60915305C3
:1036300070E080E090E00E947A1E20E030E040E7F9
:1036400051E40E94601D2BED3FE049E450E40E94EC
:10365000471F20E030E040EF51E40E94D21D2B01D3
:103660003C010E94B41F4B015C01C301B2010E94E6
:10367000CD1D2B013C0120E030E048ED51E4C501B7
:10368000B4010E94471F20E030E048EF51E40E945F
:10369000611D0E94441E4B015C0120E030E048EDBA
:1036A00051E4C301B2010E94471F20E030E040E72F
:1036B00052E40E94611D0E94441E84019B014FE15F
:1036C00050E06CE370E08091C1079091C2070E94C6
:1036D0001F0ABE01DD0F880B990B0E947C1E20E0A3
:1036E00030E040E450E40E94601D2BED3FE049E4EF
:1036F00050E40E94471F20E030E040EC50E40E947C
:10370000D21D2B013C010E94B41F20E030E040E9B3
:1037100051E40E94471F20E030E048EF51E40E944E
:10372000611D0E94441E4B015C01C301B2010E9455
:10373000CD1D20E030E040E951E40E94471F2B01FD
:103740003C0120E030E040E752E40E94611D0E940D
:10375000441E84019B014FE150E06CE370E08091D6
:10376000C1079091C2070E941F0A20E030E04CE69A
:1037700052E4C301B2010E94611D0E94441E9B01DC
:103780004FE150E06DE370E08091C1079091C20776
:103790000E941F0AC0E06C2F70E080E090E00E9461
:1037A0007A1E2BED3FE049E450E40E94471F20E0E1
:1037B00030E040EC50E40E94D21D2B013C010E94FD
:1037C000B41F4B015C01C301B2010E94CD1D2B014E
:1037D0003C0120E030E048ED51E4C501B4010E9415
:1037E000471F20E030E048EF51E40E94611D0E9435
:1037F000441E4B015C0120E030E048ED51E4C30180
:10380000B2010E94471F20E030E040E752E40E94EE
:10381000611D0E94441EA4018091C1079091C207BE
:103820000E94160ACF5FCC3009F0B5CF8091C10756
:103830009091C207FC013586248625E030E0378769
:1038400026876CE070E00E9417158091C107909167
:10385000C2072AE330E0FC013587248722E330E009
:103860003787268766E070E00E9417158091C107B0
:103870009091C20721E530E0FC0135872487D78687
:10388000C68663E070E00E9417158091C107909191
:10389000C20724E230E0FC0135872487D786C6863C
:1038A00069E070E00E94171518C08230A1F440E072
:1038B00050E065E070E08091C1079091C2070E94DE
:1038C000160A40E050E06EE170E08091C1079091EF
:1038D000C2070E94160A0E94330B0E94440A80917C
:1038E000C1079091C2070E94F20765E570E080E091
:1038F00090E00E94831131E0E31AF10809F023CE31
:10390000809164008160809364008FE00E94EE10DB
:10391000892B51F480917C068F5F833018F480935B
:103920007C0602C010927C0680917C06823008F0F2
:10393000C0CB6EEA8091C1079091C2070E94B00788
:10394000B8CBE8E1F7E01382128288EE93E0A0E0C2
:10395000B0E084839583A683B7832CE135E031837F
:10396000208325EC30E03587248724EC30E037874E
:10397000268720EC30E0318B208B21EC30E0338B3C
:10398000228B22EC30E0358B248B26EC30E0378B19
:10399000268B118E128E138E148EE5EBF7E01382B8
:1039A000128284839583A683B7838CE295E091830A
:1039B00080838EE290E00E940520FC011382128237
:1039C00020E830E03583248380E490E09783868389
:1039D0003187208793878287158A158614861786F4
:1039E000168681E0848B2FEF3FEF338B228B318B58
:1039F000208B868B178A118E108E98E0968F96E01A
:103A0000978F95E090A381A38CE395E091838083C9
:103A1000F093C207E093C1070895991B79E004C0B1
:103A2000991F961708F0961B881F7A95C9F78095FD
:103A30000895A1E21A2EAA1BBB1BFD010DC0AA1FEF
:103A4000BB1FEE1FFF1FA217B307E407F50720F007
:103A5000A21BB30BE40BF50B661F771F881F991F82
:103A60001A9469F760957095809590959B01AC01CB
:103A7000BD01CF010895052E97FB1EF400940E940E
:103A8000521D57FD07D00E94191D07FC03D04EF4AC
:103A90000C94521D50954095309521953F4F4F4FB6
:103AA0005F4F089590958095709561957F4F8F4FEA
:103AB0009F4F0895EE0FFF1F0590F491E02D09949C
:103AC0005058BB27AA270E94781D0C94F91E0E940B
:103AD000C01E38F00E94C71E20F039F49F3F19F431
:103AE00026F40C94BD1E0EF4E095E7FB0C94B71E73
:103AF000E92F0E941E1F58F3BA1762077307840745
:103B0000950720F079F4A6F50C94401F0EF4E0958B
:103B10000B2EBA2FA02D0B01B90190010C01CA0187
:103B2000A0011124FF27591B99F0593F50F4503E32
:103B300068F11A16F040A22F232F342F4427585F24
:103B4000F3CF469537952795A795F0405395C9F73C
:103B50007EF41F16BA0B620B730B840BBAF09150F4
:103B6000A1F0FF0FBB1F661F771F881FC2F70EC093
:103B7000BA0F621F731F841F48F487957795679566
:103B8000B795F7959E3F08F0B0CF9395880F08F052
:103B90009927EE0F9795879508950E94D01EE3957B
:103BA0000C940A1F0E94E61D0C94F91E0E94C71E69
:103BB00058F00E94C01E40F029F45F3F29F00C9499
:103BC000B71E51110C94411F0C94BD1E0E941E1F64
:103BD00068F39923B1F3552391F3951B550BBB273C
:103BE000AA2762177307840738F09F5F5F4F220F81
:103BF000331F441FAA1FA9F335D00E2E3AF0E0E878
:103C000032D091505040E695001CCAF72BD0FE2FC1
:103C100029D0660F771F881FBB1F26173707480755
:103C2000AB07B0E809F0BB0B802DBF01FF2793580D
:103C30005F4F3AF09E3F510578F00C94B71E0C94FC
:103C4000411F5F3FE4F3983ED4F3869577956795DF
:103C5000B795F7959F5FC9F7880F911D9695879542
:103C600097F90895E1E0660F771F881FBB1F621761
:103C700073078407BA0720F0621B730B840BBA0B1F
:103C8000EE1F88F7E09508950E944B1E6894B111CD
:103C90000C94411F08950E94261F88F09F5798F0AA
:103CA000B92F9927B751B0F0E1F0660F771F881F41
:103CB000991F1AF0BA95C9F714C0B13091F00E945B
:103CC000401FB1E008950C94401F672F782F88277C
:103CD000B85F39F0B93FCCF3869577956795B39582
:103CE000D9F73EF490958095709561957F4F8F4FF1
:103CF0009F4F0895E89409C097FB3EF490958095F6
:103D0000709561957F4F8F4F9F4F9923A9F0F92FA1
:103D100096E9BB279395F695879577956795B7951F
:103D2000F111F8CFFAF4BB0F11F460FF1BC06F5F05
:103D30007F4F8F4F9F4F16C0882311F096E911C017
:103D4000772321F09EE8872F762F05C0662371F038
:103D500096E8862F70E060E02AF09A95660F771F4C
:103D6000881FDAF7880F9695879597F9089597F940
:103D70009F6780E870E060E008959FEF80EC089511
:103D800000240A941616170618060906089500243A
:103D90000A94121613061406050608950C94BD1E07
:103DA0000E94261FD8F3E894E0E0BB279F57F0F06D
:103DB0002AED3FE049EC06C0EE0FBB0F661F771FF0
:103DC000881F28F0B23A62077307840728F0B25AB6
:103DD000620B730B840BE3959A9572F7803830F47D
:103DE0009A95BB0F661F771F881FD2F790480C94D7
:103DF000BE1F092E0394000C11F4882352F0BB0F50
:103E000040F4BF2B11F460FF04C06F5F7F4F8F4FF2
:103E10009F4F0895EF93E0FF07C0A2EA2AED3FE02D
:103E200049EC5FEB0E94781D0E94F91E0F900394ED
:103E300001FC9058E8E6F0E00C94CA1F57FD90583A
:103E4000440F551F59F05F3F71F04795880F97FB5E
:103E5000991F61F09F3F79F0879508951216130618
:103E60001406551FF2CF4695F1DF08C01616170647
:103E70001806991FF1CF869571056105089408957C
:103E8000E894BB2766277727CB0197F908950E940E
:103E90005A1F0C94F91E0E94C01E38F00E94C71EC3
:103EA00020F0952311F00C94B71E0C94BD1E112424
:103EB0000C94411F0E941E1F70F3959FC1F3950F34
:103EC00050E0551F629FF001729FBB27F00DB11D9E
:103ED000639FAA27F00DB11DAA1F649F6627B00D2E
:103EE000A11D661F829F2227B00DA11D621F739F17
:103EF000B00DA11D621F839FA00D611D221F749F25
:103F00003327A00D611D231F849F600D211D822F6B
:103F1000762F6A2F11249F5750409AF0F1F0882392
:103F20004AF0EE0FFF1FBB1F661F771F881F9150BF
:103F30005040A9F79E3F510580F00C94B71E0C9499
:103F4000411F5F3FE4F3983ED4F3869577956795DC
:103F5000B795F795E7959F5FC1F7FE2B880F911DE9
:103F60009695879597F908959F930E94D01E0F907C
:103F700007FCEE5F0C940A1F9F3F31F0915020F434
:103F8000879577956795B795880F911D9695879535
:103F900097F908959F938F937F936F93FF93EF9378
:103FA0009B01AC010E94471FEF91FF910E94DE1F11
:103FB0002F913F914F915F910C94471FDF93CF93C7
:103FC0001F930F93FF92EF92DF927B018C01689415
:103FD00006C0DA2EEF010E945A1FFE01E894A59157
:103FE0002591359145915591A6F3EF010E94781DD9
:103FF000FE019701A801DA9469F7DF90EF90FF9036
:104000000F911F91CF91DF910895CF93DF9382306D
:10401000910510F482E090E0E091C507F091C607A9
:1040200020E030E0C0E0D0E0309711F140815181D4
:1040300048175907C0F04817590761F482819381E6
:10404000209719F09B838A832BC09093C607809397
:10405000C50726C02115310519F04217530718F47A
:104060009A01BE01DF01EF010280F381E02DDCCF78
:104070002115310509F1281B390B2430310590F445
:1040800012968D919C9113976115710521F0FB019A
:104090009383828304C09093C6078093C507FD0174
:1040A000329644C0FD01E20FF31F81939193225099
:1040B00031092D933C933AC02091C3073091C40736
:1040C000232B41F420910405309105053093C4075A
:1040D0002093C30720910205309103052115310576
:1040E00041F42DB73EB74091060550910705241BBA
:1040F000350BE091C307F091C407E217F307A0F472
:104100002E1B3F0B2817390778F0AC014E5F5F4F2D
:104110002417350748F04E0F5F1F5093C407409394
:10412000C3078193919302C0E0E0F0E0CF01DF91FB
:10413000CF9108950F931F93CF93DF93009709F4C6
:104140008CC0FC013297138212820091C507109136
:10415000C6070115110581F420813181820F931F5B
:104160002091C3073091C4072817390779F5F093D8
:10417000C407E093C30771C0D80140E050E0AE1718
:10418000BF0750F412962D913C911397AD01211564
:10419000310509F1D901F3CF9D01DA01338322837F
:1041A00060817181860F971F8217930769F4EC0174
:1041B00028813981260F371F2E5F3F4F318320839F
:1041C0008A819B8193838283452B29F4F093C607D0
:1041D000E093C50742C01396FC93EE931297ED014E
:1041E000499159919E01240F351FE217F30771F48D
:1041F00080819181840F951F029611969C938E93D6
:104200008281938113969C938E931297E0E0F0E065
:10421000D80112968D919C911397009719F0F8018F
:104220008C01F6CF8D919C9198012E5F3F4F820FAC
:10423000931F2091C3073091C4072817390769F4E9
:10424000309729F41092C6071092C50702C0138256
:1042500012821093C4070093C307DF91CF911F917F
:104260000F91089581E090E0F8940C943721F89430
:02427000FFCF7E
:104272001400000000000000000000000000000028
:10428200000000000000000000000000000000002C
:10429200000000000000000000000000000000001C
:1042A200000000000000000000000000000000000C
:1042B200008080800000000000000000000000007C
:1042C2000000008080C0C00000000000000000006C
:1042D20000000000000000000000000000000000DC
:1042E20000000000000000000000000000000000CC
:1042F20000000000000000000000000000000000BC
:1043020000000000000080C0E0F0F8FCF8E00000CF
:10431200000000000000000000000000000000801B
:10432200808080800080800000000080808080800B
:1043320000FFFFFF0000000080808080000080807E
:10434200000080FFFF8080008080008080808000ED
:1043520080800000000000808000008C8E840000BD
:1043620080F8F8F880000000000000000000000063
:104372000000F0F0F0F0F0F0F0F0F0F0F0F0E0E03B
:10438200C08000E0FCFEFFFFFF7FFFFFFFFFFF009A
:1043920000000000000000000000000000FEFFC757
:1043A2000101010183FFFF00007CFEC70101010141
:1043B20083FFFFFF0038FEC78301010183C7FFFFB0
:1043C200000001FFFF010100FFFF070101010000E2
:1043D2007FFF80000000FFFF7F0000FFFFFF000063
:1043E20001FFFFFF010000000000000000000000CC
:1043F2000000030F3F7F7FFFFFFFFFFFFFFFE7C7C5
:10440200C78F8F9FBFFFFFC3C0F0FFFFFFFFFFFCFF
:10441200FCFCFCFCFCFCFCF8F8F0F0E0C000010342
:10442200030303030103030000000001030303036A
:10443200010103010000000103030303010103035F
:10444200000000030300000003030000000000005E
:104452000001030303030301000000010301000044
:104462000003030100000000000000000000000043
:10447200000000000080C0E0F0F9FFFFFFFFFF3FF7
:104482001F0F87C7F7FFFF1F1F3DFCF8F8F8F87CE6
:104492007DFFFFFFFFFFFFFFFF7F3F0F0700303071
:1044A200000000000000000000000000000000000A
:1044B200000000000000FEFEFC0000000000000002
:1044C200000000000000000000000000000000E00A
:1044D200C0000000000000000000000030300000BA
:1044E20000000000000000000000000000000000CA
:1044F200000000C0FEFFFFFFFFFFFFFFFFFF7F7F07
:104502003F1F0F071F7FFFFFF8F8FFFFFFFFFFFEB0
:10451200F8E0000000010000000000000000FEFEC4
:10452200000000FCFEFC0C06060EFCF80000F0F891
:104532001C0E0606060CFFFFFF0000FEFE00000038
:1045420000FCFEFC00183C7E66E6CE84000006FFFE
:10455200FF0606FCFEFC0C0606060000FEFE00003E
:10456200C0F8FC4E4646464E7C7840183C76E6CE75
:10457200CC800000000000000000000000000000ED
:1045820000000000000001070F1F1F3F3F3F3F1FB9
:104592000F030000000000000000000000000F0FE9
:1045A2000000000F0F0F000000000F0F00000307B4
:1045B2000E0C18180C060F0F0F0000010F0E0C182E
:1045C2000C0F070100040E0C180C0F070000000F5F
:1045D2000F00000F0F0F0000000000000F0F00007F
:1045E2000007070C0C181C0C060600040E0C180C15
:1045F2000F070000000000000000000000000000A3
:1046020000000000000000000000000000000000A8
:104612000000000000000000000000000000000098
:104622000000000000000000000000000000000088
:104632000000000000000000000000000000000078
:104642000000000000000000000000000000000068
:104652000000000000000000000000000000000058
:104662000000000000000000000000000000000048
:1046720000000000C7078000000103070F1F3F7FF3
:104682000080C0E0F0F8FCFE000000004E0CCA0BF7
:10469200170CF50B090C950C00000000930D630D2F
:1046A2005B0D4C0D3E0D3D0D000000006005CA0B78
:1046B2001B030607C20D1C0FB70655063706B903C2
:00000001FF
