:100000000C9400030C9428030C9428030C942803EC
:100010000C9428030C9428030C9428030C942803B4
:100020000C9428030C9428030C9428030C942803A4
:100030000C9428030C9428030C9428030C94280394
:100040000C9414100C9428030C94B40E0C948E0E83
:100050000C9428030C9428030C9428030C94280374
:100060000C945E100C9428032F1D551D531D4C1D20
:10007000531D491DD61D461D431D401DD91D3D1D47
:100080002C1D3A1D371D05A84CCDB2D44EB93836BB
:10009000A9020C50B9918688083CA6AAAA2ABE00DB
:1000A0000000803F00000000240027002A00010219
:1000B00004081020408001020408102001020408F6
:1000C000102000000000250028002B000404040478
:1000D00004040404020202020202030303030303F2
:1000E00000000000003E5B4F5B3E3E6B4F6B3E1CD2
:1000F0003E7C3E1C183C7E3C181C577D571C1C5EE9
:100100007F5E1C00183C1800FFE7C3E7FF001824BF
:100110001800FFE7DBE7FF30483A060E2629792969
:1001200026407F050507407F05253F5A3CE73C5A9E
:100130007F3E1C1C08081C1C3E7F14227F22145F7B
:100140005F005F5F06097F017F006689956A6060D6
:1001500060606094A2FFA29408047E040810207ED0
:10016000201008082A1C08081C2A08081E10101055
:10017000100C1E0C1E0C30383E3830060E3E0E069B
:10018000000000000000005F0000000700070014EE
:100190007F147F14242A7F2A1223130864623649AD
:1001A0005620500008070300001C22410000412295
:1001B0001C002A1C7F1C2A08083E0808008070309A
:1001C0000008080808080000606000201008040209
:1001D0003E5149453E00427F40007249494946210F
:1001E00041494D331814127F1027454545393C4A83
:1001F000494931412111090736494949364649499A
:10020000291E0000140000004034000000081422E1
:10021000411414141414004122140802015909064F
:100220003E415D594E7C1211127C7F494949363E50
:10023000414141227F4141413E7F494949417F0936
:100240000909013E414151737F0808087F00417F41
:1002500041002040413F017F081422417F4040403F
:10026000407F021C027F7F0408107F3E4141413ED7
:100270007F090909063E4151215E7F091929462659
:100280004949493203017F01033F4040403F1F205D
:1002900040201F3F4038403F631408146303047834
:1002A00004036159494D43007F4141410204081054
:1002B00020004141417F040201020440404040408F
:1002C000000307080020545478407F2844443838FD
:1002D00044444428384444287F385454541800086F
:1002E0007E090218A4A49C787F0804047800447D49
:1002F00040002040403D007F1028440000417F40E6
:10030000007C047804787C08040478384444443839
:10031000FC1824241818242418FC7C080404084819
:100320005454542404043F44243C4040207C1C206A
:1003300040201C3C4030403C44281028444C9090C5
:10034000907C4464544C440008364100000077001F
:1003500000004136080002010204023C2623263C2C
:100360001EA1A161123A4040207A385454555921B7
:10037000555579412254547842215554784020549F
:100380005579400C1E5272123955555559395454ED
:10039000545939555454580000457C410002457D5C
:1003A000420001457C407D1211127DF0282528F085
:1003B0007C545545002054547C547C0A097F4932B2
:1003C000494949323A4444443A324A4848303A4129
:1003D00041217A3A42402078009DA0A07D3D4242D2
:1003E000423D3D4040403D3C24FF2424487E49435B
:1003F000662B2FFC2F2BFF0929F620C0887E0903CE
:1004000020545479410000447D413048484A3238F4
:100410004040227A007A0A0A727D0D19317D262920
:10042000292F28262929292630484D402038080818
:10043000080808080808382F10C8ACBA2F1028344C
:10044000FA00007B000008142A142222142A14083F
:100450005500550055AA55AA55AAFF55FF55FF004E
:100460000000FF00101010FF00141414FF00101003
:10047000FF00FF1010F010F0141414FC001414F717
:1004800000FF0000FF00FF1414F404FC1414171004
:100490001F10101F101F1414141F00101010F00054
:1004A0000000001F101010101F10101010F010008E
:1004B0000000FF101010101010101010FF1000009E
:1004C00000FF140000FF00FF00001F10170000FCD9
:1004D00004F414141710171414F404F40000FF00AB
:1004E000F714141414141414F700F7141414171434
:1004F00010101F101F141414F4141010F010F0003A
:10050000001F101F0000001F14000000FC1400005A
:10051000F010F01010FF10FF141414FF141010103E
:100520001F00000000F010FFFFFFFFFFF0F0F0F0F1
:10053000F0FFFFFF0000000000FFFF0F0F0F0F0F85
:100540003844443844FC4A4A4A347E0202060602D1
:100550007E027E0263554941633844443C04407E38
:10056000201E2006027E020299A5E7A5991C2A49B1
:100570002A1C4C7201724C304A4D4D30304878483C
:1005800030BC625A463D3E494949007E0101017E28
:100590002A2A2A2A2A44445F444440514A4440407B
:1005A000444A51400000FF0103E080FF00000808BA
:1005B0006B6B083612362436060F090F060000183A
:1005C000180000001010003040FF0101001F010161
:1005D0001E00191D1712003C3C3C3C0000000000AE
:1005E000000000002300260029000000000800028F
:1005F0000100000304070000000000000000DE1DF1
:1006000011241FBECFEFD8E0DEBFCDBF15E0A0E0C4
:10061000B1E0E8E6F5E402C005900D92AA3BB1070F
:10062000D9F728E0AAEBB5E001C01D92AB30B207C4
:10063000E1F712E0C0E0D3E004C02197FE010E9480
:10064000AB1ECF3FD107C9F70E943B140C94B222D6
:100650000C9400000F931F93CF93DF93DC01FB01F9
:1006600055968C915597823081F0833019F1813005
:1006700051F514968D919C911597BC01641B750BD7
:10068000AB0141505109BF0181C014966D917C911D
:100690001597CB018E1B9F0BFC0116968D919C919B
:1006A0001797BC01641B750BAB0141505109E21B4C
:1006B000F30B09C016966D917C9117976E1B7F0BFB
:1006C000621B730B63C057FD1CC116968D919C91E4
:1006D0001797481759070CF014C1F7FF04C02E0FE5
:1006E0003F1FE0E0F0E014968D919C911597BF01BB
:1006F000620F731F861797071CF49C012E1B3F0B7C
:10070000121613060CF0FDC0CA0157FD079663E0F0
:10071000959587956A95E1F79695982F88279795EF
:100720008795E80FF91FE35FFE4F4770552781E07B
:1007300090E001C0880F4A95EAF7482F0130110573
:1007400041F088F00230110509F0DBC02E0F3F1F89
:1007500015C02E0F3F1FE217F30709F4D2C08081A6
:10076000842B8193F8CF80952E0F3F1FE217F3075C
:1007700009F4C7C0908198239193F8CFE217F3074B
:1007800009F4BFC0808184278193F8CF57FDB9C099
:1007900014968D919C911597481759070CF0B1C08C
:1007A00077FF04C0260F371F60E070E016968D912A
:1007B0009C911797FB01E20FF31F8E179F071CF404
:1007C0009C01261B370B121613060CF09AC0A22FA1
:1007D000862F86958695869590E8899F400D511DB8
:1007E0001124FA01E35FFE4F6770A9F198E0961BB0
:1007F000492F50E0EA01C35CDA4F8881291790F451
:10080000421B51092FEF30E002C0359527954A95DC
:10081000E2F782230130110541F068F00230110542
:1008200089F06FC00130110519F42081822B0CC0B2
:100830000130110520F480952081822305C002300B
:10084000110531F4208182278083A91708F459C04B
:10085000A91BE058FF4FA83048F10230110559F4A8
:10086000EF018A2F988190959883C058DF4F885068
:100870008830C0F731C081E00130110509F080E017
:100880008195EF019A2F8883C058DF4F9850983098
:10089000D0F788EF8A0F86958695869560E8869FC3
:1008A000E00DF11D1124E058FF4FA770AA2349F174
:1008B000B0E0AB5CBA4F8C910130110529F038F0F3
:1008C00002301105D9F01DC09081892B03C080959D
:1008D00090818923808315C088EF8A0F869586953D
:1008E000869570E8879FE00DF11D1124E058FF4FB9
:1008F000A77039F0B0E0AB5CBA4F8C91908189273A
:10090000E9CFDF91CF911F910F910895FC0177FD01
:100910009AC080859185681779070CF094C057FDBF
:1009200092C082859385481759070CF08CC0858941
:10093000823009F07CC084819581DC01A61BB70B55
:10094000BD016150710986819781FC01E41BF50BA3
:10095000AF01415051090AC0813041F48481958131
:10096000841B950BAB01BC0161507109213031052D
:1009700029F008F122303105E1F10895FA0157FD1F
:100980003796A3E0F595E795AA95E1F7F695FE2F42
:10099000EE27F795E7956E0F7F1FFB01E35FFE4F94
:1009A0004770552781E090E001C0880F4A95EAF72B
:1009B0009081892B3AC0FA0157FD379623E0F595CF
:1009C000E7952A95E1F7F695FE2FEE27F795E7953F
:1009D0006E0F7F1FFB01E35FFE4F4770552781E0DD
:1009E00090E001C0880F4A95EAF7809590818923AD
:1009F0001CC0FA0157FD379683E0F595E7958A9577
:100A0000E1F7F695FE2FEE27F795E7956E0F7F1F1E
:100A1000FB01E35FFE4F4770552781E090E001C086
:100A2000880F4A95EAF7908189278083089583305B
:100A300009F092CF86819781861B970BBA01AC0192
:100A40004150510993CF089508952F923F924F92AC
:100A50005F926F927F928F929F92AF92BF92CF924E
:100A6000DF92EF92FF920F931F93CF93DF93CDB757
:100A7000DEB76B970FB6F894DEBF0FBECDBF4C014B
:100A80005A8349831F830E83FD82EC82CB82DC0173
:100A900058964D915C9159974115510509F0A5C0A3
:100AA00018968D919C911997681779070CF05AC187
:100AB0001A968D919C911B97E981FA81E817F907A5
:100AC0000CF050C1D12CCB013B81F6E03F9F800D53
:100AD000911D1124181619060CF044C1C60133E00B
:100AE000880F991F3A95E1F749815A81840F951F24
:100AF000181619060CF036C157968C91811103C057
:100B0000203B08F02F5F55E0259F900111247E8740
:100B10006D875B01212CC901861B970B99878887FC
:100B2000A981BA811896BB87AA87B5E02B1641F038
:100B3000E885F985EA0DFB1DE052FF4F349001C0B6
:100B4000312C69807A80230130FE12C0D401ED91EE
:100B5000FC91BB81B13031F40480F581E02D2E8110
:100B60003F8118C00684F785E02DEE80FF801CC011
:100B7000EC81FD812E813F81E217F307E1F0D40182
:100B8000ED91FC91BB81B13051F40480F581E02DF1
:100B90002C813D81A301B501C40109950CC00684D7
:100BA000F785E02DEC80FD8086019601A2016D8520
:100BB0007E85C40109953694EFEF6E1A7E0A4C0CBF
:100BC0005D1C2A853B856216730609F0BDCF239410
:100BD0003FEFA31AB30A4D855E854C0D5D1D5E8700
:100BE0004D8756E02512A1CFBDC0FA01349634914D
:100BF000329785919491231BA7E02A9F800D911D28
:100C00001124FA01259134913A8B298BFC0125900E
:100C10003490FC01329634913887319644914C8758
:100C20003196E491FC013596A491319684915B81D3
:100C3000523050F06A2E0A2E000C7708E82F082E4A
:100C4000000CFF0BFB87EA87FB81CF2ED12C6C9C1D
:100C500090016D9C300D7C9C300D1124A901460F34
:100C6000571F588B4F871C82A12CEA2FAA0FFF0B0E
:100C70003B016E0E7F1E5885650F711DDB01AE0FA7
:100C8000BF1FBF8BAE8BE981FA81E80FF11D87FD95
:100C9000FA95F98FE88F9C85A91608F063C08A2D14
:100CA00090E04A855B85480F591F4C9D90014D9DF2
:100CB000300D5C9D300D1124A981BA81A20FB31FA4
:100CC000BE87AD877B8E6A8E4F845888BC81B619EB
:100CD000BB8BE88DF98DE80FF91FFD8BEC8B8B89B1
:100CE000FA8D8F0F2A8D3B8D4E895F89241735072A
:100CF00099F1877041F4C1010196E989FA89E20D01
:100D0000F31DB4901C01B7FE1EC0D401ED91FC91FF
:100D1000BB81B13061F40480F581E02D2E813F81EB
:100D20004C895D896A8D7B8DC40109950CC0068450
:100D3000F785E02DEE80FF80860196014D855E856A
:100D4000B201C4010995BB0CEA8DFB8D3196FB8F76
:100D5000EA8F4C0C5D1CC3CF5C818885580F5C8387
:100D6000A39499CF6B960FB6F894DEBF0FBECDBF9C
:100D7000DF91CF911F910F91FF90EF90DF90CF9077
:100D8000BF90AF909F908F907F906F905F904F90AB
:100D90003F902F900895AF92BF92CF92EF92FF9223
:100DA0000F931F93CF93DF93EC01262F888D998D9E
:100DB000009709F042C06A3069F42C898E859F85BE
:100DC00038E0239F800D911D11249F878E871D86FB
:100DD0001C86ACC06D3009F4A9C08E898823C1F08F
:100DE0003C898C859D8546E0349F800D911D1124A2
:100DF00048855985841795075CF01D861C868E856D
:100E00009F85E8E03E9F800D911D11249F878E876E
:100E1000EA88FB88088919894E855F856C857D8500
:100E2000CC88CE010E9425052C898C859D85F6E015
:100E30002F9F800D911D112441C06A3079F41D86C9
:100E40001C862C89FC013696E4918E859F852E9F09
:100E5000800D911D11249F878E8768C06D3009F425
:100E600065C0AC014C5F5F4FFA013491631708F421
:100E70005DC03196E491E61708F458C0FA01449138
:100E8000362F341BFC013296A590B490F7E03F9FBB
:100E9000A00CB11C1124F501329634913196E491E5
:100EA000332311F0E1110DC0F5013496E4912C8942
:100EB0008C859D85E29F800D911D11249D878C87D7
:100EC00035C0F501359644915E89552311F16C8941
:100ED000E32FF0E0E40FF11D47FDFA956E9FD0017E
:100EE0006F9FB00D11244C855D854A0F5B1FE8850F
:100EF000F9854E175F076CF01D861C86FC0136963F
:100F0000E4918E859F856E9F800D911D11249F8792
:100F10008E87EA88FB88088919894E855F856C85EC
:100F20007D85CC88CE010E942505BECF81E090E072
:100F3000DF91CF911F910F91FF90EF90CF90BF90D5
:100F4000AF900895EF92FF920F931F93DC01ED9104
:100F5000FC9111971A960D911C911B9718962D9143
:100F60003C9119970684F785E02D7B0140E050E025
:100F700060E070E009951F910F91FF90EF90089548
:100F80006F927F928F929F92AF92BF92CF92DF9299
:100F9000EF92FF920F931F93CF93DF936C015A014F
:100FA0004801EB013B01620E731EC615D70574F4B0
:100FB000D601ED91FC910084F185E02D870194012B
:100FC000A501BE01C60109952196EFCFDF91CF9112
:100FD0001F910F91FF90EF90DF90CF90BF90AF9057
:100FE0009F908F907F906F900895EF92FF920F9354
:100FF0001F93DC01ED91FC91260F371F2150310921
:101000000680F781E02D78018A0109951F910F91E3
:10101000FF90EF900895EF92FF920F931F93780146
:10102000DC01ED91FC91240F351F8901015011095C
:101030000680F781E02D9B0109951F910F91FF908C
:10104000EF9008956F927F928F929F92AF92BF928E
:10105000CF92DF92EF92FF920F931F93CF93DF9384
:10106000EC014B015A0169013801E881F9810284E0
:10107000F385E02D87010995E881F981A501460DE9
:10108000571D415051090284F385E02D9601B401AA
:10109000CE010995E881F9810084F185E02D930165
:1010A000A501B401CE010995E881F981C80CD91CCC
:1010B000B601615071090084F185E02D9301A5010D
:1010C000CE010995DF91CF911F910F91FF90EF9085
:1010D000DF90CF90BF90AF909F908F907F906F9058
:1010E00008952F923F924F925F926F927F928F92CC
:1010F0009F92AF92BF92CF92DF92EF92FF920F93A7
:101100001F93CF93DF9300D01F92CDB7DEB74C0172
:101110007B836A836A01590117019801241B350BEF
:1011200037FF03C0319521953109C5014A815B81A3
:10113000841B950B97FF03C091958195910951E010
:1011400059838217930714F019820BC09A2D8B2DA7
:101150005801092F182F9A818B81DB82CA82C92EF0
:10116000D82E8A819B81A816B9065CF49C2D8D2D02
:101170006801092F182F9A818B81BB82AA82A92E20
:10118000B82E2501AA81BB814A1A5B0A38016C1866
:101190007D0877FE03C0719461947108720157FE57
:1011A00003C0BFEFEB1AFB0AF594E794C016D10613
:1011B0001CF00FEF1FEF1FC001E010E01CC0D401B6
:1011C000ED91FC91B9810480F581E02D9101BB2363
:1011D000C1F04A815B81B601C4010995E618F708A0
:1011E000F7FE04C0C00ED11EE40CF51CEA81FB81A1
:1011F0003196FB83EA834A815B81A416B506FCF62F
:1012000004C0A6016A817B81E7CF0F900F900F90F9
:10121000DF91CF911F910F91FF90EF90DF90CF90D2
:10122000BF90AF909F908F907F906F905F904F9006
:101230003F902F900895CF93DF93C4E1D0E08CE5E9
:1012400097E00E94150B892B09F45FC08CE597E0AD
:101250000E94F30A9EE3980F923088F3982F8A3009
:1012600071F40E942D14E0910B01F0910C01E254F5
:10127000FA4F10821092BD051092BC05E0CF20916C
:101280000B0130910C018F39C1F0803BC1F08D3BD7
:10129000C1F0823BC1F0843AC1F0863BC1F08C3B87
:1012A000C1F08438C1F08639C1F08C39C1F08B3A75
:1012B000C1F08B3BB9F49FEA15C090EE13C098EFD4
:1012C00011C09BEA0FC09DEF0DC094E80BC094E9DC
:1012D00009C091E807C09EE805C099E903C09AE9F2
:1012E00001C09EEAF901E254FA4F9083C9010196C8
:1012F0008A3F91052CF490930C0180930B019FCFB2
:10130000D0930C01C0930B019ACFDF91CF91089538
:10131000FC0181A1882339F06EBD00000DB407FEE9
:10132000FDCF8EB5089528E030E090E8A4A1B5A1E6
:101330004C9183A5809584238C93A2A1B3A182A50F
:10134000492F462319F04C91842B03C04C91809572
:1013500084238C93A4A1B5A14C9183A5842B8C9359
:1013600096952150310911F708951F93CF93DF937C
:10137000EC01162F8C8D8F3F09F1EEA1FFA190811A
:101380008CA5892B8083E8A5F9A590818DA58095F2
:1013900089238083EEA1FFA190818CA5809589236C
:1013A0008083CE010E948809EEA1FFA190818CA5C7
:1013B000892B8083DF91CF911F9108958A8D91E0D1
:1013C0009093380780935A071092390710925B0761
:1013D00060E089EF97E00E94910C612F89EF97E020
:1013E0000E94910CDF91CF911F910C94FE12CF922D
:1013F000DF92EF92FF920F931F93CF93DF936034AE
:10140000710510F540335105F8F47A01EB01279688
:10141000C12CD12C082F10E0C8010C2C02C09595CE
:1014200087950A94E2F780FF07C0C034D10524F401
:10143000B701CE010E94A8118FEFC81AD80A2197D0
:1014400088E0C816D10441F7DF91CF911F910F9129
:10145000FF90EF90DF90CF900895E0910508F09114
:10146000060883E0848B158614868CE090E09787CD
:10147000868780910A018A3020F487EA95E00E94ED
:101480001B1480910A010E941014E0910508F0914C
:10149000060882E0848B84E290E0958784878FE061
:1014A00090E0978786878EE995E00E941B14E09173
:1014B0000508F091060883E0848B8EE290E0958722
:1014C00084878CE090E097878687809109018A3035
:1014D00020F487EA95E00E941B14809109010E9484
:1014E0001014E0910508F091060881E0848B8EE1EC
:1014F00090E09587848788E290E09787868780913F
:1015000008018A3020F487EA95E00E941B1480913C
:1015100008010E94101487EB95E00E941B14809133
:10152000B8060C9410148091B8068F5F8093B806AB
:101530008A3068F16AE00E944A1E20910801820FF9
:10154000809308019093B8068C3350F06CE30E94AE
:101550004A1E20910901820F80930901909308018E
:10156000809109018C3350F06CE30E944A1E209157
:101570000A01820F80930A019093090180910A0168
:10158000883128F068E10E944A1E90930A0108956C
:10159000CF92DF92EF92FF920F931F93CF93DF933F
:1015A0006C017A018B01C0E0D0E0CE15DF0589F037
:1015B000D8016D918D01D601ED91FC910190F081E2
:1015C000E02DC6010995892B11F47E0102C02196F8
:1015D000ECCFC701DF91CF911F910F91FF90EF905A
:1015E000DF90CF900895FC01918D828D981761F066
:1015F000828DDF01A80FB11D5D968C91928D9F5F4A
:101600009F73928F90E008958FEF9FEF0895FC01F4
:10161000918D828D981731F0828DE80FF11D858DA7
:1016200090E008958FEF9FEF0895FC01918D228D3A
:10163000892F90E0805C9F4F821B91098F739927BF
:1016400008958CE597E00E94150B21E0892B09F4A1
:1016500020E0822F0895FC01848DDF01A80FB11DC9
:10166000A35ABF4F2C91848D90E001968F739927D8
:10167000848FA689B7892C93A089B1898C918064C5
:101680008C93938D848D981306C00288F389E02D86
:1016900080818F7D80830895EF92FF920F931F9337
:1016A000CF93DF93EC0181E0888F9B8D8C8D981315
:1016B00005C0E889F989808185FD24C0F62E0B8D4F
:1016C00010E00F5F1F4F0F731127E02E8C8DE81273
:1016D0000CC00FB607FCFACFE889F989808185FF35
:1016E000F5CFCE010E942B0BF1CF8B8DFE01E80FC1
:1016F000F11DE35AFF4FF0820B8FEA89FB8980814D
:10170000806207C0EE89FF896083E889F98980815A
:101710008064808381E090E0DF91CF911F910F91F1
:10172000FF90EF900895CF93DF93EC01888D88238D
:10173000C9F0EA89FB89808185FD05C0A889B9893E
:101740008C9186FD0FC00FB607FCF5CF808185FF19
:10175000F2CFA889B9898C9185FFEDCFCE010E9487
:101760002B0BE7CFDF91CF9108950E94210B8111C0
:101770000C941B090895833081F028F4813099F08E
:101780008230A1F008958730A9F08830B9F0843014
:10179000D1F4809180008F7D03C0809180008F778D
:1017A00080938000089584B58F7702C084B58F7DC3
:1017B00084BD08958091B0008F7703C08091B00000
:1017C0008F7D8093B00008953FB7F89480910D0706
:1017D00090910E07A0910F07B091100726B5A89B16
:1017E00005C02F3F19F00196A11DB11D3FBFBA2FB3
:1017F000A92F982F8827820F911DA11DB11DBC0113
:10180000CD0143E0660F771F881F991F4A95D1F7D6
:10181000089585ED8093BC008091BC0084FDFCCFD1
:101820001092370708954091E306262F30E0240FE9
:10183000311D21323105DCF4209137072430C9F401
:10184000FC0180E090E0861758F43091E306219186
:10185000DC01AF53B94FA30FB11D2C930196F3CF09
:101860008091E306680F6093E30680E0089581E0CD
:10187000089582E00895089581E090E03091BB05DD
:101880002091BA05321710F480E090E0919581958F
:10189000910908958091BB059091BA05891730F49C
:1018A0008F5F8093BB0580E090E008958FEF9FEFFE
:1018B00008958091BA0590E02091BB05821B9109A3
:1018C0000895CF92DF92EF92FF920F931F93CF93E1
:1018D000DF937C01262F972F8A0180913807882378
:1018E00091F0C62FD72F6E01C40ED51ECC15DD0585
:1018F00071F06991D701ED91FC910190F081E02D9B
:10190000C7010995F3CF642F822F0E94130CC801E1
:10191000DF91CF911F910F91FF90EF90DF90CF90CB
:101920000895CF93DF931F92CDB7DEB769832091DF
:1019300038072223D1F020915B07203240F021E0CC
:1019400030E0FC013383228380E090E015C0809179
:101950003907E82FF0E0E65CF84F998190838F5FBC
:101960008093390780935B0705C061E0CE01019643
:101970000E94130C81E090E00F90DF91CF910895C9
:101980000F931F93CF93DF93DC0155968C9155975E
:10199000823071F0833009F1813009F08CC01496E7
:1019A000ED91FC911597E41BF50BE21BF30B20C0A6
:1019B0001496ED91FC911597CF01861B970BBC01F6
:1019C000615071091696ED91FC911797CF01841B18
:1019D000950BAC01421B530B6EC01696ED91FC911A
:1019E0001797CF01861B970BBC0161507109FA0153
:1019F00077FD1BC116968D919C91179768177907F3
:101A00000CF013C1F7FF04C02E0F3F1FE0E0F0E021
:101A100014968D919C911597AF01420F531F841717
:101A200095071CF49C012E1B3F0B121613060CF09D
:101A3000FCC0CB0177FD079643E0959587954A95C5
:101A4000E1F79695982F882797958795E80FF91FC6
:101A5000E35FFE4F6770772781E090E001C0880F59
:101A60006A95EAF7482F0130110541F088F00230FD
:101A7000110509F0DAC02E0F3F1F15C02E0F3F1FB2
:101A8000E217F30709F4D1C08081842B8193F8CF4A
:101A900080952E0F3F1FE217F30709F4C6C090810F
:101AA00098239193F8CFE217F30709F4BEC0808121
:101AB00084278193F8CF77FDB8C014968D919C91BF
:101AC0001597681779070CF0B0C057FF04C0240FB2
:101AD000351F40E050E016968D919C911797FA01C2
:101AE000E20FF31F8E179F071CF49C01241B350B7C
:101AF000121613060CF099C0A22F842F8695869596
:101B0000869590E8899F600D711D1124FB01E35FAC
:101B1000FE4F4770A9F198E0941B492F50E0EA016D
:101B2000C35CDA4F8881291790F4421B51092FEFCB
:101B300030E002C0359527954A95E2F782230130BF
:101B4000110541F068F00230110589F06EC00130D6
:101B5000110519F42081822B0CC00130110520F4ED
:101B600080952081822305C00230110531F4208147
:101B700082278083A91708F458C0A91BE058FF4F9B
:101B8000A83048F10230110559F4EF018A2F9881ED
:101B900090959883C058DF4F88508830C0F730C088
:101BA00081E00130110509F080E08195EF019A2F65
:101BB0008883C058DF4F98509830D0F788EF8A0F4D
:101BC00086958695869590E8899FE00DF11D1124F4
:101BD000E058FF4FA770AA2341F1B0E0AB5CBA4FC9
:101BE0008C910130110529F038F002301105D1F047
:101BF0001CC09081892B18C080959081892314C0C6
:101C000088EF8A0F86958695869590E8899FE00DE6
:101C1000F11D1124E058FF4FA77039F0B0E0AB5C24
:101C2000BA4F8C91908189278083DF91CF911F914A
:101C30000F9108950E9497226115710579F0FB01BB
:101C400001900020E9F73197AF01461B570BDC01EB
:101C5000ED91FC910280F381E02D099480E090E009
:101C600008954F925F926F927F92EF92FF920F933F
:101C70001F93CF93DF93CDB7DEB7A1970FB6F8943C
:101C8000DEBF0FBECDBF7C01FA01CB0119A222300D
:101C900008F42AE08E010F5D1F4F422E512C612C5B
:101CA000712CBF01A30192010E946A1EF901CA01B1
:101CB000015011096A3014F4605D01C0695CD801FB
:101CC0006C93232B242B252B61F7B801C7010E94AD
:101CD0001C0EA1960FB6F894DEBF0FBECDBFDF91EC
:101CE000CF911F910F91FF90EF907F906F905F9039
:101CF0004F9008950F931F93CF93DF93EC010E94B1
:101D00001C0E8C0164EB75E0CE010E941C0E800F4E
:101D1000911FDF91CF911F910F9108951F920F9204
:101D20000FB60F9211242F933F934F935F936F93AE
:101D30007F938F939F93AF93BF93EF93FF938CE524
:101D400097E00E942B0BFF91EF91BF91AF919F9174
:101D50008F917F916F915F914F913F912F910F9054
:101D60000FBE0F901F9018951F920F920FB60F92F3
:101D700011242F938F939F93EF93FF93E0916C0720
:101D8000F0916D078081E0917207F091730782FDF9
:101D900012C09081809175078F5F8F7320917607B5
:101DA000821751F0E0917507F0E0E45AF84F958FF3
:101DB0008093750701C08081FF91EF919F918F9172
:101DC0002F910F900FBE0F901F901895CF93DF9318
:101DD000282F30E0F901E651FA4F8491F901E255DC
:101DE000FF4FD491F901E453FF4FC491CC2391F0FC
:101DF00081110E94BB0BEC2FF0E0EE0FFF1FE052B1
:101E0000FA4FA591B491EC91ED2381E090E021F49B
:101E100080E002C080E090E0DF91CF9108951F93B1
:101E2000CF93DF93282F30E0F901E651FA4F8491E8
:101E3000F901E255FF4FD491F901E453FF4FC491EA
:101E4000CC23C9F0162F81110E94BB0BEC2FF0E0C0
:101E5000EE0FFF1FEE53FF4FA591B4918FB7F8948B
:101E6000111105C09C91ED2FE095E92302C0EC9182
:101E7000ED2BEC938FBFDF91CF911F910895CF93FE
:101E8000DF9390E0FC01E255FF4F2491FC01E45305
:101E9000FF4F8491882361F190E0880F991FFC0126
:101EA000EC55FF4FC591D491FC01EE53FF4FA59126
:101EB000B491611109C09FB7F8948881209582235D
:101EC0008883EC912E230BC0623061F49FB7F894A5
:101ED0003881822F809583238883EC912E2B2C933D
:101EE0009FBF06C08FB7F894E8812E2B28838FBF41
:101EF000DF91CF9108951F93CF93DF93182FEB01BC
:101F000061E00E943F0F209711F460E004C0CF3FD2
:101F1000D10539F461E0812FDF91CF911F910C94AD
:101F20000F0FE12FF0E0E651FA4FE491E330F9F0C2
:101F300048F4E130B9F0E230A1F584B5806284BDA7
:101F4000C8BD34C0E730E9F0E83019F1E43049F5B4
:101F500080918000806280938000D0938B00C0933A
:101F60008A0024C084B5806884BDC7BD1FC080912D
:101F70008000806880938000D0938900C09388009F
:101F800015C08091B00080688093B000C093B3000A
:101F90000DC08091B00080628093B000C093B40007
:101FA00005C0C038D1050CF0B5CFAFCFDF91CF91D0
:101FB0001F9108958F929F92AF92BF92CF92DF921E
:101FC000EF92FF926B017C010E94E40B4B015C01DC
:101FD000C114D104E104F104F1F00E94E40BDC012E
:101FE000CB0188199909AA09BB09883E9340A1052C
:101FF000B10570F321E0C21AD108E108F10888EEBA
:10200000880E83E0981EA11CB11CC114D104E10408
:10201000F10419F7DDCFFF90EF90DF90CF90BF90E4
:10202000AF909F908F9008951F920F920FB60F92CE
:1020300011242F933F938F939F93AF93BF938091DE
:10204000090790910A07A0910B07B0910C073091F6
:10205000080726E0230F2D3720F40296A11DB11D9D
:1020600005C029E8230F0396A11DB11D2093080781
:102070008093090790930A07A0930B07B0930C076E
:1020800080910D0790910E07A0910F07B091100756
:102090000196A11DB11D80930D0790930E07A0938B
:1020A0000F07B0931007BF91AF919F918F913F9110
:1020B0002F910F900FBE0F901F9018951F920F92A7
:1020C0000FB60F9211242F933F934F935F936F930B
:1020D0007F938F939F93AF93BF93EF93FF938091E1
:1020E000B900887F803609F49CC068F5883209F40D
:1020F0005BC090F4803109F454C038F4882309F4AB
:10210000F6C0883009F44DC0F6C0883109F44CC0DF
:10211000803209F45DC0EFC0803409F468C048F42F
:10212000803309F455C0883309F0E5C08093350742
:10213000D8C0803509F44FC0883509F45DC08834B3
:1021400009F0D9C0D6C0883909F4C7C0A8F48837C7
:1021500009F467C038F4883609F463C0803709F49D
:1021600060C0C9C0883809F4B8C0803909F45FC0BC
:10217000803809F0C0C05BC0803B09F486C038F4E9
:10218000803A09F466C0883A09F47FC0B4C0803C44
:1021900009F4A7C0883C09F4A4C0883B09F48AC0AC
:1021A000AAC08091120710C0909134078091330724
:1021B000981770F5E091340781E08E0F8093340713
:1021C000F0E0ED5EF84F80818093BB0085EC86C027
:1021D000809335078EC0E091340781E08E0F8093A5
:1021E00034078091BB00F0E0ED5EF84F8083909162
:1021F0003407809133076EC0E091340781E08E0F81
:10220000809334078091BB00F0E0ED5EF84F80834F
:102210008091360781116DC081E08093110784EAB7
:1022200061C083E08093370710920707CFCF80917A
:102230000707803208F051C0E091070781E08E0F58
:10224000809307078091BB00F0E0E951F94F80834C
:10225000BDCF85EC8093BC001092370780910707B3
:10226000803230F4E0910707F0E0E951F94F108235
:102270006091070770E0E091E506F091E60687EED1
:1022800096E009951092070736C084E080933707DF
:102290001092E4061092E306E091E106F091E20666
:1022A00009958091E306811105C081E08093E306E2
:1022B0001092C106E091E40681E08E0F8093E4065F
:1022C000F0E0EF53F94F80818093BB009091E406DA
:1022D0008091E306981708F479CF85E88093BC00D5
:1022E0000AC085EC8093BC001092370704C010929E
:1022F00035070E94090CFF91EF91BF91AF919F911B
:102300008F917F916F915F914F913F912F910F909E
:102310000FBE0F901F901895EF92FF920F931F938F
:10232000A0910508B0910608ED91FC9111970680E7
:10233000F781E02DEE24E394F12C89019A01AB01A1
:10234000BC01CD0109951F910F91FF90EF90089569
:10235000AB01A0910508B0910608ED91FC91119791
:102360000480F581E02D21E030E0BC01CD0109942D
:10237000EF92FF920F931F93A0910508B09106086A
:10238000ED91FC9111970484F585E02DEE24E39402
:10239000F12C89019A01AB01BC01CD0109951F9176
:1023A0000F91FF90EF9008952F923F924F925F927E
:1023B0006F927F928F929F92AF92BF92CF92DF9255
:1023C000EF92FF920F931F93CF93DF9300D000D033
:1023D00000D0CDB7DEB79E838D837B016A01890172
:1023E00081E090E04C01821A930A88279927821B8A
:1023F000930B9C01220F331F3A832983AD81BE8149
:10240000ED91FC911197400F511F0480F581E02D53
:1024100021E030E0CD010995AD81BE81ED91FC91C7
:102420001197A601401B510B0480F581E02D21E09E
:1024300030E0B701CD010995AD81BE81ED91FC91F0
:102440001197B701600F711F0480F581E02D21E025
:1024500030E0A601CD010995AD81BE81ED91FC91E1
:102460001197B701601B710B0480F581E02D21E00D
:1024700030E0A601CD010995A12CB12CE1E0F0E0FE
:10248000FC83EB83A016B1060CF09FC097FC0AC03A
:102490000150110929813A812E5F3F4F3A832983E8
:1024A000820E931E3FEFA31AB30A8B819C81029682
:1024B0009C838B83880E991E25014E0C5F1CAD8179
:1024C000BE81ED91FC9111970480F581E02D21E012
:1024D00030E03601600E711EA301B201CD010995F5
:1024E00017012A183B08AD81BE81ED91FC9111972F
:1024F0000480F581E02D21E030E0A301B101CD01A0
:102500000995AD81BE81ED91FC9111970480F58113
:10251000E02D21E030E03601601A710AA301B2011A
:10252000CD010995AD81BE81ED91FC91119704809B
:10253000F581E02D21E030E0A301B101CD01099545
:1025400035016C0C7D1CAD81BE81ED91FC91119724
:102550000480F581E02D21E030E0A3012701400E49
:10256000511EB201CD010995AD81BE81ED91FC9165
:1025700011970480F581E02D21E030E0A3011701DF
:10258000201A310AB101CD01099536016A187B087C
:10259000AD81BE81ED91FC9111970480F581E02D14
:1025A00021E030E0A301B201CD010995AD81BE81EA
:1025B000ED91FC9111970480F581E02D21E030E050
:1025C000A301B101CD0109955DCF26960FB6F89410
:1025D000DEBF0FBECDBFDF91CF911F910F91FF9056
:1025E000EF90DF90CF90BF90AF909F908F907F90B3
:1025F0006F905F904F903F902F90089520915B07D0
:1026000090915A07213208F04AC080913707811112
:10261000FCCF32E03093370731E0309336073FEF9D
:10262000309335071092340720933307AAE3B7E0BD
:1026300043E157E0FA013E2F341B321718F43D9165
:102640003193F9CF1092120720911207990F922B14
:102650009093120790911107913061F41092110735
:10266000909112079093BB009091BC0093FDF8CF1E
:1026700095EC01C095EE9093BC0090913707923095
:10268000E1F3909135079F3F79F0809135078032D3
:1026900041F080913507803331F084E005C081E05E
:1026A00003C082E001C083E01092390710925B07FB
:1026B000109238070895CF92DF92EF92FF920F9316
:1026C0001F93CF93DF93C0910508D091060861E274
:1026D000CE010E94B50960E0CE010E94B5096FE706
:1026E000CE010E94B50962E2CE010E94B50960E008
:1026F000CE010E94B50967E0CE010E94B5098C8D1C
:102700008F3F31F1EEA1FFA190818CA5892B8083B1
:10271000E8A5F9A590818DA5892B8083EEA1FFA165
:1027200090818CA58095892380830DE011E0F801CC
:1027300061918F01CE010E948809F5E00D301F07DD
:10274000B1F7EEA1FFA190818CA5892B808332C0C7
:10275000D090B8008CE08093B8000DE011E0CC245C
:10276000C3948A8DC092380780935A071092390714
:1027700010925B0760E489EF97E00E94910CE12CD6
:10278000F12CF801EE0DFF1D608189EF97E00E94AA
:10279000910C8FEFE81AF80AE0E1EE16F10489F7E0
:1027A0000E94FE12005F1F4FF5E00D301F07C9F6B3
:1027B000D092B800DF91CF911F910F91FF90EF90D1
:1027C000DF90CF900895CF92DF92EF92FF92CF9358
:1027D000DF93C0910508D09106086C01990FEE08AF
:1027E000FF08F7FE11C0E881F9810190F081E02D2A
:1027F0006DE2CE01099544275527BA014C195D09B0
:102800006E097F092AE003C02AE0B701A601CE01C4
:10281000DF91CF91FF90EF90DF90CF900C94310E2D
:10282000482F50E060E070E02AE080910508909128
:1028300006080C94310EBC018091050890910608A1
:102840000C941C0E80E094E0EDE0F1E0DF019C01CF
:102850001D9221503040E1F708956FEA80910508FC
:10286000909106080C94B5096EEA80910508909144
:1028700006080C94B509CF93DF9300D000D0CDB7F4
:10288000DEB7789484B5826084BD84B5816084BDF0
:1028900085B5826085BD85B5816085BD80916E00FE
:1028A000816080936E00109281008091810082602F
:1028B000809381008091810081608093810080916C
:1028C00080008160809380008091B100846080935B
:1028D000B1008091B00081608093B00080917A0057
:1028E000846080937A0080917A00826080937A007D
:1028F00080917A008E7F80937A0080917A00806840
:1029000080937A001092C10062E08EE00E943F0F37
:1029100062E08FE00E943F0F61E08AE00E943F0F7B
:1029200061E089E00E943F0F61E083E00E943F0F79
:10293000E0916C07F0916D0792E09083E091680759
:10294000F09169071082E0916A07F0916B0787E6C2
:10295000808310927407E0917007F091710786E010
:102960008083E0916E07F0916F07808180618083A2
:10297000E0916E07F0916F07808188608083E0911D
:102980006E07F0916F07808180688083E0916E0709
:10299000F0916F0780818F7D8083809164008160DA
:1029A0008093640080916400806880936400E0906C
:1029B0000508F0900608D7015B969C935B978DE322
:1029C0005A968C935A975C968C915C978F3F09F43A
:1029D000C3C061E05E968C910E943F0F61E0F701F9
:1029E00080A10E943F0FD70190968C919097082E5E
:1029F000000C990BFC01E453FF4FE491F0E0EE0F63
:102A0000FF1FEE53FF4F25913491F70137A326A303
:102A1000FC01E255FF4FE4919C96EC939C975E96E7
:102A20008C915E97082E000C990BFC01E453FF4F2C
:102A3000E491F0E0EE0FFF1FEE53FF4F259134912C
:102A4000F70131A720A7FC01E255FF4FE4919D96C5
:102A5000EC939D9791968C919197811140C061E084
:102A60005C968C910E943F0F61E0F701858D0E947A
:102A70003F0FD7015D968C915D97082E000C990B46
:102A8000FC01E453FF4FE491F0E0EE0FFF1FEE5323
:102A9000FF4F25913491F70135A324A3FC01E255A2
:102AA000FF4FE4919B96EC939B975C968C915C977F
:102AB000082E000C990BFC01E453FF4FE491F0E069
:102AC000EE0FFF1FEE53FF4F25913491F70133A313
:102AD00022A3FC01E255FF4FE4919A96EC93F70193
:102AE00081A1882309F45FC01FB7F8948091B906CB
:102AF000811127C0E6EDF0E08491E8EBF0E09491DD
:102B0000E82FF0E0EE0FFF1FEC55FF4FA591B491B9
:102B1000EC91E92321F461E08AE00E940F0F61E06B
:102B20008AE00E943F0F8CB580618CBD8CB58064BB
:102B30008CBD61E08DE00E943F0F61E08BE00E9460
:102B40003F0F8091B9068F5F8093B9061FBF80E564
:102B50008CBD81E08DBD27C01092BB051092BA05D7
:102B60001092390710925B071092370781E080932B
:102B700036071092110761E082E10E940F0F61E0B9
:102B800083E10E940F0F8091B9008E7F8093B9007E
:102B90008091B9008D7F8093B90080E28093B80066
:102BA00085E48093BC00D7015F968C9187FD1FC0A0
:102BB00061E00E943F0F61E0F701878D0E940F0FD7
:102BC00061E070E080E090E00E94DA0F60E0D70101
:102BD0005F968C910E940F0F6AE070E080E090E0B9
:102BE0000E94DA0F61E0F701878D0E940F0F6EEAF5
:102BF000C7010E94B50965EDC7010E94B50960E8EB
:102C0000C7010E94B50968EAC7010E94B5096FE3D0
:102C1000C7010E94B50963EDC7010E94B50960E0D4
:102C2000C7010E94B50960E4C7010E94B5096DE8BB
:102C3000C7010E94B50964E1C7010E94B50960E2BD
:102C4000C7010E94B50960E0C7010E94B50961EAA9
:102C5000C7010E94B50968ECC7010E94B5096AED79
:102C6000C7010E94B50962E1C7010E94B50961E888
:102C7000C7010E94B5096FECC7010E94B50969ED53
:102C8000C7010E94B50961EFC7010E94B5096BED4C
:102C9000C7010E94B50960E4C7010E94B50964EA52
:102CA000C7010E94B50966EAC7010E94B5096EE234
:102CB000C7010E94B5096FEAC7010E94B5090E94C9
:102CC0002214E0910508F091060881E0848B81E0F0
:102CD00090E0938B828B918B808B15861486178660
:102CE000168680E094E0EDE0F1E0DF019C011D92AA
:102CF00021503040E1F70E945B13EEEBF5E080E2FB
:102D0000819335E0E23DF307D9F78BE295E04AE0A5
:102D1000480F49838FE195E06CE0680F6A836DE5A9
:102D200070E080E090E00E94DA0F8FE00E94E60EF3
:102D3000892B31F08091BF069091C0060297CCF0AC
:102D40006CE271E080E090E00E94DA0F8091B806BA
:102D50008D5F8093B8068FE00E94E60E2091BF063B
:102D60003091C006892B09F49CC1223031050CF04A
:102D700098C18EE00E94E60E892B09F092C06CE2A9
:102D800071E080E090E00E94DA0F8091B8068D5FDC
:102D90008093B8068EE00E94E60E892B09F081C070
:102DA0001092BE066FEF70E08AE00E947B0F6FEF1B
:102DB00070E089E00E947B0F6FEF70E083E00E947B
:102DC0007B0F0E942D140E9422142AE030E047E17C
:102DD00050E060E270E080910508909106080E9442
:102DE000D41164E170E08FE190E00E94A81163E1EA
:102DF00070E083E290E00E94A8112BE130E043E212
:102E000050E06BE170E08DE190E00E948C110E9437
:102E10005B136EE571E080E090E00E94DA0F23E042
:102E200030E043E050E063E170E08DE190E00E942B
:102E3000B81123E030E043E050E063E170E083E26A
:102E400090E00E94B8116AE170E083E290E00E9495
:102E5000A8110E945B136EE571E080E090E00E9493
:102E6000DA0F8091B806895F8093B8060E94341407
:102E70001092D20584E190E090930C0180930B01B5
:102E8000E0915C07F0915D070190F081E02D6EE725
:102E90008CE597E0099564EB75E08CE597E00E947E
:102EA0001C0E20910B0130910C01253131050CF4E1
:102EB0008AC08091BC059091BD05892B09F083C023
:102EC0008091D205833241F580E28093D2058091D2
:102ED000D40580539091D3059053BAE09B9F800D09
:102EE000112480930A018091D70580539091D605D3
:102EF0009053EAE09E9F800D1124809309018091F8
:102F0000DA0580539091D9059053FAE09F9F800D88
:102F100011248093080157C0853209F054C0809174
:102F2000D3058093BE068823D1F14091D40581E476
:102F300090E0BC01641B7109AB01440F551F440FA5
:102F4000551F41505F4F5093070140930601409138
:102F5000D505DC01A41BB109AD01440F551F440F79
:102F6000551F41505F4F509305014093040140911C
:102F7000D605841B9109880F991F880F991F8150CE
:102F80009F4F90930301809302018091D70590E0B9
:102F900081549109909301018093000110C08FEF3B
:102FA00090E0909303018093020190930501809338
:102FB000040190930701809306011092D20530938B
:102FC000BD052093BC0525313105C4F00091BC0539
:102FD0001091BD05201731078CF00E942214E0915A
:102FE0000508F09106081586148617861686C8010E
:102FF00082549A4F0E941B140E945B130091BC05DF
:103000001091BD0580910B0190910C0108171907D3
:1030100051F40E9434141092D20584E190E0909310
:103020000C0180930B018091BE06882301F1209151
:103030000001309101012115310599F460910601DB
:10304000709107018AE00E947B0F609104017091EA
:10305000050189E00E947B0F6091020170910301DC
:1030600012C08091B80690E0281739073CF76FEF3F
:1030700070E08AE00E947B0F6FEF70E089E00E94B1
:103080007B0F6FEF70E083E00E947B0F0F5F1F4F9D
:103090001093BD050093BC050E94930A0E94B50BD6
:1030A0003ECE223031058CF41092BE066FEF70E0F8
:1030B0008AE00E947B0F6FEF70E089E00E947B0F37
:1030C0006FEF70E083E00E947B0F0E942D1438E2C6
:1030D000C32ED12C4CE1242E312C0E9422140E94AC
:1030E000930A8091BF069091C0068130910509F046
:1030F00093C12EE130E04FE150E06CE370E080914D
:103100000508909106080E94D41100910A0110E070
:103110000D30110514F00C5011096091080170E098
:1031200080E090E00E94DF1F20E030E040E751E4C3
:103130000E94C51E2BED3FE049E450E40E94AC2004
:1031400020E030E040EF51E40E94371F2B013C01AA
:103150000E9419214B015C01C301B2010E94321F80
:103160002B013C0120E030E040EF51E4C501B40107
:103170000E94AC2020E030E048EF51E40E94C61EDF
:103180000E94A91F4B015C0120E030E040EF51E4B8
:10319000C301B2010E94AC2020E030E040E752E4DD
:1031A0000E94C61E0E94A91F9401AB016FE170E04E
:1031B0008CE390E00E948C116091090170E080E046
:1031C00090E00E94DF1F20E030E040E751E40E94E1
:1031D000C51E2BED3FE049E450E40E94AC2020E006
:1031E00030E040EF51E40E94371F2B013C010E9468
:1031F00019214B015C01C301B2010E94321F2B0156
:103200003C0120E030E048ED51E4C501B4010E94EA
:10321000AC2020E030E048EF51E40E94C61E0E943E
:10322000A91F4B015C0120E030E048ED51E4C301EF
:10323000B2010E94AC2020E030E040E752E40E945E
:10324000C61E0E94A91F9401AB016FE170E08CE3E0
:1032500090E00E948C11B801110F880B990B0E940D
:10326000E11F20E030E040E450E40E94C51E2BED59
:103270003FE049E450E40E94AC2020E030E040EC24
:1032800050E40E94371F2B013C010E94192120E0CD
:1032900030E040E951E40E94AC2020E030E048EF0B
:1032A00051E40E94C61E0E94A91F4B015C01C3018C
:1032B000B2010E94321F20E030E040E951E40E9458
:1032C000AC202B013C0120E030E040E752E40E94BA
:1032D000C61E0E94A91F9401AB016FE170E08CE350
:1032E00090E00E948C1120E030E04CE652E4C301F3
:1032F000B2010E94C61E0E94A91F9401AB016FE19A
:1033000070E08DE390E00E948C1110E0612F70E07E
:1033100080E090E00E94DF1F2BED3FE049E450E4A5
:103320000E94AC2020E030E040EC50E40E94371FC7
:103330002B013C010E9419214B015C01C301B20128
:103340000E94321F2B013C0120E030E048ED51E4A7
:10335000C501B4010E94AC2020E030E048EF51E408
:103360000E94C61E0E94A91F4B015C0120E030E0B4
:1033700048ED51E4C301B2010E94AC2020E030E0EE
:1033800040E752E40E94C61E0E94A91FDC01CB0147
:10339000B4010E94A8111F5F1C3009F0B7CFE09163
:1033A0000508F091060887E390E09587848785E01B
:1033B00090E0978786878CE090E00E94E313E0918D
:1033C0000508F0910608AAE3B0E0B587A48722E3D8
:1033D00030E03787268786E090E00E94E313E09193
:1033E0000508F091060861E570E075876487378607
:1033F000268683E090E00E94E313E0910508F091B7
:10340000060884E290E0958784873786268689E0DF
:1034100090E00E94E31310C0029761F460E070E056
:1034200085E090E00E94A81160E070E08EE190E0FD
:103430000E94A8110E942D0A809164008E7F8093C3
:1034400064009EE490937C006AE070E080E090E08D
:103450000E94DA0F80917A00806480937A008091D4
:103460007A0086FDFCCF209178008091790030E0D1
:10347000382B032E000C440B550B60E070E381E108
:1034800090E00E948C1E49015A0180916400816085
:1034900080936400E0910508F091060862857385C9
:1034A0006C5371098085918504970E94A811E09161
:1034B0000508F0910608628573856C537109808553
:1034C000918503970E94A811E0910508F0910608E4
:1034D000628573856B537109808591852BE330E09C
:1034E00046E050E006970E94B811B401645B7A4050
:1034F000072E000C880B990B0E94E11F20E030E0A2
:1035000040E351E40E94371F0E94B01F062F10E0D5
:10351000A0910508B0910608ED91FC9111971A96BB
:103520004D915C911B97401B510B415051091896CE
:103530006D917C911997655071090684F785E02D8E
:10354000EE24E394F12C24E030E0CD010995E091E4
:103550000508F091060862857385655071098085BC
:10356000918507970E94A811E0910508F09106083F
:10357000628573856E5071098085918507970E94D9
:10358000A811E0910508F0910608028513850751FE
:10359000110980859185B80107970E94A811E091D3
:1035A0000508F091060880859185B80108970E946A
:1035B000A811E0910508F091060880859185B80171
:1035C00009970E94A811E0910508F091060862850C
:1035D0007385605271098085918507970E94A811B3
:1035E000E0910508F09106086285738569527109BA
:1035F0008085918507970E94A811E0910508F091B8
:1036000006086285738562537109808591850797E5
:103610000E94A8110E945B136AE570E080E090E0D0
:103620000E94DA0FA1E0CA1AD10809F056CD8EE047
:103630000E94E60E892B89F48091BF069091C00606
:103640000196833091052CF49093C0068093BF06B9
:1036500004C01092C0061092BF068091BF069091E0
:10366000C006029710F40E9434148FE00E94E60E08
:10367000892B09F07ECB6DE775E08CE597E00E9421
:103680007A0E0E942D14809164008E7F80936400D6
:103690001092BD061092BC060E94221480E090E0B9
:1036A0000E949C228093BA0681E090E00E949C22B6
:1036B0008093BB0660E070E083E00E947B0F60E0D7
:1036C00070E089E00E947B0F8091050890910608C8
:1036D000FC01158614861786168664E875E00E943C
:1036E0007A0E6BE875E080910508909106080E94BB
:1036F0007A0E65E975E080910508909106080E94B0
:103700007A0E8091BA069091BB060E94E3130E9444
:103710005B1368EE73E080E090E00E94DA0F6FE7E1
:1037200070E083E00E947B0F60ED77E080E090E046
:103730000E94DA0F6FEF70E083E00E947B0F6FEF63
:1037400070E089E00E947B0F8091B806825E8093D2
:10375000B806C12CD12C212C06E410E0F8E3FC8340
:1037600083E0382E93E0A92EB12C8091BC06909175
:10377000BD0601969093BD068093BC060E9422145C
:10378000E0910508F09106081586148617861686BE
:10379000832D0E94101480EA95E00E941B148091F2
:1037A000BC069091BD060E94E3132C81211102C03A
:1037B00038E33C83E0910508F09106084C81842FA2
:1037C00090E0958784876AE070E07787668783EA70
:1037D00095E00E941B148091BC0680FD03C07C8193
:1037E00071507C832DE230E04FE350E06DE270E0F9
:1037F00080E090E00E948C11093F8FEF180714F4CD
:1038000006E410E0A3E1EA2EA5E0FA2EB1E28B2E49
:10381000912CA401B801D7018D917D010E94F70977
:10382000BFEF8B1A9B0AEDE28E16910491F70250BE
:1038300011090630110509F05EC0FCE0F21508F42C
:1038400050C03A94EFE18E2EE5E09E2EFAE14F2E25
:10385000512CD4016D904D01E12CF12C712CC30140
:103860000E2C02C0959587950A94E2F780FF07C059
:103870006DE270E06E197F09C2010E94A811BFEFCE
:10388000EB1AFB0AE8E0EE16F10449F7F1E04F1AF3
:1038900051082A812811DDCF0E945B1361E089E085
:1038A0000E940F0F60E08AE00E940F0F64EF71E04A
:1038B00080E090E00E94DA0F6FE770E08AE00E94FB
:1038C0007B0F64EF71E080E090E00E94DA0F61E02E
:1038D0008AE00E940F0F8091B806865F8093B80639
:1038E00079C08091BC069091BD06820D911D909388
:1038F000BD068093BC0680E2E82EE2187BE2872EAC
:1039000075E0972E8E2D90E0BC016B5275407B01C7
:10391000A701480D591D62E070E0D4018D914D0161
:103920000E94F709B981B811F3CF8091BC0690913C
:10393000BD06B5010E94561E892B91F48AE2E82E3D
:10394000E218F12CA70162E070E088E30E94F70919
:10395000A7014F5F5F4F62E070E084E20E94F709C9
:103960008091BC069091BD060196B5010E94561E3D
:10397000892B91F48AE2E82EE218F12CA70162E08B
:1039800070E088E70E94F709A7014F5F5F4F62E090
:1039900070E088E00E94F7098091BC069091BD0616
:1039A0000296B5010E94561E892B91F48AE2E82EF8
:1039B000E218F12CA70162E070E080E30E94F709B1
:1039C000A7014F5F5F4F62E070E088E20E94F70955
:1039D0000E945B13E090BC06F090BD06E1EAEE1693
:1039E000EFE0FE06B4F4F9EBEF16FBE0FF069CF403
:1039F0002DEDE21625E0F20684F439EEE31633E00D
:103A0000F3066CF445EFE41641E0F40654F062E38B
:103A100009C06AE007C064E105C06EE103C068E266
:103A200001C066E4C60ED11C70E080E090E00E9408
:103A3000DA0F65E6C616D10424F00E94930AC12C61
:103A4000D12C822D90E0FC013197EF30F10558F533
:103A5000EC5CFF4F0C94AB1E6FE0262E2EC06FE780
:103A600070E089E00E947B0F57E0252E26C04EE0D3
:103A7000242E23C03CE0232E20C02AE0222E1DC08D
:103A800099E0292E1AC088E0282E17C0B6E02B2E08
:103A900014C0A4E02A2E11C061E089E00E940F0F3B
:103AA000F2E02F2E0AC0211008C08FE00E94E60E1F
:103AB000892B09F081C022242394311056CE8091A5
:103AC000BA069091BB068E159F050CF450C06FEF9F
:103AD00070E089E00E947B0FE0910508F0910608F4
:103AE0001586148617861686138A128A118A108AFA
:103AF00065EA75E0CF010E941C0EE0910508F09187
:103B0000060881E090E0938B828B918B808B1586E9
:103B100014861786168687EA95E00E941B1480910A
:103B2000050890910608DC011D961C921E921C97B8
:103B300026E130E01F963C932E931E9769EA75E0CC
:103B40000E947A0E0E945B136CEA7DE080E090E0B8
:103B50000E94DA0F8091B8068D5D8093B80680913F
:103B600064008160809364000E94341402C9F09262
:103B7000BB06E092BA0680E090E00E949C22E81624
:103B800029F06E2D80E090E00E94A4226091BB0697
:103B900081E090E06B830E949C226B81681709F49E
:103BA00096CF81E090E00E94A42291CF9BE0292E45
:103BB00084CF8DE0282E81CF212C7FCFECE5F7E05C
:103BC0001382128288EE93E0A0E0B0E084839583B4
:103BD000A683B78329E435E03183208325EC30E0E8
:103BE0003587248724EC30E03787268720EC30E0C7
:103BF000318B208B21EC30E0338B228B22EC30E0B8
:103C0000358B248B26EC30E0378B268B118E128E71
:103C1000138E148EE9EFF7E013821282848395836A
:103C2000A683B78389E595E0918380838EE290E057
:103C30000E946A21FC011382128220E830E0358361
:103C4000248380E490E0978386833187208793875D
:103C50008287158A158614861786168681E0848BDE
:103C60002FEF3FEF338B228B318B208B868B178A84
:103C7000118E108E29E635E03183208398E0968FEF
:103C800096E0978F95E090A381A3F0930608E093C8
:103C900005080895991B79E004C0991F961708F04C
:103CA000961B881F7A95C9F78095089597FB072E74
:103CB00016F4009407D077FD09D00E94B11E07FCCE
:103CC00005D03EF4909581959F4F0895709561952C
:103CD0007F4F0895A1E21A2EAA1BBB1BFD010DC048
:103CE000AA1FBB1FEE1FFF1FA217B307E407F507AC
:103CF00020F0A21BB30BE40BF50B661F771F881F88
:103D0000991F1A9469F760957095809590959B011D
:103D1000AC01BD01CF010895052E97FB1EF4009460
:103D20000E94A31E57FD07D00E946A1E07FC03D005
:103D30004EF40C94A31E50954095309521953F4F1D
:103D40004F4F5F4F089590958095709561957F4F87
:103D50008F4F9F4F0895EE0FFF1F0590F491E02DB8
:103D60000994AA1BBB1B51E107C0AA1FBB1FA617C2
:103D7000B70710F0A61BB70B881F991F5A95A9F714
:103D800080959095BC01CD0108955058BB27AA2776
:103D90000E94DD1E0C945E200E94252038F00E94B7
:103DA0002C2020F039F49F3F19F426F40C942220A3
:103DB0000EF4E095E7FB0C941C20E92F0E94832071
:103DC00058F3BA17620773078407950720F079F450
:103DD000A6F50C94A5200EF4E0950B2EBA2FA02D7D
:103DE0000B01B90190010C01CA01A0011124FF27A8
:103DF000591B99F0593F50F4503E68F11A16F040A3
:103E0000A22F232F342F4427585FF3CF46953795A1
:103E10002795A795F0405395C9F77EF41F16BA0B66
:103E2000620B730B840BBAF09150A1F0FF0FBB1F14
:103E3000661F771F881FC2F70EC0BA0F621F731F5D
:103E4000841F48F4879577956795B795F7959E3FBA
:103E500008F0B0CF9395880F08F09927EE0F97954B
:103E6000879508950E943520E3950C946F200E9459
:103E70004B1F0C945E200E942C2058F00E9425209D
:103E800040F029F45F3F29F00C941C2051110C9450
:103E9000A6200C9422200E94832068F39923B1F37A
:103EA000552391F3951B550BBB27AA276217730760
:103EB000840738F09F5F5F4F220F331F441FAA1FF4
:103EC000A9F335D00E2E3AF0E0E832D091505040B0
:103ED000E695001CCAF72BD0FE2F29D0660F771F5E
:103EE000881FBB1F261737074807AB07B0E809F044
:103EF000BB0B802DBF01FF2793585F4F3AF09E3FC9
:103F0000510578F00C941C200C94A6205F3FE4F33C
:103F1000983ED4F3869577956795B795F7959F5F0B
:103F2000C9F7880F911D9695879597F90895E1E057
:103F3000660F771F881FBB1F621773078407BA07B6
:103F400020F0621B730B840BBA0BEE1F88F7E09511
:103F500008950E94B01F6894B1110C94A620089592
:103F60000E948B2088F09F5798F0B92F9927B7515E
:103F7000B0F0E1F0660F771F881F991F1AF0BA950D
:103F8000C9F714C0B13091F00E94A520B1E00895A6
:103F90000C94A520672F782F8827B85F39F0B93F98
:103FA000CCF3869577956795B395D9F73EF49095C0
:103FB0008095709561957F4F8F4F9F4F0895E8943E
:103FC00009C097FB3EF490958095709561957F4F61
:103FD0008F4F9F4F9923A9F0F92F96E9BB2793950F
:103FE000F695879577956795B795F111F8CFFAF41F
:103FF000BB0F11F460FF1BC06F5F7F4F8F4F9F4F50
:1040000016C0882311F096E911C0772321F09EE8AD
:10401000872F762F05C0662371F096E8862F70E013
:1040200060E02AF09A95660F771F881FDAF7880FED
:104030009695879597F9089597F99F6780E870E0BE
:1040400060E008959FEF80EC089500240A9416160E
:10405000170618060906089500240A941216130676
:104060001406050608950C9422200E948B20D8F394
:10407000E894E0E0BB279F57F0F02AED3FE049ECE1
:1040800006C0EE0FBB0F661F771F881F28F0B23ADD
:1040900062077307840728F0B25A620B730B840B14
:1040A000E3959A9572F7803830F49A95BB0F661FA6
:1040B000771F881FD2F790480C942321092E039470
:1040C000000C11F4882352F0BB0F40F4BF2B11F405
:1040D00060FF04C06F5F7F4F8F4F9F4F0895EF9336
:1040E000E0FF07C0A2EA2AED3FE049EC5FEB0E9447
:1040F000DD1E0E945E200F90039401FC9058E6E8BC
:10410000F0E00C942F2157FD9058440F551F59F0A3
:104110005F3F71F04795880F97FB991F61F09F3FB4
:1041200079F087950895121613061406551FF2CFDD
:104130004695F1DF08C0161617061806991FF1CF2D
:1041400086957105610508940895E894BB27662754
:104150007727CB0197F908950E94BF200C945E2029
:104160000E94252038F00E942C2020F0952311F089
:104170000C941C200C94222011240C94A6200E9444
:10418000832070F3959FC1F3950F50E0551F629FF8
:10419000F001729FBB27F00DB11D639FAA27F00DA0
:1041A000B11DAA1F649F6627B00DA11D661F829FC7
:1041B0002227B00DA11D621F739FB00DA11D621FAC
:1041C000839FA00D611D221F749F3327A00D611DC9
:1041D000231F849F600D211D822F762F6A2F1124AB
:1041E0009F5750409AF0F1F088234AF0EE0FFF1FDE
:1041F000BB1F661F771F881F91505040A9F79E3F35
:10420000510580F00C941C200C94A6205F3FE4F331
:10421000983ED4F3869577956795B795F795E7958A
:104220009F5FC1F7FE2B880F911D9695879597F993
:1042300008959F930E9435200F9007FCEE5F0C9429
:104240006F209F3F31F0915020F4879577956795C7
:10425000B795880F911D9695879597F908959F9327
:104260008F937F936F93FF93EF939B01AC010E9419
:10427000AC20EF91FF910E9443212F913F914F91EC
:104280005F910C94AC20DF93CF931F930F93FF9219
:10429000EF92DF927B018C01689406C0DA2EEF0169
:1042A0000E94BF20FE01E894A5912591359145918A
:1042B0005591A6F3EF010E94DD1EFE019701A801B2
:1042C000DA9469F7DF90EF90FF900F911F91CF91F3
:1042D000DF910895CF93DF938230910510F482E04F
:1042E00090E0E0910908F0910A0820E030E0C0E099
:1042F000D0E0309711F14081518148175907C0F043
:104300004817590761F482819381209719F09B83A4
:104310008A832BC090930A088093090826C0211530
:10432000310519F04217530718F49A01BE01DF0155
:10433000EF010280F381E02DDCCF2115310509F179
:10434000281B390B2430310590F412968D919C91E5
:1043500013976115710521F0FB019383828304C0DB
:1043600090930A0880930908FD01329644C0FD012C
:10437000E20FF31F81939193225031092D933C93C7
:104380003AC02091070830910808232B41F420916E
:104390000F053091100530930808209307082091ED
:1043A0000D0530910E052115310541F42DB73EB7AD
:1043B0004091110550911205241B350BE09107081F
:1043C000F0910808E217F307A0F42E1B3F0B281703
:1043D000390778F0AC014E5F5F4F2417350748F07E
:1043E0004E0F5F1F509308084093070881939193E5
:1043F00002C0E0E0F0E0CF01DF91CF9108950F938C
:104400001F93CF93DF93009709F48CC0FC01329780
:10441000138212820091090810910A0801151105F2
:1044200081F420813181820F931F20910708309100
:1044300008082817390779F5F0930808E09307086A
:1044400071C0D80140E050E0AE17BF0750F412969B
:104450002D913C911397AD012115310509F1D90139
:10446000F3CF9D01DA013383228360817181860F4E
:10447000971F8217930769F4EC0128813981260F71
:10448000371F2E5F3F4F318320838A819B81938327
:104490008283452B29F4F0930A08E093090842C06F
:1044A0001396FC93EE931297ED01499159919E0159
:1044B000240F351FE217F30771F480819181840F77
:1044C000951F029611969C938E93828193811396E9
:1044D0009C938E931297E0E0F0E0D80112968D91B4
:1044E0009C911397009719F0F8018C01F6CF8D91EC
:1044F0009C9198012E5F3F4F820F931F20910708D8
:10450000309108082817390769F4309729F4109278
:104510000A081092090802C0138212821093080838
:1045200000930708DF91CF911F910F91089581E0CB
:1045300090E0F8940C94B222F999FECF92BD81BD1F
:10454000F89A992780B50895262FF999FECF1FBABA
:1045500092BD81BD20BD0FB6F894FA9AF99A0FBEAC
:0845600001960895F894FFCFC5
:104568000100FF00FF00FF000F0A0A14000000000E
:104578000000000000000000000000000000000033
:104588000000000000000000000000000000000023
:104598000000000000000000000000000000000013
:1045A8000000000000000000000000008080800083
:1045B80000000000000000000000000000008080F3
:1045C800C0C0000000000000000000000000000063
:1045D80000000000000000000000000000000000D3
:1045E80000000000000000000000000000000000C3
:1045F80000000000000000000000000000000000B3
:104608000080C0E0F0F8FCF8E000000000000000C6
:104618000000000000000000000080808080800012
:10462800808000000000808080808000FFFFFF0005
:104638000000008080808000008080000080FFFFF4
:104648008080008080008080808000808000000062
:104658000000808000008C8E84000080F8F8F880CC
:1046680000000000000000000000000000F0F0F072
:10467800F0F0F0F0F0F0F0F0F0E0E0C08000E0FCE6
:10468800FEFFFFFF7FFFFFFFFFFF000000000000AD
:104698000000000000000000FEFFC70101010183C7
:1046A800FFFF00007CFEC70101010183FFFFFF003F
:1046B80038FEC78301010183C7FFFF000001FFFF28
:1046C800010100FFFF0701010100007FFF800000DA
:1046D80000FFFF7F0000FFFFFF000001FFFFFF0159
:1046E80000000000000000000000000000030F3F71
:1046F8007F7FFFFFFFFFFFFFFFE7C7C78F8F9FBFCA
:10470800FFFFC3C0F0FFFFFFFFFFFCFCFCFCFCFC4D
:10471800FCFCF8F8F0F0E0C0000103030303030118
:104728000303000000000103030303010103010068
:104738000000010303030301010303000000030356
:104748000000000303000000000000000103030351
:10475800030301000000010301000000030301003E
:104768000000000000000000000000000000000041
:1047780080C0E0F0F9FFFFFFFFFF3F1F0F87C7F77B
:10478800FFFF1F1F3DFCF8F8F8F87C7DFFFFFFFFD7
:10479800FFFFFFFF7F3F0F070030300000000000E1
:1047A8000000000000000000000000000000000001
:1047B80000FEFEFC000000000000000000000000F9
:1047C80000000000000000000000E0C00000000041
:1047D8000000000000000030300000000000000071
:1047E8000000000000000000000000000000C0FE03
:1047F800FFFFFFFFFFFFFFFFFF7F7F3F1F0F071F29
:104808007FFFFFF8F8FFFFFFFFFFFEF8E000000062
:10481800010000000000000000FEFE000000FCFE99
:10482800FC0C06060EFCF80000F0F81C0E06060646
:104838000CFFFFFF0000FEFE00000000FCFEFC0075
:10484800183C7E66E6CE84000006FFFF0606FCFEE6
:10485800FC0C0606060000FEFE0000C0F8FC4E46F2
:1048680046464E7C7840183C76E6CECC8000000068
:104878000000000000000000000000000000000030
:104888000001070F1F1F3F3F3F3F1F0F030000009E
:104898000000000000000000000F0F0000000F0FD4
:1048A8000F000000000F0F000003070E0C18180C73
:1048B800060F0F0F0000010F0E0C180C0F07010058
:1048C800040E0C180C0F070000000F0F00000F0F4C
:1048D8000F0000000000000F0F00000007070C0C7D
:1048E800181C0C060600040E0C180C0F070000001C
:1048F80000000000000000000000000000000000B0
:10490800000000000000000000000000000000009F
:10491800000000000000000000000000000000008F
:10492800000000000000000000000000000000007F
:10493800000000000000000000000000000000006F
:10494800000000000000000000000000000000005F
:10495800000000000000000000000000000000004F
:104968000000000000000000000000000000000B34
:10497800088000206028A8A8F87838303020201C4B
:104988007C546C547C3C0C1C1C0C3C382C3E3E3833
:104998003E98783C18000103070F1F3F7F0080C036
:1049A800E0F0F8FCFE000000004C0BC80A150BF301
:1049B8000A070B930B00000000910C610C590C4A7C
:1049C8000C3C0C3B0C00000000CB06C80A860471A6
:1049D80008C00C2A032208C007A207240547616DF6
:1049E80065202100202044696E6F003D3D3D3D3D1E
:1049F8003D3D3D3D004869676873636F72653A00E5
:104A08002020002A00310030002047616D65204FCA
:0A4A1800766572000D0A002E000002
:00000001FF
