:100000000C94F1020C9419030C9419030C94190329
:100010000C9419030C9419030C9419030C941903F0
:100020000C9419030C9419030C9419030C941903E0
:100030000C9419030C9419030C9419030C941903D0
:100040000C94AE100C9419030C94AD0F0C94870F04
:100050000C9419030C9419030C9419030C941903B0
:100060000C94F8100C94190305A84CCDB2D44EB9D9
:100070003836A9020C50B9918688083CA6AAAA2A4B
:10008000BE000000803F00000000003E5B4F5B3E72
:100090003E6B4F6B3E1C3E7C3E1C183C7E3C181C4D
:1000A000577D571C1C5E7F5E1C00183C1800FFE744
:1000B000C3E7FF0018241800FFE7DBE7FF30483AEA
:1000C000060E2629792926407F050507407F05254C
:1000D0003F5A3CE73C5A7F3E1C1C08081C1C3E7FD4
:1000E00014227F22145F5F005F5F06097F017F009B
:1000F0006689956A606060606094A2FFA2940804BB
:100100007E040810207E201008082A1C08081C2ADB
:1001100008081E101010100C1E0C1E0C30383E3833
:1001200030060E3E0E06000000000000005F0000DA
:100130000007000700147F147F14242A7F2A12234B
:100140001308646236495620500008070300001C5B
:100150002241000041221C002A1C7F1C2A08083E64
:100160000808008070300008080808080000606077
:100170000020100804023E5149453E00427F4000E5
:1001800072494949462141494D331814127F1027BD
:10019000454545393C4A494931412111090736490C
:1001A000494936464949291E0000140000004034E0
:1001B00000000008142241141414141400412214E5
:1001C0000802015909063E415D594E7C1211127C0C
:1001D0007F494949363E414141227F4141413E7F6D
:1001E000494949417F090909013E414151737F084D
:1001F00008087F00417F41002040413F017F0814F3
:1002000022417F404040407F021C027F7F04081053
:100210007F3E4141413E7F090909063E4151215E31
:100220007F09192946264949493203017F01033FC5
:100230004040403F1F2040201F3F4038403F631454
:1002400008146303047804036159494D43007F4156
:1002500041410204081020004141417F0402010293
:1002600004404040404000030708002054547840B8
:100270007F284444383844444428384444287F384C
:100280005454541800087E090218A4A49C787F08CE
:1002900004047800447D40002040403D007F102849
:1002A000440000417F40007C047804787C0804040A
:1002B000783844444438FC1824241818242418FCA2
:1002C0007C08040408485454542404043F44243C47
:1002D0004040207C1C2040201C3C4030403C4428B6
:1002E0001028444C9090907C4464544C4400083650
:1002F00041000000770000004136080002010204BE
:10030000023C2623263C1EA1A161123A4040207ADD
:100310003854545559215555794122545478422125
:100320005554784020545579400C1E52721239555C
:100330005555593954545459395554545800004559
:100340007C410002457D420001457C407D12111236
:100350007DF0282528F07C545545002054547C54C9
:100360007C0A097F4932494949323A4444443A3285
:100370004A4848303A4141217A3A42402078009D2B
:10038000A0A07D3D4242423D3D4040403D3C24FFD7
:100390002424487E4943662B2FFC2F2BFF0929F686
:1003A00020C0887E090320545479410000447D41D7
:1003B0003048484A32384040227A007A0A0A727D30
:1003C0000D19317D2629292F28262929292630484B
:1003D0004D4020380808080808080808382F10C8B9
:1003E000ACBA2F102834FA00007B000008142A143D
:1003F0002222142A14085500550055AA55AA55AAB8
:10040000FF55FF55FF000000FF00101010FF001403
:100410001414FF001010FF00FF1010F010F014145F
:1004200014FC001414F700FF0000FF00FF1414F484
:1004300004FC141417101F10101F101F1414141F85
:1004400000101010F0000000001F101010101F10FE
:10045000101010F010000000FF10101010101010FD
:100460001010FF10000000FF140000FF00FF00004C
:100470001F10170000FC04F414141710171414F4C0
:1004800004F40000FF00F714141414141414F700FB
:10049000F7141414171410101F101F141414F4144C
:1004A0001010F010F000001F101F0000001F1400BB
:1004B0000000FC140000F010F01010FF10FF1414E6
:1004C00014FF141010101F00000000F010FFFFFFB9
:1004D000FFFFF0F0F0F0F0FFFFFF0000000000FF72
:1004E000FF0F0F0F0F0F3844443844FC4A4A4A3478
:1004F0007E02020606027E027E026355494163388F
:1005000044443C04407E201E2006027E020299A53F
:10051000E7A5991C2A492A1C4C7201724C304A4D9D
:100520004D303048784830BC625A463D3E494949D2
:10053000007E0101017E2A2A2A2A2A44445F44447B
:1005400040514A444040444A51400000FF0103E00A
:1005500080FF000008086B6B083612362436060F41
:10056000090F06000018180000001010003040FFAE
:100570000101001F01011E00191D1712003C3C3C27
:100580003C000000000000000000230026002900BD
:100590000000000800020100000304070000000042
:1005A0000000000000000000240027002A000102D3
:1005B00004081020408001020408102001020408F1
:1005C000102000000000250028002B000404040473
:1005D00004040404020202020202030303030303ED
:1005E0001F1A11241FBECFEFD8E0DEBFCDBF15E02C
:1005F000A0E0B1E0EEE6FDE302C005900D92A43567
:10060000B107D9F728E0A4E5B5E001C01D92A430F8
:10061000B207E1F712E0C1EFD2E004C02197FE017A
:100620000E94D81AC03FD107C9F70E9466140C94E3
:10063000B51E0C940000FC0177FD9AC08085918561
:10064000681779070CF094C057FD92C08285938596
:10065000481759070CF08CC08589823009F07CC09E
:1006600084819581DC01A61BB70BBD016150710926
:1006700086819781FC01E41BF50BAF0141505109C4
:100680000AC0813041F484819581841B950BAB01B4
:10069000BC01615071092130310529F008F1223087
:1006A0003105E1F10895FA0157FD3796A3E0F5957C
:1006B000E795AA95E1F7F695FE2FEE27F795E795D2
:1006C0006E0F7F1FFB01E050FF4F4770552781E001
:1006D00090E001C0880F4A95EAF79081892B3AC0D3
:1006E000FA0157FD379623E0F595E7952A95E1F74E
:1006F000F695FE2FEE27F795E7956E0F7F1FFB010E
:10070000E050FF4F4770552781E090E001C0880F0F
:100710004A95EAF78095908189231CC0FA0157FD1C
:10072000379683E0F595E7958A95E1F7F695FE2FE4
:10073000EE27F795E7956E0F7F1FFB01E050FF4F07
:100740004770552781E090E001C0880F4A95EAF78D
:100750009081892780830895833009F092CF868124
:100760009781861B970BBA01AC014150510993CF79
:10077000089508952F923F924F925F926F927F92C9
:100780008F929F92AF92BF92CF92DF92EF92FF92A1
:100790000F931F93CF93DF93CDB7DEB76B970FB651
:1007A000F894DEBF0FBECDBF4C015A8349831F832F
:1007B0000E83FD82EC82CB82DC0158964D915C91D8
:1007C00059974115510509F0A5C018968D919C9136
:1007D0001997681779070CF05AC11A968D919C9158
:1007E0001B97E981FA81E817F9070CF050C1D12C69
:1007F000CB013B81F6E03F9F800D911D112418161F
:1008000019060CF044C1C60133E0880F991F3A95D0
:10081000E1F749815A81840F951F181619060CF0CB
:1008200036C157968C91811103C0203B08F02F5F91
:1008300055E0259F900111247E876D875B01212C57
:10084000C901861B970B99878887A981BA81189659
:10085000BB87AA87B5E02B1641F0E885F985EA0D3C
:10086000FB1DEA57FF4F349001C0312C69807A801C
:10087000230130FE12C0D401ED91FC91BB81B13057
:1008800031F40480F581E02D2E813F8118C006846B
:10089000F785E02DEE80FF801CC0EC81FD812E816C
:1008A0003F81E217F307E1F0D401ED91FC91BB81A8
:1008B000B13051F40480F581E02D2C813D81A301FC
:1008C000B501C40109950CC00684F785E02DEC80C4
:1008D000FD8086019601A2016D857E85C401099582
:1008E0003694EFEF6E1A7E0A4C0C5D1C2A853B8510
:1008F0006216730609F0BDCF23943FEFA31AB30A23
:100900004D855E854C0D5D1D5E874D8756E0251239
:10091000A1CFBDC0FA01349634913297859194915C
:10092000231BA7E02A9F800D911D1124FA01259118
:1009300034913A8B298BFC0125903490FC0132963E
:1009400034913887319644914C873196E491FC017B
:100950003596A491319684915B81523050F06A2E85
:100960000A2E000C7708E82F082E000CFF0BFB87DF
:10097000EA87FB81CF2ED12C6C9C90016D9C300DB1
:100980007C9C300D1124A901460F571F588B4F87AF
:100990001C82A12CEA2FAA0FFF0B3B016E0E7F1EBB
:1009A0005885650F711DDB01AE0FBF1FBF8BAE8B6E
:1009B000E981FA81E80FF11D87FDFA95F98FE88F3B
:1009C0009C85A91608F063C08A2D90E04A855B8556
:1009D000480F591F4C9D90014D9D300D5C9D300D71
:1009E0001124A981BA81A20FB31FBE87AD877B8E68
:1009F0006A8E4F845888BC81B619BB8BE88DF98DFF
:100A0000E80FF91FFD8BEC8B8B89FA8D8F0F2A8DE8
:100A10003B8D4E895F892417350799F1877041F422
:100A2000C1010196E989FA89E20DF31DB4901C0118
:100A3000B7FE1EC0D401ED91FC91BB81B13061F4D1
:100A40000480F581E02D2E813F814C895D896A8D7E
:100A50007B8DC40109950CC00684F785E02DEE80DE
:100A6000FF80860196014D855E85B201C40109951E
:100A7000BB0CEA8DFB8D3196FB8FEA8F4C0C5D1C15
:100A8000C3CF5C818885580F5C83A39499CF6B9604
:100A90000FB6F894DEBF0FBECDBFDF91CF911F918F
:100AA0000F91FF90EF90DF90CF90BF90AF909F900D
:100AB0008F907F906F905F904F903F902F90089510
:100AC000AF92BF92CF92EF92FF920F931F93CF936B
:100AD000DF93EC01262F888D998D009709F042C095
:100AE0006A3069F42C898E859F8538E0239F800DBC
:100AF000911D11249F878E871D861C86ACC06D308A
:100B000009F4A9C08E898823C1F03C898C859D8514
:100B100046E0349F800D911D112448855985841726
:100B200095075CF01D861C868E859F85E8E03E9FBC
:100B3000800D911D11249F878E87EA88FB88088984
:100B400019894E855F856C857D85CC88CE010E9494
:100B5000BA032C898C859D85F6E02F9F800D911D11
:100B6000112441C06A3079F41D861C862C89FC0151
:100B70003696E4918E859F852E9F800D911D1124C0
:100B80009F878E8768C06D3009F465C0AC014C5FEB
:100B90005F4FFA013491631708F45DC03196E49118
:100BA000E61708F458C0FA014491362F341BFC01B3
:100BB0003296A590B490F7E03F9FA00CB11C112491
:100BC000F501329634913196E491332311F0E1111D
:100BD0000DC0F5013496E4912C898C859D85E29FAA
:100BE000800D911D11249D878C8735C0F5013596A8
:100BF00044915E89552311F16C89E32FF0E0E40FF5
:100C0000F11D47FDFA956E9FD0016F9FB00D112425
:100C10004C855D854A0F5B1FE885F9854E175F0798
:100C20006CF01D861C86FC013696E4918E859F85AE
:100C30006E9F800D911D11249F878E87EA88FB8807
:100C4000088919894E855F856C857D85CC88CE01A4
:100C50000E94BA03BECF81E090E0DF91CF911F9157
:100C60000F91FF90EF90CF90BF90AF900895EF92CB
:100C7000FF920F931F93DC01ED91FC9111971A964F
:100C80000D911C911B9718962D913C9119970684F4
:100C9000F785E02D7B0140E050E060E070E00995D1
:100CA0001F910F91FF90EF9008956F927F928F9216
:100CB0009F92AF92BF92CF92DF92EF92FF920F93EB
:100CC0001F93CF93DF936C015A014801EB013B0165
:100CD000620E731EC615D70574F4D601ED91FC9112
:100CE0000084F185E02D87019401A501BE01C601B4
:100CF00009952196EFCFDF91CF911F910F91FF9032
:100D0000EF90DF90CF90BF90AF909F908F907F90AB
:100D10006F900895EF92FF920F931F93DC01ED9176
:100D2000FC91260F371F215031090680F781E02DF5
:100D300078018A0109951F910F91FF90EF90089516
:100D4000EF92FF920F931F937801DC01ED91FC91DC
:100D5000240F351F8901015011090680F781E02D0C
:100D60009B0109951F910F91FF90EF9008956F924D
:100D70007F928F929F92AF92BF92CF92DF92EF922B
:100D8000FF920F931F93CF93DF93EC014B015A0116
:100D900069013801E881F9810284F385E02D87013A
:100DA0000995E881F981A501460D571D415051096A
:100DB0000284F385E02D9601B401CE010995E88106
:100DC000F9810084F185E02D9301A501B401CE01E4
:100DD0000995E881F981C80CD91CB60161507109E7
:100DE0000084F185E02D9301A501CE010995DF91E5
:100DF000CF911F910F91FF90EF90DF90CF90BF9018
:100E0000AF909F908F907F906F9008952F923F9218
:100E10004F925F926F927F928F929F92AF92BF920A
:100E2000CF92DF92EF92FF920F931F93CF93DF93B6
:100E300000D01F92CDB7DEB74C017B836A836A0175
:100E4000590117019801241B350B37FF03C0319559
:100E500021953109C5014A815B81841B950B97FF60
:100E600003C091958195910951E0598382179307A9
:100E700014F019820BC09A2D8B2D5801092F182FB1
:100E80009A818B81DB82CA82C92ED82E8A819B816E
:100E9000A816B9065CF49C2D8D2D6801092F182F1A
:100EA0009A818B81BB82AA82A92EB82E2501AA81A4
:100EB000BB814A1A5B0A38016C187D0877FE03C0B3
:100EC000719461947108720157FE03C0BFEFEB1A71
:100ED000FB0AF594E794C016D1061CF00FEF1FEF44
:100EE0001FC001E010E01CC0D401ED91FC91B9815C
:100EF0000480F581E02D9101BB23C1F04A815B8123
:100F0000B601C4010995E618F708F7FE04C0C00E43
:100F1000D11EE40CF51CEA81FB813196FB83EA8348
:100F20004A815B81A416B506FCF604C0A6016A815D
:100F30007B81E7CF0F900F900F90DF91CF911F91A2
:100F40000F91FF90EF90DF90CF90BF90AF909F9068
:100F50008F907F906F905F904F903F902F9008956B
:100F60001F93CF93DF93EC01162F8C8D8F3F09F1E8
:100F7000EEA1FFA190818CA5892B8083E8A5F9A51E
:100F800090818DA5809589238083EEA1FFA190811A
:100F90008CA5809589238083CE010E942612EEA124
:100FA000FFA190818CA5892B8083DF91CF911F9128
:100FB00008958A8D91E090933107809353071092A2
:100FC00032071092540760E082EF97E00E94860C8F
:100FD000612F82EF97E00E94860CDF91CF911F91E5
:100FE0000C94D313CF92DF92EF92FF920F931F9343
:100FF000CF93DF93EC0161E20E94B00760E0CE0185
:101000000E94B0076FE7CE010E94B00762E2CE01F6
:101010000E94B00760E0CE010E94B00767E0CE01F9
:101020000E94B0078C8D8F3F31F1EEA1FFA190811E
:101030008CA5892B8083E8A5F9A590818DA5892BA6
:101040008083EEA1FFA190818CA580958923808368
:1010500000E011E0F80161918F01CE010E9426129B
:10106000F5E000301F07B1F7EEA1FFA190818CA53C
:10107000892B808332C0D090B8008CE08093B80078
:1010800000E011E0CC24C3948A8DC0923107809394
:101090005307109232071092540760E482EF97E0F2
:1010A0000E94860CE12CF12CF801EE0DFF1D6081F1
:1010B00082EF97E00E94860C8FEFE81AF80AE0E1D1
:1010C000EE16F10489F70E94D313005F1F4FF5E07D
:1010D00000301F07C9F6D092B800DF91CF911F9161
:1010E0000F91FF90EF90DF90CF900895CF93DF9313
:1010F000C4E1D0E085E597E00E940A0B892B09F452
:1011000070C080910305909104058E35914024F0C4
:10111000D0930405C093030585E597E00E94E80A93
:101120009EE3980F923030F3982F8A3099F46FEA4B
:101130008091FE079091FF070E94B007E0910305A0
:10114000F0910405E855FA4F10821092A70510920D
:10115000A605D0CF20910305309104058F39C1F049
:10116000803BC1F08D3BC1F0823BC1F0843AC1F0BD
:10117000863BC1F08C3BC1F08438C1F08639C1F0A8
:101180008C39C1F08B3AC1F08B3BB9F49FEA15C0A2
:1011900090EE13C098EF11C09BEA0FC09DEF0DC0F9
:1011A00094E80BC094E909C091E807C09EE805C027
:1011B00099E903C09AE901C09EEAF901E855FA4F9E
:1011C0009083C90101968E3521E092072CF490930B
:1011D0000405809303058ECFD0930405C0930305C7
:1011E00089CFDF91CF910895EF92FF920F931F93D4
:1011F000DC01ED91FC910484F585E02DEE24E3946F
:10120000F12C09951F910F91FF90EF900895DC014B
:10121000ED91FC910480F581E02D21E030E009940E
:10122000EF92FF920F931F93DC01ED91FC910680EA
:10123000F781E02DEE24E394F12C09951F910F9195
:10124000FF90EF900895CF92DF92EF92FF920F936D
:101250001F93CF93DF938EE480937C006AE070E06D
:1012600080E090E00E94741080917A008064809306
:101270007A0080917A0086FDFCCF209178008091E1
:10128000790030E0382B032E000C440B550B60E046
:1012900070E381E190E00E94B91AB901330F880B25
:1012A000990B0E94FA1B20E030E84BE355E40E94C2
:1012B000DE1A20E030E044E652E40E94C51C20E043
:1012C00030E04AEA53E40E94501B0E94C91BC62E1C
:1012D000D12CE091FE07F091FF07C285C951D0E003
:1012E0006931C8F4808591854E9795878487D78723
:1012F000C6876CE4CF010E946B0F6FE68091FE07FA
:101300009091FF070E946B0F67E78091FE07909115
:10131000FF070E946B0F8091FE079091FF07FC0171
:10132000428553854C53510960857185645071091C
:101330000E9407098091FE079091FF07FC014285FA
:1013400053854C53510960857185635071090E9422
:1013500007098091FE079091FF07FC0142855385A4
:101360004B53510960857185665071090BE310E09C
:1013700026E030E00E94F408A091FE07B091FF073C
:10138000ED91FC9111971A964D915C911B974C1918
:101390005D094150510918966D917C9119976550DE
:1013A00071090684F785E02DEE24E394F12C860183
:1013B00024E030E0CD0109958091FE079091FF0770
:1013C000FC016085718567507109AE010E940709B3
:1013D0008091FE079091FF07FC0160857185665042
:1013E0007109AE01DF91CF911F910F91FF90EF90A6
:1013F000DF90CF900C940709E091FE07F091FF0772
:1014000083E0848B158614868CE090E0978786872E
:10141000809102058A3028F460E070E0CF010E94DC
:1014200030144091020550E060E070E02AE08091C5
:10143000FE079091FF070E946012E091FE07F09175
:10144000FF0782E0848B84E290E0958784878FE0B9
:1014500090E0978786876AE3CF010E946B0FE09147
:10146000FE07F091FF0783E0848B8EE290E0958782
:1014700084878CE090E097878687809101058A3089
:1014800028F460E070E0CF010E9430144091010523
:1014900050E060E070E02AE08091FE079091FF0745
:1014A0000E946012E091FE07F091FF0781E0848BBB
:1014B0008EE190E09587848788E290E09787868721
:1014C000809100058A3028F460E070E0CF010E942E
:1014D00030144091000550E060E070E02AE0809117
:1014E000FE079091FF070E9460126EE28091FE0756
:1014F0009091FF070E946B0F4091060750E060E05B
:1015000070E02AE08091FE079091FF070C94601232
:10151000809106078F5F809306078A3068F16AE042
:101520000E948B1A20910005820F809300059093F2
:1015300006078C3350F06CE30E948B1A2091010552
:10154000820F8093010590930005809101058C33F3
:1015500050F06CE30E948B1A20910205820F809359
:1015600002059093010580910205883128F068E119
:101570000E948B1A909302050895CF92DF92EF920A
:10158000FF920F931F93CF93DF936C017A018B012E
:10159000C0E0D0E0CE15DF0589F0D8016D918D0156
:1015A000D601ED91FC910190F081E02DC6010995E5
:1015B000892B11F47E0102C02196ECCFC701DF9187
:1015C000CF911F910F91FF90EF90DF90CF900895F2
:1015D000FC01918D828D981761F0828DDF01A80F3B
:1015E000B11D5D968C91928D9F5F9F73928F90E05D
:1015F00008958FEF9FEF0895FC01918D828D9817CC
:1016000031F0828DE80FF11D858D90E008958FEF08
:101610009FEF0895FC01918D228D892F90E0805CD1
:101620009F4F821B91098F739927089585E597E055
:101630000E940A0B21E0892B09F420E0822F0895F3
:10164000FC01848DDF01A80FB11DA35ABF4F2C915F
:10165000848D90E001968F739927848FA689B7892E
:101660002C93A089B1898C9180648C93938D848D07
:10167000981306C00288F389E02D80818F7D8083D6
:101680000895EF92FF920F931F93CF93DF93EC0196
:1016900081E0888F9B8D8C8D981305C0E889F9892E
:1016A000808185FD24C0F62E0B8D10E00F5F1F4F4B
:1016B0000F731127E02E8C8DE8120CC00FB607FCBB
:1016C000FACFE889F989808185FFF5CFCE010E94A4
:1016D000200BF1CF8B8DFE01E80FF11DE35AFF4F78
:1016E000F0820B8FEA89FB898081806207C0EE89D6
:1016F000FF896083E889F98980818064808381E043
:1017000090E0DF91CF911F910F91FF90EF9008959E
:10171000CF93DF93EC01888D8823C9F0EA89FB8998
:10172000808185FD05C0A889B9898C9186FD0FC08F
:101730000FB607FCF5CF808185FFF2CFA889B98964
:101740008C9185FFEDCFCE010E94200BE7CFDF917A
:10175000CF9108950E94160B81110C94760808957C
:10176000833081F028F4813099F08230A1F008951F
:101770008730A9F08830B9F08430D1F480918000AE
:101780008F7D03C0809180008F77809380000895C3
:1017900084B58F7702C084B58F7D84BD0895809114
:1017A000B0008F7703C08091B0008F7D8093B00030
:1017B00008953FB7F8948091A0059091A105A0915C
:1017C000A205B091A30526B5A89B05C02F3F19F02F
:1017D0000196A11DB11D3FBFBA2FA92F982F8827B1
:1017E000820F911DA11DB11DBC01CD0143E0660F0B
:1017F000771F881F991F4A95D1F7089585ED80932B
:10180000BC008091BC0084FDFCCF1092300708958D
:1018100040917605262F30E0240F311D213231050D
:10182000DCF4209130072430C9F4FC0180E090E022
:10183000861758F4309176052191DC01AC5ABA4FE5
:10184000A30FB11D2C930196F3CF80917605680FFD
:101850006093760580E0089581E0089582E0089520
:10186000089581E090E03091A5052091A4053217FC
:1018700010F480E090E09195819591090895809110
:10188000A5059091A405891730F48F5F8093A50575
:1018900080E090E008958FEF9FEF08958091A40578
:1018A00090E02091A505821B91090895CF92DF92C7
:1018B000EF92FF920F931F93CF93DF937C01262F1C
:1018C000972F8A0180913107882391F0C62FD72F57
:1018D0006E01C40ED51ECC15DD0571F06991D701DE
:1018E000ED91FC910190F081E02DC7010995F3CFB6
:1018F000642F822F0E94080CC801DF91CF911F91A5
:101900000F91FF90EF90DF90CF900895CF93DF93EA
:101910001F92CDB7DEB76983209131072223D1F022
:1019200020915407203240F021E030E0FC01338365
:10193000228380E090E015C080913207E82FF0E02C
:10194000ED5CF84F998190838F5F8093320780938D
:10195000540705C061E0CE0101960E94080C81E0A9
:1019600090E00F90DF91CF9108950F931F93CF9345
:10197000DF93DC0155968C915597823071F083305E
:1019800009F1813009F08CC01496ED91FC91159706
:10199000E41BF50BE21BF30B20C01496ED91FC91B8
:1019A0001597CF01861B970BBC01615071091696E4
:1019B000ED91FC911797CF01841B950BAC01421B55
:1019C000530B6EC01696ED91FC911797CF01861BB5
:1019D000970BBC0161507109FA0177FD1BC1169686
:1019E0008D919C911797681779070CF013C1F7FF39
:1019F00004C02E0F3F1FE0E0F0E014968D919C9103
:101A00001597AF01420F531F841795071CF49C01D3
:101A10002E1B3F0B121613060CF0FCC0CB0177FDFA
:101A2000079643E0959587954A95E1F79695982F07
:101A3000882797958795E80FF91FE050FF4F67704B
:101A4000772781E090E001C0880F6A95EAF7482F78
:101A50000130110541F088F00230110509F0DAC0BB
:101A60002E0F3F1F15C02E0F3F1FE217F30709F47B
:101A7000D1C08081842B8193F8CF80952E0F3F1F9A
:101A8000E217F30709F4C6C0908198239193F8CF29
:101A9000E217F30709F4BEC0808184278193F8CF51
:101AA00077FDB8C014968D919C91159768177907AA
:101AB0000CF0B0C057FF04C0240F351F40E050E0C9
:101AC00016968D919C911797FA01E20FF31F8E17CE
:101AD0009F071CF49C01241B350B121613060CF0F7
:101AE00099C0A22F842F86958695869590E8899F28
:101AF000600D711D1124FB01E050FF4F4770A9F1EB
:101B000098E0941B492F50E0EA01CD5EDA4F8881BE
:101B1000291790F4421B51092FEF30E002C0359590
:101B200027954A95E2F782230130110541F068F0CC
:101B30000230110589F06EC00130110519F42081C1
:101B4000822B0CC00130110520F480952081822366
:101B500005C00230110531F4208182278083A91746
:101B600008F458C0A91BE058FF4FA83048F10230D4
:101B7000110559F4EF018A2F988190959883C058E8
:101B8000DF4F88508830C0F730C081E00130110548
:101B900009F080E08195EF019A2F8883C058DF4FCC
:101BA00098509830D0F788EF8A0F8695869586955D
:101BB00090E8899FE00DF11D1124E058FF4FA770B8
:101BC000AA2341F1B0E0A55FBA4F8C910130110515
:101BD00029F038F002301105D1F01CC09081892B1A
:101BE00018C080959081892314C088EF8A0F86954C
:101BF0008695869590E8899FE00DF11D1124E058A7
:101C0000FF4FA77039F0B0E0A55FBA4F8C9190817B
:101C100089278083DF91CF911F910F9108950F93B2
:101C20001F93CF93DF93DC01FB0155968C91559761
:101C3000823081F0833019F1813051F514968D9105
:101C40009C911597BC01641B750BAB014150510968
:101C5000BF0181C014966D917C911597CB018E1BAD
:101C60009F0BFC0116968D919C911797BC01641BEC
:101C7000750BAB0141505109E21BF30B09C01696DD
:101C80006D917C9117976E1B7F0B621B730B63C06A
:101C900057FD1CC116968D919C91179748175907AF
:101CA0000CF014C1F7FF04C02E0F3F1FE0E0F0E07E
:101CB00014968D919C911597BF01620F731F861723
:101CC00097071CF49C012E1B3F0B121613060CF0F9
:101CD000FDC0CA0157FD079663E0959587956A9503
:101CE000E1F79695982F882797958795E80FF91F24
:101CF000E050FF4F4770552781E090E001C0880F0A
:101D00004A95EAF7482F0130110541F088F002307A
:101D1000110509F0DBC02E0F3F1F15C02E0F3F1F0E
:101D2000E217F30709F4D2C08081842B8193F8CFA6
:101D300080952E0F3F1FE217F30709F4C7C090816B
:101D400098239193F8CFE217F30709F4BFC080817D
:101D500084278193F8CF57FDB9C014968D919C913B
:101D60001597481759070CF0B1C077FF04C0260F2C
:101D7000371F60E070E016968D919C911797FB01DC
:101D8000E20FF31F8E179F071CF49C01261B370BD5
:101D9000121613060CF09AC0A22F862F86958695F0
:101DA000869590E8899F400D511D1124FA01E0505D
:101DB000FF4F6770A9F198E0961B492F50E0EA01A8
:101DC000CD5EDA4F8881291790F4421B51092FEF1D
:101DD00030E002C0359527954A95E2F7822301301D
:101DE000110541F068F00230110589F06FC0013033
:101DF000110519F42081822B0CC00130110520F44B
:101E000080952081822305C00230110531F42081A4
:101E100082278083A91708F459C0A91BE058FF4FF7
:101E2000A83048F10230110559F4EF018A2F98814A
:101E300090959883C058DF4F88508830C0F731C0E4
:101E400081E00130110509F080E08195EF019A2FC2
:101E50008883C058DF4F98509830D0F788EF8A0FAA
:101E600086958695869560E8869FE00DF11D112484
:101E7000E058FF4FA770AA2349F1B0E0A55FBA4F21
:101E80008C910130110529F038F002301105D9F09C
:101E90001DC09081892B03C0809590818923808308
:101EA00015C088EF8A0F86958695869570E8879F7E
:101EB000E00DF11D1124E058FF4FA77039F0B0E09C
:101EC000A55FBA4F8C9190818927E9CFDF91CF919F
:101ED0001F910F910895DC01ED91FC910190F0812B
:101EE000E02D09946115710579F0FB010190002046
:101EF000E9F73197AF01461B570BDC01ED91FC91DF
:101F00000280F381E02D099480E090E008951F9213
:101F10000F920FB60F9211242F933F934F935F931D
:101F20006F937F938F939F93AF93BF93EF93FF93A1
:101F300085E597E00E94200BFF91EF91BF91AF9153
:101F40009F918F917F916F915F914F913F912F91D1
:101F50000F900FBE0F901F9018951F920F920FB603
:101F60000F9211242F938F939F93EF93FF93E09100
:101F70006507F09166078081E0916B07F0916C072F
:101F800082FD12C0908180916E078F5F8F732091C8
:101F90006F07821751F0E0916E07F0E0EB5AF84FAF
:101FA000958F80936E0701C08081FF91EF919F9183
:101FB0008F912F910F900FBE0F901F901895CF9378
:101FC000DF93282F30E0F901E057FA4F8491F901AF
:101FD000E255FA4FD491F901E453FA4FC491CC235E
:101FE00091F081110E94B00BEC2FF0E0EE0FFF1F7B
:101FF000EA57FA4FA591B491EC91ED2381E090E07E
:1020000021F480E002C080E090E0DF91CF9108955C
:102010001F93CF93DF93282F30E0F901E057FA4F59
:102020008491F901E255FA4FD491F901E453FA4F42
:10203000C491CC23C9F0162F81110E94B00BEC2F54
:10204000F0E0EE0FFF1FEE53FA4FA591B4918FB75A
:10205000F894111105C09C91ED2FE095E92302C081
:10206000EC91ED2BEC938FBFDF91CF911F910895F1
:10207000CF93DF9390E0FC01E255FA4F2491FC01ED
:10208000E453FA4F8491882361F190E0880F991FFF
:10209000FC01EC55FA4FC591D491FC01EE53FA4F77
:1020A000A591B491611109C09FB7F89488812095DA
:1020B00082238883EC912E230BC0623061F49FB79A
:1020C000F8943881822F809583238883EC912E2B7E
:1020D0002C939FBF06C08FB7F894E8812E2B2883DE
:1020E0008FBFDF91CF9108958F929F92AF92BF9251
:1020F000CF92DF92EF92FF926B017C010E94D90B8D
:102100004B015C01C114D104E104F104F1F00E941F
:10211000D90BDC01CB0188199909AA09BB09883EB2
:102120009340A105B10570F321E0C21AD108E1087E
:10213000F10888EE880E83E0981EA11CB11CC11422
:10214000D104E104F10419F7DDCFFF90EF90DF90A7
:10215000CF90BF90AF909F908F9008951F920F9255
:102160000FB60F9211242F933F938F939F93AF93AA
:10217000BF9380919C0590919D05A0919E05B09183
:102180009F0530919B0526E0230F2D3720F4029602
:10219000A11DB11D05C029E8230F0396A11DB11D86
:1021A00020939B0580939C0590939D05A0939E058D
:1021B000B0939F058091A0059091A105A091A205E3
:1021C000B091A3050196A11DB11D8093A005909328
:1021D000A105A093A205B093A305BF91AF919F91D4
:1021E0008F913F912F910F900FBE0F901F901895D8
:1021F0001F920F920FB60F9211242F933F934F937C
:102200005F936F937F938F939F93AF93BF93EF935E
:10221000FF938091B900887F803609F49CC068F5EF
:10222000883209F45BC090F4803109F454C038F46A
:10223000882309F4F6C0883009F44DC0F6C088310F
:1022400009F44CC0803209F45DC0EFC0803409F459
:1022500068C048F4803309F455C0883309F0E5C0FC
:1022600080932E07D8C0803509F44FC0883509F413
:102270005DC0883409F0D9C0D6C0883909F4C7C018
:10228000A8F4883709F467C038F4883609F463C0C5
:10229000803709F460C0C9C0883809F4B8C08039F3
:1022A00009F45FC0803809F0C0C05BC0803B09F40E
:1022B00086C038F4803A09F466C0883A09F47FC0D1
:1022C000B4C0803C09F4A7C0883C09F4A4C0883B92
:1022D00009F48AC0AAC080910B0710C090912D0705
:1022E00080912C07981770F5E0912D0781E08E0FF3
:1022F00080932D07F0E0E45FF84F80818093BB006E
:1023000085EC86C080932E078EC0E0912D0781E07A
:102310008E0F80932D078091BB00F0E0E45FF84FB3
:10232000808390912D0780912C076EC0E0912D073E
:1023300081E08E0F80932D078091BB00F0E0E45F79
:10234000F84F808380912F0781116DC081E08093C9
:102350000A0784EA61C083E08093300710929A05EF
:10236000CFCF80919A05803208F051C0E0919A0554
:1023700081E08E0F80939A058091BB00F0E0E658D3
:10238000FA4F8083BDCF85EC8093BC00109230075C
:1023900080919A05803230F4E0919A05F0E0E65899
:1023A000FA4F108260919A0570E0E0917805F09103
:1023B00079058AE795E0099510929A0536C084E080
:1023C000809330071092770510927605E09174059E
:1023D000F0917505099580917605811105C081E020
:1023E0008093760510925405E091770581E08E0F79
:1023F00080937705F0E0EC5AFA4F80818093BB0020
:102400009091770580917605981708F479CF85E843
:102410008093BC000AC085EC8093BC00109230070A
:1024200004C010922E070E94FE0BFF91EF91BF9106
:10243000AF919F918F917F916F915F914F913F915C
:102440002F910F900FBE0F901F901895FC0181A146
:10245000882339F06EBD00000DB407FEFDCF8EB5A8
:10246000089528E030E090E8A4A1B5A14C9183A59F
:10247000809584238C93A2A1B3A182A5492F4623E2
:1024800019F04C91842B03C04C91809584238C933C
:10249000A4A1B5A14C9183A5842B8C939695215032
:1024A000310911F7089580E094E0E0E0F1E0DF0108
:1024B0009C011D9221503040E1F708950E94B01E0A
:1024C0004F925F926F927F92EF92FF920F931F93C2
:1024D000CF93DF93CDB7DEB7A1970FB6F894DEBFE9
:1024E0000FBECDBF7C01FA01CB0119A2223008F446
:1024F0002AE08E010F5D1F4F422E512C612C712C52
:10250000BF01A30192010E94971AF901CA0101506B
:1025100011096A3014F4605D01C0695CD8016C93E4
:10252000232B242B252B61F7B801C7010E94720FC2
:10253000A1960FB6F894DEBF0FBECDBFDF91CF914D
:102540001F910F91FF90EF907F906F905F904F9051
:1025500008952F923F924F925F926F927F928F9247
:102560009F92AF92BF92CF92DF92EF92FF920F9322
:102570001F93CF93DF9300D000D000D0CDB7DEB74C
:102580009E838D837B016A01890181E090E04C018B
:10259000821A930A88279927821B930B9C01220F8A
:1025A000331F3A832983AD81BE81ED91FC91119750
:1025B000400F511F0480F581E02D21E030E0CD0176
:1025C0000995AD81BE81ED91FC911197A601401B4B
:1025D000510B0480F581E02D21E030E0B701CD0101
:1025E0000995AD81BE81ED91FC911197B701600F06
:1025F000711F0480F581E02D21E030E0A601CD01BE
:102600000995AD81BE81ED91FC911197B701601BD9
:10261000710B0480F581E02D21E030E0A601CD01B1
:102620000995A12CB12CE1E0F0E0FC83EB83A0162E
:10263000B1060CF09FC097FC0AC001501109298116
:102640003A812E5F3F4F3A832983820E931E3FEFDC
:10265000A31AB30A8B819C8102969C838B83880E7C
:10266000991E25014E0C5F1CAD81BE81ED91FC9140
:1026700011970480F581E02D21E030E03601600EF5
:10268000711EA301B201CD01099517012A183B085B
:10269000AD81BE81ED91FC9111970480F581E02D13
:1026A00021E030E0A301B101CD010995AD81BE81EA
:1026B000ED91FC9111970480F581E02D21E030E04F
:1026C0003601601A710AA301B201CD010995AD81ED
:1026D000BE81ED91FC9111970480F581E02D21E000
:1026E00030E0A301B101CD01099535016C0C7D1CD1
:1026F000AD81BE81ED91FC9111970480F581E02DB3
:1027000021E030E0A3012701400E511EB201CD01AE
:102710000995AD81BE81ED91FC9111970480F58101
:10272000E02D21E030E0A3011701201A310AB101A8
:10273000CD01099536016A187B08AD81BE81ED9106
:10274000FC9111970480F581E02D21E030E0A30198
:10275000B201CD010995AD81BE81ED91FC9111973A
:102760000480F581E02D21E030E0A301B101CD012D
:1027700009955DCF26960FB6F894DEBF0FBECDBF8C
:10278000DF91CF911F910F91FF90EF90DF90CF904D
:10279000BF90AF909F908F907F906F905F904F9081
:1027A0003F902F9008952091540790915307213224
:1027B00008F04AC0809130078111FCCF32E030939D
:1027C000300731E030932F073FEF30932E07109200
:1027D0002D0720932C07A3E3B7E04CE057E0FA0164
:1027E0003E2F341B321718F43D913193F9CF1092DC
:1027F0000B0720910B07990F922B90930B07909149
:102800000A07913061F410920A0790910B07909398
:10281000BB009091BC0093FDF8CF95EC01C095EE04
:102820009093BC00909130079230E1F390912E0785
:102830009F3F79F080912E07803241F080912E07E2
:10284000803331F084E005C081E003C082E001C044
:1028500083E01092320710925407109231070895C6
:10286000CF92DF92EF92FF920F931F93CF93DF935C
:102870006B01770FEE08FF08F7FE1BC0EC016DE25D
:102880000E946B0F8C0144275527BA014C195D0932
:102890006E097F092AE0CE010E946012800F911F0D
:1028A000DF91CF911F910F91FF90EF90DF90CF902C
:1028B00008952AE0B701A601DF91CF911F910F91F2
:1028C000FF90EF90DF90CF900C946012789484B5D5
:1028D000826084BD84B5816084BD85B5826085BD1C
:1028E00085B5816085BD80916E00816080936E00AA
:1028F000109281008091810082608093810080919C
:10290000810081608093810080918000816080934C
:1029100080008091B10084608093B1008091B0000C
:1029200081608093B00080917A00846080937A0007
:1029300080917A00826080937A0080917A008E7F05
:1029400080937A0080917A00806880937A00109258
:10295000C10062E08EE00E94381062E08FE00E94C9
:10296000381061E08AE00E94381061E08AE00E943D
:102970000810E0916507F091660792E09083E0917E
:102980006107F09162071082E0916307F09164079C
:1029900087E6808310926D07E0916907F0916A07DE
:1029A00086E08083E0916707F0916807808180610D
:1029B0008083E0916707F091680780818860808359
:1029C000E0916707F0916807808180688083E091DB
:1029D0006707F091680780818F7D80838091640014
:1029E00088608093640080916400806480936400B8
:1029F00080916400816080936400809164008068AD
:102A000080936400C091FE07D091FF079B8F8DE3F8
:102A10008A8F8C8D8F3F09F4A7C061E08E8D0E9454
:102A2000381061E088A10E94381088A1082E000C9F
:102A3000990BFC01E453FA4FE491F0E0EE0FFF1F15
:102A4000EE53FA4F259134913FA32EA3FC01E2559A
:102A5000FA4FE491ECA78E8D082E000C990BFC0127
:102A6000E453FA4FE491F0E0EE0FFF1FEE53FA4FFC
:102A70002591349139A728A7FC01E255FA4FE4913A
:102A8000EDA789A1811134C061E08C8D0E943810BE
:102A900061E08D8D0E9438108D8D082E000C990BF1
:102AA000FC01E453FA4FE491F0E0EE0FFF1FEE5308
:102AB000FA4F259134913DA32CA3FC01E255FA4F26
:102AC000E491EBA78C8D082E000C990BFC01E453CC
:102AD000FA4FE491F0E0EE0FFF1FEE53FA4F25910D
:102AE00034913BA32AA3FC01E255FA4FE491EAA7F3
:102AF00089A1882309F45FC0FFB6F8948091070785
:102B0000811127C0E6EDF5E08491E8EBF5E09491C2
:102B1000E82FF0E0EE0FFF1FEC55FA4FA591B491AE
:102B2000EC91E92321F461E08AE00E94081061E061
:102B30008AE00E9438108CB580618CBD8CB58064B1
:102B40008CBD61E08DE00E94381061E08BE00E9456
:102B50003810809107078F5F80930707FFBE80E5DD
:102B60008CBD81E08DBD27C01092A5051092A405F3
:102B700010923207109254071092300781E0809330
:102B80002F0710920A0761E082E10E94081061E0BD
:102B900083E10E9408108091B9008E7F8093B90074
:102BA0008091B9008D7F8093B90080E28093B80056
:102BB00085E48093BC008F8D87FD1BC061E00E947F
:102BC000381061E08F8D0E94081061E070E080E0B5
:102BD00090E00E94741060E08F8D0E9408106AE0FF
:102BE00070E080E090E00E94741061E08F8D0E94A0
:102BF00008106EEACE010E94B00765EDCE010E947A
:102C0000B00760E8CE010E94B00768EACE010E94DA
:102C1000B0076FE3CE010E94B00763EDCE010E94C2
:102C2000B00760E0CE010E94B00760E4CE010E94D0
:102C3000B0076DE8CE010E94B00764E1CE010E94AA
:102C4000B00760E2CE010E94B00760E0CE010E94B2
:102C5000B00761EACE010E94B00768ECCE010E9485
:102C6000B0076AEDCE010E94B00762E1CE010E947A
:102C7000B00761E8CE010E94B0076FECCE010E9460
:102C8000B00769EDCE010E94B00761EFCE010E944E
:102C9000B0076BEDCE010E94B00760E4CE010E9448
:102CA000B00764EACE010E94B00766EACE010E9436
:102CB000B0076EE2CE010E94B0076FEACE010E941B
:102CC000B007CE010E94531281E08C8B81E090E02E
:102CD0009B8B8A8B998B888B1D861C861F861E86F4
:102CE000809164008E7F809364000E94230980910C
:102CF00064008160809364008091FE079091FF07DB
:102D00000E94F20768EB7BE080E090E00E94741084
:102D10008091FE079091FF070E945312E8EAF5E0C8
:102D200080E2819325E0EC3BF207D9F79CE1C92EC4
:102D3000D12C24E2222E312C62E670E080E090E07B
:102D40000E9474108FE00E94DF0F892B21F0809188
:102D500009078230B0F06CE271E080E090E00E9400
:102D60007410809106078D5F809306078FE00E94A4
:102D7000DF0F20910907892B09F44CC1223008F09C
:102D800049C18EE00E94DF0F892B09F0ACC06CE2D4
:102D900071E080E090E00E947410809106078D5FE2
:102DA000809306078EE00E94DF0F892B09F09BC0FD
:102DB0001092080761E08AE00E9408106FEA809193
:102DC000FE079091FF070E94B0078091FE07909147
:102DD000FF070E9453122AE030E047E150E060E232
:102DE00070E08091FE079091FF070E94A91244E1D4
:102DF00050E06FE170E08091FE079091FF070E9424
:102E0000070943E150E063E270E08091FE07909192
:102E1000FF070E9407090BE110E023E230E04BE1DD
:102E200050E06DE170E08091FE079091FF070E94F5
:102E300010098091FE079091FF070E94F2076EE54E
:102E400071E080E090E00E94741003E010E023E065
:102E500030E043E150E06DE170E08091FE07909139
:102E6000FF070E94F40823E030E043E150E063E212
:102E700070E08091FE079091FF070E94F4084AE1FC
:102E800050E063E270E08091FE079091FF070E949E
:102E900007098091FE079091FF070E94F2076EE5F7
:102EA00071E080E090E00E94741080910607895FD5
:102EB000809306076EEA8091FE079091FF070E94BB
:102EC000B0071092BC0584E190E0909304058093D4
:102ED00003056EE785E597E00E946B0F6AE085E5E4
:102EE00097E00E946B0F2091030530910405253176
:102EF00031050CF45DC08091A6059091A705892B42
:102F0000B1F58091BC05833241F580E28093BC0528
:102F10008091BE0580539091BD0590534AE0949FE7
:102F2000800D1124809302058091C10580539091FA
:102F3000C0059053EAE09E9F800D11248093010507
:102F40008091C40580539091C3059053FAE09F9FF0
:102F5000800D1124809300050AC0853241F48091D0
:102F6000BD05809308073093A7052093A605C0915F
:102F7000A605D091A7052C173D07D4F08091FE0738
:102F80009091FF070E9453128091FE079091FF07D6
:102F9000FC011586148617861686BE0168557A4F81
:102FA0000E94720F8091FE079091FF070E94F20726
:102FB000C091A605D091A7058091030590910405C5
:102FC000C817D90779F46EEA8091FE079091FF0740
:102FD0000E94B0071092BC0584E190E09093040534
:102FE0008093030580910807882331F080910607BC
:102FF000811102C060E001C061E08AE00E94081017
:103000002196D093A705C093A6050E94880A0E9426
:10301000AA0B92CE223030F41092080761E08AE0C9
:103020000E9408106FEA8091FE079091FF070E94AE
:10303000B007809164008E7F8093640088E2E82E60
:10304000F12C8091FE079091FF070E9453120E947D
:10305000880A80910907813009F0A5C12EE130E08E
:103060004FE150E06CE370E08091FE079091FF0724
:103070000E94A912C0910205D0E0CD30D1050CF01C
:103080002C976091000570E080E090E00E94F81BB2
:1030900020E030E040E751E40E94DE1A2BED3FE0F3
:1030A00049E450E40E94C51C20E030E040EF51E4C8
:1030B0000E94501B2B013C010E94321D4B015C0100
:1030C000C301B2010E944B1B2B013C0120E030E008
:1030D00040EF51E4C501B4010E94C51C20E030E07E
:1030E00048EF51E40E94DF1A0E94C21B4B015C01B1
:1030F00020E030E040EF51E4C301B2010E94C51C62
:1031000020E030E040E752E40E94DF1A0E94C21B38
:1031100084019B014FE150E06CE370E08091FE0779
:103120009091FF070E9410096091010570E080E016
:1031300090E00E94F81B20E030E040E751E40E945C
:10314000DE1A2BED3FE049E450E40E94C51C20E06C
:1031500030E040EF51E40E94501B2B013C010E94E3
:10316000321D4B015C01C301B2010E944B1B2B01BC
:103170003C0120E030E048ED51E4C501B4010E947B
:10318000C51C20E030E048EF51E40E94DF1A0E94A5
:10319000C21B4B015C0120E030E048ED51E4C3016B
:1031A000B2010E94C51C20E030E040E752E40E94DA
:1031B000DF1A0E94C21B84019B014FE150E06CE3C7
:1031C00070E08091FE079091FF070E941009BE01F8
:1031D000DD0F880B990B0E94FA1B20E030E040E4E1
:1031E00050E40E94DE1A2BED3FE049E450E40E94D7
:1031F000C51C20E030E040EC50E40E94501B2B0145
:103200003C010E94321D20E030E040E951E40E9480
:10321000C51C20E030E048EF51E40E94DF1A0E9414
:10322000C21B4B015C01C301B2010E944B1B20E099
:1032300030E040E951E40E94C51C2B013C0120E034
:1032400030E040E752E40E94DF1A0E94C21B840172
:103250009B014FE150E06CE370E08091FE0790919C
:10326000FF070E94100920E030E04CE652E4C30161
:10327000B2010E94DF1A0E94C21B9B014FE150E085
:103280006DE370E08091FE079091FF070E941009A6
:10329000C0E06C2F70E080E090E00E94F81B2BED06
:1032A0003FE049E450E40E94C51C20E030E040ECDF
:1032B00050E40E94501B2B013C010E94321D4B0127
:1032C0005C01C301B2010E944B1B2B013C0120E0B9
:1032D00030E048ED51E4C501B4010E94C51C20E076
:1032E00030E048EF51E40E94DF1A0E94C21B4B01FC
:1032F0005C0120E030E048ED51E4C301B2010E94DE
:10330000C51C20E030E040E752E40E94DF1A0E9432
:10331000C21BA4018091FE079091FF070E9407093C
:10332000CF5FCC3009F0B5CF8091FE079091FF07B9
:1033300027E330E0FC013587248725E030E037873C
:1033400026876CE070E00E9430148091FE07909117
:10335000FF072AE330E0FC013587248722E330E0D1
:103360003787268766E070E00E9430148091FE0760
:103370009091FF0721E530E0FC0135872487D7864F
:10338000C68663E070E00E9430148091FE07909141
:10339000FF07FC0135862486D786C68669E070E083
:1033A0000E94301418C08230A1F440E050E065E083
:1033B00070E08091FE079091FF070E94070940E0AE
:1033C00050E06EE170E08091FE079091FF070E944F
:1033D00007090E94FC090E9423098091FE07909131
:1033E000FF070E94F2076AE570E080E090E00E942B
:1033F0007410F1E0EF1AF10809F023CE8091640017
:103400008160809364008FE00E94DF0F892B51F46C
:10341000809109078F5F833018F48093090702C0F9
:103420001092090780910907823008F0AACC6EEA51
:103430008091FE079091FF070E94B007A2CCE5E5BE
:10344000F7E01382128288EE93E0A0E0B0E084837C
:103450009583A683B7832FE135E03183208325EC64
:1034600030E03587248724EC30E03787268720EC4E
:1034700030E0318B208B21EC30E0338B228B22EC3F
:1034800030E0358B248B26EC30E0378B268B118E89
:10349000128E138E148EE2EFF7E013821282848371
:1034A0009583A683B7838FE295E0918380838EE234
:1034B00090E00E94831DFC011382128220E830E01C
:1034C0003583248380E490E0978386833187208747
:1034D00093878287158A158614861786168681E05B
:1034E000848B2FEF3FEF338B228B318B208B868B9E
:1034F000178A118E108E98E0968F96E0978F95E040
:1035000090A381A38FE395E091838083F093FF07DD
:10351000E093FE070895991B79E004C0991F961760
:1035200008F0961B881F7A95C9F780950895A1E247
:103530001A2EAA1BBB1BFD010DC0AA1FBB1FEE1F2D
:10354000FF1FA217B307E407F50720F0A21BB30B78
:10355000E40BF50B661F771F881F991F1A9469F7F4
:1035600060957095809590959B01AC01BD01CF0150
:103570000895052E97FB1EF400940E94D01A57FD63
:1035800007D00E94971A07FC03D04EF40C94D01A6F
:1035900050954095309521953F4F4F4F5F4F08957F
:1035A00090958095709561957F4F8F4F9F4F0895AF
:1035B000EE0FFF1F0590F491E02D09945058BB27A2
:1035C000AA270E94F61A0C94771C0E943E1C38F021
:1035D0000E94451C20F039F49F3F19F426F40C9406
:1035E0003B1C0EF4E095E7FB0C94351CE92F0E9480
:1035F0009C1C58F3BA17620773078407950720F0DD
:1036000079F4A6F50C94BE1C0EF4E0950B2EBA2F9F
:10361000A02D0B01B90190010C01CA01A0011124D8
:10362000FF27591B99F0593F50F4503E68F11A1684
:10363000F040A22F232F342F4427585FF3CF469515
:1036400037952795A795F0405395C9F77EF41F1637
:10365000BA0B620B730B840BBAF09150A1F0FF0F01
:10366000BB1F661F771F881FC2F70EC0BA0F621FED
:10367000731F841F48F4879577956795B795F795DD
:103680009E3F08F0B0CF9395880F08F09927EE0F72
:103690009795879508950E944E1CE3950C94881C7D
:1036A0000E94641B0C94771C0E94451C58F00E94D9
:1036B0003E1C40F029F45F3F29F00C94351C511159
:1036C0000C94BF1C0C943B1C0E949C1C68F3992317
:1036D000B1F3552391F3951B550BBB27AA2762170E
:1036E0007307840738F09F5F5F4F220F331F441F1B
:1036F000AA1FA9F335D00E2E3AF0E0E832D091504F
:103700005040E695001CCAF72BD0FE2F29D0660F3B
:10371000771F881FBB1F261737074807AB07B0E87E
:1037200009F0BB0B802DBF01FF2793585F4F3AF084
:103730009E3F510578F00C94351C0C94BF1C5F3FE4
:10374000E4F3983ED4F3869577956795B795F7950A
:103750009F5FC9F7880F911D9695879597F90895F2
:10376000E1E0660F771F881FBB1F6217730784078E
:10377000BA0720F0621B730B840BBA0BEE1F88F79D
:10378000E09508950E94C91B6894B1110C94BF1C68
:1037900008950E94A41C88F09F5798F0B92F99278C
:1037A000B751B0F0E1F0660F771F881F991F1AF02C
:1037B000BA95C9F714C0B13091F00E94BE1CB1E0B7
:1037C00008950C94BE1C672F782F8827B85F39F0B6
:1037D000B93FCCF3869577956795B395D9F73EF4C5
:1037E00090958095709561957F4F8F4F9F4F08956D
:1037F000E89409C097FB3EF490958095709561958B
:103800007F4F8F4F9F4F9923A9F0F92F96E9BB2740
:103810009395F695879577956795B795F111F8CFBC
:10382000FAF4BB0F11F460FF1BC06F5F7F4F8F4F27
:103830009F4F16C0882311F096E911C0772321F01D
:103840009EE8872F762F05C0662371F096E8862FB5
:1038500070E060E02AF09A95660F771F881FDAF70C
:10386000880F9695879597F9089597F99F6780E84F
:1038700070E060E008959FEF80EC089500240A94C2
:103880001616170618060906089500240A9412163B
:1038900013061406050608950C943B1C0E94A41CF4
:1038A000D8F3E894E0E0BB279F57F0F02AED3FE023
:1038B00049EC06C0EE0FBB0F661F771F881F28F06C
:1038C000B23A62077307840728F0B25A620B730B8F
:1038D000840BE3959A9572F7803830F49A95BB0F74
:1038E000661F771F881FD2F790480C943C1D092E45
:1038F0000394000C11F4882352F0BB0F40F4BF2B4B
:1039000011F460FF04C06F5F7F4F8F4F9F4F08958A
:10391000EF93E0FF07C0A2EA2AED3FE049EC5FEB3E
:103920000E94F61A0E94771C0F90039401FC905895
:10393000E8E6F0E00C94481D57FD9058440F551FE1
:1039400059F05F3F71F04795880F97FB991F61F021
:103950009F3F79F087950895121613061406551F98
:10396000F2CF4695F1DF08C0161617061806991F04
:10397000F1CF86957105610508940895E894BB27F9
:1039800066277727CB0197F908950E94D81C0C94DD
:10399000771C0E943E1C38F00E94451C20F09523A5
:1039A00011F00C94351C0C943B1C11240C94BF1C7E
:1039B0000E949C1C70F3959FC1F3950F50E0551F1A
:1039C000629FF001729FBB27F00DB11D639FAA2774
:1039D000F00DB11DAA1F649F6627B00DA11D661FC3
:1039E000829F2227B00DA11D621F739FB00DA11DE4
:1039F000621F839FA00D611D221F749F3327A00D9E
:103A0000611D231F849F600D211D822F762F6A2F39
:103A100011249F5750409AF0F1F088234AF0EE0F9E
:103A2000FF1FBB1F661F771F881F91505040A9F7CB
:103A30009E3F510580F00C94351C0C94BF1C5F3FD9
:103A4000E4F3983ED4F3869577956795B795F79507
:103A5000E7959F5FC1F7FE2B880F911D969587957F
:103A600097F908959F930E944E1C0F9007FCEE5FFC
:103A70000C94881C9F3F31F0915020F487957795E6
:103A80006795B795880F911D9695879597F9089535
:103A90009F938F937F936F93FF93EF939B01AC0161
:103AA0000E94C51CEF91FF910E945C1D2F913F91D8
:103AB0004F915F910C94C51CDF93CF931F930F938D
:103AC000FF92EF92DF927B018C01689406C0DA2EA0
:103AD000EF010E94D81CFE01E894A5912591359133
:103AE00045915591A6F3EF010E94F61AFE01970148
:103AF000A801DA9469F7DF90EF90FF900F911F9182
:103B0000CF91DF910895CF93DF938230910510F428
:103B100082E090E0E0910208F091030820E030E0BC
:103B2000C0E0D0E0309711F140815181481759072A
:103B3000C0F04817590761F482819381209719F0EA
:103B40009B838A832BC0909303088093020826C02E
:103B50002115310519F04217530718F49A01BE01D7
:103B6000DF01EF010280F381E02DDCCF211531056B
:103B700009F1281B390B2430310590F412968D91F0
:103B80009C9113976115710521F0FB01938382834A
:103B900004C09093030880930208FD01329644C04C
:103BA000FD01E20FF31F81939193225031092D9370
:103BB0003C933AC02091000830910108232B41F436
:103BC00020910705309108053093010820930008E3
:103BD00020910505309106052115310541F42DB7D9
:103BE0003EB74091090550910A05241B350BE09121
:103BF0000008F0910108E217F307A0F42E1B3F0B19
:103C00002817390778F0AC014E5F5F4F241735074E
:103C100048F04E0F5F1F50930108409300088193B6
:103C2000919302C0E0E0F0E0CF01DF91CF910895E1
:103C30000F931F93CF93DF93009709F48CC0FC017F
:103C40003297138212820091020810910308011525
:103C5000110581F420813181820F931F209100088A
:103C6000309101082817390779F5F0930108E0939E
:103C7000000871C0D80140E050E0AE17BF0750F413
:103C800012962D913C911397AD012115310509F143
:103C9000D901F3CF9D01DA013383228360817181E1
:103CA000860F971F8217930769F4EC0128813981E9
:103CB000260F371F2E5F3F4F318320838A819B81E0
:103CC00093838283452B29F4F0930308E093020841
:103CD00042C01396FC93EE931297ED0149915991CE
:103CE0009E01240F351FE217F30771F48081918143
:103CF000840F951F029611969C938E9382819381D7
:103D000013969C938E931297E0E0F0E0D801129600
:103D10008D919C911397009719F0F8018C01F6CFC3
:103D20008D919C9198012E5F3F4F820F931F2091A0
:103D30000008309101082817390769F4309729F4F1
:103D4000109203081092020802C01382128210938C
:103D5000010800930008DF91CF911F910F91089502
:0E3D600081E090E0F8940C94B51EF894FFCF2B
:103D6E000000000000000000000000000000000045
:103D7E000000000000000000000000000000000035
:103D8E000000000000000000000000000000000025
:103D9E000000000000000000000000000000008095
:103DAE008080000000000000000000000000000005
:103DBE00008080C0C0000000000000000000000075
:103DCE0000000000000000000000000000000000E5
:103DDE0000000000000000000000000000000000D5
:103DEE0000000000000000000000000000000000C5
:103DFE000000000080C0E0F0F8FCF8E000000000D9
:103E0E000000000000000000000000000080808024
:103E1E00808000808000000000808080808000FF15
:103E2E00FFFF000000008080808000008080000086
:103E3E0080FFFF80800080800080808080008080F6
:103E4E000000000000808000008C8E84000080F84E
:103E5E00F8F88000000000000000000000000000E4
:103E6E00F0F0F0F0F0F0F0F0F0F0F0F0E0E0C08004
:103E7E0000E0FCFEFFFFFF7FFFFFFFFFFF000000E3
:103E8E000000000000000000000000FEFFC701015E
:103E9E00010183FFFF00007CFEC70101010183FFCA
:103EAE00FFFF0038FEC78301010183C7FFFF00003B
:103EBE0001FFFF010100FFFF0701010100007FFF6D
:103ECE0080000000FFFF7F0000FFFFFF000001FFEA
:103EDE00FFFF0100000000000000000000000000D5
:103EEE00030F3F7F7FFFFFFFFFFFFFFFE7C7C78F78
:103EFE008F9FBFFFFFC3C0F0FFFFFFFFFFFCFCFC67
:103F0E00FCFCFCFCFCF8F8F0F0E0C000010303033D
:103F1E000303010303000000000103030303010177
:103F2E00030100000001030303030101030300006A
:103F3E000003030000000303000000000000000166
:103F4E00030303030301000000010301000000034B
:103F5E00030100000000000000000000000000004F
:103F6E0000000080C0E0F0F9FFFFFFFFFF3F1F0FD2
:103F7E0087C7F7FFFF1F1F3DFCF8F8F8F87C7DFFA1
:103F8E00FFFFFFFFFFFFFF7F3F0F070030300000F6
:103F9E000000000000000000000000000000000013
:103FAE0000000000FEFEFC0000000000000000000B
:103FBE0000000000000000000000000000E0C00053
:103FCE000000000000000000000030300000000083
:103FDE0000000000000000000000000000000000D3
:103FEE0000C0FEFFFFFFFFFFFFFFFFFF7F7F3F1FB2
:103FFE000F071F7FFFFFF8F8FFFFFFFFFFFEF8E040
:10400E00000000010000000000000000FEFE0000A5
:10401E0000FCFEFC0C06060EFCF80000F0F81C0E70
:10402E000606060CFFFFFF0000FEFE00000000FC6F
:10403E00FEFC00183C7E66E6CE84000006FFFF06FE
:10404E0006FCFEFC0C0606060000FEFE0000C0F894
:10405E00FC4E4646464E7C7840183C76E6CECC80EA
:10406E000000000000000000000000000000000042
:10407E000000000001070F1F1F3F3F3F3F1F0F03B0
:10408E000000000000000000000000000F0F000004
:10409E00000F0F0F000000000F0F000003070E0CA3
:1040AE0018180C060F0F0F0000010F0E0C180C0F36
:1040BE00070100040E0C180C0F070000000F0F0074
:1040CE00000F0F0F0000000000000F0F0000000790
:1040DE00070C0C181C0C060600040E0C180C0F070F
:1040EE0000000000000000000000000000000000C2
:1040FE0000000000000000000000000000000000B2
:10410E0000000000000000000000000000000000A1
:10411E000000000000000000000000000000000091
:10412E000000000000000000000000000000000081
:10413E000000000000000000000000000000000071
:10414E000000000000000000000000000000000061
:10415E000000000000000000000000000000000051
:10416E000F0A0A1400000004088000000103070F64
:10417E001F3F7F0080C0E0F0F8FCFE000000004111
:10418E000BBD0A0A0BE80AFC0A880B000000008629
:10419E000C560C4E0C3F0C310C300C000000006025
:1041AE0005BD0A1B030607B50C0F0EB706550637DD
:0441BE0006B903003B
:107800000C94343C0C94513C0C94513C0C94513CE1
:107810000C94513C0C94513C0C94513C0C94513CB4
:107820000C94513C0C94513C0C94513C0C94513CA4
:107830000C94513C0C94513C0C94513C0C94513C94
:107840000C94513C0C94513C0C94513C0C94513C84
:107850000C94513C0C94513C0C94513C0C94513C74
:107860000C94513C0C94513C11241FBECFEFD8E036
:10787000DEBFCDBF11E0A0E0B1E0EAE8FFE702C063
:1078800005900D92A230B107D9F712E0A2E0B1E065
:1078900001C01D92AD30B107E1F70E942D3D0C945F
:1078A000C33F0C94003C982F95959595959595958B
:1078B000905D8F708A307CF0282F295A8091C0000B
:1078C00085FFFCCF9093C6008091C00085FFFCCF60
:1078D0002093C6000895282F205DF0CF982F809127
:1078E000C00085FFFCCF9093C6000895EF92FF92F1
:1078F0000F931F93EE24FF2487018091C00087FD22
:1079000017C00894E11CF11C011D111D81E2E8164D
:1079100081EAF80687E0080780E0180770F3E09135
:107920000401F091050109958091C00087FFE9CF1E
:107930008091C6001F910F91FF90EF9008950E94D3
:10794000763C982F8091C00085FFFCCF9093C600B5
:1079500091362CF490330CF09053892F089597555D
:10796000892F08951F930E949F3C182F0E949F3CCF
:107970001295107F810F1F9108951F93182F882350
:1079800021F00E94763C1150E1F71F9108951F935A
:10799000182F0E94763C803249F0809103018F5F5E
:1079A000809303018530C1F01F9108958091C0003C
:1079B00085FFFCCF84E18093C6008091C00085FFE5
:1079C000FCCF1093C6008091C00085FFFCCF80E102
:1079D0008093C6001F910895E0910401F091050184
:1079E00009951F9108950E94763C803241F0809164
:1079F00003018F5F80930301853081F008958091AA
:107A0000C00085FFFCCF84E18093C6008091C00058
:107A100085FFFCCF80E18093C6000895E0910401CA
:107A2000F09105010995089548EC50E08823A1F0F4
:107A30002D9A28EE33E0FA013197F1F721503040CA
:107A4000D1F72D9828EE33E0FA013197F1F7215064
:107A50003040D1F7815061F708953F924F925F9285
:107A60006F927F928F929F92AF92BF92CF92DF924E
:107A7000EF92FF920F931F93CF93DF93000082E06A
:107A80008093C00080E18093C4001092C50088E11B
:107A90008093C10086E08093C2005098589A259A3E
:107AA00081E00E94143D24E1F22E9EE1E92E85E959
:107AB000D82E0FE0C02E10E1B12EAA24A394B1E479
:107AC0009B2EA6E58A2EF2E57F2EE0E26E2E79E46B
:107AD000572E63E5462E50E5352E0E94763C8033C6
:107AE000B1F18133B9F1803409F46FC0813409F404
:107AF00076C0823409F485C0853409F488C08035A5
:107B000031F1823521F1813511F1853509F485C0D6
:107B1000863509F48DC0843609F496C0843709F49B
:107B200003C1853709F472C1863709F466C08091B4
:107B300003018F5F80930301853079F6E0910401A2
:107B4000F091050109950E94763C803351F60E9420
:107B5000F33CC3CF0E94763C803249F78091C0004D
:107B600085FFFCCFF092C6008091C00085FFFCCF5E
:107B70009092C6008091C00085FFFCCF8092C60025
:107B80008091C00085FFFCCF7092C6008091C0003C
:107B900085FFFCCF6092C6008091C00085FFFCCFBE
:107BA0005092C6008091C00085FFFCCF4092C60075
:107BB0008091C00085FFFCCF3092C6008091C0004C
:107BC00085FFFCCFB092C60088CF0E94763C8638F5
:107BD00008F4BDCF0E94763C0E94F33C7ECF0E9409
:107BE000763C803809F49CC0813809F40BC1823896
:107BF00009F430C1883909F48FC080E00E94C73C85
:107C00006CCF84E10E94BD3C0E94F33C66CF85E0CE
:107C10000E94BD3C0E94F33C60CF0E94763C809362
:107C200006010E94763C809307010E94F33C55CFE9
:107C30000E94763C803309F411C183E00E94BD3C70
:107C400080E00E94C73C49CF0E94763C80930902A5
:107C50000E94763C8093080280910C028E7F809374
:107C60000C020E94763C853409F409C18091080217
:107C700090910902892B89F000E010E00E94763C87
:107C8000F801E85FFE4F80830F5F1F4F809108026D
:107C9000909109020817190788F30E94763C8032F8
:107CA00009F045CF80910C0280FFF5C0609106017C
:107CB00070910701660F771F7093070160930601AB
:107CC000A0910802B09109021097C9F0E8E0F1E034
:107CD0009B01AD014E0F5F1FF999FECF32BD21BD53
:107CE000819180BDFA9AF99A2F5F3F4FE417F5070B
:107CF00099F76A0F7B1F70930701609306018091CB
:107D0000C00085FFFCCFF092C6008091C00085FFC7
:107D1000FCCFB092C600E1CE83E00E94C73CDDCE2E
:107D200082E00E94C73CD9CE0E94763C8093090233
:107D30000E94763C80930802809106019091070191
:107D4000880F991F90930701809306010E94763C4B
:107D5000853409F49AC080910C028E7F80930C02C6
:107D60000E94763C803209F0B8CE8091C00085FF39
:107D7000FCCFF092C600A0910802B09109021097C2
:107D8000C1F180910C02082F0170182F1695117007
:107D9000E0910601F0910701AF014F5F5F4FBA011B
:107DA00020E030E00023B1F4112339F49491809164
:107DB000C00085FFFCCF9093C6002F5F3F4FCB01E3
:107DC0000196FA012A173B0780F4BC014F5F5F4F11
:107DD000002351F3F999FECFF2BDE1BDF89A90B5B9
:107DE0008091C00085FFFCCFE6CF709307016093C0
:107DF00006018091C00085FDE5CE8091C00085FF21
:107E0000F8CFE0CE81E00E94C73C67CE0E94763C6E
:107E1000803209F08CCE8091C00085FFFCCFF092BB
:107E2000C6008091C00085FFFCCFE092C600809123
:107E3000C00085FFFCCFD092C6008091C00085FFB6
:107E4000FCCFC092C6008091C00085FFFCCFB092ED
:107E5000C60043CE80E10E94C73C3FCE0E94763CE4
:107E60000E94763C182F0E94763C112309F483C0AF
:107E7000113009F484C08FE00E94C73C2ECE80915F
:107E80000C02816080930C02F1CE80910C02816023
:107E900080930C0265CF809107018823880F880B9F
:107EA0008A2180930B028091060190910701880F2F
:107EB000991F90930701809306018091080280FF2B
:107EC00009C08091080290910902019690930902DD
:107ED00080930802F894F999FECF1127E0910601EA
:107EE000F0910701C8E0D1E0809108029091090269
:107EF000103091F40091570001700130D9F303E084
:107F000000935700E8950091570001700130D9F3B4
:107F100001E100935700E8950990199000915700EE
:107F200001700130D9F301E000935700E8951395F3
:107F3000103498F011270091570001700130D9F3E7
:107F400005E000935700E89500915700017001305B
:107F5000D9F301E100935700E8953296029709F0B2
:107F6000C7CF103011F00296E5CF11248091C000E8
:107F700085FFC5CEC8CE8EE10E94C73CAECD85E957
:0A7F80000E94C73CAACDF894FFCF81
:027F8A00800075
:040000030000780081
:00000001FF
