:100000000C94E3020C940B030C940B030C940B0361
:100010000C940B030C940B030C940B030C940B0328
:100020000C940B030C940B030C940B030C940B0318
:100030000C940B030C940B030C940B030C940B0308
:100040000C94C5120C940B030C949B150C94CD15B9
:100050000C940B030C940B030C940B030C940B03E8
:100060000C940B030C940B0300000000003E5B4F4C
:100070005B3E3E6B4F6B3E1C3E7C3E1C183C7E3C08
:10008000181C577D571C1C5E7F5E1C00183C180016
:10009000FFE7C3E7FF0018241800FFE7DBE7FF30A6
:1000A000483A060E2629792926407F050507407F14
:1000B00005253F5A3CE73C5A7F3E1C1C08081C1C87
:1000C0003E7F14227F22145F5F005F5F06097F017D
:1000D0007F006689956A606060606094A2FFA29468
:1000E00008047E040810207E201008082A1C080836
:1000F0001C2A08081E101010100C1E0C1E0C303884
:100100003E3830060E3E0E06000000000000005F84
:1001100000000007000700147F147F14242A7F2AA0
:100120001223130864623649562050000807030062
:10013000001C2241000041221C002A1C7F1C2A08AE
:10014000083E080800807030000808080808000011
:1001500060600020100804023E5149453E00427F85
:10016000400072494949462141494D331814127FD4
:100170001027454545393C4A494931412111090774
:100180003649494936464949291E000014000000F5
:1001900040340000000814224114141414140041C7
:1001A00022140802015909063E415D594E7C121184
:1001B000127C7F494949363E414141227F414141BC
:1001C0003E7F494949417F090909013E4141517337
:1001D0007F0808087F00417F41002040413F017FA8
:1001E000081422417F404040407F021C027F7F0470
:1001F00008107F3E4141413E7F090909063E4151B9
:10020000215E7F09192946264949493203017F01A8
:10021000033F4040403F1F2040201F3F4038403FA9
:10022000631408146303047804036159494D4300BF
:100230007F4141410204081020004141417F0402F6
:10024000010204404040404000030708002054548D
:1002500078407F284444383844444428384444286B
:100260007F385454541800087E090218A4A49C78BE
:100270007F0804047800447D40002040403D007F1A
:100280001028440000417F40007C047804787C08FA
:100290000404783844444438FC18242418182424CE
:1002A00018FC7C08040408485454542404043F44B3
:1002B000243C4040207C1C2040201C3C4030403CE2
:1002C00044281028444C9090907C4464544C440042
:1002D00008364100000077000000413608000201A6
:1002E0000204023C2623263C1EA1A161123A404092
:1002F000207A38545455592155557941225454780F
:1003000042215554784020545579400C1E527212A7
:100310003955555559395454545939555454580030
:1003200000457C410002457D420001457C407D1234
:1003300011127DF0282528F07C5455450020545496
:100340007C547C0A097F4932494949323A44444441
:100350003A324A4848303A4141217A3A424020787C
:10036000009DA0A07D3D4242423D3D4040403D3C7D
:1003700024FF2424487E4943662B2FFC2F2BFF09A2
:1003800029F620C0887E0903205454794100004496
:100390007D413048484A32384040227A007A0A0A81
:1003A000727D0D19317D2629292F282629292926F4
:1003B00030484D4020380808080808080808382F39
:1003C00010C8ACBA2F102834FA00007B00000814C3
:1003D0002A142222142A14085500550055AA55AA99
:1003E00055AAFF55FF55FF000000FF00101010FF39
:1003F00000141414FF001010FF00FF1010F010F094
:10040000141414FC001414F700FF0000FF00FF1484
:1004100014F404FC141417101F10101F101F1414D0
:10042000141F00101010F0000000001F101010101A
:100430001F10101010F010000000FF10101010100E
:1004400010101010FF10000000FF140000FF00FF4C
:1004500000001F10170000FC04F4141417101714E8
:1004600014F404F40000FF00F7141414141414140A
:10047000F700F7141414171410101F101F1414147D
:10048000F4141010F010F000001F101F0000001FE7
:1004900014000000FC140000F010F01010FF10FF1A
:1004A000141414FF141010101F00000000F010FFAF
:1004B000FFFFFFFFF0F0F0F0F0FFFFFF0000000093
:1004C00000FFFF0F0F0F0F0F3844443844FC4A4A17
:1004D0004A347E02020606027E027E0263554941CC
:1004E000633844443C04407E201E2006027E020203
:1004F00099A5E7A5991C2A492A1C4C7201724C3017
:100500004A4D4D303048784830BC625A463D3E49ED
:100510004949007E0101017E2A2A2A2A2A44445F91
:10052000444440514A444040444A51400000FF0185
:1005300003E080FF000008086B6B08361236243693
:10054000060F090F060000181800000010100030F8
:1005500040FF0101001F01011E00191D1712003C80
:100560003C3C3C00000000000000000800020100CC
:10057000000304070000000000000000010204085E
:1005800010204080010204081020010204081020FD
:100590000404040404040404020202020202030329
:1005A00003030303000000002300260029000000CD
:1005B0000000250028002B00000000002400270078
:1005C0002A00D803FD1511241FBECFEFD8E0DEBFEF
:1005D000CDBF12E0A0E0B1E0EAE9F5E302C005908A
:1005E0000D92A03BB107D9F724E0A0EBB2E001C027
:1005F0001D92A73CB207E1F715E0C6ECD5E004C0B8
:100600002297FE010E94C21AC23CD107C9F70E947C
:1006100044180C94CB1A0C9400008C589A40BC01DE
:10062000882777FD8095982F0E94581920E030E0A8
:1006300048E252E40E94BD180E942A19862F0895AC
:10064000809164008E7F809364008EE480937C00B0
:100650006AE070E080E090E00E94321380917A00BE
:10066000806480937A0080917A0086FDFCCF20918F
:1006700078008091790030E0382B442737FD409591
:10068000542F60E070E381E190E00E94A11A809114
:100690006400816080936400C9010C940D03E8EB51
:1006A000F2E080E2819392E0E73CF907D9F7089500
:1006B00060E083E00E94BE1361E083E00E94F713D4
:1006C00026E040E855E260E070E08AE294E00E94B3
:1006D0003915E4E6F0E08081886080838081806461
:1006E000808380818160808380818068808383EFC4
:1006F00093E00E941B110C944F038F3991F0843AC0
:1007000091F0863B91F08C3B91F0843891F08639E2
:1007100091F08C3991F08B3A91F08B3B91F48FEA08
:1007200010C080EE089584E8089584E9089581E872
:1007300008958EE8089589E908958AE908958EEA72
:10074000089508958091B2028F5F8093B2028A303B
:1007500070F16AE00E94731A282F8091B302820F11
:100760008093B3029093B2028C3350F06CE30E94FA
:10077000731A2091B402280F2093B4029093B3020D
:100780008091B4028C3350F06CE30E94731A209174
:10079000B502280F2093B5029093B4028091B50260
:1007A000883128F068E10E94731A9093B502089589
:1007B00029E048E06AE083EF93E00C944512EF9261
:1007C000FF920F931F93CF93DF9320E440E360E306
:1007D00083EF93E00E94FA108C0127E130E047E1BB
:1007E00050E060E270E086E094E00E94DD0B0FEFE5
:1007F0001FEF27E130E047E150E060E270E086E083
:1008000094E00E94EA09C091B502D0E0CD30D10554
:100810000CF02C978091B30290E0880F991FFC0197
:10082000E85EFE4F00811181FC01E057FE4F208100
:100830003181E12C48EFF42E47E150E060E270E0B6
:1008400083EF93E00E94FE0E8091B40290E0880F47
:10085000991FFC01E85EFE4F00811181FC01E05709
:10086000FE4F20813181EE24EA9467E0F62E47E1C5
:1008700050E060E270E083EF93E00E94FE0ECC0F48
:10088000DD1FFE01E85FFD4F00811181CE5DDD4F70
:1008900028813981E0EEEE2EFF24FA9447E150E002
:1008A00060E270E083EF93E00E94FE0EC8E0D2E0C9
:1008B00002E212E049915991F801619171918F0121
:1008C0002FE138EF83EF93E00E945210F2E0C03244
:1008D000DF0781F72FEF3FEF43E050E06EE170E07C
:1008E00083EF93E00E9452102FEF3FEF44E050E07F
:1008F0006EE170E083EF93E00E9452102FEF3FEF24
:1009000045E050E06EE170E083EF93E00E9452100A
:100910002FEF3FEF46E050E06EE170E083EF93E0B1
:100920000E9452102FEF3FEF43E050E060E270E092
:1009300083EF93E00E9452102FEF3FEF43E050E02F
:1009400061E270E083EF93E00E9452102FEF3FEFDF
:1009500044E050E061E270E083EF93E00E945210C7
:100960002FEF3FEF45E050E060E270E083EF93E06F
:100970000E9452102FEF3FEF46E050E061E270E03E
:1009800083EF93E00E9452102FEF3FEF46E050E0DC
:1009900062E270E083EF93E00E9452102FEF3FEF8E
:1009A00045E150E061E370E083EF93E00E94521074
:1009B0002FEF3FEF45E150E062E370E083EF93E01B
:1009C0000E9452102FEF3FEF46E150E062E370E0EB
:1009D00083EF93E00E9452102FEF3FEF47E150E08A
:1009E00061E370E083EF93E00E9452102FEF3FEF3E
:1009F00048E150E062E370E083EF93E00E94521020
:100A00002FEF3FEF49E150E061E370E083EF93E0C7
:100A10000E9452102FEF3FEF49E150E062E370E097
:100A200083EF93E00E9452102FEF3FEF49E250E036
:100A300060E270E083EF93E00E9452102FEF3FEFEF
:100A40004AE250E06FE170E083EF93E00E945210C1
:100A50002FEF3FEF4BE250E06EE170E083EF93E069
:100A60000E9452102FEF3FEF4BE250E06FE170E039
:100A700083EF93E00E9452102FEF3FEF4CE250E0E3
:100A80006EE170E083EF93E00E9452102FEF3FEF92
:100A90004CE250E06FE170E083EF93E00E9452106F
:100AA0002FEF3FEF4CE250E060E270E083EF93E025
:100AB0000E9452102FEF3FEF4DE250E06FE170E0E7
:100AC00083EF93E00E9452102FEF3FEF45E150E09B
:100AD0006EE070E083EF93E00E9452102FEF3FEF43
:100AE00046E150E06DE070E083EF93E00E94521029
:100AF0002FEF3FEF46E150E06FE070E083EF93E0CF
:100B00000E9452102FEF3FEF47E150E06EE070E09F
:100B100083EF93E00E9452102FEF3FEF47E150E048
:100B20006FE070E083EF93E00E9452102FEF3FEFF1
:100B300048E150E06EE070E083EF93E00E945210D5
:100B40002FEF3FEF49E150E06DE070E083EF93E07D
:100B50000E94521046E350E060E070E086E094E0CE
:100B60000E948C0E40E050E060EE7FEF86E094E063
:100B70000E94980E4AE050E06091B50286E094E051
:100B80000E944D1762E171E086E094E00E947E16BB
:100B900040E050E06FEF77E086E094E00E94980E2E
:100BA0008091B4028A3030F464E171E086E094E030
:100BB0000E947E164AE050E06091B40286E094E024
:100BC0000E944D1762E171E086E094E00E947E167B
:100BD00040E050E060E078EF86E094E00E94980EFC
:100BE0008091B3028A3030F464E171E086E094E0F1
:100BF0000E947E164AE050E06091B30286E094E0E5
:100C0000DF91CF911F910F91FF90EF900C944D17B2
:100C10008F929F92BF92CF92DF92EF92FF920F93AB
:100C20001F93CF93DF93CDB7DEB72A970FB6F89413
:100C3000DEBF0FBECDBF0E942003D82E86E094E019
:100C40000E94A50E7C0186E094E00E94A10EA701FF
:100C50004C535109BC01645071092FEF3FEF83EFF2
:100C600093E00E94521086E094E00E94A50E7C0161
:100C700086E094E00E94A10EA7014C535109BC01EB
:100C8000635071092FEF3FEF83EF93E00E94521002
:100C900086E094E00E94A50E7C0186E094E00E942C
:100CA000A10EA7014B535109BC0166507109EE24F6
:100CB000EA94FE2C0BE310E026E030E086E094E0BE
:100CC0000E94F90886E094E00E94A50E7C0186E06F
:100CD00094E00E94A10EA7014A535109BC0165503E
:100CE0007109E12CF12C09E310E024E030E086E00A
:100CF00094E00E9475090D2D10E086E094E00E94BA
:100D0000A50E7C0186E094E00E94A10EA701401B85
:100D1000510B41505109BC0165507109A0EEEA2EFA
:100D2000A7E0FA2E24E030E086E094E00E94750906
:100D30008AE0E8E0F1E0DE01119601900D928A95DB
:100D4000E1F7CE0101967C016E019BE0C90ED11C3A
:100D5000B4E6BB2E86E094E00E94A50E8C01F7015C
:100D6000819091907F01B89CC001B99C900D112495
:100D70000E940D03081B110986E094E00E94A10E59
:100D8000BC016E517109A80186E094E00E948C0EAE
:100D90006FE170E086E094E00E94920EB401882733
:100DA00077FD8095982F0E94581920E030E040E2AE
:100DB00051E40E94BD18AB01BC0121E030E086E0A7
:100DC00094E00E943F1886E094E00E94A10EBC01CE
:100DD000675071092FEF3FEFA80183EF93E00E9466
:100DE0005210EC14FD0409F0B5CF2A960FB6F89412
:100DF000DEBF0FBECDBFDF91CF911F910F91FF904E
:100E0000EF90DF90CF90BF909F908F9008956AE50C
:100E100070E080E090E00E94321383E00E942D1485
:100E2000892B09F048C06CE271E080E090E00E94FC
:100E300032138091B2028D5F8093B20283E00E94F0
:100E40002D14892BC1F56FEA83EF93E00E94E10E28
:100E500060E070E086E094E00E94AA098CE390E0F4
:100E60009093B1028093B0028FE090E090930701DD
:100E7000809306010E9408060E94DF0368EE73E07B
:100E800080E090E00E9432138091B202865F8093EE
:100E9000B20283E00E942D14892B69F48FEF9FEF3B
:100EA0009093B1028093B0021092C7026EE78AE27B
:100EB00094E00E948B168091060190910701803189
:100EC00091050CF458C02091B6023091B70221155B
:100ED000310509F092C08091C702833239F580E272
:100EE0008093C7028091C90280539091C8029053A9
:100EF0002AE0929F800D11248093B5028091CC024C
:100F000080539091CB0290532AE0929F800D112440
:100F10008093B4028091CF0280539091CE0290537F
:100F20002AE0929F800D11248093B30240E050E0AC
:100F300060E070E086E094E00E948C0E40E050E0BB
:100F40006FEF7FEF86E094E00E94980E6091B6020A
:100F50007091B70268547D4F86E094E00E947E163F
:100F600066E171E086E094E00E947E168091B20214
:100F7000865F8093B2022091B6023091B7028091D1
:100F80000601909107012817390769F46EEA83EF8B
:100F900093E00E94E10E1092C7028FE090E09093E0
:100FA0000701809306018091B0029091B10218165A
:100FB00019066CF40E9408060E94DF038091B002BB
:100FC0009091B10201979093B1028093B002809109
:100FD000B0029091B102892B29F46EEA83EF93E07D
:100FE0000E94E10E8091B6029091B7020196909313
:100FF000B7028093B6020C94A203821793070CF4F5
:10100000BACF94CF0F931F93CF93DF930FEF1FEFC0
:101010008AE294E00E945614892B79F18AE294E0E6
:101020000E946F149EE3980F923090F38A30A9F4D7
:101030001093B1020093B0026FEA83EF93E00E9435
:10104000E10EE0910601F0910701E854FD4F108296
:101050001092B7021092B602DBCFC0910601D09178
:1010600007010E947D03FE01E854FD4F8083219615
:10107000D0930701C0930601CBCFDF91CF911F9191
:101080000F9108952F923F924F925F926F927F92AD
:101090008F929F92AF92BF92CF92DF92EF92FF9288
:1010A0000F931F93CF93DF9300D000D0CDB7DEB75F
:1010B0004C017C836B836A015901C8018701AC0133
:1010C0004C195D0957FF03C0519541955109950190
:1010D0006B817C81261B370B37FF03C0319521952F
:1010E000310922242394312C2417350714F0212CA4
:1010F000312C2114310459F03A2D2B2D5C01832F12
:10110000922F3B812C81DC82CB82C32ED22EAB81ED
:10111000BC81AA16BB065CF43C2D2D2D6C01832FDF
:10112000922F3B812C81BC82AB82A32EB22E250153
:10113000EB81FC814E1A5F0A3C016C187D0877FE3A
:1011400003C0719461947108720157FE03C0FFEFF0
:10115000EF1AFF0AF594E794C816D9062CF421E09B
:1011600030E03A83298324C06FEF7FEF7A8369836D
:101170001FC0D401ED91FC910480F581E02D980110
:1011800021143104D9F04B815C81B601C401099569
:10119000E618F708F7FE06C0E981FA81CE0EDF1ED9
:1011A000E40CF51C2B813C812F5F3F4F3C832B834C
:1011B0006B817C81A616B706E4F604C0A6016B819C
:1011C0007C81E4CF0F900F900F900F90DF91CF9123
:1011D0001F910F91FF90EF90DF90CF90BF90AF9055
:1011E0009F908F907F906F905F904F903F902F9047
:1011F00008956F927F928F929F92AF92BF92CF92FB
:10120000DF92EF92FF920F931F93CF93DF93EC0146
:101210005B016A0139014801E881F9810284F385A3
:10122000E02D87010995E881F981A601480D591D36
:10123000415051090284F385E02D9301B501CE019F
:101240000995E881F9810084F185E02D9401A601DA
:10125000B501CE010995E881F981B501660D771DCB
:10126000615071090084F185E02D9401A601CE0141
:101270000995DF91CF911F910F91FF90EF90DF9033
:10128000CF90BF90AF909F908F907F906F90089578
:10129000EF92FF920F931F93DC01ED91FC91240FCD
:1012A000351F215031090680F781E02D7801890131
:1012B0009B0109951F910F91FF90EF900895EF9278
:1012C000FF920F931F93DC01ED91FC91260F371FC6
:1012D000215031090680F781E02D78018A010995B6
:1012E0001F910F91FF90EF9008956F927F928F92D0
:1012F0009F92AF92BF92CF92DF92EF92FF920F93A5
:101300001F93CF93DF935C014A0169013801EB0120
:10131000C60ED71ECC15DD0574F4D501ED91FC91F8
:101320000084F185E02D87019301A401BE01C50170
:1013300009952196EFCFDF91CF911F910F91FF90EB
:10134000EF90DF90CF90BF90AF909F908F907F9065
:101350006F900895EF92FF920F931F93DC01ED9130
:10136000FC9111971A960D911C911B9718962D912F
:101370003C9119970684F785E02D7B0140E050E011
:1013800060E070E009951F910F91FF90EF90089534
:101390000895FC011382128280E492E0918380839D
:1013A0007583648357834683718760875387428739
:1013B000158A158614861786168621E0248B8FEFF2
:1013C0009FEF938B828B918B808B268B178A118E4C
:1013D000108E08952F923F924F925F926F927F925C
:1013E0008F929F92AF92BF92CF92DF92EF92FF9235
:1013F0000F931F93CF93DF9300D000D000D0CDB7D1
:10140000DEB79E838D836B015A0179016624639454
:10141000712C621A730A44245524421A530A440C4C
:10142000551CDC01ED91FC91420F531F0480F581A6
:10143000E02D98010995AD81BE81ED91FC91119748
:10144000A5014E195F090480F581E02D9801B601D0
:10145000CD010995AD81BE81ED91FC911197B60149
:101460006E0D7F1D0480F581E02D9801A501CD0151
:101470000995AD81BE81ED91FC911197B6016E1970
:101480007F090480F581E02D9801A501CD01099522
:10149000812C912C8E149F040CF0A1C077FC08C005
:1014A000B1E0EB1AF108E2E04E0E511C640C751C21
:1014B000FFEF8F1A9F0AC401880F991F0196680ECB
:1014C000791EC4018C0D9D1D9C838B83AD81BE81D3
:1014D000ED91FC9111970480F581E02D98011501A3
:1014E0002E0C3F1CA101BC01CD010995F601E819A4
:1014F000F909FA83E983AD81BE81ED91FC911197E1
:101500000480F581E02D9801A10169817A81CD01E6
:101510000995AD81BE81ED91FC9111970480F58113
:10152000E02D980115012E183F08A1016B817C81E7
:10153000CD010995AD81BE81ED91FC91119704809B
:10154000F581E02D9801A10169817A81CD0109958C
:1015500014012A0C3B1CAD81BE81ED91FC911197C9
:101560000480F581E02D9801A101C6018E0D9F1D1B
:101570009C838B83BC01CD010995AD81BE81ED912A
:10158000FC9111970480F581E02D9801A101C6011D
:101590008E199F099A838983BC01CD010995150194
:1015A00028183908AD81BE81ED91FC911197048016
:1015B000F581E02D9801A1016B817C81CD01099518
:1015C000AD81BE81ED91FC9111970480F581E02DF4
:1015D0009801A10169817A81CD0109955BCF269699
:1015E0000FB6F894DEBF0FBECDBFDF91CF911F9134
:1015F0000F91FF90EF90DF90CF90BF90AF909F90B2
:101600008F907F906F905F904F903F902F900895B4
:101610002F923F924F925F926F927F928F929F9202
:10162000AF92BF92CF92DF92EF92FF920F931F93F0
:10163000CF93DF93CDB7DEB728970FB6F894DEBF10
:101640000FBECDBF5C011B015A83498338872F83AE
:10165000FC82EB8288248394912C821A930A3901AC
:10166000719461947108660C771C270123E0420E87
:10167000511CEE24E394F12C302F31703D83027025
:101680000E83C7010197EF81F8858E179F070CF035
:101690007BC097FC0AC08F819885019798878F83BC
:1016A00092E0690E711C860C971CC201AB81BC8153
:1016B0008A1B9B0B880E991EBD81BB2369F1D50146
:1016C000ED91FC912F813885220F331F2F5F3F4F03
:1016D0008B819C81280F391F0084F185E02D8601C4
:1016E00049815A81AF81B8854A1B5B0BB701620DF6
:1016F000731DC5010995D501ED91FC910084F1851B
:10170000E02D920149815A814E195F096F817885D8
:10171000620D731DC5010995BE81BB2371F1D50111
:10172000ED91FC912F813885220F331F2F5F3F4FA2
:101730008B819C81280F391F0084F185E02D860163
:1017400049815A81AF81B8854A1B5B0BB1016E1983
:101750007F09C5010995D501ED91FC910084F185C2
:10176000E02D920149815A814E195F09B1018F81A3
:101770009885681B790BC50109959FEFE91AF90A4D
:10178000A2E04A0E511C7DCF28960FB6F894DEBF1A
:101790000FBECDBFDF91CF911F910F91FF90EF90C2
:1017A000DF90CF90BF90AF909F908F907F906F9081
:1017B0005F904F903F902F9008956F927F928F92FD
:1017C0009F92AF92BF92CF92DF92EF92FF920F93D0
:1017D0001F93CF93DF93EC014B013A01590168014C
:1017E000E881F981220F331F2F5F3F4F4A195B09B0
:1017F0000084F185E02D0995E12CF12C03E09501A1
:10180000A301B401CE010E94080BDF91CF911F917B
:101810000F91FF90EF90DF90CF90BF90AF909F908F
:101820008F907F906F9008952F923F924F925F928A
:101830006F927F928F929F92AF92BF92CF92DF92E0
:10184000EF92FF920F931F93CF93DF93CDB7DEB745
:101850006A970FB6F894DEBF0FBECDBF1C01588744
:101860004F831C870B87FA86E986CC82DC01589669
:101870004D915C9159974115510509F0A6C01896F4
:101880008D919C911997681779070CF056C11A969B
:101890008D919C911B97EF81F885E817F9070CF063
:1018A0004CC1D12CCB013C81F6E03F9F800D911DB6
:1018B0001124181619060CF040C1C60103E0880F68
:1018C000991F0A95E1F74F815885840F951F1816C7
:1018D00019060CF032C157968C91811103C0203B40
:1018E00008F02F5F7E876D874B01198218E6A12EC5
:1018F00010E0B12EA61AB70A55E0259FA00CB11C26
:1019000011248981853039F0ED85FE85EA0DFB1DB6
:1019100094919A8301C01A826F8078842301A8E091
:10192000AD83BA81B0FF12C0D101ED91FC91BC81B1
:10193000B13031F40480F581E02D2B853C8518C051
:101940000684F785E02DEB84FC841DC0E985FA85CB
:101950002B853C85E217F307E1F0D101ED91FC9175
:10196000BC81B13059F40480F581E02D29853A8598
:10197000A2016D857E85C10109950BC00684F7859E
:10198000E02DE984FA8486019601A301B401C10126
:101990000995EA81E695EA83FD81F150FD836C0C9F
:1019A0007D1C2FEF421A520AF111BBCF39813F5FE4
:1019B00039838C0C9D1C4D855E854F5F5F4F5E8724
:1019C0004D87363009F09DCFB8C0FA013496349176
:1019D000329785919491231BA7E02A9F800D911D3A
:1019E0001124FA0125913491398B288BFC01459102
:1019F00054915A8F498FFC013296549159873196F0
:101A0000A491AF873196E491FC01359624913196EB
:101A10008491BC81B23050F0622E772467FC7094C0
:101A2000E82FFF27E7FDF095FE87ED87FC81CF2E9D
:101A3000D12C6C9C40016D9C900C7C9C900C1124D2
:101A4000860E971EA12C1982DE8ACD8AAB01420F29
:101A5000511D27FD5A955E834D83AF81B885A80F30
:101A6000B11D87FDBA95B88FAF8B59818F855817F7
:101A700008F063C0852F90E02D853E85280F391F23
:101A80002C9DD0012D9DB00D3C9DB00D1124EF81FA
:101A9000F885EA0FFB1FFB83EA836D807E802401BB
:101AA000FA2D2D81F21BFA8B4F89588D480F591F43
:101AB0005C8B4B8B9A89960D862D2D81821B3985E7
:101AC0008317B0F5977061F4898D9A8D0196E88936
:101AD000F989298D3A8DE20FF31FB4909A8F898F7F
:101AE000B7FE1DC0D101ED91FC91BC81B13059F41C
:101AF0000480F581E02D2B853C854B895C89B30101
:101B0000C10109950CC00684F785E02DEB84FC84A7
:101B1000860196014A815B81B201C1010995BB0C26
:101B2000ED89FE894E0E5F1EFFEF6F1A7F0AC2CF4E
:101B3000A30E49814F5F498398CF6A960FB6F894F8
:101B4000DEBF0FBECDBFDF91CF911F910F91FF90F0
:101B5000EF90DF90CF90BF90AF909F908F907F904D
:101B60006F905F904F903F902F900895AF92BF92EB
:101B7000CF92EF92FF920F931F93CF93DF93EC01DD
:101B8000262F888D998D009709F042C06A3069F43C
:101B90002C898E859F8538E0239F800D911D11240F
:101BA0009F878E871D861C86ABC06D3009F4A8C048
:101BB0008E898823C1F03C898C859D8546E0349FC1
:101BC000800D911D112448855985841795075CF077
:101BD0001D861C868E859F85E8E03E9F800D911DA9
:101BE00011249F878E87EA88FB88088919894E858A
:101BF0005F856C857D85CC88CE010E94140C2C8974
:101C00008C859D85F6E02F9F800D911D112441C08C
:101C10006A3079F41D861C864C89FC0136968491C5
:101C20002E853F85489F200D311D11243F872E872B
:101C300067C06D3009F464C0AC014C5F5F4FFA01BE
:101C40003491631708F45CC03196E491E61708F408
:101C500057C0FA014491362F341BFC013296A590EF
:101C6000B490F7E03F9FA00CB11C1124F50132960F
:101C7000A4913196E491AA2311F0E1110DC0F50170
:101C80003496A4902C898C859D85A29E800D911DF3
:101C900011249D878C8734C0F5013596E4913E89E7
:101CA000332309F13C89B0E0AE0FB11DE7FDBA95D1
:101CB0003A9FA0013B9F500D11246C857D85460FF6
:101CC000571F68857985461757076CF01D861C8657
:101CD000FC01369684914E855F85389F400D511DDD
:101CE00011245F874E87EA88FB88088919894E8509
:101CF0005F856C857D85CC88CE010E94140CBFCF9A
:101D000081E090E0DF91CF911F910F91FF90EF90D4
:101D1000CF90BF90AF900895FC0175876487578777
:101D200046870895FC01738B628B718B608B0895DD
:101D3000FC01718B608B538B428B0895FC0185896C
:101D40000895FC01808591850895FC018285938525
:101D50000895FC018581811107C06EBD00000DB49E
:101D600007FEFDCF8EB50895A585B6858C91928925
:101D7000892B8C9387E090E070E0A585B6853C9137
:101D80002289209523232C93A385B48541899B0127
:101D9000082E02C0359527950A94E2F73C9120FF62
:101DA00003C0342B3C9304C0242F209523232C9371
:101DB000A585B6852C913289232B2C930197E8F6C3
:101DC0000895CF93DF93EC01E985FA8590818889A6
:101DD000809589238083EF81F88590818F85809518
:101DE00089238083CE010E94A90EEF81F88580812E
:101DF0009F85892B8083DF91CF9108958F929F9249
:101E0000AF92BF92CF92DF92EF92FF920F931F9308
:101E1000CF93DF93EC015B016A014901E881F9810D
:101E20003697808191818C0F9D1F0E949E0E82307B
:101E300059F1833009F44EC0813009F06DC0AC24F3
:101E4000BD24CA24DB248026912608251925E88193
:101E5000F98136970190F081E02DEC0FFD1F848110
:101E60009581AC24BD249C012A193B09590131E01C
:101E7000A31AB10880269126AC01481959094A01D4
:101E800051E0851A910848C0E881F98136970190A0
:101E9000F081E02DEC0FFD1F24813581C9018A19E5
:101EA0009B095C0191E0A91AB10886819781AC0178
:101EB0004C195D096A0151E0C51AD108A9014819F8
:101EC00059094A0151E0851A91089C01201B310BE8
:101ED000890120C0AC24BD24CA24DB24AC24BD2449
:101EE00080269126C4018027912788269926E8819B
:101EF000F98136970190F081E02DEC0FFD1F0681EE
:101F00001781A8014C195D096A0151E0C51AD10871
:101F1000081B190B0150110980E4C816D10424F0E4
:101F2000003411050CF05FC090E6A916B10444F02E
:101F300020E6821691040CF056C09FE5A92EB12C24
:101F400061E2CE010E94E10E6A2DCE010E94E10EF7
:101F5000B6016034710514F06FE370E0CE010E94A9
:101F6000E10EB4016036710514F06FE570E0CE014A
:101F70000E94E10EB8010034110514F06FE370E027
:101F8000CE010E94E10E61E070E080E090E00E94EE
:101F900032136F2D669566956695660FCE010E9489
:101FA000E10EB70185E0769567958A95E1F76F7345
:101FB000CE010E94E10E6E2D660F6F73CE010E945E
:101FC000E10E61E070E080E090E0DF91CF911F9141
:101FD0000F91FF90EF90DF90CF90BF90AF909F90C8
:101FE0008F900C943213DF91CF911F910F91FF903E
:101FF000EF90DF90CF90BF90AF909F908F9008951B
:10200000EF92FF920F931F93CF93DF93EC018B011D
:102010007A01E881F98136970190F081E02DE80F8F
:10202000F91F8481958168177907ACF586819781BE
:102030004817590784F565E1CE010E94E10E602F33
:10204000CE010E94E10EE881F98136970190F0817E
:10205000E02DEC0FFD1F64816150CE010E94E10E66
:1020600065E7CE010E94E10E6E2DCE010E94E10EC9
:10207000E881F98136970190F081E02DEC0FFD1F8A
:1020800066816150CE01DF91CF911F910F91FF903A
:10209000EF900C94E10EDF91CF911F910F91FF9083
:1020A000EF900895CF92DF92EF92FF920F931F93DC
:1020B000CF93DF93EC017B018A01D22EC32E77FDF3
:1020C00090C0E881F9813697808191818C0F9D1FA6
:1020D0000E94A10EE816F9060CF083C017FD81C01E
:1020E000E881F9813697808191818C0F9D1F0E9434
:1020F000A50E081719070CF074C0E881F98136970E
:10210000808191818C0F9D1F0E949E0E8230C1F4B0
:10211000E881F98136970190F081E02DEC0FFD1FE9
:10212000848195819C012E193F09790131E0E31AE0
:10213000F108868197819C01201B310B890115C014
:102140008330B1F5E026F126C70180279127E826E4
:10215000F926E881F98136970190F081E02DEC0FA6
:10216000FD1F06811781081B190B01501109A801D9
:10217000B701CE010E940010E985FA858081988917
:10218000892B8083EF81F88590818F8580958923C5
:1021900080836C2DCE010E94A90E6D2DCE010E9470
:1021A000A90EEF81F88580819F85892B808319C0D6
:1021B0008130E9F6E026F1260E251F25E881F98118
:1021C00036970190F081E02DEC0FFD1FC8018E25A0
:1021D0009F25E480F580E81AF90A21E0E21AF10867
:1021E000C6CFDF91CF911F910F91FF90EF90DF90BD
:1021F000CF90089570E033E0759567953A95E1F7D3
:1022000056E0660F771F5A95E1F750E055954795D0
:1022100055954795642B752BF5E0660F771FFA955A
:10222000E1F7822F90E0A3E095958795AA95E1F7D5
:10223000862B972B0895CF93DF93EC0161E08B8180
:102240000E94BE138E81882309F430C061E00E9491
:10225000BE138E8190E0FC01E057FA4FE491F0E06C
:10226000EE0FFF1FE255FA4F259134913E872D87DF
:10227000FC01E458FA4F84918A8B61E08D810E94C1
:10228000BE138D8190E0FC01E057FA4FE491F0E03D
:10229000EE0FFF1FE255FA4F259134913C872B87B3
:1022A000FC01E458FA4F8491898B05C00E948F127B
:1022B0008CB58C608CBD61E08A810E94BE1360E0A9
:1022C0008A810E94F7138A8190E0FC01E458FA4F5A
:1022D000E491EF87FC01E057FA4FE491F0E0EE0F54
:1022E000FF1FE255FA4F8591949198878F838B81D8
:1022F00090E0FC01E458FA4FE491E88BFC01E057D0
:10230000FA4FE491F0E0EE0FFF1FE255FA4F85918E
:1023100094919A8789878C81882309F161E00E94D2
:10232000BE1361E08C810E94F71364EF71E080E0DE
:1023300090E00E94321360E08C810E94F71364EFFA
:1023400071E080E090E00E94321361E08C810E9495
:10235000F71364EF71E080E090E00E9432136EEAC0
:10236000CE010E94E10E60EACE010E94E10E62E71A
:10237000CE010E94E10E61EACE010E94E10E60E012
:10238000CE010E94E10E62EACE010E94E10E60E001
:10239000CE010E94E10E64EACE010E94E10E68EADD
:1023A000CE010E94E10E6FE3CE010E94E10E6DEAC4
:1023B000CE010E94E10E6EE8CE010E94E10E60EBBC
:1023C000CE010E94E10E6BE0CE010E94E10E61EBB6
:1023D000CE010E94E10E61E3CE010E94E10E63EBAB
:1023E000CE010E94E10E60EFCE010E94E10E6AE88C
:1023F000CE010E94E10E64E6CE010E94E10E6BE880
:10240000CE010E94E10E68E7CE010E94E10E6AE86B
:10241000CE010E94E10E64E6CE010E94E10E6BEB5C
:10242000CE010E94E10E6AE3CE010E94E10E6EEB46
:10243000CE010E94E10E6EE3CE010E94E10E67E83C
:10244000CE010E94E10E66E0CE010E94E10E61E83D
:10245000CE010E94E10E61E9CE010E94E10E62E828
:10246000CE010E94E10E60E5CE010E94E10E63E81C
:10247000CE010E94E10E6DE7CE010E94E10E6FEAEF
:10248000CE01DF91CF910C94E10EEF92FF920F936A
:102490001F93CF93DF931F92CDB7DEB77C01062F3A
:1024A000142F40E450E060E670E0439629830E94D8
:1024B000C9098EE592E0F701918380838AE792E073
:1024C000948B838B02831383158216822981248344
:1024D0000F90DF91CF911F910F91FF90EF90089592
:1024E000EF92FF920F931F93DC01ED91FC913C97CB
:1024F0000190F081E02D8E0F9F1F0E94FE0E1F9114
:102500000F91FF90EF900895DC01ED91FC913A97C7
:102510000190F081E02D8E0F9F1F0C945210CF93ED
:10252000CFB7F89480912004811127C0EAE9F5E043
:102530008491E6E8F5E09491E82FF0E0EE0FFF1FBC
:10254000E854FA4FA591B4918C91892321F461E06C
:102550008AE00E94F71361E08AE00E94BE138CB506
:1025600080618CBD8CB580648CBD61E08DE00E9483
:10257000BE1361E08BE00E94BE13809120048F5F48
:1025800080932004CFBFCF9108951F920F920FB672
:102590000F9211242F933F938F939F93AF93BF93E9
:1025A0008091220490912304A0912404B0912504E9
:1025B0003091210423E0230F2D3720F40196A11D33
:1025C000B11D05C026E8230F0296A11DB11D209361
:1025D00021048093220490932304A0932404B093B5
:1025E00025048091260490912704A0912804B0919D
:1025F00029040196A11DB11D809326049093270400
:10260000A0932804B0932904BF91AF919F918F911B
:102610003F912F910F900FBE0F901F9018953FB7CD
:10262000F8948091260490912704A0912804B091F9
:10263000290426B5A89B05C02F3F19F00196A11DBE
:10264000B11D3FBF6627782F892F9A2F620F711D0A
:10265000811D911D42E0660F771F881F991F4A95C3
:10266000D1F70895CF92DF92EF92FF92CF93DF934D
:102670006B017C010E940F13EB01C114D104E10432
:10268000F10489F00E9453180E940F136C1B7D0BFC
:10269000683E734090F381E0C81AD108E108F10860
:1026A000C851DC4FEACFDF91CF91FF90EF90DF90E0
:1026B000CF900895789484B5826084BD84B581609C
:1026C00084BD85B5826085BD85B5816085BDEEE63A
:1026D000F0E0808181608083E1E8F0E01082808119
:1026E00082608083808181608083E0E8F0E0808187
:1026F00081608083E1EBF0E0808184608083E0EBA7
:10270000F0E0808181608083EAE7F0E0808184608E
:1027100080838081826080838081816080838081EA
:10272000806880831092C1000895833081F028F47E
:10273000813099F08230A1F008958730A9F0883077
:10274000B9F08430D1F4809180008F7D03C08091F6
:1027500080008F7780938000089584B58F7702C0C2
:1027600084B58F7D84BD08958091B0008F7703C0BC
:102770008091B0008F7D8093B0000895CF93DF9358
:1027800090E0FC01E458FA4F2491FC01E057FA4F25
:102790008491882349F190E0880F991FFC01E85447
:1027A000FA4FA591B49182559A4FFC01C591D491ED
:1027B0009FB7611108C0F8948C91209582238C9367
:1027C000888182230AC0623051F4F8948C91322FB0
:1027D000309583238C938881822B888304C0F8945E
:1027E0008C91822B8C939FBFDF91CF9108950F9393
:1027F0001F93CF93DF931F92CDB7DEB7282F30E022
:10280000F901E859FA4F8491F901E458FA4F14910B
:10281000F901E057FA4F04910023C9F0882321F011
:1028200069830E9495136981E02FF0E0EE0FFF1F8E
:10283000E255FA4FA591B4919FB7F8948C9161112C
:1028400003C01095812301C0812B8C939FBF0F90F3
:10285000DF91CF911F910F910895CF93DF93282F90
:1028600030E0F901E859FA4F8491F901E458FA4F40
:10287000D491F901E057FA4FC491CC2391F0811122
:102880000E949513EC2FF0E0EE0FFF1FEC55FA4F6E
:10289000A591B4912C912D2381E090E021F480E06A
:1028A00002C080E090E0DF91CF910895FC01818D1E
:1028B000228D90E0805C9F4F821B91098F73992736
:1028C0000895FC01918D828D981731F0828DE80F6B
:1028D000F11D858D90E008958FEF9FEF0895FC0125
:1028E000918D828D981761F0828DDF01A80FB11D47
:1028F0005D968C91928D9F5F9F73928F90E008956B
:102900008FEF9FEF089583EF95E1892B49F082E0E7
:1029100098E0892B29F00E94F31581110C9402088C
:102920000895FC01848DDF01A80FB11DA35ABF4F8C
:102930002C91848D90E001968F739927848FA689BE
:10294000B7892C93A089B1898C9180648C93938DE5
:10295000848D981306C00288F389E02D80818F7DD5
:1029600080830895CF93DF93EC01888D8823C9F08D
:10297000EA89FB89808185FD05C0A889B9898C9188
:1029800086FD0FC00FB607FCF5CF808185FFF2CF23
:10299000A889B9898C9185FFEDCFCE010E94911451
:1029A000E7CFDF91CF910895CF92DF92FF920F93FF
:1029B0001F93CF93DF931F92CDB7DEB76C0181E0F9
:1029C000D60158968C9358975B969C915B975C9632
:1029D0008C915C97981307C05096ED91FC9151979C
:1029E000808185FD2EC0F601038D10E00F5F1F4F23
:1029F0000F731127F02EF601848DF81211C00FB657
:102A000007FCF9CFD6015096ED91FC91519780814A
:102A100085FFF1CFC60169830E9491146981EBCFD4
:102A2000838DE80FF11DE35AFF4F6083D6015B965B
:102A30000C935B975296ED91FC9153978081806245
:102A40000CC0D6015696ED91FC9157976083509635
:102A5000ED91FC91519780818064808381E090E0CA
:102A60000F90DF91CF911F910F91FF90DF90CF904A
:102A70000895BF92CF92DF92EF92FF92CF93DF93B0
:102A8000EC016A017B01B22EE889F98982E080833A
:102A9000411581EE580761057105A1F060E079E00C
:102AA0008DE390E0A70196010E947F1A2150310921
:102AB000410951095695479537952795211580E18C
:102AC000380798F0E889F989108260E874E88EE1A7
:102AD00090E0A70196010E947F1A21503109410917
:102AE00051095695479537952795EC85FD85308397
:102AF000EE85FF852083188EEC89FD89B082EA89F6
:102B0000FB89808180618083EA89FB89808188607C
:102B10008083EA89FB89808180688083EA89FB89D8
:102B200080818F7D8083DF91CF91FF90EF90DF9048
:102B3000CF90BF9008951F920F920FB60F9211245D
:102B40002F938F939F93EF93FF93E0913A04F0912B
:102B50003B048081E0914004F091410482FD12C069
:102B60009081809143048F5F8F732091440482177A
:102B700051F0E0914304F0E0E65DFB4F958F8093C8
:102B8000430401C08081FF91EF919F918F912F911C
:102B90000F900FBE0F901F9018951F920F920FB6B7
:102BA0000F9211242F933F934F935F936F937F93D3
:102BB0008F939F93AF93BF93EF93FF938AE294E039
:102BC0000E949114FF91EF91BF91AF919F918F91CE
:102BD0007F916F915F914F913F912F910F900FBE19
:102BE0000F901F9018958AE294E00E94561421E0FD
:102BF000892B09F420E0822F089510922D04109261
:102C00002C0488EE93E0A0E0B0E080932E04909333
:102C10002F04A0933004B093310482E992E09093A2
:102C20002B0480932A0485EC90E0909337048093E2
:102C3000360484EC90E0909339048093380480EC5F
:102C400090E090933B0480933A0481EC90E0909361
:102C50003D0480933C0482EC90E090933F04809389
:102C60003E0486EC90E090934104809340041092DF
:102C700043041092440410924504109246040895AF
:102C8000CF92DF92EF92FF920F931F93CF93DF9338
:102C90007C016A01EB0100E010E00C151D0571F0EC
:102CA0006991D701ED91FC910190F081E02DC70170
:102CB0000995892B19F00F5F1F4FEFCFC801DF91E6
:102CC000CF911F910F91FF90EF90DF90CF900895DB
:102CD0006115710581F0DB010D900020E9F7AD0170
:102CE00041505109461B570BDC01ED91FC910280CC
:102CF000F381E02D099480E090E008950C9468162B
:102D0000DC01ED91FC910190F081E02D09946EE9D8
:102D100072E00C9468160F931F93CF93DF93EC012E
:102D20000E9480168C01CE010E948716800F911F91
:102D3000DF91CF911F910F9108958F929F92AF9243
:102D4000BF92CF92DF92EF92FF920F931F93CF9398
:102D5000DF93CDB7DEB7A1970FB6F894DEBF0FBEF5
:102D6000CDBF7C01C42EE52FCB01D22E19A221E0CC
:102D70002D1510F02AE0D22E8E010F5D1F4F8D2CE5
:102D8000912CA12CB12C6C2D7E2FA50194010E94B9
:102D90007F1A8C2DD29E80191124015011098A307E
:102DA00014F4805D01C0895CF80180832115310530
:102DB0004105510521F0C22EE32FCA01E4CFB8012D
:102DC000C7010E946816A1960FB6F894DEBF0FBE29
:102DD000CDBFDF91CF911F910F91FF90EF90DF90CA
:102DE000CF90BF90AF909F908F900895CF92DF9239
:102DF000EF92FF920F931F93CF93DF93EC016A0141
:102E00007B012115310579F4E881F9810190F08188
:102E1000E02D642FDF91CF911F910F91FF90EF90E4
:102E2000DF90CF9009942A303105E9F477FF1AC07A
:102E30006DE20E9480168C0144275527BA014C1977
:102E40005D096E097F092AE0CE010E949D16800F60
:102E5000911FDF91CF911F910F91FF90EF90DF9025
:102E6000CF9008952AE0B701A601CE01DF91CF915E
:102E70001F910F91FF90EF90DF90CF900C949D16D3
:102E80002115310541F4DC01ED91FC910190F081B7
:102E9000E02D642F09940C949D169A01462F50E062
:102EA00060E070E00C9440174F925F926F927F92B7
:102EB0008F929F92AF92BF92CF92DF92EF92FF924A
:102EC0000F931F93CF93DF93EC016A017B01B22E26
:102ED0009A01AB01C701B6010E946F1A882319F04D
:102EE00061EA72E027C026013701E89477F82FEFF6
:102EF0003FEF4FE75FE7C301B2010E946F1A8111F4
:102F00000DC02FEF3FEF4FE75FE7C301B2010E9413
:102F1000B91818161CF465EA72E00CC02FEF3FEFE9
:102F20004FE75FE4C701B6010E94081A1816ACF417
:102F300069EA72E0CE01DF91CF911F910F91FF906E
:102F4000EF90DF90CF90BF90AF909F908F907F9049
:102F50006F905F904F900C9468162FEF3FEF4FE704
:102F60005FECC701B6010E94B91887FDE1CF20E0F0
:102F700030E0A901C701B6010E94B91887FF0AC055
:102F80006DE2CE010E9480168C01F7FAF094F7F8FA
:102F9000F09402C000E010E0A12C60E070E080E05E
:102FA0009FE3AB1441F020E030E040E251E40E94A6
:102FB000BD18A394F6CF9B01AC01C701B6010E94D6
:102FC00055186B017C010E942A192B013C010E94BB
:102FD00056199B01AC01C701B6010E9454186B0140
:102FE0007C012AE0B301A201CE010E949D16080FC8
:102FF000191FBB2039F06DEA72E0CE010E946816FD
:10300000080F191F7B2C772041F120E030E040E2CF
:1030100051E4C701B6010E940C1A6B017C010E94A9
:1030200025194B01AA2497FCA094BA2C2AE030E081
:10303000B501A401CE010E94F616080F191FC501A3
:10304000B4010E9458199B01AC01C701B6010E944E
:1030500054186B017C017A94D6CFC801DF91CF91CF
:103060001F910F91FF90EF90DF90CF90BF90AF90A6
:103070009F908F907F906F905F904F9008950C94E9
:1030800054170E94C61A08950E945A130E944318AA
:103090000E945803C3E8D4E10E9407072097E1F398
:1030A0000E948314F9CF08955058BB27AA270ED049
:1030B00075C166D130F06BD120F031F49F3F11F42F
:1030C0001EF45BC10EF4E095E7FB51C1E92F77D107
:1030D00080F3BA17620773078407950718F071F435
:1030E0009EF58FC10EF4E0950B2EBA2FA02D0B018B
:1030F000B90190010C01CA01A0011124FF27591B3D
:1031000099F0593F50F4503E68F11A16F040A22F42
:10311000232F342F4427585FF3CF469537952795B3
:10312000A795F0405395C9F77EF41F16BA0B620BB2
:10313000730B840BBAF09150A1F0FF0FBB1F661FF9
:10314000771F881FC2F70EC0BA0F621F731F841F3C
:1031500048F4879577956795B795F7959E3F08F062
:10316000B3CF9395880F08F09927EE0F9795879521
:103170000895D9D008F481E008950CD00FC107D18B
:1031800040F0FED030F021F45F3F19F0F0C0511153
:1031900039C1F3C014D198F39923C9F35523B1F37E
:1031A000951B550BBB27AA2762177307840738F0B6
:1031B0009F5F5F4F220F331F441FAA1FA9F333D015
:1031C0000E2E3AF0E0E830D091505040E695001CC9
:1031D000CAF729D0FE2F27D0660F771F881FBB1F85
:1031E000261737074807AB07B0E809F0BB0B802D5F
:1031F000BF01FF2793585F4F2AF09E3F510568F0AB
:10320000B6C000C15F3FECF3983EDCF3869577953E
:103210006795B795F7959F5FC9F7880F911D9695AC
:10322000879597F90895E1E0660F771F881FBB1F08
:10323000621773078407BA0720F0621B730B840BB5
:10324000BA0BEE1F88F7E095089504D06894B11189
:10325000D9C00895BCD088F09F5790F0B92F992716
:10326000B751A0F0D1F0660F771F881F991F1AF091
:10327000BA95C9F712C0B13081F0C3D0B1E008955A
:10328000C0C0672F782F8827B85F39F0B93FCCF3DB
:10329000869577956795B395D9F73EF49095809587
:1032A000709561957F4F8F4F9F4F0895E89409C0A7
:1032B00097FB3EF490958095709561957F4F8F4F69
:1032C0009F4F9923A9F0F92F96E9BB279395F6957F
:1032D000879577956795B795F111F8CFFAF4BB0FFD
:1032E00011F460FF1BC06F5F7F4F8F4F9F4F16C061
:1032F000882311F096E911C0772321F09EE8872FEB
:10330000762F05C0662371F096E8862F70E060E0A6
:103310002AF09A95660F771F881FDAF7880F96951F
:10332000879597F90895990F0008550FAA0BE0E8C3
:10333000FEEF16161706E807F907C0F01216130677
:10334000E407F50798F0621B730B840B950B39F4B7
:103350000A2661F0232B242B252B21F408950A261D
:1033600009F4A140A6958FEF811D811D089597F95D
:103370009F6780E870E060E008959FEF80EC08951B
:1033800000240A9416161706180609060895002444
:103390000A9412161306140605060895092E0394BE
:1033A000000C11F4882352F0BB0F40F4BF2B11F432
:1033B00060FF04C06F5F7F4F8F4F9F4F089557FD91
:1033C0009058440F551F59F05F3F71F04795880F93
:1033D00097FB991F61F09F3F79F08795089512162A
:1033E00013061406551FF2CF4695F1DF08C01616D6
:1033F00017061806991FF1CF869571056105089487
:103400000895E894BB2766277727CB0197F908959D
:103410008ADF08F48FEF08950BD0C0CFB1DF28F01A
:10342000B6DF18F0952309F0A2CFA7CF1124EACF79
:10343000C6DFA0F3959FD1F3950F50E0551F629F13
:10344000F001729FBB27F00DB11D639FAA27F00DFD
:10345000B11DAA1F649F6627B00DA11D661F829F24
:103460002227B00DA11D621F739FB00DA11D621F09
:10347000839FA00D611D221F749F3327A00D611D26
:10348000231F849F600D211D822F762F6A2F112408
:103490009F5750408AF0E1F088234AF0EE0FFF1F5B
:1034A000BB1F661F771F881F91505040A9F79E3F92
:1034B000510570F05CCFA6CF5F3FECF3983EDCF394
:1034C000869577956795B795F795E7959F5FC1F7CF
:1034D000FE2B880F911D9695879597F9089523DF08
:1034E000880B990B0895991B79E004C0991F9617D2
:1034F00008F0961B881F7A95C9F780950895A1E278
:103500001A2EAA1BBB1BFD010DC0AA1FBB1FEE1F5D
:10351000FF1FA217B307E407F50720F0A21BB30BA8
:10352000E40BF50B661F771F881F991F1A9469F724
:1035300060957095809590959B01AC01BD01CF0180
:103540000895052E97FB1EF400940E94B81A57FDAB
:1035500007D00E947F1A07FC03D04EF40C94B81ACF
:1035600050954095309521953F4F4F4F5F4F0895AF
:1035700090958095709561957F4F8F4F9F4F0895DF
:10358000EE0FFF1F0590F491E02D099481E090E08B
:0A359000F8940C94CB1AF894FFCFC6
:10359A000000C70480000F0032002A002500210025
:1035AA0014003A003000200002000200020003006A
:1035BA00040005000600070009000B000C000E00BD
:1035CA00110013001500170019001B001D00200030
:1035DA002200230025002700280029002A002B00AA
:1035EA002C002C002C002C002C002B002A00290077
:1035FA002800270025002300210020001D001B00B1
:10360A00190017001500130011000E000C000B0022
:10361A00090007000600050004000300020002007A
:10362A00200022002400260029002A002C002E0057
:10363A0030003100320033003400350035003500E7
:10364A0035003500340033003200310030002E00DE
:10365A002C002A00290026002400220020001E0037
:10366A001C001A00170015001400120010000F00A9
:10367A000E000D000C000B000B000B000B000B00E2
:10368A000C000D000E000F001000120014001600AE
:10369A0017001A001C001E00060008000E00170082
:1036AA0020002600280026001F0017000E00080030
:1036BA000600200028002F0031002F0028002000DB
:1036CA00170011000F001100180020000000000070
:1036DA00B60D40164118420848095F09F9087509EC
:1036EA00AA09C8095E027A021300000000005210FB
:1036FA00FE0E000000000000000000000000EDFFC8
:10370A00EDFF00000000EDFF0000B60D4016841228
:10371A00701248095F09F9087509AA09C809000061
:10372A000000D414401656146F146114B2140D0A12
:10373A00006E616E00696E66006F7666002E00008C
:00000001FF
