:100000000C9450040C9478040C9478040C947804A8
:100010000C9478040C9478040C9478040C94780470
:100020000C9478040C9478040C9478040C94780460
:100030000C9478040C9478040C9478040C94780450
:100040000C94FA130C9478040C94F9120C94D312B7
:100050000C9478040C9478040C9478040C94780430
:100060000C9444140C9478041F24C51FC21FBF1F96
:10007000C21FBC1F2124B91FB61FB31FA71FB01F6B
:10008000A91FAE1FAC1F05A84CCDB2D44EB938364F
:10009000A9020C50B9918688083CA6AAAA2ABE00DB
:1000A0000000803F00000000240027002A00010219
:1000B00004081020408001020408102001020408F6
:1000C000102000000000250028002B000404040478
:1000D00004040404020202020202030303030303F2
:1000E000000000000000000001800000000000008F
:1000F000000000000000026000000000000000009E
:10010000000000003C18000000000000000000009B
:100110000006400400000000000000000000000A8B
:1001200080020000000000004000000000110001FB
:10013000000000000000C00000000010000080006F
:1001400000000000C000000000100000400000009F
:100150000000C00000000008000040000000000097
:10016000C000000000106040400000000000C0001F
:10017000000000104060200000000000A00000000F
:1001800000080020200000000000A000000000087F
:100190008000200000000000A00000000008C8C08F
:1001A000400000000010A1000000001098C04000B6
:1001B00000000128A28000000010308040000000F4
:1001C0007EA892F0000000202000400000000028DF
:1001D00092000000002020008000000000489200F3
:1001E0000000002010008000000000091400000042
:1001F000002300808000000000091400000000239C
:10020000FF8080000000000514000000001181C084
:100210008000000000050C000000001044070000F2
:100220000000000508000000000830080000000081
:1002300000050800000000040008000000000003A2
:10024000000030000002003800000300000300003E
:100250004800000C000780000480000300004C00F0
:1002600003F00000780008800001000047C07C0017
:1002700000000700710000000001B03F8000000096
:1002800000FF03FC0000000240000000000000002E
:10029000020400000002000000000000000000183E
:1002A000000000010000000000000000001000003D
:1002B0000000E00000000000000000E0000000017D
:1002C0000700000000000000001800000000F8C057
:1002D0000000000000003E000000000000300000B0
:1002E0000000000071F000000000001C0180000010
:1002F0000003C000000000000003C6400000000E24
:10030000000000000000000038400000FFF0000086
:10031000000000000000004000018000000000001C
:10032000000000000040000100000000000000008C
:10033000000000200001000000000000000000009C
:10034000002000010000000000000000000000206C
:10035000000100000000000000000000002000017B
:10036000000000000000000000000010000100007C
:10037000000000000000000000100001000000006C
:1003800000000000003E5B4F5B3E3E6B4F6B3E1C2F
:100390003E7C3E1C183C7E3C181C577D571C1C5E46
:1003A0007F5E1C00183C1800FFE7C3E7FF0018241D
:1003B0001800FFE7DBE7FF30483A060E26297929C7
:1003C00026407F050507407F05253F5A3CE73C5AFC
:1003D0007F3E1C1C08081C1C3E7F14227F22145FD9
:1003E0005F005F5F06097F017F006689956A606034
:1003F00060606094A2FFA29408047E040810207E2E
:10040000201008082A1C08081C2A08081E101010B2
:10041000100C1E0C1E0C30383E3830060E3E0E06F8
:10042000000000000000005F00000007000700144B
:100430007F147F14242A7F2A12231308646236490A
:100440005620500008070300001C224100004122F2
:100450001C002A1C7F1C2A08083E080800807030F7
:100460000008080808080000606000201008040266
:100470003E5149453E00427F40007249494946216C
:1004800041494D331814127F1027454545393C4AE0
:1004900049493141211109073649494936464949F7
:1004A000291E00001400000040340000000814223F
:1004B00041141414141400412214080201590906AD
:1004C0003E415D594E7C1211127C7F494949363EAE
:1004D000414141227F4141413E7F494949417F0994
:1004E0000909013E414151737F0808087F00417F9F
:1004F00041002040413F017F081422417F4040409D
:10050000407F021C027F7F0408107F3E4141413E34
:100510007F090909063E4151215E7F0919294626B6
:100520004949493203017F01033F4040403F1F20BA
:1005300040201F3F4038403F631408146303047891
:1005400004036159494D43007F41414102040810B1
:1005500020004141417F04020102044040404040EC
:10056000000307080020545478407F28444438385A
:1005700044444428384444287F38545454180008CC
:100580007E090218A4A49C787F0804047800447DA6
:1005900040002040403D007F1028440000417F4043
:1005A000007C047804787C08040478384444443897
:1005B000FC1824241818242418FC7C080404084877
:1005C0005454542404043F44243C4040207C1C20C8
:1005D00040201C3C4030403C44281028444C909023
:1005E000907C4464544C440008364100000077007D
:1005F00000004136080002010204023C2623263C8A
:100600001EA1A161123A4040207A38545455592114
:1006100055557941225454784221555478402054FC
:100620005579400C1E52721239555555593954544A
:10063000545939555454580000457C410002457DB9
:10064000420001457C407D1211127DF0282528F0E2
:100650007C545545002054547C547C0A097F49320F
:10066000494949323A4444443A324A4848303A4186
:1006700041217A3A42402078009DA0A07D3D42422F
:10068000423D3D4040403D3C24FF2424487E4943B8
:10069000662B2FFC2F2BFF0929F620C0887E09032B
:1006A00020545479410000447D413048484A323852
:1006B0004040227A007A0A0A727D0D19317D26297E
:1006C000292F28262929292630484D402038080876
:1006D000080808080808382F10C8ACBA2F102834AA
:1006E000FA00007B000008142A142222142A14089D
:1006F0005500550055AA55AA55AAFF55FF55FF00AC
:100700000000FF00101010FF00141414FF00101060
:10071000FF00FF1010F010F0141414FC001414F774
:1007200000FF0000FF00FF1414F404FC1414171061
:100730001F10101F101F1414141F00101010F000B1
:100740000000001F101010101F10101010F01000EB
:100750000000FF101010101010101010FF100000FB
:1007600000FF140000FF00FF00001F10170000FC36
:1007700004F414141710171414F404F40000FF0008
:10078000F714141414141414F700F7141414171491
:1007900010101F101F141414F4141010F010F00097
:1007A000001F101F0000001F14000000FC140000B8
:1007B000F010F01010FF10FF141414FF141010109C
:1007C0001F00000000F010FFFFFFFFFFF0F0F0F04F
:1007D000F0FFFFFF0000000000FFFF0F0F0F0F0FE3
:1007E0003844443844FC4A4A4A347E02020606022F
:1007F0007E027E0263554941633844443C04407E96
:10080000201E2006027E020299A5E7A5991C2A490E
:100810002A1C4C7201724C304A4D4D303048784899
:1008200030BC625A463D3E494949007E0101017E85
:100830002A2A2A2A2A44445F444440514A444040D8
:10084000444A51400000FF0103E080FF0000080817
:100850006B6B083612362436060F090F0600001897
:10086000180000001010003040FF0101001F0101BE
:100870001E00191D1712003C3C3C3C00000000000B
:1008800000000000230026002900000000080002EC
:1008900001000003040700000000000000002624FF
:1008A00011241FBECFEFD8E0DEBFCDBF15E0A0E022
:1008B000B1E0E4E5F2E502C005900D92A237B10780
:1008C000D9F727E0A2E7B5E001C01D92AA3DB20723
:1008D000E1F714E0C0E5D4E004C02197FE010E94D6
:1008E000F324CF34D107C9F70E9488170C94282924
:1008F0000C940000FC0177FD9AC0808591856817F3
:1009000079070CF094C057FD92C0828593854817F3
:1009100059070CF08CC08589823009F07CC0848135
:100920009581DC01A61BB70BBD0161507109868161
:100930009781FC01E41BF50BAF01415051090AC03E
:10094000813041F484819581841B950BAB01BC01FE
:10095000615071092130310529F008F1223031054B
:10096000E1F10895FA0157FD3796A3E0F595E79573
:10097000AA95E1F7F695FE2FEE27F795E7956E0F0E
:100980007F1FFB01EF5FFE4F4770552781E090E02E
:1009900001C0880F4A95EAF79081892B3AC0FA0185
:1009A00057FD379623E0F595E7952A95E1F7F695FB
:1009B000FE2FEE27F795E7956E0F7F1FFB01EF5F88
:1009C000FE4F4770552781E090E001C0880F4A959F
:1009D000EAF78095908189231CC0FA0157FD37966C
:1009E00083E0F595E7958A95E1F7F695FE2FEE27DA
:1009F000F795E7956E0F7F1FFB01EF5FFE4F477086
:100A0000552781E090E001C0880F4A95EAF7908170
:100A1000892780830895833009F092CF868197815A
:100A2000861B970BBA01AC014150510993CF089531
:100A300008952F923F924F925F926F927F928F9282
:100A40009F92AF92BF92CF92DF92EF92FF920F935D
:100A50001F93CF93DF93CDB7DEB76B970FB6F894A4
:100A6000DEBF0FBECDBF4C015A8349831F830E8367
:100A7000FD82EC82CB82DC0158964D915C915997B6
:100A80004115510509F0A5C018968D919C911997B3
:100A9000681779070CF05AC11A968D919C911B9793
:100AA000E981FA81E817F9070CF050C1D12CCB018C
:100AB0003B81F6E03F9F800D911D11241816190609
:100AC0000CF044C1C60133E0880F991F3A95E1F755
:100AD00049815A81840F951F181619060CF036C1EA
:100AE00057968C91811103C0203B08F02F5F55E091
:100AF000259F900111247E876D875B01212CC90100
:100B0000861B970B99878887A981BA811896BB871E
:100B1000AA87B5E02B1641F0E885F985EA0DFB1DA3
:100B2000E058FC4F349001C0312C69807A80230159
:100B300030FE12C0D401ED91FC91BB81B13031F493
:100B40000480F581E02D2E813F8118C00684F78551
:100B5000E02DEE80FF801CC0EC81FD812E813F8165
:100B6000E217F307E1F0D401ED91FC91BB81B130C4
:100B700051F40480F581E02D2C813D81A301B50164
:100B8000C40109950CC00684F785E02DEC80FD803A
:100B900086019601A2016D857E85C4010995369472
:100BA000EFEF6E1A7E0A4C0C5D1C2A853B8562169F
:100BB000730609F0BDCF23943FEFA31AB30A4D8506
:100BC0005E854C0D5D1D5E874D8756E02512A1CFD9
:100BD000BDC0FA0134963491329785919491231BCC
:100BE000A7E02A9F800D911D1124FA0125913491CF
:100BF0003A8B298BFC0125903490FC01329634917C
:100C00003887319644914C873196E491FC013596B2
:100C1000A491319684915B81523050F06A2E0A2E55
:100C2000000C7708E82F082E000CFF0BFB87EA87E3
:100C3000FB81CF2ED12C6C9C90016D9C300D7C9C47
:100C4000300D1124A901460F571F588B4F871C8266
:100C5000A12CEA2FAA0FFF0B3B016E0E7F1E5885B9
:100C6000650F711DDB01AE0FBF1FBF8BAE8BE9811E
:100C7000FA81E80FF11D87FDFA95F98FE88F9C85C1
:100C8000A91608F063C08A2D90E04A855B85480F5D
:100C9000591F4C9D90014D9D300D5C9D300D1124D0
:100CA000A981BA81A20FB31FBE87AD877B8E6A8EE2
:100CB0004F845888BC81B619BB8BE88DF98DE80F3D
:100CC000F91FFD8BEC8B8B89FA8D8F0F2A8D3B8D55
:100CD0004E895F892417350799F1877041F4C10166
:100CE0000196E989FA89E20DF31DB4901C01B7FE63
:100CF0001EC0D401ED91FC91BB81B13061F4048040
:100D0000F581E02D2E813F814C895D896A8D7B8D37
:100D1000C40109950CC00684F785E02DEE80FF80A4
:100D2000860196014D855E85B201C4010995BB0C13
:100D3000EA8DFB8D3196FB8FEA8F4C0C5D1CC3CF87
:100D40005C818885580F5C83A39499CF6B960FB60E
:100D5000F894DEBF0FBECDBFDF91CF911F910F91F1
:100D6000FF90EF90DF90CF90BF90AF909F908F90CB
:100D70007F906F905F904F903F902F900895AF922B
:100D8000BF92CF92EF92FF920F931F93CF93DF9377
:100D9000EC01262F888D998D009709F042C06A30AA
:100DA00069F42C898E859F8538E0239F800D911DE5
:100DB00011249F878E871D861C86ACC06D3009F478
:100DC000A9C08E898823C1F03C898C859D8546E029
:100DD000349F800D911D11244885598584179507EE
:100DE0005CF01D861C868E859F85E8E03E9F800D09
:100DF000911D11249F878E87EA88FB8808891989AD
:100E00004E855F856C857D85CC88CE010E94190555
:100E10002C898C859D85F6E02F9F800D911D1124D6
:100E200041C06A3079F41D861C862C89FC013696F7
:100E3000E4918E859F852E9F800D911D11249F87A3
:100E40008E8768C06D3009F465C0AC014C5F5F4FA0
:100E5000FA013491631708F45DC03196E491E61706
:100E600008F458C0FA014491362F341BFC01329625
:100E7000A590B490F7E03F9FA00CB11C1124F501A0
:100E8000329634913196E491332311F0E1110DC083
:100E9000F5013496E4912C898C859D85E29F800D27
:100EA000911D11249D878C8735C0F501359644919D
:100EB0005E89552311F16C89E32FF0E0E40FF11DF9
:100EC00047FDFA956E9FD0016F9FB00D11244C85A0
:100ED0005D854A0F5B1FE885F9854E175F076CF04B
:100EE0001D861C86FC013696E4918E859F856E9F3B
:100EF000800D911D11249F878E87EA88FB880889C1
:100F000019894E855F856C857D85CC88CE010E94D0
:100F10001905BECF81E090E0DF91CF911F910F9135
:100F2000FF90EF90CF90BF90AF900895EF92FF9217
:100F30000F931F93DC01ED91FC9111971A960D917F
:100F40001C911B9718962D913C9119970684F78553
:100F5000E02D7B0140E050E060E070E009951F91DA
:100F60000F91FF90EF9008956F927F928F929F92D2
:100F7000AF92BF92CF92DF92EF92FF920F931F93A7
:100F8000CF93DF936C015A014801EB013B01620EE4
:100F9000731EC615D70574F4D601ED91FC9100843B
:100FA000F185E02D87019401A501BE01C6010995D7
:100FB0002196EFCFDF91CF911F910F91FF90EF908E
:100FC000DF90CF90BF90AF909F908F907F906F9069
:100FD0000895EF92FF920F931F93DC01ED91FC9126
:100FE000260F371F215031090680F781E02D780147
:100FF0008A0109951F910F91FF90EF900895EF924C
:10100000FF920F931F937801DC01ED91FC91240F67
:10101000351F8901015011090680F781E02D9B01E0
:1010200009951F910F91FF90EF9008956F927F9215
:101030008F929F92AF92BF92CF92DF92EF92FF92E8
:101040000F931F93CF93DF93EC014B015A0169017A
:101050003801E881F9810284F385E02D8701099543
:10106000E881F981A501460D571D415051090284BF
:10107000F385E02D9601B401CE010995E881F9814F
:101080000084F185E02D9301A501B401CE010995FD
:10109000E881F981C80CD91CB6016150710900843E
:1010A000F185E02D9301A501CE010995DF91CF9146
:1010B0001F910F91FF90EF90DF90CF90BF90AF9076
:1010C0009F908F907F906F9008952F923F924F92B4
:1010D0005F926F927F928F929F92AF92BF92CF92C8
:1010E000DF92EF92FF920F931F93CF93DF9300D085
:1010F0001F92CDB7DEB74C017B836A836A01590129
:1011000017019801241B350B37FF03C0319521953A
:101110003109C5014A815B81841B950B97FF03C090
:1011200091958195910951E059838217930714F0A5
:1011300019820BC09A2D8B2D5801092F182F9A81D7
:101140008B81DB82CA82C92ED82E8A819B81A81608
:10115000B9065CF49C2D8D2D6801092F182F9A81FA
:101160008B81BB82AA82A92EB82E2501AA81BB81C0
:101170004A1A5B0A38016C187D0877FE03C0719427
:1011800061947108720157FE03C0BFEFEB1AFB0AAE
:10119000F594E794C016D1061CF00FEF1FEF1FC0A7
:1011A00001E010E01CC0D401ED91FC91B9810480F4
:1011B000F581E02D9101BB23C1F04A815B81B6012D
:1011C000C4010995E618F708F7FE04C0C00ED11E49
:1011D000E40CF51CEA81FB813196FB83EA834A81AA
:1011E0005B81A416B506FCF604C0A6016A817B816A
:1011F000E7CF0F900F900F90DF91CF911F910F913C
:10120000FF90EF90DF90CF90BF90AF909F908F9026
:101210007F906F905F904F903F902F9008951F9315
:10122000CF93DF93EC01162F8C8D8F3F09F1EEA148
:10123000FFA190818CA5892B8083E8A5F9A59081D9
:101240008DA5809589238083EEA1FFA190818CA537
:10125000809589238083CE010E947215EEA1FFA1A3
:1012600090818CA5892B8083DF91CF911F91089568
:101270008A8D91E0909307078093290710920807C1
:1012800010922A0760E088EC97E00E94870F612F98
:1012900088EC97E00E94870FDF91CF911F910C940B
:1012A000AA15CF92DF92EF92FF920F931F93CF93E5
:1012B000DF93EC0161E20E940F0960E0CE010E9421
:1012C0000F096FE7CE010E940F0962E2CE010E9472
:1012D0000F0960E0CE010E940F0967E0CE010E9475
:1012E0000F098C8D8F3F31F1EEA1FFA190818CA56C
:1012F000892B8083E8A5F9A590818DA5892B808312
:10130000EEA1FFA190818CA580958923808301E0C7
:1013100011E0F80161918F01CE010E947215F5E094
:1013200001301F07B1F7EEA1FFA190818CA5892B99
:10133000808332C0D090B8008CE08093B80001E088
:1013400011E0CC24C3948A8DC092070780932907AB
:101350001092080710922A0760E488EC97E00E9438
:10136000870FE12CF12CF801EE0DFF1D608188EC58
:1013700097E00E94870F8FEFE81AF80AE0E1EE1677
:10138000F10489F70E94AA15005F1F4FF5E00130B4
:101390001F07C9F6D092B800DF91CF911F910F912E
:1013A000FF90EF90DF90CF900895CF93DF93C9E047
:1013B000D1E08BE297E00E940B0E892B09F47AC0F2
:1013C00080917C0590917D058930914024F0D093E7
:1013D0007D05C0937C058BE297E00E94E90D9EE3BA
:1013E000980F923030F3982F8A30D9F46FEA8091B9
:1013F000D4079091D5070E940F09E0917C05F091E8
:101400007D05E258FA4F108210927605109275050C
:1014100010927B0510927A0580917E058093740569
:10142000C8CF20917C0530917D058F39C1F0803B7C
:10143000C1F08D3BC1F0823BC1F0843AC1F0863BE4
:10144000C1F08C3BC1F08438C1F08639C1F08C39D1
:10145000C1F08B3AC1F08B3BB9F49FEA15C090EE16
:1014600013C098EF11C09BEA0FC09DEF0DC094E828
:101470000BC094E909C091E807C09EE805C099E94E
:1014800003C09AE901C09EEAF901E258FA4F90833D
:10149000C9010196893021E092072CF490937D05D3
:1014A00080937C0586CFD0937D05C0937C051092F8
:1014B00087067FCFDF91CF9108952F923F924F9271
:1014C0005F926F927F928F929F92AF92BF92CF92D4
:1014D000DF92EF92FF920F931F93CF93DF9300D091
:1014E00000D0CDB7DEB79C838B836B015A01890195
:1014F00081E090E04C01821A930A88279927821B89
:10150000930B9C01220F331F3A832983AB81BC814B
:10151000ED91FC911197A501400F511F0480F581B9
:10152000E02D21E030E0CD010995AB81BC81ED914A
:10153000FC911197A501401B510B0480F581E02D12
:1015400021E030E0B601CD010995AB81BC81ED9180
:10155000FC911197B601600F711F0480F581E02D99
:1015600021E030E0A501CD010995AB81BC81ED9171
:10157000FC911197B601601B710B0480F581E02D81
:1015800021E030E0A501CD010995E12CF12CE01618
:10159000F1060CF09DC097FC09C001501109E981CA
:1015A000FA813296FA83E9838E0E9F1EFFEFEF1ABF
:1015B000FF0AC701880F991F0196880E991E2701FF
:1015C0004C0C5D1CAB81BC81ED91FC9111970480AA
:1015D000F581E02D21E030E03501600E711EA301A0
:1015E000B201CD01099516012E183F08AB81BC81CF
:1015F000ED91FC9111970480F581E02D21E030E020
:10160000A301B101CD010995AB81BC81ED91FC91A4
:1016100011970480F581E02D21E030E03501601A5A
:10162000710AA301B201CD010995AB81BC81ED9195
:10163000FC9111970480F581E02D21E030E0A301B9
:10164000B101CD01099537016A0C7B1CAB81BC81CE
:10165000ED91FC9111970480F581E02D21E030E0BF
:10166000A3012601400E511EB201CD010995AB81A7
:10167000BC81ED91FC9111970480F581E02D21E072
:1016800030E0A3011601201A310AB101CD010995FC
:1016900035016E187F08AB81BC81ED91FC911197EB
:1016A0000480F581E02D21E030E0A301B201CD01FD
:1016B0000995AB81BC81ED91FC9111970480F58176
:1016C000E02D21E030E0A301B101CD0109955FCF0C
:1016D0000F900F900F900F90DF91CF911F910F916E
:1016E000FF90EF90DF90CF90BF90AF909F908F9042
:1016F0007F906F905F904F903F902F900895DC0106
:10170000ED91FC910480F581E02D21E030E0099419
:10171000EF92FF920F931F93DC01ED91FC910680F5
:10172000F781E02DEE24E394F12C09951F910F91A0
:10173000FF90EF900895EF92FF920F931F93DC01BB
:10174000ED91FC910684F785E02DE12CF12C0995B3
:101750001F910F91FF90EF900895CF92DF92EF923B
:10176000FF920F931F93CF93DF936034710530F591
:101770004033510518F57A01EB012796C12CD12C85
:10178000082F10E0C8010C2C02C0959587950A948B
:10179000E2F780FF0BC0C034D10544F4A701BE01BD
:1017A0008091D4079091D5070E947F0B8FEFC81AC4
:1017B000D80A219788E0C816D10421F7DF91CF918C
:1017C0001F910F91FF90EF90DF90CF900895CF92EF
:1017D000DF92EF92FF920F931F93CF93DF938EE4EC
:1017E00080937C006AE070E080E090E00E94C0138B
:1017F00080917A00806480937A0080917A00082F2B
:10180000007486FDFACF209178008091790030E055
:10181000382B032E000C440B550B60E070E381E184
:1018200090E00E94D424B901330F880B990B0E94D9
:101830002E266B017C0120E030EC41E455E40E944F
:101840007A251091000187FD2FC020E030E844E5A3
:1018500055E4C701B6010E941D2787FD03C00DEFA7
:10186000010F22C020E030EC41E455E4C701B6018D
:101870000E940D256B017C01812F90E00397BC0134
:10188000990F880B990B0E942E269B01AC01C70172
:10189000B6010E94222720E030E046E953E40E948E
:1018A00084250E94FD25062FC02FD0E0612F70E017
:1018B00063507109072E000C880B990B0E942E268D
:1018C00020E030E046E153E40E94222720E030E0AF
:1018D00046E953E40E9484250E94FD25E091D40747
:1018E000F091D507D284D61A0617C8F48085918561
:1018F000499795878487178616866CE4CF010E94E6
:101900006E126FE68091D4079091D5070E946E12F7
:1019100067E78091D4079091D5070E946E1280915D
:10192000D4079091D50720910001FC014285538591
:10193000421B510960857185645071090E947F0BBB
:101940008091D4079091D50720910001FC01428538
:101950005385421B510960857185635071090E944E
:101960007F0B8091000190E0A091D407B091D50742
:10197000ED91FC9111978C01015011091A964D912E
:101980005C911B97481B590B4F5F5F4F18966D91E9
:101990007C911997665071090484F585E02DEE2439
:1019A000E394F12C26E030E0CD010995A091D40715
:1019B000B091D507ED91FC9111971A964D915C91DC
:1019C0001B974C1B5D0B4150510918966D917C91F2
:1019D0001997655071090684F785E02D8E0124E082
:1019E00030E0CD010995CD2DD0E08091D4079091C4
:1019F000D507FC016085718567507109AE010E94B1
:101A00007F0B8091D4079091D507FC01608571858B
:101A100066507109AE01DF91CF911F910F91FF9038
:101A2000EF90DF90CF900C947F0B8F929F92AF92AC
:101A3000BF92EF92FF920F931F93CF93DF9360912A
:101A400079056A3040F460E080E090E00E943D1645
:101A50006091790502C080E090E00E943D1660919F
:101A600078056A3040F460E08BE290E00E943D1619
:101A70006091780502C08BE290E00E943D16609173
:101A800077056A3040F460E085E590E00E943D16FD
:101A90006091770502C085E590E00E943D16E090D8
:101AA000D407F090D507F701C285D38522976091BE
:101AB000000170E080E090E00E942E264B015C0166
:101AC00040918706642F70E080E090E00E942E260F
:101AD00020E030E040E151E40E9484259B01AC010C
:101AE000C501B4010E9422270E94F6258E019B01A8
:101AF000AE0160E070E0C7010E94880BDF91CF91DA
:101B00001F910F91FF90EF90BF90AF909F908F909B
:101B10000895809187068F5F809387068A3068F1E9
:101B20006AE00E94922420917705820F80937705C6
:101B3000909387068C3350F06CE30E94922420919E
:101B40007805820F809378059093770580917805CA
:101B50008C3350F06CE30E94922420917905820F1F
:101B6000809379059093780580917905883128F0E4
:101B700068E10E949224909379050895CF92DF92B4
:101B8000EF92FF920F931F93CF93DF936C017A0133
:101B90008B01C0E0D0E0CE15DF0589F0D8016D9152
:101BA0008D01D601ED91FC910190F081E02DC601EF
:101BB0000995892B11F47E0102C02196ECCFC70153
:101BC000DF91CF911F910F91FF90EF90DF90CF9019
:101BD0000895FC01918D828D981761F0828DDF014F
:101BE000A80FB11D5D968C91928D9F5F9F73928F10
:101BF00090E008958FEF9FEF0895FC01918D828D05
:101C0000981731F0828DE80FF11D858D90E00895D1
:101C10008FEF9FEF0895FC01918D228D892F90E029
:101C2000805C9F4F821B91098F73992708958BE2E7
:101C300097E00E940B0E21E0892B09F420E0822F0F
:101C40000895FC01848DDF01A80FB11DA35ABF4F79
:101C50002C91848D90E001968F739927848FA689AB
:101C6000B7892C93A089B1898C9180648C93938DD2
:101C7000848D981306C00288F389E02D80818F7DC2
:101C800080830895EF92FF920F931F93CF93DF937A
:101C9000EC0181E0888F9B8D8C8D981305C0E889BD
:101CA000F989808185FD24C0F62E0B8D10E00F5F31
:101CB0001F4F0F731127E02E8C8DE8120CC00FB64A
:101CC00007FCFACFE889F989808185FFF5CFCE013D
:101CD0000E94210EF1CF8B8DFE01E80FF11DE35A1A
:101CE000FF4FF0820B8FEA89FB898081806207C0F9
:101CF000EE89FF896083E889F98980818064808327
:101D000081E090E0DF91CF911F910F91FF90EF90D4
:101D10000895CF93DF93EC01888D8823C9F0EA8979
:101D2000FB89808185FD05C0A889B9898C9186FDD4
:101D30000FC00FB607FCF5CF808185FFF2CFA889D1
:101D4000B9898C9185FFEDCFCE010E94210EE7CF9E
:101D5000DF91CF9108950E94170E81110C94D5093F
:101D60000895833081F028F4813099F08230A1F019
:101D700008958730A9F08830B9F08430D1F480918B
:101D800080008F7D03C0809180008F7780938000DA
:101D9000089584B58F7702C084B58F7D84BD089582
:101DA0008091B0008F7703C08091B0008F7D8093C9
:101DB000B00008953FB7F8948091DC069091DD065D
:101DC000A091DE06B091DF0626B5A89B05C02F3F87
:101DD00019F00196A11DB11D3FBFBA2FA92F982F51
:101DE0008827820F911DA11DB11DBC01CD0143E0CB
:101DF000660F771F881F991F4A95D1F7089585EDC3
:101E00008093BC008091BC0084FDFCCF109206073B
:101E100008954091B206262F30E0240F311D213263
:101E20003105DCF4209106072430C9F4FC0180E080
:101E300090E0861758F43091B2062191DC01A0574A
:101E4000B94FA30FB11D2C930196F3CF8091B20629
:101E5000680F6093B20680E0089581E0089582E003
:101E60000895089581E090E0309173052091720506
:101E7000321710F480E090E09195819591090895D2
:101E80008091730590917205891730F48F5F80936C
:101E9000730580E090E008958FEF9FEF08958091A3
:101EA000720590E020917305821B91090895CF92ED
:101EB000DF92EF92FF920F931F93CF93DF937C01FA
:101EC000262F972F8A0180910707882391F0C62F2C
:101ED000D72F6E01C40ED51ECC15DD0571F06991AA
:101EE000D701ED91FC910190F081E02DC70109959A
:101EF000F3CF642F822F0E94090FC801DF91CF9189
:101F00001F910F91FF90EF90DF90CF900895CF93A6
:101F1000DF931F92CDB7DEB7698320910707222395
:101F2000D1F020912A07203240F021E030E0FC017E
:101F30003383228380E090E015C080910807E82F6A
:101F4000F0E0E75FF84F998190838F5F80930807F7
:101F500080932A0705C061E0CE0101960E94090F17
:101F600081E090E00F90DF91CF9108950F931F9340
:101F7000CF93DF93DC0155968C915597823071F0A9
:101F8000833009F1813009F08CC01496ED91FC91F9
:101F90001597E41BF50BE21BF30B20C01496ED9193
:101FA000FC911597CF01861B970BBC0161507109FD
:101FB0001696ED91FC911797CF01841B950BAC0100
:101FC000421B530B6EC01696ED91FC911797CF01F3
:101FD000861B970BBC0161507109FA0177FD1BC18B
:101FE00016968D919C911797681779070CF013C17D
:101FF000F7FF04C02E0F3F1FE0E0F0E014968D9134
:102000009C911597AF01420F531F841795071CF43D
:102010009C012E1B3F0B121613060CF0FCC0CB01CB
:1020200077FD079643E0959587954A95E1F7969554
:10203000982F882797958795E80FF91FEF5FFE4F38
:102040006770772781E090E001C0880F6A95EAF712
:10205000482F0130110541F088F00230110509F0D8
:10206000DAC02E0F3F1F15C02E0F3F1FE217F307D8
:1020700009F4D1C08081842B8193F8CF80952E0FF5
:102080003F1FE217F30709F4C6C09081982391938C
:10209000F8CFE217F30709F4BEC08081842781934B
:1020A000F8CF77FDB8C014968D919C91159768175D
:1020B00079070CF0B0C057FF04C0240F351F40E073
:1020C00050E016968D919C911797FA01E20FF31F3D
:1020D0008E179F071CF49C01241B350B1216130648
:1020E0000CF099C0A22F842F86958695869590E84E
:1020F000899F600D711D1124FB01EF5FFE4F47703A
:10210000A9F198E0941B492F50E0EA01CF5CDA4F27
:102110008881291790F4421B51092FEF30E002C04B
:10212000359527954A95E2F782230130110541F054
:1021300068F00230110589F06EC00130110519F404
:102140002081822B0CC00130110520F48095208164
:10215000822305C00230110531F42081822780835B
:10216000A91708F458C0A91BE058FF4FA83048F140
:102170000230110559F4EF018A2F988190959883C8
:10218000C058DF4F88508830C0F730C081E0013040
:10219000110509F080E08195EF019A2F8883C058DE
:1021A000DF4F98509830D0F788EF8A0F8695869544
:1021B000869590E8899FE00DF11D1124E058FF4FAE
:1021C000A770AA2341F1B0E0A75DBA4F8C9101300E
:1021D000110529F038F002301105D1F01CC09081B2
:1021E000892B18C080959081892314C088EF8A0FAD
:1021F00086958695869590E8899FE00DF11D1124BE
:10220000E058FF4FA77039F0B0E0A75DBA4F8C914E
:10221000908189278083DF91CF911F910F9108953D
:102220000F931F93CF93DF93DC01FB0155968C91A5
:102230005597823081F0833019F1813051F5149631
:102240008D919C911597BC01641B750BAB0141509E
:102250005109BF0181C014966D917C911597CB01F6
:102260008E1B9F0BFC0116968D919C911797BC01BC
:10227000641B750BAB0141505109E21BF30B09C004
:1022800016966D917C9117976E1B7F0B621B730BDB
:1022900063C057FD1CC116968D919C9117974817E6
:1022A00059070CF014C1F7FF04C02E0F3F1FE0E0E8
:1022B000F0E014968D919C911597BF01620F731FEA
:1022C000861797071CF49C012E1B3F0B1216130652
:1022D0000CF0FDC0CA0157FD079663E09595879500
:1022E0006A95E1F79695982F882797958795E80F37
:1022F000F91FEF5FFE4F4770552781E090E001C066
:10230000880F4A95EAF7482F0130110541F088F00F
:102310000230110509F0DBC02E0F3F1F15C02E0F34
:102320003F1FE217F30709F4D2C08081842B819309
:10233000F8CF80952E0F3F1FE217F30709F4C7C0AF
:10234000908198239193F8CFE217F30709F4BFC067
:10235000808184278193F8CF57FDB9C014968D9161
:102360009C911597481759070CF0B1C077FF04C02E
:10237000260F371F60E070E016968D919C9117979D
:10238000FB01E20FF31F8E179F071CF49C01261B15
:10239000370B121613060CF09AC0A22F862F8695C3
:1023A0008695869590E8899F400D511D1124FA016C
:1023B000EF5FFE4F6770A9F198E0961B492F50E040
:1023C000EA01CF5CDA4F8881291790F4421B51094A
:1023D0002FEF30E002C0359527954A95E2F782232A
:1023E0000130110541F068F00230110589F06FC02D
:1023F0000130110519F42081822B0CC00130110528
:1024000020F480952081822305C00230110531F42B
:10241000208182278083A91708F459C0A91BE0589E
:10242000FF4FA83048F10230110559F4EF018A2F0F
:10243000988190959883C058DF4F88508830C0F7B6
:1024400031C081E00130110509F080E08195EF0194
:102450009A2F8883C058DF4F98509830D0F788EF74
:102460008A0F86958695869560E8869FE00DF11D1A
:102470001124E058FF4FA770AA2349F1B0E0A75DEF
:10248000BA4F8C910130110529F038F00230110556
:10249000D9F01DC09081892B03C08095908189233C
:1024A000808315C088EF8A0F86958695869570E89B
:1024B000879FE00DF11D1124E058FF4FA77039F000
:1024C000B0E0A75DBA4F8C9190818927E9CFDF9169
:1024D000CF911F910F9108950E940D29DC01ED917C
:1024E000FC910190F081E02D09946115710579F05E
:1024F000FB0101900020E9F73197AF01461B570B14
:10250000DC01ED91FC910280F381E02D099480E0E3
:1025100090E008954F925F926F927F92EF92FF92B8
:102520000F931F93CF93DF93CDB7DEB7A1970FB66D
:10253000F894DEBF0FBECDBF7C01FA01CB0119A21A
:10254000223008F42AE08E010F5D1F4F422E512CDD
:10255000612C712CBF01A30192010E94B224F901E8
:10256000CA01015011096A3014F4605D01C0695C50
:10257000D8016C93232B242B252B61F7B801C701BD
:102580000E947512A1960FB6F894DEBF0FBECDBFA4
:10259000DF91CF911F910F91FF90EF907F906F90FF
:1025A0005F904F9008951F920F920FB60F921124D3
:1025B0002F933F934F935F936F937F938F939F934B
:1025C000AF93BF93EF93FF938BE297E00E94210EAE
:1025D000FF91EF91BF91AF919F918F917F916F91FB
:1025E0005F914F913F912F910F900FBE0F901F90D1
:1025F00018951F920F920FB60F9211242F938F935D
:102600009F93EF93FF93E0913B07F0913C0780810C
:10261000E0914107F091420782FD12C090818091C4
:1026200044078F5F8F7320914507821751F0E09127
:102630004407F0E0E55DF84F958F8093440701C0B3
:102640008081FF91EF919F918F912F910F900FBEFD
:102650000F901F901895CF93DF93282F30E0F9014A
:10266000E657F74F8491F901E255FF4FD491F901F4
:10267000E453FF4FC491CC2391F081110E94B10E1D
:10268000EC2FF0E0EE0FFF1FE058F74FA591B4914B
:10269000EC91ED2381E090E021F480E002C080E045
:1026A00090E0DF91CF9108951F93CF93DF93282F70
:1026B00030E0F901E657F74F8491F901E255FF4FF9
:1026C000D491F901E453FF4FC491CC23C9F0162FE4
:1026D00081110E94B10EEC2FF0E0EE0FFF1FEE53C0
:1026E000FF4FA591B4918FB7F894111105C09C913B
:1026F000ED2FE095E92302C0EC91ED2BEC938FBF19
:10270000DF91CF911F910895CF93DF9390E0FC016B
:10271000E255FF4F2491FC01E453FF4F849188233D
:1027200061F190E0880F991FFC01EC55FF4FC591B6
:10273000D491FC01EE53FF4FA591B491611109C0F2
:102740009FB7F8948881209582238883EC912E236B
:102750000BC0623061F49FB7F8943881822F809566
:1027600083238883EC912E2B2C939FBF06C08FB7B9
:10277000F894E8812E2B28838FBFDF91CF910895A5
:102780008F929F92AF92BF92CF92DF92EF92FF9281
:102790006B017C010E94DA0E4B015C01C114D10473
:1027A000E104F104F1F00E94DA0EDC01CB0188199A
:1027B0009909AA09BB09883E9340A105B10570F3A8
:1027C00021E0C21AD108E108F10888EE880E83E002
:1027D000981EA11CB11CC114D104E104F10419F725
:1027E000DDCFFF90EF90DF90CF90BF90AF909F90A4
:1027F0008F9008951F920F920FB60F9211242F936E
:102800003F938F939F93AF93BF938091D8069091FE
:10281000D906A091DA06B091DB063091D70626E002
:10282000230F2D3720F40296A11DB11D05C029E804
:10283000230F0396A11DB11D2093D7068093D806C0
:102840009093D906A093DA06B093DB068091DC065C
:102850009091DD06A091DE06B091DF060196A11DE4
:10286000B11D8093DC069093DD06A093DE06B09345
:10287000DF06BF91AF919F918F913F912F910F9064
:102880000FBE0F901F9018951F920F920FB60F92C8
:1028900011242F933F934F935F936F937F938F9365
:1028A0009F93AF93BF93EF93FF938091B900887F7D
:1028B000803609F49CC068F5883209F45BC090F456
:1028C000803109F454C038F4882309F4F6C0883004
:1028D00009F44DC0F6C0883109F44CC0803209F4C7
:1028E0005DC0EFC0803409F468C048F4803309F457
:1028F00055C0883309F0E5C080930407D8C08035FF
:1029000009F44FC0883509F45DC0883409F0D9C096
:10291000D6C0883909F4C7C0A8F4883709F467C05D
:1029200038F4883609F463C0803709F460C0C9C040
:10293000883809F4B8C0803909F45FC0803809F0DC
:10294000C0C05BC0803B09F486C038F4803A09F40B
:1029500066C0883A09F47FC0B4C0803C09F4A7C0BF
:10296000883C09F4A4C0883B09F48AC0AAC08091BD
:10297000E10610C09091030780910207981770F547
:10298000E091030781E08E0F80930307F0E0EE51A2
:10299000F94F80818093BB0085EC86C0809304074B
:1029A0008EC0E091030781E08E0F80930307809132
:1029B000BB00F0E0EE51F94F8083909103078091C6
:1029C00002076EC0E091030781E08E0F809303073A
:1029D0008091BB00F0E0EE51F94F808380910507B4
:1029E00081116DC081E08093E00684EA61C083E0DC
:1029F000809306071092D606CFCF8091D6068032FC
:102A000008F051C0E091D60681E08E0F8093D60683
:102A10008091BB00F0E0EA54F94F8083BDCF85EC94
:102A20008093BC00109206078091D606803230F465
:102A3000E091D606F0E0EA54F94F10826091D60694
:102A400070E0E091B406F091B50686EB96E009954A
:102A50001092D60636C084E0809306071092B30623
:102A60001092B206E091B006F091B10609958091FE
:102A7000B206811105C081E08093B20610929006E3
:102A8000E091B30681E08E0F8093B306F0E0E0574B
:102A9000F94F80818093BB009091B3068091B2067C
:102AA000981708F479CF85E88093BC000AC085ECBC
:102AB0008093BC001092060704C0109204070E9485
:102AC000FF0EFF91EF91BF91AF919F918F917F91F9
:102AD0006F915F914F913F912F910F900FBE0F908B
:102AE0001F901895FC0181A1882339F06EBD00006C
:102AF0000DB407FEFDCF8EB5089528E030E090E8D4
:102B0000A4A1B5A14C9183A5809584238C93A2A107
:102B1000B3A182A5492F462319F04C91842B03C001
:102B20004C91809584238C93A4A1B5A14C9183A54D
:102B3000842B8C9396952150310911F7089580E0EC
:102B400094E0E1E0F1E0DF019C011D922150304072
:102B5000E1F7089520912A0790912907213208F082
:102B60004AC0809106078111FCCF32E030930607FE
:102B700031E0309305073FEF3093040710920307CD
:102B800020930207A9E0B7E042EE56E0FA013E2F9B
:102B9000341B321718F43D913193F9CF1092E106AE
:102BA0002091E106990F922B9093E1069091E00617
:102BB000913061F41092E0069091E1069093BB0091
:102BC0009091BC0093FDF8CF95EC01C095EE9093E9
:102BD000BC00909106079230E1F3909104079F3F6B
:102BE00079F080910407803241F0809104078033AE
:102BF00031F084E005C081E003C082E001C083E0E1
:102C00001092080710922A07109207070895CF9292
:102C1000DF92EF92FF920F931F93CF93DF936B019D
:102C2000770FEE08FF08F7FE1BC0EC016DE20E9473
:102C30006E128C0144275527BA014C195D096E09A3
:102C40007F092AE0CE010E948A12800F911FDF9136
:102C5000CF911F910F91FF90EF90DF90CF9008954B
:102C60002AE0B701A601DF91CF911F910F91FF904C
:102C7000EF90DF90CF900C948A12CF92DF92EF9278
:102C8000FF920F931F93CF93DF93EC016A3058F0BC
:102C9000862F6AE00E949224192F682FCE010E948D
:102CA0003D16EC01612F8091D4079091D5076111F9
:102CB00008C0BE01695F7F4F27E030E040E250E08E
:102CC000C4C06130D9F47E0125E0E20EF11C0AE0B7
:102CD00010E097014FE050E0BE010E94880B08E22F
:102CE00010E097014AE050E0B7018091D40790913D
:102CF000D5070E94880BCE01089601C1623049F5C4
:102D00007E0137E0E30EF11C27E030E04DE150E0BA
:102D1000B7010E945D0A0EE110E027E030E04AE0D2
:102D200050E0BE018091D4079091D5070E949B0B83
:102D30009E01215F3F4F08E210E045E250E0B701FD
:102D40008091D4079091D5070E94880BCE014196BF
:102D5000D6C0633089F47E0127E0E20EF11C27E043
:102D600030E041E150E0B7010E945D0A27E030E029
:102D700040E250E0B70140C06430F1F47E013FE032
:102D8000E30EF11C0AE010E0970149E150E0BE01BA
:102D90000E94880B09E110E0970149E150E0BE0173
:102DA0008091D4079091D5070E94880B08E210E02B
:102DB00097014AE050E0C3CF9E01295F3F4F690170
:102DC000653071F5285F3F4F0AE010E04AE050E0BF
:102DD000B6010E94880B09E110E096014AE050E03C
:102DE000B6018091D4079091D5070E94880B27E007
:102DF00030E040E250E0B6018091D4079091D507D1
:102E00000E945D0A0EE110E027E030E04AE050E069
:102E1000BE018091D4079091D5070E949B0B96CF5D
:102E20006630B1F49E01215F3F4F0AE010E04EE1B1
:102E300050E0BE010E94880B27E030E040E250E005
:102E4000B6018091D4079091D5070E945D0A7ECF8C
:102E5000673051F57E013FE0E30EF11C0AE010E01F
:102E600097014DE050E0BE010E94880B08E210E09F
:102E70009E014AE050E0B7018091D4079091D507B8
:102E80000E94880B9E01225F3F4FBE016D5F7F4F06
:102E900009E110E049E150E08091D4079091D50715
:102EA0000E94880BC6012BC09E012F5E3F4F790107
:102EB00027E030E041E150E0683079F4B6010E944B
:102EC0005D0A27E030E040E250E0B6018091D4078F
:102ED0009091D5070E945D0A11C0B6010E945D0A5B
:102EE000BE01615F7F4F08E210E09B0141E150E0CD
:102EF0008091D4079091D5070E94880BC701DF917C
:102F0000CF911F910F91FF90EF90DF90CF90089598
:102F1000CF93DF9300D000D000D0CDB7DEB7789448
:102F200084B5826084BD84B5816084BD85B58260CE
:102F300085BD85B5816085BD80916E00816080937F
:102F40006E001092810080918100826080938100E8
:102F500080918100816080938100809180008160F8
:102F6000809380008091B10084608093B100809153
:102F7000B00081608093B00080917A00846080937B
:102F80007A0080917A00826080937A0080917A0042
:102F90008E7F80937A0080917A00806880937A0097
:102FA0001092C10062E08EE00E94841362E08FE024
:102FB0000E94841361E08AE00E94841361E08AE049
:102FC0000E945413E0913B07F0913C0792E09083FC
:102FD000E0913707F09138071082E0913907F091BE
:102FE0003A0787E6808310924307E0913F07F0910C
:102FF000400786E08083E0913D07F0913E078081A5
:1030000080618083E0913D07F0913E078081886078
:103010008083E0913D07F0913E0780818068808346
:10302000E0913D07F0913E0780818F7D8083809104
:103030006400886080936400809164008064809361
:1030400064008091640081608093640080916400DA
:10305000806880936400E090D407F090D507D70192
:103060005B969C935B978DE35A968C935A975C96EC
:103070008C915C978F3F09F4C3C061E05E968C91A0
:103080000E94841361E0F70180A10E948413D7019C
:1030900090968C919097082E000C990BFC01E453AC
:1030A000FF4FE491F0E0EE0FFF1FEE53FF4F25912D
:1030B0003491F70137A326A3FC01E255FF4FE491B9
:1030C0009C96EC939C975E968C915E97082E000CD4
:1030D000990BFC01E453FF4FE491F0E0EE0FFF1F6A
:1030E000EE53FF4F25913491F70131A720A7FC0142
:1030F000E255FF4FE4919D96EC939D9791968C91AC
:103100009197811140C061E05C968C910E9484137C
:1031100061E0F701858D0E948413D7015D968C9143
:103120005D97082E000C990BFC01E453FF4FE491CE
:10313000F0E0EE0FFF1FEE53FF4F25913491F701A2
:1031400035A324A3FC01E255FF4FE4919B96EC9339
:103150009B975C968C915C97082E000C990BFC0158
:10316000E453FF4FE491F0E0EE0FFF1FEE53FF4FEB
:1031700025913491F70133A322A3FC01E255FF4FBF
:10318000E4919A96EC93F70181A1882309F45FC03A
:103190001FB7F89480918806811127C0E6EDF0E012
:1031A0008491E8EBF0E09491E82FF0E0EE0FFF1F40
:1031B000EC55FF4FA591B491EC91E92321F461E026
:1031C0008AE00E94541361E08AE00E9484138CB567
:1031D00080618CBD8CB580648CBD61E08DE00E9407
:1031E000841361E08BE00E948413809188068F5FD6
:1031F000809388061FBF80E58CBD81E08DBD27C010
:1032000010927305109272051092080710922A0707
:103210001092060781E0809305071092E00661E0B6
:1032200082E10E94541361E083E10E945413809173
:10323000B9008E7F8093B9008091B9008D7F809313
:10324000B90080E28093B80085E48093BC00D70188
:103250005F968C9187FD1FC061E00E94841361E03E
:10326000F701878D0E94541361E070E080E090E0E8
:103270000E94C01360E0D7015F968C910E945413A6
:103280006AE070E080E090E00E94C01361E0F70126
:10329000878D0E9454136EEAC7010E940F0965EDE5
:1032A000C7010E940F0960E8C7010E940F0968EA80
:1032B000C7010E940F096FE3C7010E940F0963ED68
:1032C000C7010E940F0960E0C7010E940F0960E476
:1032D000C7010E940F096DE8C7010E940F0964E150
:1032E000C7010E940F0960E2C7010E940F0960E058
:1032F000C7010E940F0961EAC7010E940F0968EC2B
:10330000C7010E940F096AEDC7010E940F0962E11F
:10331000C7010E940F0961E8C7010E940F096FEC05
:10332000C7010E940F0969EDC7010E940F0961EFF3
:10333000C7010E940F096BEDC7010E940F0960E4ED
:10334000C7010E940F0964EAC7010E940F0966EADB
:10335000C7010E940F096EE2C7010E940F096FEAC0
:10336000C7010E940F09C7010E949F1581E0D70184
:1033700054968C93549781E090E053969C938E934F
:10338000529751969C938E9350971D961C921E9225
:103390001C971F961C921E921E9765E58091D4077C
:1033A0009091D5070E946E1261E48091D4079091AC
:1033B000D5070E946E1262E58091D4079091D507DF
:1033C0000E946E1264E58091D4079091D5070E9407
:1033D0006E126DE28091D4079091D5070E946E1213
:1033E00063E58091D4079091D5070E946E126DE637
:1033F0008091D4079091D5070E946E1261E680916A
:10340000D4079091D5070E946E1262E78091D4078D
:103410009091D5070E946E1264E78091D407909135
:10342000D5070E946E1267E78091D4079091D50767
:103430000E946E1261E68091D4079091D5070E9498
:103440006E1264E78091D4079091D5070E946E12A6
:1034500063E68091D4079091D5070E946E1268E6CA
:103460008091D4079091D5070E946E1280916400DC
:103470008E7F809364000E94E70B809164008160DE
:10348000809364008091D4079091D5070E945109E0
:1034900068EE73E080E090E00E94C0138091D40752
:1034A0009091D5070E949F15109274058FE195E0C9
:1034B000BAE0B80FB9836FE570E080E090E00E9459
:1034C000C0138FE00E942B13892B21F080918F066F
:1034D0008330B0F06CE271E080E090E00E94C013B5
:1034E000809187068D5F809387068FE00E942B1363
:1034F00020918F06892B09F4F9C2233008F0F6C217
:103500008EE00E942B13892B09F0AEC16CE271E0B2
:1035100080E090E00E94C013809187068D5F8093C9
:1035200087068EE00E942B13892B09F09DC1109213
:103530008E0610928D0661E08AE00E9454136FEAB5
:103540008091D4079091D5070E940F098091D407EC
:103550009091D5070E949F158091D4079091D5072F
:10356000DC011A964D915C911B9757FF02C04F5F8B
:103570005F4F55954795FC016085718577FF02C0C7
:103580006F5F7F4F7595679525E030E00E945D0A7B
:103590008091D4079091D507DC011A960D911C916A
:1035A0001B9718962D913C91199737FF02C02F5FFA
:1035B0003F4F3595279540E050E060E070E00E9475
:1035C0009B0B8091D4079091D507FC0142855385D0
:1035D00057FF02C04F5F5F4F55954795DC01189626
:1035E0006D917C91199777FF02C06F5F7F4F759542
:1035F00067958A019B010E949B0B8091D407909153
:10360000D5070E94510964E670E080E090E00E94D6
:10361000C0138091D4079091D507FC014285538552
:1036200057FF02C04F5F5F4F55954795DC011896D5
:103630006D917C91199777FF02C06F5F7F4F7595F1
:1036400067952AE030E00E945D0A8091D40790914E
:10365000D507FC01028513852085318537FF02C01F
:103660002F5F3F4F3595279540E050E060E070E0D8
:103670000E949B0B8091D4079091D507DC011A968C
:103680004D915C911B9757FF02C04F5F5F4F55955F
:103690004795FC016085718577FF02C06F5F7F4FA2
:1036A000759567958A019B010E949B0B8091D407B9
:1036B0009091D5070E94510964E670E080E090E0A7
:1036C0000E94C0138091D4079091D507DC011A960F
:1036D0004D915C911B9757FF02C04F5F5F4F55950F
:1036E0004795FC016085718577FF02C06F5F7F4F52
:1036F000759567952FE030E00E945D0A8091D407B0
:103700009091D507DC011A960D911C911B97189684
:103710002D913C91199737FF02C02F5F3F4F359590
:10372000279540E050E060E070E00E949B0B8091A4
:10373000D4079091D507FC014285538557FF02C0FD
:103740004F5F5F4F55954795DC0118966D917C91C1
:10375000199777FF02C06F5F7F4F759567958A0154
:103760009B010E949B0B8091D4079091D5070E94EA
:10377000510964E670E080E090E00E94C0138091FF
:10378000D4079091D507FC014285538557FF02C0AD
:103790004F5F5F4F55954795DC0118966D917C9171
:1037A000199777FF02C06F5F7F4F7595679524E18A
:1037B00030E00E945D0A8091D4079091D507FC010A
:1037C000028513852085318537FF02C02F5F3F4F6B
:1037D0003595279540E050E060E070E00E949B0B3B
:1037E0008091D4079091D507DC011A964D915C9198
:1037F0001B9757FF02C04F5F5F4F55954795FC01E0
:103800006085718577FF02C06F5F7F4F7595679503
:103810008A019B010E949B0B8091D4079091D50750
:103820000E94510968EC70E080E090E00E94C013B3
:10383000809187068B5F809387066EEA8091D4071C
:103840009091D5070E940F0910927E0510927D0578
:1038500010927C056EE78BE297E00E946E126AE0A0
:103860008BE297E00E946E1280917C0590917D051D
:10387000181619060CF051C080917A0590917B05BD
:10388000892B09F04AC080917E05833241F580E2A0
:1038900080937E0580918005805390917F059053A1
:1038A000FAE09F9F800D1124809379058091830514
:1038B00080539091820590532AE0929F800D1124AD
:1038C000809378058091860580539091850590536B
:1038D0003AE0939F800D1124809377051EC08532B6
:1038E000E1F480917F0590E090938E0680938D06A1
:1038F0006EEA8091D4079091D5070E940F0910922B
:103900007E0510927D0510927C0510927B05109229
:103910007A05109276051092750520917C053091FC
:103920007D05121613060CF094C080917A059091D3
:103930007B05281739070CF48CC08217930724F4F1
:10394000FC01E258FA4F10828091D4079091D5077C
:103950000E949F158091D4079091D507DC011D9698
:103960001C921E921C971F961C921E921E9760918D
:1039700075057091760562587A4F0E94751263ED55
:103980008091D4079091D5070E940F0960E0809143
:10399000D4079091D5070E940F098091D407909188
:1039A000D5070E94510920917A0530917B05F901D4
:1039B000E258FA4F809174058083C90165E170E097
:1039C0000E949E24892B09F044C0243931050CF44F
:1039D00040C0809175059091760545969093760547
:1039E00080937505EE24E394F12C8091D407909197
:1039F000D507FC0120853185870140E050E060E07B
:103A000070E00E949B0B63ED8091D4079091D507E5
:103A10000E940F096E2D8091D4079091D5070E94C6
:103A20000F098091D4079091D5070E94510962E354
:103A300070E080E090E00E94C013F2E0EF0EF11C15
:103A400029E0E216F10489F6809187068C5F809365
:103A5000870680917C0590917D05209175053091B8
:103A60007605821793074CF08D569F4F20917A056B
:103A700030917B052817390769F46EEA8091D407E5
:103A80009091D5070E940F0910927E0510927D0536
:103A900010927C0580918D0690918E06181619065D
:103AA00034F480918706811102C060E001C061E0BA
:103AB0008AE00E94541380917A0590917B050196CB
:103AC00090937B0580937A0520917C0530917D054C
:103AD0002817390734F0FC01E258FA4F80818093AF
:103AE00074050E94890D0E94AB0EE5CC233040F492
:103AF00010928E0610928D0661E08AE00E945413A7
:103B00006FEA8091D4079091D5070E940F098EE04B
:103B10000E942B13892B09F0F5C210928C0610928B
:103B20008B068091D4079091D5070E949F1580E065
:103B300090E00E9412298093890681E090E00E9423
:103B4000122980938A068091D4079091D507FC01B1
:103B5000158614861786168668E40E946E1269E63A
:103B60008091D4079091D5070E946E1267E68091EC
:103B7000D4079091D5070E946E1268E68091D40711
:103B80009091D5070E946E1263E78091D4079091BF
:103B9000D5070E946E1263E68091D4079091D507F5
:103BA0000E946E126FE68091D4079091D5070E9413
:103BB0006E1262E78091D4079091D5070E946E1231
:103BC00065E68091D4079091D5070E946E126AE352
:103BD0008091D4079091D5070E946E126AE080917F
:103BE000D4079091D5070E946E126091890670915A
:103BF0008A068091D4079091D5070E94071680917C
:103C0000D4079091D5070E94510968EB7BE080E0D2
:103C100090E00E94C01380918706825E80938706A1
:103C2000C12CD12C1C82F6E4EF2EF12CF8E3FB839F
:103C3000A3E05A2EB3E0AB2EB12C83E195E01CE05B
:103C4000412E480E80918B0690918C0601969093A0
:103C50008C0680938B068091D4079091D5070E94A3
:103C60009F158091D4079091D507DC011D961C9279
:103C70001E921C971F961C921E921E97452D50E077
:103C800060E070E02AE00E948A128091D40790914F
:103C9000D50724E130E0FC01358724871786168696
:103CA00060918B0670918C060E9407163B81311142
:103CB00002C048E34B838091D4079091D507AB8134
:103CC0002A2F30E0FC01358724872AE030E037874F
:103CD00026876AE20E946E1280918B0680FD03C0E7
:103CE0003B8131503B830DE210E02FE330E04DE2A9
:103CF00050E060E070E08091D4079091D5070E9479
:103D0000880B49EFE4164FEFF4061CF4E6E4EE2EC0
:103D1000F12C07E015E071E2872E912CA401B70188
:103D2000D8018D918D010E94AD0BBFEF8B1A9B0ABC
:103D3000EDE28E16910491F7F2E0EF1AF10826E019
:103D4000E216F10409F055C03C813D3008F046C050
:103D50005A9453E1852E55E0952E6AE1662E712C1A
:103D6000D4012D904D0100E010E0312CC101002E56
:103D700002C0959587950A94E2F780FF0BC04DE24B
:103D800050E0401B510BB3018091D4079091D507AF
:103D90000E947F0B0F5F1F4F0830110539F7B1E00C
:103DA0006B1A71084810DCCF8091D4079091D50729
:103DB0000E94510960E08AE00E94541368EE73E0AB
:103DC00080E090E00E94C01361E08AE00E945413FA
:103DD00080918706865F809387067BC080918B06E3
:103DE00090918C06EC818E0F911D90938C068093A0
:103DF0008B0600E2FC810F1B4FE1842E45E0942EE0
:103E000010E00F511540A801480D591D62E070E007
:103E1000D4018D914D010E94AD0BB981B811F3CF42
:103E200080918B0690918C06B5010E949E24892B6F
:103E300091F40AE2EC810E1B10E0A80162E070E050
:103E400088E30E94AD0BA8014F5F5F4F62E070E016
:103E500084E20E94AD0B80918B0690918C060196B6
:103E6000B5010E949E24892B91F40AE2FC810F1B6C
:103E700010E0A80162E070E088E70E94AD0BA801A5
:103E80004F5F5F4F62E070E088E00E94AD0B809171
:103E90008B0690918C060296B5010E949E24892B78
:103EA00091F40AE22C81021B10E0A80162E070E0AC
:103EB00080E30E94AD0BA8014F5F5F4F62E070E0AE
:103EC00088E20E94AD0B8091D4079091D5070E94A3
:103ED000510900918B0610918C06013A3FE01307BF
:103EE00094F4093B4BE0140784F40D3D85E018077A
:103EF00074F4093E93E0190764F4053FA1E01A0742
:103F000054F062E309C06AE007C064E105C06EE1F5
:103F100003C068E201C066E4C60ED11C70E080E018
:103F200090E00E94C013B5E6CB16D10424F00E94A5
:103F3000890DC12CD12CEC818E2F90E0FC013197A2
:103F4000EF30F105F8F4EC5CFF4F0C94F324FDE046
:103F500017C02FE02C8321C03EE01EC04CE072C48D
:103F60008AE08C831AC099E09C8317C0A8E0AC83D8
:103F700014C0B6E0BC8311C0E4E0EC830EC0F2E0F4
:103F8000FC830BC02C81211108C08FE00E942B13F1
:103F9000892B09F059C431E03C83511053CE8091F4
:103FA000890690918A06801791070CF48CC00091C5
:103FB000D4071091D507D8011D961C921E921C970C
:103FC0001F961C921E921E9753961C921E925297F9
:103FD00051961C921E92509761E070E0C8010E94B9
:103FE000071681E090E0F801938B828B918B808B98
:103FF0008091D4079091D507DC011D961C921E92EA
:104000001C971F961C921E921E9760E070E00E9403
:1040100007168091D4079091D50728E030E0FC0185
:104020003587248726E130E03787268767E40E94BA
:104030006E1261E68091D4079091D5070E946E12AE
:104040006DE68091D4079091D5070E946E1265E6C7
:104050008091D4079091D5070E946E1260E2809102
:10406000D4079091D5070E946E126FE48091D40717
:104070009091D5070E946E1266E78091D4079091C7
:10408000D5070E946E1265E68091D4079091D507FE
:104090000E946E1262E78091D4079091D5070E942A
:1040A0006E128091D4079091D5070E9451096CEA55
:1040B0007DE080E090E00E94C013809187068D5DD6
:1040C000809387061FC010938A060093890680E0BC
:1040D00090E00E941229081729F0602F80E090E0FC
:1040E0000E941A2960918A0681E090E06A830E940A
:1040F00012296A81681709F45ACF81E090E00E9482
:104100001A2955CF809164008E7F8093640092E3DA
:10411000C92ED12C20E4E22E772473943CE0F32EB8
:104120008091D4079091D5070E949F150E94890D18
:1041300080918F06813009F0FAC12FE130E040E232
:1041400050E061E270E08091D4079091D5070E9421
:104150005D0A80917905282F30E03E832D832D3034
:10416000310524F02C5031093E832D836091770571
:1041700070E080E090E00E942C2620E030E040E7F4
:1041800051E40E940D252BED3FE049E450E40E94EC
:10419000222720E030E040EF51E40E9484251B01FB
:1041A0002C010E948F274B015C01C201B1010E94CA
:1041B0007F251B012C0120E030E048EF51E4C501D0
:1041C000B4010E94222720E030E040E052E40E9447
:1041D0000E250E94F6254B015C0120E030E048EFFF
:1041E00051E4C201B1010E94222720E030E044E006
:1041F00052E40E940E250E94F62584019B0140E2B4
:1042000050E061E270E08091D4079091D5070E9460
:10421000880B6091780570E080E090E00E942C2689
:1042200020E030E040E751E40E940D252BED3FE017
:1042300049E450E40E94222720E030E040EF51E4BE
:104240000E9484251B012C010E948F274B015C01D9
:10425000C201B1010E947F251B012C0120E030E04A
:1042600040EE51E4C501B4010E94222720E030E075
:1042700040E052E40E940E250E94F6254B015C01AD
:1042800020E030E040EE51E4C201B1010E9422275B
:1042900020E030E044E052E40E940E250E94F62522
:1042A00084019B0140E250E061E270E08091D4071C
:1042B0009091D5070E94880BAD81BE81BD01BB0FD7
:1042C000880B990B0E942E2620E030E040E450E459
:1042D0000E940D252BED3FE049E450E40E94222787
:1042E00020E030E040EC50E40E9484251B012C01CA
:1042F0000E948F2720E030E048E951E40E94222705
:1043000020E030E040E052E40E940E250E94F625B5
:104310004B015C01C201B1010E947F2520E030E029
:1043200048E951E40E9422271B012C0120E030E0E3
:1043300044E052E40E940E250E94F62584019B0170
:1043400040E250E061E270E08091D4079091D5079F
:104350000E94880B20E030E040E052E4C201B1014D
:104360000E940E250E94F6259B0140E250E062E289
:1043700070E08091D4079091D5070E94880B10E0DF
:10438000612F70E080E090E00E942C262BED3FE052
:1043900049E450E40E94222720E030E040EC50E461
:1043A0000E9484251B012C010E948F274B015C0178
:1043B000C201B1010E947F251B012C0120E030E0E9
:1043C00040EE51E4C501B4010E94222720E030E014
:1043D00040E052E40E940E250E94F6254B015C014C
:1043E00020E030E040EE51E4C201B1010E942227FA
:1043F00020E030E044E052E40E940E250E94F625C1
:10440000A4018091D4079091D5070E947F0B1F5F74
:104410001C3009F0B5CF8091D4079091D5072CE1DD
:1044200030E0FC013587248725E030E03787268798
:104430006CE070E00E9407168091D4079091D50738
:104440002FE130E0DC011D963C932E931C97E4E3B2
:10445000F0E01F96FC93EE931E9766E070E00E94DA
:1044600007168091D4079091D507E7E3F0E0DC01CF
:104470001D96FC93EE931C972DE130E01F963C9324
:104480002E931E9763E070E00E9407168091D40778
:104490009091D507E8E0F0E0DC011D96FC93EE93E7
:1044A0001C972DE130E01F963C932E931E9769E0F8
:1044B00070E00E940716E091D407F091D50782853D
:1044C00093854497AEE3B0E0B587A4879787868746
:1044D00082E0848B4091790550E060E070E02AE052
:1044E000CF010E948A126AE38091D4079091D50788
:1044F0000E946E12809178058A3038F460E38091D2
:10450000D4079091D5070E946E124091780550E033
:1045100060E070E02AE08091D4079091D5070E9476
:104520008A12E091D407F091D507748A50C1823085
:1045300009F035C1E091D407F091D50715861486AE
:1045400017861686848B809179058A3020F460E383
:10455000CF010E946E124091790550E060E070E05A
:104560002AE08091D4079091D5070E948A126AE3CD
:104570008091D4079091D5070E946E1280917805A2
:104580008A3038F460E38091D4079091D5070E9477
:104590006E124091780550E060E070E02AE0809172
:1045A000D4079091D5070E948A128091D4079091E8
:1045B000D507FC01748A60E20E946E128091770533
:1045C0008A3038F460E38091D4079091D5070E9437
:1045D0006E124091770550E060E070E02AE0809133
:1045E000D4079091D5070E948A128090D4079090AA
:1045F000D507612C00E010E08FE0A82EB12C412CF3
:10460000512CC20187709927892B11F0660C0BC0C1
:10461000F201B3E0F595E795BA95E1F7E00FF11FE8
:10462000E052FF4F649067FE0EC0D401ED91FC9103
:104630000480F581E02D21E030E0A501B201685F42
:104640007F4FC4010995BFEF4B1A5B0AE0E74E1696
:104650005104B9F6FFEFAF1ABF0A025F1F4F003ACD
:1046600022E0120761F6809179056F2D0E94922455
:10467000292F30E02D5C3F4F03E210E043E250E091
:1046800062E370E08091D4079091D5070E94880B77
:10469000809179056F2D0E949224292F30E02D5CA6
:1046A0003F4F04E210E044E250E062E370E08091AA
:1046B000D4079091D5070E94880B80917805A5E0DA
:1046C000BA2E6B2D0E949224282F30E0255B3F4F9D
:1046D00000E310E040E350E06AE470E08091D4072A
:1046E0009091D5070E94880B809178056F2D0E94CC
:1046F0009224292F30E0255B3F4F01E310E041E396
:1047000050E06AE470E08091D4079091D5070E9450
:10471000880B809177056B2D0E949224282F30E022
:104720002C593F4F0EE110E04EE150E063E670E09F
:104730008091D4079091D5070E94880B80917705CE
:104740006F2D0E949224292F30E02C593F4F0FE10A
:1047500010E04FE150E063E670E08091D407909163
:10476000D5070E94880B609187064DEF46039001A4
:104770001124255E3F4F83E0689FB0011124675FDD
:104780007F4F0AE110E043E150E08091D40790911F
:10479000D5070E949B0B80E3809300011AC08330F1
:1047A000A1F440E050E065E070E08091D407909182
:1047B000D5070E947F0B40E050E06EE170E08091F1
:1047C000D4079091D5070E947F0B0E94150DE092AF
:1047D00000010E94E70B8091D4079091D5070E94B9
:1047E000510965E570E080E090E00E94C01391E01F
:1047F000C91AD10809F094CC80916400816080933B
:1048000064008FE00E942B13892B51F480918F0656
:104810008F5F843018F480938F0602C010928F0649
:1048200080918F06833010F00C94801A6EEA80918C
:10483000D4079091D5070E940F090C94801A37E095
:10484000ABCB4BE04C83A9CB1C82A7CBEBE2F7E0D0
:104850001382128288EE93E0A0E0B0E08483958317
:10486000A683B7832DE335E03183208325EC30E048
:104870003587248724EC30E03787268720EC30E02A
:10488000318B208B21EC30E0338B228B22EC30E01B
:10489000358B248B26EC30E0378B268B118E128ED5
:1048A000138E148EE8ECF7E01382128284839583D2
:1048B000A683B7838DE495E0918380838EE290E0B8
:1048C0000E94E027FC011382128220E830E0358349
:1048D000248380E490E097838683318720879387C1
:1048E0008287158A158614861786168681E0848B42
:1048F0002FEF3FEF338B228B318B208B868B178AE8
:10490000118E108E98E0968F96E0978F95E090A389
:1049100081A38DE595E091838083F093D507E093A3
:10492000D4070895991B79E004C0991F961708F0E1
:10493000961B881F7A95C9F78095089597FB072ED7
:1049400016F4009407D077FD09D00E94F92407FCE3
:1049500005D03EF4909581959F4F0895709561958F
:104960007F4F0895A1E21A2EAA1BBB1BFD010DC0AB
:10497000AA1FBB1FEE1FFF1FA217B307E407F5070F
:1049800020F0A21BB30BE40BF50B661F771F881FEB
:10499000991F1A9469F760957095809590959B0181
:1049A000AC01BD01CF010895052E97FB1EF40094C4
:1049B0000E94EB2457FD07D00E94B22407FC03D0CD
:1049C0004EF40C94EB2450954095309521953F4F33
:1049D0004F4F5F4F089590958095709561957F4FEB
:1049E0008F4F9F4F0895EE0FFF1F0590F491E02D1C
:1049F0000994AA1BBB1B51E107C0AA1FBB1FA61726
:104A0000B70710F0A61BB70B881F991F5A95A9F777
:104A100080959095BC01CD0108955058BB27AA27D9
:104A20000E9425250C94CF260E94962638F00E94DD
:104A30009D2620F039F49F3F19F426F40C94932618
:104A40000EF4E095E7FB0C948D26E92F0E94F426E6
:104A500058F3BA17620773078407950720F079F4B3
:104A6000A6F50C9416270EF4E0950B2EBA2FA02D68
:104A70000B01B90190010C01CA01A0011124FF270B
:104A8000591B99F0593F50F4503E68F11A16F04006
:104A9000A22F232F342F4427585FF3CF4695379505
:104AA0002795A795F0405395C9F77EF41F16BA0BCA
:104AB000620B730B840BBAF09150A1F0FF0FBB1F78
:104AC000661F771F881FC2F70EC0BA0F621F731FC1
:104AD000841F48F4879577956795B795F7959E3F1E
:104AE00008F0B0CF9395880F08F09927EE0F9795AF
:104AF000879508950E94692608F481E008950E9430
:104B0000A626E3950C94E0260E9498250C94CF26C7
:104B10000E949D2658F00E94962640F029F45F3F9F
:104B200029F00C948D2651110C9417270C94932680
:104B30000E94F42668F39923B1F3552391F3951B52
:104B4000550BBB27AA2762177307840738F09F5FAE
:104B50005F4F220F331F441FAA1FA9F335D00E2E1B
:104B60003AF0E0E832D091505040E695001CCAF788
:104B70002BD0FE2F29D0660F771F881FBB1F26174B
:104B800037074807AB07B0E809F0BB0B802DBF0122
:104B9000FF2793585F4F3AF09E3F510578F00C94F1
:104BA0008D260C9417275F3FE4F3983ED4F3869547
:104BB00077956795B795F7959F5FC9F7880F911D12
:104BC0009695879597F90895E1E0660F771F881FFE
:104BD000BB1F621773078407BA0720F0621B730BB1
:104BE000840BBA0BEE1F88F7E09508950E94FD250F
:104BF0006894B1110C94172708950E94FC2688F040
:104C00009F5798F0B92F9927B751B0F0E1F0660F90
:104C1000771F881F991F1AF0BA95C9F714C0B130D1
:104C200091F00E941627B1E008950C941627672F83
:104C3000782F8827B85F39F0B93FCCF38695779500
:104C40006795B395D9F73EF49095809570956195E9
:104C50007F4F8F4F9F4F0895E89409C097FB3EF414
:104C600090958095709561957F4F8F4F9F4F9923B9
:104C7000A9F0F92F96E9BB279395F6958795779537
:104C80006795B795F111F8CFFAF4BB0F11F460FFF7
:104C90001BC06F5F7F4F8F4F9F4F16C0882311F04F
:104CA00096E911C0772321F09EE8872F762F05C063
:104CB000662371F096E8862F70E060E02AF09A95FE
:104CC000660F771F881FDAF7880F9695879597F9F3
:104CD0000895990F0008550FAA0BE0E8FEEF16168D
:104CE0001706E807F907C0F012161306E407F507E0
:104CF00098F0621B730B840B950B39F40A2661F054
:104D0000232B242B252B21F408950A2609F4A140F6
:104D1000A6958FEF811D811D089597F99F6780E803
:104D200070E060E008959FEF80EC089500240A94FD
:104D30001616170618060906089500240A94121676
:104D400013061406050608950C9493260E94FC266B
:104D5000D8F3E894E0E0BB279F57F0F02AED3FE05E
:104D600049EC06C0EE0FBB0F661F771F881F28F0A7
:104D7000B23A62077307840728F0B25A620B730BCA
:104D8000840BE3959A9572F7803830F49A95BB0FAF
:104D9000661F771F881FD2F790480C949927092E19
:104DA0000394000C11F4882352F0BB0F40F4BF2B86
:104DB00011F460FF04C06F5F7F4F8F4F9F4F0895C6
:104DC000EF93E0FF07C0A2EA2AED3FE049EC5FEB7A
:104DD0000E9425250E94CF260F90039401FC905835
:104DE000E6E8F0E00C94A52757FD9058440F551FB6
:104DF00059F05F3F71F04795880F97FB991F61F05D
:104E00009F3F79F087950895121613061406551FD3
:104E1000F2CF4695F1DF08C0161617061806991F3F
:104E2000F1CF86957105610508940895E894BB2734
:104E300066277727CB0197F908950E94692608F421
:104E40008FEF08950E9435270C94CF260E94962656
:104E500038F00E949D2620F0952311F00C948D26A9
:104E60000C94932611240C9417270E94F42670F3B7
:104E7000959FC1F3950F50E0551F629FF001729FFF
:104E8000BB27F00DB11D639FAA27F00DB11DAA1F0E
:104E9000649F6627B00DA11D661F829F2227B00D5B
:104EA000A11D621F739FB00DA11D621F839FA00DE6
:104EB000611D221F749F3327A00D611D231F849F36
:104EC000600D211D822F762F6A2F11249F5750408D
:104ED0009AF0F1F088234AF0EE0FFF1FBB1F661F08
:104EE000771F881F91505040A9F79E3F510580F0D1
:104EF0000C948D260C9417275F3FE4F3983ED4F36F
:104F0000869577956795B795F795E7959F5FC1F774
:104F1000FE2B880F911D9695879597F908959F937D
:104F20000E94A6260F9007FCEE5F0C94E0269F3FA0
:104F300031F0915020F4879577956795B795880F54
:104F4000911D9695879597F908959F938F937F93D9
:104F50006F93FF93EF939B01AC010E942227EF9187
:104F6000FF910E94B9272F913F914F915F910C942F
:104F70002227DF93CF931F930F93FF92EF92DF923D
:104F80007B018C01689406C0DA2EEF010E94352760
:104F9000FE01E894A5912591359145915591A6F38F
:104FA000EF010E942525FE019701A801DA9469F717
:104FB000DF90EF90FF900F911F91CF91DF910895B7
:104FC000CF93DF938230910510F482E090E0E0917E
:104FD000D807F091D90720E030E0C0E0D0E030976A
:104FE00011F14081518148175907C0F048175907FE
:104FF00061F482819381209719F09B838A832BC06F
:105000009093D9078093D80726C02115310519F050
:105010004217530718F49A01BE01DF01EF01028025
:10502000F381E02DDCCF2115310509F1281B390B67
:105030002430310590F412968D919C91139761154F
:10504000710521F0FB019383828304C09093D907FB
:105050008093D807FD01329644C0FD01E20FF31F93
:1050600081939193225031092D933C933AC0209122
:10507000D6073091D707232B41F4209103053091B7
:1050800004053093D7072093D6072091010530916E
:1050900002052115310541F42DB73EB740910505B4
:1050A00050910605241B350BE091D607F091D707E8
:1050B000E217F307A0F42E1B3F0B2817390778F0EF
:1050C000AC014E5F5F4F2417350748F04E0F5F1F4E
:1050D0005093D7074093D6078193919302C0E0E0A5
:1050E000F0E0CF01DF91CF9108950F931F93CF93FD
:1050F000DF93009709F48CC0FC013297138212826F
:105100000091D8071091D9070115110581F420816C
:105110003181820F931F2091D6073091D70728172E
:10512000390779F5F093D707E093D60771C0D80116
:1051300040E050E0AE17BF0750F412962D913C911D
:105140001397AD012115310509F1D901F3CF9D0167
:10515000DA013383228360817181860F971F821762
:10516000930769F4EC0128813981260F371F2E5FE0
:105170003F4F318320838A819B8193838283452B98
:1051800029F4F093D907E093D80742C01396FC9313
:10519000EE931297ED01499159919E01240F351F0D
:1051A000E217F30771F480819181840F951F0296B5
:1051B00011969C938E938281938113969C938E93E8
:1051C0001297E0E0F0E0D80112968D919C91139730
:1051D000009719F0F8018C01F6CF8D919C91980100
:1051E0002E5F3F4F820F931F2091D6073091D70734
:1051F0002817390769F4309729F41092D9071092CB
:10520000D80702C0138212821093D7070093D607E3
:10521000DF91CF911F910F91089581E090E0F89474
:105220000C942829F999FECF92BD81BDF89A99274F
:1052300080B50895262FF999FECF1FBA92BD81BD82
:1052400020BD0FB6F894FA9AF99A0FBE0196089508
:04525000F894FFCF00
:10525400400000000000000000000000000000000A
:10526400000000000000000000000000000000003A
:10527400000000000000000000000000000000002A
:10528400000000000000000000000000000000001A
:10529400808080000000000000000000000000008A
:1052A40000008080C0C0000000000000000000007A
:1052B40000000000000000000000000000000000EA
:1052C40000000000000000000000000000000000DA
:1052D40000000000000000000000000000000000CA
:1052E400000000000080C0E0F0F8FCF8E0000000DE
:1052F40000000000000000000000000000008080AA
:105304008080800080800000000080808080800099
:10531400FFFFFF000000008080808000008080008C
:105324000080FFFF8080008080008080808000807B
:10533400800000000000808000008C8E84000080CB
:10534400F8F8F880000000000000000000000000F1
:1053540000F0F0F0F0F0F0F0F0F0F0F0F0E0E0C089
:105364008000E0FCFEFFFFFF7FFFFFFFFFFF000068
:10537400000000000000000000000000FEFFC70164
:1053840001010183FFFF00007CFEC70101010183CD
:10539400FFFFFF0038FEC78301010183C7FFFF0041
:1053A4000001FFFF010100FFFF0701010100007F71
:1053B400FF80000000FFFF7F0000FFFFFF000001EF
:1053C400FFFFFF01000000000000000000000000DB
:1053D40000030F3F7F7FFFFFFFFFFFFFFFE7C7C70C
:1053E4008F8F9FBFFFFFC3C0F0FFFFFFFFFFFCFCD9
:1053F400FCFCFCFCFCFCF8F8F0F0E0C0000103034A
:10540400030303010303000000000103030303017A
:10541400010301000000010303030301010303006E
:10542400000003030000000303000000000000006C
:105434000103030303030100000001030100000052
:105444000303010000000000000000000000000051
:105454000000000080C0E0F0F9FFFFFFFFFF3F1FE6
:105464000F87C7F7FFFF1F1F3DFCF8F8F8F87C7D96
:10547400FFFFFFFFFFFFFFFF7F3F0F0700303000FC
:105484000000000000000000000000000000000018
:105494000000000000FEFEFC000000000000000010
:1054A4000000000000000000000000000000E0C058
:1054B4000000000000000000000000303000000088
:1054C40000000000000000000000000000000000D8
:1054D4000000C0FEFFFFFFFFFFFFFFFFFF7F7F3FD6
:1054E4001F0F071F7FFFFFF8F8FFFFFFFFFFFEF806
:1054F400E0000000010000000000000000FEFE00CB
:105504000000FCFEFC0C06060EFCF80000F0F81C83
:105514000E0606060CFFFFFF0000FEFE0000000062
:10552400FCFEFC00183C7E66E6CE84000006FFFF0D
:105534000606FCFEFC0C0606060000FEFE0000C08B
:10554400F8FC4E4646464E7C7840183C76E6CECC77
:1055540080000000000000000000000000000000C7
:10556400000000000001070F1F1F3F3F3F3F1F0FB8
:10557400030000000000000000000000000F0F0006
:1055840000000F0F0F000000000F0F000003070EB4
:105594000C18180C060F0F0F0000010F0E0C180C3E
:1055A4000F070100040E0C180C0F070000000F0F6A
:1055B40000000F0F0F0000000000000F0F0000009C
:1055C40007070C0C181C0C060600040E0C180C0F14
:1055D40007000000000000000000000000000000C0
:1055E40000000000000000000000000000000000B7
:1055F40000000000000000000000000000000000A7
:105604000000000000000000000000000000000096
:105614000000000000000000000000000000000086
:105624000000000000000000000000000000000076
:105634000000000000000000000000000000000066
:105644000000000000000000000000000000000056
:10565400000000DA078000206028A8A8F878383015
:105664003020201C7C546C547C3C0C1C1C0C3C389E
:105674002C3E3E383E98783C18000103070F1F3F2C
:105684007F0080C0E0F0F8FCFE00000000420EBE87
:105694000D0B0EE90DFD0D890E00000000870F575C
:1056A4000F4F0F400F320F310F00000000BF06BE36
:1056B4000D7A046508B60F10111608B4079607187A
:0256C4000500DF
:00000001FF
