:100000000C94FF070C9427080C9427080C942708DD
:100010000C9427080C9427080C9427080C942708A4
:100020000C9427080C9427080C9427080C94270894
:100030000C9427080C9427080C9427080C94270884
:100040000C94300C0C9427080C94D00A0C94AA0A37
:100050000C9427080C9427080C9427080C94270864
:100060000C947A0C0C942708BE1BFD1BFA1BF31B87
:10007000FA1BF01B6C1CED1BEA1BE31BCB1BBB1B11
:10008000D31BDB1B6F1C00000000240027002A008C
:10009000010204081020408001020408102001021F
:1000A0000408102000000000250028002B00040494
:1000B0000404040404040202020202020303030310
:1000C00003030000000023002600290000000008B0
:1000D000000201000003040700000000000000000F
:1000E0000C30300B012000C0F87C3E3EFCF8C00014
:1000F0000000000080E078FEFE000000000000F03C
:100100007C3C3E3EFEFCE0000000007C3E3E3EFEAD
:10011000F8C0000000000000000000F8FEFE000033
:10012000000000FEFE3E3E3E3E3E0000000000009D
:1001300080F0FC3E3E3EFC000000003E3E3E3E3E67
:100140003E3EFEFE00000000C0F8FE3E7EFCE000E9
:1001500000000000E0FC7E3EFEF8C0000000000051
:100160000000C0E0C00000000000F0FF0F00000031
:10017000F9FFFFF000000000070300FFFF00000090
:10018000000000010000000000FFFF000000000070
:1001900000000000FFFF00000000000000E0FF1F63
:1001A000FFFF0000000000FFFF0000000000000053
:1001B000000000E0FF3F0000000000000000000021
:1001C00000000000C0FC7F0300000000FFFF0000F3
:1001D00000FFFF00000000FEFF03000000FFFFF033
:1001E0000000000000003F7F3F0000000000FFFF14
:1001F0000000E0FF1F00FFFF00000000000000FF04
:10020000FF00000000000000000000E0FE1F0100F1
:1002100000000000F8F8FCFFC7000000000000C06C
:10022000FE3F0300FFFF00000000003F3F3E7EFC5A
:10023000F8E00000000000FFFF80F07C7CF8F00098
:1002400000000000000080F8FF0700000000000030
:10025000019FFFF8FE1F0100000000FFFFC000002B
:1002600080FFFFFF00000000000000000000000011
:100270000000FFFFC0FC7F030000FFFF0000000044
:10028000000000FFFF0000000000000000E0FE0F83
:100290000100000000000000000000010FFFF80056
:1002A0000000F8FFE7E0E0E0FFFFE0E0E000000032
:1002B0000000000007FFFE00000000FFFFFF03003A
:1002C0000001FFFF0000000000F0FF0F0000000031
:1002D000000000C0FC3F03031FFFFCC00000000043
:1002E0000F1F3E3E0F01FFFF0000000000000080D6
:1002F00000000000000007FFFF07000000FCFF07F0
:1003000000000000000000FFFF000000000000E00F
:10031000FE0F0000000000000000000000000000D0
:10032000C0FF7F000000030303030303FFFF030379
:100330000300000000000000C0FF7F000000000F6D
:10034000FFFF80000080FF7F00000000FEFF030031
:1003500000000000000000FFFF8000000080FFFFA1
:10036000000000000000000080FCFF07000000000B
:100370000000FFFFFF000000000000031F3F7C7C27
:100380003F1F0300000000007C7C7C7F7F7C7C7C26
:100390000000007F7F7C7C7C7C7C7C000000003F38
:1003A0007E7C7C7E1F070000000000000000000033
:1003B0007F7F00000000001F3E7C7C3E1F07000086
:1003C00000000000031F7F7C7C3F0700000000004E
:1003D0007F7F000000000000000000011F3F7E7CC6
:1003E0007E3F1F01000000003E7C7C7E3F0F01002D
:1003F00000000000000000010000000000000A10E2
:100400002E0C01140000000000000000000000009D
:10041000000000000000000078FC02030303030258
:10042000FC780000000000000000FF7E0000028356
:1004300083838302FC780000028383838302FC7839
:100440007EFF008080808000FF7E78FC02838383B3
:100450008302000078FC0283838383020000000291
:10046000030303030302FC7878FC02838383830283
:10047000FC7878FC028383838302FC7800000060B0
:10048000F0F060000000000000000000000000002C
:100490001E3F40C0C0C0C0403F1E00000000000022
:1004A0000000FF7E1C3E41C1C1C1C14100000000EF
:1004B00041C1C1C1C1413E1C000001010101010156
:1004C000FF7E000041C1C1C1C1413E1C1C3E41C173
:1004D000C1C1C1413E1C0000000000000000FF7EC1
:1004E0001C3E41C1C1C1C1413E1C000041C1C1C14E
:1004F000C1413E1C081020600238000000000000CE
:100500000000000000FE0000000000000E000E00D1
:10051000000000D0BE90D0BE9000001C62FFC280E0
:1005200000000C12924CB0880600807C62B21CC0A5
:10053000000000000E0E0000000000E0180402029F
:1005400000000002020418E000000024187E1824B5
:100550000000808080F080808000000000000000AB
:10056000000000808080800000000000000000008B
:1005700000000000806018060000F804C2320CF889
:100580000000000404FE0000000000028242221C61
:1005900000000002222222DC0000C0A09884FE801D
:1005A0008000001E121222C20000F844222222C043
:1005B0000000000202C2320A0600008C5222528C55
:1005C00000003C42424226F80000000030300000AB
:1005D00000000000303000000000808040402020FB
:1005E000100040404040404000001020204040802B
:1005F000800000028242221C000000000000000077
:1006000000000000000500000000000000000000E5
:10061000000000070000070000000004040F0403AE
:10062000000004020103040403000304040405039E
:100630000400000000000000000000030608101085
:100640000000001010080603000000000000000079
:10065000000000000007000000000000160E00006F
:10066000000000000000000000000000060600007E
:100670000000040201000000000001030404020164
:10068000000000040407040400000007040404043C
:100690000000000404040403000000000000070040
:1006A0000000000404040403000001020404040325
:1006B0000000000007000000000000030404040321
:1006C000000000040404020100000000060600000F
:1006D00000000000160E00000000000001010202F0
:1006E00004000101010101010000040202010100F6
:1006F00000000000050000000000F804728AFA847F
:10070000780000C0380638C0000000FE222222DC3B
:100710000000F804020202020000FE02020204F8D5
:10072000000000FE22222222000000FE22222222BD
:100730000000F804020222E20000FE20202020FE39
:100740000000000202FE020200000000000202FEA1
:100750000000FE40B0080402000000FE000000009F
:100760000000FE0C7080700CFE00FE0C30C000FE1D
:100770000000F804020204F80000FE424242221C7B
:100780000000F804020204F8000000FE4242A21C2D
:100790000000001C224242800000020202FE02020F
:1007A0000200FE00000000FE00000638C000C03855
:1007B00006003EC0F00EF0C03E00000698609806AD
:1007C0000000000618E0180600000202C2320A0605
:1007D00000000000FE020202020000061860800015
:1007E000000002020202FE00000040300C0C30400B
:1007F00000000000000000000000010204040400EA
:1008000000000601010101010600000704040403C1
:1008100000000102040404040000070404040201AF
:1008200000000007040404040000000700000000AA
:100830000000010204040407000007000000000794
:10084000000000040407040400000004040404037E
:100850000000070000010204000000070404040473
:100860000000070000010000070007000000030768
:100870000000010204040201000007000000000063
:1008800000000102040C1211100000070000010614
:10089000000000040404040300000000000700003E
:1008A000000003040404040300000000010601002A
:1008B000000000070000000700000006010001061C
:1008C0000000000000070000000006050404040406
:1008D000000000001F1010101000000000000102B6
:1008E0000400101010101F000000000000000000A5
:1008F00000000808080808080000000002040000C2
:10090000000000E0101010F0000000FE201010E0C9
:10091000000000E010101010000000E0101010FEA9
:10092000000000E0909090E000000020FC222222D5
:10093000020000E0101010F0000000FE201010E097
:1009400000001010F2000000000000101010F20073
:10095000000000FE804020100000000202FE0000A7
:100960000000F02010F02010F00000F0201010E047
:10097000000000E0101010E0000000F0201010E077
:10098000000000E0101010F0000000F020101070C7
:1009900000000060909090200000002020FC2020AB
:1009A000200000F0000000F0000000708000807067
:1009B0000000F000C030C000F0000030C0C03000C7
:1009C00000000030C0008070000000101090503017
:1009D00000000080807E02020000000000FE000097
:1009E00000000002027E8080000000808000000085
:1009F0008000000000000000000000000000000077
:100A000000000003040402070000000704040403BC
:100A100000000003040404040000000304040207AF
:100A200000000003040404040000000007000000AC
:100A3000000000332424221F0000000700000007EC
:100A400000000000070404000000202020201F00F8
:100A50000000000700010204000000000007040479
:100A60000000070000070000070000070000000763
:100A700000000003040404030000003F0404040316
:100A8000000000030404023F000000070000000013
:100A9000000000020404040300000000000304043A
:100AA0000400000304040207000000000304030024
:100AB0000000010601000106010000060101060018
:100AC00000002020310E030000000006050404048D
:100AD00000000000001F10100000000000070000D0
:100AE00000000010101F00000000010000010101C3
:100AF00000000000000000000000050800FF0C4B93
:100B000000000000003E5B4F5B3E3E6B4F6B3E1CA7
:100B10003E7C3E1C183C7E3C181C577D571C1C5EBE
:100B20007F5E1C00183C1800FFE7C3E7FF00182495
:100B30001800FFE7DBE7FF30483A060E262979293F
:100B400026407F050507407F05253F5A3CE73C5A74
:100B50007F3E1C1C08081C1C3E7F14227F22145F51
:100B60005F005F5F06097F017F006689956A6060AC
:100B700060606094A2FFA29408047E040810207EA6
:100B8000201008082A1C08081C2A08081E1010102B
:100B9000100C1E0C1E0C30383E3830060E3E0E0671
:100BA000000000000000005F0000000700070014C4
:100BB0007F147F14242A7F2A122313086462364983
:100BC0005620500008070300001C2241000041226B
:100BD0001C002A1C7F1C2A08083E08080080703070
:100BE00000080808080800006060002010080402DF
:100BF0003E5149453E00427F4000724949494621E5
:100C000041494D331814127F1027454545393C4A58
:100C1000494931412111090736494949364649496F
:100C2000291E0000140000004034000000081422B7
:100C30004114141414140041221408020159090625
:100C40003E415D594E7C1211127C7F494949363E26
:100C5000414141227F4141413E7F494949417F090C
:100C60000909013E414151737F0808087F00417F17
:100C700041002040413F017F081422417F40404015
:100C8000407F021C027F7F0408107F3E4141413EAD
:100C90007F090909063E4151215E7F09192946262F
:100CA0004949493203017F01033F4040403F1F2033
:100CB00040201F3F4038403F63140814630304780A
:100CC00004036159494D43007F414141020408102A
:100CD00020004141417F0402010204404040404065
:100CE000000307080020545478407F2844443838D3
:100CF00044444428384444287F3854545418000845
:100D00007E090218A4A49C787F0804047800447D1E
:100D100040002040403D007F1028440000417F40BB
:100D2000007C047804787C0804047838444444380F
:100D3000FC1824241818242418FC7C0804040848EF
:100D40005454542404043F44243C4040207C1C2040
:100D500040201C3C4030403C44281028444C90909B
:100D6000907C4464544C44000836410000007700F5
:100D700000004136080002010204023C2623263C02
:100D80001EA1A161123A4040207A3854545559218D
:100D90005555794121545478412155547840205477
:100DA0005579400C1E5272123955555559395454C3
:100DB000545939555454580000457C410002457D32
:100DC000420001457C40F0292429F0F0282528F034
:100DD0007C545545002054547C547C0A097F493288
:100DE000494949323248484832324A4848303A4103
:100DF00041217A3A42402078009DA0A07D394444A8
:100E000044393D4040403D3C24FF2424487E494332
:100E1000662B2FFC2F2BFF0929F620C0887E0903A3
:100E200020545479410000447D413048484A3238CA
:100E30004040227A007A0A0A727D0D19317D2629F6
:100E4000292F28262929292630484D4020380808EE
:100E5000080808080808382F10C8ACBA2F10283422
:100E6000FA00007B000008142A142222142A140815
:100E7000AA005500AAAA55AA55AA000000FF001012
:100E80001010FF00141414FF001010FF00FF1010CA
:100E9000F010F0141414FC001414F700FF0000FF0D
:100EA00000FF1414F404FC141417101F10101F106A
:100EB0001F1414141F00101010F0000000001F1069
:100EC0001010101F10101010F010000000FF101074
:100ED00010101010101010FF10000000FF14000080
:100EE000FF00FF00001F10170000FC04F41414178B
:100EF00010171414F404F40000FF00F71414141471
:100F0000141414F700F7141414171410101F101FE2
:100F1000141414F4141010F010F000001F101F002F
:100F200000001F14000000FC140000F010F010106E
:100F3000FF10FF141414FF141010101F0000000005
:100F4000F010FFFFFFFFFFF0F0F0F0F0FFFFFF00F9
:100F500000000000FFFF0F0F0F0F0F38444438440C
:100F60007C2A2A3E147E02020606027E027E02636C
:100F7000554941633844443C04407E201E2006020B
:100F80007E020299A5E7A5991C2A492A1C4C7201E8
:100F9000724C304A4D4D303048784830BC625A4629
:100FA0003D3E494949007E0101017E2A2A2A2A2A1A
:100FB00044445F444440514A444040444A51400004
:100FC00000FF0103E080FF000008086B6B08361289
:100FD000362436060F090F0600001818000000100E
:100FE00010003040FF0101001F01011E00191D17F4
:100FF00012003C3C3C3C000000000000751C112429
:101000001FBECFEFD8E0DEBFCDBF28E0A0E4B4E044
:1010100001C01D92AE3AB207E1F714E0A0E0B1E0E2
:10102000EEEEFAE302C005900D92A034B107D9F7B5
:1010300017E0CFEFD7E004C02197FE010E94F21C19
:10104000CE3FD107C9F70E9477130C94751D0C94FD
:101050000000CF92DF92EF92FF920F931F93CF93F6
:10106000DF936C017A018B01C0E0D0E0CE15DF0583
:1010700089F0D8016D918D01D601ED91FC9101901F
:10108000F081E02DC6010995892B11F47E0102C083
:101090002196ECCFC701DF91CF911F910F91FF9067
:1010A000EF90DF90CF900895FC01918D828D98177D
:1010B00061F0828DDF01A80FB11D5D968C91928D3C
:1010C0009F5F9F73928F90E008958FEF9FEF089539
:1010D000FC01918D828D981731F0828DE80FF11D02
:1010E000858D90E008958FEF9FEF0895FC01918D1D
:1010F000228D892F90E0805C9F4F821B91098F7316
:10110000992708958FEC97E00E94760821E0892BBB
:1011100009F420E0822F0895FC01848DDF01A80FDF
:10112000B11DA35ABF4F2C91848D90E001968F730F
:101130009927848FA689B7892C93A089B1898C912E
:1011400080648C93938D848D981306C00288F389F4
:10115000E02D80818F7D80830895EF92FF920F9321
:101160001F93CF93DF93EC0181E0888F9B8D8C8D53
:10117000981305C0E889F989808185FD24C0F62E81
:101180000B8D10E00F5F1F4F0F731127E02E8C8D1A
:10119000E8120CC00FB607FCFACFE889F989808104
:1011A00085FFF5CFCE010E948C08F1CF8B8DFE011B
:1011B000E80FF11DE35AFF4FF0820B8FEA89FB899C
:1011C0008081806207C0EE89FF896083E889F989A0
:1011D00080818064808381E090E0DF91CF911F91D6
:1011E0000F91FF90EF900895CF93DF93EC01888DDE
:1011F0008823C9F0EA89FB89808185FD05C0A8891B
:10120000B9898C9186FD0FC00FB607FCF5CF8081A0
:1012100085FFF2CFA889B9898C9185FFEDCFCE01EA
:101220000E948C08E7CFDF91CF910895833081F041
:1012300028F4813099F08230A1F008958730A9F028
:101240008830B9F08430D1F4809180008F7D03C064
:10125000809180008F7780938000089584B58F7788
:1012600002C084B58F7D84BD08958091B0008F77D2
:1012700003C08091B0008F7D8093B00008959FB728
:10128000F894409181075091820760918307709193
:10129000840786B5A89B06C08F3F21F04F5F5F4F44
:1012A0006F4F7F4F9FBF762F652F542F44279A0192
:1012B000AB01280F311D411D511DA5E0B0E00E947A
:1012C000391D089585ED8093BC008091BC0084FD9C
:1012D000FCCF1092AB07089540915707262F30E0BE
:1012E000240F311D21323105DCF42091AB0724306D
:1012F000C9F4FC0180E090E0861758F4309157075C
:101300002191DC01AB5CB84FA30FB11D2C9301966A
:10131000F3CF80915707680F6093570780E00895D7
:1013200081E0089582E00895089581E090E0309191
:10133000410420914004321710F480E090E0919530
:1013400081959109089580914104909140048917F5
:1013500030F48F5F8093410480E090E008958FEF38
:101360009FEF08958091400490E020914104821BFA
:1013700091090895CF92DF92EF92FF920F931F93FE
:10138000CF93DF937C01262F972F8A018091CE0780
:10139000882391F0C62FD72F6E01C40ED51ECC1511
:1013A000DD0571F06991D701ED91FC910190F0811B
:1013B000E02DC7010995F3CF642F822F0E946C099D
:1013C000C801DF91CF911F910F91FF90EF90DF90B7
:1013D000CF900895CF93DF931F92CDB7DEB7698387
:1013E0002091CE072223D1F02091CC07203240F06B
:1013F00021E030E0FC013383228380E090E015C0DF
:101400008091CD07E82FF0E0E455F84F9981908363
:101410008F5F8093CD078093CC0705C061E0CE013C
:1014200001960E946C0981E090E00F90DF91CF91CE
:1014300008950E94FF1C8FEC97E00E947608892B8C
:1014400009F458C08FEC97E00E9454089EE3980F6F
:10145000923088F3982F8A3079F48FEA0E940D1227
:10146000E0910801F0910901EB5BFB4F10821092B3
:10147000440410924304DFCF209108013091090108
:101480008F39C1F0803BC1F08D3BC1F0823BC1F090
:10149000843AC1F0863BC1F08C3BC1F08438C1F086
:1014A0008639C1F08C39C1F08B3AC1F08B3BB9F46D
:1014B0009FEA15C090EE13C098EF11C09BEA0FC0D1
:1014C0009DEF0DC094E80BC094E909C091E807C0F6
:1014D0009EE805C099E903C09AE901C09EEAF901B6
:1014E000EB5BFB4F90832F5F3F4F309309012093BD
:1014F0000801A1CF08950E94820881110C941B0A53
:1015000008956115710579F0FB0101900020E9F75C
:101510003197AF01461B570BDC01ED91FC91028026
:10152000F381E02D099480E090E008950F931F93DC
:10153000CF93DF93EC010E94810A8C016BE374E08E
:10154000CE010E94810A800F911FDF91CF911F91E0
:101550000F9108951F920F920FB60F9211242F939F
:101560003F934F935F936F937F938F939F93AF932B
:10157000BF93EF93FF938FEC97E00E948C08FF914D
:10158000EF91BF91AF919F918F917F916F915F91FB
:101590004F913F912F910F900FBE0F901F90189574
:1015A0001F920F920FB60F9211242F938F939F9338
:1015B000EF93FF93E091DF07F091E0078081E091E6
:1015C000E507F091E60782FD12C090818091E8075F
:1015D0008F5F8F732091E907821751F0E091E80740
:1015E000F0E0E153F84F958F8093E80701C08081C8
:1015F000FF91EF919F918F912F910F900FBE0F90C0
:101600001F901895CF93DF93282F30E0F901E45312
:10161000FF4F8491F901E057FF4FD491F901E25552
:10162000FF4FC491CC2391F081110E941609EC2F39
:10163000F0E0EE0FFF1FEE53FF4FA591B491EC9138
:10164000ED2381E090E021F480E002C080E090E0B2
:10165000DF91CF9108951F93CF93DF93282F30E030
:10166000F901E453FF4F8491F901E057FF4FD49102
:10167000F901E255FF4FC491CC23C9F0162F811117
:101680000E941609EC2FF0E0EE0FFF1FEC55FF4F04
:10169000A591B4918FB7F894111105C09C91ED2FCD
:1016A000E095E92302C0EC91ED2BEC938FBFDF9125
:1016B000CF911F910895CF93DF9390E0FC01E05705
:1016C000FF4F2491FC01E255FF4F8491882361F183
:1016D00090E0880F991FFC01EA57FF4FC591D49104
:1016E000FC01EC55FF4FA591B491611109C09FB762
:1016F000F8948881209582238883EC912E230BC057
:10170000623061F49FB7F8943881822F80958323EB
:101710008883EC912E2B2C939FBF06C08FB7F89433
:10172000E8812E2B28838FBFDF91CF9108951F93DF
:10173000CF93DF93182FEB0161E00E945B0B2097A2
:1017400011F460E004C0CF3FD10539F461E0812F8E
:10175000DF91CF911F910C942B0BE12FF0E0E4531C
:10176000FF4FE491E330F9F048F4E130B9F0E230B2
:10177000A1F584B5806284BDC8BD34C0E730E9F00E
:10178000E83019F1E43049F580918000806280935F
:101790008000D0938B00C0938A0024C084B58068F9
:1017A00084BDC7BD1FC08091800080688093800089
:1017B000D0938900C093880015C08091B0008068E4
:1017C0008093B000C093B3000DC08091B0008062E0
:1017D0008093B000C093B40005C0C038D1050CF0B0
:1017E000B5CFAFCFDF91CF911F9108958F929F9288
:1017F000AF92BF92CF92DF92EF92FF926B017C018A
:101800000E943F094B015C01C114D104E104F104C1
:10181000F1F00E943F09DC01CB0188199909AA095E
:10182000BB09883E9340A105B10570F321E0C21ABF
:10183000D108E108F10888EE880E83E0981EA11C0B
:10184000B11CC114D104E104F10419F7DDCFFF90FC
:10185000EF90DF90CF90BF90AF909F908F900895C2
:101860001F920F920FB60F9211242F933F938F93D5
:101870009F93AF93BF9380917D0790917E07A09136
:101880007F07B091800730917C072DE2230F2D3721
:1018900020F40196A11DB11D05C020EB230F029677
:1018A000A11DB11D20937C0780937D0790937E0737
:1018B000A0937F07B0938007809181079091820762
:1018C000A0918307B09184070196A11DB11D80935B
:1018D000810790938207A0938307B0938407BF91F9
:1018E000AF919F918F913F912F910F900FBE0F90CD
:1018F0001F9018951F920F920FB60F9211242F93DD
:101900003F934F935F936F937F938F939F93AF9387
:10191000BF93EF93FF938091B900887F803609F4DD
:101920009CC068F5883209F45BC090F4803109F4FA
:1019300054C038F4882309F4F6C0883009F44DC047
:10194000F6C0883109F44CC0803209F45DC0EFC0A4
:10195000803409F468C048F4803309F455C08833F2
:1019600009F0E5C08093A907D8C0803509F44FC0BD
:10197000883509F45DC0883409F0D9C0D6C08839EB
:1019800009F4C7C0A8F4883709F467C038F488366A
:1019900009F463C0803709F460C0C9C0883809F40D
:1019A000B8C0803909F45FC0803809F0C0C05BC09E
:1019B000803B09F486C038F4803A09F466C0883A5E
:1019C00009F47FC0B4C0803C09F4A7C0883C09F486
:1019D000A4C0883B09F48AC0AAC08091860710C0C1
:1019E0009091A8078091A707981770F5E091A80734
:1019F00081E08E0F8093A807F0E0E957F84F8081CF
:101A00008093BB0085EC86C08093A9078EC0E091CF
:101A1000A80781E08E0F8093A8078091BB00F0E0BB
:101A2000E957F84F80839091A8078091A7076EC06F
:101A3000E091A80781E08E0F8093A8078091BB00FA
:101A4000F0E0E957F84F80838091AA0781116DC0BB
:101A500081E08093850784EA61C083E08093AB07CF
:101A600010927B07CFCF80917B07803208F051C066
:101A7000E0917B0781E08E0F80937B078091BB0014
:101A8000F0E0E55AF84F8083BDCF85EC8093BC0031
:101A90001092AB0780917B07803230F4E0917B0796
:101AA000F0E0E55AF84F108260917B0770E0E0911A
:101AB0005907F0915A078BE597E0099510927B073B
:101AC00036C084E08093AB071092580710925707F6
:101AD000E0915507F09156070995809157078111BC
:101AE00005C081E08093570710923507E0915807B1
:101AF00081E08E0F80935807F0E0EB5CF84F808117
:101B00008093BB009091580780915707981708F46D
:101B100079CF85E88093BC000AC085EC8093BC0037
:101B20001092AB0704C01092A9070E946209FF91AE
:101B3000EF91BF91AF919F918F917F916F915F9145
:101B40004F913F912F910F900FBE0F901F901895BE
:101B50000F936034C8F54033B8F50130C1F421303B
:101B600099F5E42FE695E695E69580E4E89FF00187
:101B70001124E60FF11DE65FFE4F477081E090E013
:101B800001C0880F4A95EAF7908189271CC0842FED
:101B9000869586958695E62FF0E0477090E4899FBC
:101BA000E00DF11D1124E65FFE4F81E090E001C0E1
:101BB000880F4A95EAF7213019F49081892B03C0E8
:101BC00080959081892380830F9108955F926F9211
:101BD0007F928F929F92AF92BF92CF92DF92EF92BD
:101BE000FF920F931F93CF93DF93EC016A3009F4B8
:101BF0006AC06D3009F4C9C0E62EBBA4AAA41AA914
:101C000099A82FA5621708F450C088A990E0820F08
:101C1000911D462F50E0481759070CF046C0E21AB4
:101C20008DA486948694869481E0881508F451C02A
:101C3000C92C38E0D32ED10E9C2D99198CA5282FB4
:101C400030E0E92FF0E02E173F077CF1981789F07C
:101C5000AEA5B0E0AA0FBB1FAC52BC4FE89EE00D92
:101C6000F11D112436968D919C91E80FF91FF49087
:101C700001C0F12C812EF0FE03C00B2D2A2D04C0D3
:101C800021E0A11020E00B2D482D6C2DCE010E94EB
:101C9000A80DF69483948D10EECFC394CDCF8FEF23
:101CA000C81AD80A185FC814D0F14CA589A9840FA6
:101CB0008F5F89AB90E020E430E0241B31092817C6
:101CC00039070CF062C09AA98DA5890F8AAB19AAB1
:101CD0005CC0EBA9FCA92CA530E0CF01B9010E94A2
:101CE000CA1C8E2D90E00E94CA1C829F7001839FA7
:101CF000F00C929FF00C11248E9E90018F9E300D5F
:101D00001124269FC001279F900D369F900D11240E
:101D1000E80EF91EC12CD12C86E0E80EF11C792CBE
:101D2000872D89199CA5891708F0B9CFAEA5B0E019
:101D3000AA0FBB1FAC52BC4F2BA93CA9C29EF001FD
:101D4000C39EF00DD29EF00D1124EE0DFF1DE80F85
:101D5000F11D8D919C91E80FF91F6490512C452D38
:101D6000410F60FE03C00B2D2A2D04C021E0A110FD
:101D700020E00B2D672DCE010E94A80D6694539490
:101D800088E05812ECCF7394CBCF81E090E0DF91E4
:101D9000CF911F910F91FF90EF90DF90CF90BF9068
:101DA000AF909F908F907F906F905F900895CF92AB
:101DB000DF92EF92FF920F931F93CF93DF938C01EB
:101DC0007A016034710508F540335105F0F4EB01F8
:101DD0002796C12CD12CF801208130E00C2C02C0B8
:101DE000359527950A94E2F720FF07C0C034D10546
:101DF00024F46E2D8C2F0E94E310FFEFCF1ADF0A20
:101E0000219788E0C816D10431F7DF91CF911F9157
:101E10000F91FF90EF90DF90CF90089582E00E94A5
:101E200092121092A9088CE08093AA0880912A0748
:101E30008A3020F48EE294E00E94091360912A0710
:101E400070E080E090E04AE00E94C61281E00E94CB
:101E5000921288E18093A9088DE08093AA0887E216
:101E600094E00E94091382E00E94921280E2809323
:101E7000A9088CE08093AA08809129078A3020F471
:101E80008EE294E00E9409136091290770E080E0DF
:101E900090E04AE00E94C61280E00E94921281E126
:101EA0008093A90880E28093AA08809142048A3036
:101EB00020F48EE294E00E9409136091420470E0E5
:101EC00080E090E04AE00E94C6128EE394E00E9417
:101ED000091360912B0770E080E090E04AE00C94D9
:101EE000C61280912B078F5F80932B078A3068F191
:101EF0006AE00E94BE1C20914204820F809342043B
:101F000090932B078C3350F06CE30E94BE1C209101
:101F10002907820F80932907909342048091290713
:101F20008C3350F06CE30E94BE1C20912A07820F74
:101F300080932A079093290780912A07883128F0F7
:101F400068E10E94BE1C90932A0708958091640066
:101F50008E7F809364008EE480937C006AE070E062
:101F600080E090E00E94F60B80917A00806480937C
:101F70007A0080917A0086FDFCCF209178008091D4
:101F8000790030E0382B032E000C440B550B60E039
:101F900070E381E190E00E941A1D909164009160CD
:101FA00090936400C9010895809164008E7F8093AE
:101FB000640084E480937C0080917A008064809344
:101FC0007A0080917A0086FDFCCFA0917800809104
:101FD0007900B0E0B82B8091640081608093640048
:101FE0002CE330E00E94F81C2FEF33E040E050E09B
:101FF0000E941A1DC90108951F93CF93DF931F926A
:10200000CDB7DEB7182F81E08093CE071093AD08CF
:102010001092CD071092CC078CE698E049830E947D
:10202000EA094981642F8CE698E00E94EA098091D0
:10203000CC07813208F046C09091AB079111FCCFDC
:1020400092E09093AB0791E09093AA079FEF909353
:10205000A9071092A8078093A707ACEAB7E027E882
:1020600037E0F9019E2F921B981718F49D919193D8
:10207000F9CF1092860780918607110F812B8093EC
:10208000860780918507813061F4109285078091E1
:1020900086078093BB008091BC0083FDF8CF85EC60
:1020A00001C085EE8093BC008091AB078230E1F3E4
:1020B0008091A9078F3F31F08091A907803211F0FC
:1020C0008091A9071092CD071092CC071092CE07ED
:1020D0000F90DF91CF911F9108950F931F93CF938E
:1020E000DF93082FC62F60E080917C080E942B0BA5
:1020F0006C2F80917D080E942B0B60E080917F08FF
:102100000E942B0BC0E0D0E010E0FE01E858F74F32
:10211000C8010C2E02C0959587950A94E2F780FFBE
:1021200002C061E001C060E081850E942B0B219616
:10213000C830D10551F761E080917F080E942B0BD8
:1021400061E080917C08DF91CF911F910F910C94F9
:102150002B0B20919308309194082115310519F526
:10216000E0919808F091990820819091A108922B14
:102170009083E0919608F091970820819091A008B3
:102180009095922390838EBD00000DB407FEFDCF85
:102190008EB5E0919608F091970890818091A00803
:1021A000892B808308952130310531F4482F60E474
:1021B000809195080C94FC0F2230310519F461E0F0
:1021C0000C946D1008950F93462FE8E7F8E003A5EF
:1021D00022A5682FCF010E94A80D0F9108959F920C
:1021E000AF92BF92CF92DF92EF92FF920F931F9325
:1021F000CF93DF93C82FD62F142FD02E422F50E02D
:10220000461B510957FF03C0519541955109812F34
:1022100090E08C1B910997FF03C0919581959109DE
:10222000BB24B3948417950714F0B12C06C0812FFA
:10223000122F282F8C2FCD2FD82F1C1730F48D2F35
:10224000D22F282F8C2FC12F182FA12EAC1A822FFE
:1022500090E08D1B910997FF03C09195819591099D
:10226000F82ECA2CC694D21718F099249A9413C049
:102270009924939410C00E2D2D2DBB2079F04C2F56
:102280006D2F88E798E00E94A80DCF18C7FE02C006
:10229000D90DCA0CCF5FC11770F303C04D2F6C2F3F
:1022A000F0CFDF91CF911F910F91FF90EF90DF90D2
:1022B000CF90BF90AF909F900895EF920F93E8E773
:1022C000F8E0E3A402A50E94EF100F91EF900895AB
:1022D0008F929F92AF92BF92CF92DF92EF92FF9236
:1022E0000F931F93CF93DF93C62EB42E11E0181BCC
:1022F000F82EF194FF0CC82F47E1480F0B2D262F25
:1023000060E288E798E00E94A80D87E1482F4C1B07
:102310002C2D60E288E798E00E94A80D60E26C0F27
:102320002C2D47E188E798E00E94A80D80E2682FF5
:102330006C1B2C2D47E188E798E00E94A80DD0E0A7
:1023400040E2A42E57E1952EDC170CF059C017FD82
:1023500004C0C150F394F3941F0DDF5F8D2F880FDD
:102360008F5F180F80E2882E8D0E0B2D2C2D97E19C
:10237000E92EEC0E4E2D682D88E798E00E94A80DFE
:10238000DA2CDD1A2C2D4E2D6D2D88E798E00E9459
:10239000A80D2C2DE92CEC1A4E2D682D88E798E01D
:1023A0000E94A80D2C2D4E2D6D2D88E798E00E94DF
:1023B000A80D27E1E22EED0E2C2D4E2D30E2D32E6E
:1023C000DC0E6D2D88E798E00E94A80D2C2D4E2D77
:1023D000EA2CEC1A6E2D88E798E00E94A80D892C53
:1023E0008D1A2C2D482D6D2D88E798E00E94A80DA0
:1023F0002C2D482D6E2D88E798E00E94A80DA4CFC3
:10240000DF91CF911F910F91FF90EF90DF90CF90D0
:10241000BF90AF909F908F90089520919308309136
:1024200094082115310521F5E0919808F09199085B
:1024300020819091A108909592239083E091960835
:10244000F091970820819091A00890959223908315
:102450008EBD00000DB407FEFDCF8EB5E09196084D
:10246000F091970890818091A008892B808308952E
:102470002130310531F4482F60E0809195080C94AB
:10248000FC0F2230310519F460E00C946D100895B2
:10249000EF92FF920F931F93CF938AE0E82E81E093
:1024A000F82EC0E08C2F806B0E940D1282E10E94FA
:1024B0000D1280E00E940D1200E010E0F701E00F25
:1024C000F11F80810E94A9100F5F1F4F003411057A
:1024D000A9F7CF5F80E4E80EF11CC63019F7CF9161
:1024E0001F910F91FF90EF9008950F931F93CF933B
:1024F000C0E08C2F806B0E940D1282E10E940D12B1
:1025000080E00E940D1200E810E080E00E94A91017
:1025100001501109D1F7CF5FC83059F7CF911F9102
:102520000F910895A8E7B8E09E968C939E97E82FA8
:10253000F0E0EE0FFF1FEC52FC4F80819181FC0117
:1025400024919C962C939C973196E4919D96EC93C4
:102550009D97FC013296E4919F96EC939F97FC0126
:102560003396E491D096EC93D097FC013496249165
:102570003196E491F0E084E6289FE00DF11D1124EE
:10258000D496FC93EE93D39781E008958F929F9217
:10259000AF92BF920F931F93CF93DF93CDB7DEB768
:1025A000A1970FB6F894DEBF0FBECDBF19A242307F
:1025B00008F44AE08E010F5D1F4F842E912CA12C50
:1025C000B12CA50194010E94441DE62FB901CA0156
:1025D00001501109EA3014F4E05D01C0E95CD80152
:1025E000EC93232B242B252B61F7B80188E798E087
:1025F0000E94810AA1960FB6F894DEBF0FBECDBF30
:10260000DF91CF911F910F91BF90AF909F908F90CE
:102610000895BC0188E798E00C94810ACF92DF927C
:10262000EF92FF920F931F93CF93DF93F82ED62F45
:10263000122FC82FC40F262F4C2F0E94EF106FEFC0
:10264000610F6D0F262F4C2F8F2D0E94EF1012500F
:1026500079F0DF5F1D0F212F4F2D6D2F8F2D0E94E1
:10266000EF108FEF8C0F212F482F6D2F0E94EF104E
:10267000DF91CF911F910F91FF90EF90DF90CF905E
:102680000895CF92DF92EF92FF92CF93DF936C0188
:10269000990FEE08FF08F7FE1FC0E0917808F0914F
:1026A00079080190F081E02D6DE288E798E00995C6
:1026B000EC0166277727CB016C197D098E099F09EC
:1026C0004AE00E94C6128C0F9D1FDF91CF91FF90B0
:1026D000EF90DF90CF9008954AE0C701B601DF91F7
:1026E000CF91FF90EF90DF90CF900C94C612CF93D4
:1026F000DF93CDB7DEB760970FB6F894DEBF0FBE9D
:10270000CDBF789484B5826084BD84B5816084BD7A
:1027100085B5826085BD85B5816085BD80916E007F
:10272000816080936E0010928100809181008260B0
:1027300080938100809181008160809381008091ED
:1027400080008160809380008091B10084608093DC
:10275000B1008091B00081608093B00080917A00D8
:10276000846080937A0080917A00826080937A00FE
:1027700080917A008E7F80937A0080917A008068C1
:1027800080937A001092C10060E08EE00E945B0BA3
:1027900060E08FE00E945B0B60E082E10E945B0BD7
:1027A00061E083E10E945B0B61E08AE00E945B0BC9
:1027B00061E089E00E945B0B61E083E00E945B0BBB
:1027C00061E08EE00E942B0B61E08FE00E942B0BFA
:1027D000E091DF07F091E00782E08083E091DB0782
:1027E000F091DC071082E091DD07F091DE078BE9C4
:1027F00080831092E707E091E307F091E40786E019
:102800008083E091E107F091E2078081806180831D
:10281000E091E107F091E207808188608083E09198
:10282000E107F091E207808180688083E091E10711
:10283000F091E20780818F7D8083809164008160C8
:1028400080936400809164008068809364000E949B
:10285000A60F21E088349D400CF020E020932D0746
:1028600080E00E94921211E01093A2081092A30837
:102870001092A9081092AA0880917D08482F50E074
:102880009A0122553F4FF9019491E92FF0E0EE0FA4
:10289000FF1FEC55FF4F65917491709399086093F9
:1028A0009808FA01E057FF4FE491E093A108F9017D
:1028B0002491E22FF0E0EE0FFF1FEA57FF4F259122
:1028C000349130939D0820939C0861E00E945B0B3B
:1028D00061E080917E080E945B0B8091930890914B
:1028E0009408009709F07BC040917C0850E0CA0131
:1028F00082559F4FFC012491E22FF0E0EE0FFF1F65
:10290000EC55FF4F2591349130939708209396080A
:10291000FA01E057FF4FE491E093A008FC01849195
:10292000E82FF0E0EE0FFF1FEA57FF4F85919491DB
:1029300090939B0880939A0861E08BE00E945B0B68
:1029400061E08DE00E945B0B61E080917C080E9459
:102950005B0B61E080917C080E942B0B8CB58C7F17
:102960008CBD8DB581608DBD8CB5837F8CBD61E0E4
:102970008AE00E945B0B1FB7F89480912C078111AD
:1029800027C0E8EBF0E08491EAE9F0E09491E82FC9
:10299000F0E0EE0FFF1FEA57FF4FA591B491EC91C5
:1029A000E92321F461E08AE00E942B0B61E08AE0D8
:1029B0000E945B0B8CB580618CBD8CB580648CBD36
:1029C00061E08DE00E945B0B61E08BE00E945B0B9D
:1029D00080912C078F5F80932C071FBFD1C081305F
:1029E000910551F510924104109240041092CD07C8
:1029F0001092CC071092AB071093AA07109285078C
:102A000061E082E10E942B0B61E083E10E942B0BCD
:102A10008091B9008E7F8093B9008091B9008D7F3D
:102A20008093B90084E38093B80085E48093BC0070
:102A300087E08093B800A4C0029709F0A1C040913C
:102A40007C0850E0CA0182559F4FFC012491E22F7F
:102A5000F0E0EE0FFF1FEC55FF4F259134913093BE
:102A6000970820939608FA01E057FF4FE491E0930E
:102A7000A008FC018491E82FF0E0EE0FFF1FEA5759
:102A8000FF4F8591949190939B0880939A08809131
:102A90007F08482F50E09A0122553F4FF901949149
:102AA000E92FF0E0EE0FFF1FEC55FF4F6591749199
:102AB00070938A0860938908FA01E057FF4FE49108
:102AC000E0939108F9012491E22FF0E0EE0FFF1F4F
:102AD000EA57FF4F2591349130938C0820938B084F
:102AE0004091800850E09A0122553F4FF90194919E
:102AF000E92FF0E0EE0FFF1FEC55FF4F6591749149
:102B000070938E0860938D08FA01E057FF4FE491AF
:102B1000E0939208F9012491E22FF0E0EE0FFF1FFD
:102B2000EA57FF4F259134913093900820938F08F6
:102B300061E00E945B0B61E080917F080E942B0B9B
:102B400061E0809180080E945B0B61E080918008C9
:102B50000E942B0B61E080917C080E945B0B61E07E
:102B600080917C080E942B0B01E818E061E0F801DD
:102B700081918F010E945B0BF8E009381F07B1F7C4
:102B800061E080917E080E945B0B61E080917E088D
:102B90000E942B0B65E070E080E090E00E94F60B55
:102BA00060E080917E080E942B0B6AE070E080E07C
:102BB00090E00E94F60B61E080917E080E942B0B52
:102BC0008EEA0E940D1285ED0E940D1280E80E948F
:102BD0000D1288EA0E940D128FE20E940D1283ED01
:102BE0000E940D1280E00E940D1280E40E940D12DE
:102BF0008DE80E940D1284E10E940D1286EA0E9467
:102C00000D1284EA0E940D1281EA0E940D1288ECD6
:102C10000E940D128AED0E940D1282E10E940D1297
:102C200081E80E940D128FE80E940D1289ED0E942A
:102C30000D1281EF0E940D128BED0E940D1280E4A7
:102C40000E940D128FEA0E940D120E9475120E94BE
:102C500075120E944812E5E4F4E080E2819324E0DA
:102C6000ED36F207D9F7BE016F5F7F4F6B013AE097
:102C7000360F3E876DE570E080E090E00E94F60B35
:102C80008FE00E94020B892B31F0809133079091E5
:102C900034070297CCF06CE271E080E090E00E9493
:102CA000F60B80912B078D5F80932B078FE00E949E
:102CB000020B2091330730913407892B09F496C118
:102CC000223031050CF092C18EE00E94020B892B5C
:102CD00009F08AC06CE271E080E090E00E94F60B9F
:102CE00010912B0783E0810F80932B078EE00E94C9
:102CF000020B892B09F078C0109232076FEF70E059
:102D00008AE00E94970B6FEF70E089E00E94970BBA
:102D10006FEF70E083E00E94970B8FEA0E940D1224
:102D2000EAE0F1E020E831E0119221503040E1F793
:102D30004091A3086091A2088AE00E94681164E1B2
:102D40008FE10E94E31063E183E20E94E3102BE134
:102D500043E26BE18DE10E945D110E9448126EE535
:102D600071E080E090E00E94F60BE090A3080091F3
:102D7000A20823E043E063E18DE10E940E13E0909E
:102D8000A3080091A20823E043E063E183E20E94EC
:102D90000E136AE183E20E94E3100E9448126EE57E
:102DA00071E080E090E00E94F60B165F10932B0715
:102DB0008EEA0E940D1210926D0488E290E09093CA
:102DC000090180930801E091CF07F091D0070190AD
:102DD000F081E02D6EE78FEC97E009956BE374E0EE
:102DE0008FEC97E00E94810A20910801309109013F
:102DF000293231050CF48AC0809143049091440437
:102E0000892B09F083C080916D04833241F580E203
:102E100080936D0480916F04805390916E04905361
:102E20004AE0949F800D112480932A0780917204B8
:102E300080539091710490536AE0969F800D112405
:102E40008093290780917504805390917404905366
:102E50007AE0979F800D11248093420457C08532F9
:102E600009F054C080916E04809332078823D1F119
:102E700040916F0481E490E0FC01E41BF109AF0193
:102E8000440F551F440F551F41505F4F509307018A
:102E90004093060140917004BC01641B7109AB01B1
:102EA000440F551F440F551F41505F4F509305016C
:102EB0004093040140917104841B9109880F991F6C
:102EC000880F991F81509F4F9093030180930201B7
:102ED0008091720490E08154910990930101809354
:102EE000000110C08FEF90E09093030180930201E6
:102EF000909305018093040190930701809306014C
:102F000010926D0430934404209343042932310518
:102F1000CCF080914304909144042817390794F031
:102F2000EAE0F1E020E831E0119221503040E1F791
:102F30001092A9081092AA088B5B9B4F0E9409135C
:102F40000E944812009143041091440480910801AA
:102F5000909109010817190759F48EEA0E940D1281
:102F600010926D0488E290E090930901809308012B
:102F700080913207882301F12091000130910101F5
:102F80002115310599F460910601709107018AE0DD
:102F90000E94970B609104017091050189E00E94E5
:102FA000970B609102017091030112C080912B0771
:102FB00090E0281739073CF76FEF70E08AE00E9435
:102FC000970B6FEF70E089E00E94970B6FEF70E056
:102FD00083E00E94970B0F5F1F4F109344040093F0
:102FE00043040E94710F0E947B0A44CE22303105B7
:102FF0008CF4109232076FEF70E08AE00E94970B1A
:103000006FEF70E089E00E94970B6FEF70E083E054
:103010000E94970B8FEA0E940D1268E2A62EB12C37
:103020007DE2872E912CE2E14E2E512CF0E3FF2E13
:10303000EAE0F1E020E831E0119221503040E1F780
:103040000E94710F80913307909134078130910570
:1030500009F0DEC04091A3086091A20887E10E94B8
:10306000681100912A0710E00D30110514F00C5082
:1030700011098091420490E0880F991FFC01E45AE5
:10308000FC4FDC01AC51BD4F20814C9167E180E2E7
:103090000E945D118091290790E0880F991FFC0123
:1030A000E45AFC4FDC01AC51BD4F20814C9167E1EB
:1030B00080E20E945D11000F111FF801E653FD4FE1
:1030C000E080F801E055FD4F10812E2D412F67E182
:1030D00080E20E945D1141E0410F2E2D67E181E207
:1030E0000E945D110AEC12E050EB252E52E0352EC5
:1030F000F80160810E5F1F4FF1018081F2E02F0E19
:10310000311C0E94E31022E0023E120789F763E0BF
:103110008EE10E94E31064E08EE10E94E31065E01E
:103120008EE10E94E31066E08EE10E94E31063E00E
:1031300080E20E94E31063E081E20E94E31064E019
:1031400081E20E94E31065E080E20E94E31066E005
:1031500081E20E94E31066E082E20E94E31065E1F2
:1031600081E30E94E31065E182E30E94E31066E1DF
:1031700082E30E94E31067E181E30E94E31068E1CB
:1031800082E30E94E31069E181E30E94E31069E1B8
:1031900082E30E94E31069E280E20E94E3106AE2A7
:1031A0008FE10E94E3106BE28EE10E94E3106BE27C
:1031B0008FE10E94E3106CE28EE10E94E3106CE26A
:1031C0008FE10E94E3106CE280E20E94E3106DE266
:1031D0008FE10E94E31065E18EE00E94E31066E15A
:1031E0008DE00E94E31066E18FE00E94E31067E14A
:1031F0008EE00E94E31067E18FE00E94E31068E137
:103200008EE00E94E31069E18DE00E94E31024C08B
:103210008230910549F460E085E00E94E31060E0AF
:103220008EE10E94E31016C08330910549F460E0FE
:1032300085E00E94E3100E94D40F80932A070AC001
:10324000049741F460E08EE10E94E3100E94D40FE5
:10325000809329070E940E0F0E94A60F00912D0750
:103260008C589A40002311F0B20101C0B4010E94B1
:10327000DE1C162F6DE08CE30E94E3106DE08DE301
:103280000E94E31001110CC063E289E30E94E31085
:103290006AE188E30E94E3106AE189E30E94E31097
:1032A000E090A3080091A20822E246E06EE08AE3E3
:1032B0000E940E137F2C711A2090A3083090A20850
:1032C0001AE3E22C032D20E3412F672D812F0E946A
:1032D000EF101F5F1034A9F70E9448126AE570E0F2
:1032E00080E090E00E94F60B31E0A31AB10809F0EB
:1032F0009FCE8EE00E94020B892B89F480913307C8
:10330000909134070196833091052CF49093340703
:103310008093330704C010923407109233078091D2
:10332000330790913407029718F48EEA0E940D1229
:103330008FE00E94020B892B09F0C6CC64E074E098
:103340008FEC97E00E94960A8FEA0E940D128091FE
:1033500064008E7F809364001092310710923007D2
:10336000EAE0F1E020E831E0119221503040E1F74D
:1033700080E090E00E94041D80932E0781E090E0A1
:103380000E94041D80932F0760E070E083E00E949C
:10339000970B60E070E089E00E94970B1092A908FB
:1033A0001092AA086BE074E088E798E00E94960A01
:1033B00083E194E00E9409136EE174E088E798E0ED
:1033C0000E94960A80912E0790912F070E94411328
:1033D0000E94481268EE73E080E090E00E94F60BD5
:1033E0006FE770E083E00E94970B60ED77E080E08C
:1033F00090E00E94F60B6FEF70E083E00E94970B65
:103400006FEF70E089E00E94970B80912B07825E3E
:1034100080932B07B6E4AB2EB12C612C712C00E00D
:1034200010E088E3482E512C93E0292E312C809116
:1034300030079091310701969093310780933007C0
:10344000EAE0F1E020E831E0119221503040E1F76C
:103450001092A9081092AA08C1010E94411389E2A2
:1034600094E00E94091380913007909131070E94E7
:1034700041134114510419F4A8E34A2E512C4092EF
:10348000A9088AE08093AA088CE294E00E940913BC
:10349000809030079090310780FC03C031E0431AE0
:1034A00051082DE24FE36DE280E00E945D1149EF8B
:1034B000A4164FEFB4061CF4F6E4AF2EB12C8CE04A
:1034C000EEE8F2E0D60101900D928A95E1F7E12C49
:1034D000F12CA7014F5D5F4FB501C6018E0D9F1DF9
:1034E0000E94D70E6FEFE61AF60A7CE0E716F104A9
:1034F00081F782E0A81AB10896E0A916B10409F094
:103500006FC00D3011050CF065C0E1E02E1A3108D6
:103510008CE0EAE9F2E0D60101900D928A95E1F79C
:1035200046019CE0E12CF12C4EE0490FF401208192
:1035300030E00E2C02C0359527950A94E2F720FF63
:1035400009C06DE26E19842F488B9F870E94E3109B
:103550009F854889FFEFEF1AFF0A28E0E216F10481
:1035600029F791503FEF831A930A9111DBCF0E9404
:10357000481261E089E00E942B0B60E08AE00E9423
:103580002B0B68E770E083E10E94970B64EF71E01A
:1035900080E090E00E94F60B6FE770E08AE00E9406
:1035A000970B60E270E083E10E94970B64EF71E09B
:1035B00080E090E00E94F60B60E083E10E942B0B1C
:1035C00061E08AE00E942B0B80912B07865F80933D
:1035D0002B0789C0800E911E909231078092300790
:1035E0000D8780E2E82EE01A8AE0E6EAF2E0D601F2
:1035F00001900D928A95E1F74601F12CEC18FD0837
:10360000A701480D591D62E070E0C4010E94D70E69
:103610004FEF841A940A3E853811F2CF809030071C
:1036200090903107C40163E070E00E94DE1C892B9A
:10363000C1F488E3898384E28A838AE2E82E2D85B7
:10364000E21AF12CA70162E070E0C6010E94D70ED9
:10365000A7014F5F5F4F62E070E0CE0102960E94CB
:10366000D70EC401019663E070E00E94DE1C892B36
:10367000C1F488E7898388E08A838AE2E82E3D8561
:10368000E31AF12CA70162E070E0C6010E94D70E98
:10369000A7014F5F5F4F62E070E0CE0102960E948B
:1036A000D70EC401029663E070E00E94DE1C892BF5
:1036B000C1F480E3898388E28A838AE2E82E2D853B
:1036C000E21AF12CA70162E070E0C6010E94D70E59
:1036D000A7014F5F5F4F62E070E0CE0102960E944B
:1036E000D70E0E944812E0903007F090310731EA7F
:1036F000E3163FE0F306BCF449EBE4164BE0F406B6
:10370000ACF46DEDE61665E0F6069CF479EEE7168E
:1037100073E0F7068CF485EFE81681E0F8067CF09C
:1037200062E370E00EC06AE070E00BC064E170E03C
:1037300008C06EE170E005C068E270E002C066E4B7
:1037400070E0660E771E072E000C880B990B0E9406
:10375000F60B95E66916710424F00E94710F612C36
:10376000712CF8013197EF30F10508F043C0EC5CA3
:10377000FF4F0C94F21C0AE010E047C06CE370E0CD
:1037800083E10E94970B6FE770E089E00E94970B3E
:1037900007E010E03AC061E470E083E10E94970B1B
:1037A0000DE010E032C065E570E083E10E94970B08
:1037B0000FE010E02AC06FE570E083E10E94970BF4
:1037C0000CE010E022C060E083E10E942B0B09E0D6
:1037D00010E01BC008E010E018C006E010E015C0C3
:1037E00004E010E012C061E089E00E942B0B02E0CF
:1037F00010E00BC00115110541F48FE00E94020B8F
:10380000892B09F06FC001E010E0121413040CF4CE
:103810000ECE80912E0790912F078E159F05ECF10B
:103820006FEF70E089E00E94970B65E070E083E144
:103830000E94970B1092A9081092AA088EE294E0B9
:103840000E9409131092A90886E18093AA0860E3F8
:1038500074E088E798E00E94960A0E9448126CED96
:1038600075E080E090E00E94F60B60E083E10E944A
:103870002B0B60ED77E080E090E00E94F60B8091EA
:103880002B078D5D80932B0780916400816080936E
:1038900064008EEA0E940D1217CAF0922F07E09280
:1038A0002E0780E090E00E94041DE81629F06E2D9E
:1038B00080E090E00E940C1D60912F0781E090E075
:1038C0006F870E94041D6F85681709F4A9CF81E0F6
:1038D00090E00E940C1DA4CF0BE010E096CF0EE00C
:1038E00010E093CF00E010E090CFEFECF7E0138210
:1038F000128288EE93E0A0E0B0E084839583A683F3
:10390000B78320EE33E03183208325EC30E0358728
:10391000248724EC30E03787268720EC30E0318B99
:10392000208B21EC30E0338B228B22EC30E0358B86
:10393000248B26EC30E0378B268B118E128E138E63
:10394000148EECE6F8E01382128284839583A683BA
:10395000B78380EF93E091838083E8E7F8E01382F8
:10396000128280E094E09183808386E0868388E001
:10397000858385E08483148E138E0895991B79E0E6
:1039800004C0991F961708F0961B881F7A95C9F7EF
:1039900080950895AA1BBB1B51E107C0AA1FBB1F3E
:1039A000A617B70710F0A61BB70B881F991F5A95CB
:1039B000A9F780959095BC01CD01089597FB072E3E
:1039C00016F4009407D077FD09D00E94CA1C07FCAA
:1039D00005D03EF4909581959F4F0895709561951F
:1039E0007F4F0895EE0FFF1F0590F491E02D09948D
:1039F0000E94661DB7FF0895821B930B089581E016
:103A000090E0F8940C94751DF999FECF92BD81BD9C
:103A1000F89A992780B50895262FF999FECF1FBAF5
:103A200092BD81BD20BD0FB6F894FA9AF99A0FBEE7
:103A300001960895052E97FB1EF400940E94311DF7
:103A400057FD07D00E94441D07FC03D04EF40C9490
:103A5000311D50954095309521953F4F4F4F5F4F09
:103A6000089590958095709561957F4F8F4F9F4FEA
:103A700008950E94661DA59F900DB49F900DA49F70
:103A8000800D911D11240895A1E21A2EAA1BBB1BC3
:103A9000FD010DC0AA1FBB1FEE1FFF1FA217B3071A
:103AA000E407F50720F0A21BB30BE40BF50B661F30
:103AB000771F881F991F1A9469F7609570958095F4
:103AC00090959B01AC01BD01CF010895A29FB0016B
:103AD000B39FC001A39F700D811D1124911DB29F42
:0E3AE000700D811D1124911D0895F894FFCFE3
:103AEE000800FF00FF00FF0028000000000000009B
:103AFE00000000000000000000000080C0C0E0E0F8
:103B0E00F0F0F0F8F8F8F8F8FCFCFCFCFCFCFCF823
:103B1E00F8F8F0E0E0C080000000000000000000B7
:103B2E000000000000000000000000000000000087
:103B3E000000000000C0F0F8FEFEFFFFFFFFFFFFD9
:103B4E00FFFFFFFFFFFFFF7F3F9F9FDFFFBF9F9F97
:103B5E00BFBFFFFFFFFFFFFFFCF8E000000000000B
:103B6E000000000000000000000000000000000047
:103B7E0000000000FEFFFFFFFFFFFFFFFFFFFFFF44
:103B8E00FFFFFFFFFFFFFFFFC3C9C1C3FFC3898153
:103B9E00C3FFFFFFFFFFFFFFFFFFFF7F400000009F
:103BAE000000000000000000000000000000000007
:103BBE0000000000033FFFFFFFFFFFFFF1E08EBCA0
:103BCE002DC9933F7F7FFFFFFFFFFFFFFFFFFFFF2B
:103BDE00FFFFFFFFFFFFFF7F3F9CC6761F07000022
:103BEE0000000000000000000000000000000000C7
:103BFE0000000000000001070F1F7FFFFFFFFFFF07
:103C0E00FFFFFFFFFFFEFCFCFDF9FBFBFBF3F3F3F5
:103C1E00F3FBFBFBF9FDFCFEFF3F0700000000007D
:103C2E000000000000000000000000000000000086
:103C3E000000000000000000000000000103070764
:103C4E000F1F1F3F3F3F3F3F3F7FFFFFFFEFEF8FB6
:103C5E000F0F0F0F0707010100000000000000000A
:103C6E0000000000000000000000010000002060C5
:103C7E0028A8A8F87838303020201C7C546C547C4E
:103C8E003C0C1C1C0C3C382C3E3E383E98783C18A4
:103C9E00200028002F0031002F00280020001700E0
:103CAE0011000F00110018002000060008000E0081
:103CBE00170020002600280026001F0017000E0007
:103CCE0008000600200022002400260029002A00F9
:103CDE002C002E003000310032003300340035004D
:103CEE003500350035003500340033003200310028
:103CFE0030002E002C002A0029002600240022006D
:103D0E0020001E001C001A001700150014001200DF
:103D1E0010000F000E000D000C000B000B000B002E
:103D2E000B000B000C000D000E000F001000120017
:103D3E001400160017001A001C001E0002000200DC
:103D4E0002000300040005000600070009000B0036
:103D5E000C000E00110013001500170019001B00B7
:103D6E001D00200022002300250027002800290026
:103D7E002A002B002C002C002C002C002C002B00D9
:103D8E002A002900280027002500230021002000FA
:103D9E001D001B00190017001500130011000E0066
:103DAE000C000B00090007000600050004000300CC
:103DBE0002000200FA0AF404FE03E0000000000014
:103DCE00AD082908760854086808F40800000000B9
:103DDE00EA09BA09B209A30995099409000000007D
:103DEE00E60D290847616D652021002020204469D9
:103DFE006E6F003D3D3D3D3D3D3D3D3D3D004869C5
:103E0E00676873636F72653A002020002A003000E5
:103E1E002047616D65204F766572000D0A002E00F9
:00000001FF
