:100000000C9401080C9429080C9429080C942908D4
:100010000C9429080C9429080C9429080C9429089C
:100020000C9429080C9429080C9429080C9429088C
:100030000C9429080C9429080C9429080C9429087C
:100040000C94391B0C9429080C94831E0C94B51E37
:100050000C9429080C9429080C9429080C9429085C
:100060000C940C1A0C942908500F980F950F8D0FB3
:10007000950F890FB90F850F810F790F5E0FBD0F97
:10008000670F700F4C0F0A102E0C011400000000B7
:100090000000000000000000000000000000000060
:1000A00078FC020303030302FC7800000000000058
:1000B0000000FF7E0000028383838302FC7800003F
:1000C000028383838302FC787EFF0080808080002F
:1000D000FF7E78FC028383838302000078FC028326
:1000E0008383830200000002030303030302FC78FE
:1000F00078FC028383838302FC7878FC0283838309
:100100008302FC7800000060F0F060000000000056
:1001100000000000000000001E3F40C0C0C0C04002
:100120003F1E0000000000000000FF7E1C3E41C199
:10013000C1C1C1410000000041C1C1C1C1413E1C5B
:100140000000010101010101FF7E000041C1C1C1A8
:10015000C1413E1C1C3E41C1C1C1C1413E1C000009
:10016000000000000000FF7E1C3E41C1C1C1C14132
:100170003E1C000041C1C1C1C1413E1C0C30300BCE
:10018000012000C0F87C3E3EFCF8C00000000000EA
:1001900080E078FEFE000000000000F07C3C3E3E67
:1001A000FEFCE0000000007C3E3E3EFEF8C0000089
:1001B00000000000000000F8FEFE0000000000FE4D
:1001C000FE3E3E3E3E3E00000000000080F0FC3E51
:1001D0003E3EFC000000003E3E3E3E3E3E3EFEFEF9
:1001E00000000000C0F8FE3E7EFCE00000000000C1
:1001F000E0FC7E3EFEF8C000000000000000C0E011
:10020000C00000000000F0FF0F000000F9FFFFF049
:1002100000000000070300FFFF00000000000001D5
:100220000000000000FFFF000000000000000000D0
:10023000FFFF00000000000000E0FF1FFFFF0000C4
:10024000000000FFFF00000000000000000000E0D0
:10025000FF3F000000000000000000000000000060
:10026000C0FC7F0300000000FFFF000000FFFF0054
:10027000000000FEFF03000000FFFFF00000000090
:1002800000003F7F3F0000000000FFFF0000E0FF94
:100290001F00FFFF00000000000000FFFF00000043
:1002A00000000000000000E0FE1F01000000000050
:1002B000F8F8FCFFC7000000000000C0FE3F03008C
:1002C000FFFF00000000003F3F3E7EFCF8E0000022
:1002D000000000FFFF80F07C7CF8F00000000000D0
:1002E000000080F8FF07000000000000019FFFF8F9
:1002F000FE1F0100000000FFFFC0000080FFFFFFA5
:100300000000000000000000000000000000FFFFEF
:10031000C0FC7F030000FFFF00000000000000FFA2
:10032000FF0000000000000000E0FE0F01000000E0
:1003300000000000000000010FFFF8000000F8FFBF
:10034000E7E0E0E0FFFFE0E0E00000000000000088
:1003500007FFFE00000000FFFFFF03000001FFFF9A
:100360000000000000F0FF0F00000000000000C0CF
:10037000FC3F03031FFFFCC0000000000F1F3E3EB8
:100380000F01FFFF000000000000008000000000DF
:10039000000007FFFF07000000FCFF07000000004F
:1003A000000000FFFF000000000000E0FE0F000062
:1003B000000000000000000000000000C0FF7F00FF
:1003C0000000030303030303FFFF03030300000014
:1003D00000000000C0FF7F000000000FFFFF800052
:1003E0000080FF7F00000000FEFF0300000000000F
:1003F000000000FFFF8000000080FFFF0000000001
:100400000000000080FCFF07000000000000FFFF6C
:10041000FF000000000000031F3F7C7C3F1F030023
:10042000000000007C7C7C7F7F7C7C7C0000007F67
:100430007F7C7C7C7C7C7C000000003F7E7C7C7E22
:100440001F07000000000000000000007F7F000088
:100450000000001F3E7C7C3E1F07000000000000E3
:10046000031F7F7C7C3F0700000000007F7F0000AF
:1004700000000000000000011F3F7E7C7E3F1F0146
:10048000000000003E7C7C7E3F0F01000000000069
:100490000000000100000000000008102060023889
:1004A0000000000000000000000000FE000000004E
:1004B00000000E000E00000000D0BE90D0BE9000E4
:1004C000001C62FFC28000000C12924CB088060033
:1004D000807C62B21CC0000000000E0E0000000014
:1004E00000E01804020200000002020418E000000C
:1004F0000024187E18240000808080F08080800016
:1005000000000000000000000080808080000000EB
:1005100000000000000000000000806018060000DD
:10052000F804C2320CF80000000404FE00000000D1
:1005300000028242221C00000002222222DC000073
:10054000C0A09884FE808000001E121222C200000B
:10055000F844222222C00000000202C2320A060031
:10056000008C5222528C00003C42424226F800008D
:1005700000003030000000000000303000000000BB
:10058000808040402020100040404040404000001B
:10059000102020404080800000028242221C000087
:1005A0000000000000000000000000050000000046
:1005B000000000000000000000070000070000002D
:1005C0000004040F040300000402010304040300F8
:1005D0000304040405030400000000000000000000
:1005E00000030608101000000010100806030000A9
:1005F00000000000000000000000000700000000F4
:100600000000160E000000000000000000000000C6
:1006100000000606000000000402010000000000C7
:1006200001030404020100000004040704040000A4
:100630000007040404040000000404040403000090
:100640000000000007000000000404040403000090
:100650000102040404030000000007000000000081
:100660000003040404030000000404040201000069
:1006700000000606000000000000160E000000004A
:10068000000001010202040001010101010100005A
:10069000040202010100000000000500000000004B
:1006A000F804728AFA84780000C0380638C0000066
:1006B00000FE222222DC0000F804020202020000F6
:1006C000FE02020204F8000000FE222222220000A4
:1006D00000FE222222220000F804020222E2000090
:1006E000FE20202020FE0000000202FE0202000088
:1006F0000000000202FE0000FE40B00804020000FC
:1007000000FE000000000000FE0C7080700CFE0077
:10071000FE0C30C000FE0000F804020204F80000E5
:10072000FE424242221C0000F804020204F80000CB
:1007300000FE4242A21C0000001C22424280000037
:10074000020202FE02020200FE00000000FE0000A3
:100750000638C000C03806003EC0F00EF0C03E00B3
:100760000006986098060000000618E018060000D1
:100770000202C2320A0600000000FE02020202006B
:10078000000618608000000002020202FE00000065
:1007900040300C0C30400000000000000000000061
:1007A0000102040404000000060101010101060029
:1007B0000007040404030000010204040404000010
:1007C00007040404020100000007040404040000FC
:1007D00000070000000000000102040404070000FC
:1007E00007000000000700000004040704040000E4
:1007F00000040404040300000700000102040000D8
:1008000000070404040400000700000100000700C2
:1008100007000000030700000102040402010000B9
:1008200007000000000000000102040C121110007B
:100830000007000001060000000404040403000097
:10084000000000070000000003040404040300008B
:100850000000010601000000000700000007000082
:100860000006010001060000000000070000000073
:10087000060504040404000000001F1010101000FE
:100880000000000001020400101010101F00000002
:100890000000000000000000080808080808000028
:1008A000000002040000000000E0101010F0000042
:1008B00000FE201010E0000000E0101010100000FA
:1008C00000E0101010FE000000E0909090E00000AA
:1008D0000020FC222222020000E0101010F0000094
:1008E00000FE201010E000001010F20000000000D8
:1008F00000101010F200000000FE804020100000E8
:10090000000202FE00000000F02010F02010F000B5
:1009100000F0201010E0000000E0101010E00000D7
:1009200000F0201010E0000000E0101010F00000B7
:1009300000F02010107000000060909090200000E7
:10094000002020FC2020200000F0000000F000002B
:100950000070800080700000F000C030C000F00027
:100960000030C0C0300000000030C00080700000C7
:1009700000101090503000000080807E02020000C5
:10098000000000FE000000000002027E80800000E7
:1009900000808000000080000000000000000000D7
:1009A0000000000000000000000304040207000033
:1009B000000704040403000000030404040400000E
:1009C0000003040402070000000304040404000000
:1009D000000007000000000000332424221F000054
:1009E00000070000000700000000070404000000EA
:1009F000202020201F00000000070001020400004A
:100A000000000007040400000700000700000700C2
:100A100000070000000700000003040404030000B6
:100A2000003F04040403000000030404023F00002C
:100A3000000700000000000000020404040300009E
:100A40000000000304040400000304040207000083
:100A5000000003040300000001060100010601007C
:100A600000060101060000002020310E03000000F6
:100A700000060504040400000000001F1010000020
:100A800000000007000000000010101F0000000020
:100A90000100000101010000000000000000000052
:100AA000050800FF0C4B00000000003E5B4F5B3E62
:100AB0003E6B4F6B3E1C3E7C3E1C183C7E3C181C23
:100AC000577D571C1C5E7F5E1C00183C1800FFE71A
:100AD000C3E7FF0018241800FFE7DBE7FF30483AC0
:100AE000060E2629792926407F050507407F052522
:100AF0003F5A3CE73C5A7F3E1C1C08081C1C3E7FAA
:100B000014227F22145F5F005F5F06097F017F0070
:100B10006689956A606060606094A2FFA294080490
:100B20007E040810207E201008082A1C08081C2AB1
:100B300008081E101010100C1E0C1E0C30383E3809
:100B400030060E3E0E06000000000000005F0000B0
:100B50000007000700147F147F14242A7F2A122321
:100B60001308646236495620500008070300001C31
:100B70002241000041221C002A1C7F1C2A08083E3A
:100B8000080800807030000808080808000060604D
:100B90000020100804023E5149453E00427F4000BB
:100BA00072494949462141494D331814127F102793
:100BB000454545393C4A49493141211109073649E2
:100BC000494936464949291E0000140000004034B6
:100BD00000000008142241141414141400412214BB
:100BE0000802015909063E415D594E7C1211127CE2
:100BF0007F494949363E414141227F4141413E7F43
:100C0000494949417F090909013E414151737F0822
:100C100008087F00417F41002040413F017F0814C8
:100C200022417F404040407F021C027F7F04081029
:100C30007F3E4141413E7F090909063E4151215E07
:100C40007F09192946264949493203017F01033F9B
:100C50004040403F1F2040201F3F4038403F63142A
:100C600008146303047804036159494D43007F412C
:100C700041410204081020004141417F0402010269
:100C8000044040404040000307080020545478408E
:100C90007F284444383844444428384444287F3822
:100CA0005454541800087E090218A4A49C787F08A4
:100CB00004047800447D40002040403D007F10281F
:100CC000440000417F40007C047804787C080404E0
:100CD000783844444438FC1824241818242418FC78
:100CE0007C08040408485454542404043F44243C1D
:100CF0004040207C1C2040201C3C4030403C44288C
:100D00001028444C9090907C4464544C4400083625
:100D10004100000077000000413608000201020493
:100D2000023C2623263C1EA1A161123A4040207AB3
:100D300038545455592155557941215454784121FD
:100D40005554784020545579400C1E527212395532
:100D5000555559395454545939555454580000452F
:100D60007C410002457D420001457C40F029242958
:100D7000F0F0282528F07C545545002054547C542C
:100D80007C0A097F4932494949323248484832325F
:100D90004A4848303A4141217A3A42402078009D01
:100DA000A0A07D39444444393D4040403D3C24FFAF
:100DB0002424487E4943662B2FFC2F2BFF0929F65C
:100DC00020C0887E090320545479410000447D41AD
:100DD0003048484A32384040227A007A0A0A727D06
:100DE0000D19317D2629292F282629292926304821
:100DF0004D4020380808080808080808382F10C88F
:100E0000ACBA2F102834FA00007B000008142A1412
:100E10002222142A1408AA005500AAAA55AA55AAE3
:100E2000000000FF00101010FF00141414FF001049
:100E300010FF00FF1010F010F0141414FC00141434
:100E4000F700FF0000FF00FF1414F404FC14141753
:100E5000101F10101F101F1414141F00101010F07A
:100E6000000000001F101010101F10101010F010C4
:100E7000000000FF101010101010101010FF1000D4
:100E80000000FF140000FF00FF00001F101700000B
:100E9000FC04F414141710171414F404F40000FFE5
:100EA00000F714141414141414F700F7141414177E
:100EB0001410101F101F141414F4141010F010F05C
:100EC00000001F101F0000001F14000000FC140091
:100ED00000F010F01010FF10FF141414FF14101085
:100EE000101F00000000F010FFFFFFFFFFF0F0F008
:100EF000F0F0FFFFFF0000000000FFFF0F0F0F0FDB
:100F00000F38444438447C2A2A3E147E02020606E6
:100F1000027E027E0263554941633844443C0440EA
:100F20007E201E2006027E020299A5E7A5991C2AB2
:100F3000492A1C4C7201724C304A4D4D3030487871
:100F40004830BC625A463D3E494949007E01010194
:100F50007E2A2A2A2A2A44445F444440514A444073
:100F600040444A51400000FF0103E080FF000008B8
:100F7000086B6B083612362436060F090F06000080
:100F800018180000001010003040FF0101001F0180
:100F9000011E00191D1712003C3C3C3C00000000E3
:100FA0000000000008000201000003040700000028
:100FB000000000000001020408102040800102042B
:100FC000081020010204081020040404040404048E
:100FD00004020202020202030303030303000000EF
:100FE0000023002600290000000000250028002B17
:100FF0000000000000240027002A0000E4116A1904
:10100000E51E11241FBECFEFD8E0DEBFCDBF14E038
:10101000A0E0B1E0E6EDF2E402C005900D92AE343E
:10102000B107D9F728E0AEE4B4E001C01D92AE3DAF
:10103000B207E1F71FE0C2E0D0E104C02297FE0151
:101040000E943521CC3FD107C9F70E949E200C9405
:1010500069210C940000AF92BF92CF92DF92EF9281
:10106000FF920F931F93CF93DF93C4E6D0E0888164
:101070008E7F888382E10E94071CBC018881816089
:101080008883882777FD8095982F1F921F921F9243
:101090002CE32F93A12CB12C6501EE24EA9413E0EC
:1010A000F12E00E010E020E030E0A9010E9456207F
:1010B0000F900F900F900F90CB01DF91CF911F9168
:1010C0000F91FF90EF90DF90CF90BF90AF90089579
:1010D000809164008E7F809364008EE480937C0016
:1010E0006AE070E080E090E00E94A41B80917A00AA
:1010F000806480937A0080917A0086FDFCCF2091F5
:1011000078008091790030E0382B442737FD4095F6
:10111000542F60E070E381E190E00E9414218091FF
:101120006400816080936400C90108950F931F9348
:10113000CF93DF9327E147E160E28CE397E00E94E1
:101140004B15C0915404D0E0CD30D1050CF02C9754
:101150008091520490E0880F991FFC01EE50FD4FE2
:10116000DC01A659BC4F00812C9147E160E28CE381
:1011700097E00E9400148091530490E0880F991F1B
:10118000FC01EE50FD4FDC01A659BC4F00812C91B3
:1011900047E160E28CE397E00E940014CC0FDD1F72
:1011A000FE01EE51FC4F1081C450DC4FC881012F6D
:1011B0002C2F47E160E28CE397E00E94001421E0CD
:1011C0002C0F47E161E28CE397E00E940014C2EE2D
:1011D000D3E00CEF13E048812296F80160810E5FA6
:1011E0001F4F8CE397E00E948713F3E0CA3FDF07AD
:1011F00091F743E06EE18CE397E00E94871344E0AF
:101200006EE18CE397E00E94871345E06EE18CE38A
:1012100097E00E94871346E06EE18CE397E00E941E
:10122000871343E060E28CE397E00E94871343E07A
:1012300061E28CE397E00E94871344E061E28CE373
:1012400097E00E94871345E060E28CE397E00E94FC
:10125000871346E061E28CE397E00E94871346E043
:1012600062E28CE397E00E94871345E161E38CE33F
:1012700097E00E94871345E162E38CE397E00E94C8
:10128000871346E162E38CE397E00E94871347E10E
:1012900061E38CE397E00E94871348E162E38CE30B
:1012A00097E00E94871349E161E38CE397E00E9495
:1012B000871349E162E38CE397E00E94871349E2D8
:1012C00060E28CE397E00E9487134AE26FE18CE3CF
:1012D00097E00E9487134BE26EE18CE397E00E9457
:1012E00087134BE26FE18CE397E00E9487134CE297
:1012F0006EE18CE397E00E9487134CE26FE18CE390
:1013000097E00E9487134CE260E28CE397E00E9432
:1013100087134DE26FE18CE397E00E94871345E16C
:101320006EE08CE397E00E94871346E16DE08CE36A
:1013300097E00E94871346E16FE08CE397E00E94FC
:10134000871347E16EE08CE397E00E94871347E143
:101350006FE08CE397E00E94871348E16EE08CE336
:1013600097E00E94871349E16DE08CE397E0DF91FD
:10137000CF911F910F910C948713209150048C589A
:101380009A40222319F062E170E002C06DE270E041
:101390000E94DE20862F0895E8E5F4E080E2819344
:1013A00094E0E038F907D9F7089560E08EE00E94F4
:1013B000AC1C60E08FE00E94AC1C60E082E10E9407
:1013C000AC1C61E083E10E94AC1C61E08AE00E94F9
:1013D000AC1C61E089E00E94AC1C61E083E00E94EB
:1013E000AC1C61E08EE00E94E51C61E08FE00E9491
:1013F000E51C26E040E855E260E070E081E498E01A
:101400000E94271E80916400816080936400809117
:1014100064008068809364000E94680821E088343A
:101420009D400CF020E0209350048CE397E00E9454
:101430008D1561E08CE397E00E94E3128CE397E066
:101440000E9412130C94CC098F39C1F0803BC1F07B
:101450008D3BC1F0823BC1F0843AC1F0863BC1F0C4
:101460008C3BC1F08438C1F08639C1F08C39C1F0B1
:101470008B3AC1F08B3BC1F48FEA16C080EE089521
:1014800088EF08958BEA08958DEF089584E8089514
:1014900084E9089581E808958EE8089589E908951A
:1014A0008AE908958EEA08950895809151048F5F26
:1014B000809351048A3070F16AE00E94BE20282F88
:1014C00080915204820F80935204909351048C3384
:1014D00050F06CE30E94BE2020915304280F20930B
:1014E000530490935204809153048C3350F06CE376
:1014F0000E94BE2020915404280F209354049093FE
:10150000530480915404883128F068E10E94BE2081
:1015100090935404089562E08CE397E00E9455157F
:101520004CE060E08CE397E00E9443138091540408
:101530008A3030F469EB72E08CE397E00E94661F1A
:101540004AE050E0609154048CE397E00E944F2001
:1015500061E08CE397E00E9455154DE068E18CE373
:1015600097E00E94431369ED72E08CE397E00E94DC
:10157000661F62E08CE397E00E9455154CE060E244
:101580008CE397E00E944313809153048A3030F437
:1015900069EB72E08CE397E00E94661F4AE050E03E
:1015A000609153048CE397E00E944F2060E08CE34D
:1015B00097E00E94551540E261E18CE397E00E94BC
:1015C0004313809152048A3030F469EB72E08CE36B
:1015D00097E00E94661F4AE050E0609152048CE35D
:1015E00097E00E944F206BEB72E08CE397E00E9443
:1015F000661F4AE050E0609151048CE397E00C9440
:101600004F200F93CF930E9468080E94BD09C82FF6
:101610004DE06CE38CE397E00E9487134DE06DE3AF
:101620008CE397E00E94871380915004811112C0CF
:1016300043E269E38CE397E00E9487134AE168E3A1
:101640008CE397E00E9487134AE169E38CE397E01B
:101650000E94871302E226E04EE06AE38CE397E003
:101660000E94601440E34C1B0C2F26E06AE38CE3DD
:1016700097E00E94A814CF910F9108950F9360E016
:101680008CE397E00E94E3122AE047E160E28CE3FA
:1016900097E00E944B1544E16FE18CE397E00E94D4
:1016A000871343E163E28CE397E00E9487130BE129
:1016B00023E24BE16DE18CE397E00E9400148CE3A0
:1016C00097E00E9412136EE571E080E090E00E94C6
:1016D000A41B03E023E043E16DE18CE397E00E946B
:1016E000601423E043E163E28CE397E00E9460141E
:1016F0004AE163E28CE397E00E9487138CE397E072
:101700000E9412136EE571E080E090E00E94A41B3D
:1017100080915104895F809351040F910895CF9275
:10172000DF92EF92FF920F931F93CF93DF936C01A1
:101730007A016034710510F540335105F8F48B01DE
:10174000095F1F4FC0E0D0E0F601208130E00C2E91
:1017500002C0359527950A94E2F720FF09C00034AE
:10176000110530F44E2D602F8CE397E00E94871313
:10177000219601501109C830D10531F7DF91CF9181
:101780001F910F91FF90EF90DF90CF900895CF922F
:10179000DF92EF92FF920F931F93CF93DF936C0131
:1017A0007B016034710510F540335105F8F48A016E
:1017B000095F1F4FC0E0D0E0F601208130E00C2E21
:1017C00002C0359527950A94E2F720FF09C000333F
:1017D000110530F4402F6E2D8CE397E00E948713A3
:1017E000219601501109C830D10531F7DF91CF9111
:1017F0001F910F91FF90EF90DF90CF9008950F937E
:101800001F93CF93DF9360E08CE397E00E94E31295
:101810000091750710917607C8010E945321C1E716
:10182000D7E08883C80101960E945321898360E034
:1018300070E083E00E94241C60E070E089E00E9478
:10184000241C40E060E08CE397E00E9443136DEBC2
:1018500072E08CE397E00E94731F65EC72E08CE30A
:1018600097E00E94661F60ED72E08CE397E00E94B3
:10187000731F60917107709172074AE050E08CE32A
:1018800097E00E943A208CE397E00E94121368EEE2
:1018900073E080E090E00E94A41B6FE770E083E0BB
:1018A0000E94241C60ED77E080E090E00E94A41B81
:1018B0006FEF70E083E00E94241C6FEF70E089E01E
:1018C0000E94241C80915104825E80935104DF9118
:1018D000CF911F910F910895EF92FF920F931F9355
:1018E000CF93DF931F92CDB7DEB7809173079091AE
:1018F00074072091710730917207281739070CF48B
:1019000043C06FEF70E089E00E94241C65E070E046
:1019100083E10E94241C40E060E08CE397E00E9499
:10192000431369EB72E08CE397E00E94661F46E187
:1019300060E08CE397E00E9443136BED72E08CE370
:1019400097E00E94731F8CE397E00E9412136CEDE6
:1019500075E080E090E00E94A41B60E083E10E94BB
:10196000E51C60ED77E080E090E00E94A41B809190
:1019700051048D5D809351040F90DF91CF911F91A1
:101980000F91FF90EF9008959093720780937107E5
:10199000E0907507F090760701E717E0F801619194
:1019A0008F01C70169830E9453216981681719F06B
:1019B000C7010E945B21FFEFEF1AFF0A87E00337A0
:1019C000180761F79ECFCF92DF92EF92FF920F93AD
:1019D0001F93CF93DF93CDB7DEB72A970FB6F89456
:1019E000DEBF0FBECDBF9AE0E7E9F2E0DE0111965F
:1019F00001900D929A95E1F76E019BE0C90ED11C02
:101A00008E010F5F1F4FE82EF12CE01AF10AA7019B
:101A1000400F511F62E070E0C8010E948F0B0F5F02
:101A20001F4F0C151D0599F72A960FB6F894DEBFC7
:101A30000FBECDBFDF91CF911F910F91FF90EF901F
:101A4000DF90CF900895EF92FF920F931F93CF9363
:101A5000DF93CDB7DEB72C970FB6F894DEBF0FBE7D
:101A6000CDBF8CE0E1EAF2E0DE01119601900D922B
:101A70008A95E1F700E010E06AE1E62EF12CB7016B
:101A8000601B710B46E250E081E090E08C0F9D1FDF
:101A9000800F911F0E94C70B0F5F1F4F0C30110565
:101AA00071F72C960FB6F894DEBF0FBECDBFDF9155
:101AB000CF911F910F91FF90EF9008950F931F9377
:101AC000CF93DF9300D0CDB7DEB798E3998394E24C
:101AD0009A83082F10E0A80162E070E0CE01019621
:101AE0000E948F0BA8014F5F5F4F62E070E0CE0154
:101AF00002960E948F0B0F900F90DF91CF911F9154
:101B00000F9108950F931F93CF93DF9300D0CDB71C
:101B1000DEB798E7998398E09A83082F10E0A80130
:101B200062E070E0CE0101960E948F0BA8014F5F2A
:101B30005F4F62E070E0CE0102960E948F0B0F9023
:101B40000F90DF91CF911F910F9108950F931F93E5
:101B5000CF93DF9300D0CDB7DEB790E3998398E2BF
:101B60009A83082F10E0A80162E070E0CE01019690
:101B70000E948F0BA8014F5F5F4F62E070E0CE01C3
:101B800002960E948F0B0F900F90DF91CF911F91C3
:101B90000F910895EF92FF920F931F93CF93DF93CE
:101BA000CDB7DEB72C970FB6F894DEBF0FBECDBF12
:101BB0007C018CE0EDEAF2E0DE01119601900D92DD
:101BC0008A95E1F700E010E0A8014F5D5F4FF70153
:101BD0006081718181E090E08C0F9D1F800F911FCB
:101BE0000E948F0B0F5F1F4F0C30110569F72C9669
:101BF0000FB6F894DEBF0FBECDBFDF91CF911F911E
:101C00000F91FF90EF9008954F925F926F927F92A5
:101C10008F929F92AF92BF92CF92DF92EF92FF92FC
:101C20000F931F93CF93DF9300D0CDB7DEB7109201
:101C300074071092730786E490E09A8389830E9468
:101C4000FF0B812C912C78E3C72ED12CE12CF12CA9
:101C5000E3E0AE2EB12CF6E44F2E512CA3E06A2E19
:101C6000712C80917307909174070196909374077B
:101C70008093730760E08CE397E00E94E31240E0FA
:101C800060E08CE397E00E9443134AE050E0B50126
:101C90008CE397E00E943A2066EE72E08CE397E0D6
:101CA0000E94661F60917307709174074AE050E0CC
:101CB0008CE397E00E943A20C114D10419F468E340
:101CC000C62ED12C4AE06C2D8CE397E00E94431382
:101CD00069EE72E08CE397E00E94661F80917307C3
:101CE00080FD03C021E0C21AD1080DE22FE34DE2CE
:101CF00060E08CE397E00E94001489819A81893F1B
:101D00009F4F14F45A824982CE0101960E94CA0D57
:101D100089819A8102979A838983069709F048C03E
:101D20008DE0E816F104D4F521E0A21AB1080E9472
:101D3000230D8CE397E00E94121361E089E00E947A
:101D4000E51C60E08AE00E94E51C68E770E083E142
:101D50000E94241C64EF71E080E090E00E94A41BCC
:101D60006FE770E08AE00E94241C60E270E083E18B
:101D70000E94241C64EF71E080E090E00E94A41BAC
:101D800060E083E10E94E51C61E08AE00E94E51CBE
:101D900080915104865F809351043CC08091730709
:101DA000909174078E0D9F1D909374078093730715
:101DB0001E2D80E28E190E94E30C80917307909192
:101DC0007407B3010E94DE20892B21F48AE28E1968
:101DD0000E945E0D80917307909174070196B30184
:101DE0000E94DE20892B21F48AE2811B0E94820D51
:101DF00080917307909174070296B3010E94DE20D0
:101E0000892B21F48AE2811B0E94A60D8CE397E0C6
:101E10000E9412138091730790917407813A2FE00A
:101E2000920794F4893B2BE092078CF48D3D25E0DA
:101E3000920784F4893E23E092077CF4853F914029
:101E40007CF062E370E00EC06AE070E00BC064E119
:101E500070E008C06EE170E005C068E270E002C0AA
:101E600066E470E0860E971E882777FD8095982F90
:101E70000E94A41B85E68816910424F00E94550A4E
:101E8000812C912CF7013197EF30F10508F04DC00E
:101E9000EC5CFF4F0C9433215EE0E52EF12C50C03A
:101EA0006CE370E083E10E94241C6FE770E089E03E
:101EB0000E94241C47E0E42EF12C42C061E470E053
:101EC00083E10E94241C3DE0E32EF12C39C065E53E
:101ED00070E083E10E94241C2FE0E22EF12C30C040
:101EE0006FE570E083E10E94241C9CE0E92EF12C58
:101EF00027C060E083E10E94E51C89E0E82EF12C18
:101F00001FC008E0E02EF12C1BC016E0E12EF12CE2
:101F100017C0B4E0EB2EF12C13C061E089E00E9401
:101F2000E51CA2E0EA2EF12C0BC0E114F10441F40F
:101F30008FE00E941B1D892B21F5EE24E394F12CE8
:101F40001A141B040CF48DCE0E946C0C0F900F9091
:101F5000DF91CF911F910F91FF90EF90DF90CF9085
:101F6000BF90AF909F908F907F906F905F904F90B9
:101F70000895EBE0EE2EF12CE3CF7AE0E72EF12C82
:101F8000DFCFE12CF12CDCCFCF93DF936DE570E058
:101F900080E090E00E94A41B8FE00E941B1D892B13
:101FA00031F080914E0490914F040297CCF06CE296
:101FB00071E080E090E00E94A41B809151048D5F4D
:101FC000809351048FE00E941B1D20914E0430919C
:101FD0004F04892B09F44FC1223031050CF04BC15D
:101FE0008EE00E941B1D892BD1F56CE271E080E030
:101FF00090E00E94A41B809151048D5F8093510456
:102000008EE00E941B1D892B51F5109255046FEF35
:1020100070E08AE00E94241C6FEF70E089E00E946B
:10202000241C6FEF70E083E00E94241C6FEA8CE3B5
:1020300097E00E9464120E943E0B6EEA8CE397E0E8
:102040000E9464121092800488E290E090930D0147
:1020500080930C016EE781E498E00E94851F8091D7
:102060000C0190910D01893291050CF48AC02091E8
:10207000560430915704232B09F083C0209180042B
:10208000233241F520E220938004209182042053E2
:102090003091810430534AE0349F200D1124209365
:1020A00054042091850420533091840430536AE015
:1020B000369F200D1124209353042091880420532F
:1020C0003091870430537AE0379F200D11242093FC
:1020D000520457C0253209F054C020918104209346
:1020E00055042223D1F14091820421E430E0B9016A
:1020F000641B7109AB01440F551F440F551F41501C
:102100005F4F50930B0140930A0140918304B90142
:10211000641B7109AB01440F551F440F551F4150FB
:102120005F4F509309014093080140918404241BA0
:102130003109220F331F220F331F21503F4F30939D
:102140000701209306012091850430E021543109D4
:10215000309305012093040110C02FEF30E030933D
:102160000701209306013093090120930801309361
:102170000B0120930A0110928004909357048093DE
:1021800056048932910504F1209156043091570488
:1021900082179307CCF060E08CE397E00E94E31293
:1021A00040E060E08CE397E00E94431360915604A6
:1021B00070915704685A7B4F8CE397E00E94661F2A
:1021C0008CE397E00E94121320915604309157043B
:1021D00080910C0190910D012817390769F46EEA7E
:1021E0008CE397E00E9464121092800488E290E0F1
:1021F00090930D0180930C01809155048823F9F090
:102200008091040190910501009799F460910A0171
:1022100070910B018AE00E94241C6091080170916A
:10222000090189E00E94241C609106017091070158
:1022300012C02091510430E0821793073CF76FEFF2
:1022400070E08AE00E94241C6FEF70E089E00E9439
:10225000241C6FEF70E083E00E94241C80915604E0
:102260009091570401969093570480935604DF9100
:10227000CF910C94550A223031058CF410925504FC
:102280006FEF70E08AE00E94241C6FEF70E089E03D
:102290000E94241C6FEF70E083E00E94241C6FEA10
:1022A0008CE397E00E946412C8E2D0E060E08CE327
:1022B00097E00E94E3120E94550A80914E0490918B
:1022C0004F048130910519F40E9496082CC0823089
:1022D000910569F440E065E08CE397E00E94871384
:1022E00040E06EE18CE397E00E9487131AC08330D0
:1022F000910559F440E065E08CE397E00E94871374
:102300000E942B08809354040CC0049751F440E0C1
:102310006EE18CE397E00E9487130E942B08809364
:1023200053040E948B0A0E94010B8CE397E00E94E9
:1023300012136AE570E080E090E00E94A41B2197F0
:1023400009F0B4CF8EE00E941B1D892B79F4809197
:102350004E0490914F04019690934F0480934E0445
:10236000039724F010924F0410924E0480914E0473
:1023700090914F04029728F46EEA8CE397E00E9454
:1023800064128FE00E941B1D892B09F029CE6BEE91
:1023900072E081E498E00E94731F6FEA8CE397E09B
:1023A0000E946412809164008E7F809364000E947A
:1023B000040E809164008160809364006EEA8CE377
:1023C00097E00E9464120CCE25E048E066E08CE3C2
:1023D00097E00C945712CF93DF9381E498E00E942A
:1023E000441D892B59F181E498E00E945D1D9EE314
:1023F000980F923090F38A3089F46FEA8CE397E07B
:102400000E946412E0910C01F0910D01E85AFB4F1B
:1024100010821092570410925604DFCFC0910C0125
:10242000D0910D010E94240AFE01E85AFB4F8083DF
:102430002196D0930D01C0930C01CFCFDF91CF91A6
:102440000895CF93CFB7F89480917707811127C073
:10245000E3EDFFE08491EFEBFFE09491E82FF0E0F3
:10246000EE0FFF1FEF50F04FA591B4918C9189238F
:1024700021F461E08AE00E94E51C61E08AE00E94AC
:10248000AC1C8CB580618CBD8CB580648CBD61E06A
:102490008DE00E94AC1C61E08BE00E94AC1C80913E
:1024A00077078F5F80937707CFBFCF910895FC01A7
:1024B000138212828AE194E091838083668345834C
:1024C0002483148E138E0895CF93DF93EC018B8DAC
:1024D0009C8D0097C1F4E8A1F9A1908189A5809510
:1024E00089238083EE8DFF8D908188A58095892337
:1024F0008083CE010E949A17EE8DFF8D808198A572
:10250000892B808313C08130910541F4262F40E050
:102510006D8DCE01DF91CF910C948A18029731F422
:1025200040E0CE01DF91CF910C943F18DF91CF9125
:102530000895CF93DF93EC018B8D9C8D0097B9F4B8
:10254000E8A1F9A1808199A5892B8083EE8DFF8D6B
:10255000908188A5809589238083CE010E949A1757
:10256000EE8DFF8D808198A5892B808313C08130EB
:10257000910541F4262F40E46D8DCE01DF91CF917E
:102580000C948A18029731F441E0CE01DF91CF918B
:102590000C943F18DF91CF910895606B0C946412F6
:1025A0001F93CF93DF93EC01162F62956F706061DC
:1025B0006E5F0E946412612F6F70CE01DF91CF9128
:1025C0001F910C946412FF920F931F93CF93DF938C
:1025D000EC016130B9F4F12C6F2DCE010E94CD12C7
:1025E00060E0CE010E94D01200E810E060E0CE0171
:1025F0000E94991201501109C9F7F39428E0F212D0
:10260000EBCF0AC080E891E0EEE0F1E0DF019C0151
:102610001D9221503040E1F7DF91CF911F910F9132
:10262000FF900895DF92EF92FF920F931F93CF9345
:10263000DF938C018EE0E82E81E0F82ED12C6D2DF9
:10264000C8010E94CD1260E0C8010E94D012C0E013
:10265000D0E0F701EC0FFD1F6081C8010E949912C4
:102660002196C034D105A9F7D39480E4E80EF11C7B
:1026700086E0D812E4CFDF91CF911F910F91FF90A8
:10268000EF90DF900895FC0161AB42AB08950F938A
:102690006034D8F54033C8F50130C9F42130A9F5CC
:1026A000E42FE695E695E69580E4E89FF001112495
:1026B000E60FF11DE25FFE4F477081E090E0042ECF
:1026C00001C0880F0A94EAF7908198271DC0842FD3
:1026D000869586958695E62FF0E0477090E4899F71
:1026E000E00DF11D1124E25FFE4F81E090E0042E29
:1026F00001C0880F0A94EAF7213019F49081982BD1
:1027000003C080959081982390830F9108950F9333
:10271000FC0103A522A50E9447130F9108957F9203
:102720008F929F92AF92BF92CF92DF92EF92FF92E1
:102730000F931F93CF93DF93EC01162FF42ED22E1D
:10274000A02FB0E0A41BB109B7FF03C0B195A195BC
:10275000B109ED2DF0E0E11BF109F7FF03C0F195A0
:10276000E195F109AA24A394EA17FB0714F0A12C20
:1027700006C09D2DD02E092F912F1F2DF92ED11679
:1027800030F49F2DF02E092F912F1D2DD92E9D2C29
:10279000911AE02FF0E0EF19F109F7FF03C0F1956E
:1027A000E195F1097E2EB92CB694F01618F4882420
:1027B000839412C088248A940FC00C2D2E2DAA2039
:1027C00071F0412F6F2DCE010E944713B718B7FE4D
:1027D00002C0F80CB90C1F5F1D1578F303C04F2D14
:1027E000612FF1CFDF91CF911F910F91FF90EF906B
:1027F000DF90CF90BF90AF909F908F907F90089583
:10280000CF92EF920F93FC01C3A4E2A40E948F1316
:102810000F91EF90CF900895CF92EF920F93260FE4
:10282000CE2CE02E042F0E948F130F91EF90CF90AB
:102830000895CF92EF920F93240FCE2CE02E022F0B
:10284000262F0E948F130F91EF90CF900895AF9293
:10285000BF92CF92DF92EF92FF920F931F93CF938D
:10286000DF93EC01F62EB42ED22EA02E1E2DEC2CD2
:10287000012F0E940C144FEF4A0D4B0D2D2D6F2D83
:10288000CE010E940C14AA94AA9479F0B3942A2D34
:102890004B2D6F2DCE010E9419146FEF6D0D6F0D32
:1028A0002A2D4B2DCE010E941914DF91CF911F913B
:1028B0000F91FF90EF90DF90CF90BF90AF90089571
:1028C000CF92EF920F93FC01C3A4E2A40E942714BD
:1028D0000F91EF90CF9008955F926F927F928F92B9
:1028E0009F92AF92BF92CF92DF92EF92FF920F939F
:1028F0001F93CF93DF934C01162FF42ED02E5E2C16
:10290000A62EB12CC0E0D0E03501620E711CCE01C4
:102910008A0D9B1D861597055CF46C2F610FEC2CBE
:10292000052D2D2D4F2DC4010E9419142196EFCF96
:10293000DF91CF911F910F91FF90EF90DF90CF909B
:10294000BF90AF909F908F907F906F905F90089511
:10295000CF92EF920F93FC01C3A4E2A40E946C14E7
:102960000F91EF90CF9008956F927F928F929F92E8
:10297000AF92BF92CF92DF92EF92FF920F931F938D
:10298000CF93DF93EC01D62EC42E102FAA24A3944C
:10299000A21A922E9194990CF22E422F4C0D0E2DCC
:1029A000212F0E9447134C2D4F19212F6D2DCE0141
:1029B0000E9447136F2D6D0D212F4C2DCE010E94CB
:1029C00047136D2D6F19212F4C2DCE010E944713F7
:1029D000BB24B3948FEF8B0D8F150CF04DC0A7FC6B
:1029E00004C0FA9493949394A90C8B2D880F8F5F55
:1029F000A80E6B2C6D0C0E2D212F7F2C7C0C472DDF
:102A0000662DCE010E9447138D2C8B18212F472D48
:102A1000682DCE010E944713212F7C2C7F18472D53
:102A2000662DCE010E944713212F472D682DCE0120
:102A30000E9447138B2C8C0C212F482D6F2C6D0C72
:102A4000662DCE010E944713212F482D8D2C8F1803
:102A5000682DCE010E9447137C2C7B18212F472D17
:102A6000662DCE010E944713212F472D682DCE01E0
:102A70000E944713B394AECFDF91CF911F910F9176
:102A8000FF90EF90DF90CF90BF90AF909F908F908E
:102A90007F906F900895EF920F93FC01E3A402A53D
:102AA0000E94B4140F91EF900895DC01643008F097
:102AB00032C09E966C939E97E62FF0E0EE0FFF1FBC
:102AC000E257FD4F80819181FC0124919C962C93CB
:102AD0009C973196E4919D96EC939D97FC013296DC
:102AE000E4919F96EC939F97FC013396E491D096E6
:102AF000EC93D097FC01349624913196849190E028
:102B0000F4E62F9F800D911D1124D4969C938E93F3
:102B1000D39781E0089580E00895CF93DF93EC018F
:102B200060E00E94551581E08AA71BA619AA1AAA7F
:102B30008D81682F70E0AB014753504FFA0124910B
:102B400030E0220F331F2951304FF901A591B49184
:102B5000B9A3A8A3FB01EB54F04F649169A7FA0154
:102B60004491E42FF0E0EE0FFF1FEF50F04F25915E
:102B700034913DA32CA361E00E94AC1C61E08E81E6
:102B80000E94AC1C8B8D9C8D009721F4CE010E947D
:102B900054170CC08130910521F4CE010E94A11779
:102BA00005C0029719F4CE010E94A91761E08E8139
:102BB0000E94AC1C61E08E810E94E51C65E070E023
:102BC00080E090E00E94A41B60E08E810E94E51CE2
:102BD0006AE070E080E090E00E94A41B61E08E81DA
:102BE0000E94E51C6EEACE010E94641265EDCE01E2
:102BF0000E94641260E8CE010E94641268EACE016D
:102C00000E9464126FE2CE010E94641263EDCE0155
:102C10000E94641260E0CE010E94641260E4CE0162
:102C20000E9464126DE8CE010E94641264E1CE013C
:102C30000E94641266EACE010E94641264EACE0128
:102C40000E94641261EACE010E94641268ECCE0117
:102C50000E9464126AEDCE010E94641262E1CE010C
:102C60000E94641261E8CE010E9464126FE8CE01F6
:102C70000E94641269EDCE010E94641261EFCE01E0
:102C80000E9464126BEDCE010E94641260E4CE01DA
:102C90000E9464126FEACE010E94641261E0CE01CC
:102CA000DF91CF910C94E3125F926F927F928F929B
:102CB0009F92AF92BF92CF92DF92EF92FF920F93CB
:102CC0001F93CF93DF93EC01162FB42EF02E3FA568
:102CD000231708F4B0C068A970E0630F711D822F3C
:102CE00090E0861797070CF0A6C0D22ED31A9DA4A9
:102CF00096949694969481E08915C0F1C12E3C2D4E
:102D0000311B2CA5822F90E0A32FB0E08A179B07E0
:102D10000CF491C0321791F0EEA5F0E0EE0FFF1F1A
:102D2000E257FD4FD29EA00DB11D112416960190C1
:102D3000F081E02DEA0FFB1F949001C0912CA12C93
:102D40004A2D4B0D90FE03C00E2D2F2D04C021E007
:102D5000F11020E00E2D6C2DCE010E9447139694A9
:102D6000A39488E0A812ECCFC394C9CFEBA9FCA927
:102D70002CA530E0CF01B9010E94CA208D2D90E032
:102D80000E94CA20829F6001839FD00C929FD00C2A
:102D900011249E9E90019F9E300D1124269FC001FC
:102DA000279F900D369F900D1124C80ED91E742EAA
:102DB000A12CB12C86E0C80ED11C812E482D411BC0
:102DC0008CA5481780F5EEA5F0E0EE0FFF1FE25747
:102DD000FD4F2BA93CA9A29EC001A39E900DB29EBF
:102DE000900D11248C0D9D1D840F911D0190F0817B
:102DF000E02DE80FF91F5490612C462D470D50FE31
:102E000003C00E2D2F2D04C021E0F11020E00E2D67
:102E1000682DCE010E9447135694639488E068128F
:102E2000ECCF8394CBCF8FEFA81AB80A88E0780E46
:102E3000A91408F4C2CFDF91CF911F910F91FF9099
:102E4000EF90DF90CF90BF90AF909F908F907F904A
:102E50006F905F900895EF920F93CF93DF93EC0103
:102E6000262F6A30A9F06D30C1F0EBA40AA54AA95B
:102E700069A90E9454164CA529A9240F2F5F29ABDC
:102E800030E080E490E0841B9109821793072CF4D2
:102E90008AA99DA5890F8AAB19AA81E090E0DF91EC
:102EA000CF910F91EF900895CF93DF93EC014C8178
:102EB00050E09A012753304FF901849190E0880F38
:102EC000991F8951904FFC01659174917F8F6E8F8E
:102ED000FA01EB54F04F449148A7F9012491E22FF5
:102EE000F0E0EE0FFF1FEF50F04F859194919BA300
:102EF0008AA361E08BE00E94AC1C61E08DE00E943F
:102F0000AC1C61E08C810E94AC1C61E08C810E9451
:102F1000E51C8CB58C7F8CBD8DB581608DBD8CB56D
:102F2000837F8CBD61E08AE00E94AC1CDF91CF9171
:102F30000C9421126EBD00000DB407FEFDCF8EB5BE
:102F4000089588E797E00E94401987E08093B800D1
:102F500008950F931F93CF93DF93EC014C8150E0C2
:102F60009A012753304FF901849190E0880F991FFF
:102F70008951904FFC01659174917F8F6E8FFA019A
:102F8000EB54F04F449148A7F9012491E22FF0E06F
:102F9000EE0FFF1FEF50F04F859194919BA38AA3F2
:102FA0008F81682F70E0AB014753504FFA01249195
:102FB00030E0220F331F2951304FF901A591B49110
:102FC000BA8BA98BFB01EB54F04F6491698FFA0126
:102FD0004491E42FF0E0EE0FFF1FEF50F04F2591EA
:102FE00034913C8B2B8B688570E0AB014753504F7D
:102FF000FA01249130E0220F331F2951304FF9019B
:10300000A591B491BE8BAD8BFB01EB54F04F649155
:103010006A8FFA014491E42FF0E0EE0FFF1FEF50AA
:10302000F04F25913491388F2F8B61E00E94AC1CBA
:1030300061E08F810E94E51C61E088850E94AC1CE4
:1030400061E088850E94E51C61E08C810E94AC1CD7
:1030500061E08C810E94E51C00E010E0FE01E00FC1
:10306000F11F61E081850E94AC1C0F5F1F4F08308B
:103070001105A1F7DF91CF911F910F910895CF9284
:10308000DF92EF92FF920F931F93CF93DF931F92E4
:10309000CDB7DEB76C01E62E60E0FC018481498388
:1030A0000E94E51C4981642FF60185810E94E51C80
:1030B00060E0F60187810E94E51C00E010E0F12C41
:1030C000F601E00FF11FC701002E02C0959587950C
:1030D0000A94E2F780FF02C061E001C060E08185F0
:1030E0000E94E51C0F5F1F4F0830110549F761E092
:1030F000F60187810E94E51C61E0F60184810F9052
:10310000DF91CF911F910F91FF90EF90DF90CF90C3
:103110000C94E51CCF93DF9300D0CDB7DEB788E7E2
:1031200097E02A8349830E944A194981642F88E7DE
:1031300097E00E9401192A81622F88E797E00E9498
:10314000011988E797E00F900F90DF91CF910C94D1
:1031500067198091A80790E02091A907821B910927
:1031600008952091A9078091A807281750F4E22F0D
:10317000F0E0E655F84F808190E02F5F2093A9079B
:1031800008958FEF9FEF0895E091A9078091A80718
:10319000E81730F4F0E0E655F84F808190E00895AC
:1031A0008FEF9FEF08950895CF92DF92EF92FF92F5
:1031B0000F931F93CF93DF937C01CB018A01209162
:1031C0008407222389F0EB016B01C40ED51ECC15B8
:1031D000DD0569F06991D701ED91FC910190F081D5
:1031E000E02DC7010995F3CF642F0E94E319C801B0
:1031F000DF91CF911F910F91FF90EF90DF90CF90D3
:103200000895CF93DF931F92CDB7DEB769832091E6
:1032100084072223D1F020918507203240F021E05D
:1032200030E0FC013383228380E090E015C0809180
:103230008607E82FF0E0E957F84F998190838F5F78
:10324000809386078093850705C061E0CE010196D3
:103250000E94E31981E090E00F90DF91CF910895F3
:10326000FC011382128248EE53E060E070E0448378
:1032700055836683778382E294E091838083089507
:103280001092A9071092A80710928607109285073E
:103290000C946E1981E0809384076093A7071092C5
:1032A00086071092850708950F93062F21E040911D
:1032B000850767E877E08091A7070E948C19109234
:1032C000860710928507109284070F91089561E098
:1032D0000C94541988E797E00C9430191092370831
:1032E00081E0809335081092340861E082E10E9409
:1032F000E51C61E083E10E94E51CE9EBF0E08081E0
:103300008E7F808380818D7F808384E38093B8006B
:1033100085E48093BC0008950F93413208F04AC0C1
:10332000909137089111FCCF92E090933708009369
:1033300035089FEF9093CA0710920F0840930E082C
:10334000FB0160E178E0DB019A2F961B941718F4DB
:1033500091919D93F9CF1092360890913608880F7D
:10336000892B8093360880913408813061F4109263
:103370003408809136088093BB008091BC0083FDA7
:10338000F8CF85EC01C085EE8093BC00222321F0AC
:10339000809137088230E1F38091CA078F3F61F056
:1033A0008091CA07803251F08091CA07803341F47E
:1033B00083E007C081E005C080E003C082E001C077
:1033C00084E00F910895613298F4209137082430F9
:1033D00089F46093EC07FC018EEE97E0DC012A2F64
:1033E000281B261718F421912D93F9CF80E008951A
:1033F00081E0089582E0089585ED8093BC0080917E
:10340000BC0084FDFCCF10923708089585EC8093B2
:10341000BC001092370808951F920F920FB60F92BA
:1034200011242F933F934F935F936F937F938F93C9
:103430009F93AF93BF93EF93FF938091B900887FE1
:10344000803609F49EC078F5883209F45DC090F4A6
:10345000803109F456C038F4882309F4F5C0883067
:1034600009F44FC0F5C0883109F44EC0803209F428
:103470005FC0EEC0803409F46AC058F4803309F4A8
:1034800057C0883309F0E4C08093CA070E94061A27
:10349000DFC0803509F44FC0883509F45DC0883439
:1034A00009F0D6C0D3C0883909F4C4C0A8F488375D
:1034B00009F467C038F4883609F463C0803709F42A
:1034C00060C0C6C0883809F4B5C0803909F45FC04F
:1034D000803809F0BDC05BC0803B09F483C038F47C
:1034E000803A09F466C0883A09F47CC0B1C0803CD7
:1034F00009F4A4C0883C09F4A1C0883B09F487C042
:10350000A7C08091360810C090910F0880910E08D6
:10351000981770F5E0910F0881E08E0F80930F08E7
:10352000F0E0E05FF74F80818093BB0085EC83C0C3
:103530008093CA078BC0E0910F0881E08E0F8093C3
:103540000F088091BB00F0E0E05FF74F808390911F
:103550000F0880910E086BC0E0910F0881E08E0F7C
:1035600080930F088091BB00F0E0E05FF74F80830D
:103570008091350881116AC081E08093340884EA23
:103580005EC083E0809337081092CB07CFCF809145
:10359000CB07803208F04EC0E091CB0781E08E0F60
:1035A0008093CB078091BB00F0E0E453F84F808319
:1035B000BDCF0E94061A8091CB07803230F4E09193
:1035C000CB07F0E0E453F84F10826091CB0770E036
:1035D000E0913008F09131088CEC97E00995109259
:1035E000CB0736C084E0809337081092ED07109225
:1035F000EC07E0913208F091330809958091EC07CF
:10360000811105C081E08093EC071092EE07E091F4
:10361000ED0781E08E0F8093ED07F0E0E251F84F67
:1036200080818093BB009091ED078091EC07981703
:1036300008F47CCF85E88093BC000AC085EC8093B9
:10364000BC001092370804C01092CA070E94FC19EF
:10365000FF91EF91BF91AF919F918F917F916F916A
:103660005F914F913F912F910F900FBE0F901F9040
:1036700018951F920F920FB60F9211242F933F931C
:103680008F939F93AF93BF938091390890913A089D
:10369000A0913B08B0913C08309138082DE2230FEF
:1036A0002D3720F40196A11DB11D05C020EB230F7D
:1036B0000296A11DB11D209338088093390890937C
:1036C0003A08A0933B08B0933C0880913D08909144
:1036D0003E08A0913F08B09140080196A11DB11D80
:1036E00080933D0890933E08A0933F08B093400814
:1036F000BF91AF919F918F913F912F910F900FBEEE
:103700000F901F9018959FB7F89440913D085091E5
:103710003E0860913F087091400886B5A89B06C09E
:103720008F3F21F04F5F5F4F6F4F7F4F9FBF22272B
:10373000342F452F562F280F311D411D511DA5E057
:10374000B0E00E9439210895CF92DF92EF92FF926C
:10375000CF93DF936B017C010E94831BEB01C114AB
:10376000D104E104F10489F00E94AD200E94831B82
:103770006C1B7D0B683E734090F381E0C81AD10842
:10378000E108F108C851DC4FEACFDF91CF91FF90FB
:10379000EF90DF90CF900895789484B5826084BDD7
:1037A00084B5816084BD85B5826085BD85B5816045
:1037B00085BDEEE6F0E0808181608083E1E8F0E0A5
:1037C0001082808182608083808181608083E0E8D4
:1037D000F0E0808181608083E1EBF0E080818460B3
:1037E0008083E0EBF0E0808181608083EAE7F0E0B5
:1037F00080818460808380818260808380818E7FED
:1038000080838081806880831092C10008958E300B
:1038100008F08E5087702091960290E4299F9001C5
:103820001124822B80937C0080917A0080648093A5
:103830007A0080917A0086FDFCCF809178002091FB
:10384000790090E0922B08951F93CF93DF93182F68
:10385000EB0161E00E94AC1C209711F460E004C011
:10386000CF3FD10539F461E0812FDF91CF911F91D6
:103870000C94E51CE12FF0E0EF55F04FE491E330BC
:10388000F9F048F4E130B9F0E230A1F584B5806296
:1038900084BDC8BD34C0E730E9F0E83019F1E43048
:1038A00049F580918000806280938000D0938B00E6
:1038B000C0938A0024C084B5806884BDC7BD1FC082
:1038C00080918000806880938000D0938900C093AD
:1038D000880015C08091B00080688093B000C093CC
:1038E000B3000DC08091B00080628093B000C0939F
:1038F000B40005C0C038D1050CF0B5CFAFCFDF9113
:10390000CF911F910895833081F028F4813099F090
:103910008230A1F008958730A9F08830B9F0843062
:10392000D1F4809180008F7D03C0809180008F77DB
:1039300080938000089584B58F7702C084B58F7D11
:1039400084BD08958091B0008F7703C08091B0004E
:103950008F7D8093B0000895CF93DF9390E0FC01BA
:10396000EB54F04F2491FC01E753F04F84918823EE
:1039700049F190E0880F991FFC01EF50F04FA5919D
:10398000B4918951904FFC01C591D4919FB76111B9
:1039900008C0F8948C91209582238C93888182238F
:1039A0000AC0623051F4F8948C91322F3095832301
:1039B0008C938881822B888304C0F8948C91822B0D
:1039C0008C939FBFDF91CF9108950F931F93CF9357
:1039D000DF931F92CDB7DEB7282F30E0F901EF5506
:1039E000F04F8491F901EB54F04F1491F901E75332
:1039F000F04F04910023C9F0882321F069830E94CD
:103A0000831C6981E02FF0E0EE0FFF1FE951F04FBA
:103A1000A591B4919FB7F8948C91611103C0109552
:103A2000812301C0812B8C939FBF0F90DF91CF9199
:103A30001F910F910895CF93DF93282F30E0F90164
:103A4000EF55F04F8491F901EB54F04FD491F90107
:103A5000E753F04FC491CC2391F081110E94831C55
:103A6000EC2FF0E0EE0FFF1FE352F04FA591B49161
:103A70002C912D2381E090E021F480E002C080E0D1
:103A800090E0DF91CF910895FC01818D228D90E02F
:103A9000805C9F4F821B91098F7399270895FC01C9
:103AA000918D828D981731F0828DE80FF11D858DF3
:103AB00090E008958FEF9FEF0895FC01918D828D26
:103AC000981761F0828DDF01A80FB11D5D968C9172
:103AD000928D9F5F9F73928F90E008958FEF9FEF7D
:103AE00008958BED9EE1892B49F08BEE91E1892BB6
:103AF00029F00E94DB1E81110C94EB110895FC014A
:103B0000848DDF01A80FB11DA35ABF4F2C91848D66
:103B100090E001968F739927848FA689B7892C939B
:103B2000A089B1898C9180648C93938D848D981336
:103B300006C00288F389E02D80818F7D80830895FF
:103B4000CF93DF93EC01888D8823C9F0EA89FB8944
:103B5000808185FD05C0A889B9898C9186FD0FC03B
:103B60000FB607FCF5CF808185FFF2CFA889B98910
:103B70008C9185FFEDCFCE010E947F1DE7CFDF91B5
:103B8000CF910895CF92DF92FF920F931F93CF931F
:103B9000DF931F92CDB7DEB76C0181E0D601589656
:103BA0008C9358975B969C915B975C968C915C97F5
:103BB000981307C05096ED91FC915197808185FD37
:103BC0002EC0F601038D10E00F5F1F4F0F731127FA
:103BD000F02EF601848DF81211C00FB607FCF9CF54
:103BE000D6015096ED91FC915197808185FFF1CFE0
:103BF000C60169830E947F1D6981EBCF838DE80F29
:103C0000F11DE35AFF4F6083D6015B960C935B97DF
:103C10005296ED91FC915397808180620CC0D60141
:103C20005696ED91FC91579760835096ED91FC91DB
:103C3000519780818064808381E090E00F90DF91D4
:103C4000CF911F910F91FF90DF90CF900895BF9279
:103C5000CF92DF92EF92FF92CF93DF93EC016A0154
:103C60007B01B22E60EC76EC8DE290E0A70196012C
:103C70000E94F2202150310941095109569547957A
:103C800037952795E889F98982E08083211580E1BD
:103C9000380798F0E889F989108260E673EE86E1CA
:103CA00090E0A70196010E94F220215031094109BC
:103CB00051095695479537952795EC85FD853083B5
:103CC000EE85FF852083188EEC89FD89B082EA8914
:103CD000FB89808180618083EA89FB89808188609B
:103CE0008083EA89FB89808180688083EA89FB89F7
:103CF00080818F7D8083DF91CF91FF90EF90DF9067
:103D0000CF90BF9008951F920F920FB60F9211247B
:103D10002F938F939F93EF93FF93E0915108F0912E
:103D200052088081E0915708F091580882FD12C036
:103D3000908180915A088F5F8F7320915B08821762
:103D400051F0E0915A08F0E0EF5BF74F958F8093C8
:103D50005A0801C08081FF91EF919F918F912F911F
:103D60000F900FBE0F901F9018951F920F920FB6D5
:103D70000F9211242F933F934F935F936F937F93F1
:103D80008F939F93AF93BF93EF93FF9381E498E05A
:103D90000E947F1DFF91EF91BF91AF919F918F91F5
:103DA0007F916F915F914F913F912F910F900FBE37
:103DB0000F901F90189581E498E00E94441D21E027
:103DC000892B09F420E0822F089510924408109264
:103DD000430888EE93E0A0E0B0E08093450890931C
:103DE0004608A0934708B093480882E394E0909374
:103DF00042088093410885EC90E090934E088093B0
:103E00004D0884EC90E09093500880934F0880EC2C
:103E100090E0909352088093510881EC90E0909349
:103E200054088093530882EC90E090935608809356
:103E3000550886EC90E090935808809357081092AC
:103E40005A0810925B0810925C0810925D08089561
:103E5000CF92DF92EF92FF920F931F93CF93DF9356
:103E60007C016A01EB0100E010E00C151D0571F00A
:103E70006991D701ED91FC910190F081E02DC7018E
:103E80000995892B19F00F5F1F4FEFCFC801DF9104
:103E9000CF911F910F91FF90EF90DF90CF900895F9
:103EA0006115710581F0DB010D900020E9F7AD018E
:103EB00041505109461B570BDC01ED91FC910280EA
:103EC000F381E02D099480E090E008950C94501F58
:103ED000DC01ED91FC910190F081E02D09946EE3FD
:103EE00074E00C94501F0F931F93CF93DF93EC015A
:103EF0000E94501F8C01CE010E946F1F800F911FE6
:103F0000DF91CF911F910F9108950F931F93CF933E
:103F1000DF93EC010E94681F8C01CE010E946F1F8D
:103F2000800F911FDF91CF911F910F9108958F9274
:103F30009F92AF92BF92CF92DF92EF92FF920F9338
:103F40001F93CF93DF93CDB7DEB7A1970FB6F89449
:103F5000DEBF0FBECDBF7C01C42EE52FCB01D22E1C
:103F600019A221E02D1510F02AE0D22E8E010F5D4E
:103F70001F4F8D2C912CA12CB12C6C2D7E2FA501C7
:103F800094010E94F2208C2DD29E801911240150A0
:103F900011098A3014F4805D01C0895CF8018083C6
:103FA000211531054105510521F0C22EE32FCA012B
:103FB000E4CFB801C7010E94501FA1960FB6F89434
:103FC000DEBF0FBECDBFDF91CF911F910F91FF904C
:103FD000EF90DF90CF90BF90AF909F908F9008951B
:103FE000CF92DF92EF92FF920F931F93CF93DF93C5
:103FF000EC016A017B012115310579F4E881F98131
:104000000190F081E02D642FDF91CF911F910F91EE
:10401000FF90EF90DF90CF9009942A303105E9F4BA
:1040200077FF1AC06DE20E94681F8C014427552754
:10403000BA014C195D096E097F092AE0CE010E9480
:10404000971F800F911FDF91CF911F910F91FF90CC
:10405000EF90DF90CF9008952AE0B701A601CE013E
:10406000DF91CF911F910F91FF90EF90DF90CF9054
:104070000C94971F9A01AB01662757FD6095762F28
:104080000C94F01F2115310541F4DC01ED91FC91F8
:104090000190F081E02D642F09940C94971F9A01F0
:1040A000462F50E060E070E00C9442204F925F9207
:1040B0006F927F92AF92BF92CF92DF92EF92FF9278
:1040C0000F931F93CF93DF93CDB7DEB729013A014A
:1040D000621B730B840B950B29893A894B895C8988
:1040E0002A193B094C095D09298B3A8B4B8B5C8B58
:1040F0009B01AC0169897A898B899C890E94AE20D9
:10410000E418F50806091709A80197010E9414216F
:104110002A0D3B1D4C1D5D1DCA01B901DF91CF91D8
:104120001F910F91FF90EF90DF90CF90BF90AF90D5
:104130007F906F905F904F90089508950E94CC1BE0
:104140000E949D200E94D509C1E7DDE10E94C40FB5
:104150002097E1F30E94711DF9CF0895DB018F9341
:104160009F930E943921BF91AF91A29F800D911D15
:10417000A39F900DB29F900D11240895991B79E093
:1041800004C0991F961708F0961B881F7A95C9F7E7
:1041900080950895AA1BBB1B51E107C0AA1FBB1F36
:1041A000A617B70710F0A61BB70B881F991F5A95C3
:1041B000A9F780959095BC01CD01089597FB072E36
:1041C00016F4009407D077FD09D00E94CA2007FC9E
:1041D00005D03EF4909581959F4F08957095619517
:1041E0007F4F0895A1E21A2EAA1BBB1BFD010DC033
:1041F000AA1FBB1FEE1FFF1FA217B307E407F50797
:1042000020F0A21BB30BE40BF50B661F771F881F72
:10421000991F1A9469F760957095809590959B0108
:10422000AC01BD01CF010895052E97FB1EF400944B
:104230000E942B2157FD07D00E94F22007FC03D0DB
:104240004EF40C942B2150954095309521953F4F7D
:104250004F4F5F4F089590958095709561957F4F72
:104260008F4F9F4F0895EE0FFF1F0590F491E02DA3
:1042700009940E944421A59F900DB49F900DA49F86
:10428000800D911D11240895A29FB001B39FC0011C
:10429000A39F700D811D1124911DB29F700D811D72
:1042A0001124911D0895F999FECF92BD81BDF89A10
:1042B000992780B50895262FF999FECF1FBA92BD90
:1042C00081BD20BD0FB6F894FA9AF99A0FBE0196F7
:0642D0000895F894FFCFF1
:1042D600010000000800FF00FF00FF0028000000AA
:1042E6000000000000000000000000000000008048
:1042F600C0C0E0E0F0F0F0F8F8F8F8F8FCFCFCFCE0
:10430600FCFCFCF8F8F8F0E0E0C0800000000000DB
:104316000000000000000000000000000000000097
:10432600000000000000000000C0F0F8FEFEFFFFE5
:10433600FFFFFFFFFFFFFFFFFFFFFF7F3F9F9FDFA7
:10434600FFBF9F9FBFBFFFFFFFFFFFFFFCF8E0001F
:104356000000000000000000000000000000000057
:104366000000000000000000FEFFFFFFFFFFFFFF50
:10437600FFFFFFFFFFFFFFFFFFFFFFFFC3C9C1C333
:10438600FFC38981C3FFFFFFFFFFFFFFFFFFFF7F23
:1043960040000000000000000000000000000000D7
:1043A6000000000000000000033FFFFFFFFFFFFFCB
:1043B600F1E08EBC2DC9933F7F7FFFFFFFFFFFFF1C
:1043C600FFFFFFFFFFFFFFFFFFFFFF7F3F9CC6765C
:1043D6001F070000000000000000000000000000B1
:1043E6000000000000000000000001070F1F7FFF13
:1043F600FFFFFFFFFFFFFFFFFFFEFCFCFDF9FBFBDE
:10440600FBF3F3F3F3FBFBFBF9FDFCFEFF3F0700B9
:104416000000000000000000000000000000000096
:104426000000000000000000000000000000000086
:10443600010307070F1F1F3F3F3F3F3F3F7FFFFF20
:10444600FFEFEF8F0F0F0F0F0707010100000000AE
:104456000000000000000000000000000000A00AAC
:104466009A0486007C0101382C3E3E383E98783C02
:10447600181C7C546C547C3C0C1C1C0C3C20602886
:10448600A8A8F878383030202030002E00202020D0
:1044960044696E6F003D3D3D3D3D3D3D3D3D3D002A
:1044A6004869676873636F72653A002047616D6596
:1044B600204F766572002020002A0047616D652036
:1044C60021000200020002000300040005000600AD
:1044D600070009000B000C000E0011001300150068
:1044E600170019001B001D002000220023002500D4
:1044F6002700280029002A002B002C002C002C0065
:104506002C002C002B002A0029002800270025005B
:104516002300210020001D001B00190017001500B4
:10452600130011000E000C000B0009000700060026
:1045360005000400030002000200200022002400FF
:10454600260029002A002C002E00300031003200FF
:1045560033003400350035003500350035003400B1
:1045660033003200310030002E002C002A002900D2
:1045760026002400220020001E001C001A0017003E
:1045860015001400120010000F000E000D000C00A4
:104596000B000B000B000B000B000C000D000E00B7
:1045A6000F00100012001400160017001A001C005D
:1045B6001E00060008000E00170020002600280036
:1045C60026001F0017000E00080006002000280025
:1045D6002F0031002F0028002000170011000F00C7
:1045E600110018002000000000002B17281F0000F3
:1045F60000000119D418A918B118C418D31800005E
:104606000000C21D281F441D5D1D4F1DA01D0D0A63
:0E461600006E616E00696E66006F76660000D1
:00000001FF
